:100000000C94BD000C94E5000C94E5000C94E50004
:100010000C94E5000C94E5000C94E5000C94E500CC
:100020000C94E5000C94E5000C94E5000C94E500BC
:100030000C94E5000C94E5000C94E5000C94E500AC
:100040000C94070C0C94E5000C94D50B0C94AF0B9E
:100050000C94E5000C94E5000C94E5000C94E5008C
:100060000C94E5000C94E50000000000240027003B
:100070002A0000000000250028002B0004040404CE
:100080000404040402020202020203030303030342
:10009000010204081020408001020408102001021F
:1000A00004081020000000080002010000030407FB
:1000B00000000000000000002E20446F6E6521004B
:1000C0002E20446F6E652120496E69742066696C2C
:1000D0006573797374656D00496E697420534420AB
:1000E00063617264004D616368696E652068616C6C
:1000F00074656421005374617274696E6720763888
:10010000362E2E2E00436F7079726967687420282E
:100110004329203230323120407261737069647536
:10012000696E6F2C20756E6465722047504C2D7679
:1001300033006176722D763836202D20496E746535
:100140006C203830383620656D756C61746F7220A4
:1001500072756E6E696E67206F6E2041726475698C
:100160006E6F20554E4F007C3C3E5E2B3D3F2F5B1B
:100170005D3B2C2A225C0000510C11241FBECFEFE6
:10018000D8E0DEBFCDBF11E0A0E0B1E0E4E9F4E2E9
:1001900002C005900D92A234B107D9F725E0A2E480
:1001A000B1E001C01D92AF33B207E1F710E0CDEB33
:1001B000D0E004C02197FE010E942C12CC3BD10755
:1001C000C9F70E94870C0C9448120C940000AF925F
:1001D000BF92CF92DF92EF92FF920F931F93CF9334
:1001E000DF936C017B018B01040F151FEB015E0196
:1001F000AE18BF08C017D10759F06991D601ED912B
:10020000FC910190F081E02DC6010995892B79F7C9
:10021000C501DF91CF911F910F91FF90EF90DF907B
:10022000CF90BF90AF900895FC01538D448D252F42
:1002300030E0842F90E0821B930B541710F0CF9680
:10024000089501970895FC01918D828D981761F0B2
:10025000A28DAE0FBF2FB11D5D968C91928D9F5FC9
:100260009F73928F90E008958FEF9FEF0895FC01A8
:10027000918D828D981731F0828DE80FF11D858D5B
:1002800090E008958FEF9FEF0895FC01918D228DEE
:10029000892F90E0805C9F4F821B91098F73992773
:1002A00008958EE894E00E94450121E0892B09F42D
:1002B00020E0822F089580E090E0892B29F00E94B1
:1002C000510181110C9400000895FC01A48DA80F28
:1002D000B92FB11DA35ABF4F2C91848D90E0019688
:1002E0008F739927848FA689B7892C93A089B189A8
:1002F0008C91837080648C93938D848D981306C049
:100300000288F389E02D80818F7D80830895EF92AC
:10031000FF920F931F93CF93DF93EC0181E0888FBF
:100320009B8D8C8D98131AC0E889F989808185FF8F
:1003300015C09FB7F894EE89FF896083E889F98931
:1003400080818370806480839FBF81E090E0DF9133
:10035000CF911F910F91FF90EF900895F62E0B8D86
:1003600010E00F5F1F4F0F731127E02E8C8D8E1141
:100370000CC00FB607FCFACFE889F989808185FFA8
:10038000F5CFCE010E946501F1CFEB8DEC0FFD2F73
:10039000F11DE35AFF4FF0829FB7F8940B8FEA8963
:1003A000FB8980818062CFCFEF92FF920F931F93E2
:1003B000CF93DF938C017B01D0E0C0E0F701EC0F1D
:1003C000FD1F6491662339F0C8010E948701892BC3
:1003D00011F02196F3CFCE01DF91CF911F910F91B4
:1003E000FF90EF900895CF93DF93EC01888D8823E1
:1003F000B9F0AA89BB89E889F9898C9185FD03C088
:10040000808186FD0DC00FB607FCF7CF8C9185FF6C
:10041000F2CF808185FFEDCFCE010E946501E9CF4B
:10042000DF91CF91089590E0FC01EC55FF4F2491AE
:10043000FC01E057FF4F3491FC01E458FF4FE49179
:10044000EE23C9F0222339F0233001F1A8F4213042
:1004500019F1223029F1F0E0EE0FFF1FEE58FF4FA7
:10046000A591B4918FB7F894EC91611126C03095A5
:100470003E233C938FBF08952730A9F02830C9F060
:10048000243049F7809180008F7D03C080918000E7
:100490008F7780938000DFCF84B58F7784BDDBCFEB
:1004A00084B58F7DFBCF8091B0008F778093B000B3
:1004B000D2CF8091B0008F7DF9CF3E2BDACFCF9392
:1004C000DF9390E0FC01E057FF4F249184589F4F49
:1004D000FC0184918823D1F090E0880F991FFC01E2
:1004E000E859FF4FA591B491FC01EE58FF4FC5911B
:1004F000D49161110EC09FB7F8948C91E22FE095D2
:100500008E238C932881E223E8839FBFDF91CF91D4
:1005100008958FB7F894EC91E22BEC938FBFF6CF50
:100520002FB7F89460914C0170914D0180914E016C
:1005300090914F012FBF08958EBD0DB407FEFDCFE2
:10054000089561E0FC0182810E9413028FEF0C94F8
:100550009C028FEF8EBD0DB407FEFDCF8EB50895C2
:10056000FF920F931F93CF93DF93F82E8B010E947E
:100570009002EB010E94A9028F1571F00E94900277
:100580006C1B7D0B06171707A8F780E0DF91CF9152
:100590001F910F91FF90089581E0F8CFCF92DF92E5
:1005A000EF92FF921F93CF93DF93FC01162F690107
:1005B0007A01838122E090E0281728F4963019F020
:1005C000220F9F5FF9CF292F206A26952CBD90FD21
:1005D00003C021E0963009F420E02DBD60E0828167
:1005E0000E94130268E572E08FEF0E94B002812F33
:1005F00080640E949C02C8E1D0E0D701C6010C2EA5
:1006000004C0B695A795979587950A94D2F70E944E
:100610009C022897C83F8FEFD80779F78FEF111109
:1006200001C085E90E949C02C0E00E94A90287FFE8
:1006300004C0CF3F11F0CF5FF8CFDF91CF911F9172
:10064000FF90EF90DF90CF900895CF93DF93EC0170
:100650009A01AB0189E0220F331F441F551F8A9571
:10066000D1F768E1CE010E94CE02882349F083E0F1
:100670008883CE010E94A10280E0DF91CF9108958E
:100680008EEF8EBDEEE8F2E00DB407FEFDCF819156
:100690008EBD84E0EE38F807B9F70DB407FEFDCF44
:1006A0008FEF0E949C028FEF0E949C020E94A90281
:1006B000982F9F71953019F0898386E0D9CF68E52E
:1006C00072E08FEF0E94B002811105C087E088833D
:1006D000CE010E94A102CE010E94A10281E0CDCFF5
:1006E0000F931F93CF9380914601C1E0882399F027
:1006F0000091840210918502409100015091010106
:100700006091020170910301C8010E942503C82F66
:10071000811106C0C0E08C2FCF911F910F910895D9
:100720004091420150914301609144017091450113
:10073000411551056105710569F0C8010E94250345
:10074000882341F310924201109243011092440118
:100750001092450110924601DECFCF92DF92EF92C8
:10076000FF921F93CF93DF936B017C01142F809135
:10077000000190910101A0910201B09103018C153B
:100780009D05AE05BF0509F44FC00E947003882384
:10079000C9F0C0918402D0918502A701960189E039
:1007A000220F331F441F551F8A95D1F761E1CE01F7
:1007B0000E94CE02882371F084E08883CE010E94DB
:1007C000A10280E0DF91CF911F91FF90EF90DF9029
:1007D000CF9008956CE271E08EEF0E94B00281111B
:1007E00005C085E08883CE010E94A1028FEF8EBDF7
:1007F000EEE8F2E00DB407FEFDCF9EB591938EBDFD
:1008000094E0EE38F907B1F70DB407FEFDCF0E9472
:10081000A902CE010E94A102C0920001D092010162
:10082000E0920201F092030181E0112359F28093DA
:100830004601C8CF4F925F926F927F929F92AF9284
:10084000BF92CF92DF92EF92FF920F931F93CF93BD
:10085000DF9323E732E030938502209384028823DC
:1008600009F4DEC040E060E070E0CB010E94AD031F
:10087000811112C0D0E08D2FDF91CF911F910F9188
:10088000FF90EF90DF90CF90BF90AF909F907F90C0
:100890006F905F904F900895C0905404D09055048D
:1008A000E0905604F090570440E0C701B6010E9462
:1008B000AD03D82F8823F1F280918C048535D1F6D1
:1008C00080918D048A3AB1F690909E0290928302B4
:1008D000C0919B02C0938A020091A4021091A502CC
:1008E000109382020093810220919F023091A00216
:1008F00030938C0220938B02A0909C02B0909D02BA
:10090000D701C6018A0D9B1DA11DB11D80937D02DB
:1009100090937E02A0937F02B0938002909EA001EC
:10092000919E500D1124840F951FA11DB11D809320
:10093000790290937A02A0937B02B0937C0245E007
:10094000220F331F4A95E1F721503E4F232F3327C3
:100950002695820F931FA11DB11D8093860290934F
:100960008702A0938802B09389024090A102509020
:10097000A202712C612C4114510441F44090AE024A
:100980005090AF026090B0027090B102C81AD90ABC
:10099000EA0AFB0AC701B601640D751D861D971D85
:1009A0002C2F30E050E040E00E94FB1130937802A1
:1009B000209377026091990270919A0261157240BA
:1009C00009F058CF0115110509F454CF253F6FE008
:1009D000360708F44FCF81E04816510480E86806D6
:1009E000710408F047CFAB2809F444CF992009F4EB
:1009F00041CFC32EDD240C151D0508F43BCFCC23BD
:100A000009F438CF8C2F90E09C01215031098223CA
:100A10009323892B09F02ECF81E080938D022BCF79
:100A2000C12CD12C760140CFCF92DF92EF92FF9272
:100A30000F931F93CF93DF938230910550F480E0A2
:100A4000DF91CF911F910F91FF90EF90DF90CF90AA
:100A5000089520917702309178022F5F3F4F281739
:100A6000390768F3EB018C01212F3327C0907D02F9
:100A7000D0907E02E0907F02F0908002C20ED31EE2
:100A8000E11CF11C8091000190910101A0910201F3
:100A9000B0910301C816D906EA06FB0689F4F801ED
:100AA000FF27EE0FFF1FE257FD4FD183C08381E088
:100AB0008093460180918302823050F481E0C0CF60
:100AC00040E0C701B6010E94AD038111E8CFB7CF66
:100AD0008091810290918202C80ED91EE11CF11C06
:100AE000C0924201D0924301E0924401F09245014C
:100AF000E5CFCF92DF92EF92FF920F931F93CF93A8
:100B0000DF9320917702309178022F5F3F4F2817B3
:100B1000390750F480E0DF91CF911F910F91FF9042
:100B2000EF90DF90CF9008958B01EC012D2F3327AC
:100B300060917D0270917E0280917F02909180028F
:100B4000620F731F811D911DC0900001D0900101A3
:100B5000E0900201F09003016C157D058E059F0564
:100B600061F4DD27CC0FDD1FC257DD4F88819981ED
:100B7000F8019183808381E0CECF40E00E94AD03F5
:100B80008111EFCFC7CF4F925F926F927F928F927A
:100B90009F92AF92BF92CF92DF92EF92FF920F930C
:100BA0001F93CF93DF93EC016A017B018D818370EA
:100BB00091F480E0DF91CF911F910F91FF90EF9022
:100BC000DF90CF90BF90AF909F908F907F906F906D
:100BD0005F904F9008958A859B85AC85BD858C1567
:100BE0009D05AE05BF0528F3C114D104E104F1044D
:100BF00041F41F861E86188A198A1A8A1B8A81E088
:100C0000D9CF80908A02912CB12CA12CCB01BA01B2
:100C1000615071098109910939E096958795779519
:100C200067953A95D1F7A50194010E94FB118901BE
:100C300088899989AA89BB89C816D906EA06FB065C
:100C400020F00097A105B105A9F4888599859F87B3
:100C50008E875E018EE0A80EB11C01151105F1F022
:100C6000B5018E859F850E9479050150110981117A
:100C7000F4CF9FCFBC01CD01615071098109910969
:100C800029E096958795779567952A95D1F7A501DF
:100C900094010E94FB11021B130BDBCFC88AD98A77
:100CA000EA8AFB8AACCFCF93DF9320918B023091FD
:100CB0008C028217930728F090E080E0DF91CF91BB
:100CC0000895462FEC019C0154E0369527955A95DE
:100CD000E1F76091790270917A0280917B029091A4
:100CE0007C02620F731F811D911D0E94AD0388233A
:100CF00019F3CE018F70992725E0880F991F2A9547
:100D0000E1F782579D4FDACFCF93DF93FC01258126
:100D100027FF18C0EC0161E0868197810E9453068D
:100D20000097A1F04A855B856C857D85FC01448F29
:100D3000558F668F778F28853985338F228F8D81E8
:100D40008F778D83DF91CF910C94700380E0DF91DA
:100D5000CF9108958BE295E00E94840610923005B1
:100D60000895CF92DF92EF92FF920F931F93CF934C
:100D7000DF9300D0CDB7DEB77C01FC010685178577
:100D80000115110511F401E010E0D12CC12C809166
:100D9000770290917802C816D906F8F48017910767
:100DA00010F401E010E00F5F1F4FBE016F5F7F4F37
:100DB000C8010E947905882381F089819A81892B55
:100DC00021F0FFEFCF1ADF0AE2CF6FEF7FEFC8010C
:100DD0000E941405D82E81110DC0D12C8D2D0F909D
:100DE0000F90DF91CF911F910F91FF90EF90DF90C7
:100DF000CF900895F70186859785009749F0B8014F
:100E00000E941405882349F3F70117870687E6CF68
:100E100085818068858311870087F6CF089590E0EB
:100E200080E008950F931F93CF93DF93D0918D02AD
:100E3000D11107C0D0E08D2FDF91CF911F910F917D
:100E40000895209130052370A9F7C62F8C0160E02A
:100E50000E945306FC01892B69F38081882351F39A
:100E6000853E41F38385982F987121F780FF03C059
:100E70008C2F8271F9F610923A0510923905109272
:100E80003B0510923C0510923D0510923E051093D3
:100E9000320500933105848D958DA68DB78D809395
:100EA000350590933605A0933705B0933805828DAC
:100EB000938D9093340580933305CF70C0933005A4
:100EC000BACFAF92BF92CF92DF92FF920F931F9350
:100ED000CF93DF93CDB7DEB72B970FB6F894DEBF75
:100EE0000FBECDBF382F80918D02882309F468C0D2
:100EF000209130052370B9F4FE013196AE01445FB4
:100F00005F4F6F0180E28193E417F507E1F7A32FAC
:100F1000B92F90E027E08D91382F882321F18E3270
:100F200039F42A3011F480E04BC098E02AE0F3CF86
:100F3000E7E6F1E04491442321F031968413FACF9F
:100F4000F2CF291780F34FED480F4E3560F74FE988
:100F5000480F4A3110F430EE380FF601E90FF11D59
:100F600030839F5FD8CF89818032E9F2F62E10E07E
:100F700000E0AA24AA94BA2C80918B0290918C0252
:100F80000817190790F560E0C8010E945306BC01DC
:100F9000009749F2FC019081992311F1953E29F4C3
:100FA000B7FC20C00F5F1F4FE7CF4BE050E0C601FA
:100FB0000E943212892BB1F76F2DC8010E941207CF
:100FC0002B960FB6F894DEBF0FBECDBFDF91CF9149
:100FD0001F910F91FF90DF90CF90BF90AF90089539
:100FE000B7FE05C058019111DDCFB7FC9CCF6F2D26
:100FF0006274623409F097CF61E0C5010E94530624
:10100000009709F490CF20E2FC0111922A95E9F7AC
:101010002BE0F601DC0101900D922A95E1F721E227
:1010200038E2FC01318B208B40E058E0578746873F
:10103000338B228B318F208F578B468B0E9470030E
:10104000882309F470CF62E4C501B8CF4F925F9254
:101050006F927F928F929F92AF92BF92CF92DF92C8
:10106000EF92FF920F931F93CF93DF935C018B015D
:101070008091300580FD13C08FEF9FEFDF91CF91FE
:101080001F910F91FF90EF90DF90CF90BF90AF90A6
:101090009F908F907F906F905F904F900895809178
:1010A0003B0590913C05A0913D05B0913E054091D6
:1010B00035055091360560913705709138056C0102
:1010C0007D01C00ED11EE11CF11C4C155D056E05A5
:1010D0007F0518F48A01081B190B7801812C32E076
:1010E000932EE114F10409F486C080913B059091A0
:1010F0003C05A0913D05B0913E05C0908A02AC012F
:10110000BD0129E076956795579547952A95D1F7C2
:10111000DD24DA94DC0CD422EC01D170DD2009F45A
:1011200048C02091390530913A0522503109AC2D43
:10113000B0E00E941D12409086025090870260909D
:10114000880270908902640D751D861D971D6D0DB6
:10115000711D811D911D40E00E94AD03882309F49B
:101160008BCFC4018C1B9D0B67018E159F0508F466
:101170006C01BE0162577D4FA601C5010E943F125E
:1011800080913B0590913C05A0913D05B0913E05B5
:101190008C0D9D1DA11DB11D80933B0590933C05B9
:1011A000A0933D05B0933E05AC0CBD1CEC18FD08AA
:1011B00098CF209709F0B5CF8091390590913A05E5
:1011C000009791F4809133059091340590933A05FE
:1011D000809339058091390590913A050297863FB1
:1011E0009F4F08F49ECF48CF69E375E00E947905D0
:1011F0008111F0CF41CFC80141CFCF93DF931F9230
:10120000CDB7DEB761E070E0CE0101960E942608FE
:10121000019731F4898190E00F90DF91CF9108958B
:101220008FEF9FEFF9CFCF93DF93EC0161E082E284
:1012300091E00E946107AE0170E060E0615F7F4F66
:101240008BE295E00E94C3050E94FD08EC010E941C
:10125000AA06CE01DF91CF910895EF92FF920F93EE
:101260001F93CF93DF937B01EA010E9413098C0146
:10127000C7010E94130924E0000F111F2A95E1F70E
:101280008C0F9D1F800F911FDF91CF911F910F91A8
:10129000FF90EF900895CF93DF93EC0161E082E23D
:1012A00091E00E946107AE0170E060E08BE295E0A2
:1012B0000E94C3050E94FD08C82F0E94AA068C2F19
:1012C000DF91CF9108950F931F93CF93DF938C01FC
:1012D000EB0161E08AE291E00E9461070F571F4F26
:1012E000A80170E060E08BE295E00E94C3050E94D7
:1012F000FD088C0F9D1FAC0170E060E08BE295E073
:101300000E94C3050E94FD08DF91CF911F910F91AC
:101310000895CF93DF9380936E02C82FD0E0BE0173
:1013200088E090E00E94630980935A02BE0189E040
:1013300090E00E94630980935002BE018EE090E02D
:101340000E94630980936402BE018AE090E0DF910D
:10135000CF910C9463092F923F924F925F926F92BC
:101360007F928F929F92AF92BF92CF92DF92EF9235
:10137000FF920F931F93CF93DF9300D0CDB7DEB7CB
:101380008C015B014A01FC01858181FFDEC082FD89
:10139000C9C06401212C32E0332EF8018089918983
:1013A000A289B38970908A02AC01BD0129E07695CB
:1013B0006795579547952A95D1F766246A94670CE7
:1013C00064227C01F1E0FF2261101FC0F8018685D4
:1013D0009785E114F10409F0E5C0009709F4B9C05C
:1013E000BE016F5F7F4F0E947905882309F4ADC06D
:1013F00089819A81883FFFEF9F0708F4C9C0C8011F
:101400000E94B106882309F4A0C0F801268537851B
:1014100022503109A72DB0E00E941D1220918602B2
:10142000309187024091880250918902620F731FA8
:10143000841F951F9B01AC01260D311D411D511DBF
:1014400029013A01E114F10409F0BFC0F801408913
:1014500051896289738982859385A485B5854817EA
:1014600059076A077B0708F4B0C00E9470038823FD
:1014700009F46BC040920001509201016092020198
:101480007092030181E08093460131016E187F085C
:10149000C614D70408F43601A301B501C701825769
:1014A0009D4F0E943F12F80180899189A289B389DA
:1014B000860D971DA11DB11D808B918BA28BB38BC7
:1014C000C618D708A60CB71CC114D10409F065CF03
:1014D0004285538564857585481759076A077B07D8
:1014E00038F4258182879387A487B5872068258370
:1014F000F801858183FD50C0C4010F900F90DF91EA
:10150000CF911F910F91FF90EF90DF90CF90BF9000
:10151000AF909F908F907F906F905F904F903F9093
:101520002F900895428553856485758580899189BA
:10153000A289B389481759076A077B0709F429CF9D
:10154000C8010E94C305811124CF81E0F801848382
:1015500043C0808591850097D9F4C8010E94B106E7
:10156000882399F3F8012685378522503109A72D64
:10157000B0E00E941D124090860250908702609059
:10158000880270908902460E571E681E791E5ECF33
:10159000F8019787868739CFC8010E948406811198
:1015A000ABCFD3CF9C0122503109A72DB0E00E94D0
:1015B0001D124090860250908702609088027090C1
:1015C0008902460E571E681E791E41E0C301B20112
:1015D0000E94AD03811159CF8FEF9FEF8ECFCF9334
:1015E000DF931F92CDB7DEB7698341E050E0BE01C3
:1015F0006F5F7F4F0E94AB0921E030E0019711F04F
:1016000030E020E0C9010F90DF91CF9108951F9342
:10161000CF93DF93EC01162F62E082E291E00E940B
:101620006107AE0170E060E0615F7F4F8BE295E0A3
:101630000E94C305612F8BE295E00E94EF0ADF91C3
:10164000CF911F910C94AA060F931F93CF93DF9312
:10165000EC018B0162E082E291E00E946107AE0141
:1016600070E060E08BE295E00E94C30541E050E04D
:10167000B8018BE295E00E94AB09DF91CF911F91F9
:101680000F910C94AA06CF93DF93EC0181E0809335
:101690006C024FEF5FEF64E070E08AE090E00E9440
:1016A0002D090E944B098093580280935702909114
:1016B0006C02992359F120915702309158023093CE
:1016C000560220935502D0935402C0935302D093F4
:1016D0005802C0935702D0935202C0935102C09156
:1016E00057028C1761F04FEF5FEF64E070E08AE023
:1016F00090E00E942D096C2F70E00E94240B109244
:101700006C0280915702DF91CF910895282F30E02D
:1017100030935602209355029E0133273093540292
:1017200020935302C09357023093520220935102E8
:10173000D6CF0F931F93CF93DF93EC010E94D40178
:101740008C0142E050E063E371E0CE010E94E700CB
:10175000800F911FDF91CF911F910F9108951F92DC
:101760000F920FB60F9211242F933F934F935F93D5
:101770006F937F938F939F93AF93BF93EF93FF9359
:101780008EE894E00E946501FF91EF91BF91AF91C7
:101790009F918F917F916F915F914F913F912F9189
:1017A0000F900FBE0F901F9018951F920F920FB6BB
:1017B0000F9211242F938F939F93EF93FF93E091B8
:1017C0009E04F0919F048081E091A404F091A5040F
:1017D00082FD1BC090818091A7048F5F8F73209141
:1017E000A804821741F0E091A704F0E0E257FB4F14
:1017F000958F8093A704FF91EF919F918F912F91E7
:101800000F900FBE0F901F9018958081F4CF1F92FC
:101810000F920FB60F9211242F933F938F939F93A4
:10182000AF93BF9380914C0190914D01A0914E01D7
:10183000B0914F0130914B0123E0230F2D3758F524
:101840000196A11DB11D20934B0180934C019093F3
:101850004D01A0934E01B0934F01809147019091AB
:101860004801A0914901B0914A010196A11DB11D05
:101870008093470190934801A0934901B0934A0196
:10188000BF91AF919F918F913F912F910F900FBE7C
:101890000F901F90189526E8230F0296A11DB11DE9
:1018A000D2CFEEE8F4E01382128288EE93E0A0E05B
:1018B000B0E084839583A683B78388E091E0918329
:1018C000808385EC90E09587848784EC90E097870F
:1018D000868780EC90E0918B808B81EC90E0938BFD
:1018E000828B82EC90E0958B848B86EC90E0978BDA
:1018F000868B118E128E138E148EEBE2F5E013821E
:1019000012828AE191E09183808315820895789410
:1019100084B5826084BD84B5816084BD85B58260F4
:1019200085BD85B5816085BD80916E0081608093A5
:101930006E0010928100809181008260809381000E
:10194000809181008160809381008091800081601E
:10195000809380008091B10084608093B100809179
:10196000B00081608093B00080917A0084608093A1
:101970007A0080917A00826080937A0080917A0068
:10198000816080937A0080917A00806880937A00E9
:101990001092C100E0919E04F0919F0482E0808348
:1019A000E0919A04F0919B041082E0919C04F091E4
:1019B0009D048FEC80831092A604E091A204F09124
:1019C000A30486E08083E091A004F091A1048081CB
:1019D00080618083E091A004F091A10480818860FF
:1019E0008083E091A004F091A104808180688083CD
:1019F000E091A004F091A10480818F7D808362E357
:101A000071E08EE894E00E94990B65E071E08EE849
:101A100094E00E94990B68ED70E08EE894E00E94DB
:101A2000D40102E0AAE0FA2EB3E5EB2E0093760291
:101A3000F0927502109273020E949002EB0161E035
:101A4000809175020E945F0261E0809175020E94A0
:101A5000130260E08CE00E945F0261E08AE00E9475
:101A60005F0261E08AE00E94130261E08BE00E9465
:101A70005F0261E08DE00E945F02ECBC1AE08FEF34
:101A80000E949C021150D9F760E0809175020E947B
:101A9000130220E030E0A90160E083E792E00E94B9
:101AA000CE02182F8130C9F00E9490026C1B7D0B72
:101AB000613D774070F31093740281E0809373026C
:101AC00083E792E00E94A10241E050E066E371E00A
:101AD0008EE894E00E94E700A9CF20E030E0A90161
:101AE00067E383E792E00E94CE0220E030E0A901A4
:101AF00069E283E792E00E94CE02182F882361F00A
:101B00000E9490026C1B7D0B613D774030F3109377
:101B1000740200937302D4CF83E792E00E94A10283
:101B200060EC70E08EE894E00E94D40181E00E94B5
:101B30001A0481110DC00E941A04811109C041E0EC
:101B400050E066E371E08EE894E00E94E700EECF9B
:101B500068EB70E08EE894E00E94990B65EF70E00E
:101B60008EE894E00E94990B60E070EF89E090E0CD
:101B70000E94070B70E060E08DE290E00E94070B8E
:101B800060E870E084E090E00E94070B63E088E387
:101B900091E00E946107609135057091360590E0F3
:101BA00080E00E94070BD0E0C0E0C1306FEFD607A5
:101BB00050F561E08AE291E00E94610760E870E020
:101BC00080E591E00E942608C80FD91F0E94AA064E
:101BD00062E482E291E00E946107AE010D2E000CEA
:101BE000660B770B615F7F4F8BE295E00E94C30528
:101BF00040E850E060E571E08BE295E00E94AB09BF
:101C00000E94AA06D2CF80E091E090937202809366
:101C10007102C1E0D0E011E089E090E00E94130978
:101C2000F4E0880F991FFA95E1F720917102309145
:101C30007202820F931F0E944B09282F30E03093CD
:101C4000700220936F02882309F4C4C30E9489099B
:101C500070916E02872F877080936D027170709300
:101C60006C028695817080936B02E0916F02F09117
:101C7000700291818281292F382F30936A0220933C
:101C80006902438180936702409368024091660233
:101C9000442319F041504093660240916502442369
:101CA00019F041504093650240916402442309F4C5
:101CB00084C0A90166E0569547956A95E1F743709F
:101CC00040936302977090936202E3E03695279504
:101CD000EA95E1F7277020936102E4E0F0E0442305
:101CE00059F0413039F4282F880F330B30936802B4
:101CF00020936702F0E0E0E0F0936002E0935F027F
:101D0000292F30E0433009F4ADC0B901CF0101966D
:101D10000E94630990E00E9413097C0160916202B5
:101D200070E080915F029091600202960E946309C8
:101D30002091670230916802829F6001839FD00CDE
:101D40001124CE0CDF1C6091620270E080915F0272
:101D5000909160020E946309E82EF12C8091660246
:101D600081117EC06091620270E080915F0290916B
:101D7000600203960E946309A601B70190E00E94E9
:101D80002D0990935E0280935D0230916102432F92
:101D900050E0440F551F20916C02222309F471C0BA
:101DA0009A0130935C0220935B0220916B02222304
:101DB00021F090935C0280935B0280915A02823002
:101DC00009F4EFC108F066C0882309F434C18130FA
:101DD00009F022CF90916E0281E0492F487093FF65
:101DE00080E080936C0290916D02292F30E0220FE9
:101DF000331F442309F471C1C9010E944B09809328
:101E000058028093570240916C02442309F46EC13A
:101E100080915702909158029093560280935502F8
:101E20008091690290916A029093540280935302C8
:101E300090935802809357029093520280935102DC
:101E40006091570270E090916D02292F30E0220FCF
:101E5000331F442309F45AC1C9010E94240BDCCE6C
:101E600080E08ACF220F331F772311F0C90189CF79
:101E7000892F86958695820F932F911D87709927BC
:101E800080CF232F26952695240F352F311D2770BF
:101E9000332787CF843009F44AC108F440C1853024
:101EA00009F0BACE80916102823008F018C288E150
:101EB00090E00E944B098093580290916C0220910F
:101EC0006102992309F4EFC1809157029091580261
:101ED00090935602809355024091580250915902B6
:101EE0005093540240935302840F951F019630E0A3
:101EF000220F331F821B930B90935802809357023B
:101F000090935202809351026091570270E0809149
:101F10005B0290915C020E94240B609155027091CB
:101F2000560281E068278091510290915202682701
:101F3000792770935402609353026295617070E048
:101F40008AE290E00E94070B2091510230915202E8
:101F5000809155029091560270E060E02817390791
:101F6000C9F088E290E00E94130920916C0248E0D9
:101F7000249F90011124295F3F4F6091530270917B
:101F8000540202C0769567952A95E2F7682779276B
:101F90006170772780E390E00E94070B80916C02CC
:101FA00068E0869FC001112407969E0102C0220F9F
:101FB000331F8A95E2F7809155029091560201965F
:101FC00040916102841B910961E070E02817390794
:101FD00011F070E060E080E390E00E94070B8091D8
:101FE0006C0278E0879FC001112407969E0102C011
:101FF000220F331F8A95E2F7809155029091560285
:10200000019640916102841B910961E070E02817FC
:10201000390711F070E060E080E390E00E94070B68
:1020200080915A02853019F480E10E9489098091DB
:10203000570290E079C060916E0266956770609378
:102040005902C09069020C2C000CDD08E0906C0273
:10205000F12C70E08FE090E00E94630990E00E9414
:1020600013098823A1F091E0E926EC9C9001ED9CF6
:10207000300DFC9C300D1124809171029091720200
:10208000820F931F9093720280937102C5CD60916D
:10209000590270E080E190E00E94630990E00E94A4
:1020A00013098111E0CF6091590270E081E190E065
:1020B0000E94630990E00E941309082F6091590261
:1020C00070E082E190E00E94630990E00E941309B1
:1020D00091E00813C9CF90E0C7CF892F86958695E8
:1020E000820F932F911D8770992787CE90E0909350
:1020F00056028093550220916902822F90E09093BE
:102100005402809353022093570296CE892F8695CE
:102110008695820F932F911D877099279ECE80916F
:102120006D0290E00E9413090E94430B75CD8091CF
:102130006D0290E00E9413097C0110936C0284E010
:1021400090E00E941309BC016E5F7F4F84E090E035
:102150000E94070B4EEF5FEF64E070E08AE090E0D2
:102160000E942D090E944B098093580280935702C8
:1021700090916C02F0925602E0925502992379F008
:102180008091570290915802909354028093530289
:10219000909352028093510210926C023DCD90E0D8
:1021A000F3CF10936C0210926B0280916D028093BA
:1021B00061022091630284E090E0222311F090E01C
:1021C00080E09093600280935F026091620270E011
:1021D000233008F065C001960E94630990E00E94D8
:1021E00013097C016091620270E080915F0290911E
:1021F000600202960E946309209167023091680292
:10220000829F6001839FD00C1124CE0CDF1C609153
:10221000620270E080915F02909160020E94630907
:10222000E82EF12C80916602811138C06091620223
:1022300070E080915F029091600203960E946309B2
:10224000A601B70190E00E942D09BC0170935E02C7
:1022500060935D0290916102492F50E0440F551F39
:1022600080916C029A01811108C0292F269526952C
:10227000240F352F311D2770332730935C022093B4
:102280005B0280916B02882321F070935C02609363
:102290005B02809150028093610204CE80E0D0CF37
:1022A000660F771FD3CF90915702492F50E050937C
:1022B000560240935502482F50E0509354024093E9
:1022C000530230E0220F331FBE01621B730B460F17
:1022D000571F892F840F8093570290E011CE8630CC
:1022E00009F46FC0833031F489E090E00E94130953
:1022F0000E94430B8091610281FF23C09091630291
:1023000021E030E0933011F430E020E0929FA00112
:10231000939F500D1124911105C021E0809162021C
:10232000863009F020E0809171029091720202964D
:10233000840F951F30E0220F331F820F931F0E94DE
:10234000430B8091610280FF07C080915B029091F6
:102350005C0202960E944B0980915B0290915C02A4
:1023600002960E944B09682F70E089E090E00E947D
:10237000070B80915B0290915C020E944B09809355
:10238000570290916C022091710230917202309349
:10239000560220935502992391F080915702909113
:1023A0005802909354028093530290937202809348
:1023B000710290935202809351028AE936CE90E0E6
:1023C000F0CF80915D0290915E020E944B09809354
:1023D00057022DCE65EE70E08EE894E00E94990BD6
:1023E000C0E0D0E02097F1F30E9451018823D1F39F
:1023F0000E940000F7CFA1E21A2EAA1BBB1BFD0111
:102400000DC0AA1FBB1FEE1FFF1FA217B307E407D3
:10241000F50720F0A21BB30BE40BF50B661F771F2B
:10242000881F991F1A9469F760957095809590950B
:102430009B01AC01BD01CF010895A29FB001B39FE4
:10244000C001A39F700D811D1124911DB29F700DBD
:10245000811D1124911D0895EE0FFF1F0590F49129
:10246000E02D0994FB01DC0104C08D9101908019DD
:1024700021F441505040C8F7881B990B0895FB0187
:10248000DC0102C001900D9241505040D8F70895F0
:04249000F894FFCFEE
:10249400FFFFFFFF000000008701E7001401F301C4
:1024A40045012301370100000000EF0AE7000F0790
:1024B4000E0772616D2E62696E0062696F732E621F
:1024C400696E000D0A002E006469736B2E696D67D6
:0224D400000006
:00000001FF
