:100000000C94BD000C94E5000C94E5000C94E50004
:100010000C94E5000C94E5000C94E5000C94E500CC
:100020000C94E5000C94E5000C94E5000C94E500BC
:100030000C94E5000C94E5000C94E5000C94E500AC
:100040000C944B0D0C94E5000C94190D0C94F30CCE
:100050000C94E5000C94E5000C94E5000C94E5008C
:100060000C94E5000C94E50000000000240027003B
:100070002A0000000000250028002B0004040404CE
:100080000404040402020202020203030303030342
:10009000010204081020408001020408102001021F
:1000A00004081020000000080002010000030407FB
:1000B00000000000000000002E20446F6E6521004B
:1000C0002E20446F6E652120496E69742066696C2C
:1000D0006573797374656D00496E697420534420AB
:1000E00063617264004D616368696E652068616C6C
:1000F00074656421005374617274696E6720763888
:10010000362E2E2E00436F7079726967687420282E
:100110004329203230323120407261737069647536
:10012000696E6F2C20756E6465722047504C2D7679
:1001300033006176722D763836202D20496E746535
:100140006C203830383620656D756C61746F7220A4
:1001500072756E6E696E67206F6E2041726475698C
:100160006E6F20554E4F007C3C3E5E2B3D3F2F5B1B
:100170005D3B2C2A225C0000950D11241FBECFEFA1
:10018000D8E0DEBFCDBF11E0A0E0B1E0E6E3F5E4EA
:1001900002C005900D92A234B107D9F725E0A2E480
:1001A000B1E001C01D92AB34B207E1F710E0CDEB36
:1001B000D0E004C02197FE010E946E22CC3BD10703
:1001C000C9F70E94CB0D0C9499220C940000AF92B9
:1001D000BF92CF92DF92EF92FF920F931F93CF9334
:1001E000DF936C017B018B01040F151FEB015E0196
:1001F000AE18BF08C017D10759F06991D601ED912B
:10020000FC910190F081E02DC6010995892B79F7C9
:10021000C501DF91CF911F910F91FF90EF90DF907B
:10022000CF90BF90AF900895FC01538D448D252F42
:1002300030E0842F90E0821B930B541710F0CF9680
:10024000089501970895FC01918D828D981761F0B2
:10025000A28DAE0FBF2FB11D5D968C91928D9F5FC9
:100260009F73928F90E008958FEF9FEF0895FC01A8
:10027000918D828D981731F0828DE80FF11D858D5B
:1002800090E008958FEF9FEF0895FC01918D228DEE
:10029000892F90E0805C9F4F821B91098F73992773
:1002A00008958AE994E00E94450121E0892B09F430
:1002B00020E0822F089580E090E0892B29F00E94B1
:1002C000510181110C9400000895FC01A48DA80F28
:1002D000B92FB11DA35ABF4F2C91848D90E0019688
:1002E0008F739927848FA689B7892C93A089B189A8
:1002F0008C91837080648C93938D848D981306C049
:100300000288F389E02D80818F7D80830895EF92AC
:10031000FF920F931F93CF93DF93EC0181E0888FBF
:100320009B8D8C8D98131AC0E889F989808185FF8F
:1003300015C09FB7F894EE89FF896083E889F98931
:1003400080818370806480839FBF81E090E0DF9133
:10035000CF911F910F91FF90EF900895F62E0B8D86
:1003600010E00F5F1F4F0F731127E02E8C8D8E1141
:100370000CC00FB607FCFACFE889F989808185FFA8
:10038000F5CFCE010E946501F1CFEB8DEC0FFD2F73
:10039000F11DE35AFF4FF0829FB7F8940B8FEA8963
:1003A000FB8980818062CFCFEF92FF920F931F93E2
:1003B000CF93DF938C017B01D0E0C0E0F701EC0F1D
:1003C000FD1F6491662339F0C8010E948701892BC3
:1003D00011F02196F3CFCE01DF91CF911F910F91B4
:1003E000FF90EF900895CF93DF93EC01888D8823E1
:1003F000B9F0AA89BB89E889F9898C9185FD03C088
:10040000808186FD0DC00FB607FCF7CF8C9185FF6C
:10041000F2CF808185FFEDCFCE010E946501E9CF4B
:10042000DF91CF91089590E0FC01EC55FF4F2491AE
:10043000FC01E057FF4F3491FC01E458FF4FE49179
:10044000EE23C9F0222339F0233001F1A8F4213042
:1004500019F1223029F1F0E0EE0FFF1FEE58FF4FA7
:10046000A591B4918FB7F894EC91611126C03095A5
:100470003E233C938FBF08952730A9F02830C9F060
:10048000243049F7809180008F7D03C080918000E7
:100490008F7780938000DFCF84B58F7784BDDBCFEB
:1004A00084B58F7DFBCF8091B0008F778093B000B3
:1004B000D2CF8091B0008F7DF9CF3E2BDACFCF9392
:1004C000DF9390E0FC01E057FF4F249184589F4F49
:1004D000FC0184918823D1F090E0880F991FFC01E2
:1004E000E859FF4FA591B491FC01EE58FF4FC5911B
:1004F000D49161110EC09FB7F8948C91E22FE095D2
:100500008E238C932881E223E8839FBFDF91CF91D4
:1005100008958FB7F894EC91E22BEC938FBFF6CF50
:100520002FB7F89460914C0170914D0180914E016C
:1005300090914F012FBF08958EBD0DB407FEFDCFE2
:10054000089561E0FC0182810E9413028FEF0C94F8
:100550009C028FEF8EBD0DB407FEFDCF8EB50895C2
:10056000FF920F931F93CF93DF93F82E8B010E947E
:100570009002EB010E94A9028F1571F00E94900277
:100580006C1B7D0B06171707A8F780E0DF91CF9152
:100590001F910F91FF90089581E0F8CFCF92DF92E5
:1005A000EF92FF921F93CF93DF93FC01162F690107
:1005B0007A01838122E090E0281728F4963019F020
:1005C000220F9F5FF9CF292F206A26952CBD90FD21
:1005D00003C021E0963009F420E02DBD60E0828167
:1005E0000E94130268E572E08FEF0E94B002812F33
:1005F00080640E949C02C8E1D0E0D701C6010C2EA5
:1006000004C0B695A795979587950A94D2F70E944E
:100610009C022897C83F8FEFD80779F78FEF111109
:1006200001C085E90E949C02C0E00E94A90287FFE8
:1006300004C0CF3F11F0CF5FF8CFDF91CF911F9172
:10064000FF90EF90DF90CF900895CF93DF93EC0170
:100650009A01AB0189E0220F331F441F551F8A9571
:10066000D1F768E1CE010E94CE02882349F083E0F1
:100670008883CE010E94A10280E0DF91CF9108958E
:100680008EEF8EBDEAE9F2E00DB407FEFDCF819159
:100690008EBD84E0EA39F807B9F70DB407FEFDCF47
:1006A0008FEF0E949C028FEF0E949C020E94A90281
:1006B000982F9F71953019F0898386E0D9CF68E52E
:1006C00072E08FEF0E94B002811105C087E088833D
:1006D000CE010E94A102CE010E94A10281E0CDCFF5
:1006E0000F931F93CF9380914601C1E0882399F027
:1006F00000919002109191024091000150910101EE
:100700006091020170910301C8010E942503C82F66
:10071000811106C0C0E08C2FCF911F910F910895D9
:100720004091420150914301609144017091450113
:10073000411551056105710569F0C8010E94250345
:10074000882341F310924201109243011092440118
:100750001092450110924601DECFCF92DF92EF92C8
:10076000FF921F93CF93DF936B017C01142F809135
:10077000000190910101A0910201B09103018C153B
:100780009D05AE05BF0509F44FC00E947003882384
:10079000C9F0C0919002D0919102A701960189E021
:1007A000220F331F441F551F8A95D1F761E1CE01F7
:1007B0000E94CE02882371F084E08883CE010E94DB
:1007C000A10280E0DF91CF911F91FF90EF90DF9029
:1007D000CF9008956CE271E08EEF0E94B00281111B
:1007E00005C085E08883CE010E94A1028FEF8EBDF7
:1007F000EAE9F2E00DB407FEFDCF9EB591938EBD00
:1008000094E0EA39F907B1F70DB407FEFDCF0E9475
:10081000A902CE010E94A102C0920001D092010162
:10082000E0920201F092030181E0112359F28093DA
:100830004601C8CF4F925F926F927F929F92AF9284
:10084000BF92CF92DF92EF92FF920F931F93CF93BD
:10085000DF932FE732E030939102209390028823B8
:1008600009F4DEC040E060E070E0CB010E94AD031F
:10087000811112C0D0E08D2FDF91CF911F910F9188
:10088000FF90EF90DF90CF90BF90AF909F907F90C0
:100890006F905F904F900895C0906004D090610475
:1008A000E0906204F090630440E0C701B6010E944A
:1008B000AD03D82F8823F1F2809198048535D1F6C5
:1008C000809199048A3AB1F69090AA0290928F0290
:1008D000C091A702C09396020091B0021091B1029C
:1008E00010938E0200938D022091AB023091AC02E6
:1008F0003093980220939702A090A802B090A9028A
:10090000D701C6018A0D9B1DA11DB11D80938902CF
:1009100090938A02A0938B02B0938C02909EA001C8
:10092000919E500D1124840F951FA11DB11D809320
:10093000850290938602A0938702B093880245E0D7
:10094000220F331F4A95E1F721503E4F232F3327C3
:100950002695820F931FA11DB11D80939202909343
:100960009302A0939402B09395024090AD025090F0
:10097000AE02712C612C4114510441F44090BA0232
:100980005090BB026090BC027090BD02C81AD90A98
:10099000EA0AFB0AC701B601640D751D861D971D85
:1009A0002C2F30E050E040E00E944C223093840233
:1009B000209383026091A5027091A6026115724096
:1009C00009F058CF0115110509F454CF253F6FE008
:1009D000360708F44FCF81E04816510480E86806D6
:1009E000710408F047CFAB2809F444CF992009F4EB
:1009F00041CFC32EDD240C151D0508F43BCFCC23BD
:100A000009F438CF8C2F90E09C01215031098223CA
:100A10009323892B09F02ECF81E0809399022BCF6D
:100A2000C12CD12C760140CFCF92DF92EF92FF9272
:100A30000F931F93CF93DF938230910550F480E0A2
:100A4000DF91CF911F910F91FF90EF90DF90CF90AA
:100A5000089520918302309184022F5F3F4F281721
:100A6000390768F3EB018C01212F3327C0908902ED
:100A7000D0908A02E0908B02F0908C02C20ED31EBE
:100A8000E11CF11C8091000190910101A0910201F3
:100A9000B0910301C816D906EA06FB0689F4F801ED
:100AA000FF27EE0FFF1FE656FD4FD183C08381E085
:100AB0008093460180918F02823050F481E0C0CF54
:100AC00040E0C701B6010E94AD038111E8CFB7CF66
:100AD00080918D0290918E02C80ED91EE11CF11CEE
:100AE000C0924201D0924301E0924401F09245014C
:100AF000E5CFCF92DF92EF92FF920F931F93CF93A8
:100B0000DF9320918302309184022F5F3F4F28179B
:100B1000390750F480E0DF91CF911F910F91FF9042
:100B2000EF90DF90CF9008958B01EC012D2F3327AC
:100B30006091890270918A0280918B0290918C025F
:100B4000620F731F811D911DC0900001D0900101A3
:100B5000E0900201F09003016C157D058E059F0564
:100B600061F4DD27CC0FDD1FC656DD4F88819981EA
:100B7000F8019183808381E0CECF40E00E94AD03F5
:100B80008111EFCFC7CF4F925F926F927F928F927A
:100B90009F92AF92BF92CF92DF92EF92FF920F930C
:100BA0001F93CF93DF93EC016A017B018D818370EA
:100BB00091F480E0DF91CF911F910F91FF90EF9022
:100BC000DF90CF90BF90AF909F908F907F906F906D
:100BD0005F904F9008958A859B85AC85BD858C1567
:100BE0009D05AE05BF0528F3C114D104E104F1044D
:100BF00041F41F861E86188A198A1A8A1B8A81E088
:100C0000D9CF80909602912CB12CA12CCB01BA01A6
:100C1000615071098109910939E096958795779519
:100C200067953A95D1F7A50194010E944C2289015C
:100C300088899989AA89BB89C816D906EA06FB065C
:100C400020F00097A105B105A9F4888599859F87B3
:100C50008E875E018EE0A80EB11C01151105F1F022
:100C6000B5018E859F850E9479050150110981117A
:100C7000F4CF9FCFBC01CD01615071098109910969
:100C800029E096958795779567952A95D1F7A501DF
:100C900094010E944C22021B130BDBCFC88AD98A15
:100CA000EA8AFB8AACCFCF93DF93209197023091F1
:100CB00098028217930728F090E080E0DF91CF91AF
:100CC0000895462FEC019C0154E0369527955A95DE
:100CD000E1F7609185027091860280918702909180
:100CE0008802620F731F811D911D0E94AD0388232E
:100CF00019F3CE018F70992725E0880F991F2A9547
:100D0000E1F786569D4FDACFCF93DF93FC01258123
:100D100027FF18C0EC0161E0868197810E9453068D
:100D20000097A1F04A855B856C857D85FC01448F29
:100D3000558F668F778F28853985338F228F8D81E8
:100D40008F778D83DF91CF910C94700380E0DF91DA
:100D5000CF91089587E395E00E94840610923C05A8
:100D60000895CF92DF92EF92FF920F931F93CF934C
:100D7000DF9300D0CDB7DEB77C01FC010685178577
:100D80000115110511F401E010E0D12CC12C809166
:100D9000830290918402C816D906F8F4801791074F
:100DA00010F401E010E00F5F1F4FBE016F5F7F4F37
:100DB000C8010E947905882381F089819A81892B55
:100DC00021F0FFEFCF1ADF0AE2CF6FEF7FEFC8010C
:100DD0000E941405D82E81110DC0D12C8D2D0F909D
:100DE0000F90DF91CF911F910F91FF90EF90DF90C7
:100DF000CF900895F70186859785009749F0B8014F
:100E00000E941405882349F3F70117870687E6CF68
:100E100085818068858311870087F6CF089590E0EB
:100E200080E008950F931F93CF93DF93D0919902A1
:100E3000D11107C0D0E08D2FDF91CF911F910F917D
:100E4000089520913C052370A9F7C62F8C0160E01E
:100E50000E945306FC01892B69F38081882351F39A
:100E6000853E41F38385982F987121F780FF03C059
:100E70008C2F8271F9F6109246051092450510925A
:100E80004705109248051092490510924A051093A3
:100E90003E0500933D05848D958DA68DB78D80937D
:100EA000410590934205A0934305B0934405828D7C
:100EB000938D9093400580933F05CF70C0933C0580
:100EC000BACFAF92BF92CF92DF92FF920F931F9350
:100ED000CF93DF93CDB7DEB72B970FB6F894DEBF75
:100EE0000FBECDBF382F80919902882309F468C0C6
:100EF00020913C052370B9F4FE013196AE01445FA8
:100F00005F4F6F0180E28193E417F507E1F7A32FAC
:100F1000B92F90E027E08D91382F882321F18E3270
:100F200039F42A3011F480E04BC098E02AE0F3CF86
:100F3000E7E6F1E04491442321F031968413FACF9F
:100F4000F2CF291780F34FED480F4E3560F74FE988
:100F5000480F4A3110F430EE380FF601E90FF11D59
:100F600030839F5FD8CF89818032E9F2F62E10E07E
:100F700000E0AA24AA94BA2C80919702909198023A
:100F80000817190790F560E0C8010E945306BC01DC
:100F9000009749F2FC019081992311F1953E29F4C3
:100FA000B7FC20C00F5F1F4FE7CF4BE050E0C601FA
:100FB0000E948322892BB1F76F2DC8010E9412076E
:100FC0002B960FB6F894DEBF0FBECDBFDF91CF9149
:100FD0001F910F91FF90DF90CF90BF90AF90089539
:100FE000B7FE05C058019111DDCFB7FC9CCF6F2D26
:100FF0006274623409F097CF61E0C5010E94530624
:10100000009709F490CF20E2FC0111922A95E9F7AC
:101010002BE0F601DC0101900D922A95E1F721E227
:1010200038E2FC01318B208B40E058E0578746873F
:10103000338B228B318F208F578B468B0E9470030E
:10104000882309F470CF62E4C501B8CF4F925F9254
:101050006F927F928F929F92AF92BF92CF92DF92C8
:10106000EF92FF920F931F93CF93DF935C018B015D
:1010700080913C0580FD13C08FEF9FEFDF91CF91F2
:101080001F910F91FF90EF90DF90CF90BF90AF90A6
:101090009F908F907F906F905F904F900895809178
:1010A000470590914805A0914905B0914A054091A6
:1010B00041055091420560914305709144056C01D2
:1010C0007D01C00ED11EE11CF11C4C155D056E05A5
:1010D0007F0518F48A01081B190B7801812C32E076
:1010E000932EE114F10409F486C080914705909194
:1010F0004805A0914905B0914A05C0909602AC01FF
:10110000BD0129E076956795579547952A95D1F7C2
:10111000DD24DA94DC0CD422EC01D170DD2009F45A
:1011200048C0209145053091460522503109AC2D2B
:10113000B0E00E947422409092025090930260901E
:10114000940270909502640D751D861D971D6D0D9E
:10115000711D811D911D40E00E94AD03882309F49B
:101160008BCFC4018C1B9D0B67018E159F0508F466
:101170006C01BE0166567D4FA601C5010E949022FA
:101180008091470590914805A0914905B0914A0585
:101190008C0D9D1DA11DB11D8093470590934805A1
:1011A000A0934905B0934A05AC0CBD1CEC18FD0892
:1011B00098CF209709F0B5CF8091450590914605CD
:1011C000009791F480913F059091400590934605DA
:1011D0008093450580914505909146050297863F8D
:1011E0009F4F08F49ECF48CF65E475E00E947905D3
:1011F0008111F0CF41CFC80141CF0F931F93CF93FF
:10120000DF931F92CDB7DEB78C0161E082E291E0FF
:101210000E946107A80170E060E087E395E00E940A
:10122000C30561E070E0CE0101960E9426080981A5
:10123000019711F00FEF1FEF0E94AA06802F0F9069
:10124000DF91CF911F910F9108951F93CF93DF935B
:10125000EC010E94FD08182FCE0101960E94FD08A6
:10126000912FDF91CF911F910895EF92FF920F93ED
:101270001F93CF93DF937B01EA010E9425098C0124
:10128000C7010E94250924E0000F111F2A95E1F7EC
:101290008C0F9D1F800F911FDF91CF911F910F9198
:1012A000FF90EF900895CF93DF93EB018F579F4FFF
:1012B0000E9425098C0F9D1FDF91CF910C94FD0892
:1012C000CF93DF9380937A02C82FD0E0BE0188E0ED
:1012D00090E00E94530980935F02BE0189E090E094
:1012E0000E94530980935502BE018EE090E00E9457
:1012F000530980936E02BE018AE090E00E94530978
:1013000090E09093510280935002DF91CF91089525
:101310000F931F93CF9382E090EF9093610280939D
:10132000600209E010E001501109E0F0C801889660
:101330000E94FD08C82FB80183E190E00E94530984
:101340002C2F30E002C0220F331F8A95E2F78091E4
:10135000600290916102280F391F3093610220933F
:101360006002E1CFCF911F910F9108952F923F928C
:101370004F925F926F927F928F929F92AF92BF92A5
:10138000CF92DF92EF92FF920F931F93CF93DF9351
:1013900000D0CDB7DEB78C015B014A01FC0185812D
:1013A00081FFDEC082FDC9C06401212C32E0332EF2
:1013B000F80180899189A289B38970909602AC0165
:1013C000BD0129E076956795579547952A95D1F700
:1013D00066246A94670C64227C01F1E0FF226110AC
:1013E0001FC0F80186859785E114F10409F0E5C076
:1013F000009709F4B9C0BE016F5F7F4F0E94790565
:10140000882309F4ADC089819A81883FFFEF9F0747
:1014100008F4C9C0C8010E94B106882309F4A0C01D
:10142000F8012685378522503109A72DB0E00E94AA
:101430007422209192023091930240919402509133
:101440009502620F731F841F951F9B01AC01260D2F
:10145000311D411D511D29013A01E114F10409F02A
:10146000BFC0F8014089518962897389828593855B
:10147000A485B585481759076A077B0708F4B0C0EB
:101480000E947003882309F46BC0409200015092BF
:101490000101609202017092030181E08093460194
:1014A00031016E187F08C614D70408F43601A30171
:1014B000B501C70186569D4F0E949022F801808990
:1014C0009189A289B389860D971DA11DB11D808BBD
:1014D000918BA28BB38BC618D708A60CB71CC1146E
:1014E000D10409F065CF4285538564857585481719
:1014F00059076A077B0738F4258182879387A48779
:10150000B58720682583F801858183FD50C0C4011B
:101510000F900F90DF91CF911F910F91FF90EF905F
:10152000DF90CF90BF90AF909F908F907F906F9003
:101530005F904F903F902F9008954285538564852A
:10154000758580899189A289B389481759076A07E7
:101550007B0709F429CFC8010E94C305811124CF5C
:1015600081E0F801848343C0808591850097D9F498
:10157000C8010E94B106882399F3F80126853785B2
:1015800022503109A72DB0E00E94742240909202AF
:10159000509093026090940270909502460E571EF0
:1015A000681E791E5ECFF8019787868739CFC801FC
:1015B0000E9484068111ABCFD3CF9C012250310908
:1015C000A72DB0E00E9474224090920250909302A6
:1015D0006090940270909502460E571E681E791E08
:1015E00041E0C301B2010E94AD03811159CF8FEFD9
:1015F0009FEF8ECFCF93DF931F92CDB7DEB7698376
:1016000041E050E0BE016F5F7F4F0E94B60921E0CC
:1016100030E0019711F030E020E0C9010F90DF9138
:10162000CF9108951F93CF93DF93EC01162F62E0C3
:1016300082E291E00E946107AE0170E060E087E322
:1016400095E00E94C305612F70E041E050E087E320
:1016500095E00E94B6090E94AA06812FDF91CF91E2
:101660001F9108950C94120B0F931F93CF93DF9348
:101670008C01D62FC72F0E94320B6C2FC801019608
:101680000E94320B8D2F9C2FDF91CF911F910F91D4
:1016900008950F931F93CF93DF938C01C9E0D0E09F
:1016A000219788F0BE0183E190E00E945309B801C0
:1016B00002C0759567958A95E2F76170CE018896AC
:1016C0000E94320BEDCFDF91CF911F910F910895C2
:1016D00061E0892B09F460E080E390E00C94320B28
:1016E00060915A0270915B02809158029091590268
:1016F00068277927809156029091570268277927A9
:10170000709359026093580284E0769567958A95A4
:10171000E1F761708AE290E00E94320B209156025C
:101720003091570280915A0290915B022817390735
:10173000E1F088E290E00E94FD084091780298E094
:10174000499FA0011124495F5F4F209158023091B9
:10175000590202C0369527954A95E2F7A901482714
:10176000CA01817099270C94680B60E080E390E0D7
:101770000E94320B80E0089561E0892B09F460E05B
:1017800088E290E00C94320BCF93DF93EC0181E080
:101790008093780284E090E00E942509BC016E5F8E
:1017A0007F4F84E090E00E94340B4EEF5FEF64E0E7
:1017B00070E08AE090E00E9435090E94FD08809365
:1017C0005D0280935C0290917802D0935B02C0939B
:1017D0005A02992399F080915C0290915D02909356
:1017E00059028093580290935702809356021092A8
:1017F000780280915C02DF91CF91089590E0EFCF65
:10180000CF93DF93EC0181E0809378024FEF5FEF9D
:1018100064E070E08AE090E00E9435090E94FD08D3
:1018200080935D0280935C0290917802992351F13C
:1018300020915C0230915D0230935B0220935A024A
:10184000D0935902C0935802D0935D02C0935C02BA
:10185000D0935702C0935602C0915C028C1759F086
:101860004FEF5FEF64E070E08AE090E00E9435099E
:101870006C2F0E94120B1092780280915C02DF9113
:10188000CF910895282F30E030935B0220935A02C5
:101890009E0133273093590220935802C0935C0273
:1018A0003093570220935602D7CFCF93DF93C82FA0
:1018B0008DEC0E9460090E948809809160029091DD
:1018C00061020E94000C89E090E00E9425090E94BC
:1018D000000C80917D0290917E020E94000C84E0B9
:1018E000C89FE0011124CE0102960E94FD0880935A
:1018F0005D0290917802992309F448C080915C02BE
:1019000090915D0290935B0280935A0280915D02F8
:1019100090915E02909359028093580290935D02D9
:1019200080935C02909357028093560260915C0210
:1019300082E190E00E94120BC350D74F20917802B1
:1019400080917D0290917E0290935B0280935A0277
:10195000222381F1888199819093590280935802C2
:1019600090937E0280937D0290935702809356025B
:1019700060E08DE290E00E94320B60E08EE290E049
:101980000E94320B80E0DF91CF91089520915C029C
:1019900030E030935B0220935A02282F30E03093DE
:1019A00059022093580280935C023093570220938F
:1019B0005602BCCF888190E0CFCF0F931F93CF9377
:1019C000DF93EC010E94D4018C0142E050E06AE216
:1019D00071E0CE010E94E700800F911FDF91CF914F
:1019E0001F910F9108951F920F920FB60F9211241D
:1019F0002F933F934F935F936F937F938F939F9317
:101A0000AF93BF93EF93FF938AE994E00E9465013F
:101A1000FF91EF91BF91AF919F918F917F916F91C6
:101A20005F914F913F912F910F900FBE0F901F909C
:101A300018951F920F920FB60F9211242F938F9328
:101A40009F93EF93FF93E091AA04F091AB04808100
:101A5000E091B004F091B10482FD1BC090818091AF
:101A6000B3048F5F8F732091B404821741F0E0912B
:101A7000B304F0E0E656FB4F958F8093B304FF91DB
:101A8000EF919F918F912F910F900FBE0F901F900C
:101A900018958081F4CF1F920F920FB60F921124E8
:101AA0002F933F938F939F93AF93BF9380914C015C
:101AB00090914D01A0914E01B0914F0130914B0199
:101AC00023E0230F2D3758F50196A11DB11D20935A
:101AD0004B0180934C0190934D01A0934E01B09324
:101AE0004F018091470190914801A0914901B09127
:101AF0004A010196A11DB11D8093470190934801B1
:101B0000A0934901B0934A01BF91AF919F918F91EA
:101B10003F912F910F900FBE0F901F90189526E8C0
:101B2000230F0296A11DB11DD2CFEAE9F4E0138282
:101B3000128288EE93E0A0E0B0E084839583A683D0
:101B4000B78388E091E09183808385EC90E095876E
:101B5000848784EC90E09787868780EC90E0918B77
:101B6000808B81EC90E0938B828B82EC90E0958B64
:101B7000848B86EC90E0978B868B118E128E138E61
:101B8000148EE7E3F5E0138212828AE191E09183FB
:101B9000808315820895789484B5826084BD84B56D
:101BA000816084BD85B5826085BD85B5816085BD58
:101BB00080916E00816080936E0010928100809110
:101BC0008100826080938100809181008160809398
:101BD0008100809180008160809380008091B100BD
:101BE00084608093B1008091B00081608093B000E8
:101BF00080917A00846080937A0080917A0082607C
:101C000080937A0080917A00816080937A0080913D
:101C10007A00806880937A001092C100E091AA0453
:101C2000F091AB0482E08083E091A604F091A704D8
:101C30001082E091A804F091A9048FEC80831092A7
:101C4000B204E091AE04F091AF0486E08083E091AD
:101C5000AC04F091AD04808180618083E091AC049C
:101C6000F091AD04808188608083E091AC04F091B4
:101C7000AD04808180688083E091AC04F091AD0474
:101C800080818F7D808362E371E08AE994E00E9425
:101C9000DD0C65E071E08AE994E00E94DD0C68EDFE
:101CA00070E08AE994E00E94D40102E0EAE0FE2EAE
:101CB000F3E5EF2E00938202F092810210927F02F0
:101CC0000E949002EB0161E0809181020E945F021C
:101CD00061E0809181020E94130260E08CE00E942A
:101CE0005F0261E08AE00E945F0261E08AE00E9498
:101CF000130261E08BE00E945F0261E08DE00E94D0
:101D00005F02ECBC1AE08FEF0E949C021150D9F7E1
:101D100060E0809181020E94130220E030E0A9017E
:101D200060E08FE792E00E94CE02182F8130C9F068
:101D30000E9490026C1B7D0B613D774070F3109305
:101D4000800281E080937F028FE792E00E94A102EF
:101D500041E050E06DE271E08AE994E00E94E70022
:101D6000A9CF20E030E0A90167E38FE792E00E946D
:101D7000CE0220E030E0A90169E28FE792E00E9404
:101D8000CE02182F882361F00E9490026C1B7D0BFD
:101D9000613D774030F31093800200937F02D4CFEF
:101DA0008FE792E00E94A10260EC70E08AE994E083
:101DB0000E94D40181E00E941A0481110DC00E948A
:101DC0001A04811109C041E050E06DE271E08AE936
:101DD00094E00E94E700EECF68EB70E08AE994E0BF
:101DE0000E94DD0C65EF70E08AE994E00E94DD0C52
:101DF00060E070EF89E090E00E94340B60E08DE2DB
:101E000090E00E94320B60E884E090E00E94320B88
:101E100063E08FE291E00E9461076091410570915B
:101E2000420590E080E00E94340BD0E0C0E0C13079
:101E30004FEFD40750F561E088E391E00E9461071D
:101E400060E870E080E591E00E942608C80FD91F85
:101E50000E94AA0662E482E291E00E946107AE015C
:101E60000D2E000C660B770B615F7F4F87E395E0CB
:101E70000E94C30540E850E060E571E087E395E02B
:101E80000E94B6090E94AA06D2CF80E091E090930A
:101E90007E0280937D02F12CE12CD12CC12C74E0C8
:101EA000A72EB12C7724739432E0632E46E0442EA3
:101EB0005CE0552E6AE1862E912C89E090E00E942C
:101EC000250924E0880F991F2A95E1F720917D02CA
:101ED00030917E02820F931F0E94FD08282F30E070
:101EE00030937C0220937B02882311F40C940D2202
:101EF0000E946009A0917A028A2F877080937902EC
:101F0000A170A09378028695817080937702E0910A
:101F10007B02F0917C0291817281292F372F3093BF
:101F2000760220937502B38170937302B0937402AA
:101F30004381548150937202409371024091700228
:101F4000442319F041504093700240916F024423A2
:101F500019F0415040936F0280916E02882309F47A
:101F60008FC0A90116E0569547951A95E1F7437081
:101F700040936D02977090936C0203E0369527951D
:101F80000A95E1F7277020936B024111B4C0963097
:101F900009F0B6C02481358130937202209371021A
:101FA00024E030E04111B8C030936A022093690206
:101FB000692F70E0433009F4B5C0C90101960E9451
:101FC000530990E00E942509EC0160916C0270E0D9
:101FD0008091690290916A0202960E9453092091B1
:101FE000730230917402829F8001839F100D11242F
:101FF0000C0F1D1F60916C0270E08091690290913E
:102000006A020E945309C82FD0E0809170028111AA
:1020100086C060916C0270E08091690290916A02C2
:1020200003960E945309A801BE0190E00E94350961
:102030009093670280936602909365028093640296
:1020400030916B02432F50E0440F551F20917802CE
:10205000222309F476C09A0130936302209362022E
:1020600040917702442361F0309361022093600233
:10207000909363028093620230936502209364021E
:10208000E0915F02E13308F03EC2F0E0E65BFF4E14
:102090000C946E22AA10FC106D1160116611F511DE
:1020A000A81339165516931698181D1A8312D61AA6
:1020B000341B6B1B9F1B6C1C461D391E6F1E83122D
:1020C0008312901EAE1BA11EA51EA91EBA1E621F62
:1020D000A01FC11FE51F0020511E082017201C2033
:1020E00023212F213C2150217F219921A021B7219B
:1020F000C321CB21FD21423009F44CCF413029F0DE
:1021000070937102B09372024BCF272F770F330B6E
:10211000309374022093730230E020E045CF809129
:10212000680281CF660F771FAA2311F0CB0180CF01
:10213000892F86958695860F972F911D87709927F1
:1021400077CF232F26952695240F352F311D277005
:10215000332782CF60917A026695677060935E0242
:1021600000917502002E000C110BC0917802D0E096
:1021700070E08FE090E00E94530990E00E94FD081B
:102180008823A1F091E0C927C09F9001C19F300D25
:10219000D09F300D112480917D0290917E02820F9C
:1021A000931F90937E0280937D02ADC160915E0289
:1021B00070E080E190E00E94530990E00E94FD08E9
:1021C0008111E0CF60915E0270E081E190E00E94B9
:1021D000530990E00E94FD08382E60915E0270E085
:1021E00082E190E00E94530990E00E94250991E06D
:1021F0003812C9CF90E0C7CF90917A0281E0492F81
:10220000487093FF80E08093780290917902292FA3
:1022100030E0220F331F442389F1C9010E94FD08D9
:1022200080935D0280935C0240917802442379F1AF
:1022300080915C0290915D0290935B0280935A02C0
:102240008091750290917602909359028093580282
:1022500090935D0280935C029093570280935602A4
:1022600060915C0290917902292F30E0220F331F98
:102270004423E9F0C9010E94120B45C1892F8695BC
:102280008695820F932F911D87709927C7CF90E075
:1022900090935B0280935A0220917502822F90E006
:1022A000909359028093580220935C02D5CF892FD6
:1022B00086958695820F932F911D87709927DBCF86
:1022C0008091790290E00E9425091BC180917902DA
:1022D00090E00E9425090C941A1A709278021092CC
:1022E00077028091790280936B0220916D0284E0E5
:1022F00090E0222311F090E080E090936A028093B6
:10230000690260916C0270E0233008F08CC1019684
:102310000E94530990E00E942509EC0160916C0233
:1023200070E08091690290916A0202960E945309BE
:102330002091730230917402829F8001839F100D5F
:1023400011240C0F1D1F60916C0270E080916902D6
:1023500090916A020E945309C82FD0E080917002C8
:1023600081115EC160916C0270E080916902909170
:102370006A0203960E945309A801BE0190E00E94E0
:102380003509BC0170936702609366027093650221
:102390006093640290916B02492F50E0440F551FE7
:1023A000809178029A01811108C0292F26952695DF
:1023B000240F352F311D277033273093630220936C
:1023C000620280917702882361F03093610220934A
:1023D00060027093630260936202309365022093FF
:1023E00064028091550280936B0280916B0282306F
:1023F00008F034C188E190E00E94FD0880935D02FE
:102400009091780220916B02992309F40FC1809179
:102410005C0290915D0290935B0280935A0240911E
:102420005D0250915E025093590240935802840F0E
:10243000951F019630E0220F331F821B930B909360
:102440005D0280935C0290935702809356026091E4
:102450005C0280916202909163020E94120BC1E0C3
:10246000D0E0D0935902C09358020E94700B809123
:10247000780258E0859FC0011124079602C0CC0F56
:10248000DD1F8A95E2F720915A0230915B022F5F9F
:102490003F4F80916B02281B310981E090E0C21709
:1024A000D30711F090E080E00E94680B80917802E1
:1024B00028E0829FC0011124079641E050E002C04D
:1024C000440F551F8A95E2F720915A0230915B0222
:1024D0002F5F3F4F80916B02281B310981E090E014
:1024E0004217530711F090E080E00E94680B809142
:1024F0005F02853019F480E10E94600980915C02DE
:1025000090E00E94000C80916D0241E050E0833029
:1025100011F450E040E0849F9001859F300D11241C
:10252000811105C081E090916C02963009F080E045
:1025300090E0880F991F820F931F20916E02289FB1
:10254000E001299FD00D112460917A0270E08CE0A7
:1025500090E00E945309C80FD11D60917A0270E08B
:102560008DE090E00E9453092091780230E02F5FC7
:102570003F4F582F529FC001539F900D11248C0F35
:102580009D1FC0917D02D0917E02C80FD91FD093AC
:102590007E02C0937D028091500280FF8ECC83E04A
:1025A000220F331F8A95E1F72150310960915602BD
:1025B0007091570202C0759567952A95E2F7617090
:1025C0008CE290E00E94320B61E080915602909183
:1025D0005702892B09F060E08BE290E00E94320BF9
:1025E000609156027091570277278BE090E00E942D
:1025F0005309682F89E290E00E94320B80915002CB
:1026000081FD0E94700B8091500282FF4BCC90E0C4
:1026100080E00E94BC0B90E080E00E94680B42CCFE
:1026200080916802A9CE660F771FACCE40915C0204
:10263000642F70E070935B0260935A0290E0909375
:1026400059028093580230E0220F331F821B930BF4
:102650000196840F80935C0290E0F5CE863009F4F9
:102660006EC0833031F489E090E00E9425090E9419
:10267000000C80916B0281FF23C080916D0221E0EC
:1026800030E0833011F430E020E0829FA001839F8E
:10269000500D1124811105C021E080916C0286301B
:1026A00009F020E080917D0290917E020296840FD5
:1026B000951F30E0220F331F820F931F0E94000CE2
:1026C0008091620290916302029620916B0220FD3C
:1026D0000E94FD08809162029091630202960E941E
:1026E000FD08682F70E089E090E00E94340B809133
:1026F0006202909163020E94FD0880935C029091B7
:10270000780220917D0230917E0230935B0220930B
:102710005A02992391F080915C0290915D0290930E
:1027200059028093580290937E0280937D02909389
:102730005702809356028AE9DFCE90E0F0CF809175
:102740006602909167020E94FD0880935C02D6CEDB
:10275000809162029091630290936502809364027B
:10276000E0916B02E83008F0CECEF0E0E654FC4E8B
:102770000C946E22C21383120D1442149714FF148A
:102780006215E11580E20E94600920917D0230917E
:102790007E022F5F3F4F80917802820F932F911D11
:1027A00090937E0280937D028091640290916502F5
:1027B0000E94FD0880935C02909178029923E1F0D9
:1027C00020915C0230915D0230935B0220935A02AB
:1027D00040917102509172025093590240935802F5
:1027E000242335233093570220935602682F80917B
:1027F0006402909165023FCD282F30E030935B0258
:1028000020935A0220917102422F50E050935902B6
:1028100040935802282330E0E5CF0E94FD088093C2
:102820005D02909178029923D9F080915C02909199
:102830005D0290935B0280935A0280915D029091B9
:102840005E029093590280935802809590959093E0
:102850005D0280935C02909357028093560225C5D7
:1028600020915C0230E030935B0220935A02282FC3
:1028700030E03093590220935802809580935C0297
:1028800090E0E9CF0E94FD0880935D02909178026C
:102890009923D9F180915C0290915D0290935B0243
:1028A00080935A0280915D0290915E02909359024A
:1028B0008093580291958195910990935D02809340
:1028C0005C02909357028093560260915C02809163
:1028D0006402909165020E94120B10925B021092AA
:1028E0005A0288E20E94600981E090E0409156021D
:1028F0005091570220915A0230915B0224173507FC
:1029000008F060C20E94BC0BFECD20915C0230E05A
:1029100030935B0220935A02282F30E03093590203
:1029200020935802819580935C0290E0CACF8091F9
:102930007802882391F180E10E946009C0916602CB
:10294000D0916702C350D74F90E080E00E942509E4
:10295000C89FB001C99F700DD89F700D112470934E
:10296000570260935602770F660B762F809178029C
:1029700090E001960E94340B6091560270915702CC
:1029800090E080E00E94340B60E088E290E00E94DA
:10299000320BC6010E94680BB6CD80E10E9460092F
:1029A000C0916602D0916702C350D74FDD2790E0F7
:1029B00080E00E94FD08382F3C9FC0013D9F900D94
:1029C000112490935702809356028091780290E0F0
:1029D00060E001960E94320B60915602709157029E
:1029E00090E080E00E94340B809156029091570253
:1029F00088270E94BC0B082E000C990BCBCF80912E
:102A00007802882381F180E10E946009C09166020A
:102A1000D0916702C350D74F90E080E00E94250913
:102A2000C89FB001C99F700DD89F700D112470937D
:102A3000570260935602770F660B762F80917802CB
:102A400090E001960E94340B6091560270915702FB
:102A500090E080E00E94340B60E088E290E00E9409
:102A6000320BC70197CF80E10E946009C0916602D6
:102A7000D0916702C350D74F90E080E00E94FD08DC
:102A80008C02B00111247093570260935602770FA5
:102A9000660B762F8091780290E001960E94320BAF
:102AA000609156027091570290E080E00E94340BD2
:102AB0008091560290915702082E881B910907FCBD
:102AC000939597CF8091660290916702209178024A
:102AD0002223E9F10E94FD0890E090935402809334
:102AE0005302892B09F4C1C08091780290E00196CD
:102AF0000E94250990E080E00E942509EC01909356
:102B000061028093600260915302709154020E94AE
:102B1000242270936A026093690290E080E00E9430
:102B2000340B2091530230915402AC01429FC001FA
:102B3000439F900D529F900D1124BE01681B790B8D
:102B40008091780290E001960E94340BDCCC0E94C8
:102B5000FD0890E09093540280935302892B09F46E
:102B600084C08091780290E001960E94FD0890E078
:102B700080E00E942509C82F809360029093610233
:102B800060915302709154020E94242270936A0251
:102B900060936902CB0199276817790709F065C02E
:102BA00090E080E00E94120B909153026C2F899F5D
:102BB000601911248091780290E001960E94320BF6
:102BC000A2CC809166029091670220917802222324
:102BD00001F10E94FD0890E090935402809353020B
:102BE000892B09F442C08091780290E001960E94FE
:102BF000250990E080E00E942509EC019093610294
:102C00008093600260915302709154020E943822B6
:102C100080CF0E94FD08082E000C990B909354025F
:102C200080935302892B09F18091780290E00196FC
:102C30000E94FD0890E080E00E942509C82F809343
:102C400060029093610260915302709154020E945D
:102C5000382270936A0260936902262F062E000CB8
:102C6000330B6217730709F49BCF80E00E94550C69
:102C70004ACC109267021092660280917502909180
:102C80007602909372028093710283E080936D02CA
:102C90008091550280936B0280917D0290917E021B
:102CA000019790937E0280937D02809166029091BD
:102CB0006702909365028093640281E090917802AC
:102CC000911180E090917702892B80937702609137
:102CD000710270917202882319F0062E000C770B96
:102CE0008DE090E00E94340B909263028092620229
:102CF0008091770222E030E0882311F021E030E07B
:102D000080917D0290917E02820F931F90937E02AC
:102D100080937D0280916B0280935502880F880F0B
:102D2000880F0E946009E0915502E93008F0EBCB72
:102D3000F0E0EF55F94E80916202909163020C949D
:102D40006E22AA16F81623178D1700182B18191CB7
:102D50006A1823190E94FD0880935D029091780201
:102D6000992399F180915C0290915D0290935B02AE
:102D700080935A0220915D0230915E023093590295
:102D800020935802820F931F90935D0280935C0200
:102D9000909357028093560260915C028091640286
:102DA000909165020E94120B81E090E040915602E2
:102DB0005091570220915A0230915B0242175307FB
:102DC00008F4A0CD90E080E09DCD90915C02292F89
:102DD00030E030935B0220935A02282F30E030938A
:102DE000590220935802890F80935C0290E0D0CF63
:102DF0000E94FD0880935D0290917802992399F0DA
:102E000080915C0290915D0290935B0280935A02E4
:102E100020915D0230915E02309359022093580256
:102E2000822B932B14CD90915C02292F30E03093AC
:102E30005B0220935A02282F30E0309359022093EE
:102E40005802892B1BCD0E94FD0880935D02809162
:102E50007802882309F446C080915C0290915D025B
:102E600090935B0280935A0288E290E00E94FD08F2
:102E700020915D0230915E023093590220935802F6
:102E800040915C0250915D02240F351F820F932FF9
:102E9000911D90935D0280935C0290935702809302
:102EA000560260915C0280916402909165020E94DA
:102EB000120B88E290E00E94FD0820915A023091A6
:102EC0005B024091560250915702882321F042172D
:102ED000530709F493C081E0421753070CF468C00C
:102EE00080E066C080915C0290E090935B028093EA
:102EF0005A0288E290E00E94FD0890915D02292F1D
:102F000030E0309359022093580220915C02920FD6
:102F1000890F80935C0290E0C0CF0E94FD088093EF
:102F20005D0280917802882309F448C080915C0298
:102F300090915D0290935B0280935A0288E290E048
:102F40000E94FD0840915D0250915E02509359022B
:102F50004093580220915C0230915D02241B350B96
:102F6000281B310930935D0220935C023093570295
:102F70002093560260915C028091640290916502F8
:102F80000E94120B88E290E00E94FD0820915A02F4
:102F900030915B024091560250915702882319F0FC
:102FA0004217530759F181E0241735070CF098CFE9
:102FB00090E00E94BC0B0E94700BA5CA80915C023D
:102FC00090E090935B0280935A0288E290E00E9426
:102FD000FD0820915D02422F50E05093590240932A
:102FE000580290915C02921B981B892F90935C026F
:102FF00090E09093570280935602BCCF81E0D8CFE7
:103000000E94FD0880935D0290917802992399F0C7
:1030100080915C0290915D0290935B0280935A02D2
:1030200020915D0230915E02309359022093580244
:10303000822393230CCC90915C02292F30E03093B3
:103040005B0220935A02282F30E0309359022093DC
:103050005802892313CC0E94FD08982F80935D02AB
:1030600080917802882319F180915C0290915D0231
:1030700090935B0280935A0220915D0230915E0230
:103080003093590220935802821B930B90935D0258
:1030900080935C02909357028093560260915C0289
:1030A00080916402909165020E94120B1DCC809168
:1030B0005C02282F30E030935B0220935A02292FC4
:1030C00030E03093590220935802891B80935C02B0
:1030D00090E0E0CF0E94FD0880935D02909178021D
:1030E000992399F080915C0290915D0290935B022C
:1030F00080935A0220915D0230915E023093590212
:1031000020935802821B930BC5CF20915C0230E0C4
:1031100030935B0220935A0290E09093590280937F
:103120005802281B390B3093570220935602B6CF12
:10313000809178028111BCC07092780280916B02FC
:10314000885F80936B0220916D0284E090E02223DF
:1031500011F090E080E090936A02809369026091A0
:103160006C0270E0233008F08AC001960E94530977
:1031700090E00E942509EC0160916C0270E0809162
:10318000690290916A0202960E945309209173028B
:1031900030917402829F8001839F100D11240C0FC7
:1031A0001D1F60916C0270E08091690290916A022B
:1031B0000E945309C82FD0E08091700281115CC039
:1031C00060916C0270E08091690290916A020396AE
:1031D0000E945309A801BE0190E00E943509BC017C
:1031E0007093670260936602709365026093640255
:1031F00090916B02492F50E0440F551F8091780247
:103200009A01811108C0292F26952695240F352F64
:10321000311D27703327309363022093620280911F
:103220007702882361F030936102209360027093EB
:10323000630260936202309365022093640280917E
:103240006202909163020E94FD0880935D0290915A
:1032500078029923B9F080915C0290915D0290937D
:103260005B0280935A0280915D0290915E0290937E
:10327000590280935802EBCA80916802ABCF660F67
:10328000771FAECF20915C0230E030935B02209339
:103290005A02282F30E0309359022093580280932D
:1032A0005C02309357022093560260915C029FCAE1
:1032B000809177028111B7C07092700250926802BB
:1032C00020916D0284E090E0222311F090E080E0F4
:1032D00090936A028093690260916C0270E02330DF
:1032E00008F08EC001960E94530990E00E942509C3
:1032F000EC0160916C0270E08091690290916A0229
:1033000002960E9453092091730230917402829FA9
:103310008001839F100D11240C0F1D1F60916C0202
:1033200070E08091690290916A020E945309C82F4F
:10333000D0E080917002811160C060916C0270E0F9
:103340008091690290916A0203960E945309A80134
:10335000BE0190E00E943509BC0170936702609342
:103360006602709365026093640290916B02492F2C
:1033700050E0440F551F809178029A01811108C0D6
:10338000292F26952695240F352F311D2770332799
:10339000309363022093620280917702882361F068
:1033A0003093610220936002709363026093620223
:1033B00030936502209364028091620290916302CF
:1033C0000E94FD0880935C02909178029923D9F0C5
:1033D00080915C0290915D0290935B0280935A020F
:1033E00080916602909167029093590280935802EF
:1033F00090935D0280935C028CC180916802A7CF9C
:10340000660F771FAACF90E090935B0280935A02D9
:1034100020916602822F90E0909359028093580287
:1034200020935C0276C180916602909167020E94AF
:10343000FD0890E00E94C40B66C810926B021092C7
:103440006D0240926C028091750290917602909389
:10345000740280937302B0926A02A092690266E0DD
:1034600070E085E090E00E94530990E00E942509F9
:10347000EC0160916C0270E08091690290916A02A7
:1034800002960E9453092091730230917402829F28
:103490008001839F100D11240C0F1D1F60916C0281
:1034A00070E08091690290916A020E945309C82FCE
:1034B000D0E08091700281114EC060916C0270E08A
:1034C0008091690290916A0203960E945309A801B3
:1034D000BE0190E00E9435099093670280936602D6
:1034E00090936502809364022091780230916B0280
:1034F0002223A1F1232F30E0220F331F30936302E8
:103500002093620240917702442361F0309361027C
:10351000209360029093630280936202309365026D
:103520002093640280916402909165020E94FD08DC
:1035300080935D02909178029923E9F080915C027A
:1035400090915D0290935B0280935A0280915D029C
:1035500090915E0249CF80916802B9CF432F50E02D
:10356000440F551F232F26952695240F352F311DE7
:1035700027703327C3CF20915C0230E030935B0289
:1035800020935A02282F30E030935902209358029A
:1035900080935C02309357022093560260915C0244
:1035A00080916202909163020C943B1181E090E063
:1035B0000E94250980935C02282F2150330BB9010A
:1035C00081E090E00E94340B80915C028150990B65
:1035D000909361028093600280917902813029F199
:1035E00078F0833049F1609175024091600250910A
:1035F000610264039001659F300D11240C94CB107F
:103600008BE290E00E94FD0821E030E0882311F079
:1036100030E020E080916002909161028223932348
:103620009093610280936002DECF8BE290E00E9473
:10363000FD08282F30E0EECF81E090E00E942509C0
:1036400080935C029927BC016F5F7F4F81E090E01F
:103650000E94340B80915C02811103C082E090E0F3
:10366000DFCF81E090E0DCCF2091770280917D0276
:1036700090917E020396821B910990937E02809323
:103680007D023091780231110EC0222309F110928F
:103690007E0210927D02609171027091720289E047
:1036A00090E00E94340B2091750230917602809157
:1036B0007702882311F40C94CB1080917802882330
:1036C00011F40C94CB10022E000C330B0C94CB1085
:1036D0000E94000CE8CF80916402909165020E94E4
:1036E000FD0880935D02909178029923B9F0809152
:1036F0005C0290915D0290935B0280935A0220914C
:103700005D0230915E023093590220935802822369
:103710009323909357028093560240CF90915C027E
:10372000292F30E030935B0220935A02282F30E09B
:103730003093590220935802892390E0EACF709287
:10374000780210926502109264028091790290E0F2
:10375000880F991F909363028093620280916202A6
:103760009091630220916402309165022817390715
:1037700011F40C9483120E94FD0880935D029091D5
:103780007802992309F471C080915C0290915D02E6
:1037900090935B0280935A0220915D0230915E0209
:1037A00030935902209358028227932790935D0209
:1037B00080935C02909357028093560260915C0262
:1037C00080916402909165020E94120B80916402C4
:1037D000909165020E94FD0880935D0290917802AD
:1037E000992309F455C080915C0290915D029093F9
:1037F0005B0280935A0220915D0230915E02309309
:103800005902209358028227932790935D02809358
:103810005C02909357028093560260915C02809103
:103820006202909163020E94120B80916202909159
:1038300063020E94FD0880935D02909178029923B3
:10384000D1F180915C0290915D0290935B02809334
:103850005A0220915D0230915E023093590220930A
:103860005802822793270C94271490915C02292FE9
:1038700030E030935B0220935A02282F30E03093DF
:10388000590220935802892780935C0290E092CFDE
:1038900090915C02292F30E030935B0220935A0212
:1038A000282F30E0309359022093580289278093C3
:1038B0005C0290E0AECF90915C02292F30E0309313
:1038C0005B0220935A02282F30E030935902209354
:1038D000580289270C943E1480917002882309F4C1
:1038E000AAC08091680290E090936A028093690276
:1038F00080916F02882309F4A1C081E090E00E94CA
:1039000025099093610280936002809160029091FA
:103910006102892B09F4AFC08091550280FD91C0EE
:1039200050E040E066E070E08091690290916A02A8
:103930000E9435090E94FD0880935D0290917802F3
:10394000992309F481C080915C0290915D0290936B
:103950005B0280935A0280915D0290915E02909387
:1039600059028093580290935D0280935C02909379
:10397000570280935602C0915C02809155028230BA
:1039800008F076C050E040E067E070E088E090E04A
:103990000E9435096C2F0E94120B8091550280FD08
:1039A00020C086E090E00E942509EC018FE290E0C3
:1039B0000E94FD0890E0880F991F019720917802DE
:1039C00030E02F5F3F4F829FA001839F500D929F59
:1039D000500D1124BE01641B750B86E090E00E941F
:1039E000340B8091550281FD20C087E090E00E9459
:1039F0002509EC018FE290E00E94FD0890E0880F1D
:103A0000991F01972091780230E02F5F3F4F829FEE
:103A1000A001839F500D929F500D1124BE01641B85
:103A2000750B87E090E00E94340B809160029091CA
:103A30006102019766CF8BE090E056CF81E090E085
:103A400060CF90E080E076CF20915C0230E0309350
:103A50005B0220935A02282F30E0309359022093C2
:103A6000580280935C02309357022093560283CF12
:103A700090E080E08FCF80916F02882311F40C9446
:103A8000831270E060E081E090E05EC88091700297
:103A9000882391F08091680290E090936A0280936D
:103AA000690280916F0281110AC081E090E09093D9
:103AB0006102809360020FC08BE090E0EECF81E066
:103AC00090E00E9425099093610280936002892B07
:103AD00011F40C9483128091600290916102892B01
:103AE00009F4BFC050E040E067E070E088E090E09B
:103AF0000E9435090E94FD0880935D029091780232
:103B0000C0915C02992309F497C080915C02909166
:103B10005D0290935B0280935A0220915D02309186
:103B20005E023093590220935802821B930B9093AC
:103B30005702809356028091550281118FC050E048
:103B400040E066E070E08091690290916A020E9414
:103B500035096C2F0E94120B80915502811120C0F3
:103B600086E090E00E942509EC018FE290E00E943F
:103B7000FD0890E0880F991F01972091780230E0AE
:103B80002F5F3F4F829FA001839F500D929F500D4A
:103B90001124BE01641B750B86E090E00E94340B7B
:103BA00081E090E00E94250980935C02482F4150FB
:103BB000550BBA0181E090E00E94340B87E090E061
:103BC0000E942509EC018FE290E00E94FD0890E040
:103BD000880F991F01972091780230E02F5F3F4FA7
:103BE000829FA001839F500D929F500D1124BE0112
:103BF000641B750B87E090E00E94340B80916F028C
:103C0000882309F41BC480915C02813081F081E03B
:103C100090E02091560230915702232B11F090E052
:103C200080E0209152022817190609F454CF10920F
:103C30006102109260024FCF2C2F30E030935B0274
:103C400020935A0290E09093590280935802281BC7
:103C5000390B30935702209356026DCF90E080E0ED
:103C600078CF83E090E090935102809350020C94BF
:103C70007414809178028093770280917D029091F4
:103C80007E020E94C40B80915502882331F089E0A6
:103C900090E00E9425090E94C40B8091550281FF8B
:103CA0000BC080916002909161020E94C40B90E071
:103CB0000E94490B0C9483128091770281110C941D
:103CC000831284E090E00E94250960917502709152
:103CD0007602680F791F84E090E00C94A41580911F
:103CE0006202909163020E94FD0880935C029091B1
:103CF0007802992369F080915C0290915D02909323
:103D00005B0280935A0280917102909172026CCB97
:103D100090E090935B0280935A02209171027ACBDB
:103D200060926F02809178028093520280917002BB
:103D3000882311F40C9483128F5F809370020C948B
:103D40008312809155020C946211809155020C945B
:103D50006811609270028091550280936802809190
:103D60006F02882311F40C9483128F5F80936F028B
:103D70000C948312109278028091550290E088236F
:103D800009F49AC080E00E94FD0880935C0290E0F4
:103D900080E00E94FD08282F30E030936A022093D3
:103DA00069028F7061E08A3040F48AE290E00E94FC
:103DB000FD0861E0811101C060E08AE290E00E94AC
:103DC000320B60915C0290E080E00E94320B90E048
:103DD00080E00E94FD0880935C028091690291E07E
:103DE0008A3940F488E290E00E94FD0891E0811158
:103DF00001C090E0892F90E00E94BC0B882351F015
:103E000080915C02805680935C0290E09093570210
:103E10008093560260915C0290E080E00E94320B39
:103E200090E080E00E94FD08282F30E030936A0285
:103E3000209369028F7061E08A3040F48AE290E05A
:103E40000E94FD0861E0811101C060E08AE290E01B
:103E50000E94320B60915C0290E080E00E94320B85
:103E600090E080E00E94FD0880935C0290E080E09A
:103E70000E94FD08807F91E0813940F488E290E063
:103E80000E94FD0891E0811101C090E0892F90E02F
:103E90000E94BC0B882351F080915C02805A809371
:103EA0005C0290E0909357028093560260915C020E
:103EB00090E080E00C94DE1580E00E94FD08809385
:103EC0005C02AECF90E080E00E94250980935C0206
:103ED00090E080E00E94FD088F7091E08A3040F40D
:103EE0008AE290E00E94FD0891E0811101C090E01B
:103EF000892F90E00E94BC0B61E0811101C060E05D
:103F00008AE290E00E94320B60915C0270E090E0E7
:103F100080E00E94340B90E080E00E94FD08682F52
:103F20006F7060935D0290E080E00E94320B8091A0
:103F30005C0290E090935702809356020C94831297
:103F400090E080E00E94FD0880935C02209178025E
:103F500090E0222321F080915C0290915D0258E074
:103F6000259F90011124295F3F4F02C095958795A9
:103F70002A95E2F78170682F619581E090E00C94BA
:103F8000DE1590E080E00E94250980935C0220917C
:103F900078029927222321F080915C0290915D02A2
:103FA00048E0249F90011124295F3F4F02C095955E
:103FB00087952A95E2F78170992766277727681BEE
:103FC000790B82E090E00C94A41589E090E00E94C7
:103FD00025090E94000C80917D0290917E02059639
:103FE0000E94000C609171027091720289E090E071
:103FF0000E94340B80917502909176020C94D1103E
:104000000E94880980916002909161020C94811253
:104010000E948809C0916002D0916102CC2781E0A2
:1040200090E00E94FD088C0F9D2F911D41CE0E94B3
:10403000880960916002A1CF709277027092780235
:1040400020916D0284E090E0222311F090E080E066
:1040500090936A028093690260916C0270E0233051
:1040600008F0C6C001960E94530990E00E942509FD
:10407000EC0160916C0270E08091690290916A029B
:1040800002960E9453092091730230917402829F1C
:104090008001839F100D11240C0F1D1F60916C0275
:1040A00070E08091690290916A020E945309C82FC2
:1040B000D0E080917002811198C060916C0270E034
:1040C0008091690290916A0203960E945309A801A7
:1040D000BE0190E00E943509BC01709367026093B5
:1040E0006602709365026093640290916B02492F9F
:1040F00050E0440F551F809178029A01811108C049
:10410000292F26952695240F352F311D277033270B
:10411000309363022093620280917702882361F0DA
:104120003093610220936002709363026093620295
:104130003093650220936402809162029091630241
:104140000E94FD0880935D0290917802992309F402
:1041500052C080915C0290915D0290935B028093CB
:104160005A0280915D0290915E0290935902809371
:10417000580290935D0280935C0290935702809363
:10418000560260915C0280916402909165020E94E7
:10419000120B809166029091670202960E94FD08C0
:1041A00080935D02909178029923C9F180915C021D
:1041B00090915D0290935B0280935A0280915D0220
:1041C00090915E02909359028093580290935D0201
:1041D00080935C029093570280935602809155021F
:1041E00060915C0290E00C943B11809168026FCF6B
:1041F000660F771F72CF20915C0230E030935B0234
:1042000020935A02282F30E030935902209358020D
:1042100080935C023093570220935602B2CF2091D4
:104220005C0230E030935B0220935A02282F30E08A
:10423000309359022093580280935C0230935702C6
:1042400020935602CBCF80917D0290917E02019601
:1042500090937E0280937D0283E00C9436168091C9
:104260007D0290917E02029690937E0280937D0261
:10427000809175020C94361680917D0290917E0299
:10428000019690937E0280937D0280E390E00E94ED
:10429000FD08882311F40C94831284E00C943616E4
:1042A000809175029091760299279093760280937F
:1042B0007502892B11F40C94351690E080E00E9471
:1042C000FD0890E060917502709176020E942422B0
:1042D00081E090E00E94320B90E080E00E94FD08B7
:1042E00090E060917502709176020E942422809382
:1042F0005C028093560290935702682FD9CD10929A
:10430000780290E080E00E94FD08C82F81E090E0F4
:104310000E94FD0890917502899FC00D11246C2F99
:1043200070E0709357026093560290E080E00C9426
:10433000A41588E290E00E94FD08682F6195B8CD31
:1043400090E080E00E94FD08482F50E080917002CC
:10435000882351F08091680290E063E070E00E9451
:1043600035090E94FD08C9CF8BE090E0F6CF88E2C6
:1043700090E00E94FD08682F672560935C0288E248
:1043800090E00C94DE1580915502682F617086953F
:1043900090E00C94DE1590E080E00E94FD08809390
:1043A0005C02909178029923B9F020915C023091DF
:1043B0005D0230935B0220935A0240917502509146
:1043C00076025093590240935802242335233093A8
:1043D00057022093560291CF282F30E030935B0292
:1043E00020935A0220917502422F50E050935902B7
:1043F00040935802282330E0EACF80917502811162
:104400000C94831290E080E00E94FD08682F8AE9F6
:1044100094E00E9487010C94831265EE70E08AE9B3
:1044200094E00E94DD0CC0E0D0E02097F1F30E9400
:1044300051018823D1F30E940000F7CF80916002E0
:1044400090916102019733CBAA1BBB1B51E107C0BE
:10445000AA1FBB1FA617B70710F0A61BB70B881F14
:10446000991F5A95A9F780959095BC01CD010895A3
:1044700097FB072E16F4009407D077FD09D00E9411
:10448000242207FC05D03EF4909581959F4F089516
:10449000709561957F4F0895A1E21A2EAA1BBB1B50
:1044A000FD010DC0AA1FBB1FEE1FFF1FA217B30700
:1044B000E407F50720F0A21BB30BE40BF50B661F16
:1044C000771F881F991F1A9469F7609570958095DA
:1044D00090959B01AC01BD01CF010895EE0FFF1F28
:1044E0000590F491E02D0994A29FB001B39FC00103
:1044F000A39F700D811D1124911DB29F700D811D10
:104500001124911D0895FB01DC0104C08D910190DF
:10451000801921F441505040C8F7881B990B089529
:10452000FB01DC0102C001900D9241505040D8F7D0
:064530000895F894FFCF8E
:10453600FFFFFFFF000000008701E7001401F30101
:1045460045012301370100000000FA0AE7000F07C2
:104556000E0772616D2E62696E000D0A002E0064F0
:1045660069736B2E696D670062696F732E62696E7F
:02457600000043
:00000001FF
