:100000000C94BD000C94E5000C94E5000C94E50004
:100010000C94E5000C94E5000C94E5000C94E500CC
:100020000C94E5000C94E5000C94E5000C94E500BC
:100030000C94E5000C94E5000C94E5000C94E500AC
:100040000C944B0D0C94E5000C94190D0C94F30CCE
:100050000C94E5000C94E5000C94E5000C94E5008C
:100060000C94E5000C94E50000000000240027003B
:100070002A0000000000250028002B0004040404CE
:100080000404040402020202020203030303030342
:10009000010204081020408001020408102001021F
:1000A00004081020000000080002010000030407FB
:1000B00000000000000000002E20446F6E6521004B
:1000C0002E20446F6E652120496E69742066696C2C
:1000D0006573797374656D00496E697420534420AB
:1000E00063617264004D616368696E652068616C6C
:1000F00074656421005374617274696E6720763888
:10010000362E2E2E00436F7079726967687420282E
:100110004329203230323120407261737069647536
:10012000696E6F2C20756E6465722047504C2D7679
:1001300033006176722D763836202D20496E746535
:100140006C203830383620656D756C61746F7220A4
:1001500072756E6E696E67206F6E2041726475698C
:100160006E6F20554E4F007C3C3E5E2B3D3F2F5B1B
:100170005D3B2C2A225C0000950D11241FBECFEFA1
:10018000D8E0DEBFCDBF11E0A0E0B1E0E8E2F3E5EA
:1001900002C005900D92A234B107D9F725E0A2E480
:1001A000B1E001C01D92A135B207E1F710E0CDEB3F
:1001B000D0E004C02197FE010E946729CC3BD10703
:1001C000C9F70E94CB0D0C9492290C940000AF92B9
:1001D000BF92CF92DF92EF92FF920F931F93CF9334
:1001E000DF936C017B018B01040F151FEB015E0196
:1001F000AE18BF08C017D10759F06991D601ED912B
:10020000FC910190F081E02DC6010995892B79F7C9
:10021000C501DF91CF911F910F91FF90EF90DF907B
:10022000CF90BF90AF900895FC01538D448D252F42
:1002300030E0842F90E0821B930B541710F0CF9680
:10024000089501970895FC01918D828D981761F0B2
:10025000A28DAE0FBF2FB11D5D968C91928D9F5FC9
:100260009F73928F90E008958FEF9FEF0895FC01A8
:10027000918D828D981731F0828DE80FF11D858D5B
:1002800090E008958FEF9FEF0895FC01918D228DEE
:10029000892F90E0805C9F4F821B91098F73992773
:1002A000089580EA94E00E94450121E0892B09F439
:1002B00020E0822F089580E090E0892B29F00E94B1
:1002C000510181110C9400000895FC01A48DA80F28
:1002D000B92FB11DA35ABF4F2C91848D90E0019688
:1002E0008F739927848FA689B7892C93A089B189A8
:1002F0008C91837080648C93938D848D981306C049
:100300000288F389E02D80818F7D80830895EF92AC
:10031000FF920F931F93CF93DF93EC0181E0888FBF
:100320009B8D8C8D98131AC0E889F989808185FF8F
:1003300015C09FB7F894EE89FF896083E889F98931
:1003400080818370806480839FBF81E090E0DF9133
:10035000CF911F910F91FF90EF900895F62E0B8D86
:1003600010E00F5F1F4F0F731127E02E8C8D8E1141
:100370000CC00FB607FCFACFE889F989808185FFA8
:10038000F5CFCE010E946501F1CFEB8DEC0FFD2F73
:10039000F11DE35AFF4FF0829FB7F8940B8FEA8963
:1003A000FB8980818062CFCFEF92FF920F931F93E2
:1003B000CF93DF938C017B01D0E0C0E0F701EC0F1D
:1003C000FD1F6491662339F0C8010E948701892BC3
:1003D00011F02196F3CFCE01DF91CF911F910F91B4
:1003E000FF90EF900895CF93DF93EC01888D8823E1
:1003F000B9F0AA89BB89E889F9898C9185FD03C088
:10040000808186FD0DC00FB607FCF7CF8C9185FF6C
:10041000F2CF808185FFEDCFCE010E946501E9CF4B
:10042000DF91CF91089590E0FC01EC55FF4F2491AE
:10043000FC01E057FF4F3491FC01E458FF4FE49179
:10044000EE23C9F0222339F0233001F1A8F4213042
:1004500019F1223029F1F0E0EE0FFF1FEE58FF4FA7
:10046000A591B4918FB7F894EC91611126C03095A5
:100470003E233C938FBF08952730A9F02830C9F060
:10048000243049F7809180008F7D03C080918000E7
:100490008F7780938000DFCF84B58F7784BDDBCFEB
:1004A00084B58F7DFBCF8091B0008F778093B000B3
:1004B000D2CF8091B0008F7DF9CF3E2BDACFCF9392
:1004C000DF9390E0FC01E057FF4F249184589F4F49
:1004D000FC0184918823D1F090E0880F991FFC01E2
:1004E000E859FF4FA591B491FC01EE58FF4FC5911B
:1004F000D49161110EC09FB7F8948C91E22FE095D2
:100500008E238C932881E223E8839FBFDF91CF91D4
:1005100008958FB7F894EC91E22BEC938FBFF6CF50
:100520002FB7F89460914C0170914D0180914E016C
:1005300090914F012FBF08958EBD0DB407FEFDCFE2
:10054000089561E0FC0182810E9413028FEF0C94F8
:100550009C028FEF8EBD0DB407FEFDCF8EB50895C2
:10056000FF920F931F93CF93DF93F82E8B010E947E
:100570009002EB010E94A9028F1571F00E94900277
:100580006C1B7D0B06171707A8F780E0DF91CF9152
:100590001F910F91FF90089581E0F8CFCF92DF92E5
:1005A000EF92FF921F93CF93DF93FC01162F690107
:1005B0007A01838122E090E0281728F4963019F020
:1005C000220F9F5FF9CF292F206A26952CBD90FD21
:1005D00003C021E0963009F420E02DBD60E0828167
:1005E0000E94130268E572E08FEF0E94B002812F33
:1005F00080640E949C02C8E1D0E0D701C6010C2EA5
:1006000004C0B695A795979587950A94D2F70E944E
:100610009C022897C83F8FEFD80779F78FEF111109
:1006200001C085E90E949C02C0E00E94A90287FFE8
:1006300004C0CF3F11F0CF5FF8CFDF91CF911F9172
:10064000FF90EF90DF90CF900895CF93DF93EC0170
:100650009A01AB0189E0220F331F441F551F8A9571
:10066000D1F768E1CE010E94CE02882349F083E0F1
:100670008883CE010E94A10280E0DF91CF9108958E
:100680008EEF8EBDE0EAF2E00DB407FEFDCF819162
:100690008EBD84E0E03AF807B9F70DB407FEFDCF50
:1006A0008FEF0E949C028FEF0E949C020E94A90281
:1006B000982F9F71953019F0898386E0D9CF68E52E
:1006C00072E08FEF0E94B002811105C087E088833D
:1006D000CE010E94A102CE010E94A10281E0CDCFF5
:1006E0000F931F93CF9380914601C1E0882399F027
:1006F00000919602109197024091000150910101E2
:100700006091020170910301C8010E942503C82F66
:10071000811106C0C0E08C2FCF911F910F910895D9
:100720004091420150914301609144017091450113
:10073000411551056105710569F0C8010E94250345
:10074000882341F310924201109243011092440118
:100750001092450110924601DECFCF92DF92EF92C8
:10076000FF921F93CF93DF936B017C01142F809135
:10077000000190910101A0910201B09103018C153B
:100780009D05AE05BF0509F44FC00E947003882384
:10079000C9F0C0919602D0919702A701960189E015
:1007A000220F331F441F551F8A95D1F761E1CE01F7
:1007B0000E94CE02882371F084E08883CE010E94DB
:1007C000A10280E0DF91CF911F91FF90EF90DF9029
:1007D000CF9008956CE271E08EEF0E94B00281111B
:1007E00005C085E08883CE010E94A1028FEF8EBDF7
:1007F000E0EAF2E00DB407FEFDCF9EB591938EBD09
:1008000094E0E03AF907B1F70DB407FEFDCF0E947E
:10081000A902CE010E94A102C0920001D092010162
:10082000E0920201F092030181E0112359F28093DA
:100830004601C8CF4F925F926F927F929F92AF9284
:10084000BF92CF92DF92EF92FF920F931F93CF93BD
:10085000DF9325E832E030939702209396028823B5
:1008600009F4DEC040E060E070E0CB010E94AD031F
:10087000811112C0D0E08D2FDF91CF911F910F9188
:10088000FF90EF90DF90CF90BF90AF909F907F90C0
:100890006F905F904F900895C0906604D090670469
:1008A000E0906804F090690440E0C701B6010E943E
:1008B000AD03D82F8823F1F280919E048535D1F6BF
:1008C00080919F048A3AB1F69090B002909295027E
:1008D000C091AD02C0939C020091B6021091B70284
:1008E00010939402009393022091B1023091B202CE
:1008F00030939E0220939D02A090AE02B090AF0272
:10090000D701C6018A0D9B1DA11DB11D80938F02C9
:1009100090939002A0939102B0939202909EA001B6
:10092000919E500D1124840F951FA11DB11D809320
:100930008B0290938C02A0938D02B0938E0245E0BF
:10094000220F331F4A95E1F721503E4F232F3327C3
:100950002695820F931FA11DB11D8093980290933D
:100960009902A0939A02B0939B024090B3025090D8
:10097000B402712C612C4114510441F44090C00226
:100980005090C1026090C2027090C302C81AD90A86
:10099000EA0AFB0AC701B601640D751D861D971D85
:1009A0002C2F30E050E040E00E94452930938A022D
:1009B000209389026091AB027091AC026115724084
:1009C00009F058CF0115110509F454CF253F6FE008
:1009D000360708F44FCF81E04816510480E86806D6
:1009E000710408F047CFAB2809F444CF992009F4EB
:1009F00041CFC32EDD240C151D0508F43BCFCC23BD
:100A000009F438CF8C2F90E09C01215031098223CA
:100A10009323892B09F02ECF81E080939F022BCF67
:100A2000C12CD12C760140CFCF92DF92EF92FF9272
:100A30000F931F93CF93DF938230910550F480E0A2
:100A4000DF91CF911F910F91FF90EF90DF90CF90AA
:100A500008952091890230918A022F5F3F4F281715
:100A6000390768F3EB018C01212F3327C0908F02E7
:100A7000D0909002E0909102F0909202C20ED31EAC
:100A8000E11CF11C8091000190910101A0910201F3
:100A9000B0910301C816D906EA06FB0689F4F801ED
:100AA000FF27EE0FFF1FE056FD4FD183C08381E08B
:100AB0008093460180919502823050F481E0C0CF4E
:100AC00040E0C701B6010E94AD038111E8CFB7CF66
:100AD0008091930290919402C80ED91EE11CF11CE2
:100AE000C0924201D0924301E0924401F09245014C
:100AF000E5CFCF92DF92EF92FF920F931F93CF93A8
:100B0000DF932091890230918A022F5F3F4F28178F
:100B1000390750F480E0DF91CF911F910F91FF9042
:100B2000EF90DF90CF9008958B01EC012D2F3327AC
:100B300060918F0270919002809191029091920247
:100B4000620F731F811D911DC0900001D0900101A3
:100B5000E0900201F09003016C157D058E059F0564
:100B600061F4DD27CC0FDD1FC056DD4F88819981F0
:100B7000F8019183808381E0CECF40E00E94AD03F5
:100B80008111EFCFC7CF4F925F926F927F928F927A
:100B90009F92AF92BF92CF92DF92EF92FF920F930C
:100BA0001F93CF93DF93EC016A017B018D818370EA
:100BB00091F480E0DF91CF911F910F91FF90EF9022
:100BC000DF90CF90BF90AF909F908F907F906F906D
:100BD0005F904F9008958A859B85AC85BD858C1567
:100BE0009D05AE05BF0528F3C114D104E104F1044D
:100BF00041F41F861E86188A198A1A8A1B8A81E088
:100C0000D9CF80909C02912CB12CA12CCB01BA01A0
:100C1000615071098109910939E096958795779519
:100C200067953A95D1F7A50194010E94452989015C
:100C300088899989AA89BB89C816D906EA06FB065C
:100C400020F00097A105B105A9F4888599859F87B3
:100C50008E875E018EE0A80EB11C01151105F1F022
:100C6000B5018E859F850E9479050150110981117A
:100C7000F4CF9FCFBC01CD01615071098109910969
:100C800029E096958795779567952A95D1F7A501DF
:100C900094010E944529021B130BDBCFC88AD98A15
:100CA000EA8AFB8AACCFCF93DF9320919D023091EB
:100CB0009E028217930728F090E080E0DF91CF91A9
:100CC0000895462FEC019C0154E0369527955A95DE
:100CD000E1F760918B0270918C0280918D0290916E
:100CE0008E02620F731F811D911D0E94AD03882328
:100CF00019F3CE018F70992725E0880F991F2A9547
:100D0000E1F780569D4FDACFCF93DF93FC01258129
:100D100027FF18C0EC0161E0868197810E9453068D
:100D20000097A1F04A855B856C857D85FC01448F29
:100D3000558F668F778F28853985338F228F8D81E8
:100D40008F778D83DF91CF910C94700380E0DF91DA
:100D5000CF9108958DE395E00E948406109242059C
:100D60000895CF92DF92EF92FF920F931F93CF934C
:100D7000DF9300D0CDB7DEB77C01FC010685178577
:100D80000115110511F401E010E0D12CC12C809166
:100D9000890290918A02C816D906F8F48017910743
:100DA00010F401E010E00F5F1F4FBE016F5F7F4F37
:100DB000C8010E947905882381F089819A81892B55
:100DC00021F0FFEFCF1ADF0AE2CF6FEF7FEFC8010C
:100DD0000E941405D82E81110DC0D12C8D2D0F909D
:100DE0000F90DF91CF911F910F91FF90EF90DF90C7
:100DF000CF900895F70186859785009749F0B8014F
:100E00000E941405882349F3F70117870687E6CF68
:100E100085818068858311870087F6CF089590E0EB
:100E200080E008950F931F93CF93DF93D0919F029B
:100E3000D11107C0D0E08D2FDF91CF911F910F917D
:100E40000895209142052370A9F7C62F8C0160E018
:100E50000E945306FC01892B69F38081882351F39A
:100E6000853E41F38385982F987121F780FF03C059
:100E70008C2F8271F9F610924C0510924B0510924E
:100E80004D0510924E0510924F051092500510938B
:100E9000440500934305848D958DA68DB78D809371
:100EA000470590934805A0934905B0934A05828D64
:100EB000938D9093460580934505CF70C09342056E
:100EC000BACFAF92BF92CF92DF92FF920F931F9350
:100ED000CF93DF93CDB7DEB72B970FB6F894DEBF75
:100EE0000FBECDBF382F80919F02882309F468C0C0
:100EF000209142052370B9F4FE013196AE01445FA2
:100F00005F4F6F0180E28193E417F507E1F7A32FAC
:100F1000B92F90E027E08D91382F882321F18E3270
:100F200039F42A3011F480E04BC098E02AE0F3CF86
:100F3000E7E6F1E04491442321F031968413FACF9F
:100F4000F2CF291780F34FED480F4E3560F74FE988
:100F5000480F4A3110F430EE380FF601E90FF11D59
:100F600030839F5FD8CF89818032E9F2F62E10E07E
:100F700000E0AA24AA94BA2C80919D0290919E022E
:100F80000817190790F560E0C8010E945306BC01DC
:100F9000009749F2FC019081992311F1953E29F4C3
:100FA000B7FC20C00F5F1F4FE7CF4BE050E0C601FA
:100FB0000E947C29892BB1F76F2DC8010E9412076E
:100FC0002B960FB6F894DEBF0FBECDBFDF91CF9149
:100FD0001F910F91FF90DF90CF90BF90AF90089539
:100FE000B7FE05C058019111DDCFB7FC9CCF6F2D26
:100FF0006274623409F097CF61E0C5010E94530624
:10100000009709F490CF20E2FC0111922A95E9F7AC
:101010002BE0F601DC0101900D922A95E1F721E227
:1010200038E2FC01318B208B40E058E0578746873F
:10103000338B228B318F208F578B468B0E9470030E
:10104000882309F470CF62E4C501B8CF4F925F9254
:101050006F927F928F929F92AF92BF92CF92DF92C8
:10106000EF92FF920F931F93CF93DF935C018B015D
:101070008091420580FD13C08FEF9FEFDF91CF91EC
:101080001F910F91FF90EF90DF90CF90BF90AF90A6
:101090009F908F907F906F905F904F900895809178
:1010A0004D0590914E05A0914F05B091500540918E
:1010B0004705509148056091490570914A056C01BA
:1010C0007D01C00ED11EE11CF11C4C155D056E05A5
:1010D0007F0518F48A01081B190B7801812C32E076
:1010E000932EE114F10409F486C080914D0590918E
:1010F0004E05A0914F05B0915005C0909C02AC01E7
:10110000BD0129E076956795579547952A95D1F7C2
:10111000DD24DA94DC0CD422EC01D170DD2009F45A
:1011200048C020914B0530914C0522503109AC2D1F
:10113000B0E00E946D294090980250909902609012
:101140009A0270909B02640D751D861D971D6D0D92
:10115000711D811D911D40E00E94AD03882309F49B
:101160008BCFC4018C1B9D0B67018E159F0508F466
:101170006C01BE0160567D4FA601C5010E94892900
:1011800080914D0590914E05A0914F05B09150056D
:101190008C0D9D1DA11DB11D80934D0590934E0595
:1011A000A0934F05B0935005AC0CBD1CEC18FD0886
:1011B00098CF209709F0B5CF80914B0590914C05C1
:1011C000009791F4809145059091460590934C05C8
:1011D00080934B0580914B0590914C050297863F7B
:1011E0009F4F08F49ECF48CF6BE475E00E947905CD
:1011F0008111F0CF41CFC80141CF0F931F93CF93FF
:10120000DF931F92CDB7DEB78C0161E082E291E0FF
:101210000E946107A80170E060E08DE395E00E9404
:10122000C30561E070E0CE0101960E9426080981A5
:10123000019711F00FEF1FEF0E94AA06802F0F9069
:10124000DF91CF911F910F9108951F93CF93DF935B
:10125000EC010E94FD08182FCE0101960E94FD08A6
:10126000912FDF91CF911F910895EF92FF920F93ED
:101270001F93CF93DF937B01EA010E9425098C0124
:10128000C7010E94250924E0000F111F2A95E1F7EC
:101290008C0F9D1F800F911FDF91CF911F910F9198
:1012A000FF90EF900895CF93DF93EB018F579F4FFF
:1012B0000E9425098C0F9D1FDF91CF910C94FD0892
:1012C000CF93DF9380938002C82FD0E0BE0188E0E7
:1012D00090E00E94530980936502BE0189E090E08E
:1012E0000E94530980935B02BE018EE090E00E9451
:1012F000530980937402BE018AE090E00E94530972
:1013000090E09093570280935602DF91CF91089519
:101310000F931F93CF9382E090EF90936702809397
:10132000660209E010E001501109E0F0C80188965A
:101330000E94FD08C82FB80183E190E00E94530984
:101340002C2F30E002C0220F331F8A95E2F78091E4
:10135000660290916702280F391F3093670220932D
:101360006602E1CFCF911F910F9108952F923F9286
:101370004F925F926F927F928F929F92AF92BF92A5
:10138000CF92DF92EF92FF920F931F93CF93DF9351
:1013900000D0CDB7DEB78C015B014A01FC0185812D
:1013A00081FFDEC082FDC9C06401212C32E0332EF2
:1013B000F80180899189A289B38970909C02AC015F
:1013C000BD0129E076956795579547952A95D1F700
:1013D00066246A94670C64227C01F1E0FF226110AC
:1013E0001FC0F80186859785E114F10409F0E5C076
:1013F000009709F4B9C0BE016F5F7F4F0E94790565
:10140000882309F4ADC089819A81883FFFEF9F0747
:1014100008F4C9C0C8010E94B106882309F4A0C01D
:10142000F8012685378522503109A72DB0E00E94AA
:101430006D29209198023091990240919A02509121
:101440009B02620F731F841F951F9B01AC01260D29
:10145000311D411D511D29013A01E114F10409F02A
:10146000BFC0F8014089518962897389828593855B
:10147000A485B585481759076A077B0708F4B0C0EB
:101480000E947003882309F46BC0409200015092BF
:101490000101609202017092030181E08093460194
:1014A00031016E187F08C614D70408F43601A30171
:1014B000B501C70180569D4F0E948929F801808996
:1014C0009189A289B389860D971DA11DB11D808BBD
:1014D000918BA28BB38BC618D708A60CB71CC1146E
:1014E000D10409F065CF4285538564857585481719
:1014F00059076A077B0738F4258182879387A48779
:10150000B58720682583F801858183FD50C0C4011B
:101510000F900F90DF91CF911F910F91FF90EF905F
:10152000DF90CF90BF90AF909F908F907F906F9003
:101530005F904F903F902F9008954285538564852A
:10154000758580899189A289B389481759076A07E7
:101550007B0709F429CFC8010E94C305811124CF5C
:1015600081E0F801848343C0808591850097D9F498
:10157000C8010E94B106882399F3F80126853785B2
:1015800022503109A72DB0E00E946D2940909802A9
:101590005090990260909A0270909B02460E571EDE
:1015A000681E791E5ECFF8019787868739CFC801FC
:1015B0000E9484068111ABCFD3CF9C012250310908
:1015C000A72DB0E00E946D2940909802509099029A
:1015D00060909A0270909B02460E571E681E791EFC
:1015E00041E0C301B2010E94AD03811159CF8FEFD9
:1015F0009FEF8ECFCF93DF931F92CDB7DEB7698376
:1016000041E050E0BE016F5F7F4F0E94B60921E0CC
:1016100030E0019711F030E020E0C9010F90DF9138
:10162000CF9108951F93CF93DF93EC01162F62E0C3
:1016300082E291E00E946107AE0170E060E08DE31C
:1016400095E00E94C305612F70E041E050E08DE31A
:1016500095E00E94B6090E94AA06812FDF91CF91E2
:101660001F9108950C94120B0F931F93CF93DF9348
:101670008C01D62FC72F0E94320B6C2FC801019608
:101680000E94320B8D2F9C2FDF91CF911F910F91D4
:1016900008950F931F93CF93DF938C01C9E0D0E09F
:1016A000219788F0BE0183E190E00E945309B801C0
:1016B00002C0759567958A95E2F76170CE018896AC
:1016C0000E94320BEDCFDF91CF911F910F910895C2
:1016D00061E0892B09F460E080E390E00C94320B28
:1016E000609160027091610280915E0290915F0250
:1016F0006827792780915C0290915D02682779279D
:1017000070935F0260935E0284E0769567958A9598
:10171000E1F761708AE290E00E94320B20915C0256
:1017200030915D0280916002909161022817390723
:10173000E1F088E290E00E94FD0840917E0298E08E
:10174000499FA0011124495F5F4F20915E023091B3
:101750005F0202C0369527954A95E2F7A90148270E
:10176000CA01817099270C94680B60E080E390E0D7
:101770000E94320B80E0089561E0892B09F460E05B
:1017800088E290E00C94320BCF93DF93EC0181E080
:1017900080937E0284E090E00E942509BC016E5F88
:1017A0007F4F84E090E00E94340B4EEF5FEF64E0E7
:1017B00070E08AE090E00E9435090E94FD08809365
:1017C00063028093620290917E02D0936102C09383
:1017D0006002992399F08091620290916302909344
:1017E0005F0280935E0290935D0280935C02109290
:1017F0007E0280916202DF91CF91089590E0EFCF59
:10180000CF93DF93EC0181E080937E024FEF5FEF97
:1018100064E070E08AE090E00E9435090E94FD08D3
:10182000809363028093620290917E02992351F12A
:101830002091620230916302309361022093600232
:10184000D0935F02C0935E02D0936302C0936202A2
:10185000D0935D02C0935C02C09162028C1759F074
:101860004FEF5FEF64E070E08AE090E00E9435099E
:101870006C2F0E94120B10927E0280916202DF9107
:10188000CF910895282F30E03093610220936002B9
:101890009E01332730935F0220935E02C093620261
:1018A00030935D0220935C02D7CFCF93DF93C82F94
:1018B0008DEC0E9460090E948809809166029091D7
:1018C00067020E94000C89E090E00E9425090E94B6
:1018D000000C80918302909184020E94000C84E0AD
:1018E000C89FE0011124CE0102960E94FD0880935A
:1018F000630290917E02992309F448C080916202AC
:1019000090916302909361028093600280916302E0
:101910009091640290935F0280935E0290936302C1
:101920008093620290935D0280935C0260916202F8
:1019300082E190E00E94120BC350D74F20917E02AB
:10194000809183029091840290936102809360025F
:10195000222381F18881998190935F0280935E02B6
:10196000909384028093830290935D0280935C0243
:1019700060E08DE290E00E94320B60E08EE290E049
:101980000E94320B80E0DF91CF9108952091620296
:1019900030E03093610220936002282F30E03093D2
:1019A0005F0220935E028093620230935D02209377
:1019B0005C02BCCF888190E0CFCF0F931F93CF9371
:1019C000DF93EC010E94D4018C0142E050E06AE216
:1019D00071E0CE010E94E700800F911FDF91CF914F
:1019E0001F910F9108951F920F920FB60F9211241D
:1019F0002F933F934F935F936F937F938F939F9317
:101A0000AF93BF93EF93FF9380EA94E00E94650148
:101A1000FF91EF91BF91AF919F918F917F916F91C6
:101A20005F914F913F912F910F900FBE0F901F909C
:101A300018951F920F920FB60F9211242F938F9328
:101A40009F93EF93FF93E091B004F091B1048081F4
:101A5000E091B604F091B70482FD1BC090818091A3
:101A6000B9048F5F8F732091BA04821741F0E0911F
:101A7000B904F0E0E056FB4F958F8093B904FF91D5
:101A8000EF919F918F912F910F900FBE0F901F900C
:101A900018958081F4CF1F920F920FB60F921124E8
:101AA0002F933F938F939F93AF93BF9380914C015C
:101AB00090914D01A0914E01B0914F0130914B0199
:101AC00023E0230F2D3758F50196A11DB11D20935A
:101AD0004B0180934C0190934D01A0934E01B09324
:101AE0004F018091470190914801A0914901B09127
:101AF0004A010196A11DB11D8093470190934801B1
:101B0000A0934901B0934A01BF91AF919F918F91EA
:101B10003F912F910F900FBE0F901F90189526E8C0
:101B2000230F0296A11DB11DD2CFE0EAF4E013828B
:101B3000128288EE93E0A0E0B0E084839583A683D0
:101B4000B78388E091E09183808385EC90E095876E
:101B5000848784EC90E09787868780EC90E0918B77
:101B6000808B81EC90E0938B828B82EC90E0958B64
:101B7000848B86EC90E0978B868B118E128E138E61
:101B8000148EEDE3F5E0138212828AE191E09183F5
:101B9000808315820895789484B5826084BD84B56D
:101BA000816084BD85B5826085BD85B5816085BD58
:101BB00080916E00816080936E0010928100809110
:101BC0008100826080938100809181008160809398
:101BD0008100809180008160809380008091B100BD
:101BE00084608093B1008091B00081608093B000E8
:101BF00080917A00846080937A0080917A0082607C
:101C000080937A0080917A00816080937A0080913D
:101C10007A00806880937A001092C100E091B0044D
:101C2000F091B10482E08083E091AC04F091AD04C6
:101C30001082E091AE04F091AF048FEC808310929B
:101C4000B804E091B404F091B50486E08083E0919B
:101C5000B204F091B304808180618083E091B2048A
:101C6000F091B304808188608083E091B204F091A8
:101C7000B304808180688083E091B204F091B30462
:101C800080818F7D808362E371E080EA94E00E942E
:101C9000DD0C65E071E080EA94E00E94DD0C68ED07
:101CA00070E080EA94E00E94D40112E00AE0E3E5EB
:101CB000FE2E1093880200938702109285020E94E4
:101CC0009002EB0161E0809187020E945F0261E077
:101CD000809187020E94130260E08CE00E945F0204
:101CE00061E08AE00E945F0261E08AE00E941302E4
:101CF00061E08BE00E945F0261E08DE00E945F0284
:101D0000FCBC7AE0E72E8FEF0E949C02EA94E1107F
:101D1000FACF60E0809187020E94130220E030E059
:101D2000A90160E085E892E00E94CE02E82E21E061
:101D30008217C9F00E9490026C1B7D0B613D7740B9
:101D400068F3E092860281E08093850285E892E064
:101D50000E94A10241E050E06DE271E080EA94E06F
:101D60000E94E700A6CF20E030E0A90167E385E804
:101D700092E00E94CE0220E030E0A90169E285E80D
:101D800092E00E94CE02E82E882361F00E94900229
:101D90006C1B7D0B613D774030F3E092860210931F
:101DA0008502D4CF85E892E00E94A10260EC70E049
:101DB00080EA94E00E94D40181E00E941A0481111B
:101DC0000DC00E941A04811109C041E050E06DE28B
:101DD00071E080EA94E00E94E700EECF68EB70E0EB
:101DE00080EA94E00E94DD0C65EF70E080EA94E008
:101DF0000E94DD0C60E070EF89E090E00E94340BFF
:101E000060E08DE290E00E94320B60E884E090E0B8
:101E10000E94320B63E08FE291E00E9461076091C3
:101E200047057091480590E080E00E94340BD0E0B7
:101E3000C0E0C1305FEFD50750F561E088E391E085
:101E40000E94610760E870E080E591E00E9426084A
:101E5000C80FD91F0E94AA0662E482E291E00E94A4
:101E60006107AE010D2E000C660B770B615F7F4F93
:101E70008DE395E00E94C30540E850E060E571E025
:101E80008DE395E00E94B6090E94AA06D2CF80E0B9
:101E900091E0909384028093830234E0432E512C8E
:101EA00040E5E42EF12C66246A94712C6AE1862EBA
:101EB000912CD12CC12CB12CA12C89E090E00E9456
:101EC000250924E0880F991F2A95E1F720918302C4
:101ED00030918402820F931F0E94FD08282F30E06A
:101EE0003093820220938102882311F40C940629F6
:101EF0000E946009A09180028A2F877080937F02E0
:101F0000A170A0937E028695817080937D02E091FE
:101F10008102F091820291817281292F372F3093B3
:101F20007C0220937B02B38170937902B0937A0292
:101F30004381548150937802409377024091760216
:101F4000442319F041504093760240917502442396
:101F500019F041504093750280917402882309F46E
:101F60008FC0A90116E0569547951A95E1F7437081
:101F70004093730297709093720203E03695279511
:101F80000A95E1F72770209371024111B4C0963091
:101F900009F0B6C02481358130937802209377020E
:101FA00024E030E04111B8C03093700220936F02FA
:101FB000692F70E0433009F4B5C0C90101960E9451
:101FC000530990E00E942509EC016091720270E0D3
:101FD00080916F029091700202960E9453092091A5
:101FE000790230917A02829F8001839F100D112423
:101FF0000C0F1D1F6091720270E080916F02909132
:1020000070020E945309C82FD0E08091760281119E
:1020100086C06091720270E080916F0290917002B0
:1020200003960E945309A801BE0190E00E94350961
:1020300090936D0280936C0290936B0280936A027E
:1020400030917102432F50E0440F551F20917E02C2
:10205000222309F476C09A01309369022093680222
:1020600040917D02442361F0309367022093660221
:10207000909369028093680230936B0220936A0206
:10208000E0916502E13308F03FC2F0E0E65BFF4E0D
:102090000C946729AA10FC106D1160116611F611DD
:1020A000FB13A016BC16FA16FF18881A421B0E2046
:1020B0006C20A320D720A52180227323A923CC2321
:1020C0006B248E25E720A025A425A825BA255A260D
:1020D0009826B926DD26F8268B2300270F271427FC
:1020E0001C28282835284928782892289928B0289B
:1020F000BC28C428F628423009F44CCF413029F0DE
:1021000070937702B09378024BCF272F770F330B62
:1021100030937A022093790230E020E045CF80911D
:102120006E0281CF660F771FAA2311F0CB0180CFFB
:10213000892F86958695860F972F911D87709927F1
:1021400077CF232F26952695240F352F311D277005
:10215000332782CF60918002669567706093640236
:1021600000917B02002E000C110BC0917E02D0E08A
:1021700070E08FE090E00E94530990E00E94FD081B
:102180008823A1F091E0C927C09F9001C19F300D25
:10219000D09F300D11248091830290918402820F90
:1021A000931F9093840280938302AEC16091640276
:1021B00070E080E190E00E94530990E00E94FD08E9
:1021C0008111E0CF6091640270E081E190E00E94B3
:1021D000530990E00E94FD08282E6091640270E08F
:1021E00082E190E00E94530990E00E94250991E06D
:1021F0002812C9CF90E0C7CF9091800281E0492F8B
:10220000487093FF80E080937E0290917F02292F97
:1022100030E0220F331F442389F1C9010E94FD08D9
:10222000809363028093620240917E02442379F19D
:1022300080916202909163029093610280936002A8
:1022400080917B0290917C0290935F0280935E026A
:10225000909363028093620290935D0280935C028C
:102260006091620290917F02292F30E0220F331F8C
:102270004423E9F0C9010E94120B46C1892F8695BB
:102280008695820F932F911D87709927C7CF90E075
:10229000909361028093600220917B02822F90E0F4
:1022A00090935F0280935E0220936202D5CF892FC4
:1022B00086958695820F932F911D87709927DBCF86
:1022C00080917F0290E00E9425091CC180917F02CD
:1022D00090E00E9425090C94841A81E080937E028C
:1022E00010927D0280917F0280937102209173028F
:1022F00084E090E0222311F090E080E0909370025F
:1023000080936F026091720270E0233008F0DEC1AA
:1023100001960E94530990E00E942509EC0160910A
:10232000720270E080916F029091700202960E949A
:1023300053092091790230917A02829F8001839F14
:10234000100D11240C0F1D1F6091720270E080911E
:102350006F02909170020E945309C82FD0E08091C3
:1023600076028111B0C16091720270E080916F02BB
:102370009091700203960E945309A801BE0190E05B
:102380000E943509BC0170936D0260936C027093DA
:102390006B0260936A0290917102492F50E0440FE2
:1023A000551F80917E029A01811108C0292F269520
:1023B0002695240F352F311D27703327309369025E
:1023C0002093680280917D02882361F03093670238
:1023D00020936602709369026093680230936B02E7
:1023E00020936A0280915B02809371028091710256
:1023F000823008F086C188E190E00E94FD08809359
:10240000630290917E0220917102992309F461C1C7
:1024100080916202909163029093610280936002C6
:10242000409163025091640250935F0240935E02B8
:10243000840F951F019630E0220F331F821B930BF0
:10244000909363028093620290935D0280935C029A
:102450006091620280916802909169020E94120B61
:10246000C1E0D0E0D0935F02C0935E020E94700B87
:1024700080917E02E8E08E9FC0011124079602C081
:10248000CC0FDD1F8A95E2F7209160023091610246
:102490002F5F3F4F80917102281B310981E090E04E
:1024A000C217D30711F090E080E00E94680B809182
:1024B0007E02F8E08F9FC0011124079641E050E0B2
:1024C00002C0440F551F8A95E2F7209160023091B7
:1024D00061022F5F3F4F80917102281B310981E01B
:1024E00090E04217530711F090E080E00E94680BE3
:1024F00080916502853019F480E10E946009809125
:10250000620290E00E94000C8091730241E050E072
:10251000833011F450E040E0849F9001859F300D9E
:102520001124811105C081E090917202963009F06A
:1025300080E090E0880F991F820F931F2091740212
:10254000289FE001299FD00D11246091800270E046
:102550008CE090E00E945309C80FD11D6091800269
:1025600070E08DE090E00E94530920917E0230E0FF
:102570002F5F3F4FE82FE29FC001E39F900D112492
:102580008C0F9D1FC0918302D0918402C80FD91F68
:10259000D0938402C09383028091560280FF40C092
:1025A00083E0220F331F8A95E1F7215031096091B2
:1025B0005C0270915D0202C0759567952A95E2F7FD
:1025C00061708CE290E00E94320B61E080915C02CD
:1025D00090915D02892B09F060E08BE290E00E940F
:1025E000320B60915C0270915D0277278BE090E086
:1025F0000E945309682F89E290E00E94320B80917B
:10260000560281FD0E94700B8091560282FF08C025
:1026100090E080E00E94BC0B90E080E00E94680B9C
:1026200080915202909153020196909353028093AD
:10263000520260E27EE40E941D29892B19F481E098
:102640008093510280915002882319F081E00E940A
:10265000550C8DE290E00E94FD088093500280911D
:102660005102882309F429CC80917602811125CC6E
:1026700080917502811121CC8EE290E00E94FD08CC
:10268000882309F41ACC8DE290E00E94FD088111A4
:1026900014CC8AE00E94550C1092510280EA94E01A
:1026A0000E944501181619062CF480EA94E00E9455
:1026B0002301382E632D86EA94E00E94120B87E0F6
:1026C0000E94550CFACB80916E0257CE660F771F91
:1026D0005ACE40916202642F70E070936102609361
:1026E000600290E090935F0280935E0230E0220FE0
:1026F000331F821B930B0196840F8093620290E03C
:10270000A3CE863009F46EC0833031F489E090E0C6
:102710000E9425090E94000C8091710281FF23C054
:102720008091730221E030E0833011F430E020E04A
:10273000829FA001839F500D1124811105C021E0CB
:1027400080917202863009F020E08091830290919E
:1027500084020296840F951F30E0220F331F820FF0
:10276000931F0E94000C809168029091690202966A
:102770002091710220FD0E94FD08809168029091D5
:10278000690202960E94FD08682F70E089E090E0DF
:102790000E94340B80916802909169020E94FD08AA
:1027A0008093620290917E02209183023091840294
:1027B0003093610220936002992391F0809162022C
:1027C0009091630290935F0280935E0290938402E3
:1027D0008093830290935D0280935C028AE98DCEA0
:1027E00090E0F0CF80916C0290916D020E94FD0804
:1027F0008093620284CE80916802909169029093E6
:102800006B0280936A02E0917102E83008F07CCE9E
:10281000F0E0E35FFB4E0C946729151484126014FA
:102820009514EA145215B515341680E20E94600919
:1028300020918302309184022F5F3F4F80917E026E
:10284000820F932F911D9093840280938302809135
:102850006A0290916B020E94FD088093620290913F
:102860007E029923E1F0209162023091630230935D
:102870006102209360024091770250917802509358
:102880005F0240935E022423352330935D02209340
:102890005C02682F80916A0290916B02ECCC282F29
:1028A00030E0309361022093600220917702422F42
:1028B00050E050935F0240935E02282330E0E5CF62
:1028C0000E94FD088093630290917E029923D9F0C3
:1028D0008091620290916302909361028093600202
:1028E000809163029091640290935F0280935E02F4
:1028F00080959095909363028093620290935D021D
:1029000080935C023AC52091620230E0309361020C
:1029100020936002282F30E030935F0220935E0204
:1029200080958093620290E0E9CF0E94FD08809339
:10293000630290917E029923D9F180916202909175
:102940006302909361028093600280916302909190
:10295000640290935F0280935E0291958195910944
:10296000909363028093620290935D0280935C0275
:102970006091620280916A0290916B020E94120B38
:10298000109261021092600288E20E94600981E068
:1029900090E040915C0250915D0220916002309184
:1029A00061022417350708F074C20E94BC0BACCD3D
:1029B0002091620230E03093610220936002282F60
:1029C00030E030935F0220935E0281958093620233
:1029D00090E0CACF80917E02882391F180E10E942D
:1029E0006009C0916C02D0916D02C350D74F90E046
:1029F00080E00E942509C89FB001C99F700DD89F33
:102A0000700D112470935D0260935C02770F660B6A
:102A1000762F80917E0290E001960E94340B6091A7
:102A20005C0270915D0290E080E00E94340B60E0F7
:102A300088E290E00E94320BC5010E94680B64CDD1
:102A400080E10E946009C0916C02D0916D02C35078
:102A5000D74FDD2790E080E00E94FD08282F2C9FB3
:102A6000C0012D9F900D112490935D0280935C0214
:102A700080917E0290E060E001960E94320B6091AE
:102A80005C0270915D0290E080E00E94340B8091C6
:102A90005C0290915D0288270E94BC0B082E000CFE
:102AA000990BCBCF80917E02882381F180E10E9437
:102AB0006009C0916C02D0916D02C350D74F90E075
:102AC00080E00E942509C89FB001C99F700DD89F62
:102AD000700D112470935D0260935C02770F660B9A
:102AE000762F80917E0290E001960E94340B6091D7
:102AF0005C0270915D0290E080E00E94340B60E027
:102B000088E290E00E94320BC60197CF80E10E94DC
:102B10006009C0916C02D0916D02C350D74F90E014
:102B200080E00E94FD088C02B001112470935D02C8
:102B300060935C02770F660B762F80917E0290E0A7
:102B400001960E94320B60915C0270915D0290E0F0
:102B500080E00E94340B80915C0290915D02082E0F
:102B6000881B910907FC939597CF80916C029091F7
:102B70006D0220917E022223E9F10E94FD0890E07F
:102B800090935A0280935902892B09F4D5C0809101
:102B90007E0290E001960E94250990E080E00E946C
:102BA0002509EC01909367028093660260915902B7
:102BB00070915A020E941D297093700260936F02F7
:102BC00090E080E00E94340B2091590230915A022B
:102BD000AC01429FC001439F900D529F900D112464
:102BE000BE01681B790B80917E0290E001960E94E5
:102BF000340B8ACC0E94FD0890E090935A02809397
:102C00005902892B09F498C080917E0290E00196C8
:102C10000E94FD0890E080E00E942509C82F809363
:102C20006602909367026091590270915A020E9465
:102C30001D297093700260936F02CB01992768176A
:102C4000790709F079C090E080E00E94120B909122
:102C500059026C2F899F6019112480917E0290E0A7
:102C600001960E94320B50CC80916C0290916D02C3
:102C700020917E022223A1F10E94FD0890E0909312
:102C80005A0280935902892B09F456C080917E0222
:102C900090E001960E94250990E080E00E942509BD
:102CA000EC019093670280936602609159027091E3
:102CB0005A020E9431297093700260936F0290E073
:102CC00080E00E94340B2091590230915A02FC019D
:102CD000E29FC001E39F900DF29F900D112480CFE1
:102CE0000E94FD08082E000C990B90935A028093C5
:102CF0005902892B09F180917E0290E001960E9491
:102D0000FD0890E080E00E942509C82F80936602AC
:102D1000909367026091590270915A020E94312982
:102D20007093700260936F02262F062E000C330BF7
:102D30006217730709F487CF80E00E94550CE4CB3B
:102D400010926D0210926C0280917B0290917C0235
:102D5000909378028093770283E08093730280914E
:102D60005B028093710280918302909184020197AB
:102D7000909384028093830280916C0290916D0203
:102D800090936B0280936A0281E090917E02911190
:102D900080E090917D02892B80937D026091770283
:102DA00070917802882319F0062E000C770B8DE0C5
:102DB00090E00E94340B90926902809268028091A8
:102DC0007D0222E030E0882311F021E030E08091A4
:102DD000830290918402820F931F909384028093C8
:102DE00083028091710280935B02880F880F880FA5
:102DF0000E946009E0915B02E93008F085CBF0E0C9
:102E0000E85FF84E80916802909169020C946729FE
:102E100011175F178A17F417671892185221D118E3
:102E20008B190E94FD088093630290917E02992382
:102E300099F1809162029091630290936102809374
:102E40006002209163023091640230935F0220930C
:102E50005E02820F931F90936302809362029093AD
:102E60005D0280935C026091620280916A0290919F
:102E70006B020E94120B81E090E040915C02509145
:102E80005D0220916002309161024217530708F4FD
:102E90008CCD90E080E089CD90916202292F30E0C6
:102EA0003093610220936002282F30E030935F025C
:102EB00020935E02890F8093620290E0D0CF0E943F
:102EC000FD088093630290917E02992399F080918E
:102ED000620290916302909361028093600220915C
:102EE00063023091640230935F0220935E02822B72
:102EF000932B00CD90916202292F30E03093610234
:102F000020936002282F30E030935F0220935E020E
:102F1000892B07CD0E94FD088093630280917E0279
:102F2000882309F446C080916202909163029093D5
:102F300061028093600288E290E00E94FD08209187
:102F400063023091640230935F0220935E024091ED
:102F5000620250916302240F351F820F932F911D3F
:102F6000909363028093620290935D0280935C026F
:102F70006091620280916A0290916B020E94120B32
:102F800088E290E00E94FD08209160023091610289
:102F900040915C0250915D02882321F04217530753
:102FA00009F493C081E0421753070CF468C080E035
:102FB00066C08091620290E090936102809360020B
:102FC00088E290E00E94FD0890916302292F30E092
:102FD00030935F0220935E0220916202920F890F6C
:102FE0008093620290E0C0CF0E94FD08809363024C
:102FF00080917E02882309F448C0809162029091FA
:103000006302909361028093600288E290E00E94E4
:10301000FD08409163025091640250935F02409317
:103020005E022091620230916302241B350B281B43
:103030003109309363022093620230935D02209342
:103040005C026091620280916A0290916B020E9420
:10305000120B88E290E00E94FD08209160023091FE
:10306000610240915C0250915D02882319F0421781
:10307000530759F181E0241735070CF098CF90E001
:103080000E94BC0B0E94700B3FCA8091620290E0CC
:10309000909361028093600288E290E00E94FD08B4
:1030A00020916302422F50E050935F0240935E02F2
:1030B00090916202921B981B892F9093620290E07C
:1030C00090935D0280935C02BCCF81E0D8CF0E94D8
:1030D000FD088093630290917E02992399F080917C
:1030E000620290916302909361028093600220914A
:1030F00063023091640230935F0220935E02822368
:103100009323F8CB90916202292F30E03093610233
:1031100020936002282F30E030935F0220935E02FC
:103120008923FFCB0E94FD08982F80936302809132
:103130007E02882319F1809162029091630290933C
:1031400061028093600220916302309164023093A7
:103150005F0220935E02821B930B90936302809325
:10316000620290935D0280935C02609162028091A2
:103170006A0290916B020E94120B09CC809162024C
:10318000282F30E03093610220936002292F30E035
:1031900030935F0220935E02891B8093620290E06D
:1031A000E0CF0E94FD088093630290917E029923F4
:1031B00099F08091620290916302909361028093F2
:1031C0006002209163023091640230935F02209389
:1031D0005E02821B930BC5CF2091620230E03093D8
:1031E00061022093600290E090935F0280935E0200
:1031F000281B390B30935D0220935C02B6CF80917F
:103200007E028111BDC081E080937E0280917102B7
:10321000885F809371022091730284E090E0222302
:1032200011F090E080E09093700280936F026091C3
:10323000720270E0233008F08AC001960E945309A0
:1032400090E00E942509EC016091720270E080918B
:103250006F029091700202960E94530920917902A8
:1032600030917A02829F8001839F100D11240C0FF0
:103270001D1F6091720270E080916F029091700248
:103280000E945309C82FD0E08091760281115CC062
:103290006091720270E080916F02909170020396CB
:1032A0000E945309A801BE0190E00E943509BC01AB
:1032B00070936D0260936C0270936B0260936A026C
:1032C00090917102492F50E0440F551F80917E026A
:1032D0009A01811108C0292F26952695240F352F94
:1032E000311D277033273093690220936802809143
:1032F0007D02882361F03093670220936602709309
:1033000069026093680230936B0220936A02809195
:103310006802909169020E94FD0880936302909177
:103320007E029923B9F0809162029091630290939A
:103330006102809360028091630290916402909395
:103340005F0280935E02D6CA80916E02ABCF660F99
:10335000771FAECF2091620230E03093610220935C
:103360006002282F30E030935F0220935E0280934A
:10337000620230935D0220935C02609162028ACA0D
:1033800080917D028111B9C081E0809376028CE04A
:1033900080936E022091730284E090E0222311F06A
:1033A00090E080E09093700280936F0260917202CF
:1033B00070E0233008F08EC001960E94530990E01F
:1033C0000E942509EC016091720270E080916F0209
:1033D0009091700202960E945309209179023091D7
:1033E0007A02829F8001839F100D11240C0F1D1FF4
:1033F0006091720270E080916F02909170020E9461
:103400005309C82FD0E080917602811160C060918D
:10341000720270E080916F029091700203960E9498
:103420005309A801BE0190E00E943509BC017093C8
:103430006D0260936C0270936B0260936A029091CC
:103440007102492F50E0440F551F80917E029A016E
:10345000811108C0292F26952695240F352F311D5F
:1034600027703327309369022093680280917D0290
:10347000882361F03093670220936602709369029B
:103480006093680230936B0220936A028091680215
:10349000909169020E94FD088093620290917E02E1
:1034A0009923D9F080916202909163029093610216
:1034B0008093600280916C0290916D0290935F0204
:1034C00080935E0290936302809362025AC6809159
:1034D0006E02A7CF660F771FAACF90E0909361028C
:1034E0008093600220916C02822F90E090935F02A3
:1034F00080935E022093620244C680916C02909198
:103500006D020E94FD0890E00E94C40B0C9484128E
:10351000109271021092730286E080937202809181
:103520007B0290917C0290937A0280937902509270
:10353000700240926F0266E070E085E090E00E94C9
:10354000530990E00E942509EC016091720270E03D
:1035500080916F029091700202960E94530920910F
:10356000790230917A02829F8001839F100D11248D
:103570000C0F1D1F6091720270E080916F0290919C
:1035800070020E945309C82FD0E080917602811109
:103590004EC06091720270E080916F029091700253
:1035A00003960E945309A801BE0190E00E943509CC
:1035B00090936D0280936C0290936B0280936A02E9
:1035C00020917E02309171022223A1F1232F30E05D
:1035D000220F331F309369022093680240917D02CD
:1035E000442361F03093670220936602909369024E
:1035F0008093680230936B0220936A0280916A0282
:1036000090916B020E94FD088093630290917E026C
:103610009923E9F080916202909163029093610294
:1036200080936002809163029091640247CF809101
:103630006E02B9CF432F50E0440F551F232F26951C
:103640002695240F352F311D27703327C3CF2091A6
:10365000620230E03093610220936002282F30E054
:1036600030935F0220935E028093620230935D028A
:1036700020935C02609162028091680290916902DD
:103680000C943B1180916C0290916D020E94FD0898
:103690008093620220917E0290E0222321F08091AB
:1036A000620290916302F8E02F9F90011124295F3C
:1036B0003F4F02C0959587952A95E2F7817099272B
:1036C0009093700280936F0280915B02882339F19E
:1036D000809183029091840201969093840280935A
:1036E000830280917902082E000C990B9093670257
:1036F000809366020097E9F4E0917102E83010F0DF
:103700000C948412F0E0E957F44E0C9467299F1C46
:103710001E1DB91D7B1E3C1F691F84127B1F8091DB
:103720007D028111C2C081E090E090936702809396
:103730006602209171022430C0F560917E0270E033
:103740006F5F7F4FE3E0660F771FEA95E1F72695FD
:10375000620F711D0E941D2990936702809366027B
:1037600080916C0290916D020E94FD08809362022C
:1037700090917E02992309F49FC080916F029091ED
:103780007002909361028093600280916202909136
:10379000630290935F0280935E0290937002809325
:1037A0006F0290935D0280935C028091710280FFB2
:1037B00008C080916C0290916D020E94FD08809378
:1037C000620280917E02882309F480C080916202A7
:1037D000909163029093610280936002209166024F
:1037E0003091670220935E0230935F0202C096958B
:1037F00087952A95E2F790936302809362029093F3
:103800005D0280935C026091620280916C029091F3
:103810006D020E94120B80917102843018F080E1D9
:103820000E94600980917102853008F467C0209180
:1038300066023091670221503109809160029091B7
:10384000610202C0969587952A95E2F781709927C3
:103850000E94BC0B80917E02882309F458C080919D
:1038600062029091630290936102809360022091C2
:1038700066023091670220935E0230935F0202C0BD
:10388000880F991F2A95E2F7909363028093620252
:1038900090935D0280935C026091620280916C0261
:1038A00090916D020E94120B27CF82E090E00E945F
:1038B000FD088F7190E01ACF20916F023091700255
:1038C000309361022093600290E063CF80916202A6
:1038D00090E0909361028093600220916602422FF3
:1038E00050E050935F0240935E0202C09595879529
:1038F0002A95E2F780936202992781CF80916C022A
:1039000090916D020E94FD0880936202A3CF809186
:10391000620290E0909361028093600220916602BF
:10392000422F50E050935F0240935E0202C0880F26
:10393000991F2A95E2F7809362029927A9CF809177
:103940006C0290916D020E94FD088093620290913A
:103950007E024091660250916702992309F44FC09C
:1039600020916202309163023093610220936002E1
:10397000892F90E0019673E0880F991F7A95E1F7FF
:10398000841B950B40916F025091700202C05695B6
:1039900047958A95E2F750935F0240935E02240FA9
:1039A000351F309363022093620230935D022093AF
:1039B0005C026091620280916C0290916D020E94A3
:1039C000120B10917E02C0915C02D0915D02CE017B
:1039D000817099270E94BC0B48E0149F900111242C
:1039E000295F3F4F02C0D595C7952A95E2F7C17070
:1039F000DD27082E000C990B8C279D271EC8282F29
:103A000030E0309361022093600220916F0230E039
:103A100068E070E0641B750B02C0359527956A95C8
:103A2000E2F730935F0220935E02820F809362027E
:103A300090E090935D0280935C02BBCF81E090E0C8
:103A40000090660202C0880F991F0A94E2F701975E
:103A500020916F0230917002822393239093700221
:103A600080936F0280916C0290916D020E94FD081C
:103A70008093620290917E024091660250916702AB
:103A8000992309F457C02091620230916302309368
:103A9000610220936002892F90E0019663E0880F15
:103AA000991F6A95E1F7841B950B40916F02509125
:103AB000700202C0440F551F8A95E2F750935F02CF
:103AC00040935E02240F351F3093630220936202FD
:103AD00030935D0220935C026091620280916C02DF
:103AE00090916D020E94120BC0917E0280915C0247
:103AF00090915D028C01000F111F58E0C59FE001FD
:103B0000112427960C2E02C0959587950A94E2F70A
:103B1000817099270E94BC0B02C015950795CA9524
:103B2000E2F701701127082E000C990B80279127CE
:103B30000C941D15282F30E0309361022093600211
:103B400020916F0230E068E070E0641B750B02C0EA
:103B5000220F331F6A95E2F730935F0220935E02D3
:103B6000820F8093620290E090935D0280935C02EA
:103B7000B3CF80916C0290916D020E94FD088093FA
:103B8000620290917E02992309F479C080916202C9
:103B900090916302909361028093600288E290E0CA
:103BA0000E94FD08409166025091670220917E02BA
:103BB00030E02F5F3F4FD3E0220F331FDA95E1F75C
:103BC000241B350B2F5F3F4F60916F027091700285
:103BD000FB0102C0F695E7952A95E2F79F01F09365
:103BE0005F02E0935E026091620270916302260FB1
:103BF000371F90E04150510902C0880F991F4A9524
:103C0000E2F7280F391F309363022093620230934A
:103C10005D0220935C026091620280916C0290913F
:103C20006D020E94120B00917E02C0915C02D09145
:103C30005D0210E00F5F1F4FB3E0000F111FBA9538
:103C4000E1F780916602909167029801281B390B79
:103C500081E090E002C0880F991F2A95E2F7209139
:103C60006F0230917002822393230E94BC0B01509B
:103C7000110902C0D595C7950A95E2F7B8CE90E034
:103C8000909361028093600288E290E00E94FD08B8
:103C9000609166027091670240916F0250E020913E
:103CA0007E0230E02F5F3F4FC3E0220F331FCA95E3
:103CB000E1F7261B370B2F5F3F4F02C05595479505
:103CC0002A95E2F750935F0240935E0290E06150C4
:103CD000710902C0880F991F6A95E2F7480F591FB2
:103CE00080916202480F4093620250E050935D025F
:103CF00040935C0290CF80916C0290916D020E9483
:103D0000FD088093620290917E02992309F479C0A4
:103D100080916202909163029093610280936002AD
:103D200088E290E00E94FD0820917E0230E02F5F43
:103D30003F4FA3E0220F331FAA95E1F7409166029F
:103D400050916702241B350BB9016F5F7F4F409183
:103D50006F025091700202C0440F551F6A95E2F73E
:103D600050935F0240935E02609162027091630221
:103D7000460F571F90E002C0880F991F2A95E2F75F
:103D8000480F591F509363024093620250935D02A3
:103D900040935C026091620280916C0290916D028E
:103DA0000E94120B20916602309167022150310966
:103DB00081E090E002C0880F991F2A95E2F72091D8
:103DC0006F0230917002822393230E94BC0B2091DA
:103DD0007E0280915C0290915D02F8E02F9F90013D
:103DE0001124295F3F4FAC01440F551F84279527AD
:103DF00002C0959587952A95E2F7817099270C94D2
:103E00001D1590E0909361028093600288E290E03B
:103E10000E94FD0820917E0230E02F5F3F4FF3E0CB
:103E2000220F331FFA95E1F7409166025091670225
:103E3000241B350B40916F0250E0B9016F5F7F4F3B
:103E400002C0440F551F6A95E2F750935F024093FA
:103E50005E0290E002C0880F991F2A95E2F7840F56
:103E6000951F90916202890F8093620290E0909377
:103E70005D0280935C028ECF20917E0248E0249FF9
:103E800090011124295F3F4FC0915C02D0915D02E7
:103E9000022E02C0D595C7950A94E2F7C170DD27BE
:103EA0004091660250916702415051098091600231
:103EB0009091610202C0880F991F4A95E2F702C0F3
:103EC000969587952A95E2F7817099270E94BC0BF9
:103ED00090CD20917E0258E0259F90011124295F0A
:103EE0003F4F809160029091610202C09695879544
:103EF0002A95E2F782CF80917E0290E0019673E0EE
:103F0000880F991F7A95E1F7209166023091670238
:103F10002817390730F080916F02909170020E944B
:103F2000BC0B90E080E00E94680B80916C02909145
:103F30006D020E94FD088093620240917E0244233C
:103F400009F446C02091620230916302309361020D
:103F50002093600250E04F5F5F4F63E0440F551FB6
:103F60006A95E1F781E090E002C0880F991F4A95B9
:103F7000E2F701970090660202C0959587950A9432
:103F8000E2F78095909560916F0270917002869F24
:103F9000A001879F500D969F500D112450937002E1
:103FA00040936F0250935F0240935E02240F351FCF
:103FB000309363022093620230935D0220935C028F
:103FC0006091620280916C0290916D020C943B11A1
:103FD000282F30E03093610220936002930100901B
:103FE000660202C0359527950A94E2F72095309530
:103FF00090916F02929F902D112490936F02292F20
:1040000030E030935F0220935E02890F809362025A
:1040100090E090935D0280935C02D2CF81E090E0CB
:104020000E94250980936202E82FE150FF0BBF0137
:1040300081E090E00E94340B809162028150990BE4
:10404000909367028093660280917F02813029F10C
:1040500078F0833049F160917B0240916602509183
:10406000670264039001659F300D11240C94CB10FE
:104070008BE290E00E94FD0821E030E0882311F0FF
:1040800030E020E0809166029091670282239323C2
:104090009093670280936602DECF8BE290E00E94ED
:1040A000FD08282F30E0EECF81E090E00E94250946
:1040B000809362029927BC016F5F7F4F81E090E09F
:1040C0000E94340B80916202811103C082E090E073
:1040D000DFCF81E090E0DCCF20917D0280918302F0
:1040E000909184020396821B91099093840280939D
:1040F000830230917E0231110EC0222309F1109209
:10410000840210928302609177027091780289E0B4
:1041100090E00E94340B20917B0230917C028091D0
:104120007D02882311F40C94CB1080917E028823A9
:1041300011F40C94CB10022E000C330B0C94CB100A
:104140000E94000CE8CF80916A0290916B020E945D
:10415000FD088093630290917E029923B9F08091CB
:1041600062029091630290936102809360022091B9
:1041700063023091640230935F0220935E028223D7
:10418000932390935D0280935C0274CA90916202C3
:10419000292F30E03093610220936002282F30E015
:1041A00030935F0220935E02892390E0EACF81E0A2
:1041B00080937E0210926B0210926A0280917F02BD
:1041C00090E0880F991F9093690280936802809114
:1041D00068029091690220916A0230916B0228175F
:1041E000390711F40C9484120E94FD088093630235
:1041F00090917E02992309F471C08091620290919E
:104200006302909361028093600220916302309177
:10421000640230935F0220935E028227932790937B
:1042200063028093620290935D0280935C026091CE
:10423000620280916A0290916B020E94120B80913F
:104240006A0290916B020E94FD0880936302909134
:104250007E02992309F455C0809162029091630215
:104260009093610280936002209163023091640216
:1042700030935F0220935E0282279327909363021C
:104280008093620290935D0280935C02609162026F
:1042900080916802909169020E94120B80916802DD
:1042A000909169020E94FD088093630290917E02C2
:1042B0009923D1F1809162029091630290936102FF
:1042C00080936002209163023091640230935F0218
:1042D00020935E02822793270C947A1490916202B5
:1042E000292F30E03093610220936002282F30E0C4
:1042F00030935F0220935E0289278093620290E0F0
:1043000092CF90916202292F30E030936102209386
:104310006002282F30E030935F0220935E028927ED
:104320008093620290E0AECF90916202292F30E03C
:104330003093610220936002282F30E030935F02B7
:1043400020935E0289270C94911480917602882331
:1043500009F4AAC080916E0290E09093700280935D
:104360006F0280917502882309F4A1C081E090E07A
:104370000E942509909367028093660280916602ED
:1043800090916702892B09F4AFC080915B0280FD98
:1043900091C050E040E066E070E080916F02909143
:1043A00070020E9435090E94FD088093630290917B
:1043B0007E02992309F481C0809162029091630288
:1043C00090936102809360028091630290916402F5
:1043D00090935F0280935E029093630280936202E7
:1043E00090935D0280935C02C091620280915B02B7
:1043F000823008F076C050E040E067E070E088E08E
:1044000090E00E9435096C2F0E94120B80915B0294
:1044100080FD20C086E090E00E942509EC018FE23B
:1044200090E00E94FD0890E0880F991F019720916D
:104430007E0230E02F5F3F4F829FA001839F500D8F
:10444000929F500D1124BE01641B750B86E090E015
:104450000E94340B80915B0281FD20C087E090E0D8
:104460000E942509EC018FE290E00E94FD0890E097
:10447000880F991F019720917E0230E02F5F3F4FF8
:10448000829FA001839F500D929F500D1124BE0169
:10449000641B750B87E090E00E94340B80916602EC
:1044A00090916702019766CF8BE090E056CF81E054
:1044B00090E060CF90E080E076CF2091620230E023
:1044C0003093610220936002282F30E030935F0226
:1044D00020935E028093620230935D0220935C021F
:1044E00083CF90E080E08FCF80917502882311F414
:1044F0000C94841270E060E081E090E00C94F71579
:1045000080917602882391F080916E0290E09093E2
:10451000700280936F028091750281110AC081E060
:1045200090E090936702809366020FC08BE090E06A
:10453000EECF81E090E00E9425099093670280937E
:104540006602892B11F40C9484128091660290917A
:104550006702892B09F4BFC050E040E067E070E0DB
:1045600088E090E00E9435090E94FD088093630274
:1045700090917E02C0916202992309F497C08091C4
:104580006202909163029093610280936002209195
:1045900063023091640230935F0220935E02821BBB
:1045A000930B90935D0280935C0280915B0281117A
:1045B0008FC050E040E066E070E080916F02909123
:1045C00070020E9435096C2F0E94120B80915B02D1
:1045D000811120C086E090E00E942509EC018FE265
:1045E00090E00E94FD0890E0880F991F01972091AC
:1045F0007E0230E02F5F3F4F829FA001839F500DCE
:10460000929F500D1124BE01641B750B86E090E053
:104610000E94340B81E090E00E94250980936202A1
:10462000282F2150330BB90181E090E00E94340B18
:1046300087E090E00E942509EC018FE290E00E9463
:10464000FD0890E0880F991F019720917E0230E0CD
:104650002F5F3F4F829FA001839F500D929F500D6F
:104660001124BE01641B750B87E090E00E94340B9F
:1046700080917502882309F4DAC580916202813045
:1046800081F081E090E020915C0230915D02232B6B
:1046900011F090E080E0209158022817190609F4E3
:1046A00054CF10926702109266024FCF2C2F30E049
:1046B000309361022093600290E090935F028093B8
:1046C0005E02281B390B30935D0220935C026DCF94
:1046D00090E080E078CF83E090E090935702809361
:1046E00056020C94C71480917E0280937D028091C3
:1046F0008302909184020E94C40B80915B02882304
:1047000031F089E090E00E9425090E94C40B80915D
:104710005B0281FF0BC080916602909167020E944C
:10472000C40B90E00E94490B0C94841280917D028E
:1047300081110C94841284E090E00E94250960911C
:104740007B0270917C02680F791F84E090E00C94EA
:10475000F71580916802909169020E94FD0880938C
:10476000620290917E02992371F080916202909191
:10477000630290936102809360028091770290912E
:1047800078020C945E1A90E090936102809360022C
:10479000209177020C94741A1092760280919602FE
:1047A000815080939602809398028091300699E020
:1047B00089278093300680915B028823D9F182E0BB
:1047C00090E00E94250990936702809366028036EC
:1047D0009105B1F51092BA0290E080E00E94FD08C8
:1047E0008093620290917E0220916602309167026E
:1047F000992309F45EC080916202909163029093C4
:104800006102809360022A5A3D4FF90180819181B3
:1048100090935F0280935E029093630280936202A2
:1048200090935D0280935C026091620290E080E070
:104830000C94311680917B0290917C029927C3CF12
:10484000853D934049F680912A0690E0959587959D
:10485000079711F68EE994E00E94FD08182F8DE964
:1048600094E00E94FD08C82FD0E040E5149FC00DE1
:10487000D11D11248DEA94E00E94FD08C80FD11DBE
:1048800080912A06282F217080FF10C08FEF90E0C2
:10489000C823D92380E0211101C088E002C0D69549
:1048A000C7958A95E2F7C0932B0696CF80E09FEFDD
:1048B000EFCF90E090936102809360022A5A3D4FBF
:1048C000F9012081822F90E090935F0280935E0235
:1048D00020936202A5CF80915B02882309F400C176
:1048E00082E090E00E94250990936702809366021F
:1048F00090E080E00E94FD088093620290917E0229
:104900002091660230916702F901EA5AFD4F99231E
:1049100009F4ECC0808191819093610280936002E0
:10492000809162029091630290935F0280935E0295
:104930009183808390935D0280935C0221363105E0
:1049400069F41092550290E080E00E94FD08982FD3
:10495000937080915402892B809354028091660257
:10496000909167028D7F80349105D9F480919902EE
:104970008670B9F090E080E00E94FD082091660208
:10498000309167029091550241E09427909355022F
:1049900027593B4F682FA901491B5109CA010E94A1
:1049A000120B8091660290916702853D9340A1F4BD
:1049B00080912A0690E095958795069769F490E096
:1049C00080E00E94FD08682F80912A0680FDA0C02B
:1049D0008EEA94E00E94120B809166029091670229
:1049E000853D934009F058C080912A0690E0959546
:1049F0008795079709F050C08EE994E00E94FD0862
:104A0000C82F8DE994E00E94FD08082F10E0F0E522
:104A1000CF9F000D111D11248DEA94E00E94FD0826
:104A2000080F111D80912A0680FF75C080E09FEF5E
:104A30000823192390E080E00E94FD08C82FD0E0F1
:104A400080912A06212C80FD02C0A8E02A2E8DEA42
:104A500094E00E94FD0802C0CC0FDD1F2A94E2F70B
:104A6000C81BD109CE01800F911F909370028093D3
:104A70006F02B7010E941D29682F8DE994E00E9402
:104A8000120B80916F0290917002B7010E941D2954
:104A90008EE994E00E94120B809166029091670269
:104AA000853B934041F480910A06813021F490E0E7
:104AB00080E00E94FD088091660290916702853B2C
:104AC000934011F00C94841280910A06863011F004
:104AD0000C94841290E080E00E94FD080C948412F3
:104AE00080917B0290917C029927FECE408150E01C
:104AF0005093610240936002482F50E050935F0250
:104B000040935E02808350935D0240935C0216CF17
:104B10008DEA94E05FCF8FEF90E08ACF82E08093C0
:104B2000750280917E0280935802809176028823DC
:104B300011F40C9484128F5F809376020C9484128B
:104B400080915B020C94621180915B020C9468115D
:104B500082E08093760280915B0280936E02809166
:104B60007502882311F40C9484128F5F8093750270
:104B70000C94841210927E0280915B0290E0882354
:104B800009F492C080E00E94FD088093620290E0E8
:104B900080E00E94FD08282F30E0309370022093BF
:104BA0006F028F7061E08A3040F48AE290E00E94E8
:104BB000FD0861E0811101C060E08AE290E00E949E
:104BC000320B6091620290E080E00E94320B90E034
:104BD00080E00E94FD088093620280916F0291E064
:104BE0008A3940F488E290E00E94FD0891E081114A
:104BF00001C090E0892F90E00E94BC0B882351F007
:104C00008091620280568093620290E090935D02F0
:104C100080935C026091620290E080E00E94320B1F
:104C200090E080E00E94FD08282F30E03093700271
:104C300020936F028F7061E08A3040F48AE290E046
:104C40000E94FD0861E0811101C060E08AE290E00D
:104C50000E94320B6091620290E080E00E94320B71
:104C600090E080E00E94FD088093620290E080E086
:104C70000E94FD08807F91E0813940F488E290E055
:104C80000E94FD0891E0811101C090E0892F90E021
:104C90000E94BC0B882309F4C7CD80916202805A20
:104CA0008093620290E0BCCD80E00E94FD0880937A
:104CB0006202B6CF90E080E00E94250980936202F4
:104CC00090E080E00E94FD088F7091E08A3040F40F
:104CD0008AE290E00E94FD0891E0811101C090E01D
:104CE000892F90E00E94BC0B61E0811101C060E05F
:104CF0008AE290E00E94320B6091620270E090E0E4
:104D000080E00E94340B90E080E00E94FD08682F54
:104D10006F706093630290E080E00E94320B80919C
:104D2000620290E090935D0280935C020C94841286
:104D300090E080E00E94FD088093620220917E0254
:104D400090E0222321F0809162029091630248E07A
:104D5000249F90011124295F3F4F02C095958795AC
:104D60002A95E2F78170682F619581E090E00C94BC
:104D7000311690E080E00E94250980936202209124
:104D80007E029927222321F0809162029091630292
:104D900058E0259F90011124295F3F4F02C095954F
:104DA00087952A95E2F78170992766277727681BF0
:104DB000790B82E090E00C94F71589E090E00E9476
:104DC00025090E94000C809183029091840205962F
:104DD0000E94000C609177027091780289E090E067
:104DE0000E94340B80917B0290917C020C94D11034
:104DF0000E94880980916602909167020C94821249
:104E00000E948809C0916602D0916702CC2781E098
:104E100090E00E94FD088C0F9D2F911D83CC0E9475
:104E2000880960916602A1CF81E080937D02809322
:104E30007E022091730284E090E0222311F090E042
:104E400080E09093700280936F026091720270E034
:104E5000233008F0C6C001960E94530990E00E94DA
:104E60002509EC016091720270E080916F029091CF
:104E7000700202960E9453092091790230917A02C1
:104E8000829F8001839F100D11240C0F1D1F6091C4
:104E9000720270E080916F02909170020E9453093B
:104EA000C82FD0E080917602811198C06091720283
:104EB00070E080916F029091700203960E945309F6
:104EC000A801BE0190E00E943509BC0170936D02FB
:104ED00060936C0270936B0260936A02909171020E
:104EE000492F50E0440F551F80917E029A01811195
:104EF00008C0292F26952695240F352F311D2770A0
:104F00003327309369022093680280917D028823C1
:104F100061F0309367022093660270936902609398
:104F2000680230936B0220936A028091680290912C
:104F300069020E94FD088093630290917E0299238A
:104F400009F452C0809162029091630290936102D1
:104F500080936002809163029091640290935F025B
:104F600080935E02909363028093620290935D024D
:104F700080935C026091620280916A0290916B0260
:104F80000E94120B80916C0290916D0202960E9419
:104F9000FD088093630290917E029923C9F180916C
:104FA000620290916302909361028093600280910B
:104FB00063029091640290935F0280935E029093EB
:104FC00063028093620290935D0280935C02809101
:104FD0005B026091620290E00C943B1180916E0242
:104FE0006FCF660F771F72CF2091620230E030934F
:104FF000610220936002282F30E030935F022093FB
:105000005E028093620230935D0220935C02B2CF15
:105010002091620230E03093610220936002282FD9
:1050200030E030935F0220935E02809362023093FF
:105030005D0220935C02CBCF809183029091840229
:105040000196909384028093830283E00C949D16D2
:1050500080918302909184020296909384028093BF
:10506000830280917B020C949D1680918302909123
:1050700084020196909384028093830280E390E0FF
:105080000E94FD08882311F40C94841284E00C948F
:105090009D1680917B0290917C02992790937C02CF
:1050A00080937B02892B11F40C949C1690E080E095
:1050B0000E94FD0890E060917B0270917C020E944A
:1050C0001D2981E090E00E94320B90E080E00E9478
:1050D000FD0890E060917B0270917C020E941D2986
:1050E0008093620280935C0290935D02682F9ECB56
:1050F00010927E0290E080E00E94FD08C82F81E0BF
:1051000090E00E94FD0890917B02899FC00D1124C0
:105110006C2F70E070935D0260935C0290E080E021
:105120000C94F71588E290E00E94FD08682F6195C5
:105130007DCB90E080E00E94FD08482F50E08091F8
:105140007602882351F080916E0290E063E070E077
:105150000E9435090E94FD08C9CF8BE090E0F6CF90
:1051600088E290E00E94FD0861E068276093620297
:1051700088E290E00C94311680915B02682F617098
:10518000869590E00C94311690E080E00E94FD0836
:105190008093620290917E029923B9F0209162027D
:1051A00030916302309361022093600240917B0250
:1051B00050917C0250935F0240935E02242335237A
:1051C00030935D0220935C0291CF282F30E0309322
:1051D00061022093600220917B02422F50E05093A5
:1051E0005F0240935E02282330E0EACF80917B0289
:1051F00081110C94841290E080E00E94FD08682FD9
:1052000080EA94E00E9487010C94841265EE70E0BD
:1052100080EA94E00E94DD0CC0E0D0E02097F1F33A
:105220000E9451018823D1F30E940000F7CF8091A2
:10523000660290916702019774C9AA1BBB1B51E1DA
:1052400007C0AA1FBB1FA617B70710F0A61BB70BF6
:10525000881F991F5A95A9F780959095BC01CD019B
:10526000089597FB072E16F4009407D077FD09D018
:105270000E941D2907FC05D03EF4909581959F4F13
:105280000895709561957F4F0895A1E21A2EAA1B8B
:10529000BB1BFD010DC0AA1FBB1FEE1FFF1FA217E6
:1052A000B307E407F50720F0A21BB30BE40BF50BE3
:1052B000661F771F881F991F1A9469F7609570956C
:1052C000809590959B01AC01BD01CF010895EE0F33
:1052D000FF1F0590F491E02D0994A29FB001B39FA8
:1052E000C001A39F700D811D1124911DB29F700DEF
:1052F000811D1124911D0895FB01DC0104C08D91D5
:105300000190801921F441505040C8F7881B990B37
:105310000895FB01DC0102C001900D924150504004
:08532000D8F70895F894FFCFBF
:10532800FFFFFFFF000000008701E7001401F30101
:1053380045012301370100000000FA0AE7000F07C2
:105348000E0772616D2E62696E000D0A002E0064F0
:1053580069736B2E696D670062696F732E62696E7F
:02536800000043
:00000001FF
