:020000040000FA
:100000000C94BD000C94E5000C94E5000C94E50004
:100010000C94E5000C94E5000C94E5000C94E500CC
:100020000C94E5000C94E5000C94E5000C94E500BC
:100030000C94E5000C94E5000C94E5000C94E500AC
:100040000C941A0D0C94E5000C94E80C0C94C20C62
:100050000C94E5000C94E5000C94E5000C94E5008C
:100060000C94E5000C94E50000000000240027003B
:100070002A0000000000250028002B0004040404CE
:100080000404040402020202020203030303030342
:10009000010204081020408001020408102001021F
:1000A00004081020000000080002010000030407FB
:1000B00000000000000000002E20446F6E6521004B
:1000C0002E20446F6E652120496E69742066696C2C
:1000D0006573797374656D00496E697420534420AB
:1000E00063617264004D616368696E652068616C6C
:1000F00074656421005374617274696E6720763888
:10010000362E2E2E00436F7079726967687420282E
:100110004329203230323120407261737069647536
:10012000696E6F2C20756E6465722047504C2D7679
:1001300033006176722D763836202D20496E746535
:100140006C203830383620656D756C61746F7220A4
:1001500072756E6E696E67206F6E2041726475698C
:100160006E6F20554E4F007C3C3E5E2B3D3F2F5B1B
:100170005D3B2C2A225C0000640D11241FBECFEFD2
:10018000D8E0DEBFCDBF11E0A0E0B1E0E8E9FEE3DA
:1001900002C005900D92A234B107D9F725E0A2E480
:1001A000B1E001C01D92A934B207E1F710E0CDEB38
:1001B000D0E004C02197FE010E941F1FCC3BD10755
:1001C000C9F70E949A0D0C944A1F0C940000AF923C
:1001D000BF92CF92DF92EF92FF920F931F93CF9334
:1001E000DF936C017B018B01040F151FEB015E0196
:1001F000AE18BF08C017D10759F06991D601ED912B
:10020000FC910190F081E02DC6010995892B79F7C9
:10021000C501DF91CF911F910F91FF90EF90DF907B
:10022000CF90BF90AF900895FC01538D448D252F42
:1002300030E0842F90E0821B930B541710F0CF9680
:10024000089501970895FC01918D828D981761F0B2
:10025000A28DAE0FBF2FB11D5D968C91928D9F5FC9
:100260009F73928F90E008958FEF9FEF0895FC01A8
:10027000918D828D981731F0828DE80FF11D858D5B
:1002800090E008958FEF9FEF0895FC01918D228DEE
:10029000892F90E0805C9F4F821B91098F73992773
:1002A000089588E994E00E94450121E0892B09F432
:1002B00020E0822F089580E090E0892B29F00E94B1
:1002C000510181110C9400000895FC01A48DA80F28
:1002D000B92FB11DA35ABF4F2C91848D90E0019688
:1002E0008F739927848FA689B7892C93A089B189A8
:1002F0008C91837080648C93938D848D981306C049
:100300000288F389E02D80818F7D80830895EF92AC
:10031000FF920F931F93CF93DF93EC0181E0888FBF
:100320009B8D8C8D98131AC0E889F989808185FF8F
:1003300015C09FB7F894EE89FF896083E889F98931
:1003400080818370806480839FBF81E090E0DF9133
:10035000CF911F910F91FF90EF900895F62E0B8D86
:1003600010E00F5F1F4F0F731127E02E8C8D8E1141
:100370000CC00FB607FCFACFE889F989808185FFA8
:10038000F5CFCE010E946501F1CFEB8DEC0FFD2F73
:10039000F11DE35AFF4FF0829FB7F8940B8FEA8963
:1003A000FB8980818062CFCFEF92FF920F931F93E2
:1003B000CF93DF938C017B01D0E0C0E0F701EC0F1D
:1003C000FD1F6491662339F0C8010E948701892BC3
:1003D00011F02196F3CFCE01DF91CF911F910F91B4
:1003E000FF90EF900895CF93DF93EC01888D8823E1
:1003F000B9F0AA89BB89E889F9898C9185FD03C088
:10040000808186FD0DC00FB607FCF7CF8C9185FF6C
:10041000F2CF808185FFEDCFCE010E946501E9CF4B
:10042000DF91CF91089590E0FC01EC55FF4F2491AE
:10043000FC01E057FF4F3491FC01E458FF4FE49179
:10044000EE23C9F0222339F0233001F1A8F4213042
:1004500019F1223029F1F0E0EE0FFF1FEE58FF4FA7
:10046000A591B4918FB7F894EC91611126C03095A5
:100470003E233C938FBF08952730A9F02830C9F060
:10048000243049F7809180008F7D03C080918000E7
:100490008F7780938000DFCF84B58F7784BDDBCFEB
:1004A00084B58F7DFBCF8091B0008F778093B000B3
:1004B000D2CF8091B0008F7DF9CF3E2BDACFCF9392
:1004C000DF9390E0FC01E057FF4F249184589F4F49
:1004D000FC0184918823D1F090E0880F991FFC01E2
:1004E000E859FF4FA591B491FC01EE58FF4FC5911B
:1004F000D49161110EC09FB7F8948C91E22FE095D2
:100500008E238C932881E223E8839FBFDF91CF91D4
:1005100008958FB7F894EC91E22BEC938FBFF6CF50
:100520002FB7F89460914C0170914D0180914E016C
:1005300090914F012FBF08958EBD0DB407FEFDCFE2
:10054000089561E0FC0182810E9413028FEF0C94F8
:100550009C028FEF8EBD0DB407FEFDCF8EB50895C2
:10056000FF920F931F93CF93DF93F82E8B010E947E
:100570009002EB010E94A9028F1571F00E94900277
:100580006C1B7D0B06171707A8F780E0DF91CF9152
:100590001F910F91FF90089581E0F8CFCF92DF92E5
:1005A000EF92FF921F93CF93DF93FC01162F690107
:1005B0007A01838122E090E0281728F4963019F020
:1005C000220F9F5FF9CF292F206A26952CBD90FD21
:1005D00003C021E0963009F420E02DBD60E0828167
:1005E0000E94130268E572E08FEF0E94B002812F33
:1005F00080640E949C02C8E1D0E0D701C6010C2EA5
:1006000004C0B695A795979587950A94D2F70E944E
:100610009C022897C83F8FEFD80779F78FEF111109
:1006200001C085E90E949C02C0E00E94A90287FFE8
:1006300004C0CF3F11F0CF5FF8CFDF91CF911F9172
:10064000FF90EF90DF90CF900895CF93DF93EC0170
:100650009A01AB0189E0220F331F441F551F8A9571
:10066000D1F768E1CE010E94CE02882349F083E0F1
:100670008883CE010E94A10280E0DF91CF9108958E
:100680008EEF8EBDE8E9F2E00DB407FEFDCF81915B
:100690008EBD84E0E839F807B9F70DB407FEFDCF49
:1006A0008FEF0E949C028FEF0E949C020E94A90281
:1006B000982F9F71953019F0898386E0D9CF68E52E
:1006C00072E08FEF0E94B002811105C087E088833D
:1006D000CE010E94A102CE010E94A10281E0CDCFF5
:1006E0000F931F93CF9380914601C1E0882399F027
:1006F000009181021091820240910001509101010C
:100700006091020170910301C8010E942503C82F66
:10071000811106C0C0E08C2FCF911F910F910895D9
:100720004091420150914301609144017091450113
:10073000411551056105710569F0C8010E94250345
:10074000882341F310924201109243011092440118
:100750001092450110924601DECFCF92DF92EF92C8
:10076000FF921F93CF93DF936B017C01142F809135
:10077000000190910101A0910201B09103018C153B
:100780009D05AE05BF0509F44FC00E947003882384
:10079000C9F0C0918102D0918202A701960189E03F
:1007A000220F331F441F551F8A95D1F761E1CE01F7
:1007B0000E94CE02882371F084E08883CE010E94DB
:1007C000A10280E0DF91CF911F91FF90EF90DF9029
:1007D000CF9008956CE271E08EEF0E94B00281111B
:1007E00005C085E08883CE010E94A1028FEF8EBDF7
:1007F000E8E9F2E00DB407FEFDCF9EB591938EBD02
:1008000094E0E839F907B1F70DB407FEFDCF0E9477
:10081000A902CE010E94A102C0920001D092010162
:10082000E0920201F092030181E0112359F28093DA
:100830004601C8CF4F925F926F927F929F92AF9284
:10084000BF92CF92DF92EF92FF920F931F93CF93BD
:10085000DF9320E732E030938202209381028823E5
:1008600009F4DEC040E060E070E0CB010E94AD031F
:10087000811112C0D0E08D2FDF91CF911F910F9188
:10088000FF90EF90DF90CF90BF90AF909F907F90C0
:100890006F905F904F900895C0905E04D0905F0479
:1008A000E0906004F090610440E0C701B6010E944E
:1008B000AD03D82F8823F1F2809196048535D1F6C7
:1008C000809197048A3AB1F69090A80290928002A3
:1008D000C091A502C09394020091AE021091AF02A4
:1008E00010937F0200937E022091A9023091AA0208
:1008F0003093960220939502A090A602B090A70292
:10090000D701C6018A0D9B1DA11DB11D80937A02DE
:1009100090937B02A0937C02B0937D02909EA001F5
:10092000919E500D1124840F951FA11DB11D809320
:10093000760290937702A0937802B093790245E013
:10094000220F331F4A95E1F721503E4F232F3327C3
:100950002695820F931FA11DB11D80939002909345
:100960009102A0939202B09393024090AB025090F8
:10097000AC02712C612C4114510441F44090B80236
:100980005090B9026090BA027090BB02C81AD90A9E
:10099000EA0AFB0AC701B601640D751D861D971D85
:1009A0002C2F30E050E040E00E94FD1E3093750295
:1009B000209374026091A3027091A40261157240A9
:1009C00009F058CF0115110509F454CF253F6FE008
:1009D000360708F44FCF81E04816510480E86806D6
:1009E000710408F047CFAB2809F444CF992009F4EB
:1009F00041CFC32EDD240C151D0508F43BCFCC23BD
:100A000009F438CF8C2F90E09C01215031098223CA
:100A10009323892B09F02ECF81E0809397022BCF6F
:100A2000C12CD12C760140CFCF92DF92EF92FF9272
:100A30000F931F93CF93DF938230910550F480E0A2
:100A4000DF91CF911F910F91FF90EF90DF90CF90AA
:100A5000089520917402309175022F5F3F4F28173F
:100A6000390768F3EB018C01212F3327C0907A02FC
:100A7000D0907B02E0907C02F0907D02C20ED31EEB
:100A8000E11CF11C8091000190910101A0910201F3
:100A9000B0910301C816D906EA06FB0689F4F801ED
:100AA000FF27EE0FFF1FE856FD4FD183C08381E083
:100AB0008093460180918002823050F481E0C0CF63
:100AC00040E0C701B6010E94AD038111E8CFB7CF66
:100AD00080917E0290917F02C80ED91EE11CF11C0C
:100AE000C0924201D0924301E0924401F09245014C
:100AF000E5CFCF92DF92EF92FF920F931F93CF93A8
:100B0000DF9320917402309175022F5F3F4F2817B9
:100B1000390750F480E0DF91CF911F910F91FF9042
:100B2000EF90DF90CF9008958B01EC012D2F3327AC
:100B300060917A0270917B0280917C0290917D029B
:100B4000620F731F811D911DC0900001D0900101A3
:100B5000E0900201F09003016C157D058E059F0564
:100B600061F4DD27CC0FDD1FC856DD4F88819981E8
:100B7000F8019183808381E0CECF40E00E94AD03F5
:100B80008111EFCFC7CF4F925F926F927F928F927A
:100B90009F92AF92BF92CF92DF92EF92FF920F930C
:100BA0001F93CF93DF93EC016A017B018D818370EA
:100BB00091F480E0DF91CF911F910F91FF90EF9022
:100BC000DF90CF90BF90AF909F908F907F906F906D
:100BD0005F904F9008958A859B85AC85BD858C1567
:100BE0009D05AE05BF0528F3C114D104E104F1044D
:100BF00041F41F861E86188A198A1A8A1B8A81E088
:100C0000D9CF80909402912CB12CA12CCB01BA01A8
:100C1000615071098109910939E096958795779519
:100C200067953A95D1F7A50194010E94FD1E8901AF
:100C300088899989AA89BB89C816D906EA06FB065C
:100C400020F00097A105B105A9F4888599859F87B3
:100C50008E875E018EE0A80EB11C01151105F1F022
:100C6000B5018E859F850E9479050150110981117A
:100C7000F4CF9FCFBC01CD01615071098109910969
:100C800029E096958795779567952A95D1F7A501DF
:100C900094010E94FD1E021B130BDBCFC88AD98A68
:100CA000EA8AFB8AACCFCF93DF93209195023091F3
:100CB00096028217930728F090E080E0DF91CF91B1
:100CC0000895462FEC019C0154E0369527955A95DE
:100CD000E1F76091760270917702809178029091AD
:100CE0007902620F731F811D911D0E94AD0388233D
:100CF00019F3CE018F70992725E0880F991F2A9547
:100D0000E1F788569D4FDACFCF93DF93FC01258121
:100D100027FF18C0EC0161E0868197810E9453068D
:100D20000097A1F04A855B856C857D85FC01448F29
:100D3000558F668F778F28853985338F228F8D81E8
:100D40008F778D83DF91CF910C94700380E0DF91DA
:100D5000CF91089585E395E00E94840610923A05AC
:100D60000895CF92DF92EF92FF920F931F93CF934C
:100D7000DF9300D0CDB7DEB77C01FC010685178577
:100D80000115110511F401E010E0D12CC12C809166
:100D9000740290917502C816D906F8F4801791076D
:100DA00010F401E010E00F5F1F4FBE016F5F7F4F37
:100DB000C8010E947905882381F089819A81892B55
:100DC00021F0FFEFCF1ADF0AE2CF6FEF7FEFC8010C
:100DD0000E941405D82E81110DC0D12C8D2D0F909D
:100DE0000F90DF91CF911F910F91FF90EF90DF90C7
:100DF000CF900895F70186859785009749F0B8014F
:100E00000E941405882349F3F70117870687E6CF68
:100E100085818068858311870087F6CF089590E0EB
:100E200080E008950F931F93CF93DF93D0919702A3
:100E3000D11107C0D0E08D2FDF91CF911F910F917D
:100E4000089520913A052370A9F7C62F8C0160E020
:100E50000E945306FC01892B69F38081882351F39A
:100E6000853E41F38385982F987121F780FF03C059
:100E70008C2F8271F9F6109244051092430510925E
:100E800045051092460510924705109248051093AB
:100E90003C0500933B05848D958DA68DB78D809381
:100EA0003F0590934005A0934105B0934205828D84
:100EB000938D90933E0580933D05CF70C0933A0586
:100EC000BACFAF92BF92CF92DF92FF920F931F9350
:100ED000CF93DF93CDB7DEB72B970FB6F894DEBF75
:100EE0000FBECDBF382F80919702882309F468C0C8
:100EF00020913A052370B9F4FE013196AE01445FAA
:100F00005F4F6F0180E28193E417F507E1F7A32FAC
:100F1000B92F90E027E08D91382F882321F18E3270
:100F200039F42A3011F480E04BC098E02AE0F3CF86
:100F3000E7E6F1E04491442321F031968413FACF9F
:100F4000F2CF291780F34FED480F4E3560F74FE988
:100F5000480F4A3110F430EE380FF601E90FF11D59
:100F600030839F5FD8CF89818032E9F2F62E10E07E
:100F700000E0AA24AA94BA2C80919502909196023E
:100F80000817190790F560E0C8010E945306BC01DC
:100F9000009749F2FC019081992311F1953E29F4C3
:100FA000B7FC20C00F5F1F4FE7CF4BE050E0C601FA
:100FB0000E94341F892BB1F76F2DC8010E941207C0
:100FC0002B960FB6F894DEBF0FBECDBFDF91CF9149
:100FD0001F910F91FF90DF90CF90BF90AF90089539
:100FE000B7FE05C058019111DDCFB7FC9CCF6F2D26
:100FF0006274623409F097CF61E0C5010E94530624
:10100000009709F490CF20E2FC0111922A95E9F7AC
:101010002BE0F601DC0101900D922A95E1F721E227
:1010200038E2FC01318B208B40E058E0578746873F
:10103000338B228B318F208F578B468B0E9470030E
:10104000882309F470CF62E4C501B8CF4F925F9254
:101050006F927F928F929F92AF92BF92CF92DF92C8
:10106000EF92FF920F931F93CF93DF935C018B015D
:1010700080913A0580FD13C08FEF9FEFDF91CF91F4
:101080001F910F91FF90EF90DF90CF90BF90AF90A6
:101090009F908F907F906F905F904F900895809178
:1010A000450590914605A0914705B09148054091AE
:1010B0003F055091400560914105709142056C01DA
:1010C0007D01C00ED11EE11CF11C4C155D056E05A5
:1010D0007F0518F48A01081B190B7801812C32E076
:1010E000932EE114F10409F486C080914505909196
:1010F0004605A0914705B0914805C0909402AC0107
:10110000BD0129E076956795579547952A95D1F7C2
:10111000DD24DA94DC0CD422EC01D170DD2009F45A
:1011200048C0209143053091440522503109AC2D2F
:10113000B0E00E94251F4090900250909102609074
:10114000920270909302640D751D861D971D6D0DA2
:10115000711D811D911D40E00E94AD03882309F49B
:101160008BCFC4018C1B9D0B67018E159F0508F466
:101170006C01BE0168567D4FA601C5010E94411F4A
:101180008091450590914605A0914705B09148058D
:101190008C0D9D1DA11DB11D8093450590934605A5
:1011A000A0934705B0934805AC0CBD1CEC18FD0896
:1011B00098CF209709F0B5CF8091430590914405D1
:1011C000009791F480913D0590913E0590934405E0
:1011D0008093430580914305909144050297863F93
:1011E0009F4F08F49ECF48CF63E475E00E947905D5
:1011F0008111F0CF41CFC80141CF0F931F93CF93FF
:10120000DF931F92CDB7DEB78C0161E082E291E0FF
:101210000E946107A80170E060E085E395E00E940C
:10122000C30561E070E0CE0101960E9426080981A5
:10123000019711F00FEF1FEF0E94AA06802F0F9069
:10124000DF91CF911F910F9108951F93CF93DF935B
:10125000EC010E94FD08182FCE0101960E94FD08A6
:10126000912FDF91CF911F910895EF92FF920F93ED
:101270001F93CF93DF937B01EA010E9425098C0124
:10128000C7010E94250924E0000F111F2A95E1F7EC
:101290008C0F9D1F800F911FDF91CF911F910F9198
:1012A000FF90EF900895CF93DF93EB018F579F4FFF
:1012B0000E9425098C0F9D1FDF91CF910C94FD0892
:1012C000CF93DF9380936D02C82FD0E0BE0188E0FA
:1012D00090E00E94530980935502BE0189E090E09E
:1012E0000E94530980935302BE018EE090E00E9459
:1012F000530980936202BE018AE090E0DF91CF91B2
:101300000C9453092F923F924F925F926F927F926B
:101310008F929F92AF92BF92CF92DF92EF92FF9205
:101320000F931F93CF93DF9300D0CDB7DEB78C011F
:101330005B014A01FC01858181FFDEC082FDC9C0DD
:101340006401212C32E0332EF80180899189A28931
:10135000B38970909402AC01BD0129E07695679540
:10136000579547952A95D1F766246A94670C6422AD
:101370007C01F1E0FF2261101FC0F801868597858E
:10138000E114F10409F0E5C0009709F4B9C0BE0109
:101390006F5F7F4F0E947905882309F4ADC0898172
:1013A0009A81883FFFEF9F0708F4C9C0C8010E94D7
:1013B000B106882309F4A0C0F8012685378522509C
:1013C0003109A72DB0E00E94251F20919002309195
:1013D00091024091920250919302620F731F841FF9
:1013E000951F9B01AC01260D311D411D511D290189
:1013F0003A01E114F10409F0BFC0F80140895189B4
:101400006289738982859385A485B58548175907B4
:101410006A077B0708F4B0C00E947003882309F4B0
:101420006BC04092000150920101609202017092E3
:10143000030181E08093460131016E187F08C614D4
:10144000D70408F43601A301B501C70188569D4FA2
:101450000E94411FF80180899189A289B389860D74
:10146000971DA11DB11D808B918BA28BB38BC618CC
:10147000D708A60CB71CC114D10409F065CF42856A
:10148000538564857585481759076A077B0738F4C3
:10149000258182879387A487B58720682583F801F3
:1014A000858183FD50C0C4010F900F90DF91CF91D3
:1014B0001F910F91FF90EF90DF90CF90BF90AF9072
:1014C0009F908F907F906F905F904F903F902F9064
:1014D0000895428553856485758580899189A2899F
:1014E000B389481759076A077B0709F429CFC80150
:1014F0000E94C305811124CF81E0F801848343C099
:10150000808591850097D9F4C8010E94B10688238F
:1015100099F3F8012685378522503109A72DB0E0CF
:101520000E94251F4090900250909102609092027C
:1015300070909302460E571E681E791E5ECFF8010A
:101540009787868739CFC8010E9484068111ABCF67
:10155000D3CF9C0122503109A72DB0E00E94251F56
:10156000409090025090910260909202709093028D
:10157000460E571E681E791E41E0C301B2010E944B
:10158000AD03811159CF8FEF9FEF8ECFCF93DF93B4
:101590001F92CDB7DEB7698341E050E0BE016F5FB7
:1015A0007F4F0E94820921E030E0019711F030E086
:1015B00020E0C9010F90DF91CF9108951F93CF9341
:1015C000DF93EC01162F62E082E291E00E94610756
:1015D000AE0170E060E085E395E00E94C305612FF5
:1015E00070E041E050E085E395E00E9482090E94AE
:1015F000AA06812FDF91CF911F9108950C94DE0AE6
:101600000F931F93CF93DF938C01D62FC72F0E9488
:10161000FE0A6C2FC80101960E94FE0A8D2F9C2F96
:10162000DF91CF911F910F91089561E0892B09F40B
:1016300060E080E390E00C94FE0A60918702709174
:10164000880280918502909186026827792780918F
:1016500083029091840268277927709386026093B1
:10166000850284E0769567958A95E1F761708AE254
:1016700090E00E94FE0A20918302309184028091C2
:1016800087029091880228173907E1F088E290E0FC
:101690000E94FD0840918A0298E0499FA001112410
:1016A000495F5F4F209185023091860202C03695D6
:1016B00027954A95E2F7A9014827CA018170992721
:1016C0000C94150B60E080E390E00E94FE0A80E03D
:1016D000089561E0892B09F460E088E290E00C94C1
:1016E000FE0ACF93DF93EC0181E080938A0284E0CD
:1016F00090E00E942509BC016E5F7F4F84E090E07E
:101700000E94000B4EEF5FEF64E070E08AE090E033
:101710000E9435090E94FD0880938B028093890204
:1017200090918A02D0938802C0938702992399F0FE
:101730008091890290918A0290938602809385021B
:10174000909384028093830210928A02809189028E
:10175000DF91CF91089590E0EFCFCF93DF93EC012D
:1017600081E080938A024FEF5FEF64E070E08AE0EF
:1017700090E00E9435090E94FD0880938B028093BF
:10178000890290918A02992351F120918902309126
:101790008A023093880220938702D0938602C093F6
:1017A0008502D0938A02C0938902D0938402C093A9
:1017B0008302C09189028C1759F04FEF5FEF64E00C
:1017C00070E08AE090E00E9435096C2F0E94DE0AEA
:1017D00010928A0280918902DF91CF910895282F7B
:1017E00030E030938802209387029E0133273093A4
:1017F000860220938502C09389023093840220934D
:101800008302D7CF0F931F93CF938DEC0E94600973
:1018100082E090EF90938F0280938E0209E010E0B7
:1018200001501109E0F0C80188960E94FD08C82FF8
:10183000B80183E190E00E9453092C2F30E002C0F0
:10184000220F331F8A95E2F780918E0290918F02CA
:10185000280F391F30938F0220938E02E1CF8091A1
:101860008E0290918F020E94AD0B89E090E00E9461
:1018700025090E94AD0B80918C0290918D020E94EF
:10188000AD0B82E090E00E94FD0880938B02909166
:101890008A02992309F44CC08091890290918A02AE
:1018A000909388028093870280918B0290918C02A2
:1018B000909386028093850290938A028093890296
:1018C00090938402809383026091890282E190E088
:1018D0000E94DE0A20918A0280918C0290918D02F2
:1018E00090938802809387028091FA1190E02223DE
:1018F00021F08091FA119091FB11909386028093D0
:10190000850290938D0280938C0290938402809341
:10191000830260E08DE290E00E94FE0A60E08EE2C9
:1019200090E00E94FE0A80E0CF911F910F910895F0
:101930002091890230E03093880220938702282F7B
:1019400030E03093860220938502809389023093A1
:10195000840220938302B8CF0F931F93CF93DF931A
:10196000EC010E94D4018C0142E050E06AE271E097
:10197000CE010E94E700800F911FDF91CF911F9150
:101980000F9108951F920F920FB60F9211242F936B
:101990003F934F935F936F937F938F939F93AF93F7
:1019A000BF93EF93FF9388E994E00E946501FF9154
:1019B000EF91BF91AF919F918F917F916F915F91C7
:1019C0004F913F912F910F900FBE0F901F90189540
:1019D0001F920F920FB60F9211242F938F939F9304
:1019E000EF93FF93E091A804F091A9048081E09126
:1019F000AE04F091AF0482FD1BC090818091B104D0
:101A00008F5F8F732091B204821741F0E091B1048F
:101A1000F0E0E856FB4F958F8093B104FF91EF9172
:101A20009F918F912F910F900FBE0F901F9018953F
:101A30008081F4CF1F920F920FB60F9211242F9333
:101A40003F938F939F93AF93BF9380914C0190915D
:101A50004D01A0914E01B0914F0130914B0123E017
:101A6000230F2D3758F50196A11DB11D20934B0171
:101A700080934C0190934D01A0934E01B0934F0180
:101A80008091470190914801A0914901B0914A018C
:101A90000196A11DB11D8093470190934801A09329
:101AA0004901B0934A01BF91AF919F918F913F91AE
:101AB0002F910F900FBE0F901F90189526E8230FBF
:101AC0000296A11DB11DD2CFE8E9F4E01382128283
:101AD00088EE93E0A0E0B0E084839583A683B7838B
:101AE00088E091E09183808385EC90E095878487FE
:101AF00084EC90E09787868780EC90E0918B808BD8
:101B000081EC90E0938B828B82EC90E0958B848BC0
:101B100086EC90E0978B868B118E128E138E148E2E
:101B2000E5E3F5E0138212828AE191E091838083FC
:101B300015820895789484B5826084BD84B58160EF
:101B400084BD85B5826085BD85B5816085BD809188
:101B50006E00816080936E00109281008091810000
:101B600082608093810080918100816080938100F8
:101B7000809180008160809380008091B1008460BA
:101B80008093B1008091B00081608093B00080911B
:101B90007A00846080937A0080917A0082608093DA
:101BA0007A0080917A00816080937A0080917A0037
:101BB000806880937A001092C100E091A804F091AF
:101BC000A90482E08083E091A404F091A50410822E
:101BD000E091A604F091A7048FEC80831092B004EA
:101BE000E091AC04F091AD0486E08083E091AA041A
:101BF000F091AB04808180618083E091AA04F09130
:101C0000AB04808188608083E091AA04F091AB04EA
:101C1000808180688083E091AA04F091AB04808188
:101C20008F7D808362E371E088E994E00E94AC0CD0
:101C300065E071E088E994E00E94AC0C68ED70E02A
:101C400088E994E00E94D40102E07AE0F72EE3E50F
:101C5000EE2E00937302F0927202109270020E94B4
:101C60009002EB0161E0809172020E945F0261E0EC
:101C7000809172020E94130260E08CE00E945F0279
:101C800061E08AE00E945F0261E08AE00E94130244
:101C900061E08BE00E945F0261E08DE00E945F02E4
:101CA000ECBC1AE08FEF0E949C021150D9F760E063
:101CB000809172020E94130220E030E0A90160E0EE
:101CC00080E792E00E94CE02182F8130C9F00E9476
:101CD00090026C1B7D0B613D774070F31093710295
:101CE00081E08093700280E792E00E94A10241E0CF
:101CF00050E06DE271E088E994E00E94E700A9CF2E
:101D000020E030E0A90167E380E792E00E94CE0284
:101D100020E030E0A90169E280E792E00E94CE0273
:101D2000182F882361F00E9490026C1B7D0B613D8F
:101D3000774030F31093710200937002D4CF80E7A4
:101D400092E00E94A10260EC70E088E994E00E94B9
:101D5000D40181E00E941A0481110DC00E941A046E
:101D6000811109C041E050E06DE271E088E994E042
:101D70000E94E700EECF68EB70E088E994E00E94F3
:101D8000AC0C65EF70E088E994E00E94AC0C60E078
:101D900070EF89E090E00E94000B60E08DE290E03F
:101DA0000E94FE0A60E884E090E00E94FE0A63E080
:101DB0008FE291E00E94610760913F0570914005BC
:101DC00090E080E00E94000BD0E0C0E0C1304FEF17
:101DD000D40750F561E088E391E00E94610760E874
:101DE00070E080E591E00E942608C80FD91F0E948C
:101DF000AA0662E482E291E00E946107AE010D2E24
:101E0000000C660B770B615F7F4F85E395E00E94C6
:101E1000C30540E850E060E571E085E395E00E948D
:101E200082090E94AA06D2CF80E091E090938D02B1
:101E300080938C0234E0432E512CFF24F39442E033
:101E4000E42EC1E0D0E05CE0252E6AE1662E712C24
:101E5000D12CC12CB12CA12C89E090E00E94250945
:101E600024E0880F991F2A95E1F720918C02309188
:101E70008D02820F931F0E94FD08282F30E03093BF
:101E80006F0220936E02882311F40C94BA1E0E94F4
:101E90006009A0916D028A2F877080936C02A170F7
:101EA000A0938A028695817080936B02E0916E0206
:101EB000F0916F0291817281292F372F30936A023E
:101EC00020936902B38170936702B09368024381E3
:101ED000548150936602409365024091640244230A
:101EE00019F041504093640240916302442319F079
:101EF00041504093630280916202882309F48FC0AD
:101F0000A90106E0569547950A95E1F7437040937D
:101F1000610297709093600283E0369527958A95C9
:101F2000E1F7277020935F024111A0C0963009F0BD
:101F3000A2C024813581309366022093650224E09B
:101F400030E04111A4C030935E0220935D02692FFE
:101F500070E0433009F4A1C0C90101960E94530901
:101F600090E00E9425098C016091600270E08091F0
:101F70005D0290915E0202960E94530920916702D1
:101F800030916802829F4001839F900C1124800E43
:101F9000911E6091600270E080915D0290915E02FE
:101FA0000E945309082F10E080916402811172C0D1
:101FB0006091600270E080915D0290915E020396F4
:101FC0000E945309A401B80190E00E943509909342
:101FD0005B0280935A029093590280935802309189
:101FE0005F02432F50E0440F551F20918A022223A5
:101FF00009F462C09A01309357022093560240912F
:102000006B02442361F030938F0220938E029093F1
:102010005702809356023093590220935802E09160
:102020005502ED3108F018CFF0E0E75EFF4E0C945A
:102030001F1F6510B71028111B112111A811DA12EA
:102040007E159A15D815DE1766192C0F201A821ADC
:10205000B61AEA1AB71B911C7C1DC71D2C0F2C0F3A
:10206000E81DF91AF91DFD1D011E121E423009F46A
:1020700060CF413029F070936502B09366025FCF64
:10208000272F770F330B309368022093670230E0DD
:1020900020E059CF80915C0295CF660F771FAA236D
:1020A00011F0CB0194CF892F86958695860F972FB7
:1020B000911D877099278BCF232F26952695240F66
:1020C000352F311D2770332796CF60916D026695AD
:1020D00067706093540280906902082C000C990884
:1020E00000918A0210E070E08FE090E00E945309B6
:1020F00090E00E94FD088823A1F091E00927089D47
:10210000C001099D900D189D900D112420918C0205
:1021100030918D02820F931F90938D0280938C02D9
:102120009BCE6091540270E080E190E00E945309E0
:1021300090E00E94FD088111E0CF6091540270E0B0
:1021400081E190E00E94530990E00E94FD08382E42
:102150006091540270E082E190E00E94530990E0A7
:102160000E94250991E03812C9CF90E0C7CF909125
:102170006D0281E0492F487093FF80E080938A02CE
:1021800090916C02292F30E0220F331F442389F1F4
:10219000C9010E94FD0880938B02809389024091BF
:1021A0008A02442379F18091890290918A02909366
:1021B0008802809387028091690290916A029093CD
:1021C00086028093850290938A028093890290937D
:1021D0008402809383026091890290916C02292F7E
:1021E00030E0220F331F4423E9F0C9010E94DE0AC8
:1021F00033CE892F86958695820F932F911D8770F8
:102200009927C7CF90E0909388028093870220910E
:102210006902822F90E0909386028093850220933A
:102220008902D5CF892F86958695820F932F911D90
:1022300087709927DBCF80916C0290E00E9425097E
:1022400011C180916C0290E00E9425090C946219E2
:10225000F0928A0210926B0280916C0280935F026E
:102260002091610284E090E0222311F090E080E070
:1022700090935E0280935D026091600270E0233073
:1022800008F0F6C001960E94530990E00E942509CB
:102290008C016091600270E080915D0290915E021D
:1022A00002960E9453092091670230916802829F32
:1022B0004001839F900C1124800E911E609160025A
:1022C00070E080915D0290915E020E945309082F98
:1022D00010E0809164028111C8C06091600270E0DA
:1022E00080915D0290915E0203960E945309A401C1
:1022F000B80190E00E94350990935B0280935A02E6
:10230000909359028093580230915F02432F50E01E
:10231000440F551F20918A02222309F4ADC09A016F
:10232000309357022093560240916B02442361F090
:1023300030938F0220938E0290935702809356021F
:1023400030935902209358028091530280935F0288
:1023500080915F02823008F0B2C088E190E00E9474
:10236000FD0880938B0290918A0220915F0299234D
:1023700009F48BC08091890290918A02909388021F
:102380008093870240918B0250918C025093860279
:1023900040938502840F951F019630E0220F331F72
:1023A000821B930B90938A028093890290938402FC
:1023B0008093830260918902809156029091570226
:1023C0000E94DE0AD0938602C09385020E941D0BF4
:1023D00080918A0278E0879FC00111240796AE01A0
:1023E00002C0440F551F8A95E2F720918702309171
:1023F00088022F5F3F4F80915F02281B310981E0E7
:1024000090E04217530711F090E080E00E94150B16
:1024100080918A0228E0829FC00111240796AE01B4
:1024200002C0440F551F8A95E2F720918702309130
:1024300088022F5F3F4F80915F02281B310981E0A6
:1024400090E04217530711F090E080E00E94150BD6
:1024500080915502853019F480E10E9460098091D5
:10246000890290E00E94AD0BF7CC80915C023FCFD7
:10247000CB01880F991F40CF232F26952695240F37
:10248000352F311D277033274BCF40918902642FA0
:1024900070E0709388026093870290E090938602C8
:1024A0008093850230E0220F331FBE01621B730B45
:1024B000860F971F840F8093890290E077CF863034
:1024C00009F46FC0833031F489E090E00E9425095F
:1024D0000E94AD0B80915F0281FF23C08091610259
:1024E00021E030E0833011F430E020E0829FA00151
:1024F000839F500D1124811105C021E0809160025D
:10250000863009F020E080918C0290918D02029635
:10251000840F951F30E0220F331F820F931F0E94FC
:10252000AD0B80915F0280FF07C0809156029091B1
:10253000570202960E94FD08809156029091570220
:1025400002960E94FD08682F70E089E090E00E94EA
:10255000000B80915602909157020E94FD088093D3
:10256000890290918A0220918C0230918D023093E1
:10257000880220938702992391F08091890290919B
:102580008A02909386028093850290938D028093B5
:102590008C0290938402809383028AE95ECF90E05C
:1025A000F0CF80915A0290915B020E94FD088093C7
:1025B000890255CF8091560290915702909359020B
:1025C00080935802E0915F02E83008F045CCF0E0DB
:1025D000E451FD4E0C941F1FF4122C0F3F13741383
:1025E000C91331149414131580E20E9460092091DC
:1025F0008C0230918D022F5F3F4F80918A02820FB3
:10260000932F911D90938D0280938C02809158029C
:10261000909159020E94FD088093890290918A024C
:102620009923E1F02091890230918A023093880247
:102630002093870240916502509166025093860272
:102640004093850224233523309384022093830210
:10265000682F8091580290915902C8CD282F30E000
:10266000309388022093870220916502422F50E028
:102670005093860240938502282330E0E5CF0E94E4
:10268000FD0880938B0290918A029923D9F0809162
:10269000890290918A0290938802809387028091A8
:1026A0008B0290918C029093860280938502809594
:1026B000909590938A0280938902909384028093EC
:1026C00083023AC52091890230E03093880220933A
:1026D0008702282F30E03093860220938502809570
:1026E0008093890290E0E9CF0E94FD0880938B02DD
:1026F00090918A029923D9F18091890290918A025E
:10270000909388028093870280918B0290918C0233
:10271000909386028093850291958195910990937B
:102720008A0280938902909384028093830260914D
:10273000890280915802909159020E94DE0A1092FB
:1027400088021092870288E20E94600981E090E08E
:102750004091830250918402209187023091880237
:102760002417350708F073C20E94690B75CB2091BE
:10277000890230E03093880220938702282F30E0CE
:10278000309386022093850281958093890290E0A0
:10279000CACF80918A02882391F180E10E9460096A
:1027A00000915A0210915B020350174F90E080E0B5
:1027B0000E942509089FB001099F700D189F700D98
:1027C00011247093840260938302770F660B762F37
:1027D00080918A0290E001960E94000B6091830232
:1027E0007091840290E080E00E94000B60E088E23B
:1027F00090E00E94FE0AC5010E94150B2DCB80E1DE
:102800000E94600900915A0210915B020350174F19
:10281000112790E080E00E94FD08382F309FC00112
:10282000319F900D112490938402809383028091B4
:102830008A0290E060E001960E94FE0A60918302A5
:102840007091840290E080E00E94000B80918302EE
:102850009091840288270E94690B082E000C990B26
:10286000CBCF80918A02882381F180E10E946009A8
:1028700000915A0210915B020350174F90E080E0E4
:102880000E942509089FB001099F700D189F700DC7
:1028900011247093840260938302770F660B762F66
:1028A00080918A0290E001960E94000B6091830261
:1028B0007091840290E080E00E94000B60E088E26A
:1028C00090E00E94FE0AC60197CF80E10E94600955
:1028D00000915A0210915B020350174F90E080E084
:1028E0000E94FD088002B00111247093840260935D
:1028F0008302770F660B762F80918A0290E0019613
:102900000E94FE0A609183027091840290E080E050
:102910000E94000B8091830290918402082E881BF4
:10292000910907FC939597CF80915A0290915B0291
:1029300020918A022223E9F10E94FD0890E0909301
:10294000520280935102892B09F4D5C080918A02EA
:1029500090E001960E94250990E080E00E94250900
:102960008C0190938F0280938E026091510270913E
:1029700052020E94D51E70935E0260935D0290E049
:1029800080E00E94000B2091510230915202AC0174
:10299000429FC001439F900D529F900D1124B8019A
:1029A000681B790B80918A0290E001960E94000BCF
:1029B00053CA0E94FD0890E0909352028093510206
:1029C000892B09F498C080918A0290E001960E94B8
:1029D000FD0890E080E00E942509182F80938E0268
:1029E00090938F0260915102709152020E94D51E05
:1029F00070935E0260935D02CB0199276817790797
:102A000009F079C090E080E00E94DE0A90915102C6
:102A1000612F899F6019112480918A0290E00196AC
:102A20000E94FE0A19CA80915A0290915B0220917D
:102A30008A022223A1F10E94FD0890E090935202A5
:102A400080935102892B09F456C080918A0290E04C
:102A500001960E94250990E080E00E9425098C01E2
:102A600090938F0280938E02609151027091520276
:102A70000E94E91E70935E0260935D0290E080E028
:102A80000E94000B2091510230915202BC01629FC2
:102A9000C001639F900D729F900D112480CF0E9402
:102AA000FD08082E000C990B90935202809351025E
:102AB000892B09F180918A0290E001960E94FD081D
:102AC00090E080E00E942509182F80938E02909359
:102AD0008F0260915102709152020E94E91E709320
:102AE0005E0260935D02262F062E000C330B6217E8
:102AF000730709F487CF0E94020CAEC910925B02E3
:102B000010925A028091690290916A029093660233
:102B10008093650283E080936102809153028093E9
:102B20005F0280918C0290918D02019790938D02AB
:102B300080938C0280915A0290915B02909359028B
:102B40008093580281E090918A02911180E09091E7
:102B50006B02892B80936B02609165027091660213
:102B6000882319F0062E000C770B8DE090E00E9470
:102B7000000B709257026092560280916B0222E025
:102B800030E0882311F021E030E080918C029091B8
:102B90008D02820F931F90938D0280938C028091FF
:102BA0005F0280935302880F880F880F0E9460098C
:102BB000E0915302E93008F04FC9F0E0EA51FA4ED3
:102BC00080915602909157020C941F1FEF153D16ED
:102BD0006816D21646177117641BB01760180E944A
:102BE000FD0880938B0290918A02992399F180913C
:102BF000890290918A0290938802809387022091A3
:102C00008B0230918C023093860220938502820FD2
:102C1000931F90938A0280938902909384028093F9
:102C200083026091890280915802909159020E941A
:102C3000DE0A81E090E0409183025091840220916D
:102C40008702309188024217530708F48DCD90E037
:102C500080E08ACD90918902292F30E0309388025C
:102C600020938702282F30E030938602209385023C
:102C7000890F8093890290E0D0CF0E94FD08809355
:102C80008B0290918A02992399F080918902909108
:102C90008A02909388028093870220918B02309160
:102CA0008C023093860220938502822B932B01CDD8
:102CB00090918902292F30E0309388022093870277
:102CC000282F30E03093860220938502892B08CD8F
:102CD0000E94FD0880938B0280918A02882309F468
:102CE00046C08091890290918A02909388028093D5
:102CF000870288E290E00E94FD0820918B023091CB
:102D00008C02309386022093850240918902509173
:102D10008A02240F351F820F932F911D90938A02F0
:102D20008093890290938402809383026091890248
:102D300080915802909159020E94DE0A88E290E048
:102D40000E94FD0820918702309188024091830201
:102D500050918402882321F04217530709F494C04C
:102D600081E0421753070CF468C080E066C0809190
:102D7000890290E0909388028093870288E290E035
:102D80000E94FD0890918B02292F30E0309386023B
:102D90002093850220918902920F890F80938902E6
:102DA00090E0C0CF0E94FD0880938B0280918A0240
:102DB000882309F449C08091890290918A029093F6
:102DC00088028093870288E290E00E94FD0840918B
:102DD0008B0250918C025093860240938502209181
:102DE000890230918A02241B350B281B310930934C
:102DF0008A02209389023093840220938302609197
:102E0000890280915802909159020E94DE0A88E25C
:102E100090E00E94FD082091870230918802409145
:102E2000830250918402882319F04217530761F1FD
:102E300081E0241735070CF098CF90E00E94690BD1
:102E40000E941D0B0C942C0F8091890290E09093AE
:102E500088028093870288E290E00E94FD0820911A
:102E60008B02422F50E0509386024093850290914E
:102E70008902921B981B892F9093890290E090936E
:102E8000840280938302BBCF81E0D7CF0E94FD08EC
:102E900080938B0290918A02992399F08091890204
:102EA00090918A02909388028093870220918B02EE
:102EB00030918C02309386022093850282239323E3
:102EC000F8CB90918902292F30E03093880220932B
:102ED0008702282F30E030938602209385028923D1
:102EE000FFCB0E94FD08982F80938B0280918A026D
:102EF000882319F18091890290918A029093880227
:102F00008093870220918B0230918C02309386024D
:102F100020938502821B930B90938A0280938902EF
:102F20009093840280938302609189028091580279
:102F3000909159020E94DE0A09CC80918902282FC3
:102F400030E03093880220938702292F30E03093BD
:102F5000860220938502891B8093890290E0E0CF4E
:102F60000E94FD0880938B0290918A02992399F028
:102F70008091890290918A029093880280938702BF
:102F800020918B0230918C0230938602209385022F
:102F9000821B930BC5CF2091890230E030938802C9
:102FA0002093870290E09093860280938502281BED
:102FB000390B3093840220938302B6CF80918A022A
:102FC0008111BDC0F0928A0280915F02885F809378
:102FD0005F022091610284E090E0222311F090E0F2
:102FE00080E090935E0280935D026091600270E0E9
:102FF000233008F081C001960E94530990E00E949E
:1030000025098C016091600270E080915D029091D1
:103010005E0202960E945309209167023091680275
:10302000829F4001839F900C1124800E911E60911D
:10303000600270E080915D0290915E020E945309EF
:10304000082F10E080916402811153C060916002EA
:1030500070E080915D0290915E0203960E94530998
:10306000A401B80190E00E94350990935B0280931F
:103070005A02909359028093580230915F02432F75
:1030800050E0440F551F20918A022223C9F19A0172
:10309000309357022093560240916B02442361F013
:1030A00030938F0220938E029093570280935602A2
:1030B0003093590220935802809156029091570202
:1030C0000E94FD0880938B0290918A02992309F156
:1030D0008091890290918A0290938802809387025E
:1030E00080918B0290918C0290938602809385024E
:1030F000E0CA80915C02B4CFCB01880F991FB5CF95
:10310000232F26952695240F352F311D2770332721
:10311000BFCF2091890230E030938802209387024C
:10312000282F30E030938602209385028093890215
:103130003093840220938302609189028ACA80912D
:103140006B028111B8C0F092640220925C0220915F
:10315000610284E090E0222311F090E080E09093FF
:103160005E0280935D026091600270E0233008F09F
:1031700085C001960E94530990E00E9425098C01A8
:103180006091600270E080915D0290915E02029613
:103190000E9453092091670230916802829F40018A
:1031A000839F900C1124800E911E6091600270E04C
:1031B00080915D0290915E020E945309082F10E0F9
:1031C00080916402811157C06091600270E080912B
:1031D0005D0290915E0203960E945309A401B8011A
:1031E00090E00E94350990935B0280935A0290937D
:1031F00059028093580230915F02432F50E0440FF0
:10320000551F20918A022223E9F19A013093570237
:103210002093560240916B02442361F030938F0259
:1032200020938E0290935702809356023093590256
:103230002093580280915602909157020E94FD08F7
:103240008093890290918A02992329F180918902C1
:1032500090918A02909388028093870280915A020B
:1032600090915B02909386028093850290938A02EC
:103270008093890299C180915C02B0CFCB01880F05
:10328000991FB1CF232F26952695240F352F311D59
:1032900027703327BBCF90E09093880280938702FA
:1032A00020915A02822F90E09093860280938502AB
:1032B0002093890279C180915A0290915B020E9409
:1032C000FD0890E00E94710B0C942C0F10925F028D
:1032D0001092610276E07093600280916902909191
:1032E0006A02909368028093670250925E02409255
:1032F0005D0266E070E085E090E00E94530990E096
:103300000E9425098C016091600270E080915D024D
:1033100090915E0202960E945309209167023091BB
:103320006802829F4001839F900C1124800E911EA1
:103330006091600270E080915D0290915E020E9457
:103340005309082F10E08091640281114EC06091F2
:10335000600270E080915D0290915E0203960E948F
:103360005309A401B80190E00E94350990935B02D3
:1033700080935A02909359028093580220918A02B6
:1033800030915F022223A1F1232F30E0220F331F5F
:10339000309357022093560240916B02442361F010
:1033A00030938F0220938E0290935702809356029F
:1033B00030935902209358028091580290915902FB
:1033C0000E94FD0880938B0290918A029923E9F074
:1033D0008091890290918A0290938802809387025B
:1033E00080918B0290918C023DCF80915C02B9CF8D
:1033F000432F50E0440F551F232F26952695240F69
:10340000352F311D27703327C3CF2091890230E03B
:103410003093880220938702282F30E03093860271
:103420002093850280938902309384022093830243
:103430006091890280915602909157020C94F61087
:1034400081E090E00E94250980938902282F215075
:10345000330BB90181E090E00E94000B809189025A
:103460008150990B90938F0280938E0280916C0211
:10347000813049F198F0833069F16091690240919F
:103480008E0250918F0264039001659F300D1124CC
:1034900080918C0290918D020C948A108BE290E0C6
:1034A0000E94FD0821E030E0882311F030E020E0A8
:1034B00080918E0290918F028223932390938F02AA
:1034C00080938E02DACF8BE290E00E94FD08282FD5
:1034D00030E0EECF81E090E00E94250980938902E0
:1034E0009927BC016F5F7F4F81E090E00E94000B45
:1034F00080918902811103C082E090E0DFCF81E0FA
:1035000090E0DCCF20916B0280918C0290918D0233
:103510000396821B910990938D0280938C023091C7
:103520008A0231110EC02223F1F010928D02109206
:103530008C02609165027091660289E090E00E94C1
:10354000000B2091690230916A0280916B028823FE
:1035500009F49ECF80918A02882309F499CF022E24
:10356000000C330B95CF0E94AD0BEBCF809158022E
:10357000909159020E94FD0880938B0290918A02DB
:103580009923B9F08091890290918A0290938802E0
:103590008093870220918B0230918C0230938602B7
:1035A0002093850282239323909384028093830245
:1035B0003FCF90918902292F30E0309388022093E9
:1035C0008702282F30E030938602209385028923DA
:1035D00090E0EACFF0928A021092590210925802BB
:1035E00080916C0290E0880F991F9093570280930E
:1035F00056028091560290915702209158023091C4
:1036000059022817390711F40C942C0F0E94FD0859
:1036100080938B0290918A02992309F471C0809162
:10362000890290918A029093880280938702209168
:103630008B0230918C023093860220938502822780
:10364000932790938A0280938902909384028093B7
:1036500083026091890280915802909159020E94E0
:10366000DE0A80915802909159020E94FD088093D1
:103670008B0290918A02992309F455C080918902A6
:1036800090918A02909388028093870220918B0206
:1036900030918C02309386022093850282279327F3
:1036A00090938A028093890290938402809383028C
:1036B0006091890280915602909157020E94DE0A21
:1036C00080915602909157020E94FD0880938B02D0
:1036D00090918A029923D1F18091890290918A0276
:1036E000909388028093870220918B0230918C0204
:1036F0003093860220938502822793270C945913D6
:1037000090918902292F30E030938802209387021C
:10371000282F30E0309386022093850289278093FA
:10372000890290E092CF90918902292F30E0309366
:10373000880220938702282F30E03093860220935E
:10374000850289278093890290E0AECF909189020B
:10375000292F30E03093880220938702282F30E011
:10376000309386022093850289270C9470138091F0
:103770006402882309F4AAC080915C0290E09093CF
:103780005E0280935D0280916302882309F4A1C0E8
:1037900081E090E00E94250990938F0280938E0231
:1037A00080918E0290918F02892B09F4AFC0809195
:1037B000530280FD91C050E040E066E070E08091EF
:1037C0005D0290915E020E9435090E94FD0880937F
:1037D0008B0290918A02992309F481C08091890219
:1037E00090918A02909388028093870280918B0245
:1037F00090918C02909386028093850290938A0226
:1038000080938902909384028093830210918902AD
:1038100080915302823008F076C050E040E067E0CB
:1038200070E088E090E00E943509612F0E94DE0A76
:103830008091530280FD20C086E090E00E9425091F
:103840008C018FE290E00E94FD0890E0880F991FA4
:10385000019720918A0230E02F5F3F4F829FA001A5
:10386000839F500D929F500D1124B801641B750B5E
:1038700086E090E00E94000B8091530281FD20C001
:1038800087E090E00E9425098C018FE290E00E9481
:10389000FD0890E0880F991F019720918A0230E07F
:1038A0002F5F3F4F829FA001839F500D929F500D2D
:1038B0001124B801641B750B87E090E00E94000B97
:1038C00080918E0290918F02019766CF8BE090E0FD
:1038D00056CF81E090E060CF90E080E076CF2091FD
:1038E000890230E03093880220938702282F30E04D
:1038F000309386022093850280938902309384025C
:103900002093830283CF90E080E08FCF8091630289
:10391000882311F40C942C0F70E060E081E090E0BB
:1039200045C880916402882309F4C1C080915C027B
:1039300090E090935E0280935D028091630281111A
:10394000B9C0D0938F02C0938E0280918E02909165
:103950008F02892B11F40C94A61350E040E067E02D
:1039600070E088E090E00E9435090E94FD08809395
:103970008B0290918A0210918902992309F4A7C0C1
:103980008091890290918A029093880280938702A5
:1039900020918B0230918C02309386022093850215
:1039A000821B930B90938402809383028091530235
:1039B00081119FC050E040E066E070E080915D02C0
:1039C00090915E020E943509612F0E94DE0A80916B
:1039D0005302811120C086E090E00E9425098C01ED
:1039E0008FE290E00E94FD0890E0880F991F0197F8
:1039F00020918A0230E02F5F3F4F829FA001839F7A
:103A0000500D929F500D1124B801641B750B86E078
:103A100090E00E94000B81E090E00E9425098093D5
:103A20008902482F4150550BBA0181E090E00E9475
:103A3000000B87E090E00E9425098C018FE290E066
:103A40000E94FD0890E0880F991F019720918A023B
:103A500030E02F5F3F4F829FA001839F500D929FC8
:103A6000500D1124B801641B750B87E090E00E9493
:103A7000000B80916302882309F48DC18091890233
:103A8000813081F081E090E02091830230918402C6
:103A9000232B11F090E080E02091500228171906A6
:103AA00009F453CF10928F0210928E024ECF8BE00A
:103AB00090E03FCF81E090E00E94250990938F0233
:103AC00080938E02892B11F40C942C0F3ECF212F62
:103AD00030E0309388022093870290E09093860232
:103AE00080938502281B390B309384022093830234
:103AF0005DCF90E080E068CF80918A0280936B0276
:103B000080918C0290918D020E94710B80915302E2
:103B1000882331F089E090E00E9425090E94710B12
:103B20008091530281FF20C080918E0290918F027C
:103B30000E94710B882E912C09E010E001501109B0
:103B400010F40C942C0FB80183E190E00E9453090B
:103B5000B40102C0759567958A95E2F76170C80156
:103B600088960E94FE0AEACF80916B0281110C9424
:103B70002C0F84E090E00E94250960916902709109
:103B80006A02680F791F84E090E00C94D61480914B
:103B90005602909157020E94FD08809389029091ED
:103BA0008A02992369F08091890290918A02909308
:103BB000880280938702809165029091660252CBC1
:103BC00090E09093880280938702209165026ACBEF
:103BD000E092630280918A02809350028091640295
:103BE000882311F40C942C0F8F5F809364020C9443
:103BF0002C0F809153020C941D11809153020C9450
:103C00002311E09264028091530280935C028091C0
:103C10006302882311F40C942C0F8F5F809363024E
:103C20000C942C0F10928A028091530290E088230A
:103C300009F49AC080E00E94FD088093890290E018
:103C400080E00E94FD08282F30E030935E02209330
:103C50005D028F7061E08A3040F48AE290E00E9459
:103C6000FD0861E0811101C060E08AE290E00E94FD
:103C7000FE0A6091890290E080E00E94FE0A90E0D6
:103C800080E00E94FD088093890280915D0291E0AE
:103C90008A3940F488E290E00E94FD0891E08111A9
:103CA00001C090E0892F90E00E94690B882351F0B9
:103CB0008091890280568093890290E090938402DB
:103CC000809383026091890290E080E00E94FE0A66
:103CD00090E080E00E94FD08282F30E030935E02E3
:103CE00020935D028F7061E08A3040F48AE290E0B8
:103CF0000E94FD0861E0811101C060E08AE290E06D
:103D00000E94FE0A6091890290E080E00E94FE0A13
:103D100090E080E00E94FD088093890290E080E0BE
:103D20000E94FD08807F91E0813940F488E290E0B4
:103D30000E94FD0891E0811101C090E0892F90E080
:103D40000E94690B882351F080918902805A8093E8
:103D5000890290E0909384028093830260918902AB
:103D600090E080E00C94101580E00E94FD088093A4
:103D70008902AECF65EE70E088E994E00E94AC0C59
:103D8000C0E0D0E02097F1F30E9451018823D1F3E5
:103D90000E940000F7CF80918E0290918F020197D0
:103DA00090938F0280938E02D0CDAA1BBB1B51E152
:103DB00007C0AA1FBB1FA617B70710F0A61BB70B9B
:103DC000881F991F5A95A9F780959095BC01CD0140
:103DD000089597FB072E16F4009407D077FD09D0BD
:103DE0000E94D51E07FC05D03EF4909581959F4F0B
:103DF0000895709561957F4F0895A1E21A2EAA1B30
:103E0000BB1BFD010DC0AA1FBB1FEE1FFF1FA2178A
:103E1000B307E407F50720F0A21BB30BE40BF50B87
:103E2000661F771F881F991F1A9469F76095709510
:103E3000809590959B01AC01BD01CF010895EE0FD7
:103E4000FF1F0590F491E02D0994A29FB001B39F4C
:103E5000C001A39F700D811D1124911DB29F700D93
:103E6000811D1124911D0895FB01DC0104C08D9179
:103E70000190801921F441505040C8F7881B990BDC
:103E80000895FB01DC0102C001900D9241505040A9
:103E9000D8F70895F894FFCFFFFFFFFF0000000060
:103EA0008701E7001401F3014501230137010000F8
:103EB0000000C60AE7000F070E0772616D2E6269E7
:103EC0006E000D0A002E006469736B2E696D670029
:0A3ED00062696F732E62696E0000D4
:107E0000112484B714BE81FFF0D085E080938100F7
:107E100082E08093C00088E18093C10086E0809377
:107E2000C20080E18093C4008EE0C9D0259A86E02C
:107E300020E33CEF91E0309385002093840096BBD3
:107E4000B09BFECF1D9AA8958150A9F7CC24DD24C4
:107E500088248394B5E0AB2EA1E19A2EF3E0BF2EE7
:107E6000A2D0813461F49FD0082FAFD0023811F036
:107E7000013811F484E001C083E08DD089C08234E0
:107E800011F484E103C0853419F485E0A6D080C0E4
:107E9000853579F488D0E82EFF2485D0082F10E0AE
:107EA000102F00270E291F29000F111F8ED06801E7
:107EB0006FC0863521F484E090D080E0DECF843638
:107EC00009F040C070D06FD0082F6DD080E0C81688
:107ED00080E7D80618F4F601B7BEE895C0E0D1E017
:107EE00062D089930C17E1F7F0E0CF16F0E7DF06D8
:107EF00018F0F601B7BEE89568D007B600FCFDCFD4
:107F0000A601A0E0B1E02C9130E011968C91119780
:107F100090E0982F8827822B932B1296FA010C0160
:107F200087BEE89511244E5F5F4FF1E0A038BF0790
:107F300051F7F601A7BEE89507B600FCFDCF97BE46
:107F4000E89526C08437B1F42ED02DD0F82E2BD052
:107F50003CD0F601EF2C8F010F5F1F4F84911BD097
:107F6000EA94F801C1F70894C11CD11CFA94CF0C13
:107F7000D11C0EC0853739F428D08EE10CD085E9AC
:107F80000AD08FE07ACF813511F488E018D01DD067
:107F900080E101D065CF982F8091C00085FFFCCF94
:107FA0009093C60008958091C00087FFFCCF809118
:107FB000C00084FD01C0A8958091C6000895E0E648
:107FC000F0E098E1908380830895EDDF803219F02E
:107FD00088E0F5DFFFCF84E1DECF1F93182FE3DFCA
:107FE0001150E9F7F2DF1F91089580E0E8DFEE27F6
:047FF000FF270994CA
:027FFE00040479
:00000001FF
