:020000040000FA
:100000000C94BD000C94E5000C94E5000C94E50004
:100010000C94E5000C94E5000C94E5000C94E500CC
:100020000C94E5000C94E5000C94E5000C94E500BC
:100030000C94E5000C94E5000C94E5000C94E500AC
:100040000C948A0C0C94E5000C94580C0C94320C13
:100050000C94E5000C94E5000C94E5000C94E5008C
:100060000C94E5000C94E50000000000240027003B
:100070002A0000000000250028002B0004040404CE
:100080000404040402020202020203030303030342
:10009000010204081020408001020408102001021F
:1000A00004081020000000080002010000030407FB
:1000B00000000000000000002E20446F6E6521004B
:1000C0002E20446F6E652120496E69742066696C2C
:1000D0006573797374656D00496E697420534420AB
:1000E00063617264004D616368696E652068616C6C
:1000F00074656421005374617274696E6720763888
:10010000362E2E2E00436F7079726967687420282E
:100110004329203230323120407261737069647536
:10012000696E6F2C20756E6465722047504C2D7679
:1001300033006176722D763836202D20496E746535
:100140006C203830383620656D756C61746F7220A4
:1001500072756E6E696E67206F6E2041726475698C
:100160006E6F20554E4F007C3C3E5E2B3D3F2F5B1B
:100170005D3B2C2A225C0000D40C11241FBECFEF63
:10018000D8E0DEBFCDBF11E0A0E0B1E0E4EBFBE2E0
:1001900002C005900D92A234B107D9F725E0A2E480
:1001A000B1E001C01D92A734B207E1F710E0CDEB3A
:1001B000D0E004C02197FE010E94AD15CC3BD107D1
:1001C000C9F70E940A0D0C94D8150C940000AF9248
:1001D000BF92CF92DF92EF92FF920F931F93CF9334
:1001E000DF936C017B018B01040F151FEB015E0196
:1001F000AE18BF08C017D10759F06991D601ED912B
:10020000FC910190F081E02DC6010995892B79F7C9
:10021000C501DF91CF911F910F91FF90EF90DF907B
:10022000CF90BF90AF900895FC01538D448D252F42
:1002300030E0842F90E0821B930B541710F0CF9680
:10024000089501970895FC01918D828D981761F0B2
:10025000A28DAE0FBF2FB11D5D968C91928D9F5FC9
:100260009F73928F90E008958FEF9FEF0895FC01A8
:10027000918D828D981731F0828DE80FF11D858D5B
:1002800090E008958FEF9FEF0895FC01918D228DEE
:10029000892F90E0805C9F4F821B91098F73992773
:1002A000089586E994E00E94450121E0892B09F434
:1002B00020E0822F089580E090E0892B29F00E94B1
:1002C000510181110C9400000895FC01A48DA80F28
:1002D000B92FB11DA35ABF4F2C91848D90E0019688
:1002E0008F739927848FA689B7892C93A089B189A8
:1002F0008C91837080648C93938D848D981306C049
:100300000288F389E02D80818F7D80830895EF92AC
:10031000FF920F931F93CF93DF93EC0181E0888FBF
:100320009B8D8C8D98131AC0E889F989808185FF8F
:1003300015C09FB7F894EE89FF896083E889F98931
:1003400080818370806480839FBF81E090E0DF9133
:10035000CF911F910F91FF90EF900895F62E0B8D86
:1003600010E00F5F1F4F0F731127E02E8C8D8E1141
:100370000CC00FB607FCFACFE889F989808185FFA8
:10038000F5CFCE010E946501F1CFEB8DEC0FFD2F73
:10039000F11DE35AFF4FF0829FB7F8940B8FEA8963
:1003A000FB8980818062CFCFEF92FF920F931F93E2
:1003B000CF93DF938C017B01D0E0C0E0F701EC0F1D
:1003C000FD1F6491662339F0C8010E948701892BC3
:1003D00011F02196F3CFCE01DF91CF911F910F91B4
:1003E000FF90EF900895CF93DF93EC01888D8823E1
:1003F000B9F0AA89BB89E889F9898C9185FD03C088
:10040000808186FD0DC00FB607FCF7CF8C9185FF6C
:10041000F2CF808185FFEDCFCE010E946501E9CF4B
:10042000DF91CF91089590E0FC01EC55FF4F2491AE
:10043000FC01E057FF4F3491FC01E458FF4FE49179
:10044000EE23C9F0222339F0233001F1A8F4213042
:1004500019F1223029F1F0E0EE0FFF1FEE58FF4FA7
:10046000A591B4918FB7F894EC91611126C03095A5
:100470003E233C938FBF08952730A9F02830C9F060
:10048000243049F7809180008F7D03C080918000E7
:100490008F7780938000DFCF84B58F7784BDDBCFEB
:1004A00084B58F7DFBCF8091B0008F778093B000B3
:1004B000D2CF8091B0008F7DF9CF3E2BDACFCF9392
:1004C000DF9390E0FC01E057FF4F249184589F4F49
:1004D000FC0184918823D1F090E0880F991FFC01E2
:1004E000E859FF4FA591B491FC01EE58FF4FC5911B
:1004F000D49161110EC09FB7F8948C91E22FE095D2
:100500008E238C932881E223E8839FBFDF91CF91D4
:1005100008958FB7F894EC91E22BEC938FBFF6CF50
:100520002FB7F89460914C0170914D0180914E016C
:1005300090914F012FBF08958EBD0DB407FEFDCFE2
:10054000089561E0FC0182810E9413028FEF0C94F8
:100550009C028FEF8EBD0DB407FEFDCF8EB50895C2
:10056000FF920F931F93CF93DF93F82E8B010E947E
:100570009002EB010E94A9028F1571F00E94900277
:100580006C1B7D0B06171707A8F780E0DF91CF9152
:100590001F910F91FF90089581E0F8CFCF92DF92E5
:1005A000EF92FF921F93CF93DF93FC01162F690107
:1005B0007A01838122E090E0281728F4963019F020
:1005C000220F9F5FF9CF292F206A26952CBD90FD21
:1005D00003C021E0963009F420E02DBD60E0828167
:1005E0000E94130268E572E08FEF0E94B002812F33
:1005F00080640E949C02C8E1D0E0D701C6010C2EA5
:1006000004C0B695A795979587950A94D2F70E944E
:100610009C022897C83F8FEFD80779F78FEF111109
:1006200001C085E90E949C02C0E00E94A90287FFE8
:1006300004C0CF3F11F0CF5FF8CFDF91CF911F9172
:10064000FF90EF90DF90CF900895CF93DF93EC0170
:100650009A01AB0189E0220F331F441F551F8A9571
:10066000D1F768E1CE010E94CE02882349F083E0F1
:100670008883CE010E94A10280E0DF91CF9108958E
:100680008EEF8EBDE6E9F2E00DB407FEFDCF81915D
:100690008EBD84E0E639F807B9F70DB407FEFDCF4B
:1006A0008FEF0E949C028FEF0E949C020E94A90281
:1006B000982F9F71953019F0898386E0D9CF68E52E
:1006C00072E08FEF0E94B002811105C087E088833D
:1006D000CE010E94A102CE010E94A10281E0CDCFF5
:1006E0000F931F93CF9380914601C1E0882399F027
:1006F00000917F0210918002409100015091010110
:100700006091020170910301C8010E942503C82F66
:10071000811106C0C0E08C2FCF911F910F910895D9
:100720004091420150914301609144017091450113
:10073000411551056105710569F0C8010E94250345
:10074000882341F310924201109243011092440118
:100750001092450110924601DECFCF92DF92EF92C8
:10076000FF921F93CF93DF936B017C01142F809135
:10077000000190910101A0910201B09103018C153B
:100780009D05AE05BF0509F44FC00E947003882384
:10079000C9F0C0917F02D0918002A701960189E043
:1007A000220F331F441F551F8A95D1F761E1CE01F7
:1007B0000E94CE02882371F084E08883CE010E94DB
:1007C000A10280E0DF91CF911F91FF90EF90DF9029
:1007D000CF9008956CE271E08EEF0E94B00281111B
:1007E00005C085E08883CE010E94A1028FEF8EBDF7
:1007F000E6E9F2E00DB407FEFDCF9EB591938EBD04
:1008000094E0E639F907B1F70DB407FEFDCF0E9479
:10081000A902CE010E94A102C0920001D092010162
:10082000E0920201F092030181E0112359F28093DA
:100830004601C8CF4F925F926F927F929F92AF9284
:10084000BF92CF92DF92EF92FF920F931F93CF93BD
:10085000DF932EE632E03093800220937F028823DC
:1008600009F4DEC040E060E070E0CB010E94AD031F
:10087000811112C0D0E08D2FDF91CF911F910F9188
:10088000FF90EF90DF90CF90BF90AF909F907F90C0
:100890006F905F904F900895C0905C04D0905D047D
:1008A000E0905E04F0905F0440E0C701B6010E9452
:1008B000AD03D82F8823F1F2809194048535D1F6C9
:1008C000809195048A3AB1F69090A60290927E02A9
:1008D000C091A302C09392020091AC021091AD02AC
:1008E00010937D0200937C022091A7023091A80210
:1008F0003093940220939302A090A402B090A5029A
:10090000D701C6018A0D9B1DA11DB11D80937802E0
:1009100090937902A0937A02B0937B02909EA001FB
:10092000919E500D1124840F951FA11DB11D809320
:10093000740290937502A0937602B093770245E01B
:10094000220F331F4A95E1F721503E4F232F3327C3
:100950002695820F931FA11DB11D80938E02909347
:100960008F02A0939002B09391024090A902509000
:10097000AA02712C612C4114510441F44090B6023A
:100980005090B7026090B8027090B902C81AD90AA4
:10099000EA0AFB0AC701B601640D751D861D971D85
:1009A0002C2F30E050E040E00E948B153093730212
:1009B000209372026091A1027091A20261157240AF
:1009C00009F058CF0115110509F454CF253F6FE008
:1009D000360708F44FCF81E04816510480E86806D6
:1009E000710408F047CFAB2809F444CF992009F4EB
:1009F00041CFC32EDD240C151D0508F43BCFCC23BD
:100A000009F438CF8C2F90E09C01215031098223CA
:100A10009323892B09F02ECF81E0809395022BCF71
:100A2000C12CD12C760140CFCF92DF92EF92FF9272
:100A30000F931F93CF93DF938230910550F480E0A2
:100A4000DF91CF911F910F91FF90EF90DF90CF90AA
:100A5000089520917202309173022F5F3F4F281743
:100A6000390768F3EB018C01212F3327C0907802FE
:100A7000D0907902E0907A02F0907B02C20ED31EF1
:100A8000E11CF11C8091000190910101A0910201F3
:100A9000B0910301C816D906EA06FB0689F4F801ED
:100AA000FF27EE0FFF1FEA56FD4FD183C08381E081
:100AB0008093460180917E02823050F481E0C0CF65
:100AC00040E0C701B6010E94AD038111E8CFB7CF66
:100AD00080917C0290917D02C80ED91EE11CF11C10
:100AE000C0924201D0924301E0924401F09245014C
:100AF000E5CFCF92DF92EF92FF920F931F93CF93A8
:100B0000DF9320917202309173022F5F3F4F2817BD
:100B1000390750F480E0DF91CF911F910F91FF9042
:100B2000EF90DF90CF9008958B01EC012D2F3327AC
:100B3000609178027091790280917A0290917B02A3
:100B4000620F731F811D911DC0900001D0900101A3
:100B5000E0900201F09003016C157D058E059F0564
:100B600061F4DD27CC0FDD1FCA56DD4F88819981E6
:100B7000F8019183808381E0CECF40E00E94AD03F5
:100B80008111EFCFC7CF4F925F926F927F928F927A
:100B90009F92AF92BF92CF92DF92EF92FF920F930C
:100BA0001F93CF93DF93EC016A017B018D818370EA
:100BB00091F480E0DF91CF911F910F91FF90EF9022
:100BC000DF90CF90BF90AF909F908F907F906F906D
:100BD0005F904F9008958A859B85AC85BD858C1567
:100BE0009D05AE05BF0528F3C114D104E104F1044D
:100BF00041F41F861E86188A198A1A8A1B8A81E088
:100C0000D9CF80909202912CB12CA12CCB01BA01AA
:100C1000615071098109910939E096958795779519
:100C200067953A95D1F7A50194010E948B1589012A
:100C300088899989AA89BB89C816D906EA06FB065C
:100C400020F00097A105B105A9F4888599859F87B3
:100C50008E875E018EE0A80EB11C01151105F1F022
:100C6000B5018E859F850E9479050150110981117A
:100C7000F4CF9FCFBC01CD01615071098109910969
:100C800029E096958795779567952A95D1F7A501DF
:100C900094010E948B15021B130BDBCFC88AD98AE3
:100CA000EA8AFB8AACCFCF93DF93209193023091F5
:100CB00094028217930728F090E080E0DF91CF91B3
:100CC0000895462FEC019C0154E0369527955A95DE
:100CD000E1F76091740270917502809176029091B3
:100CE0007702620F731F811D911D0E94AD0388233F
:100CF00019F3CE018F70992725E0880F991F2A9547
:100D0000E1F78A569D4FDACFCF93DF93FC0125811F
:100D100027FF18C0EC0161E0868197810E9453068D
:100D20000097A1F04A855B856C857D85FC01448F29
:100D3000558F668F778F28853985338F228F8D81E8
:100D40008F778D83DF91CF910C94700380E0DF91DA
:100D5000CF91089583E395E00E94840610923805B0
:100D60000895CF92DF92EF92FF920F931F93CF934C
:100D7000DF9300D0CDB7DEB77C01FC010685178577
:100D80000115110511F401E010E0D12CC12C809166
:100D9000720290917302C816D906F8F48017910771
:100DA00010F401E010E00F5F1F4FBE016F5F7F4F37
:100DB000C8010E947905882381F089819A81892B55
:100DC00021F0FFEFCF1ADF0AE2CF6FEF7FEFC8010C
:100DD0000E941405D82E81110DC0D12C8D2D0F909D
:100DE0000F90DF91CF911F910F91FF90EF90DF90C7
:100DF000CF900895F70186859785009749F0B8014F
:100E00000E941405882349F3F70117870687E6CF68
:100E100085818068858311870087F6CF089590E0EB
:100E200080E008950F931F93CF93DF93D0919502A5
:100E3000D11107C0D0E08D2FDF91CF911F910F917D
:100E40000895209138052370A9F7C62F8C0160E022
:100E50000E945306FC01892B69F38081882351F39A
:100E6000853E41F38385982F987121F780FF03C059
:100E70008C2F8271F9F61092420510924105109262
:100E800043051092440510924505109246051093B3
:100E90003A0500933905848D958DA68DB78D809385
:100EA0003D0590933E05A0933F05B0934005828D8C
:100EB000938D90933C0580933B05CF70C09338058C
:100EC000BACFAF92BF92CF92DF92FF920F931F9350
:100ED000CF93DF93CDB7DEB72B970FB6F894DEBF75
:100EE0000FBECDBF382F80919502882309F468C0CA
:100EF000209138052370B9F4FE013196AE01445FAC
:100F00005F4F6F0180E28193E417F507E1F7A32FAC
:100F1000B92F90E027E08D91382F882321F18E3270
:100F200039F42A3011F480E04BC098E02AE0F3CF86
:100F3000E7E6F1E04491442321F031968413FACF9F
:100F4000F2CF291780F34FED480F4E3560F74FE988
:100F5000480F4A3110F430EE380FF601E90FF11D59
:100F600030839F5FD8CF89818032E9F2F62E10E07E
:100F700000E0AA24AA94BA2C809193029091940242
:100F80000817190790F560E0C8010E945306BC01DC
:100F9000009749F2FC019081992311F1953E29F4C3
:100FA000B7FC20C00F5F1F4FE7CF4BE050E0C601FA
:100FB0000E94C215892BB1F76F2DC8010E9412073C
:100FC0002B960FB6F894DEBF0FBECDBFDF91CF9149
:100FD0001F910F91FF90DF90CF90BF90AF90089539
:100FE000B7FE05C058019111DDCFB7FC9CCF6F2D26
:100FF0006274623409F097CF61E0C5010E94530624
:10100000009709F490CF20E2FC0111922A95E9F7AC
:101010002BE0F601DC0101900D922A95E1F721E227
:1010200038E2FC01318B208B40E058E0578746873F
:10103000338B228B318F208F578B468B0E9470030E
:10104000882309F470CF62E4C501B8CF4F925F9254
:101050006F927F928F929F92AF92BF92CF92DF92C8
:10106000EF92FF920F931F93CF93DF935C018B015D
:101070008091380580FD13C08FEF9FEFDF91CF91F6
:101080001F910F91FF90EF90DF90CF90BF90AF90A6
:101090009F908F907F906F905F904F900895809178
:1010A000430590914405A0914505B09146054091B6
:1010B0003D0550913E0560913F05709140056C01E2
:1010C0007D01C00ED11EE11CF11C4C155D056E05A5
:1010D0007F0518F48A01081B190B7801812C32E076
:1010E000932EE114F10409F486C080914305909198
:1010F0004405A0914505B0914605C0909202AC010F
:10110000BD0129E076956795579547952A95D1F7C2
:10111000DD24DA94DC0CD422EC01D170DD2009F45A
:1011200048C0209141053091420522503109AC2D33
:10113000B0E00E94B31540908E0250908F026090F4
:10114000900270909102640D751D861D971D6D0DA6
:10115000711D811D911D40E00E94AD03882309F49B
:101160008BCFC4018C1B9D0B67018E159F0508F466
:101170006C01BE016A567D4FA601C5010E94CF15C4
:101180008091430590914405A0914505B091460595
:101190008C0D9D1DA11DB11D8093430590934405A9
:1011A000A0934505B0934605AC0CBD1CEC18FD089A
:1011B00098CF209709F0B5CF8091410590914205D5
:1011C000009791F480913B0590913C0590934205E6
:1011D0008093410580914105909142050297863F99
:1011E0009F4F08F49ECF48CF61E475E00E947905D7
:1011F0008111F0CF41CFC80141CF0F931F93CF93FF
:10120000DF931F92CDB7DEB78C0161E082E291E0FF
:101210000E946107A80170E060E083E395E00E940E
:10122000C30561E070E0CE0101960E9426080981A5
:10123000019711F00FEF1FEF0E94AA06802F0F9069
:10124000DF91CF911F910F9108951F93CF93DF935B
:10125000EC010E94FD08182FCE0101960E94FD08A6
:10126000912FDF91CF911F910895EF92FF920F93ED
:101270001F93CF93DF937B01EA010E9425098C0124
:10128000C7010E94250924E0000F111F2A95E1F7EC
:101290008C0F9D1F800F911FDF91CF911F910F9198
:1012A000FF90EF900895CF93DF93EB018F579F4FFF
:1012B0000E9425098C0F9D1FDF91CF910C94FD0892
:1012C000CF93DF9380936B02C82FD0E0BE0188E0FC
:1012D00090E00E94530980935402BE0189E090E09F
:1012E0000E94530980935202BE018EE090E00E945A
:1012F000530980936002BE018AE090E0DF91CF91B4
:101300000C9453092F923F924F925F926F927F926B
:101310008F929F92AF92BF92CF92DF92EF92FF9205
:101320000F931F93CF93DF9300D0CDB7DEB78C011F
:101330005B014A01FC01858181FFDEC082FDC9C0DD
:101340006401212C32E0332EF80180899189A28931
:10135000B38970909202AC01BD0129E07695679542
:10136000579547952A95D1F766246A94670C6422AD
:101370007C01F1E0FF2261101FC0F801868597858E
:10138000E114F10409F0E5C0009709F4B9C0BE0109
:101390006F5F7F4F0E947905882309F4ADC0898172
:1013A0009A81883FFFEF9F0708F4C9C0C8010E94D7
:1013B000B106882309F4A0C0F8012685378522509C
:1013C0003109A72DB0E00E94B31520918E02309113
:1013D0008F024091900250919102620F731F841FFF
:1013E000951F9B01AC01260D311D411D511D290189
:1013F0003A01E114F10409F0BFC0F80140895189B4
:101400006289738982859385A485B58548175907B4
:101410006A077B0708F4B0C00E947003882309F4B0
:101420006BC04092000150920101609202017092E3
:10143000030181E08093460131016E187F08C614D4
:10144000D70408F43601A301B501C7018A569D4FA0
:101450000E94CF15F80180899189A289B389860DF0
:10146000971DA11DB11D808B918BA28BB38BC618CC
:10147000D708A60CB71CC114D10409F065CF42856A
:10148000538564857585481759076A077B0738F4C3
:10149000258182879387A487B58720682583F801F3
:1014A000858183FD50C0C4010F900F90DF91CF91D3
:1014B0001F910F91FF90EF90DF90CF90BF90AF9072
:1014C0009F908F907F906F905F904F903F902F9064
:1014D0000895428553856485758580899189A2899F
:1014E000B389481759076A077B0709F429CFC80150
:1014F0000E94C305811124CF81E0F801848343C099
:10150000808591850097D9F4C8010E94B10688238F
:1015100099F3F8012685378522503109A72DB0E0CF
:101520000E94B31540908E0250908F0260909002FE
:1015300070909102460E571E681E791E5ECFF8010C
:101540009787868739CFC8010E9484068111ABCF67
:10155000D3CF9C0122503109A72DB0E00E94B315D2
:1015600040908E0250908F02609090027090910295
:10157000460E571E681E791E41E0C301B2010E944B
:10158000AD03811159CF8FEF9FEF8ECFCF93DF93B4
:101590001F92CDB7DEB7698341E050E0BE016F5FB7
:1015A0007F4F0E94820921E030E0019711F030E086
:1015B00020E0C9010F90DF91CF9108951F93CF9341
:1015C000DF93EC01162F62E082E291E00E94610756
:1015D000AE0170E060E083E395E00E94C305612FF7
:1015E00070E041E050E083E395E00E9482090E94B0
:1015F000AA06812FDF91CF911F9108950C94DE0AE6
:101600000F931F93CF93DF938C01D62FC72F0E9488
:10161000FE0A6C2FC80101960E94FE0A8D2F9C2F96
:10162000DF91CF911F910F91089561E0892B09F40B
:1016300060E080E390E00C94FE0ACF93DF93EC012E
:1016400081E0809388024FEF5FEF64E070E08AE012
:1016500090E00E9435090E94FD08809389028093E2
:10166000870290918802992351F12091870230914D
:1016700088023093860220938502D0938402C0931F
:101680008302D0938802C0938702D0938202C093D2
:101690008102C09187028C1759F04FEF5FEF64E031
:1016A00070E08AE090E00E9435096C2F0E94DE0A0B
:1016B0001092880280918702DF91CF910895282FA0
:1016C00030E030938602209385029E0133273093C9
:1016D000840220938302C093870230938202209376
:1016E0008102D7CF0F931F93CF938DEC0E94600997
:1016F00082E090EF90938D0280938C0209E010E0DD
:1017000001501109E0F0C80188960E94FD08C82F19
:10171000B80183E190E00E9453092C2F30E002C011
:10172000220F331F8A95E2F780918C0290918D02EF
:10173000280F391F30938D0220938C02E1CF8091C6
:101740008C0290918D020E941D0B89E090E00E9416
:1017500025090E941D0B80918A0290918B020E94A4
:101760001D0B82E090E00E94FD0880938902909119
:101770008802992309F44CC08091870290918802D5
:1017800090938602809385028091890290918A02CB
:1017900090938402809383029093880280938702BF
:1017A00090938202809381026091870282E190E0AF
:1017B0000E94DE0A2091880280918A0290918B0219
:1017C00090938602809385028091FA1190E0222303
:1017D00021F08091FA119091FB11909384028093F3
:1017E000830290938B0280938A029093820280936B
:1017F000810260E08DE290E00E94FE0A60E08EE2ED
:1018000090E00E94FE0A80E0CF911F910F91089511
:101810002091870230E03093860220938502282FA2
:1018200030E03093840220938302809387023093C8
:10183000820220938102B8CF0F931F93CF93DF933F
:10184000EC010E94D4018C0142E050E06AE271E0B8
:10185000CE010E94E700800F911FDF91CF911F9171
:101860000F9108951F920F920FB60F9211242F938C
:101870003F934F935F936F937F938F939F93AF9318
:10188000BF93EF93FF9386E994E00E946501FF9177
:10189000EF91BF91AF919F918F917F916F915F91E8
:1018A0004F913F912F910F900FBE0F901F90189561
:1018B0001F920F920FB60F9211242F938F939F9325
:1018C000EF93FF93E091A604F091A7048081E0914B
:1018D000AC04F091AD0482FD1BC090818091AF04F7
:1018E0008F5F8F732091B004821741F0E091AF04B5
:1018F000F0E0EA56FB4F958F8093AF04FF91EF9194
:101900009F918F912F910F900FBE0F901F90189560
:101910008081F4CF1F920F920FB60F9211242F9354
:101920003F938F939F93AF93BF9380914C0190917E
:101930004D01A0914E01B0914F0130914B0123E038
:10194000230F2D3758F50196A11DB11D20934B0192
:1019500080934C0190934D01A0934E01B0934F01A1
:101960008091470190914801A0914901B0914A01AD
:101970000196A11DB11D8093470190934801A0934A
:101980004901B0934A01BF91AF919F918F913F91CF
:101990002F910F900FBE0F901F90189526E8230FE0
:1019A0000296A11DB11DD2CFE6E9F4E013821282A6
:1019B00088EE93E0A0E0B0E084839583A683B783AC
:1019C00088E091E09183808385EC90E0958784871F
:1019D00084EC90E09787868780EC90E0918B808BF9
:1019E00081EC90E0938B828B82EC90E0958B848BE2
:1019F00086EC90E0978B868B118E128E138E148E50
:101A0000E3E3F5E0138212828AE191E0918380831F
:101A100015820895789484B5826084BD84B5816010
:101A200084BD85B5826085BD85B5816085BD8091A9
:101A30006E00816080936E00109281008091810021
:101A40008260809381008091810081608093810019
:101A5000809180008160809380008091B1008460DB
:101A60008093B1008091B00081608093B00080913C
:101A70007A00846080937A0080917A0082608093FB
:101A80007A0080917A00816080937A0080917A0058
:101A9000806880937A001092C100E091A604F091D2
:101AA000A70482E08083E091A204F091A304108255
:101AB000E091A404F091A5048FEC80831092AE0411
:101AC000E091AA04F091AB0486E08083E091A80441
:101AD000F091A904808180618083E091A804F09155
:101AE000A904808188608083E091A804F091A90412
:101AF000808180688083E091A804F091A9048081AE
:101B00008F7D808362E371E086E994E00E941C0C83
:101B100065E071E086E994E00E941C0C68ED70E0DD
:101B200086E994E00E94D40102E07AE0F72EE3E532
:101B3000EE2E00937102F092700210926E020E94DB
:101B40009002EB0161E0809170020E945F0261E00F
:101B5000809170020E94130260E08CE00E945F029C
:101B600061E08AE00E945F0261E08AE00E94130265
:101B700061E08BE00E945F0261E08DE00E945F0205
:101B8000ECBC1AE08FEF0E949C021150D9F760E084
:101B9000809170020E94130220E030E0A90160E011
:101BA0008EE692E00E94CE02182F8130C9F00E948A
:101BB00090026C1B7D0B613D774070F310936F02B8
:101BC00081E080936E028EE692E00E94A10241E0E5
:101BD00050E06DE271E086E994E00E94E700A9CF51
:101BE00020E030E0A90167E38EE692E00E94CE0299
:101BF00020E030E0A90169E28EE692E00E94CE0288
:101C0000182F882361F00E9490026C1B7D0B613DB0
:101C1000774030F310936F0200936E02D4CF8EE6BC
:101C200092E00E94A10260EC70E086E994E00E94DC
:101C3000D40181E00E941A0481110DC00E941A048F
:101C4000811109C041E050E06DE271E086E994E065
:101C50000E94E700EECF68EB70E086E994E00E9416
:101C60001C0C65EF70E086E994E00E941C0C60E0BB
:101C700070EF89E090E00E94000B60E08DE290E060
:101C80000E94FE0A60E884E090E00E94FE0A63E0A1
:101C90008FE291E00E94610760913D0570913E05E1
:101CA00090E080E00E94000BD0E0C0E0C1305FEF28
:101CB000D50750F561E088E391E00E94610760E894
:101CC00070E080E591E00E942608C80FD91F0E94AD
:101CD000AA0662E482E291E00E946107AE010D2E45
:101CE000000C660B770B615F7F4F83E395E00E94EA
:101CF000C30540E850E060E571E083E395E00E94B1
:101D000082090E94AA06D2CF80E091E090938B02D4
:101D100080938A0255245394712C612C912C812C30
:101D2000D12CC12CB12CA12C01E010E089E090E075
:101D30000E94250964E0880F991F6A95E1F72091B8
:101D40008A0230918B02820F931F0E94FD08282F78
:101D500030E030936D0220936C02882309F4A2C610
:101D60000E946009A0916B028A2F877080936A029B
:101D7000A170A09388028695817080936902E0919A
:101D80006C02F0916D0291817281292F372F30936F
:101D9000680220936702B38170936502B093660274
:101DA00043815481509364024093630240916202E4
:101DB000442319F041504093620240916102442350
:101DC00019F041504093610280916002882309F428
:101DD0008FC0A90186E0569547958A95E1F7437033
:101DE00040935F02977090935E0253E0369527957B
:101DF0005A95E1F7277020935D0241118AC0963011
:101E000009F08CC0248135813093640220936302F1
:101E100024E030E041118EC030935C0220935B02DD
:101E2000692F70E0433009F48AC0C90101960E940D
:101E3000530990E00E942509EC0160915E0270E078
:101E400080915B0290915C0202960E94530920915E
:101E5000650230916602829F7001839FF00C11240D
:101E6000EC0EFD1E60915E0270E080915B0290912D
:101E70005C020E945309C82FD0E080916202811158
:101E80005CC060915E0270E080915B0290915C02A8
:101E900003960E945309A701BE0190E00E943509F4
:101EA00090935A028093590290935802809357025C
:101EB00030915D02432F50E0440F551F209188025E
:101EC000222309F44BC09A01309356022093550205
:101ED00040916902442361F030938D0220938C027B
:101EE00090935602809355023093580220935702E4
:101EF000E0915402E73008F019CFF0E0EE57F04FD0
:101F00000C94AD15B70F0910AF106D107510371187
:101F1000A012423009F476CF413029F07093630269
:101F2000B093640275CF272F770F330B309366027F
:101F30002093650230E020E06FCF80E0ACCF660FE9
:101F4000771FAA2311F0CB01ABCF892F86958695F9
:101F5000860F972F911D87709927A2CF232F269543
:101F60002695240F352F311D27703327ADCF609173
:101F70006B026695677060935302E09067020E2CC7
:101F8000000CFF08C0918802D0E070E08FE090E084
:101F90000E94530990E00E94FD088823A1F091E07F
:101FA000C927CE9D9001CF9D300DDE9D300D1124AF
:101FB00080918A0290918B02820F931F90938B02E3
:101FC00080938A02B3CE6091530270E080E190E08A
:101FD0000E94530990E00E94FD088111E0CF6091BA
:101FE000530270E081E190E00E94530990E00E946A
:101FF000FD08482E6091530270E082E190E00E945B
:10200000530990E00E94250991E04812C9CF90E061
:10201000C7CF90916B0281E0492F487093FF80E019
:102020008093880290916A02292F30E0220F331F9B
:10203000442389F1C9010E94FD088093890280939D
:10204000870240918802442379F180918702909120
:102050008802909386028093850280916702909116
:102060006802909384028093830290938802809305
:1020700087029093820280938102609187029091FF
:102080006A02292F30E0220F331F4423E9F0C901EF
:102090000E94DE0A4BCE892F86958695820F932F5C
:1020A000911D87709927C7CF90E090938602809307
:1020B000850220916702822F90E0909384028093A2
:1020C000830220938702D5CF892F86958695820F2C
:1020D000932F911D87709927DBCF80916A0290E042
:1020E0000E9425090E941D0B21CE80916A0290E07A
:1020F0000E942509EC015092880284E090E00E9441
:102100002509BC016E5F7F4F84E090E00E94000BC8
:102110004EEF5FEF64E070E08AE090E00E943509E6
:102120000E94FD0880938902809387029091880223
:10213000D0938602C0938502992379F0809187021B
:1021400090918802909384028093830290938202FC
:102150008093810210928802E9CD90E0F3CF5092F3
:1021600088021092690280916A0280935D02209138
:102170005F0284E090E0222311F090E080E09093F1
:102180005C0280935B0260915E0270E0233008F095
:1021900020C101960E94530990E00E942509EC019C
:1021A00060915E0270E080915B0290915C02029609
:1021B0000E9453092091650230916602829F70014E
:1021C000839FF00C1124EC0EFD1E60915E0270E006
:1021D00080915B0290915C020E945309C82FD0E06D
:1021E000809162028111F3C060915E0270E0809183
:1021F0005B0290915C0203960E945309A701BE0105
:1022000090E00E943509BC0170935A026093590214
:10221000709358026093570290915D02492F50E0ED
:10222000440F551F809188029A01811108C0292FFF
:1022300026952695240F352F311D2770332730938F
:1022400056022093550280916902882361F03093F1
:102250008D0220938C027093560260935502309346
:102260005802209357028091520280935D02809120
:102270005D02823008F0E9C088E190E00E94FD082C
:10228000809389029091880220915D02992309F43C
:10229000A3C08091870290918802909386028093D8
:1022A00085024091890250918A02509384024093A2
:1022B0008302840F951F019630E0220F331F821B8B
:1022C000930B90938802809387029093820280936D
:1022D00081026091870280915502909156020E947E
:1022E000DE0A609185027091860281E06827809104
:1022F000810290918202682779277093840260930B
:10230000830254E0769567955A95E1F761708AE209
:1023100090E00E94FE0A2091810230918202809119
:102320008502909186022817390709F071C060E094
:1023300080E390E00E94FE0A8091880258E0859F29
:10234000C00111240796A80102C0440F551F8A95A9
:10235000E2F720918502309186022F5F3F4F8091F6
:102360005D02281B310981E090E04217530711F00C
:1023700090E080E00E94150B8091880268E0869FC3
:10238000C00111240796A80102C0440F551F8A9569
:10239000E2F720918502309186022F5F3F4F8091B6
:1023A0005D02281B310981E090E04217530711F0CC
:1023B00090E080E00E94150B80915402853019F462
:1023C00080E10E9460098091870290E08BCE80E0DE
:1023D00015CF660F771F18CF90918702492F50E0D5
:1023E0005093860240938502482F50E05093840218
:1023F0004093830230E0220F331FB801621B730B3E
:10240000460F571F892F840F8093870290E05DCF7E
:1024100088E290E00E94FD084091880298E0499F80
:10242000A0011124495F5F4F209183023091840203
:1024300002C0369527954A95E2F7A9014827CA01B7
:10244000817099270E94150B77CF863009F46FC0F1
:10245000833031F489E090E00E9425090E941D0B31
:1024600080915D0281FF23C090915F0221E030E006
:10247000933011F430E020E0929FA001939F500D23
:102480001124911105C021E080915E02863009F08F
:1024900020E080918A0290918B020296840F951F12
:1024A00030E0220F331F820F931F0E941D0B80917B
:1024B0005D0280FF07C080915502909156020296FE
:1024C0000E94FD08809155029091560202960E944A
:1024D000FD08682F70E089E090E00E94000B809179
:1024E0005502909156020E94FD08809387029091B8
:1024F000880220918A0230918B02309386022093C9
:102500008502992391F0809187029091880290939F
:1025100084028093830290938B0280938A0290932B
:102520008202809381028AE94CCF90E0F0CF8091C3
:10253000590290915A020E94FD088093870243CF6E
:1025400080915502909156029093580280935702C1
:10255000E0915D02E83008F0E9CBF0E0EE54FD4E8A
:102560000C94AD15BA12960E05133C139213FE137C
:102570006A14E71480E20E94600920918A02309177
:102580008B022F5F3F4F80918802820F932F911D06
:1025900090938B0280938A02809157029091580207
:1025A0000E94FD0880938702909188029923E1F0B0
:1025B0002091870230918802309386022093850211
:1025C00040916302509164025093840240938302CD
:1025D000242335233093820220938102682F809137
:1025E00057029091580254CD282F30E03093860244
:1025F0002093850220916302422F50E05093840281
:1026000040938302282330E0E5CF0E94FD088093A9
:102610008902909188029923E9F080918702909134
:10262000880290938602809385028091890290911E
:102630008A02909384028093830280959095909370
:102640008802809387029093820280938102609136
:102650008702C5CF2091870230E030938602209315
:102660008502282F30E030938402209383028095E6
:102670008093870290E0E7CF0E94FD088093890253
:10268000909188029923E1F18091870290918802CC
:1026900090938602809385028091890290918A02AC
:1026A00090938402809383029195819591099093F0
:1026B00088028093870290938202809381026091C6
:1026C000870280915702909158020E94DE0A109270
:1026D00086021092850288E20E94600961E02091E2
:1026E0008102309182028091850290918602821748
:1026F000930708F060E088E290E00E94FE0A16CBA3
:102700002091870230E03093860220938502282FA3
:1027100030E0309384022093830281958093870276
:1027200090E0C9CF80918802882391F180E10E94D6
:102730006009C0915902D0915A02C350D74F90E01E
:1027400080E00E942509C89FB001C99F700DD89FE5
:10275000700D11247093820260938102770F660BD3
:10276000762F8091880290E001960E94000B609184
:1027700081027091820290E080E00E94000B60E094
:1027800088E290E00E94FE0AC5010E94150BCECAA5
:1027900080E10E946009C0915902D0915A02C35051
:1027A000D74FDD2790E080E00E94FD08782F7C9FC6
:1027B000C0017D9F900D112490938202809381022D
:1027C0008091880290E060E001960E94FE0A60918C
:1027D00081027091820290E080E00E94000B809163
:1027E000810290918202882761E0892B09F460E0E0
:1027F00088E290E00E94FE0AC601C7CF809188025D
:10280000882381F180E10E946009C0915902D09132
:102810005A02C350D74F90E080E00E942509C89F1C
:10282000B001C99F700DD89F700D11247093820262
:1028300060938102770F660B762F8091880290E07B
:1028400001960E94000B609181027091820290E0DB
:1028500080E00E94000B60E088E290E00E94FE0AA7
:10286000C40193CF80E10E946009C0915902D091C8
:102870005A02C350D74F90E080E00E94FD088C02BE
:10288000B00111247093820260938102770F660B6E
:10289000762F8091880290E001960E94FE0A609156
:1028A00081027091820290E080E00E94000B809192
:1028B000810290918202282F082E000C330B61E0D8
:1028C0002817390709F460E088E290E00E94FE0AC8
:1028D000C3015BCF8091590290915A0220918802E6
:1028E0002223E9F10E94FD0890E090935102809329
:1028F0005002892B09F4D3C08091880290E00196A0
:102900000E94250990E080E00E942509EC01909347
:102910008D0280938C0260915002709151020E944E
:10292000631570935C0260935B0290E080E00E940C
:10293000000B2091500230915102AC01429FC00126
:10294000439F900D529F900D1124BE01681B790B7F
:102950008091880290E001960E94000BE7C90E94D6
:10296000FD0890E09093510280935002892B09F466
:1029700096C08091880290E001960E94FD0890E048
:1029800080E00E942509C82F80938C0290938D02CD
:1029900060915002709151020E94631570935C0225
:1029A00060935B02CB0199276817790709F077C01C
:1029B00090E080E00E94DE0A909150026C2F899F87
:1029C000601911248091880290E0019696CE809142
:1029D000590290915A02209188022223A1F10E946B
:1029E000FD0890E09093510280935002892B09F4E6
:1029F00056C08091880290E001960E94250990E0DF
:102A000080E00E942509EC0190938D0280938C0256
:102A100060915002709151020E94771570935C0290
:102A200060935B0290E080E00E94000B20915002D6
:102A300030915102BC01629FC001639F900D729F53
:102A4000900D112482CF0E94FD08082E000C990BD6
:102A50009093510280935002892B09F18091880252
:102A600090E001960E94FD0890E080E00E94250918
:102A7000C82F80938C0290938D02609150027091C8
:102A800051020E94771570935C0260935B02262FBF
:102A9000062E000C330B6217730709F489CF0E94CE
:102AA000720B44C965EE70E086E994E00E941C0C4C
:102AB000C0E0D0E02097F1F30E9451018823D1F3C8
:102AC0000E940000F7CFAA1BBB1B51E107C0AA1F41
:102AD000BB1FA617B70710F0A61BB70B881F991FBF
:102AE0005A95A9F780959095BC01CD01089597FB63
:102AF000072E16F4009407D077FD09D00E946315C5
:102B000007FC05D03EF4909581959F4F08957095F0
:102B100061957F4F0895A1E21A2EAA1BBB1BFD01F0
:102B20000DC0AA1FBB1FEE1FFF1FA217B307E407AC
:102B3000F50720F0A21BB30BE40BF50B661F771F04
:102B4000881F991F1A9469F76095709580959095E4
:102B50009B01AC01BD01CF010895EE0FFF1F059051
:102B6000F491E02D0994A29FB001B39FC001A39FEF
:102B7000700D811D1124911DB29F700D811D1124B6
:102B8000911D0895FB01DC0104C08D910190801915
:102B900021F441505040C8F7881B990B0895FB0160
:102BA000DC0102C001900D9241505040D8F70895C9
:102BB000F894FFCFFFFFFFFF000000008701E70050
:102BC0001401F30145012301370100000000C60A8A
:102BD000E7000F070E0772616D2E62696E000D0A25
:102BE000002E006469736B2E696D670062696F73F4
:062BF0002E62696E000078
:107E0000112484B714BE81FFF0D085E080938100F7
:107E100082E08093C00088E18093C10086E0809377
:107E2000C20080E18093C4008EE0C9D0259A86E02C
:107E300020E33CEF91E0309385002093840096BBD3
:107E4000B09BFECF1D9AA8958150A9F7CC24DD24C4
:107E500088248394B5E0AB2EA1E19A2EF3E0BF2EE7
:107E6000A2D0813461F49FD0082FAFD0023811F036
:107E7000013811F484E001C083E08DD089C08234E0
:107E800011F484E103C0853419F485E0A6D080C0E4
:107E9000853579F488D0E82EFF2485D0082F10E0AE
:107EA000102F00270E291F29000F111F8ED06801E7
:107EB0006FC0863521F484E090D080E0DECF843638
:107EC00009F040C070D06FD0082F6DD080E0C81688
:107ED00080E7D80618F4F601B7BEE895C0E0D1E017
:107EE00062D089930C17E1F7F0E0CF16F0E7DF06D8
:107EF00018F0F601B7BEE89568D007B600FCFDCFD4
:107F0000A601A0E0B1E02C9130E011968C91119780
:107F100090E0982F8827822B932B1296FA010C0160
:107F200087BEE89511244E5F5F4FF1E0A038BF0790
:107F300051F7F601A7BEE89507B600FCFDCF97BE46
:107F4000E89526C08437B1F42ED02DD0F82E2BD052
:107F50003CD0F601EF2C8F010F5F1F4F84911BD097
:107F6000EA94F801C1F70894C11CD11CFA94CF0C13
:107F7000D11C0EC0853739F428D08EE10CD085E9AC
:107F80000AD08FE07ACF813511F488E018D01DD067
:107F900080E101D065CF982F8091C00085FFFCCF94
:107FA0009093C60008958091C00087FFFCCF809118
:107FB000C00084FD01C0A8958091C6000895E0E648
:107FC000F0E098E1908380830895EDDF803219F02E
:107FD00088E0F5DFFFCF84E1DECF1F93182FE3DFCA
:107FE0001150E9F7F2DF1F91089580E0E8DFEE27F6
:047FF000FF270994CA
:027FFE00040479
:00000001FF
