:020000040000FA
:100000000C94B5000C94DD000C94DD000C94DD0024
:100010000C94DD000C94DD000C94DD000C94DD00EC
:100020000C94DD000C94DD000C94DD000C94DD00DC
:100030000C94DD000C94DD000C94DD000C94DD00CC
:100040000C94F90C0C94DD000C94C70C0C94A10CCE
:100050000C94DD000C94DD000C94DD000C94DD00AC
:100060000C94DD000C94DD0000000000240027004B
:100070002A0000000000250028002B0004040404CE
:100080000404040402020202020203030303030342
:10009000010204081020408001020408102001021F
:1000A00004081020000000080002010000030407FB
:1000B00000000000000000002E20446F6E6521004B
:1000C0002E20446F6E652120496E69742066696C2C
:1000D0006573797374656D00496E697420534420AB
:1000E00063617264005374617274696E672076385C
:1000F000362E2E2E00436F7079726967687420283F
:100100004329203230323120407261737069647546
:10011000696E6F2C20756E6465722047504C2D7689
:1001200033006176722D763836202D20496E746545
:100130006C203830383620656D756C61746F7220B4
:1001400072756E6E696E67206F6E2041726475699C
:100150006E6F20554E4F007C3C3E5E2B3D3F2F5B2B
:100160005D3B2C2A225C0000430D11241FBECFEF03
:10017000D8E0DEBFCDBF11E0A0E0B1E0E4EEF1E5F4
:1001800002C005900D92A033B107D9F724E0A0E397
:10019000B1E001C01D92AF33B207E1F710E0C5EB4B
:1001A000D0E004C02197FE010E94C528C43BD107BE
:1001B000C9F70E94790D0C94F0280C940000AF92BE
:1001C000BF92CF92DF92EF92FF920F931F93CF9344
:1001D000DF936C017B018B01040F151FEB015E01A6
:1001E000AE18BF08C017D10759F06991D601ED913B
:1001F000FC910190F081E02DC6010995892B79F7DA
:10020000C501DF91CF911F910F91FF90EF90DF908B
:10021000CF90BF90AF900895FC01538D448D252F52
:1002200030E0842F90E0821B930B541710F0CF9690
:10023000089501970895FC01918D828D981761F0C2
:10024000A28DAE0FBF2FB11D5D968C91928D9F5FD9
:100250009F73928F90E008958FEF9FEF0895FC01B8
:10026000918D828D981731F0828DE80FF11D858D6B
:1002700090E008958FEF9FEF0895FC01918D228DFE
:10028000892F90E0805C9F4F821B91098F73992783
:1002900008958EE893E00E943D0121E0892B09F446
:1002A00020E0822F089580E090E0892B29F00E94C1
:1002B000490181110C9400000895FC01A48DA80F40
:1002C000B92FB11DA35ABF4F2C91848D90E0019698
:1002D0008F739927848FA689B7892C93A089B189B8
:1002E0008C91837080648C93938D848D981306C059
:1002F0000288F389E02D80818F7D80830895EF92BD
:10030000FF920F931F93CF93DF93EC0181E0888FCF
:100310009B8D8C8D98131AC0E889F989808185FF9F
:1003200015C09FB7F894EE89FF896083E889F98941
:1003300080818370806480839FBF81E090E0DF9143
:10034000CF911F910F91FF90EF900895F62E0B8D96
:1003500010E00F5F1F4F0F731127E02E8C8D8E1151
:100360000CC00FB607FCFACFE889F989808185FFB8
:10037000F5CFCE010E945D01F1CFEB8DEC0FFD2F8B
:10038000F11DE35AFF4FF0829FB7F8940B8FEA8973
:10039000FB8980818062CFCFEF92FF920F931F93F2
:1003A000CF93DF938C017B01D0E0C0E0F701EC0F2D
:1003B000FD1F6491662339F0C8010E947F01892BDB
:1003C00011F02196F3CFCE01DF91CF911F910F91C4
:1003D000FF90EF900895CF93DF93EC01888D8823F1
:1003E000B9F0AA89BB89E889F9898C9185FD03C098
:1003F000808186FD0DC00FB607FCF7CF8C9185FF7D
:10040000F2CF808185FFEDCFCE010E945D01E9CF63
:10041000DF91CF91089590E0FC01EC55FF4F2491BE
:10042000FC01E057FF4F3491FC01E458FF4FE49189
:10043000EE23C9F0222339F0233001F1A8F4213052
:1004400019F1223029F1F0E0EE0FFF1FEE58FF4FB7
:10045000A591B4918FB7F894EC91611126C03095B5
:100460003E233C938FBF08952730A9F02830C9F070
:10047000243049F7809180008F7D03C080918000F7
:100480008F7780938000DFCF84B58F7784BDDBCFFB
:1004900084B58F7DFBCF8091B0008F778093B000C3
:1004A000D2CF8091B0008F7DF9CF3E2BDACFCF93A2
:1004B000DF9390E0FC01E057FF4F249184589F4F59
:1004C000FC0184918823D1F090E0880F991FFC01F2
:1004D000E859FF4FA591B491FC01EE58FF4FC5912B
:1004E000D49161110EC09FB7F8948C91E22FE095E2
:1004F0008E238C932881E223E8839FBFDF91CF91E5
:1005000008958FB7F894EC91E22BEC938FBFF6CF60
:100510002FB7F8946091390170913A0180913B01B5
:1005200090913C012FBF08958EBD0DB407FEFDCF05
:10053000089561E0FC0182810E940B028FEF0C9410
:1005400094028FEF8EBD0DB407FEFDCF8EB50895DA
:10055000FF920F931F93CF93DF93F82E8B010E948E
:100560008802EB010E94A1028F1571F00E9488029F
:100570006C1B7D0B06171707A8F780E0DF91CF9162
:100580001F910F91FF90089581E0F8CFCF92DF92F5
:10059000EF92FF921F93CF93DF93FC01162F690117
:1005A0007A01838122E090E0281728F4963019F030
:1005B000220F9F5FF9CF292F206A26952CBD90FD31
:1005C00003C021E0963009F420E02DBD60E0828177
:1005D0000E940B0268E572E08FEF0E94A802812F53
:1005E00080640E949402C8E1D0E0D701C6010C2EBD
:1005F00004C0B695A795979587950A94D2F70E945F
:1006000094022897C83F8FEFD80779F78FEF111121
:1006100001C085E90E949402C0E00E94A10287FF08
:1006200004C0CF3F11F0CF5FF8CFDF91CF911F9182
:10063000FF90EF90DF90CF900895CF93DF93EC0180
:100640009A01AB0189E0220F331F441F551F8A9581
:10065000D1F768E1CE010E94C602882349F083E009
:100660008883CE010E94990280E0DF91CF910895A6
:100670008EEF8EBDEEE8F1E00DB407FEFDCF819167
:100680008EBD83E0EE38F807B9F70DB407FEFDCF55
:100690008FEF0E9494028FEF0E9494020E94A102A9
:1006A000982F9F71953019F0898386E0D9CF68E53E
:1006B00072E08FEF0E94A802811105C087E0888355
:1006C000CE010E949902CE010E94990281E0CDCF15
:1006D0000F931F93CF9380918C01C1E0882399F0F1
:1006E000009183011091840140910001509101011A
:1006F0006091020170910301C8010E941D03C82F7F
:10070000811106C0C0E08C2FCF911F910F910895E9
:10071000409130015091310160913201709133016B
:10072000411551056105710569F0C8010E941D035D
:10073000882341F31092300110923101109232015E
:100740001092330110928C01DECFCF92DF92EF92A4
:10075000FF921F93CF93DF936B017C01142F809145
:10076000000190910101A0910201B09103018C154B
:100770009D05AE05BF0509F44FC00E94680388239C
:10078000C9F0C0918301D0918401A701960189E04D
:10079000220F331F441F551F8A95D1F761E1CE0107
:1007A0000E94C602882371F084E08883CE010E94F3
:1007B000990280E0DF91CF911F91FF90EF90DF9041
:1007C000CF9008956CE271E08EEF0E94A802811133
:1007D00005C085E08883CE010E9499028FEF8EBD0F
:1007E000EEE8F1E00DB407FEFDCF9EB591938EBD0E
:1007F00093E0EE38F907B1F70DB407FEFDCF0E9484
:10080000A102CE010E949902C0920001D092010182
:10081000E0920201F092030181E0112359F28093EA
:100820008C01C8CF4F925F926F927F929F92AF924E
:10083000BF92CF92DF92EF92FF920F931F93CF93CD
:10084000DF9322E731E030938401209383018823F2
:1008500009F4DEC040E060E070E0CB010E94A50337
:10086000811112C0D0E08D2FDF91CF911F910F9198
:10087000FF90EF90DF90CF90BF90AF909F907F90D0
:100880006F905F904F900895C0905403D09055039F
:10089000E0905603F090570340E0C701B6010E9474
:1008A000A503D82F8823F1F280918C038535D1F6EA
:1008B00080918D038A3AB1F690909E0190928201C8
:1008C000C0919B01C0938D010091A4011091A501DD
:1008D000109381010093800120919F013091A0012C
:1008E0003093860120938501A0909C01B0909D01DA
:1008F000D701C6018A0D9B1DA11DB11D80937C01EE
:1009000090937D01A0937E01B0937F01909EA00102
:10091000919E500D1124840F951FA11DB11D809330
:10092000780190937901A0937A01B0937B0145E01F
:10093000220F331F4A95E1F721503E4F232F3327D3
:100940002695820F931FA11DB11D8093880190935E
:100950008901A0938A01B0938B014090A10150902E
:10096000A201712C612C4114510441F44090AE015C
:100970005090AF016090B0017090B101C81AD90ACF
:10098000EA0AFB0AC701B601640D751D861D971D95
:100990002C2F30E050E040E00E94A32830937701F4
:1009A000209376016091990170919A0161157240CE
:1009B00009F058CF0115110509F454CF253F6FE018
:1009C000360708F44FCF81E04816510480E86806E6
:1009D000710408F047CFAB2809F444CF992009F4FB
:1009E00041CFC32EDD240C151D0508F43BCFCC23CD
:1009F00009F438CF8C2F90E09C01215031098223DB
:100A00009323892B09F02ECF81E0809387012BCF90
:100A1000C12CD12C760140CFCF92DF92EF92FF9282
:100A20000F931F93CF93DF938230910550F480E0B2
:100A3000DF91CF911F910F91FF90EF90DF90CF90BA
:100A4000089520917601309177012F5F3F4F28174D
:100A5000390768F3EB018C01212F3327C0907C010B
:100A6000D0907D01E0907E01F0907F01C20ED31EF8
:100A7000E11CF11C8091000190910101A091020103
:100A8000B0910301C816D906EA06FB0689F4F801FD
:100A9000FF27EE0FFF1FE257FE4FD183C08381E097
:100AA00080938C0180918201823050F481E0C0CF2C
:100AB00040E0C701B6010E94A5038111E8CFB7CF7E
:100AC0008091800190918101C80ED91EE11CF11C1A
:100AD000C0923001D0923101E0923201F0923301A4
:100AE000E5CFCF92DF92EF92FF920F931F93CF93B8
:100AF000DF9320917601309177012F5F3F4F2817C8
:100B0000390750F480E0DF91CF911F910F91FF9052
:100B1000EF90DF90CF9008958B01EC012D2F3327BC
:100B200060917C0170917D0180917E0190917F01A7
:100B3000620F731F811D911DC0900001D0900101B3
:100B4000E0900201F09003016C157D058E059F0574
:100B500061F4DD27CC0FDD1FC257DE4F88819981FC
:100B6000F8019183808381E0CECF40E00E94A5030D
:100B70008111EFCFC7CF4F925F926F927F928F928A
:100B80009F92AF92BF92CF92DF92EF92FF920F931C
:100B90001F93CF93DF93EC016A017B018D818370FA
:100BA00091F480E0DF91CF911F910F91FF90EF9032
:100BB000DF90CF90BF90AF909F908F907F906F907D
:100BC0005F904F9008958A859B85AC85BD858C1577
:100BD0009D05AE05BF0528F3C114D104E104F1045D
:100BE00041F41F861E86188A198A1A8A1B8A81E098
:100BF000D9CF80908D01912CB12CA12CCB01BA01C1
:100C0000615071098109910939E096958795779529
:100C100067953A95D1F7A50194010E94A32889010F
:100C200088899989AA89BB89C816D906EA06FB066C
:100C300020F00097A105B105A9F4888599859F87C3
:100C40008E875E018EE0A80EB11C01151105F1F032
:100C5000B5018E859F850E94710501501109811192
:100C6000F4CF9FCFBC01CD01615071098109910979
:100C700029E096958795779567952A95D1F7A501EF
:100C800094010E94A328021B130BDBCFC88AD98AC8
:100C9000EA8AFB8AACCFCF93DF9320918501309114
:100CA00086018217930728F090E080E0DF91CF91D2
:100CB0000895462FEC019C0154E0369527955A95EE
:100CC000E1F7609178017091790180917A019091BA
:100CD0007B01620F731F811D911D0E94A503882354
:100CE00019F3CE018F70992725E0880F991F2A9557
:100CF000E1F782579E4FDACFCF93DF93FC01258136
:100D000027FF18C0EC0161E0868197810E944B06A5
:100D10000097A1F04A855B856C857D85FC01448F39
:100D2000558F668F778F28853985338F228F8D81F8
:100D30008F778D83DF91CF910C94680380E0DF91F2
:100D4000CF910895CF92DF92EF92FF920F931F936E
:100D5000CF93DF9300D0CDB7DEB77C01FC010685D1
:100D600017850115110511F401E010E0D12CC12CFB
:100D70008091760190917701C816D906F8F4801712
:100D8000910710F401E010E00F5F1F4FBE016F5F8D
:100D90007F4FC8010E947105882381F089819A8163
:100DA000892B21F0FFEFCF1ADF0AE2CF6FEF7FEF41
:100DB000C8010E940C05D82E81110DC0D12C8D2D9B
:100DC0000F900F90DF91CF911F910F91FF90EF90B7
:100DD000DF90CF900895F70186859785009749F0B9
:100DE000B8010E940C05882349F3F701178706878D
:100DF000E6CF85818068858311870087F6CF0895C7
:100E000090E080E008954F925F926F927F928F9270
:100E10009F92AF92BF92CF92DF92EF92FF920F9389
:100E20001F93CF93DF9300D0CDB7DEB78C014B017A
:100E3000DC0115968C91159781FFB3C082FD9AC095
:100E4000F80180899189A289B389E0908D01AC0174
:100E5000BD0129E076956795579547952A95D1F775
:100E6000FF24FA94FE0CF4225C01F1E0BF22FF2083
:100E700009F49BC0F8012685378522503109AE2D33
:100E8000B0E00E94CB28409088015090890160908A
:100E90008A0170908B01460E571E681E791ED30181
:100EA000C2018F0D911DA11DB11D6C017D01A11409
:100EB000B10409F0D5C0D80150964D915D916D9166
:100EC0007C9153971A968D919D910D90BC91A02D78
:100ED000481759076A077B0708F4C2C00E946803D5
:100EE000882309F45EC0C0920001D0920101E09213
:100EF0000201F092030181E080938C01F401808172
:100F0000F501E257FE4F8083F80180899189A2891B
:100F1000B3890196A11DB11D808B918BA28BB38BE0
:100F20004285538564857585481759076A077B078D
:100F300038F482879387A487B58785818068858305
:100F4000D80115968C9183FD72C081E090E00F90DE
:100F50000F90DF91CF911F910F91FF90EF90DF9055
:100F6000CF90BF90AF909F908F907F906F905F9049
:100F70004F9008951A964D915D916D917C911D97BA
:100F800050968D919D910D90BC91A02D48175907B9
:100F90006A077B0709F454CFC8010E94BB05811181
:100FA0004FCF81E0F801848362C0F8018685978580
:100FB000A114B10409F041C0009799F0BE016F5F20
:100FC0007F4F0E947105882361F389819A81883F50
:100FD000FFEF9F0730F1C8010E94A20681114ACF9E
:100FE000E0CF808591850097E1F4C8010E94A206B8
:100FF0008823B9F2D8011E962D913C9122503109D7
:10100000AE2DB0E00E94CB28C0908801D09089011D
:10101000E0908A01F0908B01C60ED71EE81EF91EE3
:101020004ACFD8011F969C938E931E9723CFC80159
:101030000E947C06811189CFB4CF9C0122503109D6
:10104000AE2DB0E00E94CB28C0908801D0908901DD
:10105000E0908A01F0908B01C60ED71EE81EF91EA3
:1010600041E0C701B6010E94A503811147CF8FEF70
:101070009FEF6DCFCF93DF931F92CDB7DEB769831C
:10108000BE016F5F7F4F0E94030721E030E00197B0
:1010900011F030E020E0C9010F90DF91CF91089569
:1010A0000F931F93CF93DF93D0918701D11107C086
:1010B000D0E08D2FDF91CF911F910F910895209156
:1010C00030042370A9F7C62F8C0160E00E944B0604
:1010D000FC01892B69F38081882351F3853E41F31C
:1010E0008385982F987121F780FF02C0C13001F7E6
:1010F00010923A041092390410923B0410923C046E
:1011000010923D0410923E04109332040093310477
:10111000848D958DA68DB78D80933504909336047C
:10112000A0933704B0933804828D938D9093340448
:1011300080933304C0933004BCCFAF92BF92DF9250
:10114000EF92FF920F931F93CF93DF93CDB7DEB74C
:101150002B970FB6F894DEBF0FBECDBF90918701DD
:10116000992331F190913004937011F5FE0131967D
:101170009E01245F3F4F7F0190E291932E173F071E
:10118000E1F7A2E2B1E020E037E09D91492F9923F9
:1011900091F19E3229F43A3059F028E03AE0F5CF47
:1011A000E7E5F1E054915523A1F031969513FACF7C
:1011B00080E02B960FB6F894DEBF0FBECDBFDF9157
:1011C000CF911F910F91FF90EF90DF90BF90AF9064
:1011D0000895321768F35FED590F5E3548F75FE900
:1011E000590F5A3110F440EE490FF701E20FF11D8B
:1011F00040832F5FCACF99819032D1F2D82E10E070
:1012000000E0AA24AA94BA2C8091850190918601CD
:101210000817190768F660E0C8010E944B06BC0178
:10122000009731F2FC0190819923F9F0953E19F471
:10123000B7FE21C01CC04BE050E0C7010E94DA2875
:10124000892BC9F46D2DC8012B960FB6F894DEBF1B
:101250000FBECDBFDF91CF911F910F91FF90EF9007
:10126000DF90BF90AF900C945008B7FEA1CF58010B
:10127000992309F49DCF0F5F1F4FC6CF6F927F92C6
:101280008F929F92AF92BF92CF92DF92EF92FF9296
:101290000F931F93CF93DF931F92CDB7DEB78C01CF
:1012A00081E00E949D08A80170E060E08BE294E07C
:1012B0000E94BB058091300480FD19C00FEF1FEF25
:1012C0008BE294E00E947C0610923004802F0F90F5
:1012D000DF91CF911F910F91FF90EF90DF90CF9012
:1012E000BF90AF909F908F907F906F900895809166
:1012F0003B0490913C04A0913D04B0913E04409188
:1013000035045091360460913704709138048C0193
:101310009D010F5F1F4F2F4F3F4F7A01E81AF90AC7
:10132000401751076207730718F0EE24E394F12C7D
:101330006701CE0101964C01612C32E0732EC1147D
:10134000D10409F486C000913B0410913C04209123
:101350003D0430913E04A0908D01D901C80129E0DF
:10136000B695A795979587952A95D1F7BB24BA94FA
:10137000BA0CB8221170BB2009F448C0209139047E
:1013800030913A0422503109AA2DB0E00E94CB28B6
:10139000209188013091890140918A0150918B01FF
:1013A000620F731F841F951F6B0D711D811D911D91
:1013B00040E00E94A503882309F480CFC301801B6D
:1013C000910B56018C159D0508F45C01B80162571C
:1013D0007E4FA501C4010E94E72880913B049091B3
:1013E0003C04A0913D04B0913E048A0D9B1DA11DBB
:1013F000B11D80933B0490933C04A0933D04B093B3
:101400003E048A0C9B1CCA18DB0899CF01151105F4
:1014100009F0B4CF8091390490913A04009791F487
:10142000809133049091340490933A04809339046A
:101430008091390490913A040297863F9F4F08F4B7
:101440009DCF3CCF69E374E00E9471058111F0CF1C
:1014500035CFEA94EF2809F031CF098131CF1F93BE
:10146000CF93DF93EC010E943E09182FCE01019625
:101470000E943E09912FDF91CF911F910895EF9225
:10148000FF920F931F93CF93DF937B01EA010E949A
:101490002F0A8C01C7010E942F0A24E0000F111FA0
:1014A0002A95E1F78C0F9D1F800F911FDF91CF913F
:1014B0001F910F91FF90EF900895CF93DF93EB0171
:1014C0008F579F4F0E942F0A8C0F9D1FDF91CF9146
:1014D0000C943E09CF93DF9380936D01C82FD0E029
:1014E000BE0188E090E00E945D0A80935201BE0137
:1014F00089E090E00E945D0A80934801BE018EE081
:1015000090E00E945D0A80936101BE018AE090E054
:101510000E945D0A90E09093440180934301DF9123
:10152000CF9108950F931F93CF9382E090EF909304
:1015300054018093530109E010E001501109E0F0DB
:10154000C80188960E943E09C82FB80183E190E047
:101550000E945D0A2C2F30E002C0220F331F8A95B3
:10156000E2F78091530190915401280F391F309375
:10157000540120935301E1CFCF911F910F91089512
:101580001F93CF93DF93EC01162F82E00E949D08FA
:10159000AE0170E060E08BE294E00E94BB05612F39
:1015A00070E08BE294E00E9403078BE294E00E94DB
:1015B0007C0610923004812FDF91CF911F91089506
:1015C0000C94C00A0F931F93CF93DF938C01D62FF7
:1015D000C72F0E94E00A6C2FC80101960E94E00A02
:1015E0008D2F9C2FDF91CF911F910F9108950F9315
:1015F0001F93CF93DF938C01C9E0D0E0219788F04F
:10160000BE0183E190E00E945D0AB80102C07595B9
:1016100067958A95E2F76170CE0188960E94E00A8C
:10162000EDCFDF91CF911F910F91089561E0892B4C
:1016300009F460E080E390E00C94E00A60914D01D1
:1016400070914E0180914B0190914C016827792750
:101650008091490190914A016827792770934C0144
:1016600060934B0184E0769567958A95E1F7617008
:101670008AE290E00E94E00A2091490130914A01FB
:1016800080914D0190914E0128173907E1F088E2D1
:1016900090E00E943E0940916B0198E0499FA001B3
:1016A0001124495F5F4F20914B0130914C0102C0E2
:1016B000369527954A95E2F7A9014827CA01817016
:1016C00099270C94160B60E080E390E00E94E00AFA
:1016D00080E0089561E0892B09F460E088E290E001
:1016E0000C94E00ACF93DF93EC0181E080936B01CF
:1016F00084E090E00E942F0ABC016E5F7F4F84E07F
:1017000090E00E94E20A4EEF5FEF64E070E08AE052
:1017100090E00E943F0A0E943E098093500180930E
:101720004F0190916B01D0934E01C0934D019923CD
:1017300099F080914F019091500190934C018093CA
:101740004B0190934A018093490110926B01809163
:101750004F01DF91CF91089590E0EFCFCF93DF93CA
:10176000EC0181E080936B014FEF5FEF64E070E08C
:101770008AE090E00E943F0A0E943E098093500157
:1017800080934F0190916B01992351F120914F016A
:101790003091500130934E0120934D01D0934C0174
:1017A000C0934B01D0935001C0934F01D0934A0195
:1017B000C0934901C0914F018C1759F04FEF5FEF73
:1017C00064E070E08AE090E00E943F0A6C2F0E9483
:1017D000C00A10926B0180914F01DF91CF91089563
:1017E000282F30E030934E0120934D019E01332786
:1017F00030934C0120934B01C0934F0130934A0129
:1018000020934901D7CFCF93DF93C82F8DEC0E944F
:101810006A0A0E94920A80915301909154010E9499
:10182000AE0B89E090E00E942F0A0E94AE0B8091DF
:101830007001909171010E94AE0B84E0C89FE0019D
:101840001124CE0102960E943E098093500190918E
:101850006B01992309F448C080914F019091500188
:1018600090934E0180934D018091500190915101D0
:1018700090934C0180934B019093500180934F01C2
:1018800090934A018093490160914F0182E190E079
:101890000E94C00AC25CD64F20916B0180917001FA
:1018A0009091710190934E0180934D01222381F11B
:1018B0008881998190934C0180934B0190937101A1
:1018C0008093700190934A018093490160E08DE21A
:1018D00090E00E94E00A60E08EE290E00E94E00A60
:1018E00080E0DF91CF91089520914F0130E0309357
:1018F0004E0120934D01282F30E030934C0120936E
:101900004B0180934F0130934A0120934901BCCF92
:10191000888190E0CFCF0F931F93CF93DF93EC019B
:101920000E94CC018C0142E050E06AE271E0CE01FD
:101930000E94DF00800F911FDF91CF911F910F91C7
:1019400008951F920F920FB60F9211242F933F9379
:101950004F935F936F937F938F939F93AF93BF93B7
:10196000EF93FF938EE893E00E945D01FF91EF916A
:10197000BF91AF919F918F917F916F915F914F91A7
:101980003F912F910F900FBE0F901F9018951F92AF
:101990000F920FB60F9211242F938F939F93EF9373
:1019A000FF93E0919E03F0919F038081E091A40357
:1019B000F091A50382FD1BC090818091A7038F5FEA
:1019C0008F732091A803821741F0E091A703F0E004
:1019D000E257FC4F958F8093A703FF91EF919F9162
:1019E0008F912F910F900FBE0F901F9018958081AF
:1019F000F4CF1F920F920FB60F9211242F933F93A3
:101A00008F939F93AF93BF938091390190913A0147
:101A1000A0913B01B0913C013091380123E0230FAC
:101A20002D3758F50196A11DB11D209338018093E3
:101A3000390190933A01A0933B01B0933C0180910E
:101A4000340190913501A0913601B0913701019692
:101A5000A11DB11D8093340190933501A0933601EF
:101A6000B0933701BF91AF919F918F913F912F918B
:101A70000F900FBE0F901F90189526E8230F029627
:101A8000A11DB11DD2CFEEE8F3E01382128288EEE1
:101A900093E0A0E0B0E084839583A683B78388E0D9
:101AA00091E09183808385EC90E09587848784EC36
:101AB00090E09787868780EC90E0918B808B81EC1B
:101AC00090E0938B828B82EC90E0958B848B86ECFC
:101AD00090E0978B868B118E128E138E148EEBE214
:101AE000F4E0138212828AE191E09183808315826F
:101AF0000895789484B5826084BD84B5816084BD86
:101B000085B5826085BD85B5816085BD80916E009B
:101B1000816080936E0010928100809181008260CC
:101B20008093810080918100816080938100809109
:101B300080008160809380008091B10084608093F8
:101B4000B1008091B00081608093B00080917A00F4
:101B5000846080937A0080917A00826080937A001A
:101B600080917A00816080937A0080917A00806809
:101B700080937A001092C100E0919E03F0919F0340
:101B800082E08083E0919A03F0919B031082E091C0
:101B90009C03F0919D038FEC80831092A603E0914B
:101BA000A203F091A30386E08083E091A003F0916B
:101BB000A103808180618083E091A003F091A10363
:101BC000808188608083E091A003F091A1038081EF
:101BD00080688083E091A003F091A10380818F7DD4
:101BE000808362E271E08EE893E00E948B0C65EFE7
:101BF00070E08EE893E00E948B0C68ED70E08EE858
:101C000093E00E94CC0112E00AE0E3E5FE2E10937F
:101C1000750100937401109272010E948802EB0119
:101C200061E0809174010E94570261E0809174012B
:101C30000E940B0260E08CE00E94570261E08AE0A3
:101C40000E94570261E08AE00E940B0261E08BE093
:101C50000E94570261E08DE00E945702FCBC7AE0CE
:101C6000E72E8FEF0E949402EA94E110FACF60E031
:101C7000809174010E940B0220E030E0A90160E035
:101C800082E791E00E94C602E82E21E08217C9F0A7
:101C90000E9488026C1B7D0B613D774068F3E092E7
:101CA000730181E08093720182E791E00E949902C2
:101CB00041E050E06DE271E08EE893E00E94DF00C9
:101CC000A6CF20E030E0A90167E382E791E00E941F
:101CD000C60220E030E0A90169E282E791E00E94BB
:101CE000C602E82E882361F00E9488026C1B7D0BDF
:101CF000613D774030F3E092730110937201D4CFCD
:101D000082E791E00E94990260EC70E08EE893E037
:101D10000E94CC0181E00E94120481110DC00E943A
:101D20001204811109C041E050E06DE271E08EE8DB
:101D300093E00E94DF00EECF68EB70E08EE893E066
:101D40000E948B0C65EE70E08EE893E00E948B0C95
:101D500060E070EF89E090E00E94E20A60E08DE2CE
:101D600090E00E94E00A60E884E090E00E94E00ACF
:101D700080E091E0909371018093700134E0432EF4
:101D8000512C40E5E42EF12C66246A94712C6AE112
:101D9000862E912CD12CC12CB12CA12C89E090E065
:101DA0000E942F0A24E0880F991F2A95E1F72091BD
:101DB000700130917101820F931F0E943E09E82F3C
:101DC000F0E0F0936F01E0936E0180810E946A0A57
:101DD000A0916D018A2F877080936C01A170A093F0
:101DE0006B018695817080936A01E0916E01F0919C
:101DF0006F0191817281292F372F309369012093D0
:101E00006801B38170936601B09367014381548187
:101E1000509365014093640140916301442319F09C
:101E200041504093630140916201442319F04150B5
:101E30004093620180916101882309F48FC0A90158
:101E400016E0569547951A95E1F743704093600167
:101E5000977090935F0103E0369527950A95E1F717
:101E6000277020935E014111B4C0963009F0B6C0CE
:101E700024813581309365012093640124E030E0B2
:101E80004111B8C030935D0120935C01692F70E06F
:101E9000433009F4B5C0C90101960E945D0A90E083
:101EA0000E942F0AEC0160915F0170E080915C015B
:101EB00090915D0102960E945D0A20916601309129
:101EC0006701829F8001839F100D11240C0F1D1F3D
:101ED00060915F0170E080915C0190915D010E94D2
:101EE0005D0AC82FD0E080916301811186C06091A6
:101EF0005F0170E080915C0190915D0103960E940A
:101F00005D0AA801BE0190E00E943F0A90935A0129
:101F100080935901909358018093570130915E014D
:101F2000432F50E0440F551F20916B01222309F4E9
:101F300076C09A01309356012093550140916A0171
:101F4000442361F030935401209353019093560140
:101F5000809355013093580120935701E09152012D
:101F6000E13308F03FC2F0E0E854F04F0C94C5288C
:101F700018106A10DB10CE10D41064116A130F16FB
:101F80002B1669166E18F719B11A7D1FDB1F122068
:101F900046201421EF21E22218233B23DA23FD24DB
:101FA00056200F25132517252925C925072628265C
:101FB0004C266726FA226F267E2683268B279727B4
:101FC000A427B827E727012808281F282B2833280B
:101FD0006528423009F44CCF413029F070936401F8
:101FE000B09365014BCF272F770F330B30936701E9
:101FF0002093660130E020E045CF80915B0181CFE6
:10200000660F771FAA2311F0CB0180CF892F869509
:102010008695860F972F911D8770992777CF232F4D
:1020200026952695240F352F311D2770332782CF13
:1020300060916D0166956770609351010091680130
:10204000002E000C110BC0916B01D0E070E08FE00E
:1020500090E00E945D0A90E00E943E098823A1F072
:1020600091E0C927C09F9001C19F300DD09F300DD6
:1020700011248091700190917101820F931F9093B0
:10208000710180937001AEC16091510170E080E1F7
:1020900090E00E945D0A90E00E943E098111E0CF2D
:1020A0006091510170E081E190E00E945D0A90E052
:1020B0000E943E09282E6091510170E082E190E07B
:1020C0000E945D0A90E00E942F0A91E02812C9CF79
:1020D00090E0C7CF90916D0181E0492F487093FF48
:1020E00080E080936B0190916C01292F30E0220FEA
:1020F000331F442389F1C9010E943E098093500196
:1021000080934F0140916B01442379F180914F01FD
:102110009091500190934E0180934D018091680100
:102120009091690190934C0180934B0190935001E1
:1021300080934F0190934A018093490160914F0130
:1021400090916C01292F30E0220F331F4423E9F0D6
:10215000C9010E94C00A46C1892F86958695820FC3
:10216000932F911D87709927C7CF90E090934E01D0
:1021700080934D0120916801822F90E090934C0153
:1021800080934B0120934F01D5CF892F869586955B
:10219000820F932F911D87709927DBCF80916C015F
:1021A00090E00E942F0A1CC180916C0190E00E9477
:1021B0002F0A0C94F31981E080936B0110926A014D
:1021C00080916C0180935E012091600184E090E039
:1021D000222311F090E080E090935D0180935C01F8
:1021E00060915F0170E0233008F0DEC101960E942B
:1021F0005D0A90E00E942F0AEC0160915F0170E09F
:1022000080915C0190915D0102960E945D0A20918F
:10221000660130916701829F8001839F100D112418
:102220000C0F1D1F60915F0170E080915C01909127
:102230005D010E945D0AC82FD0E080916301811189
:10224000B0C160915F0170E080915C0190915D018F
:1022500003960E945D0AA801BE0190E00E943F0A19
:10226000BC0170935A0160935901709358016093B7
:10227000570190915E01492F50E0440F551F809106
:102280006B019A01811108C0292F26952695240FEC
:10229000352F311D27703327309356012093550178
:1022A00080916A01882361F0309354012093530197
:1022B0007093560160935501309358012093570154
:1022C0008091480180935E0180915E01823008F028
:1022D00086C188E190E00E943E0980935001909170
:1022E0006B0120915E01992309F461C180914F0136
:1022F0009091500190934E0180934D014091500177
:102300005091510150934C0140934B01840F951F04
:10231000019630E0220F331F821B930B90935001E4
:1023200080934F0190934A018093490160914F013E
:1023300080915501909156010E94C00AC1E0D0E001
:10234000D0934C01C0934B010E941E0B80916B01F6
:1023500058E0859FC0011124079602C0CC0FDD1FF5
:102360008A95E2F720914D0130914E012F5F3F4F4A
:1023700080915E01281B310981E090E0C217D307EC
:1023800011F090E080E00E94160B80916B01E8E074
:102390008E9FC0011124079641E050E002C0440F17
:1023A000551F8A95E2F720914D0130914E012F5F24
:1023B0003F4F80915E01281B310981E090E0421778
:1023C000530711F090E080E00E94160B80915201BB
:1023D000853019F480E10E946A0A80914F0190E0F3
:1023E0000E94AE0B8091600141E050E0833011F417
:1023F00050E040E0849F9001859F300D11248111B1
:1024000005C081E090915F01963009F080E090E096
:10241000880F991F820F931F20916101289FE0016F
:10242000299FD00D112460916D0170E08CE090E047
:102430000E945D0AC80FD11D60916D0170E08DE0B2
:1024400090E00E945D0A20916B0130E02F5F3F4FCA
:10245000E82FE29FC001E39F900D11248C0F9D1F78
:10246000C0917001D0917101C80FD91FD093710133
:10247000C09370018091430180FF40C083E0220F30
:10248000331F8A95E1F7215031096091490170911C
:102490004A0102C0759567952A95E2F761708CE252
:1024A00090E00E94E00A61E08091490190914A0128
:1024B000892B09F060E08BE290E00E94E00A6091D5
:1024C000490170914A0177278BE090E00E945D0AF4
:1024D000682F89E290E00E94E00A8091430181FD2B
:1024E0000E941E0B8091430182FF08C090E080E0B3
:1024F0000E946A0B90E080E00E94160B80913F01E1
:102500009091400101969093400180933F0160E2D9
:102510007EE40E947B28892B19F481E080933E01A0
:1025200080913D01882319F081E00E94030C8DE227
:1025300090E00E943E0980933D0180913E018823F6
:1025400009F42CCC80916301811128CC8091620127
:10255000811124CC8EE290E00E943E09882309F488
:102560001DCC8DE290E00E943E09811117CC8AE0DB
:102570000E94030C10923E018EE893E00E943D0100
:10258000181619062CF48EE893E00E941B01382ED1
:10259000632D86EA94E00E94C00A87E00E94030C43
:1025A000FDCB80915B0157CE660F771F5ACE4091CD
:1025B0004F01642F70E070934E0160934D0190E0E5
:1025C00090934C0180934B0130E0220F331F821B0C
:1025D000930B0196840F80934F0190E0A3CE863039
:1025E00009F46FC0833031F489E090E00E942F0A33
:1025F0000E94AE0B80915E0181FF23C0809160013B
:1026000021E030E0833011F430E020E0829FA0012F
:10261000839F500D1124811105C021E080915F013D
:10262000863009F020E0809170019091710102964E
:10263000840F951F30E0220F331F820F931F0E94DB
:10264000AE0B80915E0180FF07C080915501909193
:10265000560102960E943E098091550190915601C3
:1026600002960E943E09682F70E089E090E00E9487
:10267000E20A80915501909156010E943E09809393
:102680004F0190916B012091700130917101309355
:102690004E0120934D01992391F080914F0190912B
:1026A000500190934C0180934B0190937101809362
:1026B000700190934A01809349018AE98CCE90E0A1
:1026C000F0CF8091590190915A010E943E09809368
:1026D0004F0183CE809155019091560190935801FE
:1026E00080935701E0915E01E83008F07BCEF0E086
:1026F000E458FC4E0C94C5288413F211CF13041433
:102700005914C1142415A31580E20E946A0A20916D
:102710007001309171012F5F3F4F80916B01820FEB
:10272000932F911D909371018093700180915701B7
:10273000909158010E943E0980934F0190916B0146
:102740009923E1F020914F013091500130934E01D7
:1027500020934D01409164015091650150934C01CB
:1027600040934B012423352330934A0120934901A0
:10277000682F8091570190915801EBCC282F30E0C1
:1027800030934E0120934D0120916401422F50E07F
:1027900050934C0140934B01282330E0E5CF0E9439
:1027A0003E098093500190916B019923D9F080915B
:1027B0004F019091500190934E0180934D01809173
:1027C00050019091510190934C0180934B01809561
:1027D00090959093500180934F0190934A0180937C
:1027E00049013AC520914F0130E030934E012093CA
:1027F0004D01282F30E030934C0120934B01809500
:1028000080934F0190E0E9CF0E943E0980935001F0
:1028100090916B019923D9F180914F0190915001D2
:1028200090934E0180934D01809150019091510100
:1028300090934C0180934B019195819591099093D0
:10284000500180934F0190934A0180934901609118
:102850004F0180915701909158010E94C00A109237
:102860004E0110924D0188E20E946A0A81E090E0D8
:102870004091490150914A0120914D0130914E0102
:102880002417350708F074C20E946A0BABCD209163
:102890004F0130E030934E0120934D01282F30E05E
:1028A00030934C0120934B01819580934F0190E030
:1028B000CACF80916B01882391F180E10E946A0A5E
:1028C000C0915901D0915A01C25CD64F90E080E08E
:1028D0000E942F0AC89FB001C99F700DD89F700D2C
:1028E000112470934A0160934901770F660B762F8C
:1028F00080916B0190E001960E94E20A609149018B
:1029000070914A0190E080E00E94E20A60E088E273
:1029100090E00E94E00AC5010E94160B63CD80E1A1
:102920000E946A0AC0915901D0915A01C25CD64FE7
:10293000DD2790E080E00E943E09F82FFC9FC00157
:10294000FD9F900D112490934A018093490180913D
:102950006B0190E060E001960E94E00A60914901FD
:1029600070914A0190E080E00E94E20A8091490162
:1029700090914A0188270E946A0B082E000C990B3F
:10298000CBCF80916B01882381F180E10E946A0A9C
:10299000C0915901D0915A01C25CD64F90E080E0BD
:1029A0000E942F0AC89FB001C99F700DD89F700D5B
:1029B000112470934A0160934901770F660B762FBB
:1029C00080916B0190E001960E94E20A60914901BA
:1029D00070914A0190E080E00E94E20A60E088E2A3
:1029E00090E00E94E00AC60197CF80E10E946A0A47
:1029F000C0915901D0915A01C25CD64F90E080E05D
:102A00000E943E098C02B001112470934A01609328
:102A10004901770F660B762F80916B0190E001964C
:102A20000E94E00A6091490170914A0190E080E0C3
:102A30000E94E20A8091490190914A01082E881B68
:102A4000910907FC939597CF8091590190915A0174
:102A500020916B012223E9F10E943E0990E09093BE
:102A6000470180934601892B09F4D5C080916B0101
:102A700090E001960E942F0A90E080E00E942F0AC9
:102A8000EC01909354018093530160914601709141
:102A900047010E947B2870935D0160935C0190E088
:102AA00080E00E94E20A2091460130914701AC018A
:102AB000429FC001439F900D529F900D1124BE0173
:102AC000681B790B80916B0190E001960E94E20AED
:102AD00089CC0E943E0990E0909347018093460183
:102AE000892B09F498C080916B0190E001960E94B7
:102AF0003E0990E080E00E942F0AC82F8093530186
:102B00009093540160914601709147010E947B2887
:102B100070935D0160935C01CB0199276817790779
:102B200009F079C090E080E00E94C00A90914601CF
:102B30006C2F899F6019112480916B0190E00196A0
:102B40000E94E00A4FCC8091590190915A01209146
:102B50006B012223A1F10E943E0990E0909347016E
:102B600080934601892B09F456C080916B0190E057
:102B700001960E942F0A90E080E00E942F0AEC014B
:102B800090935401809353016091460170914701E5
:102B90000E948F2870935D0160935C0190E080E05B
:102BA0000E94E20A2091460130914701FC01E29F18
:102BB000C001E39F900DF29F900D112480CF0E94E1
:102BC0003E09082E000C990B909347018093460113
:102BD000892B09F180916B0190E001960E943E09DA
:102BE00090E080E00E942F0AC82F809353019093B9
:102BF000540160914601709147010E948F287093A3
:102C00005D0160935C01262F062E000C330B6217CA
:102C1000730709F487CF80E00E94030CE3CB109286
:102C20005A01109259018091680190916901909325
:102C300065018093640183E0809360018091480185
:102C400080935E0180917001909171010197909342
:102C50007101809370018091590190915A01909374
:102C600058018093570181E090916B01911180E0B0
:102C700090916A01892B80936A016091640170913F
:102C80006501882319F0062E000C770B8DE090E08B
:102C90000E94E20A909256018092550180916A0149
:102CA00022E030E0882311F021E030E080917001D3
:102CB00090917101820F931F909371018093700125
:102CC00080915E0180934801880F880F880F0E94D1
:102CD0006A0AE0914801E93008F084CBF0E0E95855
:102CE000F94E80915501909156010C94C52880169B
:102CF000CE16F9166317D6170118C1204018FA1816
:102D00000E943E098093500190916B01992399F1A3
:102D100080914F019091500190934E0180934D010D
:102D2000209150013091510130934C0120934B017F
:102D3000820F931F9093500180934F0190934A010B
:102D40008093490160914F01809157019091580102
:102D50000E94C00A81E090E04091490150914A01EF
:102D600020914D0130914E014217530708F48CCD4C
:102D700090E080E089CD90914F01292F30E0309391
:102D80004E0120934D01282F30E030934C012093C9
:102D90004B01890F80934F0190E0D0CF0E943E09F4
:102DA0008093500190916B01992399F080914F018C
:102DB0009091500190934E0180934D0120915001CC
:102DC0003091510130934C0120934B01822B932B76
:102DD00000CD90914F01292F30E030934E01209388
:102DE0004D01282F30E030934C0120934B01892B6B
:102DF00007CD0E943E098093500180916B0188238A
:102E000009F446C080914F019091500190934E017A
:102E100080934D0188E290E00E943E09209150018C
:102E20003091510130934C0120934B0140914F015F
:102E300050915001240F351F820F932F911D9093B5
:102E4000500180934F0190934A0180934901609112
:102E50004F0180915701909158010E94C00A88E269
:102E600090E00E943E0920914D0130914E01409129
:102E7000490150914A01882321F04217530709F470
:102E800093C081E0421753070CF468C080E066C02D
:102E900080914F0190E090934E0180934D0188E224
:102EA00090E00E943E0990915001292F30E030932C
:102EB0004C0120934B0120914F01920F890F809379
:102EC0004F0190E0C0CF0E943E0980935001809155
:102ED0006B01882309F448C080914F019091500103
:102EE00090934E0180934D0188E290E00E943E094C
:102EF000409150015091510150934C0140934B012E
:102F000020914F0130915001241B350B281B3109B2
:102F10003093500120934F0130934A01209349018F
:102F200060914F0180915701909158010E94C00A11
:102F300088E290E00E943E0920914D0130914E01BF
:102F40004091490150914A01882319F042175307D3
:102F500059F181E0241735070CF098CF90E00E94DA
:102F60006A0B0E941E0B3ECA80914F0190E0909325
:102F70004E0180934D0188E290E00E943E0920912D
:102F80005001422F50E050934C0140934B019091DF
:102F90004F01921B981B892F90934F0190E09093C3
:102FA0004A0180934901BCCF81E0D8CF0E943E09FD
:102FB0008093500190916B01992399F080914F017A
:102FC0009091500190934E0180934D0120915001BA
:102FD0003091510130934C0120934B018223932374
:102FE000F8CB90914F01292F30E030934E01209380
:102FF0004D01282F30E030934C0120934B01892361
:10300000FFCB0E943E09982F8093500180916B0165
:10301000882319F180914F019091500190934E01B6
:1030200080934D01209150013091510130934C011A
:1030300020934B01821B930B9093500180934F017F
:1030400090934A018093490160914F01809157010B
:10305000909158010E94C00A09CC80914F01282FFD
:1030600030E030934E0120934D01292F30E0309312
:103070004C0120934B01891B80934F0190E0E0CFDE
:103080000E943E098093500190916B01992399F021
:1030900080914F019091500190934E0180934D018A
:1030A000209150013091510130934C0120934B01FC
:1030B000821B930BC5CF20914F0130E030934E011E
:1030C00020934D0190E090934C0180934B01281B7D
:1030D000390B30934A0120934901B6CF80916B019F
:1030E0008111BDC081E080936B0180915E01885F9A
:1030F00080935E012091600184E090E0222311F032
:1031000090E080E090935D0180935C0160915F01AD
:1031100070E0233008F08AC001960E945D0A90E0BA
:103120000E942F0AEC0160915F0170E080915C01C8
:1031300090915D0102960E945D0A20916601309196
:103140006701829F8001839F100D11240C0F1D1FAA
:1031500060915F0170E080915C0190915D010E943F
:103160005D0AC82FD0E08091630181115CC060913D
:103170005F0170E080915C0190915D0103960E9477
:103180005D0AA801BE0190E00E943F0ABC01709355
:103190005A016093590170935801609357019091BF
:1031A0005E01492F50E0440F551F80916B019A0139
:1031B000811108C0292F26952695240F352F311D02
:1031C00027703327309356012093550180916A016F
:1031D000882361F03093540120935301709356017A
:1031E0006093550130935801209357018091550108
:1031F000909156010E943E098093500190916B017D
:103200009923B9F080914F019091500190934E0114
:1032100080934D01809150019091510190934C0108
:1032200080934B01D6CA80915B01ABCF660F771FAD
:10323000AECF20914F0130E030934E0120934D01ED
:10324000282F30E030934C0120934B0180934F01A5
:1032500030934A012093490160914F018ACA8091BD
:103260006A018111B9C081E0809363018CE0809391
:103270005B012091600184E090E0222311F090E056
:1032800080E090935D0180935C0160915F0170E04C
:10329000233008F08EC001960E945D0A90E00E94E3
:1032A0002F0AEC0160915F0170E080915C019091C8
:1032B0005D0102960E945D0A2091660130916701CE
:1032C000829F8001839F100D11240C0F1D1F6091A0
:1032D0005F0170E080915C0190915D010E945D0A48
:1032E000C82FD0E080916301811160C060915F01BF
:1032F00070E080915C0190915D0103960E945D0AEF
:10330000A801BE0190E00E943F0ABC0170935A01DF
:1033100060935901709358016093570190915E0139
:10332000492F50E0440F551F80916B019A01811184
:1033300008C0292F26952695240F352F311D27707B
:103340003327309356012093550180916A018823D9
:1033500061F03093540120935301709356016093B0
:103360005501309358012093570180915501909158
:1033700056010E943E0980934F0190916B01992361
:10338000D9F080914F019091500190934E0180931C
:103390004D018091590190915A0190934C01809375
:1033A0004B019093500180934F015AC680915B016D
:1033B000A7CF660F771FAACF90E090934E0180931E
:1033C0004D0120915901822F90E090934C01809300
:1033D0004B0120934F0144C68091590190915A01AD
:1033E0000E943E0990E00E94720B0C94F211109220
:1033F0005E011092600186E080935F018091680118
:1034000090916901909367018093660150925D01EC
:1034100040925C0166E070E085E090E00E945D0A09
:1034200090E00E942F0AEC0160915F0170E08091B2
:103430005C0190915D0102960E945D0A20916601F7
:1034400030916701829F8001839F100D11240C0F22
:103450001D1F60915F0170E080915C0190915D01A2
:103460000E945D0AC82FD0E08091630181114EC097
:1034700060915F0170E080915C0190915D01039625
:103480000E945D0AA801BE0190E00E943F0A90934D
:103490005A018093590190935801809357012091CC
:1034A0006B0130915E012223A1F1232F30E0220F26
:1034B000331F309356012093550140916A014423F4
:1034C00061F03093540120935301909356018093FF
:1034D00055013093580120935701809157019091E5
:1034E00058010E943E098093500190916B019923ED
:1034F000E9F080914F019091500190934E0180939B
:103500004D01809150019091510147CF80915B0115
:10351000B9CF432F50E0440F551F232F26952695F2
:10352000240F352F311D27703327C3CF20914F0132
:1035300030E030934E0120934D01282F30E030933E
:103540004C0120934B0180934F0130934A0120930B
:10355000490160914F0180915501909156010C9461
:10356000A9108091590190915A010E943E098093BF
:103570004F0120916B0190E0222321F080914F01B7
:1035800090915001F8E02F9F90011124295F3F4F47
:1035900002C0959587952A95E2F7817099279093B7
:1035A0005D0180935C0180914801882339F180910D
:1035B0007001909171010196909371018093700157
:1035C00080916601082E000C990B90935401809312
:1035D00053010097E9F4E0915E01E83010F00C949B
:1035E000F211F0E0EA50F54E0C94C5280E1C8D1C2B
:1035F000281DEA1DAB1ED81EF211EA1E80916A0139
:103600008111C2C081E090E09093540180935301F6
:1036100020915E012430C0F560916B0170E06F5F16
:103620007F4FE3E0660F771FEA95E1F72695620F7B
:10363000711D0E947B2890935401809353018091C7
:10364000590190915A010E943E0980934F01909137
:103650006B01992309F49FC080915C0190915D01F9
:1036600090934E0180934D0180914F0190915001B4
:1036700090934C0180934B0190935D0180935C018A
:1036800090934A018093490180915E0180FF08C0B8
:103690008091590190915A010E943E0980934F01F7
:1036A00080916B01882309F480C080914F01909133
:1036B000500190934E0180934D0120915301309120
:1036C000540120934B0130934C0102C0969587958D
:1036D0002A95E2F79093500180934F0190934A010D
:1036E0008093490160914F018091590190915A0155
:1036F0000E94C00A80915E01843018F080E10E942F
:103700006A0A80915E01853008F467C020915301F8
:10371000309154012150310980914D0190914E0119
:1037200002C0969587952A95E2F7817099270E94A5
:103730006A0B80916B01882309F458C080914F0176
:103740009091500190934E0180934D01209153012F
:103750003091540120934B0130934C0102C0880FEB
:10376000991F2A95E2F79093500180934F0190930F
:103770004A018093490160914F01809159019091D4
:103780005A010E94C00A27CF82E090E00E943E09C1
:103790008F7190E01ACF20915C0130915D013093E0
:1037A0004E0120934D0190E063CF80914F0190E056
:1037B00090934E0180934D0120915301422F50E090
:1037C00050934C0140934B0102C0959587952A95E3
:1037D000E2F780934F01992781CF80915901909111
:1037E0005A010E943E0980934F01A3CF80914F015F
:1037F00090E090934E0180934D0120915301422F10
:1038000050E050934C0140934B0102C0880F991F28
:103810002A95E2F780934F019927A9CF809159010A
:1038200090915A010E943E0980934F0190916B0143
:103830004091530150915401992309F44FC02091B4
:103840004F013091500130934E0120934D01892F4B
:1038500090E0019673E0880F991F7A95E1F7841B39
:10386000950B40915C0150915D0102C056954795C2
:103870008A95E2F750934C0140934B01240F351F7A
:103880003093500120934F0130934A012093490116
:1038900060914F018091590190915A010E94C00A94
:1038A00010916B01C0914901D0914A01CE01817004
:1038B00099270E946A0B48E0149F90011124295F08
:1038C0003F4F02C0D595C7952A95E2F7C170DD2715
:1038D000082E000C990B8C279D271EC8282F30E03E
:1038E00030934E0120934D0120915C0130E068E05F
:1038F00070E0641B750B02C0359527956A95E2F759
:1039000030934C0120934B01820F80934F0190E044
:1039100090934A0180934901BBCF81E090E00090F1
:10392000530102C0880F991F0A94E2F70197209172
:103930005C0130915D018223932390935D0180931C
:103940005C018091590190915A010E943E09809337
:103950004F0190916B014091530150915401992373
:1039600009F457C020914F013091500130934E011E
:1039700020934D01892F90E0019663E0880F991FF5
:103980006A95E1F7841B950B40915C0150915D01B4
:1039900002C0440F551F8A95E2F750934C014093A3
:1039A0004B01240F351F3093500120934F0130936A
:1039B0004A012093490160914F01809159019091F2
:1039C0005A010E94C00AC0916B01809149019091F7
:1039D0004A018C01000F111F58E0C59FE00111241E
:1039E00027960C2E02C0959587950A94E2F7817070
:1039F00099270E946A0B02C015950795CA95E2F7B0
:103A000001701127082E000C990B802791270C9428
:103A10008C14282F30E030934E0120934D012091DB
:103A20005C0130E068E070E0641B750B02C0220F9F
:103A3000331F6A95E2F730934C0120934B01820FBC
:103A400080934F0190E090934A0180934901B3CF56
:103A50008091590190915A010E943E0980934F0133
:103A600090916B01992309F479C080914F01909155
:103A7000500190934E0180934D0188E290E00E94A6
:103A80003E09409153015091540120916B0130E067
:103A90002F5F3F4FD3E0220F331FDA95E1F7241B4E
:103AA000350B2F5F3F4F60915C0170915D01FB0111
:103AB00002C0F695E7952A95E2F79F01F0934C0135
:103AC000E0934B0160914F0170915001260F371F19
:103AD00090E04150510902C0880F991F4A95E2F7C2
:103AE000280F391F3093500120934F0130934A0122
:103AF0002093490160914F018091590190915A01A1
:103B00000E94C00A00916B01C0914901D0914A0105
:103B100010E00F5F1F4FB3E0000F111FBA95E1F7E0
:103B200080915301909154019801281B390B81E039
:103B300090E002C0880F991F2A95E2F720915C015E
:103B400030915D01822393230E946A0B0150110979
:103B500002C0D595C7950A95E2F7B8CE90E090934C
:103B60004E0180934D0188E290E00E943E096091F1
:103B700053017091540140915C0150E020916B0120
:103B800030E02F5F3F4FC3E0220F331FCA95E1F7AC
:103B9000261B370B2F5F3F4F02C0559547952A953F
:103BA000E2F750934C0140934B0190E06150710952
:103BB00002C0880F991F6A95E2F7480F591F80913C
:103BC0004F01480F40934F0150E050934A014093FA
:103BD000490190CF8091590190915A010E943E096C
:103BE00080934F0190916B01992309F479C08091E2
:103BF0004F019091500190934E0180934D0188E2C6
:103C000090E00E943E0920916B0130E02F5F3F4F12
:103C1000A3E0220F331FAA95E1F740915301509181
:103C20005401241B350BB9016F5F7F4F40915C013C
:103C300050915D0102C0440F551F6A95E2F7509301
:103C40004C0140934B0160914F0170915001460F20
:103C5000571F90E002C0880F991F2A95E2F7480F7E
:103C6000591F5093500140934F0150934A01409384
:103C7000490160914F018091590190915A010E9430
:103C8000C00A20915301309154012150310981E043
:103C900090E002C0880F991F2A95E2F720915C01FD
:103CA00030915D01822393230E946A0B20916B0166
:103CB0008091490190914A01F8E02F9F90011124D1
:103CC000295F3F4FAC01440F551F8427952702C041
:103CD000959587952A95E2F7817099270C948C1415
:103CE00090E090934E0180934D0188E290E00E9415
:103CF0003E0920916B0130E02F5F3F4FF3E0220F30
:103D0000331FFA95E1F74091530150915401241B60
:103D1000350B40915C0150E0B9016F5F7F4F02C0ED
:103D2000440F551F6A95E2F750934C0140934B01A5
:103D300090E002C0880F991F2A95E2F7840F951F23
:103D400090914F01890F80934F0190E090934A0129
:103D5000809349018ECF20916B0148E0249F900110
:103D60001124295F3F4FC0914901D0914A01022E91
:103D700002C0D595C7950A94E2F7C170DD2740913E
:103D80005301509154014150510980914D0190913E
:103D90004E0102C0880F991F4A95E2F702C096951E
:103DA00087952A95E2F7817099270E946A0B90CD3A
:103DB00020916B0158E0259F90011124295F3F4F0E
:103DC00080914D0190914E0102C0969587952A955C
:103DD000E2F782CF80916B0190E0019673E0880F4B
:103DE000991F7A95E1F720915301309154012817DA
:103DF000390730F080915C0190915D010E946A0B5F
:103E000090E080E00E94160B8091590190915A0138
:103E10000E943E0980934F0140916B01442309F4B5
:103E200046C020914F013091500130934E012093B4
:103E30004D0150E04F5F5F4F63E0440F551F6A959F
:103E4000E1F781E090E002C0880F991F4A95E2F700
:103E500001970090530102C0959587950A94E2F767
:103E60008095909560915C0170915D01869FA001A5
:103E7000879F500D969F500D112450935D014093E4
:103E80005C0150934C0140934B01240F351F30933C
:103E9000500120934F0130934A01209349016091D2
:103EA0004F018091590190915A010C94A910282F2B
:103EB00030E030934E0120934D0193010090530167
:103EC00002C0359527950A94E2F720953095909198
:103ED0005C01929F902D112490935C01292F30E07A
:103EE00030934C0120934B01890F80934F0190E058
:103EF00090934A0180934901D2CF81E090E00E94E3
:103F00002F0A80934F01E82FE150FF0BBF0181E0A2
:103F100090E00E94E20A80914F018150990B9093AA
:103F200054018093530180916C01813029F178F024
:103F3000833049F1609168014091530150915401DF
:103F400064039001659F300D11240C9439108BE2AD
:103F500090E00E943E0921E030E0882311F030E03B
:103F600020E08091530190915401822393239093F8
:103F7000540180935301DECF8BE290E00E943E0912
:103F8000282F30E0EECF81E090E00E942F0A80934E
:103F90004F019927BC016F5F7F4F81E090E00E9445
:103FA000E20A80914F01811103C082E090E0DFCFEF
:103FB00081E090E0DCCF20916A01809170019091C6
:103FC00071010396821B9109909371018093700196
:103FD00030916B0131110EC0222309F11092710151
:103FE00010927001609164017091650189E090E028
:103FF0000E94E20A209168013091690180916A0172
:10400000882311F40C94391080916B01882311F4EA
:104010000C943910022E000C330B0C9439100E94B2
:10402000AE0BE8CF80915701909158010E943E0954
:104030008093500190916B019923B9F080914F01C9
:104040009091500190934E0180934D012091500129
:104050003091510130934C0120934B0182239323E3
:1040600090934A018093490174CA90914F01292F7E
:1040700030E030934E0120934D01282F30E03093F3
:104080004C0120934B01892390E0EACF81E080939B
:104090006B01109258011092570180916C0190E0D1
:1040A000880F991F90935601809355018091550177
:1040B00090915601209157013091580128173907E6
:1040C00011F40C94F2110E943E09809350019091DA
:1040D0006B01992309F471C080914F0190915001B7
:1040E00090934E0180934D012091500130915101E8
:1040F00030934C0120934B018227932790935001DA
:1041000080934F0190934A018093490160914F0140
:1041100080915701909158010E94C00A80915701E7
:10412000909158010E943E098093500190916B013B
:10413000992309F455C080914F01909150019093BB
:104140004E0180934D0120915001309151013093E7
:104150004C0120934B018227932790935001809329
:104160004F0190934A018093490160914F018091E2
:104170005501909156010E94C00A8091550190917D
:1041800056010E943E098093500190916B01992342
:10419000D1F180914F019091500190934E01809305
:1041A0004D01209150013091510130934C012093E9
:1041B0004B01822793270C94E91390914F01292FEB
:1041C00030E030934E0120934D01282F30E03093A2
:1041D0004C0120934B01892780934F0190E092CFAF
:1041E00090914F01292F30E030934E0120934D01E3
:1041F000282F30E030934C0120934B018927809386
:104200004F0190E0AECF90914F01292F30E03093D5
:104210004E0120934D01282F30E030934C01209324
:104220004B0189270C94001480916301882309F4C1
:10423000AAC080915B0190E090935D0180935C0146
:1042400080916201882309F4A1C081E090E00E947E
:104250002F0A9093540180935301809153019091C0
:104260005401892B09F4AFC08091480180FD91C0B1
:1042700050E040E066E070E080915C0190915D016B
:104280000E943F0A0E943E098093500190916B0169
:10429000992309F481C080914F019091500190932E
:1042A0004E0180934D018091500190915101909366
:1042B0004C0180934B019093500180934F01909358
:1042C0004A0180934901C0914F0180914801823099
:1042D00008F076C050E040E067E070E088E090E0F1
:1042E0000E943F0A6C2F0E94C00A8091480180FD05
:1042F00020C086E090E00E942F0AEC018FE290E05F
:104300000E943E0990E0880F991F019720916B0150
:1043100030E02F5F3F4F829FA001839F500D929FFF
:10432000500D1124BE01641B750B86E090E00E94C5
:10433000E20A8091480181FD20C087E090E00E9460
:104340002F0AEC018FE290E00E943E0990E0880F76
:10435000991F019720916B0130E02F5F3F4F829FA3
:10436000A001839F500D929F500D1124BE01641B2C
:10437000750B87E090E00E94E20A809153019091D2
:104380005401019766CF8BE090E056CF81E090E03A
:1043900060CF90E080E076CF20914F0130E0309305
:1043A0004E0120934D01282F30E030934C01209393
:1043B0004B0180934F0130934A012093490183CFF1
:1043C00090E080E08FCF80916201882311F40C94FB
:1043D000F21170E060E081E090E00C94661580914D
:1043E0006301882391F080915B0190E090935D01DF
:1043F00080935C018091620181110AC081E090E0AC
:1044000090935401809353010FC08BE090E0EECF66
:1044100081E090E00E942F0A909354018093530111
:10442000892B11F40C94F211809153019091540155
:10443000892B09F4BFC050E040E067E070E088E0FD
:1044400090E00E943F0A0E943E09809350019091A3
:104450006B01C0914F01992309F497C080914F01DE
:104460009091500190934E0180934D012091500105
:104470003091510130934C0120934B01821B930BDF
:1044800090934A01809349018091480181118FC026
:1044900050E040E066E070E080915C0190915D0149
:1044A0000E943F0A6C2F0E94C00A8091480181112E
:1044B00020C086E090E00E942F0AEC018FE290E09D
:1044C0000E943E0990E0880F991F019720916B018F
:1044D00030E02F5F3F4F829FA001839F500D929F3E
:1044E000500D1124BE01641B750B86E090E00E9404
:1044F000E20A81E090E00E942F0A80934F01282F6A
:104500002150330BB90181E090E00E94E20A87E07C
:1045100090E00E942F0AEC018FE290E00E943E0999
:1045200090E0880F991F019720916B0130E02F5F79
:104530003F4F829FA001839F500D929F500D1124E9
:10454000BE01641B750B87E090E00E94E20A809137
:104550006201882309F4C9C580914F01813081F03F
:1045600081E090E02091490130914A01232B11F024
:1045700090E080E0209145012817190609F454CFF6
:1045800010925401109253014FCF2C2F30E03093F2
:104590004E0120934D0190E090934C0180934B018C
:1045A000281B390B30934A01209349016DCF90E0CD
:1045B00080E078CF83E090E09093440180934301C2
:1045C0000C94361480916B0180936A018091700184
:1045D000909171010E94720B80914801882331F003
:1045E00089E090E00E942F0A0E94720B809148019E
:1045F00081FF0BC080915301909154010E94720B76
:1046000090E00E94F70A0C94F21180916A018111E6
:104610000C94F21184E090E00E942F0A60916801EE
:1046200070916901680F791F84E090E00C94661521
:1046300080915501909156010E943E0980934F014F
:1046400090916B01992371F080914F0190915001ED
:1046500090934E0180934D0180916401909165018A
:104660000C94CD1990E090934E0180934D012091D0
:1046700064010C94E31910926301809183018150CD
:10468000809383018093850180911D0599E089279E
:1046900080931D05809148018823D9F182E090E044
:1046A0000E942F0A90935401809353018036910504
:1046B000B1F51092A70190E080E00E943E0980933E
:1046C0004F0190916B012091530130915401992336
:1046D00009F45EC080914F019091500190934E017A
:1046E00080934D012D5B3E4FF90180819181909324
:1046F0004C0180934B019093500180934F01909314
:104700004A018093490160914F0190E080E00C9450
:10471000A01580916801909169019927C3CF853DCB
:10472000934049F68091170590E0959587950797F6
:1047300011F68EE994E00E943E09182F8DE994E06D
:104740000E943E09C82FD0E040E5149FC00DD11D46
:1047500011248DEA94E00E943E09C80FD11D80917A
:104760001705282F217080FF10C08FEF90E0C8231D
:10477000D92380E0211101C088E002C0D695C795F9
:104780008A95E2F7C093180596CF80E09FEFEFCFB0
:1047900090E090934E0180934D012D5B3E4FF901C7
:1047A0002081822F90E090934C0180934B012093C5
:1047B0004F01A5CF80914801882309F400C182E010
:1047C00090E00E942F0A909354018093530190E04F
:1047D00080E00E943E0980934F0190916B012091EF
:1047E000530130915401F901ED5BFE4F992309F417
:1047F000ECC08081918190934E0180934D01809116
:104800004F019091500190934C0180934B01918303
:10481000808390934A01809349012136310569F4E0
:104820001092420190E080E00E943E09982F937020
:1048300080914101892B8093410180915301909196
:1048400054018D7F80349105D9F480918601867062
:10485000B9F090E080E00E943E0920915301309130
:1048600054019091420141E09427909342012759CD
:104870003B4F682FA901491B5109CA010E94C00A78
:104880008091530190915401853D9340A1F4809112
:10489000170590E095958795069769F490E080E07C
:1048A0000E943E09682F8091170580FDA0C08EEA06
:1048B00094E00E94C00A8091530190915401853D7B
:1048C000934009F058C08091170590E09595879521
:1048D000079709F050C08EE994E00E943E09C82F66
:1048E0008DE994E00E943E09082F10E0F0E5CF9F8B
:1048F000000D111D11248DEA94E00E943E09080F5D
:10490000111D8091170580FF75C080E09FEF08237F
:10491000192390E080E00E943E09C82FD0E08091EA
:104920001705212C80FD02C0A8E02A2E8DEA94E014
:104930000E943E0902C0CC0FDD1F2A94E2F7C81B7B
:10494000D109CE01800F911F90935D0180935C018E
:10495000B7010E947B28682F8DE994E00E94C00A6D
:1049600080915C0190915D01B7010E947B288EE9E6
:1049700094E00E94C00A8091530190915401853BBC
:10498000934041F48091F704813021F490E080E07D
:104990000E943E098091530190915401853B9340C0
:1049A00011F00C94F2118091F704863011F00C9400
:1049B000F21190E080E00E943E090C94F211809187
:1049C0006801909169019927FECE408150E0509393
:1049D0004E0140934D01482F50E050934C014093BD
:1049E0004B01808350934A014093490116CF8DEAD1
:1049F00094E05FCF8FEF90E08ACF82E080936201F6
:104A000080916B018093450180916301882311F4AB
:104A10000C94F2118F5F809363010C94F2118091DA
:104A200048010C94D010809148010C94D61082E07B
:104A3000809363018091480180935B0180916201C2
:104A4000882311F40C94F2118F5F809362010C940F
:104A5000F21110926B018091480190E0882309F4D3
:104A600092C080E00E943E0980934F0190E080E078
:104A70000E943E09282F30E030935D0120935C01B5
:104A80008F7061E08A3040F48AE290E00E943E0933
:104A900061E0811101C060E08AE290E00E94E00ADA
:104AA00060914F0190E080E00E94E00A90E080E099
:104AB0000E943E0980934F0180915C0191E08A3908
:104AC00040F488E290E00E943E0991E0811101C02B
:104AD00090E0892F90E00E946A0B882351F080912A
:104AE0004F01805680934F0190E090934A0180934C
:104AF000490160914F0190E080E00E94E00A90E05F
:104B000080E00E943E09282F30E030935D01209321
:104B10005C018F7061E08A3040F48AE290E00E948C
:104B20003E0961E0811101C060E08AE290E00E94EC
:104B3000E00A60914F0190E080E00E94E00A90E07E
:104B400080E00E943E0980934F0190E080E00E9447
:104B50003E09807F91E0813940F488E290E00E9434
:104B60003E0991E0811101C090E0892F90E00E9400
:104B70006A0B882309F4C7CD80914F01805A809336
:104B80004F0190E0BCCD80E00E943E0980934F0130
:104B9000B6CF90E080E00E942F0A80934F0190E012
:104BA00080E00E943E098F7091E08A3040F48AE2F2
:104BB00090E00E943E0991E0811101C090E0892FB0
:104BC00090E00E946A0B61E0811101C060E08AE21E
:104BD00090E00E94E00A60914F0170E090E080E078
:104BE0000E94E20A90E080E00E943E09682F6F7008
:104BF0006093500190E080E00E94E00A80914F01B4
:104C000090E090934A01809349010C94F21190E056
:104C100080E00E943E0980934F0120916B0190E05B
:104C2000222321F080914F019091500148E0249F70
:104C300090011124295F3F4F02C0959587952A95D1
:104C4000E2F78170682F619581E090E00C94A015E7
:104C500090E080E00E942F0A80934F0120916B0129
:104C60009927222321F080914F019091500158E023
:104C7000259F90011124295F3F4F02C0959587958C
:104C80002A95E2F78170992766277727681B790BA9
:104C900082E090E00C94661589E090E00E942F0A73
:104CA0000E94AE0B809170019091710105960E9457
:104CB000AE0B609164017091650189E090E00E9403
:104CC000E20A80916801909169010C943F100E9462
:104CD000920A80915301909154010C94F0110E941A
:104CE000920AC0915301D0915401CC2781E090E009
:104CF0000E943E098C0F9D2F911D83CC0E94920A29
:104D000060915301A1CF81E080936A0180936B0190
:104D10002091600184E090E0222311F090E080E097
:104D200090935D0180935C0160915F0170E023309E
:104D300008F0C6C001960E945D0A90E00E942F0A0A
:104D4000EC0160915F0170E080915C0190915D01E8
:104D500002960E945D0A2091660130916701829F50
:104D60008001839F100D11240C0F1D1F60915F01A6
:104D700070E080915C0190915D010E945D0AC82FF6
:104D8000D0E080916301811198C060915F0170E073
:104D900080915C0190915D0103960E945D0AA801DB
:104DA000BE0190E00E943F0ABC0170935A016093DB
:104DB0005901709358016093570190915E01492FFA
:104DC00050E0440F551F80916B019A01811108C07A
:104DD000292F26952695240F352F311D277033272F
:104DE000309356012093550180916A01882361F028
:104DF00030935401209353017093560160935501F1
:104E0000309358012093570180915501909156019C
:104E10000E943E098093500190916B01992309F4FF
:104E200052C080914F019091500190934E01809318
:104E30004D01809150019091510190934C018093CC
:104E40004B019093500180934F0190934A018093BE
:104E5000490160914F0180915701909158010E9442
:104E6000C00A8091590190915A0102960E943E0910
:104E70008093500190916B019923C9F180914F016A
:104E80009091500190934E0180934D01809150017B
:104E90009091510190934C0180934B01909350015C
:104EA00080934F0190934A0180934901809148017A
:104EB00060914F0190E00C94A91080915B016FCF3D
:104EC000660F771F72CF20914F0130E030934E0173
:104ED00020934D01282F30E030934C0120934B015B
:104EE00080934F0130934A0120934901B2CF209122
:104EF0004F0130E030934E0120934D01282F30E0D8
:104F000030934C0120934B0180934F0130934A0121
:104F100020934901CBCF809170019091710101964E
:104F2000909371018093700183E00C940C16809132
:104F300070019091710102969093710180937001BC
:104F4000809168010C940C16809170019091710110
:104F50000196909371018093700180E390E00E942C
:104F60003E09882311F40C94F21184E00C940C1681
:104F700080916801909169019927909369018093CC
:104F80006801892B11F40C940B1690E080E00E94CC
:104F90003E0990E060916801709169010E947B2850
:104FA00081E090E00E94E00A90E080E00E943E09EB
:104FB00090E060916801709169010E947B28809364
:104FC0004F018093490190934A01682F9ECB109224
:104FD0006B0190E080E00E943E09C82F81E090E0E4
:104FE0000E943E0990916801899FC00D11246C2F89
:104FF00070E070934A016093490190E080E00C9466
:10500000661588E290E00E943E09682F61957DCB8D
:1050100090E080E00E943E09482F50E080916301BB
:10502000882351F080915B0190E063E070E00E9482
:105030003F0A0E943E09C9CF8BE090E0F6CF88E29C
:1050400090E00E943E0961E0682760934F0188E28A
:1050500090E00C94A01580914801682F61708695AE
:1050600090E00C94A01590E080E00E943E098093AF
:105070004F0190916B019923B9F020914F0130912C
:10508000500130934E0120934D01409168015091A1
:10509000690150934C0140934B01242335233093F5
:1050A0004A012093490191CF282F30E030934E01DF
:1050B00020934D0120916801422F50E050934C0104
:1050C00040934B01282330E0EACF809168018111A1
:1050D0000C94F21190E080E00E943E09682F8EE867
:1050E00093E00E947F010C94F21180915301909102
:1050F0005401019785C9AA1BBB1B51E107C0AA1F18
:10510000BB1FA617B70710F0A61BB70B881F991F68
:105110005A95A9F780959095BC01CD01089597FB0C
:10512000072E16F4009407D077FD09D00E947B2843
:1051300007FC05D03EF4909581959F4F089570959A
:1051400061957F4F0895A1E21A2EAA1BBB1BFD019A
:105150000DC0AA1FBB1FEE1FFF1FA217B307E40756
:10516000F50720F0A21BB30BE40BF50B661F771FAE
:10517000881F991F1A9469F760957095809590958E
:105180009B01AC01BD01CF010895EE0FFF1F0590FB
:10519000F491E02D0994A29FB001B39FC001A39F99
:1051A000700D811D1124911DB29F700D811D112460
:1051B000911D0895FB01DC0104C08D9101908019BF
:1051C00021F441505040C8F7881B990B0895FB010A
:1051D000DC0102C001900D9241505040D8F7089573
:1051E000F894FFCFFFFFFFFF000000007F01DF000A
:1051F0000C01EB013D011B012F01000000003A08EA
:10520000DF000007FF0672616D2E62696E000D0AF5
:04521000002E00006C
:107E0000112484B714BE81FFF0D085E080938100F7
:107E100082E08093C00088E18093C10086E0809377
:107E2000C20080E18093C4008EE0C9D0259A86E02C
:107E300020E33CEF91E0309385002093840096BBD3
:107E4000B09BFECF1D9AA8958150A9F7CC24DD24C4
:107E500088248394B5E0AB2EA1E19A2EF3E0BF2EE7
:107E6000A2D0813461F49FD0082FAFD0023811F036
:107E7000013811F484E001C083E08DD089C08234E0
:107E800011F484E103C0853419F485E0A6D080C0E4
:107E9000853579F488D0E82EFF2485D0082F10E0AE
:107EA000102F00270E291F29000F111F8ED06801E7
:107EB0006FC0863521F484E090D080E0DECF843638
:107EC00009F040C070D06FD0082F6DD080E0C81688
:107ED00080E7D80618F4F601B7BEE895C0E0D1E017
:107EE00062D089930C17E1F7F0E0CF16F0E7DF06D8
:107EF00018F0F601B7BEE89568D007B600FCFDCFD4
:107F0000A601A0E0B1E02C9130E011968C91119780
:107F100090E0982F8827822B932B1296FA010C0160
:107F200087BEE89511244E5F5F4FF1E0A038BF0790
:107F300051F7F601A7BEE89507B600FCFDCF97BE46
:107F4000E89526C08437B1F42ED02DD0F82E2BD052
:107F50003CD0F601EF2C8F010F5F1F4F84911BD097
:107F6000EA94F801C1F70894C11CD11CFA94CF0C13
:107F7000D11C0EC0853739F428D08EE10CD085E9AC
:107F80000AD08FE07ACF813511F488E018D01DD067
:107F900080E101D065CF982F8091C00085FFFCCF94
:107FA0009093C60008958091C00087FFFCCF809118
:107FB000C00084FD01C0A8958091C6000895E0E648
:107FC000F0E098E1908380830895EDDF803219F02E
:107FD00088E0F5DFFFCF84E1DECF1F93182FE3DFCA
:107FE0001150E9F7F2DF1F91089580E0E8DFEE27F6
:047FF000FF270994CA
:027FFE00040479
:00000001FF
