:020000040000FA
:100000000C94BD000C94E5000C94E5000C94E50004
:100010000C94E5000C94E5000C94E5000C94E500CC
:100020000C94E5000C94E5000C94E5000C94E500BC
:100030000C94E5000C94E5000C94E5000C94E500AC
:100040000C94260D0C94E5000C94F40C0C94CE0C3E
:100050000C94E5000C94E5000C94E5000C94E5008C
:100060000C94E5000C94E50000000000240027003B
:100070002A0000000000250028002B0004040404CE
:100080000404040402020202020203030303030342
:10009000010204081020408001020408102001021F
:1000A00004081020000000080002010000030407FB
:1000B00000000000000000002E20446F6E6521004B
:1000C0002E20446F6E652120496E69742066696C2C
:1000D0006573797374656D00496E697420534420AB
:1000E00063617264000A426F6F74696E6720757095
:1000F0002E2E2E002E005374617274696E67207666
:1001000038362E2E2E00436F70797269676874201E
:100110002843292032303231204072617370696483
:1001200075696E6F2C20756E6465722047504C2D7A
:100130007633006176722D763836202D20496E7424
:10014000656C203830383620656D756C61746F725F
:100150002072756E6E696E67206F6E2041726475D5
:10016000696E6F20554E4F007C3C3E5E2B3D3F2F0D
:100170005B5D3B2C2A225C00700D11241FBECFEF6B
:10018000D8E0DEBFCDBF11E0A0E0B1E0EAE5F5E5E3
:1001900002C005900D92A235B107D9F724E0A2E57F
:1001A000B1E001C01D92A13EB207E1F710E0CDEB36
:1001B000D0E004C02197FE010E94802ACC3BD107E9
:1001C000C9F70E94A60D0C94AB2A0C940000AF92C4
:1001D000BF92CF92DF92EF92FF920F931F93CF9334
:1001E000DF936C017B018B01040F151FEB015E0196
:1001F000AE18BF08C017D10759F06991D601ED912B
:10020000FC910190F081E02DC6010995892B79F7C9
:10021000C501DF91CF911F910F91FF90EF90DF907B
:10022000CF90BF90AF900895FC01538D448D252F42
:1002300030E0842F90E0821B930B541710F0CF9680
:10024000089501970895FC01918D828D981761F0B2
:10025000A28DAE0FBF2FB11D5D968C91928D9F5FC9
:100260009F73928F90E008958FEF9FEF0895FC01A8
:10027000918D828D981731F0828DE80FF11D858D5B
:1002800090E008958FEF9FEF0895FC01918D228DEE
:10029000892F90E0805C9F4F821B91098F73992773
:1002A000089580E394E00E94450121E0892B09F440
:1002B00020E0822F089580E090E0892B29F00E94B1
:1002C000510181110C9400000895FC01A48DA80F28
:1002D000B92FB11DA35ABF4F2C91848D90E0019688
:1002E0008F739927848FA689B7892C93A089B189A8
:1002F0008C91837080648C93938D848D981306C049
:100300000288F389E02D80818F7D80830895EF92AC
:10031000FF920F931F93CF93DF93EC0181E0888FBF
:100320009B8D8C8D98131AC0E889F989808185FF8F
:1003300015C09FB7F894EE89FF896083E889F98931
:1003400080818370806480839FBF81E090E0DF9133
:10035000CF911F910F91FF90EF900895F62E0B8D86
:1003600010E00F5F1F4F0F731127E02E8C8D8E1141
:100370000CC00FB607FCFACFE889F989808185FFA8
:10038000F5CFCE010E946501F1CFEB8DEC0FFD2F73
:10039000F11DE35AFF4FF0829FB7F8940B8FEA8963
:1003A000FB8980818062CFCFEF92FF920F931F93E2
:1003B000CF93DF938C017B01D0E0C0E0F701EC0F1D
:1003C000FD1F6491662339F0C8010E948701892BC3
:1003D00011F02196F3CFCE01DF91CF911F910F91B4
:1003E000FF90EF900895CF93DF93EC01888D8823E1
:1003F000B9F0AA89BB89E889F9898C9185FD03C088
:10040000808186FD0DC00FB607FCF7CF8C9185FF6C
:10041000F2CF808185FFEDCFCE010E946501E9CF4B
:10042000DF91CF91089590E0FC01EC55FF4F2491AE
:10043000FC01E057FF4F3491FC01E458FF4FE49179
:10044000EE23C9F0222339F0233001F1A8F4213042
:1004500019F1223029F1F0E0EE0FFF1FEE58FF4FA7
:10046000A591B4918FB7F894EC91611126C03095A5
:100470003E233C938FBF08952730A9F02830C9F060
:10048000243049F7809180008F7D03C080918000E7
:100490008F7780938000DFCF84B58F7784BDDBCFEB
:1004A00084B58F7DFBCF8091B0008F778093B000B3
:1004B000D2CF8091B0008F7DF9CF3E2BDACFCF9392
:1004C000DF9390E0FC01E057FF4F249184589F4F49
:1004D000FC0184918823D1F090E0880F991FFC01E2
:1004E000E859FF4FA591B491FC01EE58FF4FC5911B
:1004F000D49161110EC09FB7F8948C91E22FE095D2
:100500008E238C932881E223E8839FBFDF91CF91D4
:1005100008958FB7F894EC91E22BEC938FBFF6CF50
:100520002FB7F89460915C0170915D0180915E013C
:1005300090915F012FBF08958EBD0DB407FEFDCFD2
:10054000089561E0FC0182810E9413028FEF0C94F8
:100550009C028FEF8EBD0DB407FEFDCF8EB50895C2
:10056000FF920F931F93CF93DF93F82E8B010E947E
:100570009002EB010E94A9028F1571F00E94900277
:100580006C1B7D0B06171707A8F780E0DF91CF9152
:100590001F910F91FF90089581E0F8CFCF92DF92E5
:1005A000EF92FF921F93CF93DF93FC01162F690107
:1005B0007A01838122E090E0281728F4963019F020
:1005C000220F9F5FF9CF292F206A26952CBD90FD21
:1005D00003C021E0963009F420E02DBD60E0828167
:1005E0000E94130268E572E08FEF0E94B002812F33
:1005F00080640E949C02C8E1D0E0D701C6010C2EA5
:1006000004C0B695A795979587950A94D2F70E944E
:100610009C022897C83F8FEFD80779F78FEF111109
:1006200001C085E90E949C02C0E00E94A90287FFE8
:1006300004C0CF3F11F0CF5FF8CFDF91CF911F9172
:10064000FF90EF90DF90CF900895CF93DF93EC0170
:100650009A01AB0189E0220F331F441F551F8A9571
:10066000D1F768E1CE010E94CE02882349F083E0F1
:100670008883CE010E94A10280E0DF91CF9108958E
:100680008EEF8EBDE0E3F2E00DB407FEFDCF819169
:100690008EBD84E0E033F807B9F70DB407FEFDCF57
:1006A0008FEF0E949C028FEF0E949C020E94A90281
:1006B000982F9F71953019F0898386E0D9CF68E52E
:1006C00072E08FEF0E94B002811105C087E088833D
:1006D000CE010E94A102CE010E94A10281E0CDCFF5
:1006E0000F931F93CF9380915601C1E0882399F017
:1006F00000912602109127024091000150910101C2
:100700006091020170910301C8010E942503C82F66
:10071000811106C0C0E08C2FCF911F910F910895D9
:1007200040915201509153016091540170915501D3
:10073000411551056105710569F0C8010E94250345
:10074000882341F3109252011092530110925401E8
:100750001092550110925601DECFCF92DF92EF92A8
:10076000FF921F93CF93DF936B017C01142F809135
:10077000000190910101A0910201B09103018C153B
:100780009D05AE05BF0509F44FC00E947003882384
:10079000C9F0C0912602D0912702A701960189E0F5
:1007A000220F331F441F551F8A95D1F761E1CE01F7
:1007B0000E94CE02882371F084E08883CE010E94DB
:1007C000A10280E0DF91CF911F91FF90EF90DF9029
:1007D000CF9008956CE271E08EEF0E94B00281111B
:1007E00005C085E08883CE010E94A1028FEF8EBDF7
:1007F000E0E3F2E00DB407FEFDCF9EB591938EBD10
:1008000094E0E033F907B1F70DB407FEFDCF0E9485
:10081000A902CE010E94A102C0920001D092010162
:10082000E0920201F092030181E0112359F28093DA
:100830005601C8CF4F925F926F927F929F92AF9274
:10084000BF92CF92DF92EF92FF920F931F93CF93BD
:10085000DF9325E132E0309327022093260288239C
:1008600009F4DEC040E060E070E0CB010E94AD031F
:10087000811112C0D0E08D2FDF91CF911F910F9188
:10088000FF90EF90DF90CF90BF90AF909F907F90C0
:100890006F905F904F900895C090F603D090F7034B
:1008A000E090F803F090F90340E0C701B6010E9420
:1008B000AD03D82F8823F1F280912E048535D1F62F
:1008C00080912F048A3AB1F69090400290922502CE
:1008D000C0913D02C0932C02009146021091470244
:1008E000109324020093230220914102309142028E
:1008F00030932E0220932D02A0903E02B0903F0232
:10090000D701C6018A0D9B1DA11DB11D80931F0239
:1009100090932002A0932102B0932202909EA00106
:10092000919E500D1124840F951FA11DB11D809320
:100930001B0290931C02A0931D02B0931E0245E07F
:10094000220F331F4A95E1F721503E4F232F3327C3
:100950002695820F931FA11DB11D809328029093AD
:100960002902A0932A02B0932B0240904302509098
:100970004402712C612C4114510441F44090500206
:10098000509051026090520270905302C81AD90AD6
:10099000EA0AFB0AC701B601640D751D861D971D85
:1009A0002C2F30E050E040E00E945E2A30931A0283
:1009B0002093190260913B0270913C0261157240D4
:1009C00009F058CF0115110509F454CF253F6FE008
:1009D000360708F44FCF81E04816510480E86806D6
:1009E000710408F047CFAB2809F444CF992009F4EB
:1009F00041CFC32EDD240C151D0508F43BCFCC23BD
:100A000009F438CF8C2F90E09C01215031098223CA
:100A10009323892B09F02ECF81E080932F022BCFD7
:100A2000C12CD12C760140CFCF92DF92EF92FF9272
:100A30000F931F93CF93DF938230910550F480E0A2
:100A4000DF91CF911F910F91FF90EF90DF90CF90AA
:100A500008952091190230911A022F5F3F4F2817F5
:100A6000390768F3EB018C01212F3327C0901F0257
:100A7000D0902002E0902102F0902202C20ED31EFC
:100A8000E11CF11C8091000190910101A0910201F3
:100A9000B0910301C816D906EA06FB0689F4F801ED
:100AA000FF27EE0FFF1FE05DFD4FD183C08381E084
:100AB0008093560180912502823050F481E0C0CFAE
:100AC00040E0C701B6010E94AD038111E8CFB7CF66
:100AD0008091230290912402C80ED91EE11CF11CC2
:100AE000C0925201D0925301E0925401F09255010C
:100AF000E5CFCF92DF92EF92FF920F931F93CF93A8
:100B0000DF932091190230911A022F5F3F4F28176F
:100B1000390750F480E0DF91CF911F910F91FF9042
:100B2000EF90DF90CF9008958B01EC012D2F3327AC
:100B300060911F0270912002809121029091220207
:100B4000620F731F811D911DC0900001D0900101A3
:100B5000E0900201F09003016C157D058E059F0564
:100B600061F4DD27CC0FDD1FC05DDD4F88819981E9
:100B7000F8019183808381E0CECF40E00E94AD03F5
:100B80008111EFCFC7CF4F925F926F927F928F927A
:100B90009F92AF92BF92CF92DF92EF92FF920F930C
:100BA0001F93CF93DF93EC016A017B018D818370EA
:100BB00091F480E0DF91CF911F910F91FF90EF9022
:100BC000DF90CF90BF90AF909F908F907F906F906D
:100BD0005F904F9008958A859B85AC85BD858C1567
:100BE0009D05AE05BF0528F3C114D104E104F1044D
:100BF00041F41F861E86188A198A1A8A1B8A81E088
:100C0000D9CF80902C02912CB12CA12CCB01BA0110
:100C1000615071098109910939E096958795779519
:100C200067953A95D1F7A50194010E945E2A890142
:100C300088899989AA89BB89C816D906EA06FB065C
:100C400020F00097A105B105A9F4888599859F87B3
:100C50008E875E018EE0A80EB11C01151105F1F022
:100C6000B5018E859F850E9479050150110981117A
:100C7000F4CF9FCFBC01CD01615071098109910969
:100C800029E096958795779567952A95D1F7A501DF
:100C900094010E945E2A021B130BDBCFC88AD98AFB
:100CA000EA8AFB8AACCFCF93DF9320912D0230915B
:100CB0002E028217930728F090E080E0DF91CF9119
:100CC0000895462FEC019C0154E0369527955A95DE
:100CD000E1F760911B0270911C0280911D029091BE
:100CE0001E02620F731F811D911D0E94AD03882398
:100CF00019F3CE018F70992725E0880F991F2A9547
:100D0000E1F7805D9D4FDACFCF93DF93FC01258122
:100D100027FF18C0EC0161E0868197810E9453068D
:100D20000097A1F04A855B856C857D85FC01448F29
:100D3000558F668F778F28853985338F228F8D81E8
:100D40008F778D83DF91CF910C94700380E0DF91DA
:100D5000CF9108958DEC94E00E9484061092D20405
:100D60000895CF92DF92EF92FF920F931F93CF934C
:100D7000DF9300D0CDB7DEB77C01FC010685178577
:100D80000115110511F401E010E0D12CC12C809166
:100D9000190290911A02C816D906F8F48017910723
:100DA00010F401E010E00F5F1F4FBE016F5F7F4F37
:100DB000C8010E947905882381F089819A81892B55
:100DC00021F0FFEFCF1ADF0AE2CF6FEF7FEFC8010C
:100DD0000E941405D82E81110DC0D12C8D2D0F909D
:100DE0000F90DF91CF911F910F91FF90EF90DF90C7
:100DF000CF900895F70186859785009749F0B8014F
:100E00000E941405882349F3F70117870687E6CF68
:100E100085818068858311870087F6CF089590E0EB
:100E200080E008950F931F93CF93DF93D0912F020B
:100E3000D11107C0D0E08D2FDF91CF911F910F917D
:100E400008952091D2042370A9F7C62F8C0160E089
:100E50000E945306FC01892B69F38081882351F39A
:100E6000853E41F38385982F987121F780FF02C05A
:100E7000C13001F71092DC041092DB041092DD0403
:100E80001092DE041092DF041092E0041093D40458
:100E90000093D304848D958DA68DB78D8093D70450
:100EA0009093D804A093D904B093DA04828D938DE3
:100EB0009093D6048093D504C093D204BCCFAF9254
:100EC000BF92DF92EF92FF920F931F93CF93DF9326
:100ED000CDB7DEB72B970FB6F894DEBF0FBECDBFF0
:100EE00020912F02222329F12091D204237009F5A9
:100EF000FE0131969E01245F3F4F7F0140E2419306
:100F0000E217F307E1F7DC0190E027E08D91382F3D
:100F1000882391F18E3229F42A3059F098E02AE0A2
:100F2000F5CFE8E6F1E044914423A1F03196841333
:100F3000FACF80E02B960FB6F894DEBF0FBECDBF80
:100F4000DF91CF911F910F91FF90EF90DF90BF90B5
:100F5000AF900895291768F34FED480F4E3548F7C5
:100F60004FE9480F4A3110F430EE380FF701E90F1E
:100F7000F11D30839F5FCACF89818032D1F2D62E96
:100F800010E000E0AA24AA94BA2C80912D0290913E
:100F90002E020817190768F660E0C8010E94530680
:100FA000BC01009731F2FC0190819923F9F0953E44
:100FB00019F4B7FE21C01CC04BE050E0C7010E94ED
:100FC000952A892BC9F46D2DC8012B960FB6F8947C
:100FD000DEBF0FBECDBFDF91CF911F910F91FF906C
:100FE000EF90DF90BF90AF900C941207B7FEA1CFA7
:100FF0005801992309F49DCF0F5F1F4FC6CF4F9221
:101000005F926F927F928F929F92AF92BF92CF9298
:10101000DF92EF92FF920F931F93CF93DF935C01C8
:101020008B018091D20480FD13C08FEF9FEFDF9181
:10103000CF911F910F91FF90EF90DF90CF90BF90D5
:10104000AF909F908F907F906F905F904F9008959A
:101050008091DD049091DE04A091DF04B091E00462
:101060004091D7045091D8046091D9047091DA046A
:101070006C017D01C00ED11EE11CF11C4C155D05FB
:101080006E057F0518F48A01081B190B7801812C65
:1010900032E0932EE114F10409F486C08091DD045E
:1010A0009091DE04A091DF04B091E004C0902C0286
:1010B000AC01BD0129E076956795579547952A952E
:1010C000D1F7DD24DA94DC0CD422EC01D170DD20E0
:1010D00009F448C02091DB043091DC04225031092E
:1010E000AC2DB0E00E94862A409028025090290240
:1010F00060902A0270902B02640D751D861D971D4D
:101100006D0D711D811D911D40E00E94AD0388236E
:1011100009F48BCFC4018C1B9D0B67018E159F05B5
:1011200008F46C01BE01605D7D4FA601C5010E94FF
:10113000A22A8091DD049091DE04A091DF04B09199
:10114000E0048C0D9D1DA11DB11D8093DD049093C5
:10115000DE04A093DF04B093E004AC0CBD1CEC18DB
:10116000FD0898CF209709F0B5CF8091DB049091CE
:10117000DC04009791F48091D5049091D60490936B
:10118000DC048093DB048091DB049091DC04029703
:10119000863F9F4F08F49ECF48CF6BED74E00E94CE
:1011A00079058111F0CF41CFC80141CF0F931F9333
:1011B000CF93DF931F92CDB7DEB78C0161E082E25F
:1011C00091E00E945F07A80170E060E08DEC94E080
:1011D0000E94C30561E070E0CE0101960E94FF0706
:1011E0000981019711F00FEF1FEF0E94AA06802FCF
:1011F0000F90DF91CF911F910F9108951F93CF937F
:10120000DF93EC010E94D608182FCE0101960E94B0
:10121000D608912FDF91CF911F910895EF92FF9201
:101220000F931F93CF93DF937B01EA010E94FE0887
:101230008C01C7010E94FE0824E0000F111F2A95AF
:10124000E1F78C0F9D1F800F911FDF91CF911F91B0
:101250000F91FF90EF900895CF93DF93EB018F579D
:101260009F4F0E94FE088C0F9D1FDF91CF910C9421
:10127000D608CF93DF9380931002C82FD0E0BE0131
:1012800088E090E00E942C098093F501BE0189E07E
:1012900090E00E942C098093EB01BE018EE090E06B
:1012A0000E942C0980930402BE018AE090E00E9413
:1012B0002C0990E09093E7018093E601DF91CF91B4
:1012C00008950F931F93CF9382E090EF9093F701CF
:1012D0008093F60109E010E001501109E0F0C80127
:1012E00088960E94D608C82FB80183E190E00E943A
:1012F0002C092C2F30E002C0220F331F8A95E2F711
:101300008091F6019091F701280F391F3093F70172
:101310002093F601E1CFCF911F910F9108952F9265
:101320003F924F925F926F927F928F929F92AF9275
:10133000BF92CF92DF92EF92FF920F931F93CF93C2
:10134000DF9300D0CDB7DEB78C015B014A01FC0111
:10135000858181FFB6C082FDA1C06401212C32E0ED
:10136000332EF80180899189A289B389C114D104EF
:1013700009F4CEC070902C02AC01BD0129E0769535
:101380006795579547952A95D1F766246A94670C17
:1013900064227C01F1E0FF2261101FC0F801868504
:1013A0009785E114F10409F0E3C0009709F48DC0BA
:1013B000BE016F5F7F4F0E947905882309F481C0C9
:1013C00089819A81883FFFEF9F0708F49DC0C8017B
:1013D0000E94B106882309F474C0F8012685378578
:1013E00022503109A72DB0E00E94862A20912802C0
:1013F0003091290240912A0250912B02620F731FF3
:10140000841F951F9B01AC01260D311D411D511DEF
:1014100029013A01E114F10409F0BDC0F801408945
:1014200051896289738982859385A485B58548171A
:1014300059076A077B0708F4AEC00E94700388232F
:1014400009F43FC0409200015092010160920201F4
:101450007092030181E080935601C1018E199F09AA
:1014600036018C159D0508F43C01A301B501C701A7
:10147000805D9D4F0E94A22AF80180899189A289EE
:10148000B389860D971DA11DB11D808B918BA28BF9
:10149000B38BC618D708A60CB71C63CF42855385FB
:1014A0006485758580899189A289B3894817590710
:1014B0006A077B0709F451CFC8010E94C305811157
:1014C0004CCF81E0F80184836DC0808591850097C1
:1014D000D9F4C8010E94B106882399F3F801268542
:1014E000378522503109A72DB0E00E94862A40900E
:1014F00028025090290260902A0270902B02460E1A
:10150000571E681E791E8ACFF8019787868765CF98
:101510004285538564857585481759076A077B0797
:1015200038F4258182879387A487B587206825832F
:10153000F801858183FD16C0C4010F900F90DF91E3
:10154000CF911F910F91FF90EF90DF90CF90BF90C0
:10155000AF909F908F907F906F905F904F903F9053
:101560002F900895C8010E9484068111E5CFA9CF6C
:101570009C0122503109A72DB0E00E94862A40909C
:1015800028025090290260902A0270902B02460E89
:10159000571E681E791E41E0C301B2010E94AD03CF
:1015A00081115BCF8FEF9FEFC8CFCF93DF931F9257
:1015B000CDB7DEB7698341E050E0BE016F5F7F4F7A
:1015C0000E948F0921E030E0019711F030E020E027
:1015D000C9010F90DF91CF9108951F93CF93DF93AF
:1015E000EC01162F62E082E291E00E945F07AE01FB
:1015F00070E060E08DEC94E00E94C305612F70E024
:1016000041E050E08DEC94E00E948F090E94AA0610
:10161000812FDF91CF911F9108950C94ED0A0F93C4
:101620001F93CF93DF938C01D62FC72F0E940D0BF2
:101630006C2FC80101960E940D0B8D2F9C2FDF91FE
:10164000CF911F910F9108950F931F93CF93DF9325
:101650008C01C9E0D0E0219788F0BE0183E190E0E1
:101660000E942C09B80102C0759567958A95E2F72A
:101670006170CE0188960E940D0BEDCFDF91CF9166
:101680001F910F91089561E0892B09F460E080E3D8
:1016900090E00C940D0B6091F0017091F10180913C
:1016A000EE019091EF01682779278091EC019091EC
:1016B000ED01682779277093EF016093EE0184E0D4
:1016C000769567958A95E1F761708AE290E00E94CD
:1016D0000D0B2091EC013091ED018091F001909182
:1016E000F10128173907E1F088E290E00E94D6085E
:1016F00040910E0298E0499FA0011124495F5F4F7D
:101700002091EE013091EF0102C0369527954A9560
:10171000E2F7A9014827CA01817099270C94430B6D
:1017200060E080E390E00E940D0B80E0089561E0AE
:10173000892B09F460E088E290E00C940D0BCF93C4
:10174000DF93EC0181E080930E0284E090E00E9440
:10175000FE08BC016E5F7F4F84E090E00E940F0B9B
:101760004EEF5FEF64E070E08AE090E00E940E09C7
:101770000E94D6088093F3018093F20190910E02AB
:10178000D093F101C093F001992399F08091F20177
:101790009091F3019093EF018093EE019093ED010E
:1017A0008093EC0110920E028091F201DF91CF91B3
:1017B000089590E0EFCFCF93DF93EC0181E0809329
:1017C0000E024FEF5FEF64E070E08AE090E00E946D
:1017D0000E090E94D6088093F3018093F201909144
:1017E0000E02992351F12091F2013091F3013093CF
:1017F000F1012093F001D093EF01C093EE01D0935B
:10180000F301C093F201D093ED01C093EC01C091BC
:10181000F2018C1759F04FEF5FEF64E070E08AE05F
:1018200090E00E940E096C2F0E94ED0A10920E02A9
:101830008091F201DF91CF910895282F30E030930D
:10184000F1012093F0019E0133273093EF012093A3
:10185000EE01C093F2013093ED012093EC01D7CF5C
:10186000CF93DF93C82F8DEC0E9439090E94610944
:101870008091F6019091F7010E94DB0B89E090E0E6
:101880000E94FE080E94DB0B8091130290911402CB
:101890000E94DB0B84E0C89FE0011124CE01029678
:1018A0000E94D6088093F30190910E02992309F4C7
:1018B00048C08091F2019091F3019093F1018093DF
:1018C000F0018091F3019091F4019093EF018093E6
:1018D000EE019093F3018093F2019093ED018093D8
:1018E000EC016091F20182E190E00E94ED0ACA529F
:1018F000D74F20910E028091130290911402909381
:10190000F1018093F001222381F1888199819093E4
:10191000EF018093EE019093140280931302909351
:10192000ED018093EC0160E08DE290E00E940D0BF0
:1019300060E08EE290E00E940D0B80E0DF91CF919D
:1019400008952091F20130E03093F1012093F001ED
:10195000282F30E03093EF012093EE018093F201C5
:101960003093ED012093EC01BCCF888190E0CFCF84
:101970000F931F93CF93DF93EC010E94D4018C014E
:1019800042E050E06AE271E0CE010E94E700800F81
:10199000911FDF91CF911F910F9108951F920F9288
:1019A0000FB60F9211242F933F934F935F936F9332
:1019B0007F938F939F93AF93BF93EF93FF9380E3B6
:1019C00094E00E946501FF91EF91BF91AF919F91CB
:1019D0008F917F916F915F914F913F912F910F90D8
:1019E0000FBE0F901F9018951F920F920FB60F9277
:1019F00011242F938F939F93EF93FF93E0914004D3
:101A0000F09141048081E0914604F091470482FD09
:101A10001BC09081809149048F5F8F7320914A048D
:101A2000821741F0E0914904F0E0E05DFB4F958FB3
:101A300080934904FF91EF919F918F912F910F9087
:101A40000FBE0F901F9018958081F4CF1F920F92B8
:101A50000FB60F9211242F933F938F939F93AF93C1
:101A6000BF9380915C0190915D01A0915E01B09166
:101A70005F0130915B0123E0230F2D3758F501966C
:101A8000A11DB11D20935B0180935C0190935D01CA
:101A9000A0935E01B0935F0180915701909158012E
:101AA000A0915901B0915A010196A11DB11D8093D9
:101AB000570190935801A0935901B0935A01BF91D7
:101AC000AF919F918F913F912F910F900FBE0F90EB
:101AD0001F90189526E8230F0296A11DB11DD2CFA5
:101AE000E0E3F4E01382128288EE93E0A0E0B0E03D
:101AF00084839583A683B78388E091E09183808374
:101B000085EC90E09587848784EC90E097878687C2
:101B100080EC90E0918B808B81EC90E0938B828BBA
:101B200082EC90E0958B848B86EC90E0978B868B93
:101B3000118E128E138E148EEDECF4E0138212824D
:101B40008AE191E09183808315820895CF93DF939A
:101B500000D000D01F92CDB7DEB7789484B58260F4
:101B600084BD84B5816084BD85B5826085BD85B541
:101B7000816085BD80916E00816080936E001092BF
:101B8000810080918100826080938100809181003A
:101B900081608093810080918000816080938000CB
:101BA0008091B10084608093B1008091B000816029
:101BB0008093B00080917A00846080937A00809155
:101BC0007A00826080937A0080917A0081608093AD
:101BD0007A0080917A00806880937A001092C10028
:101BE000E0914004F091410482E08083E0913C0464
:101BF000F0913D041082E0913E04F0913F048FEC9F
:101C0000808310924804E0914404F091450486E0FA
:101C10008083E0914204F09143048081806180835D
:101C2000E0914204F0914304808188608083E091D8
:101C30004204F0914304808180688083E0914204F3
:101C4000F091430480818F7D808363E371E080E3C2
:101C500094E00E94B80C66E071E080E394E00E949A
:101C6000B80C68ED70E080E394E00E94D40112E0CB
:101C70009AE0F92E23E5E22E10931802F092170253
:101C8000109215020E9490027D836C8361E0809126
:101C900017020E945F0261E0809117020E94130206
:101CA00060E08CE00E945F0261E08AE00E945F02D7
:101CB00061E08AE00E94130261E08BE00E945F0213
:101CC00061E08DE00E945F02ECBC0AE08FEF0E94B1
:101CD0009C020150D9F760E0809117020E94130224
:101CE00020E030E0A90160E085E192E00E94CE02B0
:101CF000082F8130D9F00E9490022C813D81621B17
:101D0000730B613D774060F30093160281E080938E
:101D1000150285E192E00E94A10241E050E06DE2EF
:101D200071E080E394E00E94E700A6CF20E030E07D
:101D3000A90167E385E192E00E94CE0220E030E055
:101D4000A90169E285E192E00E94CE02082F882372
:101D500071F00E9490024C815D81641B750B613DA6
:101D6000774020F30093160210931502D2CF85E13D
:101D700092E00E94A10260EC70E080E394E00E9497
:101D8000D40181E00E941A0481110DC00E941A043E
:101D9000811109C041E050E06DE271E080E394E020
:101DA0000E94E700EECF68EB70E080E394E00E94D1
:101DB000B80C66EF70E080E394E00E94B80C60E03D
:101DC00070EF89E090E00E940F0B60E08DE290E000
:101DD0000E940D0B60E884E090E00E940D0B4CE047
:101DE00050E06FE271E080E394E00E94E700C12CD4
:101DF000D12C760161E08CE391E00E945F07B7018E
:101E0000A6018DEC94E00E94C30560E870E080E6D6
:101E100091E00E94FF079D838C830E94AA0662E0E6
:101E200082E291E00E945F07B701A6018DEC94E089
:101E30000E94C3054C815D8160E671E08DEC94E009
:101E40000E948F090E94AA066C817D81603871050D
:101E5000BCF0CB01770FAA0BBB0BC80ED91EEA1E34
:101E6000FB1E64EF70E080E394E00E94D40171EF08
:101E7000C7167FEFD70670E1E706F1040CF4BACF7E
:101E800065EE70E080E394E00E94B80C80E091E0A1
:101E9000909314028093130280E5A82EB12C712C2C
:101EA000612C912C812C89E090E00E94FE0804E0D6
:101EB000880F991F0A95E1F72091130230911402BF
:101EC000820F931F0E94D608E82FF0E0F0931202D1
:101ED000E093110280810E943909A09110028A2F9B
:101EE000877080930F02A170A0930E028695817077
:101EF00080930D02E0911102F091120291817281A2
:101F0000292F372F30930C0220930B02B38170934B
:101F10000902B0930A02438154815093080240930E
:101F2000070280910602882319F0815080930602EF
:101F300080910502882319F08150809305028091D9
:101F40000402882309F499C0A90166E056954795D3
:101F50006A95E1F7437040930302977090930202F1
:101F600013E0369527951A95E1F727702093010223
:101F70004111BEC0963009F0C0C024813581309334
:101F800008022093070224E030E04111C2C03093E0
:101F900000022093FF01692F70E0433009F4BFC0B5
:101FA000C90101960E942C0990E00E94FE089D83C1
:101FB0008C836091020270E08091FF019091000299
:101FC00002960E942C092091090230910A02829FF8
:101FD0008001839F100D11248C819D81080F191F92
:101FE0006091020270E08091FF01909100020E94D6
:101FF0002C09E82FF0E0FD83EC838091060281112B
:102000008BC06091020270E08091FF01909100020C
:1020100003960E942C09A8016C817D8190E00E94AA
:102020000E099093FD018093FC019093FB01809336
:10203000FA0140910102242F30E0220F331F50910A
:102040000E02511106C046954695240F311D27708A
:1020500033273093F9012093F80140910D02442376
:1020600061F03093F7012093F6019093F90180938A
:10207000F8013093FB012093FA01E091F501E1337F
:1020800008F037C2F0E0E95BFF4E0C94802A9E1006
:10209000F5105E1151115711E911FA13B016CC1653
:1020A0000C171119A01A601B34209920CD20012192
:1020B000CF21AF22A823DE230124B224DA25112167
:1020C000EC25F025F4250626A626E4260527292753
:1020D0004427C0234C275F2764276F287B28882844
:1020E0009C28CB28E628ED280429102918294A29FC
:1020F000423009F442CF413029F070930702B09387
:10210000080241CF272F770F330B30930A02209319
:10211000090230E020E03BCF8091FE017CCF660FCA
:10212000771FAA2311F0CB017CCF892F8695869546
:10213000860F972F911D8770992773CF609110029A
:10214000669567706093F40100910B02002E000CFD
:10215000110BF0910E022F2F30E03D832C8370E0A5
:102160008FE090E00E942C0990E00E94D60888231E
:10217000B1F091E04C815D814927409FC001419FB2
:10218000900D509F900D1124209113023091140254
:10219000820F931F9093140280931302AAC160913F
:1021A000F40170E080E190E00E942C0990E00E9430
:1021B000D6088111DECF6091F40170E081E190E0FA
:1021C0000E942C0990E00E94D608F82E6091F4013C
:1021D00070E082E190E00E942C0990E00E94FE08ED
:1021E00091E0F812C7CF90E0C5CF9091100281E046
:1021F000392F387093FF80E080930E0220910F02F8
:10220000822F90E0880F991F311106C026952695E0
:10221000820F911D877099270E94D6088093F30141
:102220008093F20120910E02222359F18091F20154
:102230009091F3019093F1018093F00180910B0252
:1022400090910C029093EF018093EE019093F30133
:102250008093F2019093ED018093EC016091F20183
:1022600030910F02832F90E0880F991F211106C033
:1022700036953695830F911D877099270E94ED0A38
:1022800038C190E09093F1018093F00130910B02FE
:10229000832F90E09093EF018093EE013093F20151
:1022A000D9CF80910F0290E00E94FE0820C180915A
:1022B0000F0290E00E94FE080C949C1A81E080932B
:1022C0000E0210920D0280910F0280930102209164
:1022D000030284E090E0222311F090E080E09093EC
:1022E00000028093FF016091020270E0233008F049
:1022F000EAC101960E942C0990E00E94FE089D838D
:102300008C836091020270E08091FF019091000245
:1023100002960E942C092091090230910A02829FA4
:102320008001839F100D11246C817D81060F171F82
:102330006091020270E08091FF01909100020E9482
:102340002C09E82FF0E0FD83EC83809106028111D7
:10235000B7C16091020270E08091FF01909100028C
:1023600003960E942C09A8016C817D8190E00E9457
:102370000E099093FD018093FC019093FB018093E3
:10238000FA0140910102242F30E0220F331F5091B7
:102390000E02511106C046954695240F311D277037
:1023A00033273093F9012093F80140910D02442323
:1023B00061F03093F7012093F6019093F901809337
:1023C000F8013093FB012093FA018091EB01809397
:1023D000010280910102823008F091C188E190E011
:1023E0000E94D6088093F30190910E022091010281
:1023F000992309F46CC18091F2019091F3019093BB
:10240000F1018093F0014091F3015091F401509358
:10241000EF014093EE01840F951F019630E0220FEB
:10242000331F821B930B9093F3018093F2019093DF
:10243000ED018093EC016091F2018091F80190919F
:10244000F9010E94ED0A21E030E03093EF01209382
:10245000EE010E944B0B80910E0238E0839FC00179
:102460001124079641E050E002C0440F551F8A95A1
:10247000E2F72091F0013091F1012F5F3F4F809101
:102480000102281B310981E090E04217530711F047
:1024900090E080E00E94430B80910E0258E0859FFF
:1024A000C0011124079641E050E002C0440F551FBF
:1024B0008A95E2F72091F0013091F1012F5F3F4FB3
:1024C00080910102281B310981E090E042175307F7
:1024D00011F090E080E00E94430B8091F50185307F
:1024E00019F480E10E9439098091F20190E00E9484
:1024F000DB0B4091030281E090E0433011F490E067
:1025000080E0489F9001499F300D1124411105C082
:1025100081E090910202963009F080E090E0880F0F
:10252000991F820F931F20910402289FF001299F79
:10253000F00D1124FD83EC836091100270E08CE0BB
:1025400090E00E942C092C813D81280F311D3D8394
:102550002C836091100270E08DE090E00E942C09C5
:1025600020910E0230E02F5F3F4F482F429FC00165
:10257000439F900D11246C817D81680F791F4091DC
:10258000130250911402640F751F7093140260932C
:1025900013028091E60180FF40C083E0220F331FC9
:1025A0008A95E1F7215031096091EC017091ED01BC
:1025B00002C0759567952A95E2F761708CE290E00C
:1025C0000E940D0B61E08091EC019091ED01892B4F
:1025D00009F060E08BE290E00E940D0B6091EC014D
:1025E0007091ED0177278BE090E00E942C09682F15
:1025F00089E290E00E940D0B8091E60181FD0E942E
:102600004B0B8091E60182FF08C090E080E00E94C1
:10261000970B90E080E00E94430B8091E201909143
:10262000E30101969093E3018093E20160E27EE48E
:102630000E94362A892B19F481E08093E101809170
:10264000E001882319F081E00E94300C8DE290E0D7
:102650000E94D6088093E0018091E101882309F46B
:1026600022CC8091060281111ECC8091050281113D
:102670001ACC8EE290E00E94D608882309F413CC8D
:102680008DE290E00E94D60881110DCC8AE00E9474
:10269000300C1092E10180E394E00E94450118168D
:1026A00019062CF480E394E00E9423018B836B8154
:1026B00086EA94E00E94ED0A87E00E94300CF3CB9A
:1026C0008091FE0150CECB01880F991F52CE4091D0
:1026D000F201642F70E07093F1016093F00190E0DB
:1026E0009093EF018093EE0130E0220F331F821BA5
:1026F000930B0196840F8093F20190E098CE863080
:1027000009F46FC0833031F489E090E00E94FE0844
:102710000E94DB0B8091010281FF23C02091030204
:1027200081E090E0233011F490E080E0289FA00148
:10273000299F500D1124211105C021E08091020232
:10274000863009F020E080911302909114020296E5
:10275000840F951F30E0220F331F820F931F0E94BA
:10276000DB0B8091010280FF07C08091F8019091FE
:10277000F90102960E94D6088091F8019091F90122
:1027800002960E94D608682F70E089E090E00E94CF
:102790000F0B8091F8019091F9010E94D608809367
:1027A000F20190910E0220911302309114023093A5
:1027B000F1012093F001992391F08091F201909121
:1027C000F3019093EF018093EE01909314028093B4
:1027D00013029093ED018093EC018AE983CE90E09F
:1027E000F0CF8091FC019091FD010E94D60880936A
:1027F000F2017ACE8091F8019091F9019093FB015A
:102800008093FA01E0910102E83008F072CEF0E026
:10281000E45FFB4E0C94802A141479125D14921418
:10282000E7145715C115431680E20E9439098091BB
:10283000130290911402019620910E02820F911DB5
:1028400090931402809313028091FA019091FB01FE
:102850000E94D6088093F20190910E029923E1F034
:102860002091F2013091F3013093F1012093F001B6
:1028700040910702509108025093EF014093EE01FE
:10288000242335233093ED012093EC01682F8091B0
:10289000FA019091FB01F2CC282F30E03093F10146
:1028A0002093F00120910702422F50E05093EF0156
:1028B0004093EE01282330E0E5CF0E94D6088093B4
:1028C000F30190910E029923D9F08091F201909139
:1028D000F3019093F1018093F0018091F3019091C5
:1028E000F4019093EF018093EE0180959095909381
:1028F000F3018093F2019093ED018093EC0152C5B6
:102900002091F20130E03093F1012093F001282F63
:1029100030E03093EF012093EE0180958093F20137
:1029200090E0E9CF0E94D6088093F30190910E02C7
:102930009923D9F18091F2019091F3019093F101E3
:102940008093F0018091F3019091F4019093EF0155
:102950008093EE019195819591099093F301809375
:10296000F2019093ED018093EC016091F20180916E
:10297000FA019091FB010E94ED0A1092F101109270
:10298000F00188E20E94390981E090E04091EC0179
:102990005091ED012091F0013091F101241735079C
:1029A00008F089C20E94970BA4CD2091F20130E07B
:1029B0003093F1012093F001282F30E03093EF01A4
:1029C0002093EE0181958093F20190E0CACF80912F
:1029D0000E028823B1F180E10E9439096091FC0167
:1029E0007091FD016A52774F7D836C8390E080E0A7
:1029F0000E94FE08EC81FD81E89FB001E99F700D07
:102A0000F89F700D11247093ED016093EC01770F26
:102A1000660B762F80910E0290E001960E940F0BBC
:102A20006091EC017091ED0190E080E00E940F0B4D
:102A300060E088E290E00E940D0BC4010E94430B0D
:102A400058CD80E10E9439092091FC013091FD01AF
:102A50002A52374F33273D832C8390E080E00E9439
:102A6000D608682F4C815D81649FC001659F900DE1
:102A700011249093ED018093EC0180910E0290E07F
:102A800060E001960E940D0B6091EC017091ED01E8
:102A900090E080E00E940F0B8091EC019091ED019D
:102AA00088270E94970B082E000C990BC7CF8091A6
:102AB0000E028823A1F180E10E9439098091FC0176
:102AC0009091FD018A52974F9D838C8390E080E026
:102AD0000E94FE08EC81FD81E89FB001E99F700D26
:102AE000F89F700D11247093ED016093EC01770F46
:102AF000660B762F80910E0290E001960E940F0BDC
:102B00006091EC017091ED0190E080E00E940F0B6C
:102B100060E088E290E00E940D0BC3018FCF80E15E
:102B20000E9439092091FC013091FD012A52374F52
:102B30003D832C8390E080E00E94D6083C81830294
:102B4000B00111247093ED016093EC01770F660BD7
:102B5000762F80910E0290E001960E940D0B6091FD
:102B6000EC017091ED0190E080E00E940F0B8091EC
:102B7000EC019091ED01082E881B910907FC9395BB
:102B800090CF8091FC019091FD0120910E022223B3
:102B900009F43FC00E94D60890E09093EA01809328
:102BA000E901892B09F4D8C080910E0290E00196CA
:102BB0000E94FE0890E080E00E94FE089D838C83C6
:102BC0009093F7018093F6016091E9017091EA0119
:102BD0000E94362A709300026093FF0190E080E02B
:102BE0000E940F0B2091E9013091EA01AC01429F54
:102BF000C001439F900D529F900D11246C817D81E7
:102C0000681B790B80910E0290E001960E940F0BD9
:102C100070CC0E94D60890E09093EA018093E9017D
:102C2000892B09F499C080910E0290E001960E94D0
:102C3000D60890E080E00E94FE088C838093F60125
:102C40009093F7016091E9017091EA010E94362AA0
:102C5000709300026093FF01CB01992768177907F1
:102C600009F07AC090E080E00E94ED0A9091E901BD
:102C70006C81899F6019112480910E0290E0019669
:102C80000E940D0B36CC8091FC019091FD012091AA
:102C90000E022223A9F10E94D60890E09093EA0147
:102CA0008093E901892B09F457C080910E0290E0CE
:102CB00001960E94FE0890E080E00E94FE089D833D
:102CC0008C839093F7018093F6016091E9017091F4
:102CD000EA010E944A2A709300026093FF0190E08B
:102CE00080E00E940F0B2091E9013091EA01BC01C4
:102CF000629FC001639F900D729F900D11247ECF43
:102D00000E94D608082E000C990B9093EA0180933C
:102D1000E901892B09F180910E0290E001960E9451
:102D2000D60890E080E00E94FE088C838093F60134
:102D30009093F7016091E9017091EA010E944A2A9B
:102D4000709300026093FF01262F062E000C330BB8
:102D50006217730709F486CF80E00E94300CC9CB5C
:102D60001092FD011092FC0180910B0290910C02D7
:102D7000909308028093070283E08093030280917E
:102D8000EB0180930102809113029091140201974C
:102D900090931402809313028091FC019091FD01A5
:102DA0009093FB018093FA0181E090910E029111C2
:102DB00080E090910D02892B80930D0260910702B3
:102DC00070910802882319F0062E000C770B8DE015
:102DD00090E00E940F0B8AE190E09093F9018093BC
:102DE000F80180910D0222E030E0882311F021E00B
:102DF00030E08091130290911402820F931F909300
:102E0000140280931302809101028093EB01880FDA
:102E1000880F880F0E943909E091EB01E93008F032
:102E200068CBF0E0E65EF84E8091F8019091F901F0
:102E30000C94802A231771179C1706187918A41868
:102E40007C21E3189F190E94D6088093F30190918A
:102E50000E02992399F18091F2019091F3019093E0
:102E6000F1018093F0012091F3013091F40130934E
:102E7000EF012093EE01820F931F9093F301809353
:102E8000F2019093ED018093EC016091F201809149
:102E9000FA019091FB010E94ED0A81E090E04091DF
:102EA000EC015091ED012091F0013091F1014217B8
:102EB000530708F477CD90E080E074CD9091F20153
:102EC000292F30E03093F1012093F001282F30E0DA
:102ED0003093EF012093EE01890F8093F20190E08F
:102EE000D0CF0E94D6088093F30190910E029923CF
:102EF00099F08091F2019091F3019093F101809308
:102F0000F0012091F3013091F4013093EF0120930F
:102F1000EE01822B932BEBCC9091F201292F30E024
:102F20003093F1012093F001282F30E03093EF012E
:102F30002093EE01892BF2CC0E94D6088093F301F6
:102F400080910E02882309F446C08091F20190918D
:102F5000F3019093F1018093F00188E290E00E94E8
:102F6000D6082091F3013091F4013093EF012093C2
:102F7000EE014091F2015091F301240F351F820FB1
:102F8000932F911D9093F3018093F2019093ED01A3
:102F90008093EC016091F2018091FA019091FB0124
:102FA0000E94ED0A88E290E00E94D6082091F0018C
:102FB0003091F1014091EC015091ED01882321F015
:102FC0004217530709F493C081E0421753070CF4EA
:102FD00068C080E066C08091F20190E09093F101BA
:102FE0008093F00188E290E00E94D6089091F3016E
:102FF000292F30E03093EF012093EE012091F20170
:10300000920F890F8093F20190E0C0CF0E94D60802
:103010008093F30180910E02882309F448C08091C7
:10302000F2019091F3019093F1018093F00188E215
:1030300090E00E94D6084091F3015091F401509322
:10304000EF014093EE012091F2013091F301241B36
:10305000350B281B31093093F3012093F201309393
:10306000ED012093EC016091F2018091FA019091C1
:10307000FB010E94ED0A88E290E00E94D6082091B0
:10308000F0013091F1014091EC015091ED01882364
:1030900019F04217530759F181E0241735070CF056
:1030A00098CF90E00E94970B0E944B0B22CA809110
:1030B000F20190E09093F1018093F00188E290E0BA
:1030C0000E94D6084091F301242F30E03093EF01A5
:1030D0002093EE019091F201941B981B892F9093FD
:1030E000F20190E09093ED018093EC01BCCF81E080
:1030F000D8CF0E94D6088093F30190910E029923B5
:1031000099F08091F2019091F3019093F1018093F5
:10311000F0012091F3013091F4013093EF012093FD
:10312000EE0182239323E3CB9091F201292F30E02B
:103130003093F1012093F001282F30E03093EF011C
:103140002093EE018923EACB0E94D608982F809322
:10315000F30180910E02882319F18091F201909180
:10316000F3019093F1018093F0012091F3013091EC
:10317000F4013093EF012093EE01821B930B9093A7
:10318000F3018093F2019093ED018093EC01609143
:10319000F2018091FA019091FB010E94ED0AF4CBBB
:1031A0008091F201282F30E03093F1012093F0015B
:1031B000292F30E03093EF012093EE01891B80939B
:1031C000F20190E0E0CF0E94D6088093F301909145
:1031D0000E02992399F08091F2019091F30190935E
:1031E000F1018093F0012091F3013091F4013093CB
:1031F000EF012093EE01821B930BC5CF2091F201CA
:1032000030E03093F1012093F00190E09093EF01D2
:103210008093EE01281B390B3093ED012093EC01D4
:10322000B6CF80910E028111C0C081E080930E0262
:1032300080910102885F809301022091030284E063
:1032400090E0222311F090E080E0909300028093C0
:10325000FF016091020270E0233008F08CC00196FB
:103260000E942C0990E00E94FE089D838C8360914F
:10327000020270E08091FF019091000202960E948C
:103280002C092091090230910A02829F8001839FBC
:10329000100D1124EC81FD810E0F1F1F60910202A1
:1032A00070E08091FF01909100020E942C09282F6C
:1032B00030E03D832C8380910602811159C06091DA
:1032C000020270E08091FF019091000203960E943B
:1032D0002C09A8016C817D8190E00E940E099093D9
:1032E000FD018093FC019093FB018093FA014091D2
:1032F0000102242F30E0220F331F50910E02511192
:1033000006C046954695240F311D2770332730930C
:10331000F9012093F80140910D02442361F03093AC
:10332000F7012093F6019093F9018093F80130930F
:10333000FB012093FA018091F8019091F9010E941C
:10334000D6088093F30190910E029923C1F08091E9
:10335000F2019091F3019093F1018093F00180913B
:10336000F3019091F4019093EF018093EE01BFCAB5
:103370008091FE01AECFCB01880F991FB0CF209175
:10338000F20130E03093F1012093F001282F30E07A
:103390003093EF012093EE018093F2013093ED0121
:1033A0002093EC016091F20172CA80910D028111AB
:1033B000BCC081E0809306028CE08093FE012091E6
:1033C000030284E090E0222311F090E080E09093EB
:1033D00000028093FF016091020270E0233008F048
:1033E00090C001960E942C0990E00E94FE089D83E7
:1033F0008C836091020270E08091FF019091000245
:1034000002960E942C092091090230910A02829FA3
:103410008001839F100D11244C815D81040F151FC5
:103420006091020270E08091FF01909100020E9481
:103430002C09682F70E07D836C83809106028111D6
:103440005DC06091020270E08091FF0190910002E6
:1034500003960E942C09A8016C817D8190E00E9456
:103460000E099093FD018093FC019093FB018093E2
:10347000FA0140910102242F30E0220F331F5091B6
:103480000E02511106C046954695240F311D277036
:1034900033273093F9012093F80140910D02442322
:1034A00061F03093F7012093F6019093F901809336
:1034B000F8013093FB012093FA018091F80190917B
:1034C000F9010E94D6088093F20190910E0299238F
:1034D000E1F08091F2019091F3019093F1018093DA
:1034E000F0018091FC019091FD019093EF01809398
:1034F000EE019093F3018093F2016DC68091FE017D
:10350000AACFCB01880F991FACCF90E09093F10127
:103510008093F0012091FC01822F90E09093EF01C5
:103520008093EE012093F20156C68091FC019091A8
:10353000FD010E94D60890E00E949F0B0C94791226
:10354000109201021092030286E0809302028091A1
:103550000B0290910C0290930A028093090284E07E
:1035600090E0909300028093FF0166E070E085E0B8
:1035700090E00E942C0990E00E94FE089D838C83BD
:103580006091020270E08091FF019091000202962A
:103590000E942C092091090230910A02829F800129
:1035A000839F100D1124EC81FD810E0F1F1F609170
:1035B000020270E08091FF01909100020E942C09AC
:1035C000282F30E03D832C838091060281114EC06C
:1035D0006091020270E08091FF01909100020396D9
:1035E0000E942C09A8016C817D8190E00E940E0947
:1035F0009093FD018093FC019093FB018093FA016D
:1036000030910E0220910102332399F130E0220F14
:10361000331F3093F9012093F80140910D024423A8
:1036200061F03093F7012093F6019093F9018093B4
:10363000F8013093FB012093FA018091FA019091F7
:10364000FB010E94D6088093F30190910E0299230A
:10365000E1F08091F2019091F3019093F101809358
:10366000F0018091F3019091F4013FCF8091FE0130
:10367000B9CF422F50E0440F551F26952695240FB1
:10368000352F311D27703327C4CF2091F20130E050
:103690003093F1012093F001282F30E03093EF01B7
:1036A0002093EE018093F2013093ED012093EC0121
:1036B0006091F2018091F8019091F9010C943E1112
:1036C0008091FC019091FD010E94D6088093F20147
:1036D00020910E0290E0222321F08091F20190913E
:1036E000F30148E0249F90011124295F3F4F02C05D
:1036F000959587952A95E2F7817099279093000216
:103700008093FF018091EB01882339F180911302AE
:103710009091140201969093140280931302809169
:103720000902082E000C990B9093F7018093F60183
:103730000097E9F4E0910102E83010F00C9479125E
:10374000F0E0EB55F44E0C94802ABD1C3D1DD81DB5
:10375000991E5A1F8E1F7912A01F80910D02811190
:10376000C2C081E090E09093F7018093F601209130
:1037700001022430C0F560910E0270E06F5F7F4F50
:10378000E3E0660F771FEA95E1F72695620F711D5A
:103790000E94362A9093F7018093F6018091FC01F4
:1037A0009091FD010E94D6088093F20190910E0243
:1037B000992309F49FC08091FF019091000290939A
:1037C000F1018093F0018091F2019091F3019093C7
:1037D000EF018093EE01909300028093FF0190939C
:1037E000ED018093EC018091010280FF08C080917F
:1037F000FC019091FD010E94D6088093F201809116
:103800000E02882309F480C08091F2019091F301A7
:103810009093F1018093F0012091F6013091F7012E
:103820002093EE013093EF0102C0969587952A957B
:10383000E2F79093F3018093F2019093ED0180936E
:10384000EC016091F2018091FC019091FD010E94D8
:10385000ED0A80910102843018F080E10E9439095C
:1038600080910102853008F467C02091F601309103
:10387000F701215031098091F0019091F10102C0CE
:10388000969587952A95E2F7817099270E94970B64
:1038900080910E02882309F458C08091F201909122
:1038A000F3019093F1018093F0012091F6013091A2
:1038B000F7012093EE013093EF0102C0880F991FAA
:1038C0002A95E2F79093F3018093F2019093ED0132
:1038D0008093EC016091F2018091FC019091FD01D7
:1038E0000E94ED0A27CF82E090E00E94D6088F71F7
:1038F00090E01ACF2091FF01309100023093F10146
:103900002093F00190E063CF8091F20190E09093DA
:10391000F1018093F0014091F601242F30E03093C3
:10392000EF012093EE0102C0959587954A95E2F745
:103930008093F201992781CF8091FC019091FD0144
:103940000E94D6088093F201A3CF8091F20190E00B
:103950009093F1018093F0014091F601242F30E023
:103960003093EF012093EE0102C0880F991F4A9512
:10397000E2F78093F2019927A9CF8091FC01909101
:10398000FD010E94D6088093F20190910E024091B1
:10399000F6015091F701992309F454C02091F201E6
:1039A0003091F3013093F1012093F001892F90E0E1
:1039B000019673E0880F991F7A95E1F7BC01641BAB
:1039C000750B8091FF019091000202C0969587953A
:1039D0006A95E2F79093EF018093EE01280F391F6B
:1039E0003093F3012093F2013093ED012093EC0129
:1039F0006091F2018091FC019091FD010E94ED0A1D
:103A000010910E028091EC019091ED019D838C83C9
:103A1000817099270E94970B98E0199F90011124BB
:103A2000295F3F4FEC81FD8102C0F595E7952A950E
:103A3000E2F7E170FF27082E000C990B8E279F27D5
:103A40000C941E15682F70E07093F1016093F001E3
:103A50002091FF0130E068E070E0641B750B02C04C
:103A6000359527956A95E2F73093EF012093EE01A3
:103A7000280F2093F20130E0B7CF81E090E0009072
:103A8000F60102C0880F991F0A94E2F7019720916E
:103A9000FF013091000282239323909300028093D0
:103AA000FF018091FC019091FD010E94D608809356
:103AB000F20190910E024091F6015091F701992385
:103AC00009F45BC02091F2013091F3013093F101D0
:103AD0002093F001892F90E0019663E0880F991FF1
:103AE0006A95E1F7BC01641B750B8091FF01909111
:103AF000000202C0880F991F6A95E2F79093EF01C8
:103B00008093EE01280F391F3093F3012093F201C7
:103B10003093ED012093EC016091F2018091FC0162
:103B20009091FD010E94ED0A70910E028091EC01CE
:103B30009091ED018C01000F111F28E0729FF001A0
:103B400011243796FD83EC830C8002C095958795F0
:103B50000A94E2F7817099270E94970B0C8002C0AB
:103B6000159507950A94E2F701701127082E000CAD
:103B7000990B802791270C941E15682F70E0709385
:103B8000F1016093F0012091FF0130E068E070E006
:103B9000641B750B02C0220F331F6A95E2F7309346
:103BA000EF012093EE01280F2093F20130E0B0CF17
:103BB0008091FC019091FD010E94D6088093F20152
:103BC00090910E02992309F478C08091F2019091AE
:103BD000F3019093F1018093F00188E290E00E945C
:103BE000D6084091F6015091F70160910E0270E005
:103BF0006F5F7F4F03E0660F771F0A95E1F7641B45
:103C0000750B6F5F7F4F2091FF013091000202C062
:103C1000369527956A95E2F73093EF012093EE01F0
:103C200090E04150510902C0880F991F4A95E2F770
:103C30004091F2015091F301240F351F280F391FD5
:103C40003093F3012093F2013093ED012093EC01C6
:103C50006091F2018091FC019091FD010E94ED0ABA
:103C6000F0910E020091EC011091ED012F2F30E048
:103C70002F5F3F4FB3E0220F331FBA95E1F73D832B
:103C80002C838091F6019091F701281B390B81E07C
:103C900090E002C0880F991F2A95E2F72091FF015A
:103CA00030910002822393230E94970B4C815D8107
:103CB000415051095D834C8351CF90E09093F101C5
:103CC0008093F00188E290E00E94D6086091F601AE
:103CD0007091F7014091FF0150E020910E0230E019
:103CE0002F5F3F4F13E0220F331F1A95E1F7261B7A
:103CF000370B2F5F3F4F02C0559547952A95E2F746
:103D00005093EF014093EE0190E06150710902C0C1
:103D1000880F991F6A95E2F7480F591F8091F201A9
:103D2000480F4093F20150E05093ED014093EC01B5
:103D30008FCF8091FC019091FD010E94D608809365
:103D4000F20190910E02992309F479C08091F20159
:103D50009091F3019093F1018093F00188E290E05B
:103D60000E94D60820910E0230E02F5F3F4FA3E063
:103D7000220F331FAA95E1F74091F6015091F70108
:103D8000241B350BB9016F5F7F4F4091FF015091AC
:103D9000000202C0440F551F6A95E2F75093EF01ED
:103DA0004093EE016091F2017091F301460F571FAD
:103DB00090E002C0880F991F2A95E2F7480F591F1B
:103DC0005093F3014093F2015093ED014093EC01C5
:103DD0006091F2018091FC019091FD010E94ED0A39
:103DE0002091F6013091F7012150310981E090E0F6
:103DF00002C0880F991F2A95E2F72091FF013091A8
:103E00000002822393230E94970B20910E0280913F
:103E1000EC019091ED0158E0259F90011124295F5C
:103E20003F4FAC01440F551F8427952702C095953D
:103E300087952A95E2F7817099270C941E1590E0DA
:103E40009093F1018093F00188E290E00E94D608FF
:103E500020910E0230E02F5F3F4FF3E0220F331F1F
:103E6000FA95E1F74091F6015091F701241B350BCB
:103E70004091FF0150E0B9016F5F7F4F02C0440FD6
:103E8000551F6A95E2F75093EF014093EE0190E0E1
:103E900002C0880F991F2A95E2F7840F951F409161
:103EA000F201840F8093F20190E09093ED018093F2
:103EB000EC018ECF20910E0268E0269F9001112424
:103EC000295F3F4F8091EC019091ED01022E02C0DD
:103ED000959587950A94E2F7817099279D838C8345
:103EE0004091F6015091F701415051098091F00144
:103EF0009091F10102C0880F991F4A95E2F702C024
:103F0000969587952A95E2F7817099270E94970BDD
:103F1000082E000C990BEC81FD8190CD20910E02B2
:103F2000F8E02F9F90011124295F3F4F8091F0010D
:103F30009091F10102C0969587952A95E2F77BCF83
:103F400080910E0290E0019673E0880F991F7A9598
:103F5000E1F72091F6013091F7012817390730F089
:103F60008091FF01909100020E94970B90E080E009
:103F70000E94430B8091FC019091FD010E94D608A4
:103F80008093F20140910E02442309F446C020912F
:103F9000F2013091F3013093F1012093F00150E0F0
:103FA0004F5F5F4F63E0440F551F6A95E1F781E073
:103FB00090E002C0880F991F4A95E2F701970090A0
:103FC000F60102C0959587950A94E2F78095909541
:103FD0006091FF0170910002869FA001879F500DA4
:103FE000969F500D1124509300024093FF0150936F
:103FF000EF014093EE01240F351F3093F30120931E
:10400000F2013093ED012093EC016091F201809177
:10401000FC019091FD010C943E11482F50E050930B
:10402000F1014093F0012FEF30E00090F60102C063
:10403000359527950A94E2F7209530959091FF01E8
:10404000929F202D11242093FF01422F50E0509386
:10405000EF014093EE01820F8093F20190E0909384
:10406000ED018093EC01D1CF81E090E00E94FE0849
:104070008093F201282F2150330BB90181E090E0A9
:104080000E940F0B8091F2018150990B9093F701E0
:104090008093F60180910F02813049F198F08330CE
:1040A00081F160910B024091F6015091F701640398
:1040B0009001659F300D112480911302909114029C
:1040C0000C94C8108BE290E00E94D60821E030E00A
:1040D000882311F030E020E08091F6019091F70103
:1040E000822393239093F7018093F601DACF8BE23A
:1040F00090E00E94D60890E02091F6013091F701FF
:10410000EFCF81E090E00E94FE088093F2019927B2
:10411000BC016F5F7F4F81E090E00E940F0B8091A8
:10412000F201811103C082E090E0DCCF81E090E0F9
:10413000D9CF20910D028091130290911402039621
:10414000821B9109909314028093130230910E0206
:1041500031110EC02223F1F01092140210921302BA
:10416000609107027091080289E090E00E940F0BB5
:1041700020910B0230910C0280910D02882309F4EA
:104180009BCF80910E02882309F496CF022E000C5B
:10419000330B92CF0E94DB0BEBCF8091FA01909111
:1041A000FB010E94D6088093F30190910E0299239F
:1041B000B9F08091F2019091F3019093F101809315
:1041C000F0012091F3013091F4013093EF0120933D
:1041D000EE01822393239093ED018093EC0168CA52
:1041E0009091F201292F30E03093F1012093F001FA
:1041F000282F30E03093EF012093EE01892390E0E7
:10420000EACF81E080930E021092FB011092FA0136
:1042100080910F0290E0880F991F9093F90180938D
:10422000F8018091F8019091F9012091FA01309103
:10423000FB012817390711F40C9479120E94D60853
:104240008093F30190910E02992309F471C080913B
:10425000F2019091F3019093F1018093F00120918C
:10426000F3013091F4013093EF012093EE018227A6
:1042700093279093F3018093F2019093ED01809343
:10428000EC016091F2018091FA019091FB010E9492
:10429000ED0A8091FA019091FB010E94D60880936B
:1042A000F30190910E02992309F455C08091F20117
:1042B0009091F3019093F1018093F0012091F3012B
:1042C0003091F4013093EF012093EE018227932780
:1042D0009093F3018093F2019093ED018093EC01B0
:1042E0006091F2018091F8019091F9010E94ED0A2C
:1042F0008091F8019091F9010E94D6088093F30112
:1043000090910E029923D1F18091F2019091F301E5
:104310009093F1018093F0012091F3013091F40129
:104320003093EF012093EE01822793270C947714AA
:104330009091F201292F30E03093F1012093F001A8
:10434000282F30E03093EF012093EE0189278093EE
:10435000F20190E092CF9091F201292F30E030935A
:10436000F1012093F001282F30E03093EF012093EA
:10437000EE0189278093F20190E0AECF9091F20197
:10438000292F30E03093F1012093F001282F30E005
:104390003093EF012093EE0189270C948E148091C5
:1043A0000602882309F4AFC08091FE0190E090934B
:1043B00000028093FF0180910502882309F4A6C0C2
:1043C00081E090E00E94FE089093F7018093F6014F
:1043D0008091F6019091F701892B09F4B4C0809186
:1043E000EB0180FD96C050E040E066E070E0809117
:1043F000FF01909100020E940E090E94D60880934E
:10440000F30190910E02992309F486C08091F20184
:104410009091F3019093F1018093F0018091F30169
:104420009091F4019093EF018093EE019093F3014A
:104430008093F2019093ED018093EC013091F201B1
:104440003C838091EB01823008F07AC050E040E07C
:1044500067E070E088E090E00E940E096C810E94A5
:10446000ED0A8091EB0180FD22C086E090E00E9481
:10447000FE089D838C838FE290E00E94D60890E036
:10448000880F991F019720910E0230E02F5F3F4F58
:10449000829FA001839F500D929F500D11246C812B
:1044A0007D81641B750B86E090E00E940F0B80916C
:1044B000EB0181FD22C087E090E00E94FE089D8311
:1044C0008C838FE290E00E94D60890E0880F991FBD
:1044D000019720910E0230E02F5F3F4F829FA00195
:1044E000839F500D929F500D11246C817D81641B20
:1044F000750B87E090E00E940F0B8091F601909180
:10450000F701019761CF8BE090E051CF81E090E01F
:104510005BCF90E080E071CF2091F20130E03093EA
:10452000F1012093F001282F30E03093EF01209328
:10453000EE018093F2013093ED012093EC017ECFE8
:1045400090E080E08BCF80910502882311F40C94D9
:10455000791270E060E081E090E00C9406168091A2
:104560000602882391F08091FE0190E09093000272
:104570008093FF018091050281110AC081E090E0E3
:104580009093F7018093F6010FC08BE090E0EECF9F
:1045900081E090E00E94FE089093F7018093F6017D
:1045A000892B11F40C9479128091F6019091F70106
:1045B000892B09F4C5C050E040E067E070E088E076
:1045C00090E00E940E090E94D6088093F30190911A
:1045D0000E024091F2014C83992309F49BC0809113
:1045E000F2019091F3019093F1018093F0012091F9
:1045F000F3013091F4013093EF012093EE01821B1F
:10460000930B9093ED018093EC018091EB0181116C
:1046100094C050E040E066E070E08091FF0190912E
:1046200000020E940E096C810E94ED0A8091EB014C
:10463000811122C086E090E00E94FE089D838C8359
:104640008FE290E00E94D60890E0880F991F0197B2
:1046500020910E0230E02F5F3F4F829FA001839F89
:10466000500D929F500D11246C817D81641B750B40
:1046700086E090E00E940F0B81E090E00E94FE082F
:104680008093F201E82FE150FF0BBF0181E090E041
:104690000E940F0B87E090E00E94FE089D838C83B0
:1046A0008FE290E00E94D60890E0880F991F019752
:1046B00020910E0230E02F5F3F4F829FA001839F29
:1046C000500D929F500D11246C817D81641B750BE0
:1046D00087E090E00E940F0B80910502882309F487
:1046E000BFC68091F201813081F081E090E020919D
:1046F000EC013091ED01232B11F090E080E020914E
:10470000E8012817190609F44FCF1092F70110920B
:10471000F6014ACF5C81252F30E03093F1012093E0
:10472000F00190E09093EF018093EE01281B390B8C
:104730003093ED012093EC0168CF90E080E073CFDF
:1047400083E090E09093E7018093E6010C94C41419
:1047500080910E0280930D028091130290911402B9
:104760000E949F0B8091EB01882331F089E090E05B
:104770000E94FE080E949F0B8091EB0181FF0BC0FD
:104780008091F6019091F7010E949F0B90E00E94AA
:10479000240B0C94791280910D0281110C947912E2
:1047A00084E090E00E94FE0860910B0270910C0280
:1047B000680F791F84E090E00C9406168091F80150
:1047C0009091F9010E94D6088093F20190910E0217
:1047D000992371F08091F2019091F3019093F1018E
:1047E0008093F00180910702909108020C94751A51
:1047F00090E09093F1018093F001209107020C94D6
:104800008C1A109206028091260281508093260213
:10481000809328028091C00599E089278093C00584
:104820008091EB018823D9F182E090E00E94FE089C
:104830009093F7018093F60180369105B1F51092BF
:104840004A0290E080E00E94D6088093F2019091A5
:104850000E022091F6013091F701992309F470C0FE
:104860008091F2019091F3019093F1018093F00116
:104870002A513E4FF901808191819093EF018093FD
:10488000EE019093F3018093F2019093ED018093F8
:10489000EC016091F20190E080E00C944016809170
:1048A0000B0290910C029927C3CF853D934049F6A6
:1048B0008091BA0590E095958795079711F68EE956
:1048C00094E00E94D6088C838DE994E00E94D6087B
:1048D00090E09C015C8140E5549F200D311D112426
:1048E0003D832C838DEA94E00E94D6086C817D8103
:1048F000680F711DCB012091BA05322F317020FF56
:104900001AC0EFEFF0E0FD83EC836C817D816823BA
:1049100079237D836C8380E0311101C088E0EC81D4
:10492000FD8102C0F695E7958A95E2F7FD83EC8359
:10493000E093BB0586CF40E05FEF5D834C83E5CF1E
:1049400090E09093F1018093F0012A513E4FF901DC
:104950002081822F90E09093EF018093EE012093CD
:10496000F20193CF8091EB01882309F405C182E025
:1049700090E00E94FE089093F7018093F60190E08A
:1049800080E00E94D6088093F20190910E0220915F
:10499000F6013091F701F901EA51FE4F992309F42C
:1049A000F1C0808191819093F1018093F001809119
:1049B000F2019091F3019093EF018093EE019183C6
:1049C00080839093ED018093EC012136310569F4E9
:1049D0001092E50190E080E00E94D608982F937035
:1049E0008091E401892B8093E4018091F6019091FC
:1049F000F7018D7F80349105D9F48091290286706A
:104A0000B9F090E080E00E94D6082091F601309144
:104A1000F7019091E50141E094279093E501275932
:104A20003B4F682FA901491B5109CA010E94ED0A99
:104A30008091F6019091F701853D9340A1F480911A
:104A4000BA0590E095958795069769F490E080E027
:104A50000E94D608682F8091BA0580FDA5C08EEA15
:104A600094E00E94ED0A8091F6019091F701853D56
:104A7000934009F05DC08091BA0590E095958795C7
:104A8000079709F055C08EE994E00E94D6088C8300
:104A90008DE994E00E94D608082F10E08C8170E523
:104AA000879F000D111D11248DEA94E00E94D60805
:104AB000080F111D8091BA0580FF79C080E09FEF3B
:104AC0000823192390E080E00E94D608E82FF0E048
:104AD000FD83EC838091BA05F12C80FD02C078E063
:104AE000F72E8DEA94E00E94D6082C813D8102C009
:104AF000220F331FFA94E2F7281B3109C901800FF6
:104B0000911F909300028093FF01B5010E94362A05
:104B1000682F8DE994E00E94ED0A8091FF01909149
:104B20000002B5010E94362A8EE994E00E94ED0A47
:104B30008091F6019091F701853B934041F480917B
:104B40009A05813021F490E080E00E94D60880919F
:104B5000F6019091F701853B934011F00C94791286
:104B600080919A05863011F00C94791290E080E0E3
:104B70000E94D6080C94791280910B0290910C023D
:104B80009927F9CE408150E05093F1014093F00114
:104B9000482F50E05093EF014093EE0180835093F3
:104BA000ED014093EC0111CF8DEA94E05ACF8FEFE5
:104BB00090E086CF82E08093050280910E02809380
:104BC000E80180910602882311F40C9479128F5F1A
:104BD000809306020C9479128091EB010C9453118E
:104BE0008091EB010C94591182E080930602809130
:104BF000EB018093FE0180910502882311F40C944F
:104C000079128F5F809305020C94791210920E0234
:104C10008091EB0190E0882309F492C080E00E942B
:104C2000D6088093F20190E080E00E94D608282FF9
:104C300030E0309300022093FF018F7061E08A30F2
:104C400040F48AE290E00E94D60861E0811101C040
:104C500060E08AE290E00E940D0B6091F20190E02A
:104C600080E00E940D0B90E080E00E94D6088093C7
:104C7000F2018091FF0191E08A3940F488E290E0EE
:104C80000E94D60891E0811101C090E0892F90E048
:104C90000E94970B882351F08091F20180568093F7
:104CA000F20190E09093ED018093EC016091F201AC
:104CB00090E080E00E940D0B90E080E00E94D6081A
:104CC000282F30E0309300022093FF018F7061E0C5
:104CD0008A3040F48AE290E00E94D60861E08111B7
:104CE00001C060E08AE290E00E940D0B6091F20149
:104CF00090E080E00E940D0B90E080E00E94D608DA
:104D00008093F20190E080E00E94D608807F91E0DD
:104D1000813940F488E290E00E94D60891E0811148
:104D200001C090E0892F90E00E94970B882309F43E
:104D3000B0CD8091F201805A8093F20190E0A5CD30
:104D400080E00E94D6088093F201B6CF90E080E028
:104D50000E94FE088093F20190E080E00E94D60855
:104D60008F7091E08A3040F48AE290E00E94D60889
:104D700091E0811101C090E0892F90E00E94970B93
:104D800061E0811101C060E08AE290E00E940D0BB9
:104D90006091F20170E090E080E00E940F0B90E0E3
:104DA00080E00E94D608682F6F706093F30190E056
:104DB00080E00E940D0B8091F20190E09093ED0154
:104DC0008093EC010C94791290E080E00E94D60868
:104DD0008093F20120910E0290E0222321F0809135
:104DE000F2019091F30158E0259F90011124295F71
:104DF0003F4F02C0959587952A95E2F78170682FFD
:104E0000619581E090E00C94401690E080E00E9473
:104E1000FE088093F20120910E029927222321F0AF
:104E20008091F2019091F30168E0269F9001112496
:104E3000295F3F4F02C0959587952A95E2F78170CB
:104E4000992766277727681B790B82E090E00C94FE
:104E5000061689E090E00E94FE080E94DB0B80911C
:104E600013029091140205960E94DB0B60910702D9
:104E70007091080289E090E00E940F0B80910B0274
:104E800090910C020C94CA100E9461098091F60165
:104E90009091F7010C9477120E9461098091F601BC
:104EA0009091F70188279D838C8381E090E00E9498
:104EB000D608EC81FD81E80FF11DCF0168CC0E947E
:104EC00061096091F6019DCF81E080930D0280938E
:104ED0000E022091030284E090E0222311F090E082
:104EE00080E0909300028093FF016091020270E0E5
:104EF000233008F0C8C001960E942C0990E00E945F
:104F0000FE089D838C836091020270E08091FF0116
:104F10009091000202960E942C0920910902309182
:104F20000A02829F8001839F100D11242C813D81F4
:104F3000020F131F6091020270E08091FF019091B7
:104F400000020E942C09482F50E05D834C83809121
:104F50000602811195C06091020270E08091FF010C
:104F60009091000203960E942C09A8016C817D811A
:104F700090E00E940E099093FD018093FC019093B4
:104F8000FB018093FA0140910102242F30E0220FAF
:104F9000331F50910E02511106C046954695240FBD
:104FA000311D277033273093F9012093F801409188
:104FB0000D02442361F03093F7012093F6019093A2
:104FC000F9018093F8013093FB012093FA0180915D
:104FD000F8019091F9010E94D6088093F301909115
:104FE0000E02992309F453C08091F2019091F301CC
:104FF0009093F1018093F0018091F3019091F4017D
:105000009093EF018093EE019093F3018093F2016E
:105010009093ED018093EC016091F2018091FA018F
:105020009091FB010E94ED0A8091FC019091FD019D
:1050300002960E94D6088093F30190910E02992364
:10504000D1F18091F2019091F3019093F10180935D
:10505000F0018091F3019091F4019093EF0180931E
:10506000EE019093F3018093F2019093ED01809310
:10507000EC018091EB016091F20190E00C943E1103
:105080008091FE0172CFCB01880F991F74CF2091C0
:10509000F20130E03093F1012093F001282F30E04D
:1050A0003093EF012093EE018093F2013093ED01F4
:1050B0002093EC01B1CF2091F20130E03093F10167
:1050C0002093F001282F30E03093EF012093EE0180
:1050D0008093F2013093ED012093EC01CACF8091CF
:1050E000130290911402019690931402809313027C
:1050F00083E00C94AD1680911302909114020296F5
:10510000909314028093130280910B020C94AD16BD
:10511000809113029091140201969093140280934F
:10512000130280E390E00E94D608882311F40C94C7
:10513000791284E00C94AD1680910B0290910C02D0
:10514000992790930C0280930B02892B11F40C94F5
:10515000AC1690E080E00E94D60890E060910B02CF
:1051600070910C020E94362A81E090E00E940D0BA3
:1051700090E080E00E94D60890E060910B02709170
:105180000C020E94362A8093F2018093EC019093E6
:10519000ED01682F80CB10920E0290E080E00E941B
:1051A000D6088C8381E090E00E94D60890910B0293
:1051B0005C81899F500D1124652F70E07093ED0183
:1051C0006093EC0190E080E00C94061688E290E099
:1051D0000E94D608682F61955ECB90E080E00E9427
:1051E000D608482F50E080910602882351F0809124
:1051F000FE0190E063E070E00E940E090E94D60874
:10520000C8CF8BE090E0F6CF88E290E00E94D6080D
:1052100061E068276093F20188E290E00C94401608
:105220008091EB01682F6170869590E00C94401698
:1052300090E080E00E94D6088093F20190910E02E7
:105240009923B9F02091F2013091F3013093F101EB
:105250002093F00140910B0250910C025093EF010A
:105260004093EE01242335233093ED012093EC018C
:1052700090CF282F30E03093F1012093F00120915E
:105280000B02422F50E05093EF014093EE01282390
:1052900030E0EACF80910B02882309F483C087FFB6
:1052A00002C00C9479128250823010F00C94791262
:1052B00085E090E00E94FE088C8384E090E00E94EC
:1052C000D60861E089E491E00E945F075C80550C9C
:1052D000412CA20170E060E08DEC94E00E94C305D7
:1052E0008C830E94AA066C81662309F4B7C090E003
:1052F00080E00E94FE087C0150E040E063E070E046
:1053000088E090E00E940E096C0184E090E00E9429
:10531000D60880910B021D821C82833009F054C094
:1053200061E082E291E00E945F074C815D814C0D5B
:105330005D1D70E060E08DEC94E00E94C30560E8C4
:1053400070E080E691E00E94FF078C010E94AA06AF
:1053500062E089E491E00E945F0785E090E00E94AE
:10536000FE08382E330C212C4C815D81420D531DDB
:1053700070E060E08DEC94E00E94C305A80160E657
:1053800071E08DEC94E00E948F090E94AA068C8146
:105390009D81800F911F9D838C83003811056CF4D3
:1053A0006C8179CA90E080E00E94D608682F80E383
:1053B00094E00E9487010C947912EC81FD81EE1635
:1053C000FF0608F0ADCFECCF61E089E491E00E94E8
:1053D0005F0785E090E00E94FE08880F8A831982AB
:1053E00049815A812C813D81420F531F70E060E05A
:1053F0008DEC94E00E94C30560E870E080E691E0E7
:105400000E94FF078C010E94AA0662E082E291E0FE
:105410000E945F074C815D814C0D5D1D70E060E076
:105420008DEC94E00E94C305A80160E671E08DEC6C
:1054300094E00E948F090E94AA064C815D81400F72
:10544000511F5D834C83003811050CF4A9CF6C818A
:105450007D81E616F70608F0B7CFA2CF60E01BCA41
:105460008091F6019091F70101978AC8AA1BBB1B96
:1054700051E107C0AA1FBB1FA617B70710F0A61B54
:10548000B70B881F991F5A95A9F780959095BC0175
:10549000CD01089597FB072E16F4009407D077FDF1
:1054A00009D00E94362A07FC05D03EF490958195DC
:1054B0009F4F0895709561957F4F0895A1E21A2E30
:1054C000AA1BBB1BFD010DC0AA1FBB1FEE1FFF1FA8
:1054D000A217B307E407F50720F0A21BB30BE40BF8
:1054E000F50B661F771F881F991F1A9469F760953F
:1054F0007095809590959B01AC01BD01CF010895F9
:10550000EE0FFF1F0590F491E02D0994A29FB001CA
:10551000B39FC001A39F700D811D1124911DB29FE7
:10552000700D811D1124911D0895FB01DC0104C043
:105530008D910190801921F441505040C8F7881B8B
:10554000990B0895FB01DC0102C001900D924150BE
:105550005040D8F70895F894FFCFFFFFFFFF0000F9
:1055600000008701E7001401F30145012301370121
:1055700000000000D50AE7000F070E0772616D2ECC
:1055800062696E000D0A002E004C6F6164696E67DF
:105590002042494F530072616D2E696E69742E620C
:0C55A000696E006469736B2E696D670012
:107E0000112484B714BE81FFF0D085E080938100F7
:107E100082E08093C00088E18093C10086E0809377
:107E2000C20080E18093C4008EE0C9D0259A86E02C
:107E300020E33CEF91E0309385002093840096BBD3
:107E4000B09BFECF1D9AA8958150A9F7CC24DD24C4
:107E500088248394B5E0AB2EA1E19A2EF3E0BF2EE7
:107E6000A2D0813461F49FD0082FAFD0023811F036
:107E7000013811F484E001C083E08DD089C08234E0
:107E800011F484E103C0853419F485E0A6D080C0E4
:107E9000853579F488D0E82EFF2485D0082F10E0AE
:107EA000102F00270E291F29000F111F8ED06801E7
:107EB0006FC0863521F484E090D080E0DECF843638
:107EC00009F040C070D06FD0082F6DD080E0C81688
:107ED00080E7D80618F4F601B7BEE895C0E0D1E017
:107EE00062D089930C17E1F7F0E0CF16F0E7DF06D8
:107EF00018F0F601B7BEE89568D007B600FCFDCFD4
:107F0000A601A0E0B1E02C9130E011968C91119780
:107F100090E0982F8827822B932B1296FA010C0160
:107F200087BEE89511244E5F5F4FF1E0A038BF0790
:107F300051F7F601A7BEE89507B600FCFDCF97BE46
:107F4000E89526C08437B1F42ED02DD0F82E2BD052
:107F50003CD0F601EF2C8F010F5F1F4F84911BD097
:107F6000EA94F801C1F70894C11CD11CFA94CF0C13
:107F7000D11C0EC0853739F428D08EE10CD085E9AC
:107F80000AD08FE07ACF813511F488E018D01DD067
:107F900080E101D065CF982F8091C00085FFFCCF94
:107FA0009093C60008958091C00087FFFCCF809118
:107FB000C00084FD01C0A8958091C6000895E0E648
:107FC000F0E098E1908380830895EDDF803219F02E
:107FD00088E0F5DFFFCF84E1DECF1F93182FE3DFCA
:107FE0001150E9F7F2DF1F91089580E0E8DFEE27F6
:047FF000FF270994CA
:027FFE00040479
:00000001FF
