:100000000C94D2000C94FA000C94FA000C94FA00B0
:100010000C94FA000C94FA000C94FA000C94FA0078
:100020000C94FA000C94FA000C94FA000C94FA0068
:100030000C94FA000C94FA000C94FA000C94FA0058
:100040000C943B0D0C94FA000C94090D0C94E30CE9
:100050000C94FA000C94FA000C94FA000C94FA0038
:100060000C94FA000C94FA00000000002400270011
:100070002A0000000000250028002B0004040404CE
:100080000404040402020202020203030303030342
:10009000010204081020408001020408102001021F
:1000A00004081020000000080002010000030407FB
:1000B00000000000000000002E20446F6E6521004B
:1000C0002E20446F6E652120496E69742066696C2C
:1000D0006573797374656D00496E697420534420AB
:1000E00063617264002E20446F6E6521002E00460D
:1000F000696C6C696E67206D656D6F7279000A427C
:100100006F6F74696E672075702E2E2E002E004C56
:100110006F6164696E672042494F532E2E2E005343
:1001200074617274696E67207638362E2E2E004305
:100130006F707972696768742028432920323032E1
:1001400031204072617370696475696E6F2C20751F
:100150006E6465722047504C2D7633006176722DA7
:10016000763836202D20496E74656C20383038364C
:1001700020656D756C61746F722072756E6E696E3C
:1001800067206F6E2041726475696E6F20554E4F07
:10019000007C3C3E5E2B3D3F2F5B5D3B2C2A225C6E
:1001A0000000850D11241FBECFEFD8E0DEBFCDBF0C
:1001B00011E0A0E0B1E0EAEDF5E502C005900D9296
:1001C000A234B107D9F724E0A2E4B1E001C01D9246
:1001D000A13DB207E1F710E0C2EDD0E004C02197E5
:1001E000FE010E94C02AC13DD107C9F70E94BB0D84
:1001F0000C94EB2A0C940000AF92BF92CF92DF9246
:10020000EF92FF920F931F93CF93DF936C017B01CB
:100210008B01040F151FEB015E01AE18BF08C0175C
:10022000D10759F06991D601ED91FC910190F081CF
:10023000E02DC6010995892B79F7C501DF91CF9192
:100240001F910F91FF90EF90DF90CF90BF90AF90F4
:100250000895FC01538D448D252F30E0842F90E0CC
:10026000821B930B541710F0CF96089501970895B1
:10027000FC01918D828D981761F0A28DAE0FBF2F7A
:10028000B11D5D968C91928D9F5F9F73928F90E0D0
:1002900008958FEF9FEF0895FC01918D828D98173F
:1002A00031F0828DE80FF11D858D90E008958FEF7C
:1002B0009FEF0895FC01918D228D892F90E0805C45
:1002C0009F4F821B91098F739927089580E294E0D4
:1002D0000E945A0121E0892B09F420E0822F089521
:1002E00080E090E0892B29F00E94660181110C9436
:1002F00000000895FC01A48DA80FB92FB11DA35AC9
:10030000BF4F2C91848D90E001968F739927848F35
:10031000A689B7892C93A089B1898C918370806458
:100320008C93938D848D981306C00288F389E02DF9
:1003300080818F7D80830895EF92FF920F931F93AA
:10034000CF93DF93EC0181E0888F9B8D8C8D981388
:100350001AC0E889F989808185FF15C09FB7F89494
:10036000EE89FF896083E889F989808183708064E0
:1003700080839FBF81E090E0DF91CF911F910F912B
:10038000FF90EF900895F62E0B8D10E00F5F1F4F3A
:100390000F731127E02E8C8D8E110CC00FB607FC49
:1003A000FACFE889F989808185FFF5CFCE010E94D7
:1003B0007A01F1CFEB8DEC0FFD2FF11DE35AFF4FCA
:1003C000F0829FB7F8940B8FEA89FB898081806265
:1003D000CFCFEF92FF920F931F93CF93DF938C01B8
:1003E0007B01D0E0C0E0F701EC0FFD1F64916623B4
:1003F00039F0C8010E949C01892B11F02196F3CF9E
:10040000CE01DF91CF911F910F91FF90EF90089552
:10041000CF93DF93EC01888D8823B9F0AA89BB893B
:10042000E889F9898C9185FD03C0808186FD0DC026
:100430000FB607FCF7CF8C9185FFF2CF808185FF47
:10044000EDCFCE010E947A01E9CFDF91CF910895DF
:1004500090E0FC01EC55FF4F2491FC01E057FF4F69
:100460003491FC01E458FF4FE491EE23C9F02223BC
:1004700039F0233001F1A8F4213019F1223029F1AB
:10048000F0E0EE0FFF1FEE58FF4FA591B4918FB72C
:10049000F894EC91611126C030953E233C938FBFB8
:1004A00008952730A9F02830C9F0243049F7809109
:1004B00080008F7D03C0809180008F7780938000C3
:1004C000DFCF84B58F7784BDDBCF84B58F7DFBCF45
:1004D0008091B0008F778093B000D2CF8091B00030
:1004E0008F7DF9CF3E2BDACFCF93DF9390E0FC01E5
:1004F000E057FF4F249184589F4FFC01849188233B
:10050000D1F090E0880F991FFC01E859FF4FA591A9
:10051000B491FC01EE58FF4FC591D49161110EC00A
:100520009FB7F8948C91E22FE0958E238C932881CD
:10053000E223E8839FBFDF91CF9108958FB7F894AE
:10054000EC91E22BEC938FBFF6CF2FB7F89460912C
:100550004C0170914D0180914E0190914F012FBF40
:1005600008958EBD0DB407FEFDCF089561E0FC0136
:1005700082810E9428028FEF0C94B1028FEF8EBD12
:100580000DB407FEFDCF8EB50895FF920F931F9314
:10059000CF93DF93F82E8B010E94A502EB010E94FE
:1005A000BE028F1571F00E94A5026C1B7D0B061711
:1005B0001707A8F780E0DF91CF911F910F91FF906F
:1005C000089581E0F8CFCF92DF92EF92FF921F93D0
:1005D000CF93DF93FC01162F69017A01838122E01A
:1005E00090E0281728F4963019F0220F9F5FF9CF7A
:1005F000292F206A26952CBD90FD03C021E096305E
:1006000009F420E02DBD60E082810E94280268E5A7
:1006100072E08FEF0E94C502812F80640E94B102B8
:10062000C8E1D0E0D701C6010C2E04C0B695A7954D
:10063000979587950A94D2F70E94B1022897C83FF0
:100640008FEFD80779F78FEF111101C085E90E946C
:10065000B102C0E00E94BE0287FF04C0CF3F11F08C
:10066000CF5FF8CFDF91CF911F91FF90EF90DF9098
:10067000CF900895CF93DF93EC019A01AB0189E00D
:10068000220F331F441F551F8A95D1F768E1CE0111
:100690000E94E302882349F083E08883CE010E9410
:1006A000B60280E0DF91CF9108958EEF8EBDE0E23B
:1006B000F2E00DB407FEFDCF81918EBD84E0E03203
:1006C000F807B9F70DB407FEFDCF8FEF0E94B10216
:1006D0008FEF0E94B1020E94BE02982F9F71953049
:1006E00019F0898386E0D9CF68E572E08FEF0E9428
:1006F000C502811105C087E08883CE010E94B60241
:10070000CE010E94B60281E0CDCF0F931F93CF930D
:1007100080914601C1E0882399F000911602109162
:100720001702409100015091010160910201709106
:100730000301C8010E943A03C82F811106C0C0E01E
:100740008C2FCF911F910F910895409142015091AC
:1007500043016091440170914501411551056105C6
:10076000710569F0C8010E943A03882341F3109291
:1007700042011092430110924401109245011092DF
:100780004601DECFCF92DF92EF92FF921F93CF937D
:10079000DF936B017C01142F809100019091010186
:1007A000A0910201B09103018C159D05AE05BF0516
:1007B00009F44FC00E9485038823C9F0C091160236
:1007C000D0911702A701960189E0220F331F441F21
:1007D000551F8A95D1F761E1CE010E94E30288237B
:1007E00071F084E08883CE010E94B60280E0DF9140
:1007F000CF911F91FF90EF90DF90CF9008956CE222
:1008000071E08EEF0E94C502811105C085E08883EA
:10081000CE010E94B6028FEF8EBDE0E2F2E00DB491
:1008200007FEFDCF9EB591938EBD94E0E032F907AF
:10083000B1F70DB407FEFDCF0E94BE02CE010E94AB
:10084000B602C0920001D0920101E0920201F09242
:10085000030181E0112359F280934601C8CF4F92E2
:100860005F926F927F929F92AF92BF92CF92DF92F0
:10087000EF92FF920F931F93CF93DF9325E032E027
:100880003093170220931602882309F4DEC040E05B
:1008900060E070E0CB010E94C203811112C0D0E081
:1008A0008D2FDF91CF911F910F91FF90EF90DF90EF
:1008B000CF90BF90AF909F907F906F905F904F9040
:1008C0000895C090E603D090E703E090E803F0902D
:1008D000E90340E0C701B6010E94C203D82F882374
:1008E000F1F280911E048535D1F680911F048A3A79
:1008F000B1F69090300290921502C0912D02C093F3
:100900001C020091360210913702109314020093DA
:100910001302209131023091320230931E02209353
:100920001D02A0902E02B0902F02D701C6018A0DA1
:100930009B1DA11DB11D80930F0290931002A093E7
:100940001102B0931202909EA001919E500D1124AD
:10095000840F951FA11DB11D80930B0290930C0273
:10096000A0930D02B0930E0245E0220F331F4A956B
:10097000E1F721503E4F232F33272695820F931FF7
:10098000A11DB11D8093180290931902A0931A0221
:10099000B0931B024090330250903402712C612CB2
:1009A0004114510441F44090400250904102609043
:1009B000420270904302C81AD90AEA0AFB0AC70128
:1009C000B601640D751D861D971D2C2F30E050E07B
:1009D00040E00E949E2A30930A022093090260910F
:1009E0002B0270912C026115724009F058CF01154D
:1009F000110509F454CF253F6FE0360708F44FCFB7
:100A000081E04816510480E86806710408F047CF79
:100A1000AB2809F444CF992009F441CFC32EDD243B
:100A20000C151D0508F43BCFCC2309F438CF8C2FCF
:100A300090E09C012150310982239323892B09F0F6
:100A40002ECF81E080931F022BCFC12CD12C7601B9
:100A500040CFCF92DF92EF92FF920F931F93CF93ED
:100A6000DF938230910550F480E0DF91CF911F91A8
:100A70000F91FF90EF90DF90CF90089520910902A1
:100A800030910A022F5F3F4F2817390768F3EB01B7
:100A90008C01212F3327C0900F02D0901002E090DC
:100AA0001102F0901202C20ED31EE11CF11C8091C3
:100AB000000190910101A0910201B0910301C816BB
:100AC000D906EA06FB0689F4F801FF27EE0FFF1F9F
:100AD000E05EFD4FD183C08381E080934601809129
:100AE0001502823050F481E0C0CF40E0C701B6016A
:100AF0000E94C2038111E8CFB7CF80911302909179
:100B00001402C80ED91EE11CF11CC0924201D09201
:100B10004301E0924401F0924501E5CFCF92DF928C
:100B2000EF92FF920F931F93CF93DF9320910902CF
:100B300030910A022F5F3F4F2817390750F480E0A9
:100B4000DF91CF911F910F91FF90EF90DF90CF90A9
:100B500008958B01EC012D2F332760910F027091C6
:100B600010028091110290911202620F731F811D79
:100B7000911DC0900001D0900101E0900201F09021
:100B800003016C157D058E059F0561F4DD27CC0FF3
:100B9000DD1FC05EDD4F88819981F80191838083DC
:100BA00081E0CECF40E00E94C2038111EFCFC7CFDA
:100BB0004F925F926F927F928F929F92AF92BF926D
:100BC000CF92DF92EF92FF920F931F93CF93DF9319
:100BD000EC016A017B018D81837091F480E0DF91EB
:100BE000CF911F910F91FF90EF90DF90CF90BF902A
:100BF000AF909F908F907F906F905F904F900895EF
:100C00008A859B85AC85BD858C159D05AE05BF0588
:100C100028F3C114D104E104F10441F41F861E86B7
:100C2000188A198A1A8A1B8A81E0D9CF80901C02FF
:100C3000912CB12CA12CCB01BA0161507109810911
:100C4000910939E096958795779567953A95D1F70B
:100C5000A50194010E949E2A890188899989AA89FF
:100C6000BB89C816D906EA06FB0620F00097A10545
:100C7000B105A9F4888599859F878E875E018EE0EE
:100C8000A80EB11C01151105F1F0B5018E859F85E7
:100C90000E948E05015011098111F4CF9FCFBC0134
:100CA000CD01615071098109910929E096958795D7
:100CB000779567952A95D1F7A50194010E949E2A00
:100CC000021B130BDBCFC88AD98AEA8AFB8AACCF16
:100CD000CF93DF9320911D0230911E02821793075C
:100CE00028F090E080E0DF91CF910895462FEC014D
:100CF0009C0154E0369527955A95E1F760910B02D7
:100D000070910C0280910D0290910E02620F731F80
:100D1000811D911D0E94C203882319F3CE018F709B
:100D2000992725E0880F991F2A95E1F7805E9D4F4E
:100D3000DACFCF93DF93FC01258127FF18C0EC01A8
:100D400061E0868197810E9468060097A1F04A853C
:100D50005B856C857D85FC01448F558F668F778F11
:100D600028853985338F228F8D818F778D83DF9111
:100D7000CF910C94850380E0DF91CF9108958DEBA6
:100D800094E00E9499061092C2040895CF92DF92D7
:100D9000EF92FF920F931F93CF93DF9300D0CDB7C5
:100DA000DEB77C01FC01068517850115110511F4DC
:100DB00001E010E0D12CC12C8091090290910A022F
:100DC000C816D906F8F48017910710F401E010E076
:100DD0000F5F1F4FBE016F5F7F4FC8010E948E05DE
:100DE000882381F089819A81892B21F0FFEFCF1A26
:100DF000DF0AE2CF6FEF7FEFC8010E942905D82EEE
:100E000081110DC0D12C8D2D0F900F90DF91CF91BE
:100E10001F910F91FF90EF90DF90CF900895F70111
:100E200086859785009749F0B8010E942905882397
:100E300049F3F70117870687E6CF858180688583A8
:100E400011870087F6CF089590E080E008950F9312
:100E50001F93CF93DF93D0911F02D11107C0D0E031
:100E60008D2FDF91CF911F910F9108952091C20492
:100E70002370A9F7C62F8C0160E00E946806FC0170
:100E8000892B69F38081882351F3853E41F3838563
:100E9000982F987121F780FF02C0C13001F710929E
:100EA000CC041092CB041092CD041092CE04109278
:100EB000CF041092D0041093C4040093C304848D13
:100EC000958DA68DB78D8093C7049093C804A09389
:100ED000C904B093CA04828D938D9093C604809305
:100EE000C504C093C204BCCFAF92BF92DF92EF9211
:100EF000FF920F931F93CF93DF93CDB7DEB72B975E
:100F00000FB6F894DEBF0FBECDBF20911F02222383
:100F100029F12091C204237009F5FE0131969E014A
:100F2000245F3F4F7F0140E24193E217F307E1F76F
:100F3000DC0190E027E08D91382F882391F18E32EB
:100F400029F42A3059F098E02AE0F5CFE1E9F1E000
:100F500044914423A1F031968413FACF80E02B967C
:100F60000FB6F894DEBF0FBECDBFDF91CF911F91BA
:100F70000F91FF90EF90DF90BF90AF9008952917E9
:100F800068F34FED480F4E3548F74FE9480F4A31A7
:100F900010F430EE380FF701E90FF11D30839F5F39
:100FA000CACF89818032D1F2D62E10E000E0AA2487
:100FB000AA94BA2C80911D0290911E02081719075D
:100FC00068F660E0C8010E946806BC01009731F233
:100FD000FC0190819923F9F0953E19F4B7FE21C0E8
:100FE0001CC04BE050E0C7010E94D52A892BC9F4F0
:100FF0006D2DC8012B960FB6F894DEBF0FBECDBF86
:10100000DF91CF911F910F91FF90EF90DF90BF90F4
:10101000AF900C942707B7FEA1CF5801992309F48C
:101020009DCF0F5F1F4FC6CF4F925F926F927F92FF
:101030008F929F92AF92BF92CF92DF92EF92FF92E8
:101040000F931F93CF93DF935C018B018091C204B8
:1010500080FD13C08FEF9FEFDF91CF911F910F9114
:10106000FF90EF90DF90CF90BF90AF909F908F90C8
:101070007F906F905F904F9008958091CD049091F4
:10108000CE04A091CF04B091D0044091C7045091F8
:10109000C8046091C9047091CA046C017D01C00E3E
:1010A000D11EE11CF11C4C155D056E057F0518F481
:1010B0008A01081B190B7801812C32E0932EE11470
:1010C000F10409F486C08091CD049091CE04A091E2
:1010D000CF04B091D004C0901C02AC01BD0129E046
:1010E00076956795579547952A95D1F7DD24DA943B
:1010F000DC0CD422EC01D170DD2009F448C0209131
:10110000CB043091CC0422503109AC2DB0E00E94C8
:10111000C62A409018025090190260901A027090EE
:101120001B02640D751D861D971D6D0D711D811DA2
:10113000911D40E00E94C203882309F48BCFC401B3
:101140008C1B9D0B67018E159F0508F46C01BE0179
:10115000605E7D4FA601C5010E94E22A8091CD0408
:101160009091CE04A091CF04B091D0048C0D9D1D20
:10117000A11DB11D8093CD049093CE04A093CF0404
:10118000B093D004AC0CBD1CEC18FD0898CF209790
:1011900009F0B5CF8091CB049091CC04009791F4E5
:1011A0008091C5049091C6049093CC048093CB04A5
:1011B0008091CB049091CC040297863F9F4F08F416
:1011C0009ECF48CF6BEC74E00E948E058111F0CF6A
:1011D00041CFC80141CF0F931F93CF93DF931F924D
:1011E000CDB7DEB78C0161E082E291E00E94740726
:1011F000A80170E060E08DEB94E00E94D80561E00A
:1012000070E0CE0101960E9414080981019711F047
:101210000FEF1FEF0E94BF06802F0F90DF91CF913D
:101220001F910F9108951F93CF93DF93EC010E94BC
:10123000EB08182FCE0101960E94EB08912FDF9149
:10124000CF911F910895EF92FF920F931F93CF9329
:10125000DF937B01EA010E9413098C01C7010E9400
:10126000130924E0000F111F2A95E1F78C0F9D1F31
:10127000800F911FDF91CF911F910F91FF90EF9001
:101280000895CF93DF93EB018F579F4F0E9413096F
:101290008C0F9D1FDF91CF910C94EB08CF93DF93C0
:1012A00080930002C82FD0E0BE0188E090E00E9449
:1012B00041098093E501BE0189E090E00E94410967
:1012C0008093DB01BE018EE090E00E944109809393
:1012D000F401BE018AE090E00E94410990E0909301
:1012E000D7018093D601DF91CF9108950F931F937B
:1012F000CF9382E090EF9093E7018093E60109E0BD
:1013000010E001501109E0F0C80188960E94EB0836
:10131000C82FB80183E190E00E9441092C2F30E0F2
:1013200002C0220F331F8A95E2F78091E601909167
:10133000E701280F391F3093E7012093E601E1CF41
:10134000CF911F910F9108952F923F924F925F92EC
:101350006F927F928F929F92AF92BF92CF92DF92C5
:10136000EF92FF920F931F93CF93DF9300D0CDB7EF
:10137000DEB78C015B014A01FC01858181FFB6C0AB
:1013800082FDA1C06401212C32E0332EF801808956
:101390009189A289B389C114D10409F4CEC0709097
:1013A0001C02AC01BD0129E07695679557954795DC
:1013B0002A95D1F766246A94670C64227C01F1E0D7
:1013C000FF2261101FC0F80186859785E114F104A2
:1013D00009F0E3C0009709F48DC0BE016F5F7F4F35
:1013E0000E948E05882309F481C089819A81883FF3
:1013F000FFEF9F0708F49DC0C8010E94C60688231E
:1014000009F474C0F8012685378522503109A72DCB
:10141000B0E00E94C62A2091180230911902409132
:101420001A0250911B02620F731F841F951F9B01AC
:10143000AC01260D311D411D511D29013A01E11458
:10144000F10409F0BDC0F8014089518962897389AE
:1014500082859385A485B585481759076A077B0758
:1014600008F4AEC00E948503882309F43FC040926F
:10147000000150920101609202017092030181E02B
:1014800080934601C1018E199F0936018C159D0577
:1014900008F43C01A301B501C701805E9D4F0E9485
:1014A000E22AF80180899189A289B389860D971D66
:1014B000A11DB11D808B918BA28BB38BC618D70851
:1014C000A60CB71C63CF42855385648575858089DA
:1014D0009189A289B389481759076A077B0709F4DC
:1014E00051CFC8010E94D80581114CCF81E0F8018D
:1014F00084836DC0808591850097D9F4C8010E94CE
:10150000C606882399F3F8012685378522503109CC
:10151000A72DB0E00E94C62A4090180250901902F0
:1015200060901A0270901B02460E571E681E791EAC
:101530008ACFF8019787868765CF42855385648572
:101540007585481759076A077B0738F42581828714
:101550009387A487B58720682583F801858183FD5B
:1015600016C0C4010F900F90DF91CF911F910F9182
:10157000FF90EF90DF90CF90BF90AF909F908F90B3
:101580007F906F905F904F903F902F900895C8018B
:101590000E9499068111E5CFA9CF9C012250310903
:1015A000A72DB0E00E94C62A409018025090190260
:1015B00060901A0270901B02460E571E681E791E1C
:1015C00041E0C301B2010E94C20381115BCF8FEFE2
:1015D0009FEFC8CFCF93DF931F92CDB7DEB769835C
:1015E00041E050E0BE016F5F7F4F0E94A40921E0FF
:1015F00030E0019711F030E020E0C9010F90DF9159
:10160000CF9108951F93CF93DF93EC01162F62E0E3
:1016100082E291E00E947407AE0170E060E08DEB21
:1016200094E00E94D805612F70E041E050E08DEB1E
:1016300094E00E94A4090E94BF06812FDF91CF9100
:101640001F9108950C94020B0F931F93CF93DF9378
:101650008C01D62FC72F0E94220B6C2FC801019638
:101660000E94220B8D2F9C2FDF91CF911F910F9104
:1016700008950F931F93CF93DF938C01C9E0D0E0BF
:10168000219788F0BE0183E190E00E944109B801F2
:1016900002C0759567958A95E2F76170CE018896CC
:1016A0000E94220BEDCFDF91CF911F910F910895F2
:1016B00061E0892B09F460E080E390E00C94220B58
:1016C0006091E0017091E1018091DE019091DF0174
:1016D000682779278091DC019091DD0168277927BF
:1016E0007093DF016093DE0184E0769567958A95BB
:1016F000E1F761708AE290E00E94220B2091DC0108
:101700003091DD018091E0019091E10128173907C6
:10171000E1F088E290E00E94EB084091FE0198E041
:10172000499FA0011124495F5F4F2091DE01309154
:10173000DF0102C0369527954A95E2F7A9014827AF
:10174000CA01817099270C94580B60E080E390E007
:101750000E94220B80E0089561E0892B09F460E08B
:1017600088E290E00C94220BCF93DF93EC0181E0B0
:101770008093FE0184E090E00E941309BC016E5F3B
:101780007F4F84E090E00E94240B4EEF5FEF64E017
:1017900070E08AE090E00E9423090E94EB088093A9
:1017A000E3018093E2019091FE01D093E101C093A7
:1017B000E001992399F08091E2019091E3019093E7
:1017C000DF018093DE019093DD018093DC011092B4
:1017D000FE018091E201DF91CF91089590E0EFCF7B
:1017E000CF93DF93EC0181E08093FE014FEF5FEF39
:1017F00064E070E08AE090E00E9423090E94EB0818
:101800008093E3018093E2019091FE01992351F1CD
:101810002091E2013091E3013093E1012093E00156
:10182000D093DF01C093DE01D093E301C093E201C6
:10183000D093DD01C093DC01C091E2018C1759F017
:101840004FEF5FEF64E070E08AE090E00E942309D0
:101850006C2F0E94020B1092FE018091E201DF9139
:10186000CF910895282F30E03093E1012093E001DB
:101870009E0133273093DF012093DE01C093E20104
:101880003093DD012093DC01D7CFCF93DF93C82FB6
:101890008DEC0E944E090E9476098091E60190919C
:1018A000E7010E94F00B89E090E00E9413090E947A
:1018B000F00B80910302909104020E94F00B84E0EF
:1018C000C89FE0011124CE0102960E94EB0880938C
:1018D000E3019091FE01992309F448C08091E2014F
:1018E0009091E3019093E1018093E0018091E30105
:1018F0009091E4019093DF018093DE019093E301E6
:101900008093E2019093DD018093DC016091E2011C
:1019100082E190E00E94020BC551D74F2091FE0159
:1019200080910302909104029093E1018093E00181
:10193000222381F1888199819093DF018093DE01D8
:1019400090930402809303029093DD018093DC0165
:1019500060E08DE290E00E94220B60E08EE290E079
:101960000E94220B80E0DF91CF9108952091E20147
:1019700030E03093E1012093E001282F30E03093F4
:10198000DF012093DE018093E2013093DD0120939B
:10199000DC01BCCF888190E0CFCF0F931F93CF9312
:1019A000DF93EC010E94E9018C0142E050E06AE221
:1019B00071E0CE010E94FC00800F911FDF91CF915A
:1019C0001F910F9108951F920F920FB60F9211243D
:1019D0002F933F934F935F936F937F938F939F9337
:1019E000AF93BF93EF93FF9380E294E00E947A015C
:1019F000FF91EF91BF91AF919F918F917F916F91E7
:101A00005F914F913F912F910F900FBE0F901F90BC
:101A100018951F920F920FB60F9211242F938F9348
:101A20009F93EF93FF93E0913004F0913104808114
:101A3000E0913604F091370482FD1BC090818091C3
:101A400039048F5F8F7320913A04821741F0E0913F
:101A50003904F0E0E05EFB4F958F80933904FF91ED
:101A6000EF919F918F912F910F900FBE0F901F902C
:101A700018958081F4CF1F920F920FB60F92112408
:101A80002F933F938F939F93AF93BF9380914C017C
:101A900090914D01A0914E01B0914F0130914B01B9
:101AA00023E0230F2D3758F50196A11DB11D20937A
:101AB0004B0180934C0190934D01A0934E01B09344
:101AC0004F018091470190914801A0914901B09147
:101AD0004A010196A11DB11D8093470190934801D1
:101AE000A0934901B0934A01BF91AF919F918F910B
:101AF0003F912F910F900FBE0F901F90189526E8E1
:101B0000230F0296A11DB11DD2CFE0E2F4E01382B3
:101B1000128288EE93E0A0E0B0E084839583A683F0
:101B2000B78388E091E09183808385EC90E095878E
:101B3000848784EC90E09787868780EC90E0918B97
:101B4000808B81EC90E0938B828B82EC90E0958B84
:101B5000848B86EC90E0978B868B118E128E138E81
:101B6000148EEDEBF4E0138212828AE191E091830E
:101B7000808315820895CF93DF9300D000D01F9209
:101B8000CDB7DEB7789484B5826084BD84B58160BA
:101B900084BD85B5826085BD85B5816085BD809138
:101BA0006E00816080936E001092810080918100B0
:101BB00082608093810080918100816080938100A8
:101BC000809180008160809380008091B10084606A
:101BD0008093B1008091B00081608093B0008091CB
:101BE0007A00846080937A0080917A00826080938A
:101BF0007A0080917A00816080937A0080917A00E7
:101C0000806880937A001092C100E0913004F091D6
:101C1000310482E08083E0912C04F0912D04108245
:101C2000E0912E04F0912F048FEC80831092380401
:101C3000E0913404F091350486E08083E091320431
:101C4000F0913304808180618083E0913204F091CF
:101C50003304808188608083E0913204F091330402
:101C6000808180688083E0913204F0913304808128
:101C70008F7D80836CE571E080E294E00E94CD0C62
:101C80006FE271E080E294E00E94CD0C68ED70E0BC
:101C900080E294E00E94E90112E09AE0F92E23E547
:101CA000E22E10930802F0920702109205020E94A1
:101CB000A5027D836C8361E0809107020E9474021B
:101CC00061E0809107020E94280260E08CE00E949F
:101CD000740261E08AE00E94740261E08AE00E947E
:101CE000280261E08BE00E94740261E08DE00E94B6
:101CF0007402ECBC0AE08FEF0E94B1020150D9F7E8
:101D000060E0809107020E94280220E030E0A901F3
:101D100060E085E092E00E94E302082F8130D9F074
:101D20000E94A5022C813D81621B730B613D7740AF
:101D300060F30093060281E08093050285E092E063
:101D40000E94B60241E050E06DE271E080E294E072
:101D50000E94FC00A6CF20E030E0A90167E385E007
:101D600092E00E94E30220E030E0A90169E285E010
:101D700092E00E94E302082F882371F00E94A502DE
:101D80004C815D81641B750B613D774020F30093AE
:101D9000060210930502D2CF85E092E00E94B602BF
:101DA00060EC70E080E294E00E94E90181E00E9432
:101DB0002F0481110DC00E942F04811109C041E040
:101DC00050E06DE271E080E294E00E94FC00EECF12
:101DD00068EB70E080E294E00E94CD0C6FE171E06E
:101DE00080E294E00E94CD0C60E070EF89E090E02A
:101DF0000E94240B60E08DE290E00E94220B60E8DC
:101E000084E090E00E94220B6FEE70E080E294E0AC
:101E10000E94E90162E082E291E00E94740760E0C2
:101E20008DEB94E00E94EA0A6DEE70E080E294E0AF
:101E30000E94E9018091CD049091CE04A091CF043D
:101E4000B091D004803F9F4FA041B10541F70E945F
:101E5000BF0665EE70E080E294E00E94CD0C6FE07A
:101E600071E080E294E00E94E901C12CD12C76015E
:101E700061E08FE291E00E947407B701A6018DEB4B
:101E800094E00E94D80560E870E080E591E00E944F
:101E900014089D838C830E94BF0662E082E291E079
:101EA0000E947407B701A601615F7F4F8DEB94E03C
:101EB0000E94D8054C815D8160E571E08DEB94E076
:101EC0000E94A4090E94BF068C819D8180389105E3
:101ED000BCF0092E000CAA0BBB0BC80ED91EEA1EC3
:101EE000FB1E6DE071E080E294E00E94E90191EF59
:101EF000C9169FEFD90690E1E906F1040CF4B8CFBA
:101F00006EEF70E080E294E00E94CD0C80E091E002
:101F1000909304028093030280E5A82EB12C712CCB
:101F2000612C912C812C89E090E00E94130904E03F
:101F3000880F991F0A95E1F720910302309104025E
:101F4000820F931F0E94EB08E82FF0E0F09302024B
:101F5000E093010280810E944E09A09100028A2F25
:101F600087708093FF01A170A093FE018695817018
:101F70008093FD01E0910102F09102029181728152
:101F8000292F372F3093FC012093FB01B3817093ED
:101F9000F901B093FA01438154815093F8014093C1
:101FA000F7018091F601882319F081508093F601A2
:101FB0008091F501882319F081508093F50180917B
:101FC000F401882309F499C0A90166E05695479564
:101FD0006A95E1F743704093F30197709093F20193
:101FE00013E0369527951A95E1F727702093F101B4
:101FF0004111BEC0963009F0C0C0248135813093B4
:10200000F8012093F70124E030E04111C2C0309381
:10201000F0012093EF01692F70E0433009F4BFC055
:10202000C90101960E94410990E00E9413099D8315
:102030008C836091F20170E08091EF019091F0014A
:1020400002960E9441092091F9013091FA01829F84
:102050008001839F100D1124EC81FD810E0F1F1F45
:102060006091F20170E08091EF019091F0010E9487
:102070004109282F30E03D832C838091F6018111A6
:102080008BC06091F20170E08091EF019091F001BE
:1020900003960E944109A8016C817D8190E00E9415
:1020A00023099093ED018093EC019093EB018093D1
:1020B000EA014091F101242F30E0220F331F5091AB
:1020C000FE01511106C046954695240F311D27701B
:1020D00033273093E9012093E8014091FD01442327
:1020E00061F03093E7012093E6019093E90180933A
:1020F000E8013093EB012093EA01E091E501E1333F
:1021000008F037C2F0E0E957FF4E0C94C02ADE1009
:1021100035119E119111971129123A14F0160C17CE
:102120004C175119E01AA01B7420D9200D21412110
:102130000F22EF22E8231E244124F2241A265121E3
:102140002C26302634264626E626242745276927CE
:10215000842700248C279F27A427AF28BB28C828C2
:10216000DC280B2926292D294429502958298A2978
:10217000423009F442CF413029F07093F701B09317
:10218000F80141CF272F770F330B3093FA012093BB
:10219000F90130E020E03BCF8091EE017CCF660F6B
:1021A000771FAA2311F0CB017CCF892F86958695C6
:1021B000860F972F911D8770992773CF609100022A
:1021C000669567706093E4010091FB01002E000C9E
:1021D000110B3091FE01432F50E05D834C8370E082
:1021E0008FE090E00E94410990E00E94EB08882374
:1021F000B1F091E06C817D816927609FC001619F92
:10220000900D709F900D11242091030230910402D3
:10221000820F931F9093040280930302AAC16091DE
:10222000E40170E080E190E00E94410990E00E94AA
:10223000EB088111DECF6091E40170E081E190E074
:102240000E94410990E00E94EB08F82E6091E401A1
:1022500070E082E190E00E94410990E00E94130941
:1022600091E0F812C7CF90E0C5CF9091000281E0D5
:10227000392F387093FF80E08093FE012091FF0199
:10228000822F90E0880F991F311106C02695269560
:10229000820F911D877099270E94EB088093E301BC
:1022A0008093E2012091FE01222359F18091E20105
:1022B0009091E3019093E1018093E0018091FB0113
:1022C0009091FC019093DF018093DE019093E301F4
:1022D0008093E2019093DD018093DC016091E20143
:1022E0003091FF01832F90E0880F991F211106C0C4
:1022F00036953695830F911D877099270E94020BA2
:1023000038C190E09093E1018093E0013091FB01AE
:10231000832F90E09093DF018093DE013093E20100
:10232000D9CF8091FF0190E00E94130920C18091D4
:10233000FF0190E00E9413090C94DC1A81E0809365
:10234000FE011092FD018091FF018093F101209127
:10235000F30184E090E0222311F090E080E090937C
:10236000F0018093EF016091F20170E0233008F0FA
:10237000EAC101960E94410990E00E9413099D83E1
:102380008C836091F20170E08091EF019091F001F7
:1023900002960E9441092091F9013091FA01829F31
:1023A0008001839F100D11248C819D81080F191FBE
:1023B0006091F20170E08091EF019091F0010E9434
:1023C0004109E82FF0E0FD83EC838091F601811153
:1023D000B7C16091F20170E08091EF019091F0013E
:1023E00003960E944109A8016C817D8190E00E94C2
:1023F00023099093ED018093EC019093EB0180937E
:10240000EA014091F101242F30E0220F331F509157
:10241000FE01511106C046954695240F311D2770C7
:1024200033273093E9012093E8014091FD014423D3
:1024300061F03093E7012093E6019093E9018093E6
:10244000E8013093EB012093EA018091DB01809356
:10245000F1018091F101823008F091C188E190E0B2
:102460000E94EB088093E3019091FE012091F1011D
:10247000992309F46CC18091E2019091E30190935A
:10248000E1018093E0014091E3015091E401509318
:10249000DF014093DE01840F951F019630E0220F8B
:1024A000331F821B930B9093E3018093E20190937F
:1024B000DD018093DC016091E2018091E80190915F
:1024C000E9010E94020B21E030E03093DF0120930C
:1024D000DE010E94600B8091FE0138E0839FC00105
:1024E0001124079641E050E002C0440F551F8A9521
:1024F000E2F72091E0013091E1012F5F3F4F8091A1
:10250000F101281B310981E090E04217530711F0D7
:1025100090E080E00E94580B8091FE0158E0859F7A
:10252000C0011124079641E050E002C0440F551F3E
:102530008A95E2F72091E0013091E1012F5F3F4F52
:102540008091F101281B310981E090E04217530787
:1025500011F090E080E00E94580B8091E5018530F9
:1025600019F480E10E944E098091E20190E00E94FE
:10257000F00B4091F30181E090E0433011F490E0E2
:1025800080E0489F9001499F300D1124411105C002
:1025900081E09091F201963009F080E090E0880FA0
:1025A000991F820F931F2091F401289FF001299F0A
:1025B000F00D1124FD83EC836091000270E08CE04B
:1025C00090E00E9441092C813D81280F311D3D83FF
:1025D0002C836091000270E08DE090E00E94410940
:1025E0002091FE0130E02F5F3F4F482F429FC001F6
:1025F000439F900D11246C817D81680F791F40915C
:10260000030250910402640F751F709304026093DB
:1026100003028091D60180FF40C083E0220F331F68
:102620008A95E1F7215031096091DC017091DD015B
:1026300002C0759567952A95E2F761708CE290E08B
:102640000E94220B61E08091DC019091DD01892BD9
:1026500009F060E08BE290E00E94220B6091DC01C7
:102660007091DD0177278BE090E00E944109682F8F
:1026700089E290E00E94220B8091D60181FD0E94A8
:10268000600B8091D60182FF08C090E080E00E943C
:10269000AC0B90E080E00E94580B8091D2019091A9
:1026A000D30101969093D3018093D20160E27EE43E
:1026B0000E94762A892B19F481E08093D1018091C0
:1026C000D001882319F081E00E94450C8DE290E052
:1026D0000E94EB088093D0018091D101882309F4F6
:1026E00022CC8091F60181111ECC8091F5018111DF
:1026F0001ACC8EE290E00E94EB08882309F413CCF8
:102700008DE290E00E94EB0881110DCC8AE00E94DE
:10271000450C1092D10180E294E00E945A011816F3
:1027200019062CF480E294E00E9438018B836B81BF
:1027300086EA94E00E94020B87E00E94450CF3CBEE
:102740008091EE0150CECB01880F991F52CE40915F
:10275000E201642F70E07093E1016093E00190E08A
:102760009093DF018093DE0130E0220F331F821B44
:10277000930B0196840F8093E20190E098CE86300F
:1027800009F46FC0833031F489E090E00E941309AE
:102790000E94F00B8091F10181FF23C02091F30191
:1027A00081E090E0233011F490E080E0289FA001C8
:1027B000299F500D1124211105C021E08091F201C3
:1027C000863009F020E08091030290910402029685
:1027D000840F951F30E0220F331F820F931F0E943A
:1027E000F00B8091F10180FF07C08091E80190918A
:1027F000E90102960E94EB088091E8019091E901BD
:1028000002960E94EB08682F70E089E090E00E9439
:10281000240B8091E8019091E9010E94EB088093DC
:10282000E2019091FE012091030230910402309365
:10283000E1012093E001992391F08091E2019091D0
:10284000E3019093DF018093DE0190930402809373
:1028500003029093DD018093DC018AE983CE90E04E
:10286000F0CF8091EC019091ED010E94EB088093F4
:10287000E2017ACE8091E8019091E9019093EB0119
:102880008093EA01E091F101E83008F072CEF0E0C7
:10289000E45BFB4E0C94C02A5414B9129D14D2145C
:1028A000271597150116831680E20E944E09809124
:1028B00003029091040201962091FE01820F911D66
:1028C00090930402809303028091EA019091EB01BE
:1028D0000E94EB088093E2019091FE019923E1F0C0
:1028E0002091E2013091E3013093E1012093E00176
:1028F0004091F7015091F8015093DF014093DE01C0
:10290000242335233093DD012093DC01682F80914F
:10291000EA019091EB01F2CC282F30E03093E101F5
:102920002093E0012091F701422F50E05093DF0106
:102930004093DE01282330E0E5CF0E94EB0880932E
:10294000E3019091FE019923D9F08091E2019091E9
:10295000E3019093E1018093E0018091E301909184
:10296000E4019093DF018093DE0180959095909330
:10297000E3018093E2019093DD018093DC0152C575
:102980002091E20130E03093E1012093E001282F13
:1029900030E03093DF012093DE0180958093E201E7
:1029A00090E0E9CF0E94EB088093E3019091FE0153
:1029B0009923D9F18091E2019091E3019093E10193
:1029C0008093E0018091E3019091E4019093DF0115
:1029D0008093DE019195819591099093E301809315
:1029E000E2019093DD018093DC016091E20180912E
:1029F000EA019091EB010E94020B1092E10110920A
:102A0000E00188E20E944E0981E090E04091DC0103
:102A10005091DD012091E0013091E101241735074B
:102A200008F089C20E94AC0BA4CD2091E20130E0F5
:102A30003093E1012093E001282F30E03093DF0153
:102A40002093DE0181958093E20190E0CACF8091CE
:102A5000FE018823B1F180E10E944E096091EC01F2
:102A60007091ED016551774F7D836C8390E080E03C
:102A70000E941309EC81FD81E89FB001E99F700D70
:102A8000F89F700D11247093DD016093DC01770FC6
:102A9000660B762F8091FE0190E001960E94240B38
:102AA0006091DC017091DD0190E080E00E94240BD8
:102AB00060E088E290E00E94220BC4010E94580B63
:102AC00058CD80E10E944E092091EC013091ED013A
:102AD0002551374F33273D832C8390E080E00E94BF
:102AE000EB08682F4C815D81649FC001659F900D4C
:102AF00011249093DD018093DC018091FE0190E030
:102B000060E001960E94220B6091DC017091DD0172
:102B100090E080E00E94240B8091DC019091DD0127
:102B200088270E94AC0B082E000C990BC7CF809110
:102B3000FE018823A1F180E10E944E098091EC0101
:102B40009091ED018551974F9D838C8390E080E0BB
:102B50000E941309EC81FD81E89FB001E99F700D8F
:102B6000F89F700D11247093DD016093DC01770FE5
:102B7000660B762F8091FE0190E001960E94240B57
:102B80006091DC017091DD0190E080E00E94240BF7
:102B900060E088E290E00E94220BC3018FCF80E1C9
:102BA0000E944E092091EC013091ED012551374FE3
:102BB0003D832C8390E080E00E94EB083C818302FF
:102BC000B00111247093DD016093DC01770F660B77
:102BD000762F8091FE0190E001960E94220B609179
:102BE000DC017091DD0190E080E00E94240B809177
:102BF000DC019091DD01082E881B910907FC93955B
:102C000090CF8091EC019091ED012091FE01222363
:102C100009F43FC00E94EB0890E09093DA018093A2
:102C2000D901892B09F4D8C08091FE0190E001966A
:102C30000E94130990E080E00E9413099D838C8319
:102C40009093E7018093E6016091D9017091DA01D8
:102C50000E94762A7093F0016093EF0190E080E08B
:102C60000E94240B2091D9013091DA01AC01429FDE
:102C7000C001439F900D529F900D11246C817D8166
:102C8000681B790B8091FE0190E001960E94240B55
:102C900070CC0E94EB0890E09093DA018093D90108
:102CA000892B09F499C08091FE0190E001960E9461
:102CB000EB0890E080E00E9413098C838093E6018A
:102CC0009093E7016091D9017091DA010E94762A10
:102CD0007093F0016093EF01CB0199276817790792
:102CE00009F07AC090E080E00E94020B9091D90137
:102CF0006C81899F601911248091FE0190E00196FA
:102D00000E94220B36CC8091EC019091ED01209134
:102D1000FE012223A9F10E94EB0890E09093DA01D2
:102D20008093D901892B09F457C08091FE0190E06E
:102D300001960E94130990E080E00E9413099D8390
:102D40008C839093E7018093E6016091D9017091A3
:102D5000DA010E948A2A7093F0016093EF0190E0FB
:102D600080E00E94240B2091D9013091DA01BC014E
:102D7000629FC001639F900D729F900D11247ECFC2
:102D80000E94EB08082E000C990B9093DA018093B7
:102D9000D901892B09F18091FE0190E001960E94F2
:102DA000EB0890E080E00E9413098C838093E60199
:102DB0009093E7016091D9017091DA010E948A2A0B
:102DC0007093F0016093EF01262F062E000C330B59
:102DD0006217730709F486CF80E00E94450CC9CBC7
:102DE0001092ED011092EC018091FB019091FC0199
:102DF0009093F8018093F70183E08093F301809131
:102E0000DB018093F101809103029091040201970C
:102E100090930402809303028091EC019091ED0164
:102E20009093EB018093EA0181E09091FE01911172
:102E300080E09091FD01892B8093FD016091F70165
:102E40007091F801882319F0062E000C770B8DE0A5
:102E500090E00E94240B8AE190E09093E901809336
:102E6000E8018091FD0122E030E0882311F021E0AB
:102E700030E08091030290910402820F931F90939F
:102E80000402809303028091F1018093DB01880F9B
:102E9000880F880F0E944E09E091DB01E93008F0AD
:102EA00068CBF0E0E65AF84E8091E8019091E90194
:102EB0000C94C02A6317B117DC174618B918E41828
:102EC000BC212319DF190E94EB088093E301909144
:102ED000FE01992399F18091E2019091E301909391
:102EE000E1018093E0012091E3013091E40130930E
:102EF000DF012093DE01820F931F9093E301809303
:102F0000E2019093DD018093DC016091E201809108
:102F1000EA019091EB010E94020B81E090E0409168
:102F2000DC015091DD012091E0013091E101421777
:102F3000530708F477CD90E080E074CD9091E201E2
:102F4000292F30E03093E1012093E001282F30E079
:102F50003093DF012093DE01890F8093E20190E03E
:102F6000D0CF0E94EB088093E3019091FE0199235A
:102F700099F08091E2019091E3019093E1018093B7
:102F8000E0012091E3013091E4013093DF012093CF
:102F9000DE01822B932BEBCC9091E201292F30E0C4
:102FA0003093E1012093E001282F30E03093DF01DE
:102FB0002093DE01892BF2CC0E94EB088093E30181
:102FC0008091FE01882309F446C08091E20190912E
:102FD000E3019093E1018093E00188E290E00E9498
:102FE000EB082091E3013091E4013093DF0120935D
:102FF000DE014091E2015091E301240F351F820F61
:10300000932F911D9093E3018093E2019093DD0152
:103010008093DC016091E2018091EA019091EB01E3
:103020000E94020B88E290E00E94EB082091E001F0
:103030003091E1014091DC015091DD01882321F0C4
:103040004217530709F493C081E0421753070CF469
:1030500068C080E066C08091E20190E09093E10159
:103060008093E00188E290E00E94EB089091E301F8
:10307000292F30E03093DF012093DE012091E2011F
:10308000920F890F8093E20190E0C0CF0E94EB087D
:103090008093E3018091FE01882309F448C0809168
:1030A000E2019091E3019093E1018093E00188E2D5
:1030B00090E00E94EB084091E3015091E4015093AD
:1030C000DF014093DE012091E2013091E301241BF6
:1030D000350B281B31093093E3012093E201309333
:1030E000DD012093DC016091E2018091EA01909181
:1030F000EB010E94020B88E290E00E94EB08209115
:10310000E0013091E1014091DC015091DD01882323
:1031100019F04217530759F181E0241735070CF0D5
:1031200098CF90E00E94AC0B0E94600B22CA809165
:10313000E20190E09093E1018093E00188E290E069
:103140000E94EB084091E301242F30E03093DF012F
:103150002093DE019091E201941B981B892F90939C
:10316000E20190E09093DD018093DC01BCCF81E02F
:10317000D8CF0E94EB088093E3019091FE01992340
:1031800099F08091E2019091E3019093E1018093A5
:10319000E0012091E3013091E4013093DF012093BD
:1031A000DE0182239323E3CB9091E201292F30E0CB
:1031B0003093E1012093E001282F30E03093DF01CC
:1031C0002093DE018923EACB0E94EB08982F80939D
:1031D000E3018091FE01882319F18091E201909131
:1031E000E3019093E1018093E0012091E3013091AC
:1031F000E4013093DF012093DE01821B930B909357
:10320000E3018093E2019093DD018093DC01609102
:10321000E2018091EA019091EB010E94020BF4CB54
:103220008091E201282F30E03093E1012093E0010A
:10323000292F30E03093DF012093DE01891B80933A
:10324000E20190E0E0CF0E94EB088093E3019091CF
:10325000FE01992399F08091E2019091E30190930E
:10326000E1018093E0012091E3013091E40130938A
:10327000DF012093DE01821B930BC5CF2091E20179
:1032800030E03093E1012093E00190E09093DF0182
:103290008093DE01281B390B3093DD012093DC0184
:1032A000B6CF8091FE018111C0C081E08093FE0104
:1032B0008091F101885F8093F1012091F30184E016
:1032C00090E0222311F090E080E09093F001809351
:1032D000EF016091F20170E0233008F08CC001969C
:1032E0000E94410990E00E9413099D838C836091A4
:1032F000F20170E08091EF019091F00102960E943E
:1033000041092091F9013091FA01829F8001839F48
:10331000100D1124EC81FD810E0F1F1F6091F20131
:1033200070E08091EF019091F0010E944109282FF7
:1033300030E03D832C838091F601811159C060916A
:10334000F20170E08091EF019091F00103960E94EC
:103350004109A8016C817D8190E00E94230990932E
:10336000ED018093EC019093EB018093EA01409191
:10337000F101242F30E0220F331F5091FE01511133
:1033800006C046954695240F311D2770332730938C
:10339000E9012093E8014091FD01442361F030935D
:1033A000E7012093E6019093E9018093E8013093CF
:1033B000EB012093EA018091E8019091E9010E94DC
:1033C000EB088093E3019091FE019923C1F0809175
:1033D000E2019091E3019093E1018093E0018091FB
:1033E000E3019091E4019093DF018093DE01BFCA75
:1033F0008091EE01AECFCB01880F991FB0CF209105
:10340000E20130E03093E1012093E001282F30E029
:103410003093DF012093DE018093E2013093DD01E0
:103420002093DC016091E20172CA8091FD0181115B
:10343000BCC081E08093F6018CE08093EE01209186
:10344000F30184E090E0222311F090E080E090937B
:10345000F0018093EF016091F20170E0233008F0F9
:1034600090C001960E94410990E00E9413099D833B
:103470008C836091F20170E08091EF019091F001F6
:1034800002960E9441092091F9013091FA01829F30
:103490008001839F100D11244C815D81040F151F45
:1034A0006091F20170E08091EF019091F0010E9433
:1034B0004109682F70E07D836C838091F601811152
:1034C0005DC06091F20170E08091EF019091F00198
:1034D00003960E944109A8016C817D8190E00E94C1
:1034E00023099093ED018093EC019093EB0180937D
:1034F000EA014091F101242F30E0220F331F509157
:10350000FE01511106C046954695240F311D2770C6
:1035100033273093E9012093E8014091FD014423D2
:1035200061F03093E7012093E6019093E9018093E5
:10353000E8013093EB012093EA018091E80190913A
:10354000E9010E94EB088093E2019091FE0199232A
:10355000E1F08091E2019091E3019093E101809389
:10356000E0018091EC019091ED019093DF01809357
:10357000DE019093E3018093E2016DC68091EE013C
:10358000AACFCB01880F991FACCF90E09093E101B7
:103590008093E0012091EC01822F90E09093DF0175
:1035A0008093DE012093E20156C68091EC01909158
:1035B000ED010E94EB0890E00E94B40B0C94B9124C
:1035C0001092F1011092F30186E08093F201809154
:1035D000FB019091FC019093FA018093F90184E042
:1035E00090E09093F0018093EF0166E070E085E059
:1035F00090E00E94410990E00E9413099D838C8312
:103600006091F20170E08091EF019091F0010296DB
:103610000E9441092091F9013091FA01829F8001B5
:10362000839F100D1124EC81FD810E0F1F1F6091EF
:10363000F20170E08091EF019091F0010E94410948
:10364000282F30E03D832C838091F60181114EC0FC
:103650006091F20170E08091EF019091F00103968A
:103660000E944109A8016C817D8190E00E9423099C
:103670009093ED018093EC019093EB018093EA012C
:103680003091FE012091F101332399F130E0220FB6
:10369000331F3093E9012093E8014091FD01442359
:1036A00061F03093E7012093E6019093E901809364
:1036B000E8013093EB012093EA018091EA019091B7
:1036C000EB010E94EB088093E3019091FE019923A6
:1036D000E1F08091E2019091E3019093E101809308
:1036E000E0018091E3019091E4013FCF8091EE01F0
:1036F000B9CF422F50E0440F551F26952695240F31
:10370000352F311D27703327C4CF2091E20130E0DF
:103710003093E1012093E001282F30E03093DF0166
:103720002093DE018093E2013093DD012093DC01E0
:103730006091E2018091E8019091E9010C947E1181
:103740008091EC019091ED010E94EB088093E201E1
:103750002091FE0190E0222321F08091E2019091DE
:10376000E30148E0249F90011124295F3F4F02C0EC
:10377000959587952A95E2F7817099279093F001A6
:103780008093EF018091DB01882339F1809103025E
:103790009091040201969093040280930302809119
:1037A000F901082E000C990B9093E7018093E60134
:1037B0000097E9F4E091F101E83010F00C94B912AF
:1037C000F0E0EB51F44E0C94C02AFD1C7D1D181E38
:1037D000D91E9A1FCE1FB912E01F8091FD018111E1
:1037E000C2C081E090E09093E7018093E6012091D0
:1037F000F1012430C0F56091FE0170E06F5F7F4FF2
:10380000E3E0660F771FEA95E1F72695620F711DD9
:103810000E94762A9093E7018093E6018091EC0163
:103820009091ED010E94EB088093E2019091FE01DE
:10383000992309F49FC08091EF019091F00190933A
:10384000E1018093E0018091E2019091E301909386
:10385000DF018093DE019093F0018093EF0190935C
:10386000DD018093DC018091F10180FF08C080912F
:10387000EC019091ED010E94EB088093E2018091B0
:10388000FE01882309F480C08091E2019091E30158
:103890009093E1018093E0012091E6013091E701EE
:1038A0002093DE013093DF0102C0969587952A951B
:1038B000E2F79093E3018093E2019093DD0180931E
:1038C000DC016091E2018091EC019091ED010E9498
:1038D000020B8091F101843018F080E10E944E09C2
:1038E0008091F101853008F467C02091E6013091A4
:1038F000E701215031098091E0019091E10102C07E
:10390000969587952A95E2F7817099270E94AC0BCE
:103910008091FE01882309F458C08091E2019091C2
:10392000E3019093E1018093E0012091E601309161
:10393000E7012093DE013093DF0102C0880F991F59
:103940002A95E2F79093E3018093E2019093DD01E1
:103950008093DC016091E2018091EC019091ED0196
:103960000E94020B27CF82E090E00E94EB088F714B
:1039700090E01ACF2091EF013091F0013093E101F6
:103980002093E00190E063CF8091E20190E090937A
:10399000E1018093E0014091E601242F30E0309373
:1039A000DF012093DE0102C0959587954A95E2F7E5
:1039B0008093E201992781CF8091EC019091ED01F4
:1039C0000E94EB088093E201A3CF8091E20190E096
:1039D0009093E1018093E0014091E601242F30E0D3
:1039E0003093DF012093DE0102C0880F991F4A95B2
:1039F000E2F78093E2019927A9CF8091EC019091A1
:103A0000ED010E94EB088093E2019091FE0140914C
:103A1000E6015091E701992309F454C02091E20195
:103A20003091E3013093E1012093E001892F90E090
:103A3000019673E0880F991F7A95E1F7BC01641B2A
:103A4000750B8091EF019091F00102C096958795DA
:103A50006A95E2F79093DF018093DE01280F391F0A
:103A60003093E3012093E2013093DD012093DC01E8
:103A70006091E2018091EC019091ED010E94020BB6
:103A80001091FE018091DC019091DD019D838C837A
:103A9000817099270E94AC0B98E0199F9001112426
:103AA000295F3F4FEC81FD8102C0F595E7952A958E
:103AB000E2F7E170FF27082E000C990B8E279F2755
:103AC0000C945E15682F70E07093E1016093E00143
:103AD0002091EF0130E068E070E0641B750B02C0DC
:103AE000359527956A95E2F73093DF012093DE0143
:103AF000280F2093E20130E0B7CF81E090E0009002
:103B0000E60102C0880F991F0A94E2F701972091FD
:103B1000EF013091F001822393239093F001809381
:103B2000EF018091EC019091ED010E94EB088093F0
:103B3000E2019091FE014091E6015091E701992345
:103B400009F45BC02091E2013091E3013093E1017F
:103B50002093E001892F90E0019663E0880F991F80
:103B60006A95E1F7BC01641B750B8091EF019091A0
:103B7000F00102C0880F991F6A95E2F79093DF0168
:103B80008093DE01280F391F3093E3012093E20177
:103B90003093DD012093DC016091E2018091EC0122
:103BA0009091ED010E94020B7091FE018091DC0169
:103BB0009091DD018C01000F111F28E0729FF00130
:103BC00011243796FD83EC830C8002C09595879570
:103BD0000A94E2F7817099270E94AC0B0C8002C016
:103BE000159507950A94E2F701701127082E000C2D
:103BF000990B802791270C945E15682F70E07093C5
:103C0000E1016093E0012091EF0130E068E070E0B5
:103C1000641B750B02C0220F331F6A95E2F73093C5
:103C2000DF012093DE01280F2093E20130E0B0CFC6
:103C30008091EC019091ED010E94EB088093E201EC
:103C40009091FE01992309F478C08091E20190914E
:103C5000E3019093E1018093E00188E290E00E940B
:103C6000EB084091E6015091E7016091FE0170E0A0
:103C70006F5F7F4F03E0660F771F0A95E1F7641BC4
:103C8000750B6F5F7F4F2091EF013091F00102C003
:103C9000369527956A95E2F73093DF012093DE0190
:103CA00090E04150510902C0880F991F4A95E2F7F0
:103CB0004091E2015091E301240F351F280F391F75
:103CC0003093E3012093E2013093DD012093DC0186
:103CD0006091E2018091EC019091ED010E94020B54
:103CE000F091FE010091DC011091DD012F2F30E0F9
:103CF0002F5F3F4FB3E0220F331FBA95E1F73D83AB
:103D00002C838091E6019091E701281B390B81E01B
:103D100090E002C0880F991F2A95E2F72091EF01E9
:103D20003091F001822393230E94AC0B4C815D8182
:103D3000415051095D834C8351CF90E09093E10154
:103D40008093E00188E290E00E94EB086091E60138
:103D50007091E7014091EF0150E02091FE0130E0C9
:103D60002F5F3F4F13E0220F331F1A95E1F7261BF9
:103D7000370B2F5F3F4F02C0559547952A95E2F7C5
:103D80005093DF014093DE0190E06150710902C061
:103D9000880F991F6A95E2F7480F591F8091E20139
:103DA000480F4093E20150E05093DD014093DC0165
:103DB0008FCF8091EC019091ED010E94EB088093F0
:103DC000E2019091FE01992309F479C08091E2010A
:103DD0009091E3019093E1018093E00188E290E00B
:103DE0000E94EB082091FE0130E02F5F3F4FA3E0DF
:103DF000220F331FAA95E1F74091E6015091E701A8
:103E0000241B350BB9016F5F7F4F4091EF0150913B
:103E1000F00102C0440F551F6A95E2F75093DF018D
:103E20004093DE016091E2017091E301460F571F5C
:103E300090E002C0880F991F2A95E2F7480F591F9A
:103E40005093E3014093E2015093DD014093DC0184
:103E50006091E2018091EC019091ED010E94020BD2
:103E60002091E6013091E7012150310981E090E095
:103E700002C0880F991F2A95E2F72091EF01309137
:103E8000F001822393230E94AC0B2091FE018091CC
:103E9000DC019091DD0158E0259F90011124295FFC
:103EA0003F4FAC01440F551F8427952702C09595BD
:103EB00087952A95E2F7817099270C945E1590E01A
:103EC0009093E1018093E00188E290E00E94EB088A
:103ED0002091FE0130E02F5F3F4FF3E0220F331FB0
:103EE000FA95E1F74091E6015091E701241B350B6B
:103EF0004091EF0150E0B9016F5F7F4F02C0440F66
:103F0000551F6A95E2F75093DF014093DE0190E080
:103F100002C0880F991F2A95E2F7840F951F4091E0
:103F2000E201840F8093E20190E09093DD018093A1
:103F3000DC018ECF2091FE0168E0269F90011124C4
:103F4000295F3F4F8091DC019091DD01022E02C07C
:103F5000959587950A94E2F7817099279D838C83C4
:103F60004091E6015091E701415051098091E001F3
:103F70009091E10102C0880F991F4A95E2F702C0B3
:103F8000969587952A95E2F7817099270E94AC0B48
:103F9000082E000C990BEC81FD8190CD2091FE0143
:103FA000F8E02F9F90011124295F3F4F8091E0019D
:103FB0009091E10102C0969587952A95E2F77BCF13
:103FC0008091FE0190E0019673E0880F991F7A9529
:103FD000E1F72091E6013091E7012817390730F029
:103FE0008091EF019091F0010E94AC0B90E080E095
:103FF0000E94580B8091EC019091ED010E94EB081A
:104000008093E2014091FE01442309F446C02091CF
:10401000E2013091E3013093E1012093E00150E0AF
:104020004F5F5F4F63E0440F551F6A95E1F781E0F2
:1040300090E002C0880F991F4A95E2F7019700901F
:10404000E60102C0959587950A94E2F780959095D0
:104050006091EF017091F001869FA001879F500D44
:10406000969F500D11245093F0014093EF0150930F
:10407000DF014093DE01240F351F3093E3012093CD
:10408000E2013093DD012093DC016091E201809137
:10409000EC019091ED010C947E11482F50E050936B
:1040A000E1014093E0012FEF30E00090E60102C013
:1040B000359527950A94E2F7209530959091EF0178
:1040C000929F202D11242093EF01422F50E0509316
:1040D000DF014093DE01820F8093E20190E0909334
:1040E000DD018093DC01D1CF81E090E00E941309D3
:1040F0008093E201282F2150330BB90181E090E039
:104100000E94240B8091E2018150990B9093E7016A
:104110008093E6018091FF01813049F198F083306E
:1041200081F16091FB014091E6015091E701640348
:104130009001659F300D112480910302909104023B
:104140000C9408118BE290E00E94EB0821E030E033
:10415000882311F030E020E08091E6019091E701A2
:10416000822393239093E7018093E601DACF8BE2D9
:1041700090E00E94EB0890E02091E6013091E70189
:10418000EFCF81E090E00E9413098093E20199272C
:10419000BC016F5F7F4F81E090E00E94240B809113
:1041A000E201811103C082E090E0DCCF81E090E089
:1041B000D9CF2091FD0180910302909104020396D2
:1041C000821B910990930402809303023091FE01B7
:1041D00031110EC02223F1F010920402109203025A
:1041E0006091F7017091F80189E090E00E94240B42
:1041F0002091FB013091FC018091FD01882309F49D
:104200009BCF8091FE01882309F496CF022E000CEB
:10421000330B92CF0E94F00BEBCF8091EA0190918B
:10422000EB010E94EB088093E3019091FE0199233A
:10423000B9F08091E2019091E3019093E1018093C4
:10424000E0012091E3013091E4013093DF012093FC
:10425000DE01822393239093DD018093DC0168CA01
:104260009091E201292F30E03093E1012093E001A9
:10427000282F30E03093DF012093DE01892390E086
:10428000EACF81E08093FE011092EB011092EA01E7
:104290008091FF0190E0880F991F9093E90180932E
:1042A000E8018091E8019091E9012091EA013091C3
:1042B000EB012817390711F40C94B9120E94EB088E
:1042C0008093E3019091FE01992309F471C08091DC
:1042D000E2019091E3019093E1018093E00120914C
:1042E000E3013091E4013093DF012093DE01822766
:1042F00093279093E3018093E2019093DD018093F3
:10430000DC016091E2018091EA019091EB010E9451
:10431000020B8091EA019091EB010E94EB088093DF
:10432000E3019091FE01992309F455C08091E201C7
:104330009091E3019093E1018093E0012091E301EA
:104340003091E4013093DF012093DE01822793272F
:104350009093E3018093E2019093DD018093DC016F
:104360006091E2018091E8019091E9010E94020BC5
:104370008091E8019091E9010E94EB088093E301AC
:104380009091FE019923D1F18091E2019091E30196
:104390009093E1018093E0012091E3013091E401E9
:1043A0003093DF012093DE01822793270C94B7140A
:1043B0009091E201292F30E03093E1012093E00158
:1043C000282F30E03093DF012093DE01892780938E
:1043D000E20190E092CF9091E201292F30E03093FA
:1043E000E1012093E001282F30E03093DF0120939A
:1043F000DE0189278093E20190E0AECF9091E20147
:10440000292F30E03093E1012093E001282F30E0A4
:104410003093DF012093DE0189270C94CE14809124
:10442000F601882309F4AFC08091EE0190E09093EB
:10443000F0018093EF018091F501882309F4A6C073
:1044400081E090E00E9413099093E7018093E601D8
:104450008091E6019091E701892B09F4B4C0809125
:10446000DB0180FD96C050E040E066E070E08091A6
:10447000EF019091F0010E9423090E94EB088093C4
:10448000E3019091FE01992309F486C08091E20135
:104490009091E3019093E1018093E0018091E30129
:1044A0009091E4019093DF018093DE019093E3010A
:1044B0008093E2019093DD018093DC013091E20171
:1044C0003C838091DB01823008F07AC050E040E00C
:1044D00067E070E088E090E00E9423096C810E9410
:1044E000020B8091DB0180FD22C086E090E00E94FB
:1044F00013099D838C838FE290E00E94EB0890E08B
:10450000880F991F01972091FE0130E02F5F3F4FE8
:10451000829FA001839F500D929F500D11246C81AA
:104520007D81641B750B86E090E00E94240B8091D6
:10453000DB0181FD22C087E090E00E9413099D838A
:104540008C838FE290E00E94EB0890E0880F991F27
:1045500001972091FE0130E02F5F3F4F829FA00125
:10456000839F500D929F500D11246C817D81641B9F
:10457000750B87E090E00E94240B8091E6019091FA
:10458000E701019761CF8BE090E051CF81E090E0AF
:104590005BCF90E080E071CF2091E20130E030937A
:1045A000E1012093E001282F30E03093DF012093D8
:1045B000DE018093E2013093DD012093DC017ECFA8
:1045C00090E080E08BCF8091F501882311F40C946A
:1045D000B91270E060E081E090E00C9446168091A2
:1045E000F601882391F08091EE0190E09093F00124
:1045F0008093EF018091F50181110AC081E090E084
:104600009093E7018093E6010FC08BE090E0EECF3E
:1046100081E090E00E9413099093E7018093E60106
:10462000892B11F40C94B9128091E6019091E70165
:10463000892B09F4C5C050E040E067E070E088E0F5
:1046400090E00E9423090E94EB088093E30190917F
:10465000FE014091E2014C83992309F49BC08091B3
:10466000E2019091E3019093E1018093E0012091B8
:10467000E3013091E4013093DF012093DE01821BDE
:10468000930B9093DD018093DC018091DB0181111C
:1046900094C050E040E066E070E08091EF019091BE
:1046A000F0010E9423096C810E94020B8091DB01C2
:1046B000811122C086E090E00E9413099D838C83C3
:1046C0008FE290E00E94EB0890E0880F991F01971D
:1046D0002091FE0130E02F5F3F4F829FA001839F1A
:1046E000500D929F500D11246C817D81641B750BC0
:1046F00086E090E00E94240B81E090E00E94130984
:104700008093E201E82FE150FF0BBF0181E090E0D0
:104710000E94240B87E090E00E9413099D838C8304
:104720008FE290E00E94EB0890E0880F991F0197BC
:104730002091FE0130E02F5F3F4F829FA001839FB9
:10474000500D929F500D11246C817D81641B750B5F
:1047500087E090E00E94240B8091F501882309F402
:10476000BFC68091E201813081F081E090E020912C
:10477000DC013091DD01232B11F090E080E02091ED
:10478000D8012817190609F44FCF1092E7011092AB
:10479000E6014ACF5C81252F30E03093E101209380
:1047A000E00190E09093DF018093DE01281B390B3C
:1047B0003093DD012093DC0168CF90E080E073CF7F
:1047C00083E090E09093D7018093D6010C94041578
:1047D0008091FE018093FD0180910302909104027B
:1047E0000E94B40B8091DB01882331F089E090E0D6
:1047F0000E9413090E94B40B8091DB0181FF0BC062
:104800008091E6019091E7010E94B40B90E00E9434
:10481000390B0C94B9128091FD0181110C94B912DD
:1048200084E090E00E9413096091FB017091FC010B
:10483000680F791F84E090E00C9446168091E8019F
:104840009091E9010E94EB088093E2019091FE01B2
:10485000992371F08091E2019091E3019093E1013D
:104860008093E0018091F7019091F8010C94B51AC2
:1048700090E09093E1018093E0012091F7010C9486
:10488000CC1A1092F6018091160281508093160284
:10489000809318028091B00599E089278093B00534
:1048A0008091DB018823D9F182E090E00E94130916
:1048B0009093E7018093E60180369105B1F510925F
:1048C0003A0290E080E00E94EB088093E201909130
:1048D000FE012091E6013091E701992309F470C0AF
:1048E0008091E2019091E3019093E1018093E001D6
:1048F0002A523E4FF901808191819093DF0180938C
:10490000DE019093E3018093E2019093DD018093B7
:10491000DC016091E20190E080E00C9480168091CF
:10492000FB019091FC019927C3CF853D934049F647
:104930008091AA0590E095958795079711F68EE9E5
:1049400094E00E94EB088C838DE994E00E94EB08D0
:1049500090E09C015C8140E5549F200D311D1124A5
:104960003D832C838DEA94E00E94EB086C817D816D
:10497000680F711DCB012091AA05322F317020FFE5
:104980001AC0EFEFF0E0FD83EC836C817D8168233A
:1049900079237D836C8380E0311101C088E0EC8154
:1049A000FD8102C0F695E7958A95E2F7FD83EC83D9
:1049B000E093AB0586CF40E05FEF5D834C83E5CFAE
:1049C00090E09093E1018093E0012A523E4FF9017B
:1049D0002081822F90E09093DF018093DE0120936D
:1049E000E20193CF8091DB01882309F405C182E0C5
:1049F00090E00E9413099093E7018093E60190E014
:104A000080E00E94EB088093E2019091FE012091EA
:104A1000E6013091E701F901EA52FE4F992309F4CA
:104A2000F1C0808191819093E1018093E0018091B8
:104A3000E2019091E3019093DF018093DE01918385
:104A400080839093DD018093DC012136310569F488
:104A50001092D50190E080E00E94EB08982F9370AF
:104A60008091D401892B8093D4018091E6019091AB
:104A7000E7018D7F80349105D9F480911902867009
:104A8000B9F090E080E00E94EB082091E6013091BF
:104A9000E7019091D50141E094279093D5012759E2
:104AA0003B4F682FA901491B5109CA010E94020B03
:104AB0008091E6019091E701853D9340A1F48091BA
:104AC000AA0590E095958795069769F490E080E0B7
:104AD0000E94EB08682F8091AA0580FDA5C08EEA90
:104AE00094E00E94020B8091E6019091E701853DE0
:104AF000934009F05DC08091AA0590E09595879557
:104B0000079709F055C08EE994E00E94EB088C836A
:104B10008DE994E00E94EB08082F10E08C8170E58D
:104B2000879F000D111D11248DEA94E00E94EB086F
:104B3000080F111D8091AA0580FF79C080E09FEFCA
:104B40000823192390E080E00E94EB08E82FF0E0B2
:104B5000FD83EC838091AA05F12C80FD02C078E0F2
:104B6000F72E8DEA94E00E94EB082C813D8102C073
:104B7000220F331FFA94E2F7281B3109C901800F75
:104B8000911F9093F0018093EF01B5010E94762A66
:104B9000682F8DE994E00E94020B8091EF019091C3
:104BA000F001B5010E94762A8EE994E00E94020B82
:104BB0008091E6019091E701853B934041F480911B
:104BC0008A05813021F490E080E00E94EB0880911A
:104BD000E6019091E701853B934011F00C94B912E6
:104BE00080918A05863011F00C94B91290E080E033
:104BF0000E94EB080C94B9128091FB019091FC018A
:104C00009927F9CE408150E05093E1014093E001B3
:104C1000482F50E05093DF014093DE018083509392
:104C2000DD014093DC0111CF8DEA94E05ACF8FEF84
:104C300090E086CF82E08093F5018091FE01809321
:104C4000D8018091F601882311F40C94B9128F5F7A
:104C50008093F6010C94B9128091DB010C949311AE
:104C60008091DB010C94991182E08093F601809190
:104C7000DB018093EE018091F501882311F40C94FF
:104C8000B9128F5F8093F5010C94B9121092FE0156
:104C90008091DB0190E0882309F492C080E00E94BB
:104CA000EB088093E20190E080E00E94EB08282F5F
:104CB00030E03093F0012093EF018F7061E08A3093
:104CC00040F48AE290E00E94EB0861E0811101C0AB
:104CD00060E08AE290E00E94220B6091E20190E0A5
:104CE00080E00E94220B90E080E00E94EB0880931D
:104CF000E2018091EF0191E08A3940F488E290E08E
:104D00000E94EB0891E0811101C090E0892F90E0B2
:104D10000E94AC0B882351F08091E2018056809371
:104D2000E20190E09093DD018093DC016091E2016B
:104D300090E080E00E94220B90E080E00E94EB086F
:104D4000282F30E03093F0012093EF018F7061E065
:104D50008A3040F48AE290E00E94EB0861E0811121
:104D600001C060E08AE290E00E94220B6091E201C3
:104D700090E080E00E94220B90E080E00E94EB082F
:104D80008093E20190E080E00E94EB08807F91E058
:104D9000813940F488E290E00E94EB0891E08111B3
:104DA00001C090E0892F90E00E94AC0B882309F4A9
:104DB000B0CD8091E201805A8093E20190E0A5CDD0
:104DC00080E00E94EB088093E201B6CF90E080E0A3
:104DD0000E9413098093E20190E080E00E94EB08BA
:104DE0008F7091E08A3040F48AE290E00E94EB08F4
:104DF00091E0811101C090E0892F90E00E94AC0BFE
:104E000061E0811101C060E08AE290E00E94220B23
:104E10006091E20170E090E080E00E94240B90E05D
:104E200080E00E94EB08682F6F706093E30190E0D0
:104E300080E00E94220B8091E20190E09093DD01DE
:104E40008093DC010C94B91290E080E00E94EB08A2
:104E50008093E2012091FE0190E0222321F08091D5
:104E6000E2019091E30158E0259F90011124295F10
:104E70003F4F02C0959587952A95E2F78170682F7C
:104E8000619581E090E00C94801690E080E00E94B3
:104E900013098093E2012091FE019927222321F03A
:104EA0008091E2019091E30168E0269F9001112436
:104EB000295F3F4F02C0959587952A95E2F781704B
:104EC000992766277727681B790B82E090E00C947E
:104ED000461689E090E00E9413090E94F00B809131
:104EE00003029091040205960E94F00B6091F70175
:104EF0007091F80189E090E00E94240B8091FB0101
:104F00009091FC010C940A110E9476098091E601AF
:104F10009091E7010C94B7120E9476098091E60106
:104F20009091E70188279D838C8381E090E00E9427
:104F3000EB08EC81FD81E80FF11DCF0168CC0E94E8
:104F400076096091E6019DCF81E08093FD01809319
:104F5000FE012091F30184E090E0222311F090E023
:104F600080E09093F0018093EF016091F20170E096
:104F7000233008F0C8C001960E94410990E00E94C9
:104F800013099D838C836091F20170E08091EF01A1
:104F90009091F00102960E9441092091F90130910F
:104FA000FA01829F8001839F100D11242C813D8185
:104FB000020F131F6091F20170E08091EF01909158
:104FC000F0010E944109482F50E05D834C8380919D
:104FD000F601811195C06091F20170E08091EF01BE
:104FE0009091F00103960E944109A8016C817D8196
:104FF00090E00E9423099093ED018093EC0190933F
:10500000EB018093EA014091F101242F30E0220F5F
:10501000331F5091FE01511106C046954695240F4D
:10502000311D277033273093E9012093E801409127
:10503000FD01442361F03093E7012093E601909352
:10504000E9018093E8013093EB012093EA0180911C
:10505000E8019091E9010E94EB088093E3019091AF
:10506000FE01992309F453C08091E2019091E3017C
:105070009093E1018093E0018091E3019091E4013C
:105080009093DF018093DE019093E3018093E2012E
:105090009093DD018093DC016091E2018091EA014F
:1050A0009091EB010E94020B8091EC019091ED0137
:1050B00002960E94EB088093E3019091FE019923F0
:1050C000D1F18091E2019091E3019093E10180930D
:1050D000E0018091E3019091E4019093DF018093DE
:1050E000DE019093E3018093E2019093DD018093D0
:1050F000DC018091DB016091E20190E00C947E1173
:105100008091EE0172CFCB01880F991F74CF20914F
:10511000E20130E03093E1012093E001282F30E0FC
:105120003093DF012093DE018093E2013093DD01B3
:105130002093DC01B1CF2091E20130E03093E10116
:105140002093E001282F30E03093DF012093DE012F
:105150008093E2013093DD012093DC01CACF80917E
:10516000030290910402019690930402809303023B
:1051700083E00C94ED168091030290910402029654
:1051800090930402809303028091FB010C94ED162E
:1051900080910302909104020196909304028093FF
:1051A000030280E390E00E94EB08882311F40C9442
:1051B000B91284E00C94ED168091FB019091FC01F2
:1051C00099279093FC018093FB01892B11F40C9497
:1051D000EC1690E080E00E94EB0890E06091FB010B
:1051E0007091FC010E94762A81E090E00E94220BDF
:1051F00090E080E00E94EB0890E06091FB017091EC
:10520000FC010E94762A8093E2018093DC01909356
:10521000DD01682F80CB1092FE0190E080E00E94BB
:10522000EB088C8381E090E00E94EB089091FB01F9
:105230005C81899F500D1124652F70E07093DD0112
:105240006093DC0190E080E00C94461688E290E0E8
:105250000E94EB08682F61955ECB90E080E00E9491
:10526000EB08482F50E08091F601882351F080919F
:10527000EE0190E063E070E00E9423090E94EB08D9
:10528000C8CF8BE090E0F6CF88E290E00E94EB0878
:1052900061E068276093E20188E290E00C94801658
:1052A0008091DB01682F6170869590E00C948016E8
:1052B00090E080E00E94EB088093E2019091FE0173
:1052C0009923B9F02091E2013091E3013093E1019B
:1052D0002093E0014091FB015091FC015093DF01CC
:1052E0004093DE01242335233093DD012093DC013C
:1052F00090CF282F30E03093E1012093E0012091FE
:10530000FB01422F50E05093DF014093DE01282340
:1053100030E0EACF8091FB01882309F483C087FF46
:1053200002C00C94B9128250823010F00C94B91261
:1053300085E090E00E9413098C8384E090E00E9455
:10534000EB0861E088E391E00E9474075C80550CF3
:10535000412CA20170E060E08DEB94E00E94D80542
:105360008C830E94BF066C81662309F4B7C090E06D
:1053700080E00E9413097C0150E040E063E070E0AF
:1053800088E090E00E9423096C0184E090E00E9494
:10539000EB088091FB011D821C82833009F054C010
:1053A00061E082E291E00E9474074C815D814C0DC6
:1053B0005D1D70E060E08DEB94E00E94D80560E830
:1053C00070E080E591E00E9414088C010E94BF0605
:1053D00062E088E391E00E94740785E090E00E941B
:1053E0001309382E330C212C4C815D81420D531D45
:1053F00070E060E08DEB94E00E94D805A80160E5C4
:1054000071E08DEB94E00E94A4090E94BF068C819C
:105410009D81800F911F9D838C83003811056CF452
:105420006C8179CA90E080E00E94EB08682F80E2EE
:1054300094E00E949C010C94B912EC81FD81EE165F
:10544000FF0608F0ADCFECCF61E088E391E00E9469
:10545000740785E090E00E941309880F8A831982FF
:1054600049815A812C813D81420F531F70E060E0D9
:105470008DEB94E00E94D80560E870E080E591E053
:105480000E9414088C010E94BF0662E082E291E053
:105490000E9474074C815D814C0D5D1D70E060E0E1
:1054A0008DEB94E00E94D805A80160E571E08DEBDA
:1054B00094E00E94A4090E94BF064C815D81400FC8
:1054C000511F5D834C83003811050CF4A9CF6C810A
:1054D0007D81E616F70608F0B7CFA2CF60E01BCAC1
:1054E0008091E6019091E70101978AC8AA1BBB1B36
:1054F00051E107C0AA1FBB1FA617B70710F0A61BD4
:10550000B70B881F991F5A95A9F780959095BC01F4
:10551000CD01089597FB072E16F4009407D077FD70
:1055200009D00E94762A07FC05D03EF4909581951B
:105530009F4F0895709561957F4F0895A1E21A2EAF
:10554000AA1BBB1BFD010DC0AA1FBB1FEE1FFF1F27
:10555000A217B307E407F50720F0A21BB30BE40B77
:10556000F50B661F771F881F991F1A9469F76095BE
:105570007095809590959B01AC01BD01CF01089578
:10558000EE0FFF1F0590F491E02D0994A29FB0014A
:10559000B39FC001A39F700D811D1124911DB29F67
:1055A000700D811D1124911D0895FB01DC0104C0C3
:1055B0008D910190801921F441505040C8F7881B0B
:1055C000990B0895FB01DC0102C001900D9241503E
:0A55D0005040D8F70895F894FFCF7B
:1055DA00FFFFFFFF000000009C01FC0029010802F8
:1055EA005A0138014C0100000000EA0AFC002407B5
:1055FA00230772616D2E62696E000D0A002E006229
:10560A00696F732E62696E006469736B2E696D67C8
:02561A0000008E
:00000001FF
