:020000040000FA
:100000000C94BD000C94E5000C94E5000C94E50004
:100010000C94E5000C94E5000C94E5000C94E500CC
:100020000C94E5000C94E5000C94E5000C94E500BC
:100030000C94E5000C94E5000C94E5000C94E500AC
:100040000C94450D0C94E5000C94130D0C94ED0CE0
:100050000C94E5000C94E5000C94E5000C94E5008C
:100060000C94E5000C94E50000000000240027003B
:100070002A0000000000250028002B0004040404CE
:100080000404040402020202020203030303030342
:10009000010204081020408001020408102001021F
:1000A00004081020000000080002010000030407FB
:1000B00000000000000000002E20446F6E6521004B
:1000C0002E20446F6E652120496E69742066696C2C
:1000D0006573797374656D00496E697420534420AB
:1000E00063617264004D616368696E652068616C6C
:1000F00074656421005374617274696E6720763888
:10010000362E2E2E00436F7079726967687420282E
:100110004329203230323120407261737069647536
:10012000696E6F2C20756E6465722047504C2D7679
:1001300033006176722D763836202D20496E746535
:100140006C203830383620656D756C61746F7220A4
:1001500072756E6E696E67206F6E2041726475698C
:100160006E6F20554E4F007C3C3E5E2B3D3F2F5B1B
:100170005D3B2C2A225C00008F0D11241FBECFEFA7
:10018000D8E0DEBFCDBF11E0A0E0B1E0E8EEF3E4DF
:1001900002C005900D92A234B107D9F725E0A2E480
:1001A000B1E001C01D92A934B207E1F710E0CDEB38
:1001B000D0E004C02197FE010E94C721CC3BD107AB
:1001C000C9F70E94C50D0C94F2210C940000AF9267
:1001D000BF92CF92DF92EF92FF920F931F93CF9334
:1001E000DF936C017B018B01040F151FEB015E0196
:1001F000AE18BF08C017D10759F06991D601ED912B
:10020000FC910190F081E02DC6010995892B79F7C9
:10021000C501DF91CF911F910F91FF90EF90DF907B
:10022000CF90BF90AF900895FC01538D448D252F42
:1002300030E0842F90E0821B930B541710F0CF9680
:10024000089501970895FC01918D828D981761F0B2
:10025000A28DAE0FBF2FB11D5D968C91928D9F5FC9
:100260009F73928F90E008958FEF9FEF0895FC01A8
:10027000918D828D981731F0828DE80FF11D858D5B
:1002800090E008958FEF9FEF0895FC01918D228DEE
:10029000892F90E0805C9F4F821B91098F73992773
:1002A000089588E994E00E94450121E0892B09F432
:1002B00020E0822F089580E090E0892B29F00E94B1
:1002C000510181110C9400000895FC01A48DA80F28
:1002D000B92FB11DA35ABF4F2C91848D90E0019688
:1002E0008F739927848FA689B7892C93A089B189A8
:1002F0008C91837080648C93938D848D981306C049
:100300000288F389E02D80818F7D80830895EF92AC
:10031000FF920F931F93CF93DF93EC0181E0888FBF
:100320009B8D8C8D98131AC0E889F989808185FF8F
:1003300015C09FB7F894EE89FF896083E889F98931
:1003400080818370806480839FBF81E090E0DF9133
:10035000CF911F910F91FF90EF900895F62E0B8D86
:1003600010E00F5F1F4F0F731127E02E8C8D8E1141
:100370000CC00FB607FCFACFE889F989808185FFA8
:10038000F5CFCE010E946501F1CFEB8DEC0FFD2F73
:10039000F11DE35AFF4FF0829FB7F8940B8FEA8963
:1003A000FB8980818062CFCFEF92FF920F931F93E2
:1003B000CF93DF938C017B01D0E0C0E0F701EC0F1D
:1003C000FD1F6491662339F0C8010E948701892BC3
:1003D00011F02196F3CFCE01DF91CF911F910F91B4
:1003E000FF90EF900895CF93DF93EC01888D8823E1
:1003F000B9F0AA89BB89E889F9898C9185FD03C088
:10040000808186FD0DC00FB607FCF7CF8C9185FF6C
:10041000F2CF808185FFEDCFCE010E946501E9CF4B
:10042000DF91CF91089590E0FC01EC55FF4F2491AE
:10043000FC01E057FF4F3491FC01E458FF4FE49179
:10044000EE23C9F0222339F0233001F1A8F4213042
:1004500019F1223029F1F0E0EE0FFF1FEE58FF4FA7
:10046000A591B4918FB7F894EC91611126C03095A5
:100470003E233C938FBF08952730A9F02830C9F060
:10048000243049F7809180008F7D03C080918000E7
:100490008F7780938000DFCF84B58F7784BDDBCFEB
:1004A00084B58F7DFBCF8091B0008F778093B000B3
:1004B000D2CF8091B0008F7DF9CF3E2BDACFCF9392
:1004C000DF9390E0FC01E057FF4F249184589F4F49
:1004D000FC0184918823D1F090E0880F991FFC01E2
:1004E000E859FF4FA591B491FC01EE58FF4FC5911B
:1004F000D49161110EC09FB7F8948C91E22FE095D2
:100500008E238C932881E223E8839FBFDF91CF91D4
:1005100008958FB7F894EC91E22BEC938FBFF6CF50
:100520002FB7F89460914C0170914D0180914E016C
:1005300090914F012FBF08958EBD0DB407FEFDCFE2
:10054000089561E0FC0182810E9413028FEF0C94F8
:100550009C028FEF8EBD0DB407FEFDCF8EB50895C2
:10056000FF920F931F93CF93DF93F82E8B010E947E
:100570009002EB010E94A9028F1571F00E94900277
:100580006C1B7D0B06171707A8F780E0DF91CF9152
:100590001F910F91FF90089581E0F8CFCF92DF92E5
:1005A000EF92FF921F93CF93DF93FC01162F690107
:1005B0007A01838122E090E0281728F4963019F020
:1005C000220F9F5FF9CF292F206A26952CBD90FD21
:1005D00003C021E0963009F420E02DBD60E0828167
:1005E0000E94130268E572E08FEF0E94B002812F33
:1005F00080640E949C02C8E1D0E0D701C6010C2EA5
:1006000004C0B695A795979587950A94D2F70E944E
:100610009C022897C83F8FEFD80779F78FEF111109
:1006200001C085E90E949C02C0E00E94A90287FFE8
:1006300004C0CF3F11F0CF5FF8CFDF91CF911F9172
:10064000FF90EF90DF90CF900895CF93DF93EC0170
:100650009A01AB0189E0220F331F441F551F8A9571
:10066000D1F768E1CE010E94CE02882349F083E0F1
:100670008883CE010E94A10280E0DF91CF9108958E
:100680008EEF8EBDE8E9F2E00DB407FEFDCF81915B
:100690008EBD84E0E839F807B9F70DB407FEFDCF49
:1006A0008FEF0E949C028FEF0E949C020E94A90281
:1006B000982F9F71953019F0898386E0D9CF68E52E
:1006C00072E08FEF0E94B002811105C087E088833D
:1006D000CE010E94A102CE010E94A10281E0CDCFF5
:1006E0000F931F93CF9380914601C1E0882399F027
:1006F00000918E0210918F024091000150910101F2
:100700006091020170910301C8010E942503C82F66
:10071000811106C0C0E08C2FCF911F910F910895D9
:100720004091420150914301609144017091450113
:10073000411551056105710569F0C8010E94250345
:10074000882341F310924201109243011092440118
:100750001092450110924601DECFCF92DF92EF92C8
:10076000FF921F93CF93DF936B017C01142F809135
:10077000000190910101A0910201B09103018C153B
:100780009D05AE05BF0509F44FC00E947003882384
:10079000C9F0C0918E02D0918F02A701960189E025
:1007A000220F331F441F551F8A95D1F761E1CE01F7
:1007B0000E94CE02882371F084E08883CE010E94DB
:1007C000A10280E0DF91CF911F91FF90EF90DF9029
:1007D000CF9008956CE271E08EEF0E94B00281111B
:1007E00005C085E08883CE010E94A1028FEF8EBDF7
:1007F000E8E9F2E00DB407FEFDCF9EB591938EBD02
:1008000094E0E839F907B1F70DB407FEFDCF0E9477
:10081000A902CE010E94A102C0920001D092010162
:10082000E0920201F092030181E0112359F28093DA
:100830004601C8CF4F925F926F927F929F92AF9284
:10084000BF92CF92DF92EF92FF920F931F93CF93BD
:10085000DF932DE732E030938F0220938E028823BE
:1008600009F4DEC040E060E070E0CB010E94AD031F
:10087000811112C0D0E08D2FDF91CF911F910F9188
:10088000FF90EF90DF90CF90BF90AF909F907F90C0
:100890006F905F904F900895C0905E04D0905F0479
:1008A000E0906004F090610440E0C701B6010E944E
:1008B000AD03D82F8823F1F2809196048535D1F6C7
:1008C000809197048A3AB1F69090A80290928D0296
:1008D000C091A502C09394020091AE021091AF02A4
:1008E00010938C0200938B022091A9023091AA02EE
:1008F0003093960220939502A090A602B090A70292
:10090000D701C6018A0D9B1DA11DB11D80938702D1
:1009100090938802A0938902B0938A02909EA001CE
:10092000919E500D1124840F951FA11DB11D809320
:10093000830290938402A0938502B093860245E0DF
:10094000220F331F4A95E1F721503E4F232F3327C3
:100950002695820F931FA11DB11D80939002909345
:100960009102A0939202B09393024090AB025090F8
:10097000AC02712C612C4114510441F44090B80236
:100980005090B9026090BA027090BB02C81AD90A9E
:10099000EA0AFB0AC701B601640D751D861D971D85
:1009A0002C2F30E050E040E00E94A52130938202DD
:1009B000209381026091A3027091A402611572409C
:1009C00009F058CF0115110509F454CF253F6FE008
:1009D000360708F44FCF81E04816510480E86806D6
:1009E000710408F047CFAB2809F444CF992009F4EB
:1009F00041CFC32EDD240C151D0508F43BCFCC23BD
:100A000009F438CF8C2F90E09C01215031098223CA
:100A10009323892B09F02ECF81E0809397022BCF6F
:100A2000C12CD12C760140CFCF92DF92EF92FF9272
:100A30000F931F93CF93DF938230910550F480E0A2
:100A4000DF91CF911F910F91FF90EF90DF90CF90AA
:100A5000089520918102309182022F5F3F4F281725
:100A6000390768F3EB018C01212F3327C0908702EF
:100A7000D0908802E0908902F0908A02C20ED31EC4
:100A8000E11CF11C8091000190910101A0910201F3
:100A9000B0910301C816D906EA06FB0689F4F801ED
:100AA000FF27EE0FFF1FE856FD4FD183C08381E083
:100AB0008093460180918D02823050F481E0C0CF56
:100AC00040E0C701B6010E94AD038111E8CFB7CF66
:100AD00080918B0290918C02C80ED91EE11CF11CF2
:100AE000C0924201D0924301E0924401F09245014C
:100AF000E5CFCF92DF92EF92FF920F931F93CF93A8
:100B0000DF9320918102309182022F5F3F4F28179F
:100B1000390750F480E0DF91CF911F910F91FF9042
:100B2000EF90DF90CF9008958B01EC012D2F3327AC
:100B300060918702709188028091890290918A0267
:100B4000620F731F811D911DC0900001D0900101A3
:100B5000E0900201F09003016C157D058E059F0564
:100B600061F4DD27CC0FDD1FC856DD4F88819981E8
:100B7000F8019183808381E0CECF40E00E94AD03F5
:100B80008111EFCFC7CF4F925F926F927F928F927A
:100B90009F92AF92BF92CF92DF92EF92FF920F930C
:100BA0001F93CF93DF93EC016A017B018D818370EA
:100BB00091F480E0DF91CF911F910F91FF90EF9022
:100BC000DF90CF90BF90AF909F908F907F906F906D
:100BD0005F904F9008958A859B85AC85BD858C1567
:100BE0009D05AE05BF0528F3C114D104E104F1044D
:100BF00041F41F861E86188A198A1A8A1B8A81E088
:100C0000D9CF80909402912CB12CA12CCB01BA01A8
:100C1000615071098109910939E096958795779519
:100C200067953A95D1F7A50194010E94A521890104
:100C300088899989AA89BB89C816D906EA06FB065C
:100C400020F00097A105B105A9F4888599859F87B3
:100C50008E875E018EE0A80EB11C01151105F1F022
:100C6000B5018E859F850E9479050150110981117A
:100C7000F4CF9FCFBC01CD01615071098109910969
:100C800029E096958795779567952A95D1F7A501DF
:100C900094010E94A521021B130BDBCFC88AD98ABD
:100CA000EA8AFB8AACCFCF93DF93209195023091F3
:100CB00096028217930728F090E080E0DF91CF91B1
:100CC0000895462FEC019C0154E0369527955A95DE
:100CD000E1F7609183027091840280918502909186
:100CE0008602620F731F811D911D0E94AD03882330
:100CF00019F3CE018F70992725E0880F991F2A9547
:100D0000E1F788569D4FDACFCF93DF93FC01258121
:100D100027FF18C0EC0161E0868197810E9453068D
:100D20000097A1F04A855B856C857D85FC01448F29
:100D3000558F668F778F28853985338F228F8D81E8
:100D40008F778D83DF91CF910C94700380E0DF91DA
:100D5000CF91089585E395E00E94840610923A05AC
:100D60000895CF92DF92EF92FF920F931F93CF934C
:100D7000DF9300D0CDB7DEB77C01FC010685178577
:100D80000115110511F401E010E0D12CC12C809166
:100D9000810290918202C816D906F8F48017910753
:100DA00010F401E010E00F5F1F4FBE016F5F7F4F37
:100DB000C8010E947905882381F089819A81892B55
:100DC00021F0FFEFCF1ADF0AE2CF6FEF7FEFC8010C
:100DD0000E941405D82E81110DC0D12C8D2D0F909D
:100DE0000F90DF91CF911F910F91FF90EF90DF90C7
:100DF000CF900895F70186859785009749F0B8014F
:100E00000E941405882349F3F70117870687E6CF68
:100E100085818068858311870087F6CF089590E0EB
:100E200080E008950F931F93CF93DF93D0919702A3
:100E3000D11107C0D0E08D2FDF91CF911F910F917D
:100E4000089520913A052370A9F7C62F8C0160E020
:100E50000E945306FC01892B69F38081882351F39A
:100E6000853E41F38385982F987121F780FF03C059
:100E70008C2F8271F9F6109244051092430510925E
:100E800045051092460510924705109248051093AB
:100E90003C0500933B05848D958DA68DB78D809381
:100EA0003F0590934005A0934105B0934205828D84
:100EB000938D90933E0580933D05CF70C0933A0586
:100EC000BACFAF92BF92CF92DF92FF920F931F9350
:100ED000CF93DF93CDB7DEB72B970FB6F894DEBF75
:100EE0000FBECDBF382F80919702882309F468C0C8
:100EF00020913A052370B9F4FE013196AE01445FAA
:100F00005F4F6F0180E28193E417F507E1F7A32FAC
:100F1000B92F90E027E08D91382F882321F18E3270
:100F200039F42A3011F480E04BC098E02AE0F3CF86
:100F3000E7E6F1E04491442321F031968413FACF9F
:100F4000F2CF291780F34FED480F4E3560F74FE988
:100F5000480F4A3110F430EE380FF601E90FF11D59
:100F600030839F5FD8CF89818032E9F2F62E10E07E
:100F700000E0AA24AA94BA2C80919502909196023E
:100F80000817190790F560E0C8010E945306BC01DC
:100F9000009749F2FC019081992311F1953E29F4C3
:100FA000B7FC20C00F5F1F4FE7CF4BE050E0C601FA
:100FB0000E94DC21892BB1F76F2DC8010E94120716
:100FC0002B960FB6F894DEBF0FBECDBFDF91CF9149
:100FD0001F910F91FF90DF90CF90BF90AF90089539
:100FE000B7FE05C058019111DDCFB7FC9CCF6F2D26
:100FF0006274623409F097CF61E0C5010E94530624
:10100000009709F490CF20E2FC0111922A95E9F7AC
:101010002BE0F601DC0101900D922A95E1F721E227
:1010200038E2FC01318B208B40E058E0578746873F
:10103000338B228B318F208F578B468B0E9470030E
:10104000882309F470CF62E4C501B8CF4F925F9254
:101050006F927F928F929F92AF92BF92CF92DF92C8
:10106000EF92FF920F931F93CF93DF935C018B015D
:1010700080913A0580FD13C08FEF9FEFDF91CF91F4
:101080001F910F91FF90EF90DF90CF90BF90AF90A6
:101090009F908F907F906F905F904F900895809178
:1010A000450590914605A0914705B09148054091AE
:1010B0003F055091400560914105709142056C01DA
:1010C0007D01C00ED11EE11CF11C4C155D056E05A5
:1010D0007F0518F48A01081B190B7801812C32E076
:1010E000932EE114F10409F486C080914505909196
:1010F0004605A0914705B0914805C0909402AC0107
:10110000BD0129E076956795579547952A95D1F7C2
:10111000DD24DA94DC0CD422EC01D170DD2009F45A
:1011200048C0209143053091440522503109AC2D2F
:10113000B0E00E94CD2140909002509091026090CA
:10114000920270909302640D751D861D971D6D0DA2
:10115000711D811D911D40E00E94AD03882309F49B
:101160008BCFC4018C1B9D0B67018E159F0508F466
:101170006C01BE0168567D4FA601C5010E94E921A0
:101180008091450590914605A0914705B09148058D
:101190008C0D9D1DA11DB11D8093450590934605A5
:1011A000A0934705B0934805AC0CBD1CEC18FD0896
:1011B00098CF209709F0B5CF8091430590914405D1
:1011C000009791F480913D0590913E0590934405E0
:1011D0008093430580914305909144050297863F93
:1011E0009F4F08F49ECF48CF63E475E00E947905D5
:1011F0008111F0CF41CFC80141CF0F931F93CF93FF
:10120000DF931F92CDB7DEB78C0161E082E291E0FF
:101210000E946107A80170E060E085E395E00E940C
:10122000C30561E070E0CE0101960E9426080981A5
:10123000019711F00FEF1FEF0E94AA06802F0F9069
:10124000DF91CF911F910F9108951F93CF93DF935B
:10125000EC010E94FD08182FCE0101960E94FD08A6
:10126000912FDF91CF911F910895EF92FF920F93ED
:101270001F93CF93DF937B01EA010E9425098C0124
:10128000C7010E94250924E0000F111F2A95E1F7EC
:101290008C0F9D1F800F911FDF91CF911F910F9198
:1012A000FF90EF900895CF93DF93EB018F579F4FFF
:1012B0000E9425098C0F9D1FDF91CF910C94FD0892
:1012C000CF93DF9380937802C82FD0E0BE0188E0EF
:1012D00090E00E94530980935D02BE0189E090E096
:1012E0000E94530980935302BE018EE090E00E9459
:1012F000530980936C02BE018AE090E0DF91CF91A8
:101300000C9453090F931F93CF9382E090EF909327
:101310005F0280935E0209E010E001501109E0F0E5
:10132000C80188960E94FD08C82FB80183E190E0AB
:101330000E9453092C2F30E002C0220F331F8A95E0
:10134000E2F780915E0290915F02280F391F30937F
:101350005F0220935E02E1CFCF911F910F9108951C
:101360002F923F924F925F926F927F928F929F92B5
:10137000AF92BF92CF92DF92EF92FF920F931F93A3
:10138000CF93DF9300D0CDB7DEB78C015B014A016C
:10139000FC01858181FFDEC082FDC9C06401212C72
:1013A00032E0332EF80180899189A289B389709047
:1013B0009402AC01BD0129E0769567955795479554
:1013C0002A95D1F766246A94670C64227C01F1E0C7
:1013D000FF2261101FC0F80186859785E114F10492
:1013E00009F0E5C0009709F4B9C0BE016F5F7F4FF7
:1013F0000E947905882309F4ADC089819A81883FCC
:10140000FFEF9F0708F4C9C0C8010E94B1068823F6
:1014100009F4A0C0F8012685378522503109A72D8F
:10142000B0E00E94CD212091900230919102409134
:10143000920250919302620F731F841F951F9B01AC
:10144000AC01260D311D411D511D29013A01E11448
:10145000F10409F0BFC0F80140895189628973899C
:1014600082859385A485B585481759076A077B0748
:1014700008F4B0C00E947003882309F46BC0409246
:10148000000150920101609202017092030181E01B
:101490008093460131016E187F08C614D70408F402
:1014A0003601A301B501C70188569D4F0E94E9216D
:1014B000F80180899189A289B389860D971DA11DA4
:1014C000B11D808B918BA28BB38BC618D708A60C4D
:1014D000B71CC114D10409F065CF428553856485DA
:1014E0007585481759076A077B0738F42581828775
:1014F0009387A487B58720682583F801858183FDBC
:1015000050C0C4010F900F90DF91CF911F910F91A8
:10151000FF90EF90DF90CF90BF90AF909F908F9013
:101520007F906F905F904F903F902F9008954285ED
:1015300053856485758580899189A289B389481707
:1015400059076A077B0709F429CFC8010E94C30520
:10155000811124CF81E0F801848343C08085918587
:101560000097D9F4C8010E94B106882399F3F801C5
:101570002685378522503109A72DB0E00E94CD2164
:10158000409090025090910260909202709093026D
:10159000460E571E681E791E5ECFF8019787868714
:1015A00039CFC8010E9484068111ABCFD3CF9C01F3
:1015B00022503109A72DB0E00E94CD214090900229
:1015C000509091026090920270909302460E571EC6
:1015D000681E791E41E0C301B2010E94AD03811172
:1015E00059CF8FEF9FEF8ECFCF93DF931F92CDB761
:1015F000DEB7698341E050E0BE016F5F7F4F0E941C
:10160000B00921E030E0019711F030E020E0C9019D
:101610000F90DF91CF9108951F93CF93DF93EC014B
:10162000162F62E082E291E00E946107AE0170E055
:1016300060E085E395E00E94C305612F70E041E022
:1016400050E085E395E00E94B0090E94AA06812F30
:10165000DF91CF911F9108950C940C0B0F931F9362
:10166000CF93DF938C01D62FC72F0E942C0B6C2FAA
:10167000C80101960E942C0B8D2F9C2FDF91CF91DA
:101680001F910F9108950F931F93CF93DF938C01B8
:10169000C9E0D0E0219788F0BE0183E190E00E948C
:1016A0005309B80102C0759567958A95E2F7617094
:1016B000CE0188960E942C0BEDCFDF91CF911F9128
:1016C0000F91089561E0892B09F460E080E390E0D8
:1016D0000C942C0B60915802709159028091560223
:1016E0009091570268277927809154029091550272
:1016F00068277927709357026093560284E07695A5
:1017000067958A95E1F761708AE290E00E942C0B60
:1017100020915402309155028091580290915902C3
:1017200028173907E1F088E290E00E94FD08409117
:10173000760298E0499FA0011124495F5F4F2091F4
:1017400056023091570202C0369527954A95E2F726
:10175000A9014827CA01817099270C94620B60E0A7
:1017600080E390E00E942C0B80E0089561E0892BDB
:1017700009F460E088E290E00C942C0BCF93DF93A7
:10178000EC0181E08093760284E090E00E942509DC
:10179000BC016E5F7F4F84E090E00E942E0B4EEF05
:1017A0005FEF64E070E08AE090E00E9435090E94FB
:1017B000FD0880935B0280935A0290917602D09349
:1017C0005902C0935802992399F080915A0290913E
:1017D0005B02909357028093560290935502809338
:1017E00054021092760280915A02DF91CF910895AF
:1017F00090E0EFCFCF93DF93EC0181E0809376020E
:101800004FEF5FEF64E070E08AE090E00E943509FE
:101810000E94FD0880935B0280935A0290917602A9
:10182000992351F120915A0230915B023093590271
:1018300020935802D0935702C0935602D0935B0274
:10184000C0935A02D0935502C0935402C0915A02D9
:101850008C1759F04FEF5FEF64E070E08AE090E0A2
:101860000E9435096C2F0E940C0B10927602809119
:101870005A02DF91CF910895282F30E0309359021A
:10188000209358029E01332730935702209356022B
:10189000C0935A023093550220935402D7CFCF936E
:1018A000DF93C82F8DEC0E9460090E94820980910D
:1018B0005E0290915F020E94FA0B89E090E00E9424
:1018C00025090E94FA0B80917B0290917C020E9474
:1018D000FA0B84E0C89FE0011124CE0102960E9419
:1018E000FD0880935B0290917602992309F448C029
:1018F00080915A0290915B02909359028093580212
:1019000080915B0290915C02909357028093560203
:1019100090935B0280935A029093550280935402F5
:1019200060915A0282E190E00E940C0BC350D74FA5
:101930002091760280917B0290917C0290935902D3
:1019400080935802222381F18881998190935702D4
:101950008093560290937C0280937B029093550271
:101960008093540260E08DE290E00E942C0B60E0D6
:101970008EE290E00E942C0B80E0DF91CF910895E1
:1019800020915A0230E03093590220935802282FB8
:1019900030E0309357022093560280935A023093DE
:1019A000550220935402BCCF888190E0CFCF0F9393
:1019B0001F93CF93DF93EC010E94D4018C0142E08E
:1019C00050E06AE271E0CE010E94E700800F911FB3
:1019D000DF91CF911F910F9108951F920F920FB633
:1019E0000F9211242F933F934F935F936F937F93A5
:1019F0008F939F93AF93BF93EF93FF9388E994E006
:101A00000E946501FF91EF91BF91AF919F918F91DE
:101A10007F916F915F914F913F912F910F900FBEEA
:101A20000F901F9018951F920F920FB60F921124CE
:101A30002F938F939F93EF93FF93E091A804F091DE
:101A4000A9048081E091AE04F091AF0482FD1BC037
:101A500090818091B1048F5F8F732091B2048217BF
:101A600041F0E091B104F0E0E856FB4F958F809390
:101A7000B104FF91EF919F918F912F910F900FBE25
:101A80000F901F9018958081F4CF1F920F920FB680
:101A90000F9211242F933F938F939F93AF93BF93F4
:101AA00080914C0190914D01A0914E01B0914F0158
:101AB00030914B0123E0230F2D3758F50196A11DDE
:101AC000B11D20934B0180934C0190934D01A09345
:101AD0004E01B0934F018091470190914801A09130
:101AE0004901B0914A010196A11DB11D80934701A2
:101AF00090934801A0934901B0934A01BF91AF91DF
:101B00009F918F913F912F910F900FBE0F901F903B
:101B1000189526E8230F0296A11DB11DD2CFE8E942
:101B2000F4E01382128288EE93E0A0E0B0E08483B8
:101B30009583A683B78388E091E09183808385ECC9
:101B400090E09587848784EC90E09787868780EC87
:101B500090E0918B808B81EC90E0938B828B82EC78
:101B600090E0958B848B86EC90E0978B868B118E22
:101B7000128E138E148EE5E3F5E0138212828AE151
:101B800091E09183808315820895789484B5826072
:101B900084BD84B5816084BD85B5826085BD85B511
:101BA000816085BD80916E00816080936E0010928F
:101BB000810080918100826080938100809181000A
:101BC000816080938100809180008160809380009B
:101BD0008091B10084608093B1008091B0008160F9
:101BE0008093B00080917A00846080937A00809125
:101BF0007A00826080937A0080917A00816080937D
:101C00007A0080917A00806880937A001092C100F7
:101C1000E091A804F091A90482E08083E091A404FB
:101C2000F091A5041082E091A604F091A7048FEC36
:101C300080831092B004E091AC04F091AD0486E092
:101C40008083E091AA04F091AB048081806180835D
:101C5000E091AA04F091AB04808188608083E091D8
:101C6000AA04F091AB04808180688083E091AA048B
:101C7000F091AB0480818F7D808362E371E088E91D
:101C800094E00E94D70C65E071E088E994E00E943E
:101C9000D70C68ED70E088E994E00E94D40102E07E
:101CA000EAE0FE2EF3E5EF2E00938002F0927F0231
:101CB00010927D020E949002EB0161E080917F0210
:101CC0000E945F0261E080917F020E94130260E047
:101CD0008CE00E945F0261E08AE00E945F0261E0A6
:101CE0008AE00E94130261E08BE00E945F0261E0E3
:101CF0008DE00E945F02ECBC1AE08FEF0E949C0214
:101D00001150D9F760E080917F020E94130220E019
:101D100030E0A90160E08DE792E00E94CE02182F2A
:101D20008130C9F00E9490026C1B7D0B613D7740B1
:101D300070F310937E0281E080937D028DE792E044
:101D40000E94A10241E050E06DE271E088E994E078
:101D50000E94E700A9CF20E030E0A90167E38DE70A
:101D600092E00E94CE0220E030E0A90169E28DE716
:101D700092E00E94CE02182F882361F00E94900208
:101D80006C1B7D0B613D774030F310937E02009316
:101D90007D02D4CF8DE792E00E94A10260EC70E05A
:101DA00088E994E00E94D40181E00E941A04811124
:101DB0000DC00E941A04811109C041E050E06DE29B
:101DC00071E088E994E00E94E700EECF68EB70E0F4
:101DD00088E994E00E94D70C65EF70E088E994E010
:101DE0000E94D70C60E070EF89E090E00E942E0B1B
:101DF00060E08DE290E00E942C0B60E884E090E0CF
:101E00000E942C0B63E08FE291E00E9461076091D9
:101E10003F057091400590E080E00E942E0BD0E0DD
:101E2000C0E0C1304FEFD40750F561E088E391E0A6
:101E30000E94610760E870E080E591E00E9426085A
:101E4000C80FD91F0E94AA0662E482E291E00E94B4
:101E50006107AE010D2E000C660B770B615F7F4FA3
:101E600085E395E00E94C30540E850E060E571E03D
:101E700085E395E00E94B0090E94AA06D2CF80E0D7
:101E800091E090937C0280937B0234E0832E912C2E
:101E90007724739442E0642E56E0452E6CE0562E73
:101EA0007AE1E72EF12CD12CC12CB12CA12C89E0A8
:101EB00090E00E94250924E0880F991F2A95E1F7F8
:101EC00020917B0230917C02820F931F0E94FD08BB
:101ED000282F30E030937A0220937902882311F47E
:101EE0000C9466210E946009A09178028A2F877065
:101EF00080937702A170A09376028695817080937B
:101F00007502E0917902F0917A0291817281292F14
:101F1000372F3093740220937302B3817093710250
:101F2000B0937202438154815093700240936F02C8
:101F300040916E02442319F0415040936E0240914B
:101F40006D02442319F0415040936D0280916C0260
:101F5000882309F48FC0A90116E0569547951A9574
:101F6000E1F7437040936B02977090936A0203E02D
:101F7000369527950A95E1F727702093690241115C
:101F8000B3C0963009F0B5C024813581309370021A
:101F900020936F0224E030E04111B7C03093680213
:101FA00020936702692F70E0433009F4B4C0C9017F
:101FB00001960E94530990E00E942509EC0160916E
:101FC0006A0270E0809167029091680202960E9416
:101FD00053092091710230917202829F8001839F88
:101FE000100D11240C0F1D1F60916A0270E080918A
:101FF0006702909168020E945309C82FD0E0809137
:102000006E02811185C060916A0270E08091670262
:102010009091680203960E945309A801BE0190E0C6
:102020000E94350990936502809364029093630245
:102030008093620230916902432F50E0440F551F94
:1020400020917602222309F475C09A01309361022F
:102050002093600240917502442361F030935F0247
:1020600020935E029093610280936002309363023A
:1020700020936202E0915D02E03308F018CFF0E0B7
:10208000EC5BFF4E0C94C721A310F510661159119B
:102090005F11EE111613A715C315011607188D1938
:1020A000570F461AA41ADB1A0F1BDC1BB61CA21D05
:1020B000D81D570F570FF91D1E1B0A1E0E1E121E8C
:1020C000231ECB1E091F2A1F4E1F691FBA1D711F19
:1020D000801F851F8C209820A520B920E820022190
:1020E000092120212C213421423009F44DCF4130E7
:1020F00029F070936F02B09370024CCF272F770FA7
:10210000330B309372022093710230E020E046CF0F
:102110008091660282CF660F771FAA2311F0CB0150
:1021200081CF892F86958695860F972F911D877071
:10213000992778CF232F26952695240F352F311DEB
:102140002770332783CF609178026695677060931C
:102150005C0200917302002E000C110BC0917602FC
:10216000D0E070E08FE090E00E94530990E00E9480
:10217000FD088823A1F091E0C927C09F9001C19F6D
:10218000300DD09F300D112480917B0290917C0204
:10219000820F931F90937C0280937B0288CE609184
:1021A0005C0270E080E190E00E94530990E00E94A0
:1021B000FD088111E0CF60915C0270E081E190E068
:1021C0000E94530990E00E94FD08382E60915C0245
:1021D00070E082E190E00E94530990E00E9425099E
:1021E00091E03812C9CF90E0C7CF9091780281E09A
:1021F000492F487093FF80E0809376029091770298
:10220000292F30E0220F331F442389F1C9010E9496
:10221000FD0880935B0280935A024091760244232A
:1022200079F180915A0290915B02909359028093C8
:102230005802809173029091740290935702809398
:10224000560290935B0280935A02909355028093BA
:10225000540260915A0290917702292F30E0220FA8
:10226000331F4423E9F0C9010E940C0B20CE892FB3
:1022700086958695820F932F911D87709927C7CFDA
:1022800090E0909359028093580220917302822F1C
:1022900090E0909357028093560220935A02D5CF34
:1022A000892F86958695820F932F911D8770992788
:1022B000DBCF8091770290E00E9425091BC18091BD
:1022C000770290E00E9425090C9489197092760299
:1022D00010927502809177028093690220916B02BF
:1022E00084E090E0222311F090E080E09093680277
:1022F0008093670260916A0270E0233008F000C1A9
:1023000001960E94530990E00E942509EC0160911A
:102310006A0270E0809167029091680202960E94C2
:1023200053092091710230917202829F8001839F34
:10233000100D11240C0F1D1F60916A0270E0809136
:102340006702909168020E945309C82FD0E08091E3
:102350006E028111D2C060916A0270E080916702C2
:102360009091680203960E945309A801BE0190E073
:102370000E943509BC0170936502609364027093FA
:1023800063026093620290916902492F50E0440F0A
:10239000551F809176029A01811108C0292F269538
:1023A0002695240F352F311D277033273093610276
:1023B0002093600280917502882361F030935F0260
:1023C00020935E0270936102609360023093630217
:1023D0002093620280915302809369028091690286
:1023E000823008F0A8C088E190E00E94FD08809348
:1023F0005B029091760220916902992309F483C0CF
:1024000080915A0290915B029093590280935802F6
:1024100040915B0250915C025093570240935602E8
:10242000840F951F019630E0220F331F821B930B00
:1024300090935B0280935A029093550280935402CA
:1024400060915A0280916002909161020E940C0B8F
:10245000C1E0D0E0D0935702C09356020E946A0BAD
:102460008091760258E0859FC0011124079602C032
:10247000CC0FDD1F8A95E2F7209158023091590266
:102480002F5F3F4F80916902281B310981E090E066
:10249000C217D30711F090E080E00E94620B809198
:1024A000760228E0829FC0011124079641E050E0A7
:1024B00002C0440F551F8A95E2F7209158023091CF
:1024C00059022F5F3F4F80916902281B310981E03B
:1024D00090E04217530711F090E080E00E94620BF9
:1024E00080915D02853019F480E10E94600980913D
:1024F0005A0290E00E94FA0BDACC8091660235CF46
:10250000660F771F38CF40915A02642F70E07093A6
:1025100059026093580290E09093570280935602BC
:1025200030E0220F331F821B930B0196840F8093A0
:102530005A0290E081CF863009F46FC0833031F4C5
:1025400089E090E00E9425090E94FA0B80916902BF
:1025500081FF23C080916B0221E030E0833011F4D1
:1025600030E020E0829FA001839F500D1124811153
:1025700005C021E080916A02863009F020E0809158
:102580007B0290917C020296840F951F30E0220F0F
:10259000331F820F931F0E94FA0B8091690280FF04
:1025A00007C0809160029091610202960E94FD082E
:1025B000809160029091610202960E94FD08682F4E
:1025C00070E089E090E00E942E0B80916002909173
:1025D00061020E94FD0880935A0290917602209138
:1025E0007B0230917C023093590220935802992348
:1025F00091F080915A0290915B02909357028093E0
:10260000560290937C0280937B02909355028093B4
:1026100054028AE96ACF90E0F0CF809164029091F1
:1026200065020E94FD0880935A0261CF809160028A
:10263000909161029093630280936202E09169023B
:10264000E83008F034CCF0E0E85DFC4E0C94C72193
:102650003013570F7B13B01305146D14D0144F159E
:1026600080E20E94600920917B0230917C022F5F02
:102670003F4F80917602820F932F911D90937C02A1
:1026800080937B0280916202909163020E94FD0818
:1026900080935A02909176029923E1F020915A0298
:1026A00030915B02309359022093580240916F029F
:1026B00050917002509357024093560224233523C1
:1026C0003093550220935402682F809162029091BA
:1026D0006302CACD282F30E030935902209358026C
:1026E00020916F02422F50E05093570240935602C0
:1026F000282330E0E5CF0E94FD0880935B02909193
:1027000076029923D9F080915A0290915B029093BE
:1027100059028093580280915B0290915C029093E1
:102720005702809356028095909590935B02809318
:102730005A02909355028093540226C520915A0262
:1027400030E03093590220935802282F30E0309324
:10275000570220935602809580935A0290E0E9CF69
:102760000E94FD0880935B02909176029923D9F133
:1027700080915A0290915B02909359028093580283
:1027800080915B0290915C02909357028093560275
:1027900091958195910990935B0280935A02909351
:1027A00055028093540260915A0280916202909186
:1027B00063020E940C0B109259021092580288E298
:1027C0000E94600981E090E04091540250915502CE
:1027D00020915802309159022417350708F060C241
:1027E0000E94B60B64CB20915A0230E0309359021C
:1027F00020935802282F30E030935702209356023E
:10280000819580935A0290E0CACF80917602882306
:1028100091F180E10E946009C0916402D09165024B
:10282000C350D74F90E080E00E942509C89FB001B7
:10283000C99F700DD89F700D11247093550260933D
:102840005402770F660B762F8091760290E0019606
:102850000E942E0B609154027091550290E080E02E
:102860000E942E0B60E088E290E00E942C0BC501D4
:102870000E94620B1CCB80E10E946009C09164023F
:10288000D0916502C350D74FDD2790E080E00E94D1
:10289000FD08382F3C9FC0013D9F900D112490935F
:1028A0005502809354028091760290E060E0019698
:1028B0000E942C0B609154027091550290E080E0D0
:1028C0000E942E0B809154029091550288270E94FD
:1028D000B60B082E000C990BCBCF80917602882383
:1028E00081F180E10E946009C0916402D09165028B
:1028F000C350D74F90E080E00E942509C89FB001E7
:10290000C99F700DD89F700D11247093550260936C
:102910005402770F660B762F8091760290E0019635
:102920000E942E0B609154027091550290E080E05D
:102930000E942E0B60E088E290E00E942C0BC60102
:1029400097CF80E10E946009C0916402D091650236
:10295000C350D74F90E080E00E94FD088C02B00188
:1029600011247093550260935402770F660B762FF3
:102970008091760290E001960E942C0B60915402A7
:102980007091550290E080E00E942E0B80915402DD
:1029900090915502082E881B910907FC939597CFBB
:1029A0008091640290916502209176022223E9F1E0
:1029B0000E94FD0890E09093520280935102892B6F
:1029C00009F4C1C08091760290E001960E94250929
:1029D00090E080E00E942509EC0190935F028093D3
:1029E0005E0260915102709152020E947D217093AB
:1029F00068026093670290E080E00E942E0B2091B5
:102A0000510230915202AC01429FC001439F900D90
:102A1000529F900D1124BE01681B790B80917602A4
:102A200090E001960E942E0B42CA0E94FD0890E0A1
:102A30009093520280935102892B09F484C08091B3
:102A4000760290E001960E94FD0890E080E00E94EE
:102A50002509C82F80935E0290935F026091510216
:102A6000709152020E947D21709368026093670208
:102A7000CB0199276817790709F065C090E080E0DD
:102A80000E940C0B909151026C2F899F60191124A8
:102A90008091760290E001960E942C0B08CA8091EA
:102AA00064029091650220917602222301F10E9436
:102AB000FD0890E09093520280935102892B09F413
:102AC00042C08091760290E001960E94250990E034
:102AD00080E00E942509EC0190935F0280935E02E2
:102AE00060915102709152020E94912180CF0E9408
:102AF000FD08082E000C990B90935202809351020E
:102B0000892B09F18091760290E001960E94FD08E0
:102B100090E080E00E942509C82F80935E02909388
:102B20005F0260915102709152020E949121709354
:102B3000680260936702262F062E000C330B621783
:102B4000730709F49BCF80E00E944F0CB0C910922C
:102B500065021092640280917302909174029093C6
:102B6000700280936F0283E080936B028091530226
:102B70008093690280917B0290917C0201979093EF
:102B80007C0280937B028091640290916502909315
:102B900063028093620281E090917602911180E05D
:102BA00090917502892B8093750260916F027091EC
:102BB0007002882319F0062E000C770B8DE090E050
:102BC0000E942E0BF0926102E092600280917502E9
:102BD00022E030E0882311F021E030E080917B0298
:102BE00090917C02820F931F90937C0280937B02D2
:102BF0008091690280935302880F880F880F0E948A
:102C00006009E0915302E93008F051C9F0E0E15F5A
:102C1000F94E80916002909161020C94C7211816C0
:102C200066169116FB166F179A17891BD9179218FB
:102C30000E94FD0880935B0290917602992399F19E
:102C400080915A0290915B029093590280935802AE
:102C500020915B0230915C02309357022093560220
:102C6000820F931F90935B0280935A0290935502B8
:102C70008093540260915A028091620290916302A3
:102C80000E940C0B81E090E040915402509155025B
:102C900020915802309159024217530708F4A0CDF1
:102CA00090E080E09DCD90915A02292F30E0309342
:102CB000590220935802282F30E030935702209376
:102CC0005602890F80935A0290E0D0CF0E94FD08EF
:102CD00080935B0290917602992399F080915A0239
:102CE00090915B02909359028093580220915B026D
:102CF00030915C023093570220935602822B932B23
:102D000014CD90915A02292F30E03093590220932C
:102D10005802282F30E03093570220935602892B17
:102D20001BCD0E94FD0880935B0280917602882370
:102D300009F446C080915A0290915B029093590227
:102D40008093580288E290E00E94FD0820915B0287
:102D500030915C02309357022093560240915A0200
:102D600050915B02240F351F820F932F911D90937A
:102D70005B0280935A0290935502809354026091B3
:102D80005A0280916202909163020E940C0B88E2C9
:102D900090E00E94FD082091580230915902409124
:102DA000540250915502882321F04217530709F429
:102DB00094C081E0421753070CF468C080E066C0FD
:102DC00080915A0290E0909359028093580288E2D1
:102DD00090E00E94FD0890915B02292F30E0309333
:102DE00057022093560220915A02920F890F809326
:102DF0005A0290E0C0CF0E94FD0880935B02809150
:102E00007602882309F449C080915A0290915B02AE
:102E1000909359028093580288E290E00E94FD0846
:102E200040915B0250915C025093570240935602CE
:102E300020915A0230915B02241B350B281B31096B
:102E400030935B0220935A02309355022093540230
:102E500060915A0280916202909163020E940C0B71
:102E600088E290E00E94FD082091580230915902BA
:102E70004091540250915502882319F0421753078C
:102E800061F181E0241735070CF098CF90E00E94A3
:102E9000B60B0E946A0B0C94570F80915A0290E077
:102EA000909359028093580288E290E00E94FD08B6
:102EB00020915B02422F50E05093570240935602FC
:102EC00090915A02921B981B892F90935A0290E07E
:102ED0009093550280935402BBCF81E0D7CF0E94DC
:102EE000FD0880935B0290917602992399F080917E
:102EF0005A0290915B02909359028093580220915C
:102F00005B0230915C023093570220935602822379
:102F100093230BCC90915A02292F30E03093590221
:102F200020935802282F30E0309357022093560206
:102F3000892312CC0E94FD08982F80935B02809118
:102F40007602882319F180915A0290915B02909346
:102F500059028093580220915B0230915C023093B9
:102F6000570220935602821B930B90935B0280932F
:102F70005A02909355028093540260915A028091B4
:102F80006202909163020E940C0B1CCC80915A0249
:102F9000282F30E03093590220935802292F30E037
:102FA0003093570220935602891B80935A0290E077
:102FB000E0CF0E94FD0880935B02909176029923F6
:102FC00099F080915A0290915B02909359028093FC
:102FD000580220915B0230915C023093570220939B
:102FE0005602821B930BC5CF20915A0230E03093DA
:102FF00059022093580290E0909357028093560212
:10300000281B390B3093550220935402B6CF809180
:1030100076028111BCC07092760280916902885F4D
:103020008093690220916B0284E090E0222311F0EA
:1030300090E080E0909368028093670260916A025A
:1030400070E0233008F08AC001960E94530990E096
:103050000E942509EC0160916A0270E0809167028C
:103060009091680202960E9453092091710230915A
:103070007202829F8001839F100D11240C0F1D1F6F
:1030800060916A0270E080916702909168020E94EC
:103090005309C82FD0E080916E0281115CC060910D
:1030A0006A0270E0809167029091680203960E9424
:1030B0005309A801BE0190E00E943509BC0170933C
:1030C0006502609364027093630260936202909160
:1030D0006902492F50E0440F551F809176029A01F2
:1030E000811108C0292F26952695240F352F311DD3
:1030F000277033273093610220936002809175021C
:10310000882361F030935F0220935E027093610226
:1031100060936002309363022093620280916002A8
:10312000909161020E94FD0880935B02909176026B
:103130009923B9F080915A0290915B0290935902C1
:103140008093580280915B0290915C0290935702A9
:1031500080935602EACA80916602ABCF660F771F52
:10316000AECF20915A0230E030935902209358029A
:10317000282F30E0309357022093560280935A0252
:10318000309355022093540260915A029ECA809156
:1031900075028111B7C070926E0250926602209142
:1031A0006B0284E090E0222311F090E080E09093A5
:1031B00068028093670260916A0270E0233008F031
:1031C0008EC001960E94530990E00E942509EC01EF
:1031D00060916A0270E080916702909168020296A5
:1031E0000E9453092091710230917202829F8001E6
:1031F000839F100D11240C0F1D1F60916A0270E057
:1032000080916702909168020E945309C82FD0E014
:1032100080916E02811160C060916A0270E08091BD
:1032200067029091680203960E945309A801BE01AB
:1032300090E00E943509BC017093650260936402BE
:10324000709363026093620290916902492F50E08B
:10325000440F551F809176029A01811108C0292FD1
:1032600026952695240F352F311D2770332730934F
:1032700061022093600280917502882361F030938F
:103280005F0220935E02709361026093600230934C
:1032900063022093620280916002909161020E9419
:1032A000FD0880935A02909176029923D9F080917B
:1032B0005A0290915B029093590280935802809138
:1032C0006402909165029093570280935602909306
:1032D0005B0280935A028DC180916602A7CF660F70
:1032E000771FAACF90E090935902809358022091C3
:1032F0006402822F90E090935702809356022093AD
:103300005A0277C180916402909165020E94FD0883
:1033100090E00E94BE0B0C94570F1092690210921D
:103320006B0240926A0280917302909174029093B2
:10333000720280937102909268028092670266E046
:1033400070E085E090E00E94530990E00E9425091A
:10335000EC0160916A0270E08091670290916802CE
:1033600002960E9453092091710230917202829F4D
:103370008001839F100D11240C0F1D1F60916A02A4
:1033800070E080916702909168020E945309C82FF3
:10339000D0E080916E0281114EC060916A0270E0AF
:1033A000809167029091680203960E945309A801D8
:1033B000BE0190E00E9435099093650280936402FB
:1033C00090936302809362022091760230916902A9
:1033D0002223A1F1232F30E0220F331F309361020B
:1033E0002093600240917502442361F030935F02A4
:1033F00020935E0290936102809360023093630297
:103400002093620280916202909163020E94FD0803
:1034100080935B02909176029923E9F080915A02A1
:1034200090915B02909359028093580280915B02C5
:1034300090915C0248CF80916602B9CF432F50E053
:10344000440F551F232F26952695240F352F311D08
:1034500027703327C3CF20915A0230E030935902AE
:1034600020935802282F30E03093570220935602C1
:1034700080935A02309355022093540260915A026D
:1034800080916002909161020C94341181E090E08F
:103490000E94250980935A02282F2150330BB9012D
:1034A00081E090E00E942E0B80915A028150990B8E
:1034B00090935F0280935E0280917702813029F1C0
:1034C00078F0833049F16091730240915E0250912F
:1034D0005F0264039001659F300D11240C94C410A9
:1034E0008BE290E00E94FD0821E030E0882311F09B
:1034F00030E020E080915E0290915F02822393236E
:1035000090935F0280935E02DECF8BE290E00E9498
:10351000FD08282F30E0EECF81E090E00E942509E1
:1035200080935A029927BC016F5F7F4F81E090E042
:103530000E942E0B80915A02811103C082E090E01C
:10354000DFCF81E090E0DCCF2091750280917B029B
:1035500090917C020396821B910990937C02809348
:103560007B023091760231110EC0222309F11092B4
:103570007C0210927B0260916F027091700289E070
:1035800090E00E942E0B2091730230917402809182
:103590007502882311F40C94C4108091760288235C
:1035A00011F40C94C410022E000C330B0C94C410B4
:1035B0000E94FA0BE8CF80916202909163020E9410
:1035C000FD0880935B02909176029923B9F0809177
:1035D0005A0290915B029093590280935802209175
:1035E0005B0230915C023093570220935602822393
:1035F0009323909355028093540240CF90915A02A6
:10360000292F30E03093590220935802282F30E0C0
:103610003093570220935602892390E0EACF7092AC
:10362000760210926302109262028091770290E01B
:10363000880F991F909361028093600280916002CD
:10364000909161022091620230916302281739073C
:1036500011F40C94570F0E94FD0880935B02909127
:103660007602992309F471C080915A0290915B020D
:10367000909359028093580220915B0230915C0232
:1036800030935702209356028227932790935B0230
:1036900080935A02909355028093540260915A028B
:1036A00080916202909163020E940C0B80916202F1
:1036B000909163020E94FD0880935B0290917602D4
:1036C000992309F455C080915A0290915B0290931E
:1036D00059028093580220915B0230915C02309332
:1036E0005702209356028227932790935B02809380
:1036F0005A02909355028093540260915A0280912D
:103700006002909161020E940C0B80916002909186
:1037100061020E94FD0880935B02909176029923DA
:10372000D1F180915A0290915B029093590280935B
:10373000580220915B0230915C0230935702209333
:103740005602822793270C94951390915A02292FA1
:1037500030E03093590220935802282F30E0309304
:10376000570220935602892780935A0290E092CF05
:1037700090915A02292F30E0309359022093580239
:10378000282F30E0309357022093560289278093E8
:103790005A0290E0AECF90915A02292F30E0309338
:1037A000590220935802282F30E03093570220937B
:1037B000560289270C94AC1380916E02882309F479
:1037C000AAC08091660290E090936802809367029D
:1037D00080916D02882309F4A1C081E090E00E94ED
:1037E000250990935F0280935E0280915E02909122
:1037F0005F02892B09F4AFC08091530280FD91C014
:1038000050E040E066E070E08091670290916802CD
:103810000E9435090E94FD0880935B029091760218
:10382000992309F481C080915A0290915B02909390
:1038300059028093580280915B0290915C029093B0
:1038400057028093560290935B0280935A029093A2
:10385000550280935402C0915A02809153028230E3
:1038600008F076C050E040E067E070E088E090E06B
:103870000E9435096C2F0E940C0B8091530280FD31
:1038800020C086E090E00E942509EC018FE290E0E4
:103890000E94FD0890E0880F991F01972091760201
:1038A00030E02F5F3F4F829FA001839F500D929F7A
:1038B000500D1124BE01641B750B86E090E00E9440
:1038C0002E0B8091530281FD20C087E090E00E9482
:1038D0002509EC018FE290E00E94FD0890E0880F3E
:1038E000991F01972091760230E02F5F3F4F829F12
:1038F000A001839F500D929F500D1124BE01641BA7
:10390000750B87E090E00E942E0B80915E029091F3
:103910005F02019766CF8BE090E056CF81E090E0A8
:1039200060CF90E080E076CF20915A0230E0309373
:10393000590220935802282F30E0309357022093E9
:10394000560280935A02309355022093540283CF3B
:1039500090E080E08FCF80916D02882311F40C9469
:10396000570F70E060E081E090E05CC880916E02EB
:10397000882391F08091660290E090936802809392
:10398000670280916D0281110AC081E090E09093FE
:103990005F0280935E020FC08BE090E0EECF81E08B
:1039A00090E00E94250990935F0280935E02892B2C
:1039B00011F40C94570F80915E0290915F02892B55
:1039C00011F40C94E21350E040E067E070E088E00E
:1039D00090E00E9435090E94FD0880935B0290915F
:1039E0007602C0915A02992309F497C080915A0235
:1039F00090915B02909359028093580220915B0250
:103A000030915C023093570220935602821B930B35
:103A100090935502809354028091530281118FC07C
:103A200050E040E066E070E08091670290916802AB
:103A30000E9435096C2F0E940C0B8091530281115A
:103A400020C086E090E00E942509EC018FE290E022
:103A50000E94FD0890E0880F991F0197209176023F
:103A600030E02F5F3F4F829FA001839F500D929FB8
:103A7000500D1124BE01641B750B86E090E00E947E
:103A80002E0B81E090E00E94250980935A02482F76
:103A90004150550BBA0181E090E00E942E0B87E067
:103AA00090E00E942509EC018FE290E00E94FD0861
:103AB00090E0880F991F01972091760230E02F5FE8
:103AC0003F4F829FA001839F500D929F500D112464
:103AD000BE01641B750B87E090E00E942E0B809165
:103AE0006D02882309F403C480915A02813081F069
:103AF00081E090E02091540230915502232B11F087
:103B000090E080E0209150022817190609F453CF65
:103B100010925F0210925E024ECF2C2F30E0309355
:103B200059022093580290E09093570280935602D6
:103B3000281B390B30935502209354026DCF90E02F
:103B400080E078CF809176028093750280917B022D
:103B500090917C020E94BE0B80915302882331F029
:103B600089E090E00E9425090E94BE0B80915302DB
:103B700081FF0BC080915E0290915F020E94BE0B9C
:103B800090E00E94430B0C94570F809175028111B5
:103B90000C94570F84E090E00E9425096091730215
:103BA00070917402680F791F84E090E00C941215F4
:103BB00080916002909161020E94FD0880935A02F8
:103BC00090917602992369F080915A0290915B025C
:103BD000909359028093580280916F0290917002E5
:103BE00072CB90E0909359028093580220916F021B
:103BF00080CB60926D02809176028093500280911A
:103C00006E02882311F40C94570F8F5F80936E021D
:103C10000C94570F809153020C945B1180915302C6
:103C20000C94611160926E0280915302809366023F
:103C300080916D02882311F40C94570F8F5F80934D
:103C40006D020C94570F109276028091530290E00F
:103C5000882309F49AC080E00E94FD0880935A02EC
:103C600090E080E00E94FD08282F30E03093680249
:103C7000209367028F7061E08A3040F48AE290E01E
:103C80000E94FD0861E0811101C060E08AE290E0DD
:103C90000E942C0B60915A0290E080E00E942C0B55
:103CA00090E080E00E94FD0880935A0280916702B4
:103CB00091E08A3940F488E290E00E94FD0891E0AA
:103CC000811101C090E0892F90E00E94B60B8823FB
:103CD00051F080915A02805680935A0290E090935E
:103CE00055028093540260915A0290E080E00E9455
:103CF0002C0B90E080E00E94FD08282F30E03093EC
:103D00006802209367028F7061E08A3040F48AE293
:103D100090E00E94FD0861E0811101C060E08AE24C
:103D200090E00E942C0B60915A0290E080E00E948B
:103D30002C0B90E080E00E94FD0880935A0290E0F6
:103D400080E00E94FD08807F91E0813940F488E2A4
:103D500090E00E94FD0891E0811101C090E0892F60
:103D600090E00E94B60B882351F080915A02805A4D
:103D700080935A0290E09093550280935402609190
:103D80005A0290E080E00C944C1580E00E94FD08FF
:103D900080935A02AECF90E080E00E942509809384
:103DA0005A0290E080E00E94FD088F7091E08A3016
:103DB00040F48AE290E00E94FD0891E0811101C088
:103DC00090E0892F90E00E94B60B61E0811101C064
:103DD00060E08AE290E00E942C0B60915A0270E051
:103DE00090E080E00E942E0B90E080E00E94FD08B1
:103DF000682F6F7060935B0290E080E00E942C0B54
:103E000080915A0290E090935502809354020C9452
:103E1000570F90E080E00E94FD0880935A022091A5
:103E2000760290E0222321F080915A0290915B0269
:103E300058E0259F90011124295F3F4F02C09595BE
:103E400087952A95E2F78170682F619581E090E06F
:103E50000C944C1590E080E00E94250980935A0252
:103E6000209176029927222321F080915A02909185
:103E70005B0248E0249F90011124295F3F4F02C05C
:103E8000959587952A95E2F7817099276627772778
:103E9000681B790B82E090E00C94121589E090E0A9
:103EA0000E9425090E94FA0B80917B0290917C026E
:103EB00005960E94FA0B60916F027091700289E082
:103EC00090E00E942E0B80917302909174020C94EA
:103ED000CA100E94820980915E0290915F020C9448
:103EE0007A120E948209C0915E02D0915F02CC27B3
:103EF00081E090E00E94FD088C0F9D2F911D41CE26
:103F00000E94820960915E02A1CF70927502709248
:103F1000760220916B0284E090E0222311F090E081
:103F200080E0909368028093670260916A0270E07B
:103F3000233008F0C6C001960E94530990E00E9409
:103F40002509EC0160916A0270E08091670290910E
:103F5000680202960E945309209171023091720208
:103F6000829F8001839F100D11240C0F1D1F6091F3
:103F70006A0270E080916702909168020E94530982
:103F8000C82FD0E080916E02811198C060916A02C2
:103F900070E0809167029091680203960E94530935
:103FA000A801BE0190E00E943509BC017093650232
:103FB000609364027093630260936202909169025D
:103FC000492F50E0440F551F809176029A018111CC
:103FD00008C0292F26952695240F352F311D2770CF
:103FE0003327309361022093600280917502882309
:103FF00061F030935F0220935E02709361026093E0
:10400000600230936302209362028091600290917B
:1040100061020E94FD0880935B02909176029923D1
:1040200009F452C080915A0290915B029093590218
:104030008093580280915B0290915C0290935702AA
:104040008093560290935B0280935A02909355029C
:104050008093540260915A028091620290916302AF
:104060000E940C0B809164029091650202960E945E
:10407000FD0880935B02909176029923C9F18091AB
:104080005A0290915B02909359028093580280915A
:104090005B0290915C02909357028093560290933A
:1040A0005B0280935A029093550280935402809150
:1040B000530260915A0290E00C9434118091660290
:1040C0006FCF660F771F72CF20915A0230E0309386
:1040D000590220935802282F30E030935702209342
:1040E000560280935A023093550220935402B2CF65
:1040F00020915A0230E03093590220935802282F21
:1041000030E0309357022093560280935A02309346
:10411000550220935402CBCF80917B0290917C0278
:10412000019690937C0280937B0283E00C94A4150B
:1041300080917B0290917C02029690937C02809306
:104140007B02809173020C94A41580917B02909164
:104150007C02019690937C0280937B0280E390E046
:104160000E94FD08882311F40C94570F84E00C94EE
:10417000A415809173029091740299279093740210
:1041800080937302892B11F40C94A31590E080E0C6
:104190000E94FD0890E060917302709174020E9489
:1041A0007D2181E090E00E942C0B90E080E00E9455
:1041B000FD0890E060917302709174020E947D216D
:1041C00080935A028093540290935502682FD9CD60
:1041D0001092760290E080E00E94FD08C82F81E0F6
:1041E00090E00E94FD0890917302899FC00D1124F8
:1041F0006C2F70E0709355026093540290E080E061
:104200000C94121588E290E00E94FD08682F6195D9
:10421000B8CD90E080E00E94FD08482F50E08091EA
:104220006E02882351F08091660290E063E070E0B6
:104230000E9435090E94FD08C9CF8BE090E0F6CFBF
:1042400088E290E00E94FD08682F672560935A027B
:1042500088E290E00C944C1580915302682F6170B5
:10426000869590E00C944C1590E080E00E94FD084B
:1042700080935A02909176029923B9F020915A02C4
:1042800030915B023093590220935802409173029F
:1042900050917402509357024093560224233523C1
:1042A000309355022093540291CF282F30E0309361
:1042B00059022093580220917302422F50E05093EC
:1042C000570240935602282330E0EACF65EE70E0B3
:1042D00088E994E00E94D70CC0E0D0E02097F1F389
:1042E0000E9451018823D1F30E940000F7CF8091F2
:1042F0005E0290915F0201974ACBAA1BBB1B51E162
:1043000007C0AA1FBB1FA617B70710F0A61BB70B45
:10431000881F991F5A95A9F780959095BC01CD01EA
:10432000089597FB072E16F4009407D077FD09D067
:104330000E947D2107FC05D03EF4909581959F4F0A
:104340000895709561957F4F0895A1E21A2EAA1BDA
:10435000BB1BFD010DC0AA1FBB1FEE1FFF1FA21735
:10436000B307E407F50720F0A21BB30BE40BF50B32
:10437000661F771F881F991F1A9469F760957095BB
:10438000809590959B01AC01BD01CF010895EE0F82
:10439000FF1F0590F491E02D0994A29FB001B39FF7
:1043A000C001A39F700D811D1124911DB29F700D3E
:1043B000811D1124911D0895FB01DC0104C08D9124
:1043C0000190801921F441505040C8F7881B990B87
:1043D0000895FB01DC0102C001900D924150504054
:1043E000D8F70895F894FFCFFFFFFFFF000000000B
:1043F0008701E7001401F3014501230137010000A3
:104400000000F40AE7000F070E0772616D2E626963
:104410006E000D0A002E006469736B2E696D6700D3
:0A44200062696F732E62696E00007E
:107E0000112484B714BE81FFF0D085E080938100F7
:107E100082E08093C00088E18093C10086E0809377
:107E2000C20080E18093C4008EE0C9D0259A86E02C
:107E300020E33CEF91E0309385002093840096BBD3
:107E4000B09BFECF1D9AA8958150A9F7CC24DD24C4
:107E500088248394B5E0AB2EA1E19A2EF3E0BF2EE7
:107E6000A2D0813461F49FD0082FAFD0023811F036
:107E7000013811F484E001C083E08DD089C08234E0
:107E800011F484E103C0853419F485E0A6D080C0E4
:107E9000853579F488D0E82EFF2485D0082F10E0AE
:107EA000102F00270E291F29000F111F8ED06801E7
:107EB0006FC0863521F484E090D080E0DECF843638
:107EC00009F040C070D06FD0082F6DD080E0C81688
:107ED00080E7D80618F4F601B7BEE895C0E0D1E017
:107EE00062D089930C17E1F7F0E0CF16F0E7DF06D8
:107EF00018F0F601B7BEE89568D007B600FCFDCFD4
:107F0000A601A0E0B1E02C9130E011968C91119780
:107F100090E0982F8827822B932B1296FA010C0160
:107F200087BEE89511244E5F5F4FF1E0A038BF0790
:107F300051F7F601A7BEE89507B600FCFDCF97BE46
:107F4000E89526C08437B1F42ED02DD0F82E2BD052
:107F50003CD0F601EF2C8F010F5F1F4F84911BD097
:107F6000EA94F801C1F70894C11CD11CFA94CF0C13
:107F7000D11C0EC0853739F428D08EE10CD085E9AC
:107F80000AD08FE07ACF813511F488E018D01DD067
:107F900080E101D065CF982F8091C00085FFFCCF94
:107FA0009093C60008958091C00087FFFCCF809118
:107FB000C00084FD01C0A8958091C6000895E0E648
:107FC000F0E098E1908380830895EDDF803219F02E
:107FD00088E0F5DFFFCF84E1DECF1F93182FE3DFCA
:107FE0001150E9F7F2DF1F91089580E0E8DFEE27F6
:047FF000FF270994CA
:027FFE00040479
:00000001FF
