:100000000C94BD000C94E5000C94E5000C94E50004
:100010000C94E5000C94E5000C94E5000C94E500CC
:100020000C94E5000C94E5000C94E5000C94E500BC
:100030000C94E5000C94E5000C94E5000C94E500AC
:100040000C941A0D0C94E5000C94E80C0C94C20C62
:100050000C94E5000C94E5000C94E5000C94E5008C
:100060000C94E5000C94E50000000000240027003B
:100070002A0000000000250028002B0004040404CE
:100080000404040402020202020203030303030342
:10009000010204081020408001020408102001021F
:1000A00004081020000000080002010000030407FB
:1000B00000000000000000002E20446F6E6521004B
:1000C0002E20446F6E652120496E69742066696C2C
:1000D0006573797374656D00496E697420534420AB
:1000E00063617264004D616368696E652068616C6C
:1000F00074656421005374617274696E6720763888
:10010000362E2E2E00436F7079726967687420282E
:100110004329203230323120407261737069647536
:10012000696E6F2C20756E6465722047504C2D7679
:1001300033006176722D763836202D20496E746535
:100140006C203830383620656D756C61746F7220A4
:1001500072756E6E696E67206F6E2041726475698C
:100160006E6F20554E4F007C3C3E5E2B3D3F2F5B1B
:100170005D3B2C2A225C0000640D11241FBECFEFD2
:10018000D8E0DEBFCDBF11E0A0E0B1E0E8E8F5E3E4
:1001900002C005900D92A234B107D9F725E0A2E480
:1001A000B1E001C01D92A834B207E1F710E0CDEB39
:1001B000D0E004C02197FE010E94971ACC3BD107E2
:1001C000C9F70E949A0D0C94C21A0C940000AF92C9
:1001D000BF92CF92DF92EF92FF920F931F93CF9334
:1001E000DF936C017B018B01040F151FEB015E0196
:1001F000AE18BF08C017D10759F06991D601ED912B
:10020000FC910190F081E02DC6010995892B79F7C9
:10021000C501DF91CF911F910F91FF90EF90DF907B
:10022000CF90BF90AF900895FC01538D448D252F42
:1002300030E0842F90E0821B930B541710F0CF9680
:10024000089501970895FC01918D828D981761F0B2
:10025000A28DAE0FBF2FB11D5D968C91928D9F5FC9
:100260009F73928F90E008958FEF9FEF0895FC01A8
:10027000918D828D981731F0828DE80FF11D858D5B
:1002800090E008958FEF9FEF0895FC01918D228DEE
:10029000892F90E0805C9F4F821B91098F73992773
:1002A000089587E994E00E94450121E0892B09F433
:1002B00020E0822F089580E090E0892B29F00E94B1
:1002C000510181110C9400000895FC01A48DA80F28
:1002D000B92FB11DA35ABF4F2C91848D90E0019688
:1002E0008F739927848FA689B7892C93A089B189A8
:1002F0008C91837080648C93938D848D981306C049
:100300000288F389E02D80818F7D80830895EF92AC
:10031000FF920F931F93CF93DF93EC0181E0888FBF
:100320009B8D8C8D98131AC0E889F989808185FF8F
:1003300015C09FB7F894EE89FF896083E889F98931
:1003400080818370806480839FBF81E090E0DF9133
:10035000CF911F910F91FF90EF900895F62E0B8D86
:1003600010E00F5F1F4F0F731127E02E8C8D8E1141
:100370000CC00FB607FCFACFE889F989808185FFA8
:10038000F5CFCE010E946501F1CFEB8DEC0FFD2F73
:10039000F11DE35AFF4FF0829FB7F8940B8FEA8963
:1003A000FB8980818062CFCFEF92FF920F931F93E2
:1003B000CF93DF938C017B01D0E0C0E0F701EC0F1D
:1003C000FD1F6491662339F0C8010E948701892BC3
:1003D00011F02196F3CFCE01DF91CF911F910F91B4
:1003E000FF90EF900895CF93DF93EC01888D8823E1
:1003F000B9F0AA89BB89E889F9898C9185FD03C088
:10040000808186FD0DC00FB607FCF7CF8C9185FF6C
:10041000F2CF808185FFEDCFCE010E946501E9CF4B
:10042000DF91CF91089590E0FC01EC55FF4F2491AE
:10043000FC01E057FF4F3491FC01E458FF4FE49179
:10044000EE23C9F0222339F0233001F1A8F4213042
:1004500019F1223029F1F0E0EE0FFF1FEE58FF4FA7
:10046000A591B4918FB7F894EC91611126C03095A5
:100470003E233C938FBF08952730A9F02830C9F060
:10048000243049F7809180008F7D03C080918000E7
:100490008F7780938000DFCF84B58F7784BDDBCFEB
:1004A00084B58F7DFBCF8091B0008F778093B000B3
:1004B000D2CF8091B0008F7DF9CF3E2BDACFCF9392
:1004C000DF9390E0FC01E057FF4F249184589F4F49
:1004D000FC0184918823D1F090E0880F991FFC01E2
:1004E000E859FF4FA591B491FC01EE58FF4FC5911B
:1004F000D49161110EC09FB7F8948C91E22FE095D2
:100500008E238C932881E223E8839FBFDF91CF91D4
:1005100008958FB7F894EC91E22BEC938FBFF6CF50
:100520002FB7F89460914C0170914D0180914E016C
:1005300090914F012FBF08958EBD0DB407FEFDCFE2
:10054000089561E0FC0182810E9413028FEF0C94F8
:100550009C028FEF8EBD0DB407FEFDCF8EB50895C2
:10056000FF920F931F93CF93DF93F82E8B010E947E
:100570009002EB010E94A9028F1571F00E94900277
:100580006C1B7D0B06171707A8F780E0DF91CF9152
:100590001F910F91FF90089581E0F8CFCF92DF92E5
:1005A000EF92FF921F93CF93DF93FC01162F690107
:1005B0007A01838122E090E0281728F4963019F020
:1005C000220F9F5FF9CF292F206A26952CBD90FD21
:1005D00003C021E0963009F420E02DBD60E0828167
:1005E0000E94130268E572E08FEF0E94B002812F33
:1005F00080640E949C02C8E1D0E0D701C6010C2EA5
:1006000004C0B695A795979587950A94D2F70E944E
:100610009C022897C83F8FEFD80779F78FEF111109
:1006200001C085E90E949C02C0E00E94A90287FFE8
:1006300004C0CF3F11F0CF5FF8CFDF91CF911F9172
:10064000FF90EF90DF90CF900895CF93DF93EC0170
:100650009A01AB0189E0220F331F441F551F8A9571
:10066000D1F768E1CE010E94CE02882349F083E0F1
:100670008883CE010E94A10280E0DF91CF9108958E
:100680008EEF8EBDE7E9F2E00DB407FEFDCF81915C
:100690008EBD84E0E739F807B9F70DB407FEFDCF4A
:1006A0008FEF0E949C028FEF0E949C020E94A90281
:1006B000982F9F71953019F0898386E0D9CF68E52E
:1006C00072E08FEF0E94B002811105C087E088833D
:1006D000CE010E94A102CE010E94A10281E0CDCFF5
:1006E0000F931F93CF9380914601C1E0882399F027
:1006F000009180021091810240910001509101010E
:100700006091020170910301C8010E942503C82F66
:10071000811106C0C0E08C2FCF911F910F910895D9
:100720004091420150914301609144017091450113
:10073000411551056105710569F0C8010E94250345
:10074000882341F310924201109243011092440118
:100750001092450110924601DECFCF92DF92EF92C8
:10076000FF921F93CF93DF936B017C01142F809135
:10077000000190910101A0910201B09103018C153B
:100780009D05AE05BF0509F44FC00E947003882384
:10079000C9F0C0918002D0918102A701960189E041
:1007A000220F331F441F551F8A95D1F761E1CE01F7
:1007B0000E94CE02882371F084E08883CE010E94DB
:1007C000A10280E0DF91CF911F91FF90EF90DF9029
:1007D000CF9008956CE271E08EEF0E94B00281111B
:1007E00005C085E08883CE010E94A1028FEF8EBDF7
:1007F000E7E9F2E00DB407FEFDCF9EB591938EBD03
:1008000094E0E739F907B1F70DB407FEFDCF0E9478
:10081000A902CE010E94A102C0920001D092010162
:10082000E0920201F092030181E0112359F28093DA
:100830004601C8CF4F925F926F927F929F92AF9284
:10084000BF92CF92DF92EF92FF920F931F93CF93BD
:10085000DF932FE632E030938102209380028823D9
:1008600009F4DEC040E060E070E0CB010E94AD031F
:10087000811112C0D0E08D2FDF91CF911F910F9188
:10088000FF90EF90DF90CF90BF90AF909F907F90C0
:100890006F905F904F900895C0905D04D0905E047B
:1008A000E0905F04F090600440E0C701B6010E9450
:1008B000AD03D82F8823F1F2809195048535D1F6C8
:1008C000809196048A3AB1F69090A70290927F02A6
:1008D000C091A402C09393020091AD021091AE02A8
:1008E00010937E0200937D022091A8023091A9020C
:1008F0003093950220939402A090A502B090A60296
:10090000D701C6018A0D9B1DA11DB11D80937902DF
:1009100090937A02A0937B02B0937C02909EA001F8
:10092000919E500D1124840F951FA11DB11D809320
:10093000750290937602A0937702B093780245E017
:10094000220F331F4A95E1F721503E4F232F3327C3
:100950002695820F931FA11DB11D80938F02909346
:100960009002A0939102B09392024090AA025090FC
:10097000AB02712C612C4114510441F44090B70238
:100980005090B8026090B9027090BA02C81AD90AA1
:10099000EA0AFB0AC701B601640D751D861D971D85
:1009A0002C2F30E050E040E00E94751A3093740222
:1009B000209373026091A2027091A30261157240AC
:1009C00009F058CF0115110509F454CF253F6FE008
:1009D000360708F44FCF81E04816510480E86806D6
:1009E000710408F047CFAB2809F444CF992009F4EB
:1009F00041CFC32EDD240C151D0508F43BCFCC23BD
:100A000009F438CF8C2F90E09C01215031098223CA
:100A10009323892B09F02ECF81E0809396022BCF70
:100A2000C12CD12C760140CFCF92DF92EF92FF9272
:100A30000F931F93CF93DF938230910550F480E0A2
:100A4000DF91CF911F910F91FF90EF90DF90CF90AA
:100A5000089520917302309174022F5F3F4F281741
:100A6000390768F3EB018C01212F3327C0907902FD
:100A7000D0907A02E0907B02F0907C02C20ED31EEE
:100A8000E11CF11C8091000190910101A0910201F3
:100A9000B0910301C816D906EA06FB0689F4F801ED
:100AA000FF27EE0FFF1FE956FD4FD183C08381E082
:100AB0008093460180917F02823050F481E0C0CF64
:100AC00040E0C701B6010E94AD038111E8CFB7CF66
:100AD00080917D0290917E02C80ED91EE11CF11C0E
:100AE000C0924201D0924301E0924401F09245014C
:100AF000E5CFCF92DF92EF92FF920F931F93CF93A8
:100B0000DF9320917302309174022F5F3F4F2817BB
:100B1000390750F480E0DF91CF911F910F91FF9042
:100B2000EF90DF90CF9008958B01EC012D2F3327AC
:100B30006091790270917A0280917B0290917C029F
:100B4000620F731F811D911DC0900001D0900101A3
:100B5000E0900201F09003016C157D058E059F0564
:100B600061F4DD27CC0FDD1FC956DD4F88819981E7
:100B7000F8019183808381E0CECF40E00E94AD03F5
:100B80008111EFCFC7CF4F925F926F927F928F927A
:100B90009F92AF92BF92CF92DF92EF92FF920F930C
:100BA0001F93CF93DF93EC016A017B018D818370EA
:100BB00091F480E0DF91CF911F910F91FF90EF9022
:100BC000DF90CF90BF90AF909F908F907F906F906D
:100BD0005F904F9008958A859B85AC85BD858C1567
:100BE0009D05AE05BF0528F3C114D104E104F1044D
:100BF00041F41F861E86188A198A1A8A1B8A81E088
:100C0000D9CF80909302912CB12CA12CCB01BA01A9
:100C1000615071098109910939E096958795779519
:100C200067953A95D1F7A50194010E94751A89013B
:100C300088899989AA89BB89C816D906EA06FB065C
:100C400020F00097A105B105A9F4888599859F87B3
:100C50008E875E018EE0A80EB11C01151105F1F022
:100C6000B5018E859F850E9479050150110981117A
:100C7000F4CF9FCFBC01CD01615071098109910969
:100C800029E096958795779567952A95D1F7A501DF
:100C900094010E94751A021B130BDBCFC88AD98AF4
:100CA000EA8AFB8AACCFCF93DF93209194023091F4
:100CB00095028217930728F090E080E0DF91CF91B2
:100CC0000895462FEC019C0154E0369527955A95DE
:100CD000E1F76091750270917602809177029091B0
:100CE0007802620F731F811D911D0E94AD0388233E
:100CF00019F3CE018F70992725E0880F991F2A9547
:100D0000E1F789569D4FDACFCF93DF93FC01258120
:100D100027FF18C0EC0161E0868197810E9453068D
:100D20000097A1F04A855B856C857D85FC01448F29
:100D3000558F668F778F28853985338F228F8D81E8
:100D40008F778D83DF91CF910C94700380E0DF91DA
:100D5000CF91089584E395E00E94840610923905AE
:100D60000895CF92DF92EF92FF920F931F93CF934C
:100D7000DF9300D0CDB7DEB77C01FC010685178577
:100D80000115110511F401E010E0D12CC12C809166
:100D9000730290917402C816D906F8F4801791076F
:100DA00010F401E010E00F5F1F4FBE016F5F7F4F37
:100DB000C8010E947905882381F089819A81892B55
:100DC00021F0FFEFCF1ADF0AE2CF6FEF7FEFC8010C
:100DD0000E941405D82E81110DC0D12C8D2D0F909D
:100DE0000F90DF91CF911F910F91FF90EF90DF90C7
:100DF000CF900895F70186859785009749F0B8014F
:100E00000E941405882349F3F70117870687E6CF68
:100E100085818068858311870087F6CF089590E0EB
:100E200080E008950F931F93CF93DF93D0919602A4
:100E3000D11107C0D0E08D2FDF91CF911F910F917D
:100E40000895209139052370A9F7C62F8C0160E021
:100E50000E945306FC01892B69F38081882351F39A
:100E6000853E41F38385982F987121F780FF03C059
:100E70008C2F8271F9F61092430510924205109260
:100E800044051092450510924605109247051093AF
:100E90003B0500933A05848D958DA68DB78D809383
:100EA0003E0590933F05A0934005B0934105828D88
:100EB000938D90933D0580933C05CF70C093390589
:100EC000BACFAF92BF92CF92DF92FF920F931F9350
:100ED000CF93DF93CDB7DEB72B970FB6F894DEBF75
:100EE0000FBECDBF382F80919602882309F468C0C9
:100EF000209139052370B9F4FE013196AE01445FAB
:100F00005F4F6F0180E28193E417F507E1F7A32FAC
:100F1000B92F90E027E08D91382F882321F18E3270
:100F200039F42A3011F480E04BC098E02AE0F3CF86
:100F3000E7E6F1E04491442321F031968413FACF9F
:100F4000F2CF291780F34FED480F4E3560F74FE988
:100F5000480F4A3110F430EE380FF601E90FF11D59
:100F600030839F5FD8CF89818032E9F2F62E10E07E
:100F700000E0AA24AA94BA2C809194029091950240
:100F80000817190790F560E0C8010E945306BC01DC
:100F9000009749F2FC019081992311F1953E29F4C3
:100FA000B7FC20C00F5F1F4FE7CF4BE050E0C601FA
:100FB0000E94AC1A892BB1F76F2DC8010E9412074D
:100FC0002B960FB6F894DEBF0FBECDBFDF91CF9149
:100FD0001F910F91FF90DF90CF90BF90AF90089539
:100FE000B7FE05C058019111DDCFB7FC9CCF6F2D26
:100FF0006274623409F097CF61E0C5010E94530624
:10100000009709F490CF20E2FC0111922A95E9F7AC
:101010002BE0F601DC0101900D922A95E1F721E227
:1010200038E2FC01318B208B40E058E0578746873F
:10103000338B228B318F208F578B468B0E9470030E
:10104000882309F470CF62E4C501B8CF4F925F9254
:101050006F927F928F929F92AF92BF92CF92DF92C8
:10106000EF92FF920F931F93CF93DF935C018B015D
:101070008091390580FD13C08FEF9FEFDF91CF91F5
:101080001F910F91FF90EF90DF90CF90BF90AF90A6
:101090009F908F907F906F905F904F900895809178
:1010A000440590914505A0914605B09147054091B2
:1010B0003E0550913F0560914005709141056C01DE
:1010C0007D01C00ED11EE11CF11C4C155D056E05A5
:1010D0007F0518F48A01081B190B7801812C32E076
:1010E000932EE114F10409F486C080914405909197
:1010F0004505A0914605B0914705C0909302AC010B
:10110000BD0129E076956795579547952A95D1F7C2
:10111000DD24DA94DC0CD422EC01D170DD2009F45A
:1011200048C0209142053091430522503109AC2D31
:10113000B0E00E949D1A40908F0250909002609003
:10114000910270909202640D751D861D971D6D0DA4
:10115000711D811D911D40E00E94AD03882309F49B
:101160008BCFC4018C1B9D0B67018E159F0508F466
:101170006C01BE0169567D4FA601C5010E94B91AD6
:101180008091440590914505A0914605B091470591
:101190008C0D9D1DA11DB11D8093440590934505A7
:1011A000A0934605B0934705AC0CBD1CEC18FD0898
:1011B00098CF209709F0B5CF8091420590914305D3
:1011C000009791F480913C0590913D0590934305E3
:1011D0008093420580914205909143050297863F96
:1011E0009F4F08F49ECF48CF62E475E00E947905D6
:1011F0008111F0CF41CFC80141CF0F931F93CF93FF
:10120000DF931F92CDB7DEB78C0161E082E291E0FF
:101210000E946107A80170E060E084E395E00E940D
:10122000C30561E070E0CE0101960E9426080981A5
:10123000019711F00FEF1FEF0E94AA06802F0F9069
:10124000DF91CF911F910F9108951F93CF93DF935B
:10125000EC010E94FD08182FCE0101960E94FD08A6
:10126000912FDF91CF911F910895EF92FF920F93ED
:101270001F93CF93DF937B01EA010E9425098C0124
:10128000C7010E94250924E0000F111F2A95E1F7EC
:101290008C0F9D1F800F911FDF91CF911F910F9198
:1012A000FF90EF900895CF93DF93EB018F579F4FFF
:1012B0000E9425098C0F9D1FDF91CF910C94FD0892
:1012C000CF93DF9380936C02C82FD0E0BE0188E0FB
:1012D00090E00E94530980935402BE0189E090E09F
:1012E0000E94530980935202BE018EE090E00E945A
:1012F000530980936102BE018AE090E0DF91CF91B3
:101300000C9453092F923F924F925F926F927F926B
:101310008F929F92AF92BF92CF92DF92EF92FF9205
:101320000F931F93CF93DF9300D0CDB7DEB78C011F
:101330005B014A01FC01858181FFDEC082FDC9C0DD
:101340006401212C32E0332EF80180899189A28931
:10135000B38970909302AC01BD0129E07695679541
:10136000579547952A95D1F766246A94670C6422AD
:101370007C01F1E0FF2261101FC0F801868597858E
:10138000E114F10409F0E5C0009709F4B9C0BE0109
:101390006F5F7F4F0E947905882309F4ADC0898172
:1013A0009A81883FFFEF9F0708F4C9C0C8010E94D7
:1013B000B106882309F4A0C0F8012685378522509C
:1013C0003109A72DB0E00E949D1A20918F02309123
:1013D00090024091910250919202620F731F841FFC
:1013E000951F9B01AC01260D311D411D511D290189
:1013F0003A01E114F10409F0BFC0F80140895189B4
:101400006289738982859385A485B58548175907B4
:101410006A077B0708F4B0C00E947003882309F4B0
:101420006BC04092000150920101609202017092E3
:10143000030181E08093460131016E187F08C614D4
:10144000D70408F43601A301B501C70189569D4FA1
:101450000E94B91AF80180899189A289B389860D01
:10146000971DA11DB11D808B918BA28BB38BC618CC
:10147000D708A60CB71CC114D10409F065CF42856A
:10148000538564857585481759076A077B0738F4C3
:10149000258182879387A487B58720682583F801F3
:1014A000858183FD50C0C4010F900F90DF91CF91D3
:1014B0001F910F91FF90EF90DF90CF90BF90AF9072
:1014C0009F908F907F906F905F904F903F902F9064
:1014D0000895428553856485758580899189A2899F
:1014E000B389481759076A077B0709F429CFC80150
:1014F0000E94C305811124CF81E0F801848343C099
:10150000808591850097D9F4C8010E94B10688238F
:1015100099F3F8012685378522503109A72DB0E0CF
:101520000E949D1A40908F0250909002609091020C
:1015300070909202460E571E681E791E5ECFF8010B
:101540009787868739CFC8010E9484068111ABCF67
:10155000D3CF9C0122503109A72DB0E00E949D1AE3
:1015600040908F0250909002609091027090920291
:10157000460E571E681E791E41E0C301B2010E944B
:10158000AD03811159CF8FEF9FEF8ECFCF93DF93B4
:101590001F92CDB7DEB7698341E050E0BE016F5FB7
:1015A0007F4F0E94820921E030E0019711F030E086
:1015B00020E0C9010F90DF91CF9108951F93CF9341
:1015C000DF93EC01162F62E082E291E00E94610756
:1015D000AE0170E060E084E395E00E94C305612FF6
:1015E00070E041E050E084E395E00E9482090E94AF
:1015F000AA06812FDF91CF911F9108950C94DE0AE6
:101600000F931F93CF93DF938C01D62FC72F0E9488
:10161000FE0A6C2FC80101960E94FE0A8D2F9C2F96
:10162000DF91CF911F910F91089561E0892B09F40B
:1016300060E080E390E00C94FE0A60918602709175
:101640008702809184029091850268277927809192
:1016500082029091830268277927709385026093B4
:10166000840284E0769567958A95E1F761708AE255
:1016700090E00E94FE0A20918202309183028091C4
:1016800086029091870228173907E1F088E290E0FE
:101690000E94FD084091890298E0499FA001112411
:1016A000495F5F4F209184023091850202C03695D8
:1016B00027954A95E2F7A9014827CA018170992721
:1016C0000C94150B60E080E390E00E94FE0A80E03D
:1016D000089561E0892B09F460E088E290E00C94C1
:1016E000FE0ACF93DF93EC0181E08093890284E0CE
:1016F00090E00E942509BC016E5F7F4F84E090E07E
:101700000E94000B4EEF5FEF64E070E08AE090E033
:101710000E9435090E94FD0880938A028093880206
:1017200090918902D0938702C0938602992399F001
:10173000809188029091890290938502809384021F
:101740009093830280938202109289028091880292
:10175000DF91CF91089590E0EFCFCF93DF93EC012D
:1017600081E0809389024FEF5FEF64E070E08AE0F0
:1017700090E00E9435090E94FD0880938A028093C0
:10178000880290918902992351F120918802309129
:1017900089023093870220938602D0938502C093FA
:1017A0008402D0938902C0938802D0938302C093AD
:1017B0008202C09188028C1759F04FEF5FEF64E00E
:1017C00070E08AE090E00E9435096C2F0E94DE0AEA
:1017D0001092890280918802DF91CF910895282F7D
:1017E00030E030938702209386029E0133273093A6
:1017F000850220938402C093880230938302209351
:101800008202D7CF0F931F93CF938DEC0E94600974
:1018100082E090EF90938E0280938D0209E010E0B9
:1018200001501109E0F0C80188960E94FD08C82FF8
:10183000B80183E190E00E9453092C2F30E002C0F0
:10184000220F331F8A95E2F780918D0290918E02CC
:10185000280F391F30938E0220938D02E1CF8091A3
:101860008D0290918E020E94AD0B89E090E00E9463
:1018700025090E94AD0B80918B0290918C020E94F1
:10188000AD0B82E090E00E94FD0880938A02909167
:101890008902992309F44CC08091880290918902B1
:1018A000909387028093860280918A0290918B02A6
:1018B000909385028093840290938902809388029A
:1018C00090938302809382026091880282E190E08B
:1018D0000E94DE0A2091890280918B0290918C02F5
:1018E00090938702809386028091FA1190E02223E0
:1018F00021F08091FA119091FB11909385028093D1
:10190000840290938C0280938B0290938302809345
:10191000820260E08DE290E00E94FE0A60E08EE2CA
:1019200090E00E94FE0A80E0CF911F910F910895F0
:101930002091880230E03093870220938602282F7E
:1019400030E03093850220938402809388023093A4
:10195000830220938202B8CF0F931F93CF93DF931C
:10196000EC010E94D4018C0142E050E06AE271E097
:10197000CE010E94E700800F911FDF91CF911F9150
:101980000F9108951F920F920FB60F9211242F936B
:101990003F934F935F936F937F938F939F93AF93F7
:1019A000BF93EF93FF9387E994E00E946501FF9155
:1019B000EF91BF91AF919F918F917F916F915F91C7
:1019C0004F913F912F910F900FBE0F901F90189540
:1019D0001F920F920FB60F9211242F938F939F9304
:1019E000EF93FF93E091A704F091A8048081E09128
:1019F000AD04F091AE0482FD1BC090818091B004D3
:101A00008F5F8F732091B104821741F0E091B00491
:101A1000F0E0E956FB4F958F8093B004FF91EF9172
:101A20009F918F912F910F900FBE0F901F9018953F
:101A30008081F4CF1F920F920FB60F9211242F9333
:101A40003F938F939F93AF93BF9380914C0190915D
:101A50004D01A0914E01B0914F0130914B0123E017
:101A6000230F2D3758F50196A11DB11D20934B0171
:101A700080934C0190934D01A0934E01B0934F0180
:101A80008091470190914801A0914901B0914A018C
:101A90000196A11DB11D8093470190934801A09329
:101AA0004901B0934A01BF91AF919F918F913F91AE
:101AB0002F910F900FBE0F901F90189526E8230FBF
:101AC0000296A11DB11DD2CFE7E9F4E01382128284
:101AD00088EE93E0A0E0B0E084839583A683B7838B
:101AE00088E091E09183808385EC90E095878487FE
:101AF00084EC90E09787868780EC90E0918B808BD8
:101B000081EC90E0938B828B82EC90E0958B848BC0
:101B100086EC90E0978B868B118E128E138E148E2E
:101B2000E4E3F5E0138212828AE191E091838083FD
:101B300015820895789484B5826084BD84B58160EF
:101B400084BD85B5826085BD85B5816085BD809188
:101B50006E00816080936E00109281008091810000
:101B600082608093810080918100816080938100F8
:101B7000809180008160809380008091B1008460BA
:101B80008093B1008091B00081608093B00080911B
:101B90007A00846080937A0080917A0082608093DA
:101BA0007A0080917A00816080937A0080917A0037
:101BB000806880937A001092C100E091A704F091B0
:101BC000A80482E08083E091A304F091A404108231
:101BD000E091A504F091A6048FEC80831092AF04ED
:101BE000E091AB04F091AC0486E08083E091A9041D
:101BF000F091AA04808180618083E091A904F09132
:101C0000AA04808188608083E091A904F091AA04ED
:101C1000808180688083E091A904F091AA0480818A
:101C20008F7D808362E371E087E994E00E94AC0CD1
:101C300065E071E087E994E00E94AC0C68ED70E02B
:101C400087E994E00E94D40102E07AE0F72EE3E510
:101C5000EE2E00937202F092710210926F020E94B7
:101C60009002EB0161E0809171020E945F0261E0ED
:101C7000809171020E94130260E08CE00E945F027A
:101C800061E08AE00E945F0261E08AE00E94130244
:101C900061E08BE00E945F0261E08DE00E945F02E4
:101CA000ECBC1AE08FEF0E949C021150D9F760E063
:101CB000809171020E94130220E030E0A90160E0EF
:101CC0008FE692E00E94CE02182F8130C9F00E9468
:101CD00090026C1B7D0B613D774070F31093700296
:101CE00081E080936F028FE692E00E94A10241E0C2
:101CF00050E06DE271E087E994E00E94E700A9CF2F
:101D000020E030E0A90167E38FE692E00E94CE0276
:101D100020E030E0A90169E28FE692E00E94CE0265
:101D2000182F882361F00E9490026C1B7D0B613D8F
:101D3000774030F31093700200936F02D4CF8FE698
:101D400092E00E94A10260EC70E087E994E00E94BA
:101D5000D40181E00E941A0481110DC00E941A046E
:101D6000811109C041E050E06DE271E087E994E043
:101D70000E94E700EECF68EB70E087E994E00E94F4
:101D8000AC0C65EF70E087E994E00E94AC0C60E079
:101D900070EF89E090E00E94000B60E08DE290E03F
:101DA0000E94FE0A60E884E090E00E94FE0A63E080
:101DB0008FE291E00E94610760913E0570913F05BE
:101DC00090E080E00E94000BD0E0C0E0C1305FEF07
:101DD000D50750F561E088E391E00E94610760E873
:101DE00070E080E591E00E942608C80FD91F0E948C
:101DF000AA0662E482E291E00E946107AE010D2E24
:101E0000000C660B770B615F7F4F84E395E00E94C7
:101E1000C30540E850E060E571E084E395E00E948E
:101E200082090E94AA06D2CF80E091E090938C02B2
:101E300080938B0234E0432E512C772473944CE032
:101E4000242E01E010E05AE1852E912C63E0662EED
:101E5000D12CC12CB12CA12C89E090E00E94250945
:101E600024E0880F991F2A95E1F720918B02309189
:101E70008C02820F931F0E94FD08282F30E03093C0
:101E80006E0220936D02882311F40C943C1A0E9478
:101E90006009A0916C028A2F877080936B02A170F9
:101EA000A09389028695817080936A02E0916D0209
:101EB000F0916E0291817281292F372F3093690240
:101EC00020936802B38170936602B09367024381E6
:101ED000548150936502409364024091630244230D
:101EE00019F041504093630240916202442319F07B
:101EF00041504093620280916102882309F48FC0AF
:101F0000A901D6E056954795DA95E1F743704093DD
:101F10006002977090935F0283E0369527958A95CB
:101F2000E1F7277020935E0241118FC0963009F0CF
:101F300091C024813581309365022093640224E0AE
:101F400030E0411193C030935D0220935C02692F11
:101F500070E0433009F490C0C90101960E94530912
:101F600090E00E942509EC0160915F0270E0809191
:101F70005C0290915D0202960E94530920916602D4
:101F800030916702829F7001839FF00C1124EC0E48
:101F9000FD1E60915F0270E080915C0290915D0295
:101FA0000E945309C82FD0E080916302811161C063
:101FB00060915F0270E080915C0290915D020396F7
:101FC0000E945309A701BE0190E00E943509909339
:101FD0005A0280935902909358028093570230918D
:101FE0005E02432F50E0440F551F209189022223A7
:101FF00009F451C09A013093560220935502409142
:102000006A02442361F030938E0220938D029093F4
:102010005602809355023093580220935702E09164
:102020005402EC3008F018CFF0E0E75EFF4E0C945D
:10203000971A5410A6101A110A1112119A11CA12E5
:1020400070158B15C915FA178919423009F471CF2B
:10205000413029F070936402B093650270CF272F4E
:10206000770F330B309367022093660230E020E055
:102070006ACF80915B02A6CF660F771FAA2311F06B
:10208000CB01A5CF892F86958695860F972F911D19
:10209000877099279CCF232F26952695240F352FBF
:1020A000311D27703327A7CF60916C02669567704A
:1020B00060935302E09068020E2C000CFF08C09160
:1020C0008902D0E070E08FE090E00E94530990E038
:1020D0000E94FD088823A1F091E0C927CE9DC00190
:1020E000CF9D900DDE9D900D112420918B0230919B
:1020F0008C02820F931F90938C0280938B02ACCE44
:102100006091530270E080E190E00E94530990E0FA
:102110000E94FD088111E0CF6091530270E081E1DF
:1021200090E00E94530990E00E94FD08382E6091D3
:10213000530270E082E190E00E94530990E00E9417
:10214000250991E03812C9CF90E0C7CF90916C0279
:1021500081E0492F487093FF80E08093890290913D
:102160006B02292F30E0220F331F442389F1C9016C
:102170000E94FD0880938A02809388024091890220
:10218000442379F18091880290918902909387028B
:1021900080938602809168029091690290938502F3
:1021A00080938402909389028093880290938302A3
:1021B000809382026091880290916B02292F30E017
:1021C000220F331F4423E9F0C9010E94DE0A44CEE6
:1021D000892F86958695820F932F911D8770992759
:1021E000C7CF90E090938702809386022091680287
:1021F000822F90E09093850280938402209388023E
:10220000D5CF892F86958695820F932F911D877044
:102210009927DBCF80916B0290E00E9425090E94F4
:10222000AD0B1ACE80916B0290E00E9425090E94AE
:10223000710B12CE7092890210926A0280916B0229
:1022400080935E022091600284E090E0222311F0EE
:1022500090E080E090935D0280935C0260915F0269
:1022600070E0233008F0F4C001960E94530990E01A
:102270000E942509EC0160915F0270E080915C0290
:1022800090915D0202960E9453092091660230915E
:102290006702829F7001839FF00C1124EC0EFD1EDB
:1022A00060915F0270E080915C0290915D020E94FB
:1022B0005309C82FD0E0809163028111C6C060919C
:1022C0005F0270E080915C0290915D0203960E9433
:1022D0005309A701BE0190E00E94350990935A026C
:1022E00080935902909358028093570230915E0276
:1022F000432F50E0440F551F20918902222309F4F7
:10230000ABC09A01309356022093550240916A0265
:10231000442361F030938E0220938D0290935602F5
:1023200080935502309358022093570280915202B5
:1023300080935E0280915E02823008F0B0C088E136
:1023400090E00E94FD0880938A029091890220917A
:102350005E02992309F489C08091880290918902D4
:10236000909387028093860240918A0250918B025B
:102370005093850240938402840F951F019630E0AC
:10238000220F331F821B930B909389028093880244
:10239000909383028093820260918802809155021B
:1023A000909156020E94DE0A1093850200938402E7
:1023B0000E941D0B8091890278E0879FC001112443
:1023C0000796A80102C0440F551F8A95E2F7209195
:1023D0008602309187022F5F3F4F80915E02281B5B
:1023E000310981E090E04217530711F090E080E05E
:1023F0000E94150B8091890228E0829FC001112460
:102400000796A80102C0440F551F8A95E2F7209154
:102410008602309187022F5F3F4F80915E02281B1A
:10242000310981E090E04217530711F090E080E01D
:102430000E94150B80915402853019F480E10E94AE
:1024400060098091880290E0EACE80915B0241CFE2
:10245000CB01880F991F42CF232F26952695240F55
:10246000352F311D277033274DCF40918802642FBF
:1024700070E0709387026093860290E090938502EB
:102480008093840230E0220F331FB801621B730B6C
:10249000860F971F840F8093880290E079CF863053
:1024A00009F46FC0833031F489E090E00E9425097F
:1024B0000E94AD0B80915E0281FF23C0809160027B
:1024C00021E030E0833011F430E020E0829FA00171
:1024D000839F500D1124811105C021E080915F027E
:1024E000863009F020E080918B0290918C02029658
:1024F000840F951F30E0220F331F820F931F0E941D
:10250000AD0B80915E0280FF07C0809155029091D3
:10251000560202960E94FD08809155029091560243
:1025200002960E94FD08682F70E089E090E00E940A
:10253000000B80915502909156020E94FD088093F5
:1025400088029091890220918B0230918C02309305
:10255000870220938602992391F0809188029091BE
:102560008902909385028093840290938C028093D9
:102570008B0290938302809382028AE960CF90E07D
:10258000F0CF8091590290915A020E94FD088093E9
:10259000880257CF8091550290915602909358022D
:1025A00080935702E0915E02E83008F055CCF0E0ED
:1025B000E452FD4E0C94971AE4122C0F2F1366135D
:1025C000BB1323148614051580E20E946009209134
:1025D0008B0230918C022F5F3F4F80918902820FD6
:1025E000932F911D90938C0280938B0280915702C0
:1025F000909158020E94FD08809388029091890270
:102600009923E1F02091880230918902309387026A
:102610002093860240916402509165025093850296
:102620004093840224233523309383022093820233
:10263000682F8091570290915802C7CD282F30E023
:10264000309387022093860220916402422F50E04B
:102650005093850240938402282330E0E5CF0E9406
:10266000FD0880938A02909189029923B9F08091A4
:1026700088029091890290938702809386028091CC
:102680008A0290918B0290938502809384028095B8
:102690009095909389028093880211C020918802BE
:1026A00030E03093870220938602282F30E0309369
:1026B00085022093840280958093880290E0909315
:1026C00083028093820260918802B3CF0E94FD084A
:1026D00080938A02909189029923D9F1809188028E
:1026E00090918902909387028093860280918A025A
:1026F00090918B02909385028093840291958195AD
:102700009109909389028093880290938302809329
:1027100082026091880280915702909158020E9433
:10272000DE0A109287021092860288E20E946009F7
:1027300081E090E0409182025091830220918602D4
:10274000309187022417350708F072C20E94690B86
:1027500083CB2091880230E0309387022093860259
:10276000282F30E030938502209384028195809356
:10277000880290E0CACF80918902882391F180E19C
:102780000E946009C0915902D0915A02C350D74F9C
:1027900090E080E00E942509C89FB001C99F700D9C
:1027A000D89F700D11247093830260938202770F7B
:1027B000660B762F8091890290E001960E94000BB3
:1027C000609182027091830290E080E00E94000B91
:1027D00060E088E290E00E94FE0AC5010E94150BAD
:1027E0003BCB80E10E946009C0915902D0915A020E
:1027F000C350D74FDD2790E080E00E94FD08482FAE
:102800004C9FC0014D9F900D1124909383028093A3
:1028100082028091890290E060E001960E94FE0AA7
:10282000609182027091830290E080E00E94000B30
:10283000809182029091830288270E94690B082E62
:10284000000C990BCBCF80918902882381F180E124
:102850000E946009C0915902D0915A02C350D74FCB
:1028600090E080E00E942509C89FB001C99F700DCB
:10287000D89F700D11247093830260938202770FAA
:10288000660B762F8091890290E001960E94000BE2
:10289000609182027091830290E080E00E94000BC0
:1028A00060E088E290E00E94FE0AC60197CF80E1D6
:1028B0000E946009C0915902D0915A02C350D74F6B
:1028C00090E080E00E94FD088C02B001112470931A
:1028D000830260938202770F660B762F80918902C4
:1028E00090E001960E94FE0A60918202709183023C
:1028F00090E080E00E94000B809182029091830220
:10290000082E881B910907FC939597CF8091590257
:1029100090915A02209189022223E9F10E94FD0838
:1029200090E09093510280935002892B09F4D5C016
:102930008091890290E001960E94250990E080E054
:102940000E942509EC0190938E0280938D02609184
:102950005002709151020E944D1A70935D02609373
:102960005C0290E080E00E94000B209150023091C8
:102970005102BC01629FC001639F900D729F900D38
:102980001124BE01681B790B8091890290E00196A9
:102990000E94000B61CA0E94FD0890E090935102D2
:1029A00080935002892B09F498C08091890290E0AD
:1029B00001960E94FD0890E080E00E942509C82F42
:1029C00080938D0290938E0260915002709151021B
:1029D0000E944D1A70935D0260935C02CB019927AF
:1029E0006817790709F079C090E080E00E94DE0A5C
:1029F000909150026C2F899F601911248091890257
:102A000090E001960E94FE0A27CA80915902909197
:102A10005A02209189022223A1F10E94FD0890E030
:102A20009093510280935002892B09F456C08091F3
:102A3000890290E001960E94250990E080E00E94C2
:102A40002509EC0190938E0280938D0260915002D3
:102A5000709151020E94611A70935D0260935C0252
:102A600090E080E00E94000B2091500230915102D2
:102A7000AC01429FC001439F900D529F900D1124C5
:102A800080CF0E94FD08082E000C990B90935102F4
:102A900080935002892B09F18091890290E0019680
:102AA0000E94FD0890E080E00E942509C82F8093D5
:102AB0008D0290938E0260915002709151020E949B
:102AC000611A70935D0260935C02262F062E000C43
:102AD000330B6217730709F487CF0E94020CBCC93D
:102AE00010925A02109259028091680290916902E4
:102AF000909365028093640260926002809152021A
:102B000080935E0280918B0290918C02019790934A
:102B10008C0280938B028091590290915A0290937B
:102B200058028093570281E090918902911180E0D0
:102B300090916A02892B80936A026091640270917D
:102B40006502882319F0062E000C770B8DE090E0CB
:102B50000E94000B909256028092550280916A0268
:102B600022E030E0882311F021E030E080918B02F8
:102B700090918C02820F931F90938C0280938B0212
:102B800080915E0280935202880F880F880F0E9406
:102B90006009E0915202E93008F05EC9F0E0E952C4
:102BA000FA4E80915502909156020C94971AE015B6
:102BB0002E165916C31637176217A117CC177C1893
:102BC0000E94FD0880938A0290918902992399F1CD
:102BD0008091880290918902909387028093860267
:102BE00020918A0230918B023093850220938402D7
:102BF000820F931F9093890280938802909383029F
:102C000080938202609188028091570290915802CD
:102C10000E94DE0A81E090E040918202509183029E
:102C200020918602309187024217530708F48ECD17
:102C300090E080E08BCD90918802292F30E0309396
:102C4000870220938602282F30E03093850220935C
:102C50008402890F8093880290E0D0CF0E94FD0803
:102C600080938A0290918902992399F08091880239
:102C700090918902909387028093860220918A0224
:102C800030918B023093850220938402822B932B08
:102C900000CD90918802292F30E030938702209355
:102CA0008602282F30E03093850220938402892BFE
:102CB00003CD0E94FD0880938A02809189028823B7
:102CC00009F446C08091880290918902909387020E
:102CD0008093860288E290E00E94FD0820918A029B
:102CE00030918B02309385022093840240918802B8
:102CF00050918902240F351F820F932F911D9093BD
:102D0000890280938802909383028093820260916B
:102D1000880280915702909158020E94DE0A88E250
:102D200090E00E94FD082091860230918702409138
:102D3000820250918302882321F04217530709F43D
:102D400094C081E0421753070CF468C080E066C06D
:102D50008091880290E0909387028093860288E2B7
:102D600090E00E94FD0890918A02292F30E0309374
:102D700085022093840220918802920F890F80930C
:102D8000880290E0C0CF0E94FD0880938A02809163
:102D90008902882309F449C08091880290918902B0
:102DA000909387028093860288E290E00E94FD085B
:102DB00040918A0250918B02509385024093840285
:102DC0002091880230918902241B350B281B310980
:102DD00030938902209388023093830220938202E9
:102DE0006091880280915702909158020E94DE0AF9
:102DF00088E290E00E94FD082091860230918702CF
:102E00004091820250918302882319F042175307A0
:102E100061F181E0241735070CF098CF90E00E9413
:102E2000690B0E941D0B0C942C0F8091880290E07E
:102E3000909387028093860288E290E00E94FD08CA
:102E400020918A02422F50E05093850240938402E1
:102E500090918802921B981B892F9093880290E092
:102E60009093830280938202BBCF81E0D7CF0E94F0
:102E7000FD0880938A0290918902992399F08091AC
:102E80008802909189029093870280938602209114
:102E90008A0230918B023093850220938402822330
:102EA0009323F7CB90918802292F30E0309387024B
:102EB00020938602282F30E03093850220938402ED
:102EC0008923FACB0E94FD08982F80938A02809173
:102ED0008902882319F18091880290918902909348
:102EE00087028093860220918A0230918B02309370
:102EF000850220938402821B930B90938902809316
:102F0000880290938302809382026091880280916C
:102F10005702909158020E94DE0A0ACC80918802E2
:102F2000282F30E03093870220938602292F30E04B
:102F30003093850220938402891B8093880290E05D
:102F4000E0CF0E94FD0880938A0290918902992324
:102F500099F08091880290918902909387028093E2
:102F6000860220918A0230918B0230938502209351
:102F70008402822793278DCB90918802292F30E0FD
:102F80003093870220938602282F30E03093850209
:102F900020938402892790CB0E94FD0880938A02A7
:102FA00090918902992399F08091880290918902E9
:102FB000909387028093860220918A0230918B023F
:102FC0003093850220938402821B930B9ACF209129
:102FD000880230E0309387022093860290E090933D
:102FE000850280938402281B390B3093830220933F
:102FF00082028BCF809189028111BBC070928902BD
:1030000080915E02885F80935E022091600284E07E
:1030100090E0222311F090E080E090935D02809395
:103020005C0260915F0270E0233008F081C001967D
:103030000E94530990E00E942509EC0160915F0213
:1030400070E080915C0290915D0202960E945309AB
:103050002091660230916702829F7001839FF00C7D
:103060001124EC0EFD1E60915F0270E080915C0205
:1030700090915D020E945309C82FD0E080916302B5
:10308000811153C060915F0270E080915C02909169
:103090005D0203960E945309A701BE0190E00E94C1
:1030A000350990935A028093590290935802809365
:1030B000570230915E02432F50E0440F551F20917C
:1030C00089022223C9F19A013093560220935502B6
:1030D00040916A02442361F030938E0220938D0266
:1030E00090935602809355023093580220935702D2
:1030F00080915502909156020E94FD0880938A02A9
:1031000090918902992309F1809188029091890216
:10311000909387028093860280918A0290918B021D
:103120009093850280938402B4CA80915B02B4CFED
:10313000CB01880F991FB5CF232F26952695240FF5
:10314000352F311D27703327BFCF2091880230E003
:103150003093870220938602282F30E03093850237
:10316000209384028093880230938302209382020A
:10317000AACA80916A028111C3C070926302209230
:103180005B022091600284E090E0222311F090E045
:1031900080E090935D0280935C0260915F0270E03A
:1031A000233008F085C001960E94530990E00E94E8
:1031B0002509EC0160915F0270E080915C029091C2
:1031C0005D0202960E9453092091660230916702C7
:1031D000829F7001839FF00C1124EC0EFD1E609104
:1031E0005F0270E080915C0290915D020E94530941
:1031F000C82FD0E080916302811157C060915F02B7
:1032000070E080915C0290915D0203960E945309E8
:10321000A701BE0190E00E94350990935A02809365
:103220005902909358028093570230915E02432FC7
:1032300050E0440F551F209189022223E9F19A01A1
:10324000309356022093550240916A02442361F064
:1032500030938E0220938D029093560280935502F4
:103260003093580220935702809155029091560254
:103270000E94FD088093880290918902992329F188
:1032800080918802909189029093870280938602B0
:103290008091590290915A02909385028093840202
:1032A00090938902809388021FC080915B02B0CF07
:1032B000CB01880F991FB1CF232F26952695240F78
:1032C000352F311D27703327BBCF90E090938702B5
:1032D0008093860220915902822F90E0909385027C
:1032E00080938402209388029093830280938202C9
:1032F0006091880280915502909156020C94E510DD
:103300008091590290915A020E94FD0890E00C941D
:10331000171110925E021092600256E050935F0205
:10332000809168029091690290936702809366028F
:1033300050925D0240925C0266E070E085E090E0B1
:103340000E94530990E00E942509EC0160915F0200
:1033500070E080915C0290915D0202960E94530998
:103360002091660230916702829F7001839FF00C6A
:103370001124EC0EFD1E60915F0270E080915C02F2
:1033800090915D020E945309C82FD0E080916302A2
:1033900081114EC060915F0270E080915C0290915B
:1033A0005D0203960E945309A701BE0190E00E94AE
:1033B000350990935A028093590290935802809352
:1033C00057022091890230915E022223A1F1232F1E
:1033D00030E0220F331F3093560220935502409164
:1033E0006A02442361F030938E0220938D02909301
:1033F00056028093550230935802209357028091D1
:103400005702909158020E94FD0880938A02909181
:1034100089029923E9F08091880290918902909322
:1034200087028093860280918A0290918B0234CF2A
:1034300080915B02B9CF432F50E0440F551F232FDB
:1034400026952695240F352F311D27703327C3CF9E
:103450002091880230E03093870220938602282F43
:1034600030E0309385022093840280938802309369
:103470008302209382023CCF65EE70E087E994E0FE
:103480000E94AC0CC0E0D0E02097F1F30E94510103
:103490008823D1F30E940000F7CFAA1BBB1B51E188
:1034A00007C0AA1FBB1FA617B70710F0A61BB70BB4
:1034B000881F991F5A95A9F780959095BC01CD0159
:1034C000089597FB072E16F4009407D077FD09D0D6
:1034D0000E944D1A07FC05D03EF4909581959F4FB0
:1034E0000895709561957F4F0895A1E21A2EAA1B49
:1034F000BB1BFD010DC0AA1FBB1FEE1FFF1FA217A4
:10350000B307E407F50720F0A21BB30BE40BF50BA0
:10351000661F771F881F991F1A9469F76095709529
:10352000809590959B01AC01BD01CF010895EE0FF0
:10353000FF1F0590F491E02D0994A29FB001B39F65
:10354000C001A39F700D811D1124911DB29F700DAC
:10355000811D1124911D0895FB01DC0104C08D9192
:103560000190801921F441505040C8F7881B990BF5
:103570000895FB01DC0102C001900D9241505040C2
:08358000D8F70895F894FFCF7D
:10358800FFFFFFFF000000008701E7001401F301BF
:1035980045012301370100000000C60AE7000F07B4
:1035A8000E0772616D2E62696E000D0A002E0064AE
:1035B80069736B2E696D670062696F732E62696E3D
:0235C800000001
:00000001FF
