:100000000C94BD000C94E5000C94E5000C94E50004
:100010000C94E5000C94E5000C94E5000C94E500CC
:100020000C94E5000C94E5000C94E5000C94E500BC
:100030000C94E5000C94E5000C94E5000C94E500AC
:100040000C94710B0C94E5000C943F0B0C94190B61
:100050000C94E5000C94E5000C94E5000C94E5008C
:100060000C94E5000C94E50000000000240027003B
:100070002A0000000000250028002B0004040404CE
:100080000404040402020202020203030303030342
:10009000010204081020408001020408102001021F
:1000A00004081020000000080002010000030407FB
:1000B00000000000000000002E20446F6E6521004B
:1000C0002E20446F6E652120496E69742066696C2C
:1000D0006573797374656D00496E697420534420AB
:1000E00063617264004D616368696E652068616C6C
:1000F00074656421005374617274696E6720763888
:10010000362E2E2E00436F7079726967687420282E
:100110004329203230323120407261737069647536
:10012000696E6F2C20756E6465722047504C2D7679
:1001300033006176722D763836202D20496E746535
:100140006C203830383620656D756C61746F7220A4
:1001500072756E6E696E67206F6E2041726475698C
:100160006E6F20554E4F007C3C3E5E2B3D3F2F5B1B
:100170005D3B2C2A225C0000BB0B11241FBECFEF7D
:10018000D8E0DEBFCDBF11E0A0E0B1E0E8EFFFE1D5
:1001900002C005900D92A234B107D9F725E0A2E480
:1001A000B1E001C01D92A533B207E1F710E0CDEB3D
:1001B000D0E004C02197FE010E94DE0FCC3BD107A6
:1001C000C9F70E94F10B0C94FA0F0C940000AF9247
:1001D000BF92CF92DF92EF92FF920F931F93CF9334
:1001E000DF936C017B018B01040F151FEB015E0196
:1001F000AE18BF08C017D10759F06991D601ED912B
:10020000FC910190F081E02DC6010995892B79F7C9
:10021000C501DF91CF911F910F91FF90EF90DF907B
:10022000CF90BF90AF900895FC01538D448D252F42
:1002300030E0842F90E0821B930B541710F0CF9680
:10024000089501970895FC01918D828D981761F0B2
:10025000A28DAE0FBF2FB11D5D968C91928D9F5FC9
:100260009F73928F90E008958FEF9FEF0895FC01A8
:10027000918D828D981731F0828DE80FF11D858D5B
:1002800090E008958FEF9FEF0895FC01918D228DEE
:10029000892F90E0805C9F4F821B91098F73992773
:1002A000089584E894E00E94450121E0892B09F437
:1002B00020E0822F089580E090E0892B29F00E94B1
:1002C000510181110C9400000895FC01A48DA80F28
:1002D000B92FB11DA35ABF4F2C91848D90E0019688
:1002E0008F739927848FA689B7892C93A089B189A8
:1002F0008C91837080648C93938D848D981306C049
:100300000288F389E02D80818F7D80830895EF92AC
:10031000FF920F931F93CF93DF93EC0181E0888FBF
:100320009B8D8C8D98131AC0E889F989808185FF8F
:1003300015C09FB7F894EE89FF896083E889F98931
:1003400080818370806480839FBF81E090E0DF9133
:10035000CF911F910F91FF90EF900895F62E0B8D86
:1003600010E00F5F1F4F0F731127E02E8C8D8E1141
:100370000CC00FB607FCFACFE889F989808185FFA8
:10038000F5CFCE010E946501F1CFEB8DEC0FFD2F73
:10039000F11DE35AFF4FF0829FB7F8940B8FEA8963
:1003A000FB8980818062CFCFEF92FF920F931F93E2
:1003B000CF93DF938C017B01D0E0C0E0F701EC0F1D
:1003C000FD1F6491662339F0C8010E948701892BC3
:1003D00011F02196F3CFCE01DF91CF911F910F91B4
:1003E000FF90EF900895CF93DF93EC01888D8823E1
:1003F000B9F0AA89BB89E889F9898C9185FD03C088
:10040000808186FD0DC00FB607FCF7CF8C9185FF6C
:10041000F2CF808185FFEDCFCE010E946501E9CF4B
:10042000DF91CF91089590E0FC01EC55FF4F2491AE
:10043000FC01E057FF4F3491FC01E458FF4FE49179
:10044000EE23C9F0222339F0233001F1A8F4213042
:1004500019F1223029F1F0E0EE0FFF1FEE58FF4FA7
:10046000A591B4918FB7F894EC91611126C03095A5
:100470003E233C938FBF08952730A9F02830C9F060
:10048000243049F7809180008F7D03C080918000E7
:100490008F7780938000DFCF84B58F7784BDDBCFEB
:1004A00084B58F7DFBCF8091B0008F778093B000B3
:1004B000D2CF8091B0008F7DF9CF3E2BDACFCF9392
:1004C000DF9390E0FC01E057FF4F249184589F4F49
:1004D000FC0184918823D1F090E0880F991FFC01E2
:1004E000E859FF4FA591B491FC01EE58FF4FC5911B
:1004F000D49161110EC09FB7F8948C91E22FE095D2
:100500008E238C932881E223E8839FBFDF91CF91D4
:1005100008958FB7F894EC91E22BEC938FBFF6CF50
:100520002FB7F89460914C0170914D0180914E016C
:1005300090914F012FBF08958EBD0DB407FEFDCFE2
:10054000089561E0FC0182810E9413028FEF0C94F8
:100550009C028FEF8EBD0DB407FEFDCF8EB50895C2
:10056000FF920F931F93CF93DF93F82E8B010E947E
:100570009002EB010E94A9028F1571F00E94900277
:100580006C1B7D0B06171707A8F780E0DF91CF9152
:100590001F910F91FF90089581E0F8CFCF92DF92E5
:1005A000EF92FF921F93CF93DF93FC01162F690107
:1005B0007A01838122E090E0281728F4963019F020
:1005C000220F9F5FF9CF292F206A26952CBD90FD21
:1005D00003C021E0963009F420E02DBD60E0828167
:1005E0000E94130268E572E08FEF0E94B002812F33
:1005F00080640E949C02C8E1D0E0D701C6010C2EA5
:1006000004C0B695A795979587950A94D2F70E944E
:100610009C022897C83F8FEFD80779F78FEF111109
:1006200001C085E90E949C02C0E00E94A90287FFE8
:1006300004C0CF3F11F0CF5FF8CFDF91CF911F9172
:10064000FF90EF90DF90CF900895CF93DF93EC0170
:100650009A01AB0189E0220F331F441F551F8A9571
:10066000D1F768E1CE010E94CE02882349F083E0F1
:100670008883CE010E94A10280E0DF91CF9108958E
:100680008EEF8EBDE4E8F2E00DB407FEFDCF819160
:100690008EBD84E0E438F807B9F70DB407FEFDCF4E
:1006A0008FEF0E949C028FEF0E949C020E94A90281
:1006B000982F9F71953019F0898386E0D9CF68E52E
:1006C00072E08FEF0E94B002811105C087E088833D
:1006D000CE010E94A102CE010E94A10281E0CDCFF5
:1006E0000F931F93CF9380914601C1E0882399F027
:1006F00000917A0210917B0240910001509101011A
:100700006091020170910301C8010E942503C82F66
:10071000811106C0C0E08C2FCF911F910F910895D9
:100720004091420150914301609144017091450113
:10073000411551056105710569F0C8010E94250345
:10074000882341F310924201109243011092440118
:100750001092450110924601DECFCF92DF92EF92C8
:10076000FF921F93CF93DF936B017C01142F809135
:10077000000190910101A0910201B09103018C153B
:100780009D05AE05BF0509F44FC00E947003882384
:10079000C9F0C0917A02D0917B02A701960189E04D
:1007A000220F331F441F551F8A95D1F761E1CE01F7
:1007B0000E94CE02882371F084E08883CE010E94DB
:1007C000A10280E0DF91CF911F91FF90EF90DF9029
:1007D000CF9008956CE271E08EEF0E94B00281111B
:1007E00005C085E08883CE010E94A1028FEF8EBDF7
:1007F000E4E8F2E00DB407FEFDCF9EB591938EBD07
:1008000094E0E438F907B1F70DB407FEFDCF0E947C
:10081000A902CE010E94A102C0920001D092010162
:10082000E0920201F092030181E0112359F28093DA
:100830004601C8CF4F925F926F927F929F92AF9284
:10084000BF92CF92DF92EF92FF920F931F93CF93BD
:10085000DF9329E632E030937B0220937A028823EB
:1008600009F4DEC040E060E070E0CB010E94AD031F
:10087000811112C0D0E08D2FDF91CF911F910F9188
:10088000FF90EF90DF90CF90BF90AF909F907F90C0
:100890006F905F904F900895C0904A04D0904B04A1
:1008A000E0904C04F0904D0440E0C701B6010E9476
:1008B000AD03D82F8823F1F2809182048535D1F6DB
:1008C000809183048A3AB1F69090940290927902D2
:1008D000C0919102C093830200919A0210919B02F1
:1008E000109378020093770220919502309196023E
:1008F00030937D0220937C02A0909202B0909302EC
:10090000D701C6018A0D9B1DA11DB11D80937302E5
:1009100090937402A0937502B0937602909EA0010A
:10092000919E500D1124840F951FA11DB11D809320
:100930006F0290937002A0937102B093720245E02F
:10094000220F331F4A95E1F721503E4F232F3327C3
:100950002695820F931FA11DB11D80937F02909356
:100960008002A0938102B09382024090970250903F
:100970009802712C612C4114510441F44090A4025E
:100980005090A5026090A6027090A702C81AD90ADA
:10099000EA0AFB0AC701B601640D751D861D971D85
:1009A0002C2F30E050E040E00E94AD0F30936E02FB
:1009B00020936D0260918F027091900261157240D8
:1009C00009F058CF0115110509F454CF253F6FE008
:1009D000360708F44FCF81E04816510480E86806D6
:1009E000710408F047CFAB2809F444CF992009F4EB
:1009F00041CFC32EDD240C151D0508F43BCFCC23BD
:100A000009F438CF8C2F90E09C01215031098223CA
:100A10009323892B09F02ECF81E080937E022BCF88
:100A2000C12CD12C760140CFCF92DF92EF92FF9272
:100A30000F931F93CF93DF938230910550F480E0A2
:100A4000DF91CF911F910F91FF90EF90DF90CF90AA
:100A5000089520916D0230916E022F5F3F4F28174D
:100A6000390768F3EB018C01212F3327C090730203
:100A7000D0907402E0907502F0907602C20ED31E00
:100A8000E11CF11C8091000190910101A0910201F3
:100A9000B0910301C816D906EA06FB0689F4F801ED
:100AA000FF27EE0FFF1FEC57FD4FD183C08381E07E
:100AB0008093460180917902823050F481E0C0CF6A
:100AC00040E0C701B6010E94AD038111E8CFB7CF66
:100AD0008091770290917802C80ED91EE11CF11C1A
:100AE000C0924201D0924301E0924401F09245014C
:100AF000E5CFCF92DF92EF92FF920F931F93CF93A8
:100B0000DF9320916D0230916E022F5F3F4F2817C7
:100B1000390750F480E0DF91CF911F910F91FF9042
:100B2000EF90DF90CF9008958B01EC012D2F3327AC
:100B300060917302709174028091750290917602B7
:100B4000620F731F811D911DC0900001D0900101A3
:100B5000E0900201F09003016C157D058E059F0564
:100B600061F4DD27CC0FDD1FCC57DD4F88819981E3
:100B7000F8019183808381E0CECF40E00E94AD03F5
:100B80008111EFCFC7CF4F925F926F927F928F927A
:100B90009F92AF92BF92CF92DF92EF92FF920F930C
:100BA0001F93CF93DF93EC016A017B018D818370EA
:100BB00091F480E0DF91CF911F910F91FF90EF9022
:100BC000DF90CF90BF90AF909F908F907F906F906D
:100BD0005F904F9008958A859B85AC85BD858C1567
:100BE0009D05AE05BF0528F3C114D104E104F1044D
:100BF00041F41F861E86188A198A1A8A1B8A81E088
:100C0000D9CF80908302912CB12CA12CCB01BA01B9
:100C1000615071098109910939E096958795779519
:100C200067953A95D1F7A50194010E94AD0F89010E
:100C300088899989AA89BB89C816D906EA06FB065C
:100C400020F00097A105B105A9F4888599859F87B3
:100C50008E875E018EE0A80EB11C01151105F1F022
:100C6000B5018E859F850E9479050150110981117A
:100C7000F4CF9FCFBC01CD01615071098109910969
:100C800029E096958795779567952A95D1F7A501DF
:100C900094010E94AD0F021B130BDBCFC88AD98AC7
:100CA000EA8AFB8AACCFCF93DF9320917C0230910C
:100CB0007D028217930728F090E080E0DF91CF91CA
:100CC0000895462FEC019C0154E0369527955A95DE
:100CD000E1F760916F0270917002809171029091C2
:100CE0007202620F731F811D911D0E94AD03882344
:100CF00019F3CE018F70992725E0880F991F2A9547
:100D0000E1F78C579D4FDACFCF93DF93FC0125811C
:100D100027FF18C0EC0161E0868197810E9453068D
:100D20000097A1F04A855B856C857D85FC01448F29
:100D3000558F668F778F28853985338F228F8D81E8
:100D40008F778D83DF91CF910C94700380E0DF91DA
:100D5000CF91089581E295E00E94840610922605C5
:100D60000895CF92DF92EF92FF920F931F93CF934C
:100D7000DF9300D0CDB7DEB77C01FC010685178577
:100D80000115110511F401E010E0D12CC12C809166
:100D90006D0290916E02C816D906F8F4801791077B
:100DA00010F401E010E00F5F1F4FBE016F5F7F4F37
:100DB000C8010E947905882381F089819A81892B55
:100DC00021F0FFEFCF1ADF0AE2CF6FEF7FEFC8010C
:100DD0000E941405D82E81110DC0D12C8D2D0F909D
:100DE0000F90DF91CF911F910F91FF90EF90DF90C7
:100DF000CF900895F70186859785009749F0B8014F
:100E00000E941405882349F3F70117870687E6CF68
:100E100085818068858311870087F6CF089590E0EB
:100E200080E008954F925F926F927F928F929F928F
:100E3000AF92BF92CF92DF92EF92FF920F931F93E8
:100E4000CF93DF935C018B018091260580FD13C059
:100E50008FEF9FEFDF91CF911F910F91FF90EF9058
:100E6000DF90CF90BF90AF909F908F907F906F90CA
:100E70005F904F9008958091310590913205A09137
:100E80003305B091340540912B0550912C056091AC
:100E90002D0570912E056C017D01C00ED11EE11C47
:100EA000F11C4C155D056E057F0518F48A01081BC1
:100EB000190B7801812C32E0932EE114F10409F42E
:100EC00086C08091310590913205A0913305B09193
:100ED0003405C0908302AC01BD0129E07695679589
:100EE000579547952A95D1F7DD24DA94DC0CD42266
:100EF000EC01D170DD2009F448C020912F0530911C
:100F0000300522503109AC2DB0E00E94CF0F409047
:100F10007F02509080026090810270908202640D86
:100F2000751D861D971D6D0D711D811D911D40E064
:100F30000E94AD03882309F48BCFC4018C1B9D0B49
:100F400067018E159F0508F46C01BE016C577D4F3B
:100F5000A601C5010E94F10F8091310590913205E3
:100F6000A0913305B09134058C0D9D1DA11DB11DBF
:100F70008093310590933205A0933305B0933405E7
:100F8000AC0CBD1CEC18FD0898CF209709F0B5CF2C
:100F900080912F0590913005009791F4809129055B
:100FA00090912A059093300580932F0580912F050D
:100FB000909130050297863F9F4F08F49ECF48CF0F
:100FC0006FE275E00E9479058111F0CF41CFC80131
:100FD00041CFCF93DF931F92CDB7DEB761E070E0D2
:100FE000CE0101960E941207019731F4898190E0A9
:100FF0000F90DF91CF9108958FEF9FEFF9CF2F9250
:101000003F924F925F926F927F928F929F92AF9298
:10101000BF92CF92DF92EF92FF920F931F93CF93E5
:10102000DF9300D0CDB7DEB78C015B014A01FC0134
:10103000858181FFDEC082FDC9C06401212C32E0C0
:10104000332EF80180899189A289B3897090830237
:10105000AC01BD0129E076956795579547952A958E
:10106000D1F766246A94670C64227C01F1E0FF22C8
:1010700061101FC0F80186859785E114F10409F01D
:10108000E5C0009709F4B9C0BE016F5F7F4F0E94B1
:101090007905882309F4ADC089819A81883FFFEFE3
:1010A0009F0708F4C9C0C8010E94B106882309F44B
:1010B000A0C0F8012685378522503109A72DB0E060
:1010C0000E94CF0F20917F023091800240918102D7
:1010D00050918202620F731F841F951F9B01AC0108
:1010E000260D311D411D511D29013A01E114F10464
:1010F00009F0BFC0F80140895189628973898285EE
:101100009385A485B585481759076A077B0708F4B6
:10111000B0C00E947003882309F46BC040920001A4
:1011200050920101609202017092030181E080936C
:10113000460131016E187F08C614D70408F4360141
:10114000A301B501C7018C579D4F0E94F10FF80113
:1011500080899189A289B389860D971DA11DB11D32
:10116000808B918BA28BB38BC618D708A60CB71CAB
:10117000C114D10409F065CF428553856485758516
:10118000481759076A077B0738F4258182879387B8
:10119000A487B58720682583F801858183FD50C029
:1011A000C4010F900F90DF91CF911F910F91FF908D
:1011B000EF90DF90CF90BF90AF909F908F907F90F7
:1011C0006F905F904F903F902F9008954285538588
:1011D0006485758580899189A289B38948175907E3
:1011E0006A077B0709F429CFC8010E94C305811152
:1011F00024CF81E0F801848343C0808591850097E6
:10120000D9F4C8010E94B106882399F3F801268514
:10121000378522503109A72DB0E00E94CF0F4090B2
:101220007F02509080026090810270908202460E90
:10123000571E681E791E5ECFF8019787868739CFC3
:10124000C8010E9484068111ABCFD3CF9C012250EC
:101250003109A72DB0E00E94CF0F40907F0250903F
:1012600080026090810270908202460E571E681EB6
:10127000791E41E0C301B2010E94AD03811159CF33
:101280008FEF9FEF8ECFCF93DF931F92CDB7DEB757
:10129000698341E050E0BE016F5F7F4F0E94FF070E
:1012A00021E030E0019711F030E020E0C9010F901B
:1012B000DF91CF9108950F931F93CF93DF93D09138
:1012C0007E02D11107C0D0E08D2FDF91CF911F9109
:1012D0000F910895209126052370A9F7C62F8C0140
:1012E00060E00E945306FC01892B69F3808188230A
:1012F00051F3853E41F38385982F987121F780FF44
:1013000003C08C2F8271F9F61092300510922F05D0
:101310001092310510923205109233051092340567
:101320001093280500932705848D958DA68DB78D84
:1013300080932B0590932C05A0932D05B0932E053B
:10134000828D938D90932A0580932905CF70C09349
:101350002605BACFAF92BF92CF92DF92FF920F9342
:101360001F93CF93DF93CDB7DEB72B970FB6F894CB
:10137000DEBF0FBECDBF382F80917E02882309F4D7
:1013800068C0209126052370B9F4FE013196AE01A4
:10139000445F5F4F6F0180E28193E417F507E1F747
:1013A000A32FB92F90E027E08D91382F882321F1CA
:1013B0008E3239F42A3011F480E04BC098E02AE0F4
:1013C000F3CFE7E6F1E04491442321F03196841312
:1013D000FACFF2CF291780F34FED480F4E3560F763
:1013E0004FE9480F4A3110F430EE380FF601E90F9B
:1013F000F11D30839F5FD8CF89818032E9F2F62ECC
:1014000010E000E0AA24AA94BA2C80917C0290916A
:101410007D020817190790F560E0C8010E94530685
:10142000BC01009749F2FC019081992311F1953E8E
:1014300029F4B7FC20C00F5F1F4FE7CF4BE050E00F
:10144000C6010E94E40F892BB1F76F2DC8010E94DD
:101450005B092B960FB6F894DEBF0FBECDBFDF91B0
:10146000CF911F910F91FF90DF90CF90BF90AF90E1
:101470000895B7FE05C058019111DDCFB7FC9CCF90
:101480006F2D6274623409F097CF61E0C5010E944C
:101490005306009709F490CF20E2FC0111922A959F
:1014A000E9F72BE0F601DC0101900D922A95E1F7B6
:1014B00021E238E2FC01318B208B40E058E0578775
:1014C0004687338B228B318F208F578B468B0E9420
:1014D0007003882309F470CF62E4C501B8CF1F936D
:1014E000CF93DF93EC01162F62E082E291E00E943D
:1014F000AA09AE0170E060E0615F7F4F81E295E094
:101500000E94C305612F81E295E00E944309DF91AB
:10151000CF911F910C94AA06CF93DF93EC0161E069
:1015200082E291E00E94AA09AE0170E060E0615F92
:101530007F4F81E295E00E94C3050E94E907EC011C
:101540000E94AA06CE01DF91CF9108950F931F93B9
:10155000CF93DF93EC018B0162E082E291E00E9485
:10156000AA09AE0170E060E081E295E00E94C30547
:1015700041E050E0B80181E295E00E94FF07DF9171
:10158000CF911F910F910C94AA06CF93DF93EC019A
:1015900061E082E291E00E94AA09AE0170E060E0A1
:1015A00081E295E00E94C3050E94E907C82F0E94CE
:1015B000AA068C2FDF91CF9108950F931F93CF939D
:1015C000DF938C01EB0161E08AE291E00E94AA09BD
:1015D0000F571F4FA80170E060E081E295E00E9484
:1015E000C3050E94E9078C0F9D1FAC0170E060E00D
:1015F00081E295E00E94C3050E94E907DF91CF9147
:101600001F910F9108950F931F93CF93DF93EC01D8
:101610000E94D4018C0142E050E063E371E0CE010E
:101620000E94E700800F911FDF91CF911F910F91D2
:1016300008951F920F920FB60F9211242F933F938C
:101640004F935F936F937F938F939F93AF93BF93CA
:10165000EF93FF9384E894E00E946501FF91EF917E
:10166000BF91AF919F918F917F916F915F914F91BA
:101670003F912F910F900FBE0F901F9018951F92C2
:101680000F920FB60F9211242F938F939F93EF9386
:10169000FF93E0919404F09195048081E0919A0485
:1016A000F0919B0482FD1BC0908180919D048F5F0F
:1016B0008F7320919E04821741F0E0919D04F0E029
:1016C000EC57FB4F958F80939D04FF91EF919F9175
:1016D0008F912F910F900FBE0F901F9018958081C2
:1016E000F4CF1F920F920FB60F9211242F933F93B6
:1016F0008F939F93AF93BF9380914C0190914D0135
:10170000A0914E01B0914F0130914B0123E0230F86
:101710002D3758F50196A11DB11D20934B018093E3
:101720004C0190934D01A0934E01B0934F018091D5
:10173000470190914801A0914901B0914A01019659
:10174000A11DB11D8093470190934801A0934901C9
:10175000B0934A01BF91AF919F918F913F912F918B
:101760000F900FBE0F901F90189526E8230F02963A
:10177000A11DB11DD2CFE4E8F4E01382128288EEFD
:1017800093E0A0E0B0E084839583A683B78388E0EC
:1017900091E09183808385EC90E09587848784EC49
:1017A00090E09787868780EC90E0918B808B81EC2E
:1017B00090E0938B828B82EC90E0958B848B86EC0F
:1017C00090E0978B868B118E128E138E148EE1E231
:1017D000F5E0138212828AE191E091838083158281
:1017E0000895789484B5826084BD84B5816084BD99
:1017F00085B5826085BD85B5816085BD80916E00AF
:10180000816080936E0010928100809181008260DF
:10181000809381008091810081608093810080911C
:1018200080008160809380008091B100846080930B
:10183000B1008091B00081608093B00080917A0007
:10184000846080937A0080917A00826080937A002D
:1018500080917A00816080937A0080917A0080681C
:1018600080937A001092C100E0919404F091950465
:1018700082E08083E0919004F09191041082E091E5
:101880009204F09193048FEC808310929C04E09179
:101890009804F091990486E08083E0919604F09199
:1018A0009704808180618083E0919604F091970491
:1018B000808188608083E0919604F0919704808114
:1018C00080688083E0919604F091970480818F7DF9
:1018D000808362E371E084E894E00E94030B65E09A
:1018E00071E084E894E00E94030B68ED70E084E806
:1018F00094E00E94D401D2E0AAE0FA2EB3E5EB2EE8
:10190000D0936C02F0926B02109269020E949002D6
:101910008B0161E080916B020E945F0261E0809127
:101920006B020E94130260E08CE00E945F0261E0A3
:101930008AE00E945F0261E08AE00E94130261E097
:101940008BE00E945F0261E08DE00E945F02ECBCD0
:10195000CAE08FEF0E949C02C150D9F760E08091ED
:101960006B020E94130220E030E0A90160E089E6EA
:1019700092E00E94CE02C82F8130C9F00E949002EE
:10198000601B710B613D774070F3C0936A0281E088
:101990008093690289E692E00E94A10241E050E052
:1019A00066E371E084E894E00E94E700A9CF20E0BC
:1019B00030E0A90167E389E692E00E94CE0220E0D0
:1019C00030E0A90169E289E692E00E94CE02C82FC8
:1019D000882361F00E949002601B710B613D77408B
:1019E00030F3C0936A02D0936902D4CF89E692E0C3
:1019F0000E94A10260EC70E084E894E00E94D401AF
:101A000081E00E941A0481110DC00E941A04811104
:101A100009C041E050E066E371E084E894E00E9490
:101A2000E700EECF68EB70E084E894E00E94030BDF
:101A300065EF70E084E894E00E94030B60E070EFD3
:101A400089E090E00E946F0A70E060E08DE290E033
:101A50000E946F0A60E870E084E090E00E946F0AE4
:101A600063E088E391E00E94AA0960912B057091E0
:101A70002C0590E080E00E946F0A10E000E0013049
:101A80008FEF180750F561E08AE291E00E94AA0901
:101A900060E870E080E591E00E941207080F191FCE
:101AA0000E94AA0662E482E291E00E94AA09A801CB
:101AB000012E000C660B770B615F7F4F81E295E092
:101AC0000E94C30540E850E060E571E081E295E0E6
:101AD0000E94FF070E94AA06D2CF80E091E0909377
:101AE000680280936702C1E089E090E00E948C0A5E
:101AF000F4E0880F991FFA95E1F720916702309181
:101B00006802820F931F0E94C50A082F10E01093ED
:101B1000660200936502882309F40EC28093640272
:101B2000B80188E090E00E94DD0A80935402B80179
:101B300089E090E00E94DD0A80935002B8018EE0B7
:101B400090E00E94DD0A80935A02B8018AE090E09A
:101B50000E94DD0A90916402892F8770809363024E
:101B60009170909362028695817080936102E091FA
:101B70006502F091660261814281862F942F9093D5
:101B8000600280935F02238140935D0220935E0296
:101B900020915C02222319F0215020935C022091B5
:101BA0005B02222319F0215020935B0220915A02FC
:101BB000222309F457C09C0176E0369527957A9543
:101BC000E1F7237020935902677060935802E3E0B5
:101BD00096958795EA95E1F787708093570284E0A0
:101BE00090E0222359F0213039F4042E000C550BDB
:101BF00050935E0240935D0290E080E09093560225
:101C000080935502233071F170E00E94DD0A90E06C
:101C10000E948C0A6091580270E080915502909168
:101C2000560201960E94DD0A90E00E948C0A809183
:101C30005C0281115BC06091580270E08091550296
:101C40009091560203960E94DD0A90E00E948C0A51
:101C50006091580270E08091550290915602029670
:101C60000E94DD0A80915402823009F418C108F004
:101C70003FC0882309F46CC0813009F035CF9091C2
:101C8000640281E0492F487093FF80E080936202F4
:101C900090916302292F30E0220F331F442309F46F
:101CA000A9C0C9010E94C50A8093520240916202F4
:101CB000442309F4A8C020915F0230916002309360
:101CC00052022093510260915102861709F40CCF01
:101CD00070E090916302292F30E0220F331F4423DC
:101CE00009F496C0C9010E94A60AFECE80E0ADCFDD
:101CF000833009F496C0843009F0F6CE80916302F7
:101D000090E00E948C0AC093620284E090E00E94FE
:101D10008C0ABC016E5F7F4F84E090E00E946F0AE6
:101D20008AE090E00E948C0A8C0184E090E00E949E
:101D30008C0A029724E0000F111F2A95E1F7800F0B
:101D4000911F0E94C50A8093520280935102CCCE0B
:101D5000609164026695677060935302E0905F0241
:101D60000E2C000CFF080091620210E070E08FE082
:101D700090E00E94DD0A90E00E948C0A8823A1F086
:101D800091E009270E9D90010F9D300D1E9D300D95
:101D900011248091670290916802820F931F9093A3
:101DA000680280936702A0CE6091530270E080E1E8
:101DB00090E00E94DD0A90E00E948C0A8111E0CF41
:101DC0006091530270E081E190E00E94DD0A90E0B2
:101DD0000E948C0AD82F6091530270E082E190E05B
:101DE0000E94DD0A90E00E948C0A91E0D813C9CFCE
:101DF00090E0C7CF892F86958695820F932F911DEE
:101E0000877099274FCF90915F02909351025BCFDB
:101E1000892F86958695820F932F911D877099271C
:101E200062CF8091630290E00E948C0AF82ED92F35
:101E3000C09362028AE090E00E948C0A8C0184E0E8
:101E400090E00E948C0A44E0000F111F4A95E1F7D0
:101E50000197800F911F0E94C50A809352029091B2
:101E60006202F09251029111D093520210915102EC
:101E7000811709F439CE8AE090E00E948C0A7C0137
:101E800084E090E00E948C0A612F70E034E0EE0C58
:101E9000FF1C3A95E1F701978E0D9F1D24CFC0934B
:101EA0006202109261028091630280935702209136
:101EB000590284E090E0222311F090E080E09093BA
:101EC000560280935502233080F56091580270E0ED
:101ED0000E94DD0A90E00E948C0A6091580270E036
:101EE000809155029091560201960E94DD0A90E081
:101EF0000E948C0A80915C0281111CC06091580282
:101F000070E0809155029091560203960E94DD0A7E
:101F100090E00E948C0A6091580270E08091550216
:101F20009091560202960E94DD0A809150028093A1
:101F30005702DACD80E0ECCF65EE70E084E894E003
:101F40000E94030BC0E0D0E02097F1F30E94510102
:101F50008823D1F30E940000F7CFA1E21A2EAA1B1A
:101F6000BB1BFD010DC0AA1FBB1FEE1FFF1FA21749
:101F7000B307E407F50720F0A21BB30BE40BF50B46
:101F8000661F771F881F991F1A9469F760957095CF
:101F9000809590959B01AC01BD01CF010895A29F52
:101FA000B001B39FC001A39F700D811D1124911D2D
:101FB000B29F700D811D1124911D0895EE0FFF1F1A
:101FC0000590F491E02D0994FB01DC0104C08D9192
:101FD0000190801921F441505040C8F7881B990B9B
:101FE0000895FB01DC0102C001900D924150504068
:081FF000D8F70895F894FFCF23
:101FF800FFFFFFFF000000008701E7001401F30165
:10200800450123013701000000004309E7000F07DD
:102018000E0772616D2E62696E0062696F732E62BF
:10202800696E000D0A002E006469736B2E696D6776
:022038000000A6
:00000001FF
