:100000000C94BD000C94E5000C94E5000C94E50004
:100010000C94E5000C94E5000C94E5000C94E500CC
:100020000C94E5000C94E5000C94E5000C94E500BC
:100030000C94E5000C94E5000C94E5000C94E500AC
:100040000C94240D0C94E5000C94F20C0C94CC0C44
:100050000C94E5000C94E5000C94E5000C94E5008C
:100060000C94E5000C94E50000000000240027003B
:100070002A0000000000250028002B0004040404CE
:100080000404040402020202020203030303030342
:10009000010204081020408001020408102001021F
:1000A00004081020000000080002010000030407FB
:1000B00000000000000000002E20446F6E6521004B
:1000C0002E20446F6E652120496E69742066696C2C
:1000D0006573797374656D00496E697420534420AB
:1000E00063617264000A426F6F74696E6720757095
:1000F0002E2E2E002E005374617274696E67207666
:1001000038362E2E2E00436F70797269676874201E
:100110002843292032303231204072617370696483
:1001200075696E6F2C20756E6465722047504C2D7A
:100130007633006176722D763836202D20496E7424
:10014000656C203830383620656D756C61746F725F
:100150002072756E6E696E67206F6E2041726475D5
:10016000696E6F20554E4F007C3C3E5E2B3D3F2F0D
:100170005B5D3B2C2A225C006E0D11241FBECFEF6D
:10018000D8E0DEBFCDBF11E0A0E0B1E0EEECF2E5DB
:1001900002C005900D92A634B107D9F724E0A6E479
:1001A000B1E001C01D92A53DB207E1F710E0CDEB33
:1001B000D0E004C02197FE010E943A29CC3BD10730
:1001C000C9F70E94A40D0C9465290C940000AF920D
:1001D000BF92CF92DF92EF92FF920F931F93CF9334
:1001E000DF936C017B018B01040F151FEB015E0196
:1001F000AE18BF08C017D10759F06991D601ED912B
:10020000FC910190F081E02DC6010995892B79F7C9
:10021000C501DF91CF911F910F91FF90EF90DF907B
:10022000CF90BF90AF900895FC01538D448D252F42
:1002300030E0842F90E0821B930B541710F0CF9680
:10024000089501970895FC01918D828D981761F0B2
:10025000A28DAE0FBF2FB11D5D968C91928D9F5FC9
:100260009F73928F90E008958FEF9FEF0895FC01A8
:10027000918D828D981731F0828DE80FF11D858D5B
:1002800090E008958FEF9FEF0895FC01918D228DEE
:10029000892F90E0805C9F4F821B91098F73992773
:1002A000089584E294E00E94450121E0892B09F43D
:1002B00020E0822F089580E090E0892B29F00E94B1
:1002C000510181110C9400000895FC01A48DA80F28
:1002D000B92FB11DA35ABF4F2C91848D90E0019688
:1002E0008F739927848FA689B7892C93A089B189A8
:1002F0008C91837080648C93938D848D981306C049
:100300000288F389E02D80818F7D80830895EF92AC
:10031000FF920F931F93CF93DF93EC0181E0888FBF
:100320009B8D8C8D98131AC0E889F989808185FF8F
:1003300015C09FB7F894EE89FF896083E889F98931
:1003400080818370806480839FBF81E090E0DF9133
:10035000CF911F910F91FF90EF900895F62E0B8D86
:1003600010E00F5F1F4F0F731127E02E8C8D8E1141
:100370000CC00FB607FCFACFE889F989808185FFA8
:10038000F5CFCE010E946501F1CFEB8DEC0FFD2F73
:10039000F11DE35AFF4FF0829FB7F8940B8FEA8963
:1003A000FB8980818062CFCFEF92FF920F931F93E2
:1003B000CF93DF938C017B01D0E0C0E0F701EC0F1D
:1003C000FD1F6491662339F0C8010E948701892BC3
:1003D00011F02196F3CFCE01DF91CF911F910F91B4
:1003E000FF90EF900895CF93DF93EC01888D8823E1
:1003F000B9F0AA89BB89E889F9898C9185FD03C088
:10040000808186FD0DC00FB607FCF7CF8C9185FF6C
:10041000F2CF808185FFEDCFCE010E946501E9CF4B
:10042000DF91CF91089590E0FC01EC55FF4F2491AE
:10043000FC01E057FF4F3491FC01E458FF4FE49179
:10044000EE23C9F0222339F0233001F1A8F4213042
:1004500019F1223029F1F0E0EE0FFF1FEE58FF4FA7
:10046000A591B4918FB7F894EC91611126C03095A5
:100470003E233C938FBF08952730A9F02830C9F060
:10048000243049F7809180008F7D03C080918000E7
:100490008F7780938000DFCF84B58F7784BDDBCFEB
:1004A00084B58F7DFBCF8091B0008F778093B000B3
:1004B000D2CF8091B0008F7DF9CF3E2BDACFCF9392
:1004C000DF9390E0FC01E057FF4F249184589F4F49
:1004D000FC0184918823D1F090E0880F991FFC01E2
:1004E000E859FF4FA591B491FC01EE58FF4FC5911B
:1004F000D49161110EC09FB7F8948C91E22FE095D2
:100500008E238C932881E223E8839FBFDF91CF91D4
:1005100008958FB7F894EC91E22BEC938FBFF6CF50
:100520002FB7F89460915001709151018091520160
:10053000909153012FBF08958EBD0DB407FEFDCFDE
:10054000089561E0FC0182810E9413028FEF0C94F8
:100550009C028FEF8EBD0DB407FEFDCF8EB50895C2
:10056000FF920F931F93CF93DF93F82E8B010E947E
:100570009002EB010E94A9028F1571F00E94900277
:100580006C1B7D0B06171707A8F780E0DF91CF9152
:100590001F910F91FF90089581E0F8CFCF92DF92E5
:1005A000EF92FF921F93CF93DF93FC01162F690107
:1005B0007A01838122E090E0281728F4963019F020
:1005C000220F9F5FF9CF292F206A26952CBD90FD21
:1005D00003C021E0963009F420E02DBD60E0828167
:1005E0000E94130268E572E08FEF0E94B002812F33
:1005F00080640E949C02C8E1D0E0D701C6010C2EA5
:1006000004C0B695A795979587950A94D2F70E944E
:100610009C022897C83F8FEFD80779F78FEF111109
:1006200001C085E90E949C02C0E00E94A90287FFE8
:1006300004C0CF3F11F0CF5FF8CFDF91CF911F9172
:10064000FF90EF90DF90CF900895CF93DF93EC0170
:100650009A01AB0189E0220F331F441F551F8A9571
:10066000D1F768E1CE010E94CE02882349F083E0F1
:100670008883CE010E94A10280E0DF91CF9108958E
:100680008EEF8EBDE4E2F2E00DB407FEFDCF819166
:100690008EBD84E0E432F807B9F70DB407FEFDCF54
:1006A0008FEF0E949C028FEF0E949C020E94A90281
:1006B000982F9F71953019F0898386E0D9CF68E52E
:1006C00072E08FEF0E94B002811105C087E088833D
:1006D000CE010E94A102CE010E94A10281E0CDCFF5
:1006E0000F931F93CF9380914A01C1E0882399F023
:1006F00000911A0210911B024091000150910101DA
:100700006091020170910301C8010E942503C82F66
:10071000811106C0C0E08C2FCF911F910F910895D9
:100720004091460150914701609148017091490103
:10073000411551056105710569F0C8010E94250345
:10074000882341F31092460110924701109248010C
:100750001092490110924A01DECFCF92DF92EF92C0
:10076000FF921F93CF93DF936B017C01142F809135
:10077000000190910101A0910201B09103018C153B
:100780009D05AE05BF0509F44FC00E947003882384
:10079000C9F0C0911A02D0911B02A701960189E00D
:1007A000220F331F441F551F8A95D1F761E1CE01F7
:1007B0000E94CE02882371F084E08883CE010E94DB
:1007C000A10280E0DF91CF911F91FF90EF90DF9029
:1007D000CF9008956CE271E08EEF0E94B00281111B
:1007E00005C085E08883CE010E94A1028FEF8EBDF7
:1007F000E4E2F2E00DB407FEFDCF9EB591938EBD0D
:1008000094E0E432F907B1F70DB407FEFDCF0E9482
:10081000A902CE010E94A102C0920001D092010162
:10082000E0920201F092030181E0112359F28093DA
:100830004A01C8CF4F925F926F927F929F92AF9280
:10084000BF92CF92DF92EF92FF920F931F93CF93BD
:10085000DF9329E032E030931B0220931A028823B1
:1008600009F4DEC040E060E070E0CB010E94AD031F
:10087000811112C0D0E08D2FDF91CF911F910F9188
:10088000FF90EF90DF90CF90BF90AF909F907F90C0
:100890006F905F904F900895C090EA03D090EB0363
:1008A000E090EC03F090ED0340E0C701B6010E9438
:1008B000AD03D82F8823F1F2809122048535D1F63B
:1008C000809123048A3AB1F69090340290921902F2
:1008D000C0913102C093200200913A0210913B0274
:1008E00010931802009317022091350230913602BE
:1008F0003093220220932102A0903202B090330262
:10090000D701C6018A0D9B1DA11DB11D8093130245
:1009100090931402A0931502B0931602909EA0012A
:10092000919E500D1124840F951FA11DB11D809320
:100930000F0290931002A0931102B093120245E0AF
:10094000220F331F4A95E1F721503E4F232F3327C3
:100950002695820F931FA11DB11D80931C029093B9
:100960001D02A0931E02B0931F02409037025090C8
:100970003802712C612C4114510441F4409044021E
:10098000509045026090460270904702C81AD90AFA
:10099000EA0AFB0AC701B601640D751D861D971D85
:1009A0002C2F30E050E040E00E94182930930E02D6
:1009B00020930D0260912F027091300261157240F8
:1009C00009F058CF0115110509F454CF253F6FE008
:1009D000360708F44FCF81E04816510480E86806D6
:1009E000710408F047CFAB2809F444CF992009F4EB
:1009F00041CFC32EDD240C151D0508F43BCFCC23BD
:100A000009F438CF8C2F90E09C01215031098223CA
:100A10009323892B09F02ECF81E0809323022BCFE3
:100A2000C12CD12C760140CFCF92DF92EF92FF9272
:100A30000F931F93CF93DF938230910550F480E0A2
:100A4000DF91CF911F910F91FF90EF90DF90CF90AA
:100A5000089520910D0230910E022F5F3F4F28170D
:100A6000390768F3EB018C01212F3327C090130263
:100A7000D0901402E0901502F0901602C20ED31E20
:100A8000E11CF11C8091000190910101A0910201F3
:100A9000B0910301C816D906EA06FB0689F4F801ED
:100AA000FF27EE0FFF1FEC5DFD4FD183C08381E078
:100AB00080934A0180911902823050F481E0C0CFC6
:100AC00040E0C701B6010E94AD038111E8CFB7CF66
:100AD0008091170290911802C80ED91EE11CF11CDA
:100AE000C0924601D0924701E0924801F09249013C
:100AF000E5CFCF92DF92EF92FF920F931F93CF93A8
:100B0000DF9320910D0230910E022F5F3F4F281787
:100B1000390750F480E0DF91CF911F910F91FF9042
:100B2000EF90DF90CF9008958B01EC012D2F3327AC
:100B30006091130270911402809115029091160237
:100B4000620F731F811D911DC0900001D0900101A3
:100B5000E0900201F09003016C157D058E059F0564
:100B600061F4DD27CC0FDD1FCC5DDD4F88819981DD
:100B7000F8019183808381E0CECF40E00E94AD03F5
:100B80008111EFCFC7CF4F925F926F927F928F927A
:100B90009F92AF92BF92CF92DF92EF92FF920F930C
:100BA0001F93CF93DF93EC016A017B018D818370EA
:100BB00091F480E0DF91CF911F910F91FF90EF9022
:100BC000DF90CF90BF90AF909F908F907F906F906D
:100BD0005F904F9008958A859B85AC85BD858C1567
:100BE0009D05AE05BF0528F3C114D104E104F1044D
:100BF00041F41F861E86188A198A1A8A1B8A81E088
:100C0000D9CF80902002912CB12CA12CCB01BA011C
:100C1000615071098109910939E096958795779519
:100C200067953A95D1F7A50194010E941829890189
:100C300088899989AA89BB89C816D906EA06FB065C
:100C400020F00097A105B105A9F4888599859F87B3
:100C50008E875E018EE0A80EB11C01151105F1F022
:100C6000B5018E859F850E9479050150110981117A
:100C7000F4CF9FCFBC01CD01615071098109910969
:100C800029E096958795779567952A95D1F7A501DF
:100C900094010E941829021B130BDBCFC88AD98A42
:100CA000EA8AFB8AACCFCF93DF9320912102309167
:100CB00022028217930728F090E080E0DF91CF9125
:100CC0000895462FEC019C0154E0369527955A95DE
:100CD000E1F760910F0270911002809111029091E2
:100CE0001202620F731F811D911D0E94AD038823A4
:100CF00019F3CE018F70992725E0880F991F2A9547
:100D0000E1F78C5D9D4FDACFCF93DF93FC01258116
:100D100027FF18C0EC0161E0868197810E9453068D
:100D20000097A1F04A855B856C857D85FC01448F29
:100D3000558F668F778F28853985338F228F8D81E8
:100D40008F778D83DF91CF910C94700380E0DF91DA
:100D5000CF91089581EC94E00E9484061092C6041D
:100D60000895CF92DF92EF92FF920F931F93CF934C
:100D7000DF9300D0CDB7DEB77C01FC010685178577
:100D80000115110511F401E010E0D12CC12C809166
:100D90000D0290910E02C816D906F8F4801791073B
:100DA00010F401E010E00F5F1F4FBE016F5F7F4F37
:100DB000C8010E947905882381F089819A81892B55
:100DC00021F0FFEFCF1ADF0AE2CF6FEF7FEFC8010C
:100DD0000E941405D82E81110DC0D12C8D2D0F909D
:100DE0000F90DF91CF911F910F91FF90EF90DF90C7
:100DF000CF900895F70186859785009749F0B8014F
:100E00000E941405882349F3F70117870687E6CF68
:100E100085818068858311870087F6CF089590E0EB
:100E200080E008950F931F93CF93DF93D091230217
:100E3000D11107C0D0E08D2FDF91CF911F910F917D
:100E400008952091C6042370A9F7C62F8C0160E095
:100E50000E945306FC01892B69F38081882351F39A
:100E6000853E41F38385982F987121F780FF02C05A
:100E7000C13001F71092D0041092CF041092D10427
:100E80001092D2041092D3041092D4041093C80488
:100E90000093C704848D958DA68DB78D8093CB0468
:100EA0009093CC04A093CD04B093CE04828D938D07
:100EB0009093CA048093C904C093C604BCCFAF9278
:100EC000BF92DF92EF92FF920F931F93CF93DF9326
:100ED000CDB7DEB72B970FB6F894DEBF0FBECDBFF0
:100EE00020912302222329F12091C604237009F5C1
:100EF000FE0131969E01245F3F4F7F0140E2419306
:100F0000E217F307E1F7DC0190E027E08D91382F3D
:100F1000882391F18E3229F42A3059F098E02AE0A2
:100F2000F5CFE8E6F1E044914423A1F03196841333
:100F3000FACF80E02B960FB6F894DEBF0FBECDBF80
:100F4000DF91CF911F910F91FF90EF90DF90BF90B5
:100F5000AF900895291768F34FED480F4E3548F7C5
:100F60004FE9480F4A3110F430EE380FF701E90F1E
:100F7000F11D30839F5FCACF89818032D1F2D62E96
:100F800010E000E0AA24AA94BA2C8091210290914A
:100F900022020817190768F660E0C8010E9453068C
:100FA000BC01009731F2FC0190819923F9F0953E44
:100FB00019F4B7FE21C01CC04BE050E0C7010E94ED
:100FC0004F29892BC9F46D2DC8012B960FB6F894C3
:100FD000DEBF0FBECDBFDF91CF911F910F91FF906C
:100FE000EF90DF90BF90AF900C941207B7FEA1CFA7
:100FF0005801992309F49DCF0F5F1F4FC6CF4F9221
:101000005F926F927F928F929F92AF92BF92CF9298
:10101000DF92EF92FF920F931F93CF93DF935C01C8
:101020008B018091C60480FD13C08FEF9FEFDF918D
:10103000CF911F910F91FF90EF90DF90CF90BF90D5
:10104000AF909F908F907F906F905F904F9008959A
:101050008091D1049091D204A091D304B091D40492
:101060004091CB045091CC046091CD047091CE049A
:101070006C017D01C00ED11EE11CF11C4C155D05FB
:101080006E057F0518F48A01081B190B7801812C65
:1010900032E0932EE114F10409F486C08091D1046A
:1010A0009091D204A091D304B091D404C0902002B6
:1010B000AC01BD0129E076956795579547952A952E
:1010C000D1F7DD24DA94DC0CD422EC01D170DD20E0
:1010D00009F448C02091CF043091D0042250310946
:1010E000AC2DB0E00E94402940901C0250901D029F
:1010F00060901E0270901F02640D751D861D971D65
:101100006D0D711D811D911D40E00E94AD0388236E
:1011100009F48BCFC4018C1B9D0B67018E159F05B5
:1011200008F46C01BE016C5D7D4FA601C5010E94F3
:101130005C298091D1049091D204A091D304B09104
:10114000D4048C0D9D1DA11DB11D8093D1049093DD
:10115000D204A093D304B093D404AC0CBD1CEC18FF
:10116000FD0898CF209709F0B5CF8091CF049091DA
:10117000D004009791F48091C9049091CA0490938F
:10118000D0048093CF048091CF049091D004029733
:10119000863F9F4F08F49ECF48CF6FEC74E00E94CB
:1011A00079058111F0CF41CFC80141CF0F931F9333
:1011B000CF93DF931F92CDB7DEB78C0161E082E25F
:1011C00091E00E945F07A80170E060E081EC94E08C
:1011D0000E94C30561E070E0CE0101960E94FF0706
:1011E0000981019711F00FEF1FEF0E94AA06802FCF
:1011F0000F90DF91CF911F910F9108951F93CF937F
:10120000DF93EC010E94D608182FCE0101960E94B0
:10121000D608912FDF91CF911F910895EF92FF9201
:101220000F931F93CF93DF937B01EA010E94FE0887
:101230008C01C7010E94FE0824E0000F111F2A95AF
:10124000E1F78C0F9D1F800F911FDF91CF911F91B0
:101250000F91FF90EF900895CF93DF93EB018F579D
:101260009F4F0E94FE088C0F9D1FDF91CF910C9421
:10127000D608CF93DF9380930402C82FD0E0BE013D
:1012800088E090E00E942C098093E901BE0189E08A
:1012900090E00E942C098093DF01BE018EE090E077
:1012A0000E942C098093F801BE018AE090E00E9420
:1012B0002C0990E09093DB018093DA01DF91CF91CC
:1012C00008950F931F93CF9382E090EF9093EB01DB
:1012D0008093EA0109E010E001501109E0F0C80133
:1012E00088960E94D608C82FB80183E190E00E943A
:1012F0002C092C2F30E002C0220F331F8A95E2F711
:101300008091EA019091EB01280F391F3093EB0196
:101310002093EA01E1CFCF911F910F9108952F9271
:101320003F924F925F926F927F928F929F92AF9275
:10133000BF92CF92DF92EF92FF920F931F93CF93C2
:10134000DF9300D0CDB7DEB78C015B014A01FC0111
:10135000858181FFDEC082FDC9C06401212C32E09D
:10136000332EF80180899189A289B3897090200277
:10137000AC01BD0129E076956795579547952A956B
:10138000D1F766246A94670C64227C01F1E0FF22A5
:1013900061101FC0F80186859785E114F10409F0FA
:1013A000E5C0009709F4B9C0BE016F5F7F4F0E948E
:1013B0007905882309F4ADC089819A81883FFFEFC0
:1013C0009F0708F4C9C0C8010E94B106882309F428
:1013D000A0C0F8012685378522503109A72DB0E03D
:1013E0000E94402920911C0230911D0240911E0252
:1013F00050911F02620F731F841F951F9B01AC0148
:10140000260D311D411D511D29013A01E114F10440
:1014100009F0BFC0F80140895189628973898285CA
:101420009385A485B585481759076A077B0708F493
:10143000B0C00E947003882309F46BC04092000181
:1014400050920101609202017092030181E0809349
:101450004A0131016E187F08C614D70408F436011A
:10146000A301B501C7018C5D9D4F0E945C29F80165
:1014700080899189A289B389860D971DA11DB11D0F
:10148000808B918BA28BB38BC618D708A60CB71C88
:10149000C114D10409F065CF4285538564857585F3
:1014A000481759076A077B0738F425818287938795
:1014B000A487B58720682583F801858183FD50C006
:1014C000C4010F900F90DF91CF911F910F91FF906A
:1014D000EF90DF90CF90BF90AF909F908F907F90D4
:1014E0006F905F904F903F902F9008954285538565
:1014F0006485758580899189A289B38948175907C0
:101500006A077B0709F429CFC8010E94C30581112E
:1015100024CF81E0F801848343C0808591850097C2
:10152000D9F4C8010E94B106882399F3F8012685F1
:10153000378522503109A72DB0E00E944029409004
:101540001C0250901D0260901E0270901F02460EF9
:10155000571E681E791E5ECFF8019787868739CFA0
:10156000C8010E9484068111ABCFD3CF9C012250C9
:101570003109A72DB0E00E94402940901C025090F4
:101580001D0260901E0270901F02460E571E681EBC
:10159000791E41E0C301B2010E94AD03811159CF10
:1015A0008FEF9FEF8ECFCF93DF931F92CDB7DEB734
:1015B000698341E050E0BE016F5F7F4F0E948F0959
:1015C00021E030E0019711F030E020E0C9010F90F8
:1015D000DF91CF9108951F93CF93DF93EC01162FE6
:1015E00062E082E291E00E945F07AE0170E060E09D
:1015F00081EC94E00E94C305612F70E041E050E06F
:1016000081EC94E00E948F090E94AA06812FDF914D
:10161000CF911F9108950C94EB0A0F931F93CF93D2
:10162000DF938C01D62FC72F0E940B0B6C2FC801A4
:1016300001960E940B0B8D2F9C2FDF91CF911F9154
:101640000F9108950F931F93CF93DF938C01C9E0FF
:10165000D0E0219788F0BE0183E190E00E942C0940
:10166000B80102C0759567958A95E2F76170CE0161
:1016700088960E940B0BEDCFDF91CF911F910F91B8
:10168000089561E0892B09F460E080E390E00C9418
:101690000B0B6091E4017091E5018091E201909162
:1016A000E301682779278091E0019091E1016827A3
:1016B00079277093E3016093E20184E07695679562
:1016C0008A95E1F761708AE290E00E940B0B20910D
:1016D000E0013091E1018091E4019091E50128174A
:1016E0003907E1F088E290E00E94D60840910202BA
:1016F00098E0499FA0011124495F5F4F2091E201CA
:101700003091E30102C0369527954A95E2F7A90189
:101710004827CA01817099270C94410B60E080E34F
:1017200090E00E940B0B80E0089561E0892B09F4A2
:1017300060E088E290E00C940B0BCF93DF93EC0118
:1017400081E08093020284E090E00E94FE08BC01E8
:101750006E5F7F4F84E090E00E940D0B4EEF5FEFD5
:1017600064E070E08AE090E00E940E090E94D608D2
:101770008093E7018093E60190910202D093E50106
:10178000C093E401992399F08091E6019091E701DB
:101790009093E3018093E2019093E1018093E00153
:1017A000109202028091E601DF91CF91089590E0BE
:1017B000EFCFCF93DF93EC0181E0809302024FEFF4
:1017C0005FEF64E070E08AE090E00E940E090E9402
:1017D000D6088093E7018093E60190910202992355
:1017E00051F12091E6013091E7013093E50120931A
:1017F000E401D093E301C093E201D093E701C093E9
:10180000E601D093E101C093E001C091E6018C179D
:1018100059F04FEF5FEF64E070E08AE090E00E94E3
:101820000E096C2F0E94EB0A109202028091E601D1
:10183000DF91CF910895282F30E03093E501209378
:10184000E4019E0133273093E3012093E201C0932A
:10185000E6013093E1012093E001D7CFCF93DF93EE
:10186000C82F8DEC0E9439090E9461098091EA011C
:101870009091EB010E94D90B89E090E00E94FE0854
:101880000E94D90B80910702909108020E94D90B07
:1018900084E0C89FE0011124CE0102960E94D60880
:1018A0008093E70190910202992309F448C0809146
:1018B000E6019091E7019093E5018093E401809126
:1018C000E7019091E8019093E3018093E201909306
:1018D000E7018093E6019093E1018093E00160913C
:1018E000E60182E190E00E94EB0ACA52D74F2091B4
:1018F000020280910702909108029093E501809383
:10190000E401222381F1888199819093E3018093FE
:10191000E20190930802809307029093E101809383
:10192000E00160E08DE290E00E940B0B60E08EE24F
:1019300090E00E940B0B80E0DF91CF910895209101
:10194000E60130E03093E5012093E401282F30E0F8
:101950003093E3012093E2018093E6013093E101AB
:101960002093E001BCCF888190E0CFCF0F931F93ED
:10197000CF93DF93EC010E94D4018C0142E050E050
:101980006AE271E0CE010E94E700800F911FDF91B3
:10199000CF911F910F9108951F920F920FB60F9242
:1019A00011242F933F934F935F936F937F938F9364
:1019B0009F93AF93BF93EF93FF9384E294E00E94D1
:1019C0006501FF91EF91BF91AF919F918F917F91B1
:1019D0006F915F914F913F912F910F900FBE0F909C
:1019E0001F9018951F920F920FB60F9211242F93EC
:1019F0008F939F93EF93FF93E0913404F09135041C
:101A00008081E0913A04F0913B0482FD1BC09081FB
:101A100080913D048F5F8F7320913E04821741F0C7
:101A2000E0913D04F0E0EC5DFB4F958F80933D0429
:101A3000FF91EF919F918F912F910F900FBE0F907B
:101A40001F9018958081F4CF1F920F920FB60F92BE
:101A500011242F933F938F939F93AF93BF938091C4
:101A6000500190915101A0915201B09153013091D8
:101A70004F0123E0230F2D3758F50196A11DB11D0D
:101A800020934F018093500190935101A0935201F4
:101A9000B093530180914B0190914C01A0914D0165
:101AA000B0914E010196A11DB11D80934B01909301
:101AB0004C01A0934D01B0934E01BF91AF919F9106
:101AC0008F913F912F910F900FBE0F901F901895FF
:101AD00026E8230F0296A11DB11DD2CFE4E2F4E067
:101AE0001382128288EE93E0A0E0B0E084839583B5
:101AF000A683B78388E091E09183808385EC90E0B2
:101B00009587848784EC90E09787868780EC90E0C7
:101B1000918B808B81EC90E0938B828B82EC90E0B8
:101B2000958B848B86EC90E0978B868B118E128E32
:101B3000138E148EE1ECF4E0138212828AE191E0BC
:101B40009183808315820895789484B5826084BDE2
:101B500084B5816084BD85B5826085BD85B58160B1
:101B600085BD80916E00816080936E00109281002F
:101B700080918100826080938100809181008160EA
:101B800080938100809180008160809380008091AB
:101B9000B10084608093B1008091B0008160809337
:101BA000B00080917A00846080937A0080917A00FE
:101BB000826080937A0080917A00816080937A00BD
:101BC00080917A00806880937A001092C100E09141
:101BD0003404F091350482E08083E0913004F09188
:101BE00031041082E0913204F09133048FEC808351
:101BF00010923C04E0913804F091390486E080832F
:101C0000E0913604F0913704808180618083E09117
:101C10003604F0913704808188608083E091360437
:101C2000F0913704808180688083E0913604F091E0
:101C3000370480818F7D808363E371E084E294E0E8
:101C40000E94B60C66E071E084E294E00E94B60C5B
:101C500068ED70E084E294E00E94D40112E00AE0B2
:101C6000E3E5FE2E10930C0200930B021092090282
:101C70000E949002EB0161E080910B020E945F02E2
:101C800061E080910B020E94130260E08CE00E94F0
:101C90005F0261E08AE00E945F0261E08AE00E94E8
:101CA000130261E08BE00E945F0261E08DE00E9420
:101CB0005F02FCBC7AE0E72E8FEF0E949C02EA9460
:101CC000E110FACF60E080910B020E94130220E045
:101CD00030E0A90160E089E092E00E94CE02E82EA7
:101CE00021E08217C9F00E9490026C1B7D0B613DC0
:101CF000774068F3E0920A0281E08093090289E06C
:101D000092E00E94A10241E050E06DE271E084E2C5
:101D100094E00E94E700A6CF20E030E0A90167E34D
:101D200089E092E00E94CE0220E030E0A90169E261
:101D300089E092E00E94CE02E82E882361F00E94A2
:101D400090026C1B7D0B613D774030F3E0920A02FC
:101D500010930902D4CF89E092E00E94A10260ECC6
:101D600070E084E294E00E94D40181E00E941A04B1
:101D700081110DC00E941A04811109C041E050E098
:101D80006DE271E084E294E00E94E700EECF68EB40
:101D900070E084E294E00E94B60C66EF70E084E2AA
:101DA00094E00E94B60C60E070EF89E090E00E9441
:101DB0000D0B60E08DE290E00E940B0B60E884E088
:101DC00090E00E940B0B4CE050E06FE271E084E287
:101DD00094E00E94E700C12CD12C760161E08CE3F5
:101DE00091E00E945F0760E870E084E591E00E9466
:101DF000FF07092E000CAA0BBB0BC80ED91EEA1E4A
:101E0000FB1E0E94AA0662E082E291E00E945F0748
:101E1000B701A601615F7F4F81EC94E00E94C3058A
:101E200040E850E064E571E081EC94E00E948F09A5
:101E30000E94AA0664EF70E084E294E00E94D4015C
:101E400056EFC5165DE1D506E104F1043CF265EEFE
:101E500070E084E294E00E94B60C80E091E0909300
:101E600008028093070234E0432E512C40E5E42E13
:101E7000F12C66246A94712C6AE1862E912CD12C67
:101E8000C12CB12CA12C89E090E00E94FE0824E036
:101E9000880F991F2A95E1F72091070230910802D7
:101EA000820F931F0E94D608E82FF0E0F0930602FD
:101EB000E093050280810E943909A09104028A2FD3
:101EC000877080930302A170A093020286958170AF
:101ED00080930102E0910502F091060291817281E6
:101EE000292F372F309300022093FF01B381709385
:101EF000FD01B093FE01438154815093FC01409356
:101F0000FB014091FA01442319F041504093FA013A
:101F10004091F901442319F041504093F901809117
:101F2000F801882309F48FC0A90116E0569547955A
:101F30001A95E1F743704093F70197709093F6017B
:101F400003E0369527950A95E1F727702093F50170
:101F50004111B4C0963009F0B6C024813581309368
:101F6000FC012093FB0124E030E04111B8C0309324
:101F7000F4012093F301692F70E0433009F4B5C0F8
:101F8000C90101960E942C0990E00E94FE08EC0114
:101F90006091F60170E08091F3019091F401029656
:101FA0000E942C092091FD013091FE01829F800149
:101FB000839F100D11240C0F1D1F6091F60170E01E
:101FC0008091F3019091F4010E942C09C82FD0E078
:101FD0008091FA01811186C06091F60170E08091D4
:101FE000F3019091F40103960E942C09A801BE010F
:101FF00090E00E940E099093F1018093F00190937C
:10200000EF018093EE013091F501432F50E0440F32
:10201000551F20910202222309F476C09A013093C1
:10202000ED012093EC0140910102442361F03093D3
:10203000EB012093EA019093ED018093EC01309342
:10204000EF012093EE01E091E901E13308F03FC296
:10205000F0E0E35DFF4E0C943A298D10DF10501133
:1020600043114911D911DF138416A016DE16E318A7
:102070006C1A261BF21F50208720BB208921642266
:1020800057238D23B0234F247225CB208425882508
:102090008C259E253E267C269D26C126DC266F2388
:1020A000E426F326F82600280C2819282D285C2879
:1020B00076287D289428A028A828DA28423009F418
:1020C0004CCF413029F07093FB01B093FC014BCF12
:1020D000272F770F330B3093FE012093FD0130E063
:1020E00020E045CF8091F20181CF660F771FAA23B0
:1020F00011F0CB0180CF892F86958695860F972F7B
:10210000911D8770992777CF232F26952695240F29
:10211000352F311D2770332782CF609104026695D9
:1021200067706093E8010091FF01002E000C110B15
:10213000C0910202D0E070E08FE090E00E942C0994
:1021400090E00E94D6088823A1F091E0C927C09FA3
:102150009001C19F300DD09F300D11248091070256
:1021600090910802820F931F9093080280930702B8
:10217000AEC16091E80170E080E190E00E942C091E
:1021800090E00E94D6088111E0CF6091E80170E0F4
:1021900081E190E00E942C0990E00E94D608282E50
:1021A0006091E80170E082E190E00E942C0990E0EB
:1021B0000E94FE0891E02812C9CF90E0C7CF90910D
:1021C000040281E0492F487093FF80E0809302026F
:1021D00090910302292F30E0220F331F442389F10D
:1021E000C9010E94D6088093E7018093E6014091DF
:1021F0000202442379F18091E6019091E7019093E6
:10220000E5018093E4018091FF0190910002909399
:10221000E3018093E2019093E7018093E6019093BC
:10222000E1018093E0016091E60190910302292F82
:1022300030E0220F331F4423E9F0C9010E94EB0A6A
:1022400046C1892F86958695820F932F911D8770A1
:102250009927C7CF90E09093E5018093E401209106
:10226000FF01822F90E09093E3018093E20120939D
:10227000E601D5CF892F86958695820F932F911DE4
:1022800087709927DBCF8091030290E00E94FE08BF
:102290001CC18091030290E00E94FE080C94681A11
:1022A00081E08093020210920102809103028093E8
:1022B000F5012091F70184E090E0222311F090E0F5
:1022C00080E09093F4018093F3016091F60170E057
:1022D000233008F0DEC101960E942C0990E00E9494
:1022E000FE08EC016091F60170E08091F30190919D
:1022F000F40102960E942C092091FD013091FE010B
:10230000829F8001839F100D11240C0F1D1F60916F
:10231000F60170E08091F3019091F4010E942C0984
:10232000C82FD0E08091FA018111B0C16091F6010F
:1023300070E08091F3019091F40103960E942C09C2
:10234000A801BE0190E00E940E09BC017093F1014A
:102350006093F0017093EF016093EE019091F501AD
:10236000492F50E0440F551F809102029A018111BC
:1023700008C0292F26952695240F352F311D27704B
:1023800033273093ED012093EC01809101028823E3
:1023900061F03093EB012093EA017093ED016093BB
:1023A000EC013093EF012093EE018091DF018093E7
:1023B000F5018091F501823008F086C188E190E056
:1023C0000E94D6088093E701909102022091F501C6
:1023D000992309F461C18091E6019091E7019093FE
:1023E000E5018093E4014091E7015091E8015093A9
:1023F000E3014093E201840F951F019630E0220F24
:10240000331F821B930B9093E7018093E601909317
:10241000E1018093E0016091E6018091EC019091EF
:10242000ED010E94EB0AC1E0D0E0D093E301C0933C
:10243000E2010E94490B80910202E8E08E9FC001F8
:102440001124079602C0CC0FDD1F8A95E2F7209178
:10245000E4013091E5012F5F3F4F8091F501281B8A
:10246000310981E090E0C217D30711F090E080E0DD
:102470000E94410B80910202F8E08F9FC00111245D
:10248000079641E050E002C0440F551F8A95E2F7DD
:102490002091E4013091E5012F5F3F4F8091F501DC
:1024A000281B310981E090E04217530711F090E0BA
:1024B00080E00E94410B8091E901853019F480E1B0
:1024C0000E9439098091E60190E00E94D90B809129
:1024D000F70141E050E0833011F450E040E0849F88
:1024E0009001859F300D1124811105C081E09091EC
:1024F000F601963009F080E090E0880F991F820F76
:10250000931F2091F801289FE001299FD00D1124ED
:102510006091040270E08CE090E00E942C09C80FEA
:10252000D11D6091040270E08DE090E00E942C09C2
:102530002091020230E02F5F3F4FE82FE29FC00161
:10254000E39F900D11248C0F9D1FC0910702D09125
:102550000802C80FD91FD0930802C09307028091C8
:10256000DA0180FF40C083E0220F331F8A95E1F734
:10257000215031096091E0017091E10102C075952F
:1025800067952A95E2F761708CE290E00E940B0B50
:1025900061E08091E0019091E101892B09F060E018
:1025A0008BE290E00E940B0B6091E0017091E101E1
:1025B00077278BE090E00E942C09682F89E290E059
:1025C0000E940B0B8091DA0181FD0E94490B8091E2
:1025D000DA0182FF08C090E080E00E94950B90E055
:1025E00080E00E94410B8091D6019091D701019625
:1025F0009093D7018093D60160E27EE40E94F02898
:10260000892B19F481E08093D5018091D40188232E
:1026100019F081E00E942E0C8DE290E00E94D60815
:102620008093D4018091D501882309F42CCC80912A
:10263000FA01811128CC8091F901811124CC8EE21C
:1026400090E00E94D608882309F41DCC8DE290E02A
:102650000E94D608811117CC8AE00E942E0C10929D
:10266000D50184E294E00E944501181619062CF465
:1026700084E294E00E942301382E632D86EA94E0E0
:102680000E94EB0A87E00E942E0CFDCB8091F201A4
:1026900057CE660F771F5ACE4091E601642F70E047
:1026A0007093E5016093E40190E09093E3018093DF
:1026B000E20130E0220F331F821B930B0196840F3F
:1026C0008093E60190E0A3CE863009F46FC083309A
:1026D00031F489E090E00E94FE080E94D90B8091BD
:1026E000F50181FF23C08091F70121E030E08330C4
:1026F00011F430E020E0829FA001839F500D11244F
:10270000811105C021E08091F601863009F020E0BA
:1027100080910702909108020296840F951F30E085
:10272000220F331F820F931F0E94D90B8091F50156
:1027300080FF07C08091EC019091ED0102960E940C
:10274000D6088091EC019091ED0102960E94D60886
:10275000682F70E089E090E00E940D0B8091EC0101
:102760009091ED010E94D6088093E60190910202BB
:1027700020910702309108023093E5012093E40193
:10278000992391F08091E6019091E7019093E30104
:102790008093E20190930802809307029093E101F5
:1027A0008093E0018AE98CCE90E0F0CF8091F00137
:1027B0009091F1010E94D6088093E60183CE80912A
:1027C000EC019091ED019093EF018093EE01E09187
:1027D000F501E83008F07BCEF0E0EF50FC4E0C94B1
:1027E0003A29F913671244147914CE143615991541
:1027F000181680E20E9439092091070230910802E0
:102800002F5F3F4F80910202820F932F911D909373
:102810000802809307028091EE019091EF010E94DF
:10282000D6088093E601909102029923E1F020916D
:10283000E6013091E7013093E5012093E4014091F6
:10284000FB015091FC015093E3014093E2012423EA
:1028500035233093E1012093E001682F8091EE0150
:102860009091EF01EBCC282F30E03093E5012093DD
:10287000E4012091FB01422F50E05093E30140938B
:10288000E201282330E0E5CF0E94D6088093E701DB
:10289000909102029923D9F08091E6019091E7018D
:1028A0009093E5018093E4018091E7019091E80124
:1028B0009093E3018093E201809590959093E701D6
:1028C0008093E6019093E1018093E0013AC5209165
:1028D000E60130E03093E5012093E401282F30E059
:1028E0003093E3012093E20180958093E60190E02C
:1028F000E9CF0E94D6088093E701909102029923C4
:10290000D9F18091E6019091E7019093E5018093E0
:10291000E4018091E7019091E8019093E3018093B5
:10292000E2019195819591099093E7018093E601E9
:102930009093E1018093E0016091E6018091EE01C6
:102940009091EF010E94EB0A1092E5011092E401D0
:1029500088E20E94390981E090E04091E0015091C5
:10296000E1012091E4013091E5012417350708F0D9
:1029700074C20E94950BABCD2091E60130E03093FC
:10298000E5012093E401282F30E03093E301209308
:10299000E20181958093E60190E0CACF8091020226
:1029A000882391F180E10E943909C091F001D09112
:1029B000F101CA52D74F90E080E00E94FE08C89F04
:1029C000B001C99F700DD89F700D11247093E10163
:1029D0006093E001770F660B762F8091020290E002
:1029E00001960E940D0B6091E0017091E10190E071
:1029F00080E00E940D0B60E088E290E00E940B0BEB
:102A0000C5010E94410B63CD80E10E943909C0914C
:102A1000F001D091F101CA52D74FDD2790E080E05C
:102A20000E94D608282F2C9FC0012D9F900D1124A5
:102A30009093E1018093E0018091020290E060E0D8
:102A400001960E940B0B6091E0017091E10190E012
:102A500080E00E940D0B8091E0019091E1018827B8
:102A60000E94950B082E000C990BCBCF809102028F
:102A7000882381F180E10E943909C091F001D09151
:102A8000F101CA52D74F90E080E00E94FE08C89F33
:102A9000B001C99F700DD89F700D11247093E10192
:102AA0006093E001770F660B762F8091020290E031
:102AB00001960E940D0B6091E0017091E10190E0A0
:102AC00080E00E940D0B60E088E290E00E940B0B1A
:102AD000C60197CF80E10E943909C091F001D091E1
:102AE000F101CA52D74F90E080E00E94D6088C02D4
:102AF000B00111247093E1016093E001770F660B40
:102B0000762F8091020290E001960E940B0B60915B
:102B1000E0017091E10190E080E00E940D0B809156
:102B2000E0019091E101082E881B910907FC939523
:102B300097CF8091F0019091F10120910202222320
:102B4000E9F10E94D60890E09093DE018093DD01C8
:102B5000892B09F4D5C08091020290E001960E9471
:102B6000FE0890E080E00E94FE08EC019093EB01EB
:102B70008093EA016091DD017091DE010E94F028EE
:102B80007093F4016093F30190E080E00E940D0BDC
:102B90002091DD013091DE01AC01429FC001439FD5
:102BA000900D529F900D1124BE01681B790B8091EE
:102BB000020290E001960E940D0B89CC0E94D6087B
:102BC00090E09093DE018093DD01892B09F498C099
:102BD0008091020290E001960E94D60890E080E089
:102BE0000E94FE08C82F8093EA019093EB01609148
:102BF000DD017091DE010E94F0287093F401609372
:102C0000F301CB0199276817790709F079C090E0A3
:102C100080E00E94EB0A9091DD016C2F899F601982
:102C200011248091020290E001960E940B0B4FCC80
:102C30008091F0019091F101209102022223A1F1F3
:102C40000E94D60890E09093DE018093DD01892BED
:102C500009F456C08091020290E001960E94FE089D
:102C600090E080E00E94FE08EC019093EB018093DD
:102C7000EA016091DD017091DE010E9404297093E8
:102C8000F4016093F30190E080E00E940D0B20912D
:102C9000DD013091DE01FC01E29FC001E39F900D58
:102CA000F29F900D112480CF0E94D608082E000CB0
:102CB000990B9093DE018093DD01892B09F18091BE
:102CC000020290E001960E94D60890E080E00E9407
:102CD000FE08C82F8093EA019093EB016091DD011B
:102CE0007091DE010E9404297093F4016093F30156
:102CF000262F062E000C330B6217730709F487CFBB
:102D000080E00E942E0CE3CB1092F1011092F001B2
:102D10008091FF01909100029093FC018093FB0150
:102D200083E08093F7018091DF018093F50180912A
:102D3000070290910802019790930802809307027E
:102D40008091F0019091F1019093EF018093EE0159
:102D500081E090910202911180E090910102892B13
:102D6000809301026091FB017091FC01882319F0AE
:102D7000062E000C770B8DE090E00E940D0B9092D8
:102D8000ED018092EC018091010222E030E0882385
:102D900011F021E030E08091070290910802820F4B
:102DA000931F90930802809307028091F50180930E
:102DB000DF01880F880F880F0E943909E091DF0139
:102DC000E93008F084CBF0E0E451F94E8091EC0159
:102DD0009091ED010C943A29F51643176E17D81708
:102DE0004B1876183621B5186F190E94D6088093B3
:102DF000E70190910202992399F18091E601909167
:102E0000E7019093E5018093E4012091E70130917F
:102E1000E8013093E3012093E201820F931F909326
:102E2000E7018093E6019093E1018093E0016091D6
:102E3000E6018091EE019091EF010E94EB0A81E0A2
:102E400090E04091E0015091E1012091E401309146
:102E5000E5014217530708F48CCD90E080E089CD5E
:102E60009091E601292F30E03093E5012093E401B1
:102E7000282F30E03093E3012093E201890F809303
:102E8000E60190E0D0CF0E94D6088093E7019091B0
:102E90000202992399F08091E6019091E7019093C5
:102EA000E5018093E4012091E7013091E80130933E
:102EB000E3012093E201822B932B00CD9091E60158
:102EC000292F30E03093E5012093E401282F30E0F2
:102ED0003093E3012093E201892B07CD0E94D608AD
:102EE0008093E70180910202882309F446C0809113
:102EF000E6019091E7019093E5018093E40188E277
:102F000090E00E94D6082091E7013091E8013093CB
:102F1000E3012093E2014091E6015091E701240F83
:102F2000351F820F932F911D9093E7018093E60147
:102F30009093E1018093E0016091E6018091EE01C0
:102F40009091EF010E94EB0A88E290E00E94D6087F
:102F50002091E4013091E5014091E0015091E101BF
:102F6000882321F04217530709F493C081E04217E8
:102F700053070CF468C080E066C08091E60190E0E1
:102F80009093E5018093E40188E290E00E94D608E6
:102F90009091E701292F30E03093E3012093E20183
:102FA0002091E601920F890F8093E60190E0C0CF57
:102FB0000E94D6088093E70180910202882309F4D9
:102FC00048C08091E6019091E7019093E5018093DC
:102FD000E40188E290E00E94D6084091E701509118
:102FE000E8015093E3014093E2012091E601309122
:102FF000E701241B350B281B31093093E70120938F
:10300000E6013093E1012093E0016091E6018091B7
:10301000EE019091EF010E94EB0A88E290E00E949D
:10302000D6082091E4013091E5014091E0015091F2
:10303000E101882319F04217530759F181E0241761
:1030400035070CF098CF90E00E94950B0E94490B39
:103050003ECA8091E60190E09093E5018093E401FF
:1030600088E290E00E94D6082091E701422F50E0CC
:103070005093E3014093E2019091E601921B981B6B
:10308000892F9093E60190E09093E1018093E00115
:10309000BCCF81E0D8CF0E94D6088093E701909101
:1030A0000202992399F08091E6019091E7019093B3
:1030B000E5018093E4012091E7013091E80130932C
:1030C000E3012093E20182239323F8CB9091E60160
:1030D000292F30E03093E5012093E401282F30E0E0
:1030E0003093E3012093E2018923FFCB0E94D608AD
:1030F000982F8093E70180910202882319F1809133
:10310000E6019091E7019093E5018093E40120911D
:10311000E7013091E8013093E3012093E201821B43
:10312000930B9093E7018093E6019093E1018093E4
:10313000E0016091E6018091EE019091EF010E9423
:10314000EB0A09CC8091E601282F30E03093E501AD
:103150002093E401292F30E03093E3012093E20132
:10316000891B8093E60190E0E0CF0E94D60880930F
:10317000E70190910202992399F08091E6019091E4
:10318000E7019093E5018093E4012091E7013091FC
:10319000E8013093E3012093E201821B930BC5CF3A
:1031A0002091E60130E03093E5012093E40190E0C6
:1031B0009093E3018093E201281B390B3093E101E6
:1031C0002093E001B6CF809102028111BDC081E061
:1031D000809302028091F501885F8093F501209130
:1031E000F70184E090E0222311F090E080E09093DA
:1031F000F4018093F3016091F60170E0233008F050
:103200008AC001960E942C0990E00E94FE08EC0101
:103210006091F60170E08091F3019091F4010296C3
:103220000E942C092091FD013091FE01829F8001B6
:10323000839F100D11240C0F1D1F6091F60170E08B
:103240008091F3019091F4010E942C09C82FD0E0E5
:103250008091FA0181115CC06091F60170E080916B
:10326000F3019091F40103960E942C09A801BE017C
:1032700090E00E940E09BC017093F1016093F0018F
:103280007093EF016093EE019091F501492F50E0AA
:10329000440F551F809102029A01811108C0292F05
:1032A00026952695240F352F311D2770332730930F
:1032B000ED012093EC0180910102882361F03093AD
:1032C000EB012093EA017093ED016093EC013093E0
:1032D000EF012093EE018091EC019091ED010E94AD
:1032E000D6088093E701909102029923B9F080916A
:1032F000E6019091E7019093E5018093E4018091CC
:10330000E7019091E8019093E3018093E201D6CA2E
:103310008091F201ABCF660F771FAECF2091E6010F
:1033200030E03093E5012093E401282F30E0309322
:10333000E3012093E2018093E6013093E1012093C1
:10334000E0016091E6018ACA809101028111B9C051
:1033500081E08093FA018CE08093F2012091F701E3
:1033600084E090E0222311F090E080E09093F4015B
:103370008093F3016091F60170E0233008F08EC075
:1033800001960E942C0990E00E94FE08EC016091D9
:10339000F60170E08091F3019091F40102960E9491
:1033A0002C092091FD013091FE01829F8001839FB5
:1033B000100D11240C0F1D1F6091F60170E080911B
:1033C000F3019091F4010E942C09C82FD0E0809164
:1033D000FA01811160C06091F60170E08091F30103
:1033E0009091F40103960E942C09A801BE0190E07F
:1033F0000E940E09BC017093F1016093F00170937B
:10340000EF016093EE019091F501492F50E0440FD8
:10341000551F809102029A01811108C0292F26951B
:103420002695240F352F311D277033273093ED015A
:103430002093EC0180910102882361F03093EB012D
:103440002093EA017093ED016093EC013093EF015A
:103450002093EE018091EC019091ED010E94D6083D
:103460008093E601909102029923D9F08091E601C0
:103470009091E7019093E5018093E4018091F00140
:103480009091F1019093E3018093E2019093E70121
:103490008093E6015AC68091F201A7CF660F771F8D
:1034A000AACF90E09093E5018093E4012091F00190
:1034B000822F90E09093E3018093E2012093E60154
:1034C00044C68091F0019091F1010E94D60890E0ED
:1034D0000E949D0B0C9467121092F5011092F70157
:1034E00086E08093F6018091FF0190910002909315
:1034F000FE018093FD015092F4014092F30166E0D9
:1035000070E085E090E00E942C0990E00E94FE08A7
:10351000EC016091F60170E08091F3019091F4016B
:1035200002960E942C092091FD013091FE01829F9C
:103530008001839F100D11240C0F1D1F6091F60157
:1035400070E08091F3019091F4010E942C09C82F42
:10355000D0E08091FA0181114EC06091F60170E0D7
:103560008091F3019091F40103960E942C09A80127
:10357000BE0190E00E940E099093F1018093F0014A
:103580009093EF018093EE01209102023091F501BA
:103590002223A1F1232F30E0220F331F3093ED01BE
:1035A0002093EC0140910102442361F03093EB0140
:1035B0002093EA019093ED018093EC013093EF01A9
:1035C0002093EE018091EE019091EF010E94D608C8
:1035D0008093E701909102029923E9F08091E6013E
:1035E0009091E7019093E5018093E4018091E701D8
:1035F0009091E80147CF8091F201B9CF432F50E07D
:10360000440F551F232F26952695240F352F311D46
:1036100027703327C3CF2091E60130E03093E501D6
:103620002093E401282F30E03093E3012093E2015E
:103630008093E6013093E1012093E0016091E6017F
:103640008091EC019091ED010C941E118091F0019C
:103650009091F1010E94D6088093E6012091020228
:1036600090E0222321F08091E6019091E701F8E0BB
:103670002F9F90011124295F3F4F02C09595879598
:103680002A95E2F7817099279093F4018093F301D2
:103690008091DF01882339F180910702909108021F
:1036A000019690930802809307028091FD01082EF5
:1036B000000C990B9093EB018093EA010097E9F4D9
:1036C000E091F501E83010F00C946712F0E0E55954
:1036D000F44E0C943A29831C021D9D1D5F1E201F71
:1036E0004D1F67125F1F809101028111C2C081E0EE
:1036F00090E09093EB018093EA012091F501243052
:10370000C0F56091020270E06F5F7F4FE3E0660FEB
:10371000771FEA95E1F72695620F711D0E94F02848
:103720009093EB018093EA018091F0019091F10177
:103730000E94D6088093E60190910202992309F431
:103740009FC08091F3019091F4019093E5018093E3
:10375000E4018091E6019091E7019093E301809369
:10376000E2019093F4018093F3019093E10180933F
:10377000E0018091F50180FF08C08091F0019091F7
:10378000F1010E94D6088093E6018091020288230D
:1037900009F480C08091E6019091E7019093E501E2
:1037A0008093E4012091EA013091EB012093E20142
:1037B0003093E30102C0969587952A95E2F790939E
:1037C000E7018093E6019093E1018093E00160912D
:1037D000E6018091F0019091F1010E94EB0A809145
:1037E000F501843018F080E10E9439098091F501DB
:1037F000853008F467C02091EA013091EB01215037
:1038000031098091E4019091E50102C09695879578
:103810002A95E2F7817099270E94950B8091020208
:10382000882309F458C08091E6019091E7019093B4
:10383000E5018093E4012091EA013091EB012093AE
:10384000E2013093E30102C0880F991F2A95E2F745
:103850009093E7018093E6019093E1018093E0016A
:103860006091E6018091F0019091F1010E94EB0AD4
:1038700027CF82E090E00E94D6088F7190E01ACFA7
:103880002091F3013091F4013093E5012093E4019C
:1038900090E063CF8091E60190E09093E501809302
:1038A000E4012091EA01422F50E05093E30140935C
:1038B000E20102C0959587952A95E2F78093E6018B
:1038C000992781CF8091F0019091F1010E94D60853
:1038D0008093E601A3CF8091E60190E09093E5010B
:1038E0008093E4012091EA01422F50E05093E301DC
:1038F0004093E20102C0880F991F2A95E2F7809356
:10390000E6019927A9CF8091F0019091F1010E94E1
:10391000D6088093E601909102024091EA0150910D
:10392000EB01992309F44FC02091E6013091E701A2
:103930003093E5012093E401892F90E0019673E034
:10394000880F991F7A95E1F7841B950B4091F3013D
:103950005091F40102C0569547958A95E2F750932D
:10396000E3014093E201240F351F3093E7012093D8
:10397000E6013093E1012093E0016091E60180913E
:10398000F0019091F1010E94EB0A10910202C091A6
:10399000E001D091E101CE01817099270E94950B41
:1039A00048E0149F90011124295F3F4F02C0D59534
:1039B000C7952A95E2F7C170DD27082E000C990BF8
:1039C0008C279D271EC8282F30E03093E5012093D7
:1039D000E4012091F30130E068E070E0641B750BB6
:1039E00002C0359527956A95E2F73093E30120935D
:1039F000E201820F8093E60190E09093E1018093D1
:103A0000E001BBCF81E090E00090EA0102C0880FA6
:103A1000991F0A94E2F701972091F3013091F40184
:103A2000822393239093F4018093F3018091F0011A
:103A30009091F1010E94D6088093E60190910202D4
:103A40004091EA015091EB01992309F457C020916C
:103A5000E6013091E7013093E5012093E401892FDD
:103A600090E0019663E0880F991F6A95E1F7841B47
:103A7000950B4091F3015091F40102C0440F551F82
:103A80008A95E2F75093E3014093E201240F351F3A
:103A90003093E7012093E6013093E1012093E001A8
:103AA0006091E6018091F0019091F1010E94EB0A92
:103AB000C09102028091E0019091E1018C01000F20
:103AC000111F58E0C59FE001112427960C2E02C05B
:103AD000959587950A94E2F7817099270E94950B36
:103AE00002C015950795CA95E2F701701127082EB7
:103AF000000C990B802791270C940115282F30E09A
:103B00003093E5012093E4012091F30130E068E077
:103B100070E0641B750B02C0220F331F6A95E2F739
:103B20003093E3012093E201820F8093E60190E05D
:103B30009093E1018093E001B3CF8091F0019091E7
:103B4000F1010E94D6088093E60190910202992328
:103B500009F479C08091E6019091E7019093E50125
:103B60008093E40188E290E00E94D6084091EA0147
:103B70005091EB012091020230E02F5F3F4FD3E0E4
:103B8000220F331FDA95E1F7241B350B2F5F3F4FD0
:103B90006091F3017091F401FB0102C0F695E79585
:103BA0002A95E2F79F01F093E301E093E20190E0B0
:103BB0004150510902C0880F991F4A95E2F7409180
:103BC000E6015091E701240F351F820F931F909358
:103BD000E7018093E6019093E1018093E001609119
:103BE000E6018091F0019091F1010E94EB0A0091B1
:103BF0000202C091E001D091E10110E00F5F1F4F80
:103C0000B3E0000F111FBA95E1F78091EA0190919E
:103C1000EB019801281B390B81E090E002C0880F6E
:103C2000991F2A95E2F72091F3013091F401822344
:103C300093230E94950B0150110902C0D595C79599
:103C40000A95E2F7B8CE90E09093E5018093E40105
:103C500088E290E00E94D6086091EA017091EB0141
:103C60004091F30150E02091020230E02F5F3F4F7E
:103C7000C3E0220F331FCA95E1F7261B370B2F5FD6
:103C80003F4F02C0559547952A95E2F75093E301BF
:103C90004093E20190E06150710902C0880F991FC2
:103CA0006A95E2F7480F591F8091E601480F40934B
:103CB000E60150E05093E1014093E00190CF809104
:103CC000F0019091F1010E94D6088093E601909155
:103CD0000202992309F479C08091E6019091E701ED
:103CE0009093E5018093E40188E290E00E94D60879
:103CF0002091020230E02F5F3F4FA3E0220F331FDD
:103D0000AA95E1F74091EA015091EB01241B350B94
:103D1000B9016F5F7F4F4091F3015091F40102C0F0
:103D2000440F551F6A95E2F75093E3014093E20177
:103D30006091E6017091E701460F571F90E002C0C5
:103D4000880F991F2A95E2F7480F591F5093E701F2
:103D50004093E6015093E1014093E0016091E60158
:103D60008091F0019091F1010E94EB0A2091EA010B
:103D70003091EB012150310981E090E002C0880FC1
:103D8000991F2A95E2F72091F3013091F4018223E3
:103D900093230E94950B209102028091E001909163
:103DA000E101F8E02F9F90011124295F3F4FAC0102
:103DB000440F551F8427952702C0959587952A950E
:103DC000E2F7817099270C94011590E09093E5013A
:103DD0008093E40188E290E00E94D60820910202DC
:103DE00030E02F5F3F4FF3E0220F331FFA95E1F7EA
:103DF0004091EA015091EB01241B350B4091F301F6
:103E000050E0B9016F5F7F4F02C0440F551F6A95A4
:103E1000E2F75093E3014093E20190E002C0880F83
:103E2000991F2A95E2F7840F951F9091E601890F5B
:103E30008093E60190E09093E1018093E0018ECFC2
:103E40002091020248E0249F90011124295F3F4FF6
:103E5000C091E001D091E101022E02C0D595C79535
:103E60000A94E2F7C170DD274091EA015091EB011D
:103E7000415051098091E4019091E50102C0880F01
:103E8000991F4A95E2F702C0969587952A95E2F721
:103E9000817099270E94950B90CD2091020258E0E5
:103EA000259F90011124295F3F4F8091E40190915B
:103EB000E50102C0969587952A95E2F782CF809119
:103EC000020290E0019673E0880F991F7A95E1F75E
:103ED0002091EA013091EB012817390730F08091E9
:103EE000F3019091F4010E94950B90E080E00E9414
:103EF000410B8091F0019091F1010E94D6088093CE
:103F0000E60140910202442309F446C02091E601F3
:103F10003091E7013093E5012093E40150E04F5FD9
:103F20005F4F63E0440F551F6A95E1F781E090E031
:103F300002C0880F991F4A95E2F701970090EA01A5
:103F400002C0959587950A94E2F7809590956091C7
:103F5000F3017091F401869FA001879F500D969FF9
:103F6000500D11245093F4014093F3015093E30159
:103F70004093E201240F351F3093E7012093E601BF
:103F80003093E1012093E0016091E6018091F0011E
:103F90009091F1010C941E11282F30E03093E5012F
:103FA0002093E40193010090EA0102C03595279522
:103FB0000A94E2F7209530959091F301929F902D0D
:103FC00011249093F301292F30E03093E3012093E3
:103FD000E201890F8093E60190E09093E1018093E4
:103FE000E001D2CF81E090E00E94FE088093E601DC
:103FF000E82FE150FF0BBF0181E090E00E940D0B24
:104000008091E6018150990B9093EB018093EA0136
:1040100080910302813029F178F0833049F1609179
:10402000FF014091EA015091EB0164039001659F0B
:10403000300D11240C94AE108BE290E00E94D60853
:1040400021E030E0882311F030E020E08091EA01A7
:104050009091EB01822393239093EB018093EA01EB
:10406000DECF8BE290E00E94D608282F30E0EECF22
:1040700081E090E00E94FE088093E6019927BC0150
:104080006F5F7F4F81E090E00E940D0B8091E60111
:10409000811103C082E090E0DFCF81E090E0DCCFCF
:1040A0002091010280910702909108020396821BE1
:1040B0009109909308028093070230910202311116
:1040C0000EC0222309F1109208021092070260919B
:1040D000FB017091FC0189E090E00E940D0B2091A2
:1040E000FF013091000280910102882311F40C94A9
:1040F000AE1080910202882311F40C94AE10022EAF
:10410000000C330B0C94AE100E94D90BE8CF8091B9
:10411000EE019091EF010E94D6088093E701909103
:1041200002029923B9F08091E6019091E701909302
:10413000E5018093E4012091E7013091E80130939B
:10414000E3012093E201822393239093E101809382
:10415000E00174CA9091E601292F30E03093E50127
:104160002093E401282F30E03093E3012093E20113
:10417000892390E0EACF81E0809302021092EF0160
:104180001092EE018091030290E0880F991F9093A6
:10419000ED018093EC018091EC019091ED01209173
:1041A000EE013091EF012817390711F40C946712D2
:1041B0000E94D6088093E70190910202992309F4A6
:1041C00071C08091E6019091E7019093E5018093A1
:1041D000E4012091E7013091E8013093E30120935D
:1041E000E201822793279093E7018093E601909361
:1041F000E1018093E0016091E6018091EE019091F0
:10420000EF010E94EB0A8091EE019091EF010E9474
:10421000D6088093E70190910202992309F455C0D2
:104220008091E6019091E7019093E5018093E4018C
:104230002091E7013091E8013093E3012093E201FE
:10424000822793279093E7018093E6019093E10101
:104250008093E0016091E6018091EC019091ED0185
:104260000E94EB0A8091EC019091ED010E94D6082A
:104270008093E701909102029923D1F18091E601A8
:104280009091E7019093E5018093E4012091E7018B
:104290003091E8013093E3012093E20182279327D4
:1042A0000C945E149091E601292F30E03093E501E3
:1042B0002093E401282F30E03093E3012093E201C2
:1042C00089278093E60190E092CF9091E601292F13
:1042D00030E03093E5012093E401282F30E0309363
:1042E000E3012093E20189278093E60190E0AECFBD
:1042F0009091E601292F30E03093E5012093E4010D
:10430000282F30E03093E3012093E20189270C94B9
:1043100075148091FA01882309F4AAC08091F201F2
:1043200090E09093F4018093F3018091F901882348
:1043300009F4A1C081E090E00E94FE089093EB0197
:104340008093EA018091EA019091EB01892B09F4B5
:10435000AFC08091DF0180FD91C050E040E066E099
:1043600070E08091F3019091F4010E940E090E9487
:10437000D6088093E70190910202992309F481C045
:104380008091E6019091E7019093E5018093E4012B
:104390008091E7019091E8019093E3018093E2011D
:1043A0009093E7018093E6019093E1018093E0010F
:1043B000C091E6018091DF01823008F076C050E0C4
:1043C00040E067E070E088E090E00E940E096C2F0A
:1043D0000E94EB0A8091DF0180FD20C086E090E022
:1043E0000E94FE08EC018FE290E00E94D60890E067
:1043F000880F991F01972091020230E02F5F3F4FF5
:10440000829FA001839F500D929F500D1124BE01E9
:10441000641B750B86E090E00E940D0B8091DF011C
:1044200081FD20C087E090E00E94FE08EC018FE251
:1044300090E00E94D60890E0880F991F0197209184
:10444000020230E02F5F3F4F829FA001839F500DFB
:10445000929F500D1124BE01641B750B87E090E004
:104460000E940D0B8091EA019091EB01019766CFBC
:104470008BE090E056CF81E090E060CF90E080E06C
:1044800076CF2091E60130E03093E5012093E401FE
:10449000282F30E03093E3012093E2018093E6017E
:1044A0003093E1012093E00183CF90E080E08FCF53
:1044B0008091F901882311F40C94671270E060E098
:1044C00081E090E00C94DB158091FA01882391F053
:1044D0008091F20190E09093F4018093F301809138
:1044E000F90181110AC081E090E09093EB01809383
:1044F000EA010FC08BE090E0EECF81E090E00E94F7
:10450000FE089093EB018093EA01892B11F40C943F
:1045100067128091EA019091EB01892B09F4BFC0E9
:1045200050E040E067E070E088E090E00E940E0913
:104530000E94D6088093E70190910202C091E601A3
:10454000992309F497C08091E6019091E701909337
:10455000E5018093E4012091E7013091E801309377
:10456000E3012093E201821B930B9093E10180937E
:10457000E0018091DF0181118FC050E040E066E0F2
:1045800070E08091F3019091F4010E940E096C2F6C
:104590000E94EB0A8091DF01811120C086E090E04B
:1045A0000E94FE08EC018FE290E00E94D60890E0A5
:1045B000880F991F01972091020230E02F5F3F4F33
:1045C000829FA001839F500D929F500D1124BE0128
:1045D000641B750B86E090E00E940D0B81E090E07B
:1045E0000E94FE088093E601282F2150330BB90169
:1045F00081E090E00E940D0B87E090E00E94FE08B1
:10460000EC018FE290E00E94D60890E0880F991F9D
:1046100001972091020230E02F5F3F4F829FA0015F
:10462000839F500D929F500D1124BE01641B750B8A
:1046300087E090E00E940D0B8091F901882309F436
:10464000C9C58091E601813081F081E090E0209140
:10465000E0013091E101232B11F090E080E0209106
:10466000DC012817190609F454CF1092EB011092BF
:10467000EA014FCF2C2F30E03093E5012093E40185
:1046800090E09093E3018093E201281B390B309373
:10469000E1012093E0016DCF90E080E078CF83E0EE
:1046A00090E09093DB018093DA010C94AB1480913D
:1046B00002028093010280910702909108020E94F9
:1046C0009D0B8091DF01882331F089E090E00E940A
:1046D000FE080E949D0B8091DF0181FF0BC080913D
:1046E000EA019091EB010E949D0B90E00E94220B49
:1046F0000C9467128091010281110C94671284E07E
:1047000090E00E94FE086091FF0170910002680F26
:10471000791F84E090E00C94DB158091EC0190917E
:10472000ED010E94D6088093E60190910202992340
:1047300071F08091E6019091E7019093E5018093FB
:10474000E4018091FB019091FC010C94421A90E0ED
:104750009093E5018093E4012091FB010C94581A99
:104760001092FA0180911A02815080931A0280936C
:104770001C028091B40599E089278093B40580914B
:10478000DF018823D9F182E090E00E94FE08909337
:10479000EB018093EA0180369105B1F510923E025B
:1047A00090E080E00E94D6088093E601909102029A
:1047B0002091EA013091EB01992309F45EC08091C8
:1047C000E6019091E7019093E5018093E401265280
:1047D0003E4FF901808191819093E3018093E20142
:1047E0009093E7018093E6019093E1018093E001CB
:1047F0006091E60190E080E00C9415168091FF0135
:10480000909100029927C3CF853D934049F680914E
:10481000AE0590E095958795079711F68EE994E09F
:104820000E94D608182F8DE994E00E94D608C82F60
:10483000D0E040E5149FC00DD11D11248DEA94E015
:104840000E94D608C80FD11D8091AE05282F217077
:1048500080FF10C08FEF90E0C823D92380E02111A2
:1048600001C088E002C0D695C7958A95E2F7C0934B
:10487000AF0596CF80E09FEFEFCF90E09093E501FA
:104880008093E40126523E4FF9012081822F90E06F
:104890009093E3018093E2012093E601A5CF8091FC
:1048A000DF01882309F400C182E090E00E94FE0845
:1048B0009093EB018093EA0190E080E00E94D6089B
:1048C0008093E601909102022091EA013091EB0180
:1048D000F901E652FE4F992309F4ECC080819181E1
:1048E0009093E5018093E4018091E6019091E701C6
:1048F0009093E3018093E201918380839093E1019F
:104900008093E0012136310569F41092D90190E0DD
:1049100080E00E94D608982F93708091D801892B4F
:104920008093D8018091EA019091EB018D7F8034D2
:104930009105D9F480911D028670B9F090E080E075
:104940000E94D6082091EA013091EB019091D901A3
:1049500041E094279093D90127593B4F682FA90133
:10496000491B5109CA010E94EB0A8091EA0190910A
:10497000EB01853D9340A1F48091AE0590E09595C3
:104980008795069769F490E080E00E94D608682F2A
:104990008091AE0580FDA0C08EEA94E00E94EB0AF3
:1049A0008091EA019091EB01853D934009F058C058
:1049B0008091AE0590E095958795079709F050C0D6
:1049C0008EE994E00E94D608C82F8DE994E00E94F9
:1049D000D608082F10E0F0E5CF9F000D111D11241F
:1049E0008DEA94E00E94D608080F111D8091AE0553
:1049F00080FF75C080E09FEF0823192390E080E0DE
:104A00000E94D608C82FD0E08091AE05212C80FDF1
:104A100002C0A8E02A2E8DEA94E00E94D60802C0C7
:104A2000CC0FDD1F2A94E2F7C81BD109CE01800FFD
:104A3000911F9093F4018093F301B7010E94F02835
:104A4000682F8DE994E00E94EB0A8091F301909128
:104A5000F401B7010E94F0288EE994E00E94EB0A6D
:104A60008091EA019091EB01853B934041F4809164
:104A70008E05813021F490E080E00E94D60880917C
:104A8000EA019091EB01853B934011F00C94671281
:104A900080918E05863011F00C94671290E080E0D2
:104AA0000E94D6080C9467128091FF019091000239
:104AB0009927FECE408150E05093E5014093E401F8
:104AC000482F50E05093E3014093E20180835093DC
:104AD000E1014093E00116CF8DEA94E05FCF8FEFC4
:104AE00090E08ACF82E08093F90180910202809366
:104AF000DC018091FA01882311F40C9467128F5F16
:104B00008093FA010C9467128091DF010C94451197
:104B10008091DF010C944B1182E08093FA01809127
:104B2000DF018093F2018091F901882311F40C9444
:104B300067128F5F8093F9010C9467121092020242
:104B40008091DF0190E0882309F492C080E00E9408
:104B5000D6088093E60190E080E00E94D608282FD6
:104B600030E03093F4012093F3018F7061E08A30DC
:104B700040F48AE290E00E94D60861E0811101C011
:104B800060E08AE290E00E940B0B6091E60190E009
:104B900080E00E940B0B90E080E00E94D60880939A
:104BA000E6018091F30191E08A3940F488E290E0D7
:104BB0000E94D60891E0811101C090E0892F90E019
:104BC0000E94950B882351F08091E60180568093D6
:104BD000E60190E09093E1018093E0016091E601AD
:104BE00090E080E00E940B0B90E080E00E94D608ED
:104BF000282F30E03093F4012093F3018F7061E0AF
:104C00008A3040F48AE290E00E94D60861E0811187
:104C100001C060E08AE290E00E940B0B6091E60127
:104C200090E080E00E940B0B90E080E00E94D608AC
:104C30008093E60190E080E00E94D608807F91E0BA
:104C4000813940F488E290E00E94D60891E0811119
:104C500001C090E0892F90E00E94950B882309F411
:104C6000C7CD8091E601805A8093E60190E0BCCDEB
:104C700080E00E94D6088093E601B6CF90E080E005
:104C80000E94FE088093E60190E080E00E94D60832
:104C90008F7091E08A3040F48AE290E00E94D6085A
:104CA00091E0811101C090E0892F90E00E94950B66
:104CB00061E0811101C060E08AE290E00E940B0B8C
:104CC0006091E60170E090E080E00E940D0B90E0C2
:104CD00080E00E94D608682F6F706093E70190E033
:104CE00080E00E940B0B8091E60190E09093E1013F
:104CF0008093E0010C94671290E080E00E94D60857
:104D00008093E6012091020290E0222321F080911D
:104D1000E6019091E70148E0249F90011124295F6A
:104D20003F4F02C0959587952A95E2F78170682FCD
:104D3000619581E090E00C94151690E080E00E946F
:104D4000FE088093E601209102029927222321F098
:104D50008091E6019091E70158E0259F9001112490
:104D6000295F3F4F02C0959587952A95E2F781709C
:104D7000992766277727681B790B82E090E00C94CF
:104D8000DB1589E090E00E94FE080E94D90B80911B
:104D900007029091080205960E94D90B6091FB01D1
:104DA0007091FC0189E090E00E940D0B8091FF0161
:104DB000909100020C94B4100E9461098091EA0164
:104DC0009091EB010C9465120E946109C091EA0177
:104DD000D091EB01CC2781E090E00E94D6088C0FA7
:104DE0009D2F911D83CC0E9461096091EA01A1CFA2
:104DF00081E080930102809302022091F70184E018
:104E000090E0222311F090E080E09093F4018093F1
:104E1000F3016091F60170E0233008F0C6C00196FE
:104E20000E942C0990E00E94FE08EC016091F601BE
:104E300070E08091F3019091F40102960E942C0998
:104E40002091FD013091FE01829F8001839F100D12
:104E500011240C0F1D1F6091F60170E08091F30189
:104E60009091F4010E942C09C82FD0E08091FA01A2
:104E7000811198C06091F60170E08091F3019091EA
:104E8000F40103960E942C09A801BE0190E00E9443
:104E90000E09BC017093F1016093F0017093EF0172
:104EA0006093EE019091F501492F50E0440F551F9A
:104EB000809102029A01811108C0292F269526951A
:104EC000240F352F311D277033273093ED012093A8
:104ED000EC0180910102882361F03093EB01209373
:104EE000EA017093ED016093EC013093EF012093A0
:104EF000EE018091EC019091ED010E94D608809323
:104F0000E70190910202992309F452C08091E601D1
:104F10009091E7019093E5018093E4018091E7018E
:104F20009091E8019093E3018093E2019093E7016F
:104F30008093E6019093E1018093E0016091E601A6
:104F40008091EE019091EF010E94EB0A8091F001B7
:104F50009091F10102960E94D6088093E70190910A
:104F600002029923C9F18091E6019091E7019093A3
:104F7000E5018093E4018091E7019091E80190932D
:104F8000E3018093E2019093E7018093E60190931F
:104F9000E1018093E0018091DF016091E60190E002
:104FA0000C941E118091F2016FCF660F771F72CFA4
:104FB0002091E60130E03093E5012093E401282FB1
:104FC00030E03093E3012093E2018093E6013093D7
:104FD000E1012093E001B2CF2091E60130E030936F
:104FE000E5012093E401282F30E03093E301209382
:104FF000E2018093E6013093E1012093E001CBCF01
:105000008091070290910802019690930802809384
:10501000070283E00C9481168091070290910802A8
:10502000029690930802809307028091FF010C94EE
:1050300081168091070290910802019690930802D0
:105040008093070280E390E00E94D608882311F441
:105050000C94671284E00C9481168091FF0190916A
:1050600000029927909300028093FF01892B11F48D
:105070000C94801690E080E00E94D60890E0609149
:10508000FF01709100020E94F02881E090E00E94F0
:105090000B0B90E080E00E94D60890E06091FF0149
:1050A000709100020E94F0288093E6018093E00155
:1050B0009093E101682F9ECB1092020290E080E075
:1050C0000E94D608C82F81E090E00E94D6089091F7
:1050D000FF01899FC00D11246C2F70E07093E101D6
:1050E0006093E00190E080E00C94DB1588E290E0B2
:1050F0000E94D608682F61957DCB90E080E00E94E9
:10510000D608482F50E08091FA01882351F0809111
:10511000F20190E063E070E00E940E090E94D60860
:10512000C9CF8BE090E0F6CF88E290E00E94D608ED
:1051300061E068276093E60188E290E00C94151620
:105140008091DF01682F6170869590E00C941516B0
:1051500090E080E00E94D6088093E60190910202E0
:105160009923B9F02091E6013091E7013093E501F0
:105170002093E4014091FF01509100025093E3011C
:105180004093E201242335233093E1012093E00191
:1051900091CF282F30E03093E5012093E401209156
:1051A000FF01422F50E05093E3014093E201282396
:1051B00030E0EACF8091FF0181110C94671290E0FA
:1051C00080E00E94D608682F84E294E00E94870164
:1051D0000C9467128091EA019091EB01019785C9C7
:1051E000AA1BBB1B51E107C0AA1FBB1FA617B7070D
:1051F00010F0A61BB70B881F991F5A95A9F7809529
:105200009095BC01CD01089597FB072E16F40094EC
:1052100007D077FD09D00E94F02807FC05D03EF4A6
:10522000909581959F4F0895709561957F4F089552
:10523000A1E21A2EAA1BBB1BFD010DC0AA1FBB1F9A
:10524000EE1FFF1FA217B307E407F50720F0A21B0C
:10525000B30BE40BF50B661F771F881F991F1A9479
:1052600069F760957095809590959B01AC01BD01A3
:10527000CF010895EE0FFF1F0590F491E02D0994E2
:10528000A29FB001B39FC001A39F700D811D112487
:10529000911DB29F700D811D1124911D0895FB0178
:1052A000DC0104C08D910190801921F441505040DF
:1052B000C8F7881B990B0895FB01DC0102C001901F
:0E52C0000D9241505040D8F70895F894FFCF5A
:1052CE00FFFFFFFF000000008701E7001401F3015C
:1052DE0045012301370100000000D30AE7000F0744
:1052EE000E0772616D2E62696E000D0A002E004C63
:1052FE006F6164696E672042494F530062696F7334
:06530E002E62696E000032
:00000001FF
