:100000000C94E2000C940A010C940A010C940A016D
:100010000C940A010C940A010C940A010C940A0134
:100020000C940A010C940A010C940A010C940A0124
:100030000C940A010C940A010C940A010C940A0114
:100040000C94E7140C940A010C94B5140C948F14BE
:100050000C940A010C940A010C940A010C940A01F4
:100060000C940A010C940A01695F6D6F645F7369F7
:100070007A653A2000786C61745F6F70636F6465B5
:100080005F69643A20004572726F72207265616424
:10009000696E672052414D21004572726F72207265
:1000A000656164696E672052414D21007C3C3E5E73
:1000B0002B3D3F2F5B5D3B2C2A225C00000000089B
:1000C000000201000003040700000000000000001F
:1000D0002E20446F6E652100496E697420534420C0
:1000E0006361726400695F64617461302C20312C3B
:1000F00020323A20004F70636F64653A2000496EE9
:10010000737472756374696F6E20706F696E746555
:10011000723A20005374617274696E6720763836C3
:100120002E2E2E00436F7079726967687420284301
:1001300029203230323120407261737069647569F0
:100140006E6F2C20756E6465722047504C2D76338F
:10015000006176722D763836202D20496E74656CDC
:10016000203830383620656D756C61746F7220727E
:10017000756E6E696E67206F6E2041726475696E70
:100180006F20554E4F0000000000250028002B0076
:1001900000000000240027002A00040404040404D2
:1001A0000404020202020202030303030303010226
:1001B00004081020408001020408102001020408F5
:1001C0001020311511241FBECFEFD8E0DEBFCDBF08
:1001D00011E0A0E0B1E0EEEAF3E602C005900D9276
:1001E000A235B107D9F724E0A2E5B1E001C01D9224
:1001F000A53AB207E1F710E0C2EED0E004C02197C3
:10020000FE010E946930C13ED107C9F70E948815DE
:100210000C94D5310C940000CF93DF93FC018281C4
:100220009381909389048093880484819581A68129
:10023000B78180938A0490938B04A0938C04B0932D
:100240008D0480859185A285B38580938E049093DB
:100250008F04A0939004B0939104DF011C96CF010A
:100260004996C2E9D4E02D912993A817B907D9F787
:10027000818D928D9093A00480939F0486E894E0F2
:10028000DF91CF91089590E0FC01E255FE4F24915B
:1002900086569E4FFC018491882399F090E0880F48
:1002A000991FFC01E057FE4FA591B491FC01EA575C
:1002B000FE4F859194918FB7F894EC91E22BEC93DB
:1002C0008FBF0895AF92BF92CF92DF92EF92FF92CD
:1002D0000F931F93CF93DF936C017B018B01040F6E
:1002E000151FEB015E01AE18BF08C017D10759F00A
:1002F0006991D601ED91FC910190F081E02DC6014C
:100300000995892B79F7C501DF91CF911F910F9145
:10031000FF90EF90DF90CF90BF90AF900895FC01D9
:10032000538D448D252F30E0842F90E0821B930B5A
:10033000541710F0CF96089501970895FC01918D00
:10034000828D981761F0A28DAE0FBF2FB11D5D9603
:100350008C91928D9F5F9F73928F90E008958FEFA5
:100360009FEF0895FC01918D828D981731F0828D59
:10037000E80FF11D858D90E008958FEF9FEF0895B0
:10038000FC01918D228D892F90E0805C9F4F821B14
:1003900091098F73992708958EE993E00E94C00117
:1003A00021E0892B09F420E0822F089580E090E07D
:1003B000892B29F00E94CC0181110C940000089532
:1003C000FC01A48DA80FB92FB11DA35ABF4F2C91CA
:1003D000848D90E001968F739927848FA689B789C1
:1003E0002C93A089B1898C91837080648C93938DB8
:1003F000848D981306C00288F389E02D80818F7D5B
:1004000080830895EF92FF920F931F93CF93DF9312
:10041000EC0181E0888F9B8D8C8D98131AC0E88940
:10042000F989808185FF15C09FB7F894EE89FF890F
:100430006083E889F98980818370806480839FBFAD
:1004400081E090E0DF91CF911F910F91FF90EF90AD
:100450000895F62E0B8D10E00F5F1F4F0F731127BD
:10046000E02E8C8D8E110CC00FB607FCFACFE889F8
:10047000F989808185FFF5CFCE010E94E001F1CF9F
:10048000EB8DEC0FFD2FF11DE35AFF4FF0829FB76C
:10049000F8940B8FEA89FB8980818062CFCF0F931C
:1004A0001F93CF93DF938C01D0E0C0E0F801EC0FF5
:1004B000FD1F6491662341F08EE993E00E940202E1
:1004C000892B11F02196F2CFCE01DF91CF911F91B0
:1004D0000F910895CF93DF93EC01888D8823B9F0B5
:1004E000AA89BB89E889F9898C9185FD03C080813F
:1004F00086FD0DC00FB607FCF7CF8C9185FFF2CFBC
:10050000808185FFEDCFCE010E94E001E9CFDF9130
:10051000CF91089590E0FC01E454FF4F2491FC0139
:10052000E255FE4F3491FC01E656FE4FE491EE2376
:10053000C9F0222339F0233001F1A8F4213019F158
:10054000223029F1F0E0EE0FFF1FEA57FE4FA59190
:10055000B4918FB7F894EC91611126C030953E2389
:100560003C938FBF08952730A9F02830C9F024307C
:1005700049F7809180008F7D03C0809180008F7744
:1005800080938000DFCF84B58F7784BDDBCF84B5C7
:100590008F7DFBCF8091B0008F778093B000D2CF5A
:1005A0008091B0008F7DF9CF3E2BDACF2FB7F89432
:1005B00060915E0170915F01809160019091610195
:1005C0002FBF08958FB7F894809153018FBF08957E
:1005D00061E0FC0184810E948A02809152018111B4
:1005E0001092520108958EBD00000DB407FEFDCF9C
:1005F0008EB508958FEF0C94F3020F931F93CF9352
:10060000DF93EC010E94D6028B010E94FA028F3F19
:1006100069F00E94D602601B710B6C177D07A8F36E
:1006200080E0DF91CF911F910F91089581E0F9CF84
:100630008CBD9DBD0895CF93DF93EC018091520155
:10064000811109C081E08093520180913B04909117
:100650003C040E94180360E08C81DF91CF910C94E0
:100660008A028F929F92AF92BF92FF920F931F9335
:10067000CF93DF93EC01F62E49015A018E81882336
:1006800089F08F8198859C012F5F3F4F38872F839A
:100690008230924018F40E94FA02F3CFCE010E94F9
:1006A000E8021E82CE010E941B038CE291E00E94B0
:1006B000FD028F2D80640E94F30208E110E0D50155
:1006C000C401002E04C0B695A795979587950A9406
:1006D000D2F70E94F30208501109083F8FEF180764
:1006E00071F785E9FF2021F028E087E8F2128FEF0B
:1006F0000E94F30210E00E94FA028A8787FF04C07A
:100700001F3F11F01F5FF7CFDF91CF911F910F9126
:10071000FF90BF90AF909F908F900895AF92BF923F
:10072000CF92DF92EF92FF920F931F93CF93DF93BD
:10073000EC016901C801820F931F8130924050F58E
:100740008E81882379F088819981AA81BB81841761
:100750009507A607B70731F48F819885C816D90683
:1007600008F042C0488359836A837B838B8583303A
:1007700039F089E0440F551F661F771F8A95D1F71E
:100780009A01AB0161E1CE010E943103882389F017
:1007900083E08D83CE010E94E80280E0DF91CF915B
:1007A0001F910F91FF90EF90DF90CF90BF90AF908F
:1007B00008950E94D6025B010E94FA028A878F3F49
:1007C00069F40E94D6026A197B096D327140A0F368
:1007D0008FE08D83CE010E94E802DCCF8E3F89F44A
:1007E00018861F8281E08E838F8198858C159D05E8
:1007F00050F40E94FA028F819885019698878F8322
:10080000F3CF8DE0E6CF6701E00EF11E0E94FA0201
:10081000F60181936F01EE15FF05C1F78F81988571
:10082000080F191F18870F838985882319F0011570
:100830001240A0F08E81882389F08F8198859C01D9
:100840002F5F3F4F38872F838230924018F40E94E9
:10085000FA02F3CFCE010E94E8021E8281E09ECF11
:10086000CF92DF92EF92FF920F93CF93DF93EC0141
:10087000690182E1411551056105710599F08B858A
:10088000833039F089E0440F551F661F771F8A9522
:10089000D1F79A01AB0168E1CE010E9431038823B0
:1008A00019F084E08D832DC08EEF0E94F302760153
:1008B0008EEFD81AF70181917F010E94F302EC14A8
:1008C000FD04C1F78FEF0E94F3028FEF0E94F30245
:1008D0000E94FA028A878F71853071F4011116C067
:1008E000CE010E94E80281E0DF91CF910F91FF904D
:1008F000EF90DF90CF90089581E18D83CE010E942B
:10090000E802CE010E94E80280E0EECF88E592E0A6
:100910000E94FD02811102C085E1C4CF20E030E0D9
:10092000A9016DE0CE010E943103882311F084E11A
:10093000B9CF0E94FA028111FACFD2CF0F93409122
:100940005501509156016091570170915801411520
:1009500051056105710599F0082F2CE931E080916E
:100960009C0390919D030E943004882349F01092CB
:10097000550110925601109257011092580181E0D2
:100980000F9108950F93CF93C82F80915401811137
:1009900005C0C1E08C2FCF910F91089540910001C7
:1009A0005091010160910201709103010C2F2CE91B
:1009B00031E080919C0390919D030E94300481114D
:1009C00002C0C0E0E7CFCC2321F381E00E949E0467
:1009D0008823B9F310925401DDCF8F929F92AF928A
:1009E000BF92EF92FF920F931F93CF934B015C0145
:1009F000C42F8091000190910101A0910201B0915A
:100A0000030188159905AA05BB0551F181E00E94F3
:100A1000C20481110BC080E0CF911F910F91FF9014
:100A2000EF90BF90AF909F908F9008958CE9E82E43
:100A300081E0F82E00E012E030E020E0B501A401F2
:100A400080919C0390919D030E948E03882319F34B
:100A50008092000190920101A0920201B0920301E4
:100A6000409154014C2B4093540181E0D5CF8F929B
:100A70009F92AF92BF92CF92DF92EF92FF92CF936D
:100A80002DE334E030939D0320939C03882309F4E5
:100A90006DC040E060E070E0CB010E94ED04811188
:100AA0000BC080E0CF91FF90EF90DF90CF90BF9090
:100AB000AF909F908F90089580915A038F7789F718
:100AC0008091660390916703A0916803B0916903D8
:100AD00084369105A105B10520F3C0906203D09042
:100AE0006303E0906403F0906503C114D104E10452
:100AF000F104B9F240E0C701B6010E94ED04882379
:100B000081F28091A7019091A8018115924049F648
:100B1000A091AC01AA2329F26091AA017091AB01C6
:100B20006115710509F4BDCF2091A901222309F4B3
:100B3000B8CFA0935B0420934D0490E080E030E0B8
:100B4000E1E0F0E0C82FAF01082E02C0440F551FAE
:100B50000A94E2F72417350769F041E0480F01963F
:100B60008930910579F7409356049BCFC12CD12C45
:100B70007601C0CF809356042091B2013091B30129
:100B800050E040E02115310541F42091C001309141
:100B9000C1014091C2015091C30120934E04309392
:100BA0004F04409350045093510446015701860E60
:100BB000971EA11CB11C80925C0490925D04A092CF
:100BC0005E04B0925F04E091AD01F091AE01F0934C
:100BD0006204E0936104B0E00E946F30DC01CB015D
:100BE000880D991DAA1DBB1D809363049093640416
:100BF000A0936504B093660425E0EE0FFF1F2A95CD
:100C0000E1F7E150FE4FEF2FFF27E6958E0F9F1F74
:100C1000A11DB11D8093570490935804A0935904CB
:100C2000B0935A048090AF019090B001B12CA12CE8
:100C30008114910441F48090BC019090BD01A0907A
:100C4000BE01B090BF01C81AD90AEA0AFB0AC80C53
:100C5000D91CEA1CFB1C04C0F694E794D794C794F3
:100C6000CA95D2F7C0925204D0925304E092540431
:100C7000F092550485EFC8168FE0D806E104F10420
:100C800028F48CE08093600481E00CCF80E125EFB4
:100C9000C2162FEFD206E104F104A0F38091C8013F
:100CA0009091C901A091CA01B091CB0180936304D6
:100CB00090936404A0936504B093660480E2E2CF4D
:100CC0004F925F926F927F928F929F92AF92BF925C
:100CD000CF92DF92EF92FF920F931F93CF93DF9308
:100CE000EC01423051056105710590F480E0DF911F
:100CF000CF911F910F91FF90EF90DF90CF90BF9019
:100D0000AF909F908F907F906F905F904F900895DD
:100D100089859A85AB85BC850196A11DB11D841777
:100D20009507A607B70710F3CB88DC88ED88FE8807
:100D30008F89803109F042C0BB27A72F962F852FBE
:100D4000480159012A013B01C80ED91EEA1EFB1EAB
:100D50008091000190910101A0910201B0910301E5
:100D6000C816D906EA06FB0699F58F898031C1F5C8
:100D7000B301A201552766277727440F551F445614
:100D80005E4FFA019182808280915401816080934C
:100D900054018A89823080F08D819E81AF81B8852F
:100DA0008C0D9D1DAE1DBF1D809355019093560166
:100DB000A0935701B093580181E099CFDB01CA019C
:100DC000E7E0B695A79597958795EA95D1F7B8CFBF
:100DD00040E0C701B6010E94ED048111C6CF86CF65
:100DE000B301A2014F77552766277727440F551F78
:100DF000440F551F44565E4FFA0180829182A282B1
:100E0000B382C2CF8F929F92AF92BF92CF92DF9266
:100E1000EF92FF920F931F93CF93DF93FC01818595
:100E20009285A385B4850196A11DB11D84179507F0
:100E3000A607B70770F480E0DF91CF911F910F9163
:100E4000FF90EF90DF90CF90BF90AF909F908F90EA
:100E5000089583889488A588B6888789803189F524
:100E6000BB27A72F962F852FE9016A017B018F01F0
:100E7000BC01CD01680D791D8A1D9B1D809000016C
:100E800090900101A0900201B09003018616970690
:100E9000A806B90601F5F8018789803111F5DD242E
:100EA000EE24FF24F601EE0FFF1FE456FE4F808173
:100EB0009181B0E0A0E088839983AA83BB8381E01D
:100EC000BBCFDB01CA01C7E0B695A795979587957B
:100ED000CA95D1F7C9CF40E00E94ED048111DBCF64
:100EE000AACFE894C7F8DD24EE24FF24F601EE0F24
:100EF000FF1FEE0FFF1FE456FE4F80819181A281FC
:100F0000B381BF70D8CF4F925F926F927F92AF92B2
:100F1000BF92CF92DF92EF92FF920F931F93CF93E6
:100F2000DF9300D000D0CDB7DEB78C0149835A8360
:100F30006B837C835901C12CD12C7601412C82E03A
:100F4000582E612C712C49815A816B817C819E01C4
:100F50002F5F3F4FC8010E940207882339F1F80133
:100F60008585A301920104C0220F331F441F551F22
:100F70008A95D2F7DA01C901C80ED91EEA1EFB1EF6
:100F800049815A816B817C818789803111F188EF99
:100F90009FEFAFEFBFE0481759076A077B0798F24A
:100FA000F501C082D182E282F38281E00F900F903E
:100FB0000F900F90DF91CF911F910F91FF90EF90C5
:100FC000DF90CF90BF90AF907F906F905F904F90E9
:100FD000089588EF9FEFA0E0B0E0DDCFCF93DF93DF
:100FE000FC012581222321F080E0DF91CF9108953B
:100FF000EC0180916004803159F582E08583178A85
:10100000108E118E128E8091610490916204B0E076
:10101000A0E025E0880F991FAA1FBB1F2A95D1F7D2
:10102000838B948BA58BB68B89E494E09C8F8B8FFC
:1010300081E08C831E821F82188619861A861B8681
:101040001C861D861E861F86188A198A1A8ACDCF8D
:10105000803251F683E085834091630450916404AB
:101060006091650470916604478B508F618F728F19
:101070009F012D5E3F4F89E494E00E948307811118
:10108000D3CFB2CF8F929F92AF92BF92CF92DF9287
:10109000EF92FF920F931F93CF93DF93EC018D811B
:1010A00081110EC080E0DF91CF911F910F91FF90D1
:1010B000EF90DF90CF90BF90AF909F908F9008956A
:1010C0000B891C892D893E890417150726073707C8
:1010D00048F34A015B01823031F48A869B86AC86F4
:1010E000BD8681E0E0CF81149104A104B10449F4EC
:1010F0001E821F82188619861A861B861C861D86EC
:10110000F0CF0A851B852C853D85EB8DFC8D858573
:1011100090E00996B901A80141505109610971098E
:10112000082E04C076956795579547950A94D2F78F
:1011300075016401E1E0CE1AD108E108F10804C0AC
:10114000F694E794D794C7948A95D2F7C416D50637
:10115000E606F70620F0012B022B032B11F58F89F1
:10116000988DA98DBA8D8E839F83A887B9878E01AC
:101170000A5F1F4FC114D104E104F10409F4ADCF9B
:101180004E815F816885798598018B8D9C8D0E9449
:10119000020791E0C91AD108E108F1088111EACFEC
:1011A00081CFC41AD50AE60AF70AE1CF20919F043D
:1011B0003091A0042115310541F0AB01BC01C901FA
:1011C0000E94420891E0811101C090E0892F0895AA
:1011D0003F924F925F926F927F928F929F92AF92C7
:1011E000BF92CF92DF92EF92FF920F931F93CF9314
:1011F000DF93CDB7DEB72C970FB6F894DEBF0FBEE6
:10120000CDBF5C01DC015B968D909C905C9716963F
:101210004D905D906D907C9019974114510461043C
:10122000710409F468C0BFEF4B1A5B0A6B0A7B0AB2
:10123000312CF40181859285A385B4859C01AD0193
:101240002F5F3F4F4F4F5F4F29873A874B875C8710
:10125000730162011D821E821F821886F40181853E
:101260009285A385B4852D813E814F8158852817AD
:1012700039074A075B0708F056C089859A85AB8510
:10128000BC858C159D05AE05BF0550F482E0C82EC7
:10129000D12CE12CF12C92E0492E512C612C712C97
:1012A0009E012F5F3F4FB701A601C4010E940207B4
:1012B0008823C9F189819A81AB81BC81892B8A2BD2
:1012C0008B2B09F1260137019FEF491A590A690A48
:1012D000790A2D813E814F8158852F5F3F4F4F4FB7
:1012E0005F4F2D833E834F8358873FEFC31AD30A46
:1012F000E30AF30AB3CFF401408051806280738027
:101300003324339496CFC414D504E604F70409F7C4
:101310000FEF1FEF2FEF3FE0B701A601C4010E94BE
:101320006006811119C080E02C960FB6F894DEBFDC
:101330000FBECDBFDF91CF911F910F91FF90EF9026
:10134000DF90CF90BF90AF909F908F907F906F90E5
:101350005F904F903F900895D50116964D915D9105
:101360006D917C911997411551056105710539F011
:1013700097018601C4010E9460068823A1F2D5016D
:101380001696CD92DD92ED92FC921997332051F092
:10139000D701C6010196A11DB11DF401808391837F
:1013A000A283B383F5018789908DA18DB28D892B9E
:1013B0008A2B8B2B39F48481C78AD08EE18EF28EF2
:1013C00080688483F50184818062848381E0ACCF6E
:1013D0002F923F924F925F926F927F928F929F9245
:1013E000AF92BF92CF92DF92EF92FF920F931F9333
:1013F000CF93DF93EC015B012A018D81811115C030
:101400008FEF9FEFDF91CF911F910F91FF90EF90A2
:10141000DF90CF90BF90AF909F908F907F906F9014
:101420005F904F903F902F9008958C8180FFE8CF80
:101430000B891C892D893E894A855B856C857D8554
:10144000C201B0E0A0E068017901C41AD50AE60A39
:10145000F70AC816D906EA06FB0618F42801441A4A
:10146000550A42011E0126E0220E311C811491040E
:1014700009F4B3C04A855B856C857D856A0181E08E
:10148000D8228B8D9C8D8A019B01E9E036952795AA
:1014900017950795EA95D1F7ED81E230E1F5FC016A
:1014A000628D738D848D958D600F711F821F931FC8
:1014B000612C22E0722E6C187D088614970408F4C3
:1014C00034012C8126FD04C06114F2E07F0671F422
:1014D000009100011091010120910201309103015E
:1014E000061717072807390709F053C040E00E9484
:1014F000ED04882309F484CFC60184569E4FD5019C
:101500009C01260D371DFC012E173F0709F460C012
:1015100041914D93F9CFFC0174807A947022C114EB
:10152000D10471F471100CC0452B462B472B39F5B3
:101530008F89988DA98DBA8D8E839F83A887B9874F
:10154000EB8DFC8D6E817F81888599856250710954
:1015500081099109258504C0660F771F881F991F8F
:101560002A95D2F70685178520893189600F711F6A
:10157000821F931F670D711D811D911D99CF4E8193
:101580005F816885798591010E9402078111D8CF1A
:1015900037CF750183019601AB01BC0180919C039B
:1015A00090919D030E948E03882309F429CFA60CF5
:1015B000B71C8A859B85AC85BD85860D971DA11DB1
:1015C000B11D8A879B87AC87BD87861897084ECF49
:1015D000281B390BA20EB31EECCFC20113CF1F93F1
:1015E000CF93DF93FC0125812223D1F1162FEC014B
:1015F000848187FF2AC0668577858089918941E04B
:101600000E94ED04882361F1EA8980E2E89FF001FD
:101610001124E456FE4F309719F18D81823040F449
:101620008B899C89AD89BE89848F958FA68FB78F52
:101630008F89988D938F828F8F89988DA98DBA8D80
:10164000B58BA48B8C818F778C83111103C08C8117
:101650008F7E8C83812FDF91CF911F910C94C204D8
:1016600080E0DF91CF911F910895FF920F931F9318
:10167000CF93DF93EC018D81813041F090E080E0E9
:10168000DF91CF911F910F91FF9008958C8181FF81
:10169000F5CF82FD1BC000919C0310919D03C801F2
:1016A0000E941B030E94FA02F82EC8010E94E80261
:1016B0008FEFF812E3CF8C8185FF1BC060E0CE0175
:1016C0000E94EF0A8C818F7D8C83D8CF4B895C89F7
:1016D0006D897E898A859B85AC85BD858417950734
:1016E000A607B707C1F2CE010E9442088111D3CFED
:1016F000C5CF4091550150915601609157017091AD
:101700005801452B462B472B21F080E00E949E0478
:10171000B5CF80618C832A853B85317080E092E073
:10172000821B930BADCFCF93DF93EC0161E00E945E
:10173000EF0A882311F01D8281E0DF91CF91089597
:101740002F923F924F925F926F927F928F929F92D1
:10175000AF92BF92CF92DF92EF92FF920F931F93BF
:10176000CF93DF9300D000D01F92CDB7DEB77C01BE
:101770005B01342E5D83DC0115968C9115978130C9
:1017800009F0CEC014962C9021FECAC022FCB4C031
:10179000C32CDD8022947FE027222094B22DB170EB
:1017A0002B2ED7011A964D915D916D917C911D97CD
:1017B000C114D10409F428C15B968D919C915C976A
:1017C000FC0174807A948A019B0169E03695279523
:1017D000179507956A95D1F770228A0111707110DB
:1017E00020C001151105E9F416964D915D916D919A
:1017F0007C911997411551056105710509F099C052
:1018000057968D919D910D90BC91A02D0097A105AB
:10181000B10509F0B0C0C7010E94E808882309F4A7
:101820007FC080E092E0801B910B46018C159D05E6
:1018300008F44C01D7015B964D915C915C9716962C
:101840008D919D910D90BC91A02D0297A109B10998
:10185000FA01258504C0880F991FAA1FBB1F2A956E
:10186000D2F74685578560897189840F951FA61F19
:10187000B71F9C01AD01270D311D411D511D2901CF
:101880003A01811432E0930609F07BC08091000197
:1018900090910101A0910201B09103018415950579
:1018A000A605B70559F48FEF9FEFDC018093000187
:1018B00090930101A0930201B0930301022D9501C1
:1018C000B301A20180919C0390919D030E9430047A
:1018D000882331F19EEFB91AC818D908F70182851B
:1018E0009385A485B585880D991DA11DB11D82879D
:1018F0009387A487B58755CFF701438954896589B4
:10190000768982859385A485B585481759076A0726
:101910007B0709F43DCFC7010E944208811138CFEF
:1019200081E090E0D70113969C938E93129780E00C
:1019300007C09E012F5F3F4F0E940207811102C026
:1019400090E079C089819A81AB81BC81F701238DB8
:10195000348DF901278948EF5FEF60E070E02031B6
:1019600021F048EF5FEF6FEF7FE084179507A60740
:10197000B70708F050CFF70186839783A087B18718
:1019800050CF0115110599F5D7011A964D915D912A
:101990006D917C911D9753968D919D910D90BC9169
:1019A000A02D481759076A077B0708F181E00E94BC
:1019B000C204882309F4B4CF40920001509201017F
:1019C00060920201709203018091540181608093C2
:1019D0005401C80184569E4FD5019C01280D391D24
:1019E000FC012E173F0759F04D914193FACF41E08A
:1019F000C301B2010E94ED048111EBCF91CF281BEE
:101A0000390BA20EB31E68CFF70183899489A5898B
:101A1000B68984179507A607B70738F48481438BE6
:101A2000548B658B768B80688483F701848183FD7A
:101A30001AC0832D9D810F900F900F900F900F90E3
:101A4000DF91CF911F910F91FF90EF90DF90CF909A
:101A5000BF90AF909F908F907F906F905F904F90CE
:101A60003F902F90089561E0C7010E94EF0A8823FC
:101A700009F456CFDECFCF93DF931F92CDB7DEB7F9
:101A8000698341E050E0BE016F5F7F4F0E94A00B71
:101A90000F90DF91CF910895FC01DB0112968D919B
:101AA0009C9113979383828380E291E0918380835A
:101AB00014968C911497848315968C911597858331
:101AC00016964D915D916D917C9119974683578340
:101AD000608771871A964D915D916D917C911D97EC
:101AE00042875387648775871E964D915D916D91EE
:101AF0007C91519746875787608B718B52968C915A
:101B00005297828B53964D915D916D917C91569732
:101B1000438B548B658B768B57964D915D916D9170
:101B20007C915A97478B508F618F728F5B968D9106
:101B30009C91948F838F08950895FC01818D928DDF
:101B4000009719F061E00C94EF0A0895DC015996B2
:101B5000ED91FC913097B9F083899489A589B68974
:101B60004285538564857585841B950BA60BB70B41
:101B7000811520E89207A105B10538F08FEF9FE7A6
:101B8000A0E0B0E0089590E080E00895DC0159966F
:101B90008D919C91009739F0DC01ED91FC910480CE
:101BA000F581E02D099490E080E00895CF93DF93D4
:101BB000EC01E98DFA8D309749F481E090E09B8348
:101BC0008A8390E080E0DF91CF91089513821282A2
:101BD000898D9A8D0E94A00BE98DFA8D2281338127
:101BE000232B59F7F0CFCF93DF931F92CDB7DEB7FA
:101BF0006983DC01ED91FC910280F381E02D41E0ED
:101C000050E0BE016F5F7F4F09950F90DF91CF913C
:101C10000895CF93DF931F92CDB7DEB741E050E038
:101C2000BE016F5F7F4F0E94E809019731F48981FF
:101C300090E00F90DF91CF9108958FEF9FEFF9CF54
:101C4000FC01818D928D009711F00C94090E8FEF9D
:101C50009FEF08950F931F93CF93DF93EC01898D2E
:101C60009A8D10E000E0009799F00E94090E8C0117
:101C70000F3F100769F0898D9A8DFC0142855385CD
:101C80006485758541505109610971090E944208B6
:101C9000C801DF91CF911F910F91089520919A0172
:101CA00030919B01880F991FF901E80FF91F80817E
:101CB0009181F4E0880F991FFA95E1F7660F771F7D
:101CC000260F371FF90120813181420F531F840FE6
:101CD000951F0895409173015091740120916F01F7
:101CE0003091700180917101909172018427952744
:101CF00082279327909372018093710184FB66275A
:101D000060F96AB94217530719F410BA80E00895D0
:101D10002091910148E0249F90011124295F3F4FB9
:101D200002C0969587952A95E2F728B1822781709F
:101D300080BBECCF21E0892B09F420E020BB089583
:101D400021E0892B09F420E028B9089580919F04AF
:101D50009091A004009761F00E94930B80919F04E2
:101D60009091A0040E9425311092A00410929F042B
:101D70000895CF92DF92EF92FF921F93CF93DF935C
:101D8000EC0180E2689FF0011124E456FE4F938538
:101D9000917161F0842F827449F080E0DF91CF91DE
:101DA0001F91FF90EF90DF90CF900895142F6A8BD2
:101DB0008091000190910101A0910201B091030175
:101DC0008E879F87A88BB98BC488D588F12CE12C8E
:101DD0007601DD24CC24CF8AD88EE98EFA8E828DCE
:101DE000938DB0E0A0E0AC01BD014C295D296E29C6
:101DF0007F294F8B588F698F7A8F83858871B1F4D3
:101E0000848D958DA68DB78D8B8B9C8BAD8BBE8B6A
:101E100081E08D831F701C831E821F8218861986A5
:101E20001A861B861C861D8681E0B8CF803109F09A
:101E3000B4CF9E012D5E3F4F8B8D9C8D0E948307FA
:101E4000882309F4AACF84E0E4CFFB0101900020AD
:101E5000E9F73197AF01461B570BDC01ED91FC917F
:101E60000280F381E02D0994CF93DF930E944F020B
:101E7000EC016AE371E08EE993E00E94250F8C0F7C
:101E80009D1FDF91CF9108950F931F93CF93DF9301
:101E9000CDB7DEB7A1970FB6F894DEBF0FBECDBFAA
:101EA000AB01BC0119A2FE01B196DB01CA018F7022
:101EB0009927AA27BB2794E076956795579547956C
:101EC0009A95D1F78A3024F5805D829341155105AA
:101ED0006105710551F710E000E0309731F0BF0166
:101EE0008EE993E00E94250F8C016AE371E08EE990
:101EF00093E00E94250F800F911FA1960FB6F894D2
:101F0000DEBF0FBECDBFDF91CF911F910F9108951E
:101F1000895CDBCF3F924F925F926F927F928F925C
:101F20009F92AF92BF92CF92DF92EF92FF920F9368
:101F30001F93CF93DF93CDB7DEB72B970FB6F894EF
:101F4000DEBF0FBECDBF7C01FE013196CE010C96E7
:101F50006F0130E23193E817F907E1F7DA0130E079
:101F600087E09D91B92E992309F43CC09E32F1F48B
:101F70008A30C9F480E02B960FB6F894DEBF0FBE0E
:101F8000CDBFDF91CF911F910F91FF90EF90DF9028
:101F9000CF90BF90AF909F908F907F906F905F9009
:101FA0004F903F90089538E08AE0DBCFECEAF0E014
:101FB0004491442321F031969413FACFDBCF831759
:101FC000C8F24FED490F4E35A8F64FE9490F4A3197
:101FD00018F440EEB42EB90EF601E30FF11DB082F5
:101FE0003F5FBFCF8981803229F2322E8B01DB0126
:101FF0005B968D919C915C97F701948F838F1696D9
:102000001D921D921D921C921997FB011286138638
:1020100014861586F80182859385A485B585438944
:1020200054896589768984179507A607B70708F04C
:102030004DC025E0B695A795979587952A95D1F738
:10204000F82FFF70AF2ED80115968C91823008F4CE
:1020500091CFC8010E94090E97FD8CCFF8018285AF
:102060009385A485B5854F96A11DB11D8287938761
:10207000A487B587F0E2AF9EB001112464567E4F6D
:102080006115710509F476CFDB018C91882341F04D
:10209000853E09F062C0BB2029F0BB24B394BACFBF
:1020A000B1100EC0F701A28A809100019091010148
:1020B000A0910201B091030186879787A08BB18B15
:1020C000DB018C918111E9CFBB24B394832D827104
:1020D000823109F04FCFBB2009F44DC0F70166856E
:1020E00077858089918941E00E94ED04882309F475
:1020F00041CFD70152968C91B0E28B9FC001112441
:1021000084569E4F009709F435CFFC013A9626E19C
:10211000DF011D922A95E9F72BE0F601DC01019021
:102120000D922A95E1F721E238E2FC01318B208BF8
:1021300040E058E057874687338B228B318F208FC2
:10214000578B468B81E00E94C204882309F412CF8A
:10215000432DD70152966C910AC04BE050E0C60166
:102160000E94AE31892B09F055CF432D6A2DC7014E
:102170000E94B90E00CFF8018581823009F4FACEB1
:10218000C8010E94E808882309F4F4CED8015B96C0
:10219000ED91FC915C9716968D909D90AD90BC90C2
:1021A0001997B2E08B1A9108A108B108858504C07F
:1021B000880C991CAA1CBB1C8A95D2F7868597852A
:1021C000A089B189880E991EAA1EBB1E8481240194
:1021D0003501480E511C611C711C84149504A60421
:1021E000B70409F1E1E04E1A51086108710881E075
:1021F0000E94C204882309F4BDCEECE9F1E01192FB
:102200008CE993E08E179F07D1F74092000150921E
:10221000010160920201709203018091540181607A
:1022200080935401DACFD8015B96ED91FC9125851E
:1022300080E092E0A0E0B0E004C0880F991FAA1FE0
:10224000BB1F2A95D2F7F80143895489658976899D
:10225000840F951FA61FB71F838B948BA58BB68BFE
:10226000D70152961C928CE991E04FCFEF92FF92EA
:102270000F931F93CF93DF93EC017B018A011B82A5
:102280001A8288EE93E0A0E0B0E08C839D83AE8359
:10229000BF838CE291E0998388838DE190E00E9476
:1022A00089309A8F898F009779F02DE1F701DC0151
:1022B00001900D922A95E1F74CE050E0B801CE0173
:1022C0000C960E94C631188EDF91CF911F910F910D
:1022D000FF90EF9008952F923F924F925F926F92EE
:1022E0007F928F929F92AF92BF92CF92DF92EF92A6
:1022F000FF920F931F93CF93DF93CDB7DEB7C756EF
:10230000D1090FB6F894DEBF0FBECDBF6C015B01E3
:10231000A6964FAFA69719A218A280E291E09F8FD0
:102320008E8F1BA21C821B829A8389831E824E0180
:102330008EE1880E911CC4010E94EE0775018E018A
:102340000F5F1F4F240118016FE270E0C7010E9468
:10235000BB31009709F45DC0F70120812F3271F481
:10236000FFEFEF1AFF0A902F812F8201492E582E7E
:10237000942D852D2801092F182FE6CF8E198D3029
:1023800008F08CE0682E712CA301B701CE01885AA9
:102390009F4F0E94C631E8E5F0E0EC0FFD1FE60D0F
:1023A000F71D1082C8010E94930BF80185818823D4
:1023B00001F11EAE1DAE80E291E09CAF8BAF219685
:1023C0001FAE2197A896EEADFFADA897AE0EBF1E2B
:1023D000F501808181112AC0BE01655C7F4FC1017A
:1023E0000E944C0D4DE351E0B101C6010E9436112F
:1023F0003BC021E0AE01485A5F4FB201C8010E94C4
:102400008A0F8823B1F2E60CF71CC2010E94930BDD
:10241000AFCFC7018A199B09A8969FAF8EAFA89727
:10242000B201CE01CB960E944C0DCCCF19A218A2BE
:1024300080E291E09F8F8E8F1BA221968FAD219716
:1024400081112DC0F6011382128288EE93E0A0E084
:10245000B0E084839583A683B7838CE291E0918377
:102460008083128E118E1486C601C959DF4F0FB6B4
:10247000F894DEBF0FBECDBFDF91CF911F910F91BA
:10248000FF90EF90DF90CF90BF90AF909F908F9094
:102490007F906F905F904F903F902F900895A696F9
:1024A0002FADA697A501BE01655C7F4FC4010E94B8
:1024B0008A0F882339F2CE01CB960E94930BA69601
:1024C0008FADA6978670863039F449A95AA96BA9B1
:1024D0007CA9C4010E944208B401C1010E944C0DB4
:1024E000A50182CFFF920F931F93CF93DF93CDB7B8
:1024F000DEB76B970FB6F894DEBF0FBECDBF8C0171
:10250000F62E47E16FE371E0CE0101960E946B1158
:10251000CE0101960E940C01E0919F04F091A0046D
:10252000309719F08581811105C089E990E00E94FA
:10253000340FFFCFB80190E080E00E94D6086F2DE5
:1025400086E894E00E94F30D0E94A60E8F2D6B96F4
:102550000FB6F894DEBF0FBECDBFDF91CF911F91B4
:102560000F91FF9008950F931F93CF93DF93CDB7F3
:10257000DEB76B970FB6F894DEBF0FBECDBF8C01F0
:1025800041E06FE371E0CE0101960E946B11CE0134
:1025900001960E940C01E0919F04F091A0043097F5
:1025A00019F08581811105C086E890E00E94340F02
:1025B000FFCFB80190E080E00E94D60886E894E062
:1025C0000E94200E182F0E94A60E812F6B960FB628
:1025D000F894DEBF0FBECDBFDF91CF911F910F9159
:1025E0000895CF93C62F90E08F579E400E94B3125C
:1025F0006C2F70E07F50860F972F911DCF910C9418
:10260000B3120F931F93CF93DF938C01C9E0D0E0F7
:10261000219770F06C2F83E10E94F112980102C0A3
:10262000359527958A95E2F7C901817088A7F0CF83
:10263000DF91CF911F910F9108950F931F93CF9327
:10264000DF9382E090EF90937A018093790109E023
:1026500010E001501109B8F0F801C0A5D0E0602FDA
:1026600083E10E94F11202C0CC0FDD1F8A95E2F7D0
:102670008091790190917A01C80FD91FD0937A0186
:10268000C0937901E6CFDF91CF911F910F9108950B
:10269000CF93C82F80939301682F88E00E94F11296
:1026A000809378016C2F89E00E94F11280936E0173
:1026B0006C2F8EE00E94F112809387016C2F8AE0CC
:1026C0000E94F11290E090936A018093690185E77E
:1026D00090E00E944F026091780170E090E080E00D
:1026E0000E94440F88E690E00E944F0260918701AB
:1026F00070E090E080E0CF910C94440FCF93DF9393
:10270000EC0181E080939101E0919A01F0919B01AD
:10271000808591850296918780874EEF5FEF64E018
:1027200070E08AE090E00E944E0E0E94B312809307
:1027300076018093750190919101D0937401C093BB
:102740007301992399F0809175019091760190938E
:102750007201809371019093700180936F011092C8
:10276000910180917501DF91CF91089590E0EFCFB5
:10277000CF93DF93EC0181E0809391014FEF5FEF06
:1027800064E070E08AE090E00E944E0E0E94B31276
:10279000809376018093750190919101992351F175
:1027A000209175013091760130937401209373016B
:1027B000D0937201C0937101D0937601C0937501DB
:1027C000D0937001C0936F01C09175018C1759F0BF
:1027D0004FEF5FEF64E070E08AE090E00E944E0E01
:1027E0006C2F0E9472121092910180917501DF91FD
:1027F000CF910895282F30E0309374012093730116
:102800009E0133273093720120937101C0937501AB
:102810003093700120936F01D7CFCF93DF93C82FF0
:102820008DEC0E9448130E941D13809179019091B4
:102830007A010E94B813E0919A01F0919B0182897C
:1028400093890E94B81380919801909199010E94F8
:10285000B81384E0C89FE0011124CE0102960E94C3
:10286000B3128093760190919101992309F440C0AD
:10287000809175019091760190937401809373011A
:10288000809176019091770190937201809371010C
:1028900090937601809375019093700180936F01FE
:1028A0006091750182E190E00E947212CD54DD4E7C
:1028B00020919101809198019091990190937401D8
:1028C00080937301222341F1888199819093720151
:1028D0008093710190939901809398019093700176
:1028E00080936F011DB81EB880E0DF91CF910895ED
:1028F0002091750130E03093740120937301282FEB
:1029000030E0309372012093710180937501309310
:10291000700120936F01C4CF888190E0D7CF1F92C0
:102920000F920FB60F9211242F933F934F935F9303
:102930006F937F938F939F93AF93BF93EF93FF9387
:102940008EE993E00E94E001FF91EF91BF91AF917A
:102950009F918F917F916F915F914F913F912F91B7
:102960000F900FBE0F901F9018951F920F920FB6E9
:102970000F9211242F938F939F93EF93FF93E091E6
:10298000AE03F091AF038081E091B403F091B50301
:1029900082FD1BC090818091B7038F5F8F73209160
:1029A000B803821741F0E091B703F0E0E256FC4F24
:1029B000958F8093B703FF91EF919F918F912F9106
:1029C0000F900FBE0F901F9018958081F4CF1F922B
:1029D0000F920FB60F9211242F933F938F939F93D3
:1029E000AF93BF9380915E0190915F01A0916001D0
:1029F000B091610130915D0123E0230F2D3758F52F
:102A00000196A11DB11D20935D0180935E019093FD
:102A10005F01A0936001B093610180915901909191
:102A20005A01A0915B01B0915C010196A11DB11DFD
:102A30008093590190935A01A0935B01B0935C017C
:102A4000BF91AF919F918F913F912F910F900FBEAA
:102A50000F901F90189526E8230F0296A11DB11D17
:102A6000D2CFEEE9F3E01382128288EE93E0A0E089
:102A7000B0E084839583A683B7832EE031E0318371
:102A8000208325EC30E03587248724EC30E037873D
:102A9000268720EC30E0318B208B21EC30E0338B2B
:102AA000228B22EC30E0358B248B26EC30E0378B08
:102AB000268B118E128E138E148EEBE3F4E020E53C
:102AC00020831182EDE3F4E01582168211861386CD
:102AD00042E050E060E070E0448755876687778782
:102AE00013A215A614A620E231E033A722A717A649
:102AF000E6E8F4E01382128284839583A683B78389
:102B00008CE291E091838083128E118E1486089559
:102B1000CF93DF93CDB7DEB7C15AD1090FB6F89482
:102B2000DEBF0FBECDBF789484B5826084BD84B50E
:102B3000816084BD85B5826085BD85B5816085BDB8
:102B400080916E00816080936E0010928100809170
:102B500081008260809381008091810081608093F8
:102B60008100809180008160809380008091B1001D
:102B700084608093B1008091B00081608093B00048
:102B800080917A00846080937A0080917A008260DC
:102B900080937A0080917A00816080937A0080919E
:102BA0007A00806880937A001092C100E091AE03B1
:102BB000F091AF0382E08083E091AA03F091AB0330
:102BC0001082E091AC03F091AD038FEC8083109202
:102BD000B603E091B203F091B30386E08083E09105
:102BE000B003F091B103808180618083E091B003F4
:102BF000F091B103808188608083E091B003F0910F
:102C0000B103808180688083E091B003F091B103CB
:102C100080818F7D808381E591E00E94340F84E282
:102C200091E00E94340F88ED90E00E944F024AE04C
:102C3000E42E54EAC52E51E0D52E68EBA62E61E0B5
:102C4000B62E72E5972EE0E58E2EF3E03F2EA2E041
:102C5000FA2E80916C04882321F087E694E00E948C
:102C6000930B109248041092460410924304109261
:102C70004204E09241040E94D6028B0180914104FB
:102C80000E94430161E0809141040E948A027FB664
:102C9000F89480916201811122C0F6018491F501BE
:102CA0009491E82FF0E0EE0FFF1FE057FE4FA59143
:102CB000B4918C91982321F461E08AE00E948A0209
:102CC0008AE00E9443018CB580618CBD8CB5806424
:102CD0008CBD8DE00E9443018BE00E9443018091F6
:102CE00062018F5F809362017FBE90923B041092DD
:102CF0003C0480913B0490913C040E9418032AE01C
:102D0000722E8FEF0E94F3027A947110FACF8DE346
:102D100094E00E941B0320E030E0A90160E08DE315
:102D200094E00E943103782E80934704F1E08F17DE
:102D300059F00E94D602601B710B613D774058F339
:102D400081E08093420442C02AEA31E040E050E052
:102D500068E08DE394E00E94310382FF2AC0709204
:102D6000480480914804412C512C3201823029F4CE
:102D7000412C512C612C80E4782E20E030E0A90118
:102D800067E38DE394E00E943103A301920169E2BD
:102D90008DE394E00E94310380934704882321F15E
:102DA0000E94D602601B710B613D774030F388E0D2
:102DB000C8CF94E0792E0E94FA02809347047A9457
:102DC0007110F9CF8A3A69F0F09242048DE394E0F1
:102DD0000E94E80267E471E08EE993E00E94250F0B
:102DE00038CFF0924804BDCF809148048230D9F4A6
:102DF00020E030E0A9016AE38DE394E00E94310312
:102E0000882321F046E040934204E0CF0E94FA027A
:102E1000807C803C11F4309248040E94FA020E94A7
:102E2000FA020E94FA028DE394E00E94E802809286
:102E30003B0410923C0481E00E943705882309F48A
:102E400092C187E694E00E94EE07882319F280ED94
:102E500090E00E94340F84E191E00E94340F1092C0
:102E60009B0110929A0180E090EF90931300809361
:102E700012001DB81092040080E091E09093990137
:102E800080939801EE24E394F12C88248394912C70
:102E9000512C412C712C612CE0919A01F0919B01F5
:102EA000828993892091980130919901820F931F13
:102EB00090939701809396010E94B31290E09093B3
:102EC0009501809394018EEF90E00E944F026091F3
:102ED00096017091970190E080E00E94440F85EF89
:102EE00090E00E944F026091940170919501072E2D
:102EF000000C880B990B0E94440FE0919401F09113
:102F0000950180810E94481390919301892F8770C9
:102F10008093920191709093910186958170809336
:102F20009001809196019091970101960E94B312B1
:102F300090E090938F0180938E0180919601909103
:102F4000970102960E94B31290E090938D018093B6
:102F50008C01809196019091970103960E94B31283
:102F600090E090938B0180938A0185EE90E00E941F
:102F7000340F60918E0170918F0190E080E00E948B
:102F8000440F60918C0170918D0190E080E00E946F
:102F9000440F60918A0170918B0190E080E00E9463
:102FA000440F80918901882319F081508093890111
:102FB00080918801882319F0815080938801809145
:102FC0008701882309F494C020918E0130918F01EC
:102FD000C901F6E096958795FA95E1F7982F9370D9
:102FE00090938601622F677060938501A3E0369508
:102FF0002795AA95E1F72770209384019111BAC013
:10300000663009F0BEC0E0919401F09195012481F1
:10301000358130938B0120938A0184E0911180E007
:103020008093820110928301933009F4BAC0009119
:103030009A0110919B018F5F0E94F11290E0880F1E
:10304000991F080F191FD8010D911C9180918201C1
:10305000609185018E5F0E94F11220918C01309168
:103060008D01829F6001839FD00C1124C00ED11E60
:1030700060918501809182010E94F112082F10E079
:103080008091890181118AC08091820160918501BE
:103090008D5F0E94F112A601B80190E00E944E0ED1
:1030A0009093800180937F0190937E0180937D01B6
:1030B00030918401432F50E0440F551F209191011E
:1030C000222309F481C09A0130937C0120937B0173
:1030D00040919001442361F030937A01209379016B
:1030E00090937C0180937B0130937E0120937D013E
:1030F000E0917801E13308F037C2F0E0EE57F74E87
:103100000C946930ED183E19C119A219B119451A6C
:103110001C1C871EA31EE31EC2204222F822652724
:10312000A727E0271428E228B529902ACA2AED2AE1
:10313000832B6D2C24287F2C832C872C992CD82C26
:10314000ED2C0A2D262D452DAA2A4D2D592D5E2D0B
:10315000622E6E2E7B2E8C2EB12EC72ECD2EE12E02
:10316000E52EEE2E182F80E00E943705882309F403
:1031700031CE67CE923009F446CF20918C01913048
:1031800029F020918C0130918D0143CF022E000C4B
:10319000330B30938D0120938C0141CF80918101BD
:1031A0007ACF262F30E0220F331F9091910199237F
:1031B00011F0C90175CF862F86958695820F932FC2
:1031C000911D877099276CCF232F26952695240F64
:1031D000352F311D2770332777CF60919301669586
:1031E000677060937701C0908E010C2C000CDD0895
:1031F0000091910110E08FE00E94F112E82FF0E0C1
:1032000080818823A1F091E009270C9D90010D9DFC
:10321000300D1C9D300D11248091980190919901E1
:10322000820F931F90939901809398019DC16091A3
:10323000770180E10E94F112E82FF0E08081811196
:10324000E2CF6091770181E10E94F112E82FF0E076
:103250003080A0909A01B0909B016091770182E14B
:103260000E94F11290E0880F991FA80EB91E91E0FC
:10327000F50180818311C8CF90E0C6CF9091930172
:1032800081E0492F487093FF80E0809391019091F5
:103290009201292F30E0220F331F442389F1C90105
:1032A0000E94B31280937601809375014091910141
:1032B000442379F180917501909176019093740186
:1032C0008093730180918E0190918F019093720190
:1032D00080937101909376018093750190937001B2
:1032E00080936F016091750190919201292F30E0D8
:1032F000220F331F4423E9F0C9010E94721234C126
:10330000892F86958695820F932F911D8770992717
:10331000C7CF90E0909374018093730120918E0148
:10332000822F90E090937201809371012093750138
:10333000D5CF892F86958695820F932F911D877003
:103340009927DBCF8091920190E0880F991F2091FF
:103350009A0130919B01820F931FDC018D919C910A
:1033600001C18091920190E0880F991F20919A01EC
:1033700030919B01820F931FFC01808191810C94FD
:103380003F2281E0809391011092900180919201FF
:10339000809384019091860184E0911180E0809374
:1033A00082011092830160918501933008F0A8C1D9
:1033B00000919A0110919B018F5F0E94F11290E0A1
:1033C000880F991F080F191FD8010D911C9180912A
:1033D0008201609185018E5F0E94F11220918C0123
:1033E00030918D01829F6001839FD00C1124C00E0B
:1033F000D11E60918501809182010E94F112082FF7
:1034000010E080918901811178C1809182016091E1
:1034100085018D5F0E94F112A601B80190E00E9423
:103420004E0EBC017093800160937F0170937E010A
:1034300060937D0190918401492F50E0440F551F06
:10344000809191019A01811108C0292F2695269516
:10345000240F352F311D2770332730937C012093A3
:103460007B0180919001882361F030937A01209351
:10347000790170937C0160937B0130937E012093EE
:103480007D0180916E01809384018091840182305E
:1034900008F054C188E190E00E94B3128093760155
:1034A0009091910120918401992309F42DC180917B
:1034B000750190917601909374018093730140910E
:1034C0007601509177015093720140937101840FFE
:1034D000951F019630E0220F331F821B930B9093B0
:1034E0007601809375019093700180936F016091D4
:1034F000750180917B0190917C010E9472129092E3
:103500007201809271010E946A0E80919101F8E02F
:103510008F9FC00111240796970102C0220F331F0D
:103520008A95E2F780917301909174010196409120
:103530008401841B910901E010E02817390711F07C
:1035400010E000E0C8010E949A0EC8010E949A0E85
:1035500080917801853019F480E10E9448138091B0
:10356000750190E00E94B8133091860141E050E06F
:10357000333011F450E040E0349FC001359F900D8E
:103580001124092E000CAA0BBB0B311105C021E040
:1035900030918501363009F020E030E050E040E025
:1035A000220F331F441F551F280F391F4A1F5B1F4F
:1035B000A0918701B0E00E946F305B016C016091C7
:1035C00093018CE00E94F112182F609193018DE01D
:1035D0000E94F1122091910130E02F5F3F4F829FB6
:1035E000A001839F500D1124052E000C660B770B54
:1035F000410F511D611D711DA40EB51EC61ED71EA3
:103600004091980150919901A40EB51EB092990174
:10361000A09298018091690180FF26C060916F019E
:103620007091700183E0220F331F8A95E1F72150DA
:103630003109CB0102C0959587952A95E2F78170F3
:103640008CB981E06115710509F080E08BB98BE0E0
:103650000E94F11289B91091690111FD0E946A0E50
:1036600012FF02C018B810BA8091650190916601EE
:103670000196909366018093650160E27EE40E946A
:103680004130892B19F481E08093640180916301BA
:10369000882319F081E00E940D148DB1809363019D
:1036A00090916401992309F4F7CB909189019111CC
:1036B000F3CB909188019111EFCB9EB1992309F43E
:1036C000EBCB8111E9CB8AE00E940D1410926401CA
:1036D0008EE993E00E94C001181619062CF48EE9B9
:1036E00093E00E949E01282E622D86EA94E00E94BB
:1036F000721287E00E940D14CFCB809181018CCE95
:1037000070E0660F771F8ECE40917501642F70E0D8
:10371000709374016093730190E0909372018093B1
:10372000710130E0220F331FF701E21BF30B8E0F04
:103730009F1F840F8093750190E0D5CE863009F4E9
:1037400072C0833041F4E0919A01F0919B0182892B
:1037500093890E94B8138091840181FF23C09091C6
:10376000860121E030E0933011F430E020E0929FB8
:10377000A001939F500D1124911105C021E080916B
:103780008501863009F020E080919801909199019F
:103790000296840F951F30E0220F331F820F931F74
:1037A0000E94B8138091840180FF07C080917B0143
:1037B00090917C0102960E94B31280917B019091BE
:1037C0007C0102960E94B312E0919A01F0919B0154
:1037D00090E0938B828B80917B0190917C010E9481
:1037E000B3128093750190919101209198013091CD
:1037F00099013093740120937301992391F0809182
:10380000750190917601909372018093710190936C
:103810009901809398019093700180936F018AE9D8
:103820009CCE90E0F0CF80917F01909180010E942A
:10383000B3128093750193CE80917B0190917C01AE
:1038400090937E0180937D01E0918401E83008F03F
:103850008BCEF0E0E25DF34E0C946930361CB41A66
:10386000811CB61C0B1D631DBE1D201E80E20E9424
:10387000481320919801309199012F5F3F4F80911B
:103880009101820F932F911D90939901809398013C
:1038900080917D0190917E010E94B3128093750109
:1038A000909191019923E1F0209175013091760179
:1038B000309374012093730140918A0150918B01E0
:1038C000509372014093710124233523309370018A
:1038D00020936F01682F80917D0190917E010DCD25
:1038E000282F30E0309374012093730120918A01D6
:1038F000422F50E05093720140937101282330E031
:10390000E5CF0E94B31280937601909191019923A3
:10391000D9F0809175019091760190937401809314
:103920007301809176019091770190937201809359
:103930007101809590959093760180937501909395
:10394000700180936F01D8C42091750130E03093ED
:10395000740120937301282F30E03093720120937B
:10396000710180958093750190E0E9CF0E94B312B8
:1039700080937601909191019923D9F180917501FD
:1039800090917601909374018093730180917601F8
:103990009091770190937201809371019195819537
:1039A00091099093760180937501909370018093B3
:1039B0006F016091750180917D0190917E010E945F
:1039C0007212109274011092730188E20E944813DF
:1039D00081E090E040916F0150917001209173015E
:1039E000309174012417350708F03CC20E94A00EE4
:1039F000BBCD2091750130E03093740120937301A9
:103A0000282F30E0309372012093710181958093CB
:103A1000750190E0CACF80919101882371F180E116
:103A20000E94481380917F01909180010E94B312FF
:103A3000A0919A01B0919B012D913C911197482F33
:103A4000429FC001439F900D112490937001809379
:103A50006F01E0919101F0E03196EE0FFF1FEA0F48
:103A6000FB1F330F220B322F318320838D939C93C6
:103A700018B8C3010E949A0E77CD80E10E944813C6
:103A800080917F01909180010E94B312909100007B
:103A9000899FC00111249093700180936F01E09180
:103AA0009101F0E01182E0919A01F0919B019183E4
:103AB0008083AC01552721E04817590709F420E01D
:103AC00028B9C201D7CF80919101882369F180E1A3
:103AD0000E94481380917F01909180010E94B3124F
:103AE000A0919A01B0919B012D913C911197582F73
:103AF000529FC001539F900D1124909370018093A9
:103B00006F01E0919101F0E03196EE0FFF1FEA0F97
:103B1000FB1F330F220B322F318320838D939C9315
:103B200018B890E080E0A6CF80E10E944813809111
:103B30007F01909180010E94B31290910000890250
:103B4000C00111249093700180936F01E091910165
:103B5000F0E0330F220B322F2183E0919A01F09194
:103B60009B0191838083482F082E000C550B21E088
:103B70004817590709F420E028B9D3CF80917F0175
:103B80009091800120919101222359F10E94B3125A
:103B9000682F70E070936D0160936C016115710581
:103BA00009F4B1C020919A0130919B01E0919101FB
:103BB000F0E03196EE0FFF1FE20FF31FD9018D9158
:103BC0009C9190937A01809379010E944130709387
:103BD000830160938201D9016D937C9391838083EB
:103BE000C3CC0E94B312682F70E070936D01609394
:103BF0006C016115710509F486C0E0919A01F0919C
:103C00009B01208191812093790190937A01822FE9
:103C10000E9441307093830160938201CB01992708
:103C20006817790709F06FC060930000E091910177
:103C3000F0E080916C01869F20191124218394CC9F
:103C400080917F0190918001209191012223B1F117
:103C50000E94B312282F30E030936D0120936C0145
:103C60002115310509F44FC0C0909A01D0909B01F5
:103C7000E0919101F0E03196EE0FFF1FEC0DFD1D7C
:103C8000D6010D911C9110937A0100937901C8011E
:103C9000B9010E9455307093830160938201D6016F
:103CA0006D937C93269FC001279F900D369F900DAA
:103CB0001124081B190B1183008356CC0E94B312E8
:103CC000682F880F770B70936D0160936C016115FD
:103CD0007105C9F0E0919A01F0919B0120819181D9
:103CE0002093790190937A01822F0E94553070932E
:103CF000830160938201462F062E000C550B64173A
:103D0000750709F491CF80E00E940D142DCC10921C
:103D1000800110927F0180918E0190918F0190938C
:103D20008B0180938A0183E08093860180916E01EC
:103D300080938401809198019091990101979093CB
:103D400099018093980180917F01909180019093D7
:103D50007E0180937D0181E090919101911180E03D
:103D600090919001892B8093900120918A0130914C
:103D70008B01882319F0022E000C330BE0919A017D
:103D8000F0919B01338F228F2AE130E030937C0148
:103D900020937B0122E030E0882311F021E030E025
:103DA0008091980190919901820F931F90939901AE
:103DB000809398018091840180936E01880F880F11
:103DC000880F0E944813E0916E01E93008F0CCCBD7
:103DD000F0E0EF50F14E80917B0190917C010C94CA
:103DE0006930FA1E481F731FCC1F2A2055208F28C8
:103DF000942049210E94B312809376019091910101
:103E0000992399F1809175019091760190937401B5
:103E10008093730120917601309177013093720184
:103E200020937101820F931F909376018093750107
:103E30009093700180936F016091750180917D0175
:103E400090917E010E94721281E090E040916F019A
:103E50005091700120917301309174014217530702
:103E600008F4C4CD90E080E0C1CD90917501292F78
:103E700030E03093740120937301282F30E03093A9
:103E8000720120937101890F8093750190E0D0CF6A
:103E90000E94B3128093760190919101992399F039
:103EA00080917501909176019093740180937301D4
:103EB0002091760130917701309372012093710146
:103EC000822B932B38CD90917501292F30E03093C0
:103ED000740120937301282F30E0309372012093F6
:103EE0007101892B3FCD0E94B3128093760190918E
:103EF00091019923E1F12091750130917601309380
:103F000074012093730188B140917601509177013B
:103F10005093720140937101240F351F820F932F2C
:103F2000911D909376018093750190937001809319
:103F30006F016091750180917D0190917E010E94D9
:103F4000721288B1209173013091740140916F0118
:103F500050917001882321F04217530709F478C06B
:103F600081E0421753070CF457C080E055C0909190
:103F70007501292F30E0309374012093730128B12B
:103F8000482F50E05093720140937101920F890FB6
:103F90008093750190E0C9CF0E94B312809376019F
:103FA000909191019923F1F18091750190917601A1
:103FB000909374018093730148B120917601309100
:103FC00077013093720120937101821B930B841B44
:103FD000910990937601809375019093700180937D
:103FE0006F016091750180917D0190917E010E9429
:103FF000721288B1209173013091740140916F0168
:1040000050917001882319F04217530709F181E09C
:10401000241735070CF0A9CF90E00E94A00E0E9453
:104020006A0EA2CA90917501292F30E03093740175
:104030002093730128B1482F50E0509372014093B0
:104040007101921B981B892F9093750190E0C5CF49
:1040500081E0E2CF0E94B3128093760190919101AA
:10406000992399F080917501909176019093740154
:104070008093730120917601309177013093720122
:10408000209371018223932356CC90917501292F9F
:1040900030E03093740120937301282F30E0309387
:1040A00072012093710189235DCC0E94B312982F75
:1040B0008093760180919101882319F18091750197
:1040C0009091760190937401809373012091760111
:1040D000309177013093720120937101821B930B11
:1040E00090937601809375019093700180936F0196
:1040F0006091750180917D0190917E010E94721204
:1041000067CC80917501282F30E0309374012093A3
:104110007301292F30E03093720120937101891BC4
:104120008093750190E0E0CF0E94B31280937601F6
:1041300090919101992399F0809175019091760168
:1041400090937401809373012091760130917701EF
:104150003093720120937101821B930BC5CF209184
:10416000750130E0309374012093730190E09093D7
:10417000720180937101281B390B309370012093D9
:104180006F01B6CF809191018111B9C081E0809318
:10419000910180918401885F8093840190918601D0
:1041A00084E0911180E080938201109283016091FC
:1041B0008501933008F089C000919A0110919B010C
:1041C0008F5F0E94F11290E0880F991F080F191F4E
:1041D000F8010081118180918201609185018E5FDB
:1041E0000E94F11220918C0130918D01829F60011B
:1041F000839FD00C1124C00ED11E60918501809147
:1042000082010E94F112082F10E080918901811132
:1042100059C080918201609185018D5F0E94F112E9
:10422000A601B80190E00E944E0EBC01709380017F
:1042300060937F0170937E0160937D019091840172
:10424000492F50E0440F551F809191019A0181112F
:1042500008C0292F26952695240F352F311D27704C
:10426000332730937C0120937B0180919001882338
:1042700061F030937A012093790170937C0160930F
:104280007B0130937E0120937D0180917B01909191
:104290007C010E94B3128093760190919101992341
:1042A000C1F0809175019091760190937401809393
:1042B00073018091760190917701909372018093C0
:1042C000710139CB80918101ABCF70E0660F771F10
:1042D000ADCF2091750130E03093740120937301CC
:1042E000282F30E030937201209371018093750183
:1042F0003093700120936F0160917501ECCA809139
:1043000090018111B5C081E0809389018CE0809398
:1043100081019091860184E0911180E08093820177
:104320001092830160918501933008F08DC0009157
:104330009A0110919B018F5F0E94F11290E0880F0B
:10434000991F080F191FD8010D911C9180918201AE
:10435000609185018E5F0E94F11220918C01309155
:104360008D01829F6001839FD00C1124C00ED11E4D
:1043700060918501809182010E94F112082F10E066
:104380008091890181115DC08091820160918501D8
:104390008D5F0E94F112A601B80190E00E944E0EBE
:1043A000BC017093800160937F0170937E016093E4
:1043B0007D0190918401492F50E0440F551F809159
:1043C00091019A01811108C0292F26952695240F65
:1043D000352F311D2770332730937C0120937B01CB
:1043E00080919001882361F030937A0120937901C4
:1043F00070937C0160937B0130937E0120937D015B
:1044000080917B0190917C010E94B3128093750191
:10441000909191019923E1F080917501909176013D
:10442000909374018093730180917F01909180013A
:10443000909372018093710190937601809375013E
:10444000DDC580918101A7CF70E0660F771FA9CFEE
:1044500090E0909374018093730120917F01822FEB
:1044600090E0909372018093710120937501C6C50D
:1044700080917F01909180010E94B31290E00E9490
:104480007E1372C8109284011092860186E0809398
:10449000850180918E0190918F0190938D01809381
:1044A0008C0184E090E090938301809382010091DD
:1044B0009A0110919B0166E085E00E94F11290E064
:1044C000880F991F080F191FF80100811181809131
:1044D0008201609185018E5F0E94F11220918C0112
:1044E00030918D01829F6001839FD00C1124C00EFA
:1044F000D11E60918501809182010E94F112082FE6
:1045000010E080918901811155C0809182016091F4
:1045100085018D5F0E94F112A601B80190E00E9412
:104520004E0EAC019093800180937F0190937E01A9
:1045300080937D0190918401692F70E0660F771F51
:10454000809191019B01811108C0292F2695269504
:10455000260F372F311D2770332730937C0120938E
:104560007B0180919001882361F030937A01209340
:10457000790150937C0140937B0130937E0120931D
:104580007D0180917D0190917E010E94B312809304
:10459000760190919101992381F08091750190911C
:1045A00076019093740180937301809176019091CC
:1045B00077013ECF80918101AFCF2091750130E02E
:1045C0003093740120937301282F30E030937201EF
:1045D00020937101809375013093700120936F01D6
:1045E0006091750180917B0190917C010C947D1903
:1045F00080917F01909180010E94B3128093750198
:104600006091910190E0662321F080917501909175
:10461000760170E06F5F7F4F13E0660F771F1A958A
:10462000E1F79B012150310902C0959587952A95A4
:10463000E2F78170992790938301809382018091A2
:104640006E01882339F1809198019091990101962A
:10465000909399018093980180918C01082E000C11
:10466000990B90937A01809379010097E9F4E09196
:104670008401E83010F00C94B41AF0E0EE5BFC4DCD
:104680000C9469304E24C7245425F6259626BF265F
:10469000B41AD126809190018111B8C090927A010C
:1046A0008092790181E090E020918401243070F5BE
:1046B0002695620F711D0E94413090937A0180937C
:1046C000790180917F01909180010E94B3128093C3
:1046D000750190919101992309F49DC08091820107
:1046E000909183019093740180937301809175017F
:1046F0009091760190937201809371019093830160
:10470000809382019093700180936F018091840166
:1047100080FF08C080917F01909180010E94B312B8
:104720008093750180919101882309F47EC0809166
:10473000750190917601909374018093730120919B
:10474000790130917A01209371013093720102C096
:10475000969587952A95E2F7909376018093750157
:104760009093700180936F016091750180917F013A
:10477000909180010E94721280918401843018F01F
:1047800080E10E94481380918401853008F465C05F
:104790002091790130917A01215031098091730182
:1047A0009091740102C0969587952A95E2F78170E1
:1047B00099270E94A00E80919101882309F456C088
:1047C00080917501909176019093740180937301AB
:1047D0002091790130917A01209371013093720117
:1047E00002C0880F991F2A95E2F790937601809373
:1047F00075019093700180936F01609175018091B4
:104800007F01909180010E94721231CF809102004D
:104810008F7190E026CF20918201309183013093F7
:1048200074012093730190E065CF8091750190E051
:10483000909374018093730120917901422F50E08D
:10484000509372014093710102C0959587952A9506
:10485000E2F780937501992783CF80917F01909132
:1048600080010E94B31280937501A5CF80917501DC
:1048700090E0909374018093730120917901422F0D
:1048800050E0509372014093710102C0880F991F4C
:104890002A95E2F7809375019927ABCF80917F012C
:1048A000909180010E94B3128093750190919101C3
:1048B0004091790150917A01992309F449C02091DE
:1048C0007501309176013093740120937301892F23
:1048D00090E00196B3E0880F991FBA95E1F7841B29
:1048E000950B409182015091830102C056954795E6
:1048F0008A95E2F75093720140937101240F351F9E
:1049000030937601209375013093700120936F01ED
:104910006091750180917F01909180010E947212D7
:104920002091910180916F0190917001AC014170D3
:10493000552748B9F8E02F9F90011124295F3F4F78
:1049400002C0959587952A95E2F78170992792C8BC
:10495000282F30E03093740120937301209182015D
:1049600030E068E070E0641B750B02C03595279558
:104970006A95E2F73093720120937101820F809360
:10498000750190E09093700180936F01C1CF970102
:104990000090790102C0220F331F0A94E2F72150E0
:1049A0003109809182019091830182239323909316
:1049B00083018093820180917F01909180010E9408
:1049C000B3128093750190919101409179015091BA
:1049D0007A01992309F449C020917501309176013B
:1049E0003093740120937301892F90E00196A3E026
:1049F000880F991FAA95E1F7841B950B40918201BE
:104A00005091830102C0440F551F8A95E2F75093DD
:104A1000720140937101240F351F3093760120936A
:104A200075013093700120936F0160917501809141
:104A30007F01909180010E9472122091910140911A
:104A40006F0150917001CA01880F991F68E0269F7D
:104A500090011124295F3F4F022E02C055954795C2
:104A60000A94E2F7417048B96BCF282F30E03093B9
:104A70007401209373012091820130E068E070E0BE
:104A8000641B750B02C0220F331F6A95E2F7309347
:104A9000720120937101820F8093750190E09093D1
:104AA000700180936F01C1CF80917F01909180014F
:104AB0000E94B31280937501209191016091790158
:104AC00070917A01222309F46AC080917501909156
:104AD0007601909374018093730148B150E0FB011B
:104AE000319702C0440F551FEA95E2F730E02F5F7F
:104AF0003F4FE3E0220F331FEA95E1F7D701A61BF2
:104B0000B70BBD01620F731F2091820130918301A9
:104B100002C0369527956A95E2F73093720120938B
:104B20007101840F951F820F931F909376018093DC
:104B300075019093700180936F0160917501809170
:104B40007F01909180010E947212209191018091C9
:104B50006F019091700130E02F5F3F4F73E0220FA3
:104B6000331F7A95E1F74091790150917A01F9016B
:104B7000E41BF50BB70102C0660F771FEA95E2F759
:104B8000AB0160918201709183014623572361E05C
:104B9000452B09F460E068B921503109D1CE282FA6
:104BA00030E0309374012093730128B130E0AB0101
:104BB0004150510902C0220F331F4A95E2F740913C
:104BC000820150E0E9E0F0E0E61BF70B02C05595EA
:104BD0004795EA95E2F75093720140937101420FB5
:104BE000531F840F8093750190E0A3CF80917F01C4
:104BF000909180010E94B312809375019091910170
:104C00004091790150917A01992309F463C0209170
:104C10007501309176013093740120937301892FCF
:104C200090E0019663E0880F991F6A95E1F7841B75
:104C3000950B48B150E0082E02C0440F551F0A944E
:104C4000E2F7BC016F5F7F4F8091820190918301F9
:104C500002C0880F991F6A95E2F7909372018093C2
:104C60007101840F951F280F391F3093760120930F
:104C700075013093700120936F01609175018091EF
:104C80007F01909180010E94721280917901909130
:104C90007A010197970102C0220F331F8A95E2F72C
:104CA0008091820190918301822393230E94A00E20
:104CB0002091910180916F019091700178E0279F80
:104CC00090011124295F3F4FAC01440F551F8427E9
:104CD000952736CE282F30E030937401209373014E
:104CE00068B170E0E8E0F0E0E41BF50B02C0660F8D
:104CF000771FEA95E2F72091820130E0E9E0F0E0E9
:104D0000E41BF50B02C0220F331FEA95E2F7309344
:104D1000720120937101260F371F820F8093750156
:104D200090E09093700180936F01A7CF80919101E3
:104D300098E0899FB0011124695F7F4F80916F01D6
:104D400090917001062E02C0959587950A94E2F71E
:104D50004091790150917A0141505109209173019C
:104D60003091740102C0220F331F4A95E2F702C04E
:104D7000369527956A95E2F7217028B9E6CD2091FE
:104D80009101A8E02A9F90011124295F3F4F809153
:104D900073019091740102C0969587952A95E2F768
:104DA000D4CD8091910190E0019603E0880F991F86
:104DB0000A95E1F72091790130917A012817390796
:104DC00048F081E02091820130918301232B09F486
:104DD00080E088B910BA80917F01909180010E9493
:104DE000B3128093750190919101992309F446C003
:104DF00020917501309176013093740120937301F5
:104E0000892F90E0019613E0880F991F1A95E1F71A
:104E1000F70102C0EE0FFF1F8A95E2F7CF0101975D
:104E20000090790102C0959587950A94E2F78095E4
:104E300090956091820170918301869FA001879F68
:104E4000500D969F500D1124509383014093820181
:104E50005093720140937101240F351F30937601F6
:104E6000209375013093700120936F01609175015B
:104E700080917F01909180010C947D19282F30E062
:104E800030937401209373012FEF30E0009079018B
:104E900002C0359527950A94E2F7209530959091B8
:104EA0008201929F902D112490938201292F30E04E
:104EB0003093720120937101890F8093750190E006
:104EC0009093700180936F01D1CFE0919A01F0919E
:104ED0009B01628173819B012150310933832283BD
:104EE00091E0232B09F490E0492F50E050937A0190
:104EF00040937901209192012130D9F078F023304C
:104F0000E9F060918E014091790150917A0164033A
:104F10009001659F300D11240C940C1981E02BB188
:104F2000211180E0892390E090937A0180937901A8
:104F3000E8CF8BB190E084239523F6CF738362830F
:104F400081E090E0672B81F390E080E0EDCF20914D
:104F5000900180919801909199010396821B91098B
:104F6000909399018093980130919101311110C073
:104F7000222319F11092990110929801E0919A015F
:104F8000F0919B0180918A0190918B01938B828B90
:104F900020918E0130918F0180919001882311F42E
:104FA0000C940C1980919101882311F40C940C1924
:104FB000022E000C330B0C940C190E94B813E8CF8E
:104FC00080917D0190917E010E94B31280937601C1
:104FD000909191019923B9F080917501909176019A
:104FE0009093740180937301209176013091770141
:104FF0003093720120937101822393239093700167
:1050000080936F01EDCA90917501292F30E03093A4
:10501000740120937301282F30E0309372012093A4
:105020007101892390E0EACF81E080939101109291
:105030007E0110927D018091920190E0880F991F6E
:1050400090937C0180937B0180917B0190917C0106
:1050500020917D0130917E012817390711F40C94BD
:10506000B41A0E94B3128093760190919101992312
:1050700009F471C08091750190917601909374014B
:105080008093730120917601309177013093720102
:105090002093710182279327909376018093750165
:1050A0009093700180936F016091750180917D01F3
:1050B00090917E010E94721280917D0190917E01FB
:1050C0000E94B3128093760190919101992309F483
:1050D00055C08091750190917601909374018093F1
:1050E0007301209176013091770130937201209302
:1050F0007101822793279093760180937501909395
:10510000700180936F016091750180917B01909196
:105110007C010E94721280917B0190917C010E941F
:10512000B31280937601909191019923D1F18091EE
:105130007501909176019093740180937301209191
:1051400076013091770130937201209371018227AB
:1051500093270C949B1C90917501292F30E030937C
:10516000740120937301282F30E030937201209353
:10517000710189278093750190E092CF909175011C
:10518000292F30E03093740120937301282F30E0F1
:10519000309372012093710189278093750190E00B
:1051A000AECF90917501292F30E030937401209398
:1051B0007301282F30E03093720120937101892709
:1051C0000C94B21C80918901882309F4A0C08091BD
:1051D000810190E090938301809382018091880106
:1051E000882309F497C0E0919A01F0919B01828194
:1051F000938190937A0180937901809179019091C4
:105200007A01892B09F4A3C080916E0180FD85C0CD
:1052100050E040E066E070E080918201909183016F
:105220000E944E0E0E94B3128093760190919101DC
:10523000992309F475C0809175019091760190933E
:10524000740180937301809176019091770190931E
:105250007201809371019093760180937501909310
:10526000700180936F011091750180916E01823001
:1052700008F06AC050E040E067E070E088E090E04D
:105280000E944E0E612F0E94721260916E0160FDAD
:105290001BC0E0919A01F0919B018FB190E0880FC3
:1052A000991F01972091910130E02F5F3F4F829F1E
:1052B000A001839F500D929F500D112484859585E8
:1052C000841B950B9587848761FD1BC0E0919A0133
:1052D000F0919B018FB190E0880F991F0197209169
:1052E000910130E02F5F3F4F829FA001839F500DBF
:1052F000929F500D112486859785841B950B978767
:1053000086878091790190917A01019772CF8BE025
:1053100090E060CF81E090E06CCF90E080E082CFC1
:105320002091750130E03093740120937301282F90
:1053300030E03093720120937101809375013093B6
:10534000700120936F018FCF90E080E09BCF809120
:105350008801882311F40C94B41AE0919A01F09119
:105360009B01138212820C94B41A809189018823C4
:1053700009F4A7C08091810190E09093830180930C
:1053800082018091880181119FC090927A01809260
:1053900079018091790190917A01892B09F4B8C043
:1053A00050E040E067E070E088E090E00E944E0E40
:1053B0000E94B31280937601909191011091750132
:1053C000992309F490C08091750190917601909392
:1053D00074018093730120917601309177013093AD
:1053E000720120937101821B930B90937001809343
:1053F0006F0180916E01811188C050E040E066E04D
:1054000070E080918201909183010E944E0E612F85
:105410000E94721290916E01E0919A01F0919B01AD
:1054200080919101911117C02FB130E0220F331FED
:1054300021503109482F50E04F5F5F4F249FB0014A
:10544000259F700D349F700D112424853585261BF2
:10545000370B358724872FB130E0220F331F2150BF
:10546000310990E00196289FA001299F500D389F97
:10547000500D112486859785841B950B9787868709
:1054800080918801882309F4F2C582819381019774
:1054900093838283892B81F081E090E020916F01DA
:1054A00030917001232B11F090E080E020916B018E
:1054B0002817190609F46DCF10927A01109279011C
:1054C00068CF8BE090E059CFE0919A01F0919B0179
:1054D0008281938190937A0180937901892B11F4D1
:1054E0000C94B41A56CF212F30E0309374012093DE
:1054F000730190E09093720180937101281B390B26
:105500003093700120936F0174CF90E080E07FCFE3
:1055100083E090E090936A01809369010C94E81C09
:1055200080919101809390018091980190919901CF
:105530000E947E1380916E01882341F0E0919A01D0
:10554000F0919B01828993890E947E1380916E0164
:1055500081FF0BC08091790190917A010E947E13A6
:1055600090E00E9401130C94B41A80919001811173
:105570000C94B41AE0919A01F0919B018085918579
:1055800020918E0130918F01820F931F9187808728
:105590000C94B41A80917B0190917C010E94B3120B
:1055A0008093750190919101992371F0809175011B
:1055B00090917601909374018093730180918A0198
:1055C00090918B010C94182290E090937401809339
:1055D000730120918A010C942F22109289018091ED
:1055E000A90181508093A9018093AB01809143056B
:1055F00099E089278093430580916E01882391F17A
:10560000E0919A01F0919B018481958190937A01B8
:10561000809379018036910559F51092CD01E09182
:105620007901F0917A0180919101E759FE4F882329
:1056300009F458C08091000090910100909374018A
:1056400080937301808191819093720180937101A5
:1056500090930100809300009093700180936F01FC
:105660000C94B41A80918E0190918F019927CECF1E
:10567000853D9340A1F680913D0590E095958795F5
:10568000079769F68EE994E00E94B312182F8DE90E
:1056900094E00E94B31290E09C0140E5149F200D1D
:1056A000311D112489018DEA94E00E94B312080F84
:1056B000111D80913D05282F217080FF10C08FEFB4
:1056C00090E00823192380E0211101C088E002C086
:1056D000169507958A95E2F700933E05A0CF80E0E6
:1056E0009FEFEFCF8091000090E090937401809342
:1056F00073012081822F90E0909372018093710159
:1057000020930000A9CF80916E01882309F4AEC0D8
:10571000E0919A01F0919B012481358130937A01C7
:105720002093790180919101F901E759FE4F882377
:1057300009F4A2C0808191819093740180937301D8
:10574000809100009091010090937201809371010B
:10575000918380839093700180936F01213631058E
:1057600009F09AC0109268019091000093708091A6
:105770006701892B809367018091790190917A016B
:10578000853D934091F420913D05822F90E09595C1
:105790008795069751F4609100008EEA94E020FF0F
:1057A00002C08DEA94E00E9472128091790190917A
:1057B0007A01853D934011F00C94B41A80913D0517
:1057C00090E095958795079711F00C94B41A8EE99F
:1057D00094E00E94B312182F8DE994E00E94B31256
:1057E000C82ED12CF0E51F9FC00CD11C11248DEACE
:1057F00094E00E94B312C80ED11C80913D05282F61
:10580000217080FF67C080E09FEFC822D9220091FD
:10581000000010E0B12C211102C088E0B82E8DEA02
:1058200094E00E94B31202C0000F111FBA94E2F775
:10583000081B1109C8018C0D9D1D90938301809355
:10584000820100E510E0B8010E944130682F8DE927
:1058500094E00E9472128091820190918301B801BC
:105860000E9441308EE994E00C947D1920918E01C4
:1058700030918F01332752CF808190E09093740153
:105880008093730140910000842F90E09093720107
:105890008093710140835ECFC9018D7F8034910573
:1058A00009F06ACF8091AC01867009F465CF6091F0
:1058B00000009091680181E098279093680149E683
:1058C00054E0DA01A91BB109CD01820F931F0E9498
:1058D000721252CF8FEF90E098CF82E080938801D0
:1058E0008091910180936B0180918901882311F44B
:1058F0000C94B41A8F5F809389010C94B41A809130
:105900006E010C94A41980916E010C94B31982E07D
:105910008093890180916E0180938101809188013B
:10592000882311F40C94B41A8F5F809388010C942F
:10593000B41A1092910190916E0180910000282F6D
:1059400030E030938301209382018F70992319F105
:105950008A30E8F481E09AB1911101C080E08AB9FF
:10596000809182018A39A8F481E098B1911101C037
:1059700080E088B980910000807F8139B8F481E0AF
:1059800098B1911101C080E088B90C94B41A81E0FB
:10599000E6CF81E0EECF8A3038F481E09AB1911100
:1059A00001C080E08AB9E6CF81E0FCCF81E0ECCF96
:1059B000809100008F708A3070F481E09AB191116B
:1059C00001C080E088B91AB8809100008F70809380
:1059D000000090E041CE81E0F5CF2091910122239B
:1059E000A9F08091000090910100F8E02F9F9001B4
:1059F0001124295F3F4F02C0959587952A95E2F7BC
:105A000081708195809301000C94B41A80910000FC
:105A100090E0EBCFE0919A01F0919B0120919101F0
:105A200048E0249F90011124295F3F4F808191819C
:105A300002C0969587952A95E2F7817099279195EE
:105A400081959109958384830C94B41AE0919A010D
:105A5000F0919B01828993890E94B81380919801EB
:105A60009091990105960E94B813E0919A01F091E6
:105A70009B0180918A0190918B01938B828B809105
:105A80008E0190918F010C9412190E941D13809128
:105A9000790190917A010C94B21A0E941D138091A1
:105AA000790190917A01882720910100820F911D40
:105AB00058CD0E941D1380917901A4CF81E080937D
:105AC0009001809391019091860184E0911180E092
:105AD000809382011092830160918501933008F0D8
