:100000000C94BD000C94E5000C94E5000C94E50004
:100010000C94E5000C94E5000C94E5000C94E500CC
:100020000C94E5000C94E5000C94E5000C94E500BC
:100030000C94E5000C94E5000C94E5000C94E500AC
:100040000C944B0D0C94E5000C94190D0C94F30CCE
:100050000C94E5000C94E5000C94E5000C94E5008C
:100060000C94E5000C94E50000000000240027003B
:100070002A0000000000250028002B0004040404CE
:100080000404040402020202020203030303030342
:10009000010204081020408001020408102001021F
:1000A00004081020000000080002010000030407FB
:1000B00000000000000000002E20446F6E6521004B
:1000C0002E20446F6E652120496E69742066696C2C
:1000D0006573797374656D00496E697420534420AB
:1000E00063617264004D616368696E652068616C6C
:1000F00074656421005374617274696E6720763888
:10010000362E2E2E00436F7079726967687420282E
:100110004329203230323120407261737069647536
:10012000696E6F2C20756E6465722047504C2D7679
:1001300033006176722D763836202D20496E746535
:100140006C203830383620656D756C61746F7220A4
:1001500072756E6E696E67206F6E2041726475698C
:100160006E6F20554E4F007C3C3E5E2B3D3F2F5B1B
:100170005D3B2C2A225C0000950D11241FBECFEFA1
:10018000D8E0DEBFCDBF11E0A0E0B1E0E8E7F2E5E6
:1001900002C005900D92A234B107D9F725E0A2E480
:1001A000B1E001C01D92AD34B207E1F710E0CDEB34
:1001B000D0E004C02197FE010E940F29CC3BD1075B
:1001C000C9F70E94CB0D0C943A290C940000AF9211
:1001D000BF92CF92DF92EF92FF920F931F93CF9334
:1001E000DF936C017B018B01040F151FEB015E0196
:1001F000AE18BF08C017D10759F06991D601ED912B
:10020000FC910190F081E02DC6010995892B79F7C9
:10021000C501DF91CF911F910F91FF90EF90DF907B
:10022000CF90BF90AF900895FC01538D448D252F42
:1002300030E0842F90E0821B930B541710F0CF9680
:10024000089501970895FC01918D828D981761F0B2
:10025000A28DAE0FBF2FB11D5D968C91928D9F5FC9
:100260009F73928F90E008958FEF9FEF0895FC01A8
:10027000918D828D981731F0828DE80FF11D858D5B
:1002800090E008958FEF9FEF0895FC01918D228DEE
:10029000892F90E0805C9F4F821B91098F73992773
:1002A00008958CE994E00E94450121E0892B09F42E
:1002B00020E0822F089580E090E0892B29F00E94B1
:1002C000510181110C9400000895FC01A48DA80F28
:1002D000B92FB11DA35ABF4F2C91848D90E0019688
:1002E0008F739927848FA689B7892C93A089B189A8
:1002F0008C91837080648C93938D848D981306C049
:100300000288F389E02D80818F7D80830895EF92AC
:10031000FF920F931F93CF93DF93EC0181E0888FBF
:100320009B8D8C8D98131AC0E889F989808185FF8F
:1003300015C09FB7F894EE89FF896083E889F98931
:1003400080818370806480839FBF81E090E0DF9133
:10035000CF911F910F91FF90EF900895F62E0B8D86
:1003600010E00F5F1F4F0F731127E02E8C8D8E1141
:100370000CC00FB607FCFACFE889F989808185FFA8
:10038000F5CFCE010E946501F1CFEB8DEC0FFD2F73
:10039000F11DE35AFF4FF0829FB7F8940B8FEA8963
:1003A000FB8980818062CFCFEF92FF920F931F93E2
:1003B000CF93DF938C017B01D0E0C0E0F701EC0F1D
:1003C000FD1F6491662339F0C8010E948701892BC3
:1003D00011F02196F3CFCE01DF91CF911F910F91B4
:1003E000FF90EF900895CF93DF93EC01888D8823E1
:1003F000B9F0AA89BB89E889F9898C9185FD03C088
:10040000808186FD0DC00FB607FCF7CF8C9185FF6C
:10041000F2CF808185FFEDCFCE010E946501E9CF4B
:10042000DF91CF91089590E0FC01EC55FF4F2491AE
:10043000FC01E057FF4F3491FC01E458FF4FE49179
:10044000EE23C9F0222339F0233001F1A8F4213042
:1004500019F1223029F1F0E0EE0FFF1FEE58FF4FA7
:10046000A591B4918FB7F894EC91611126C03095A5
:100470003E233C938FBF08952730A9F02830C9F060
:10048000243049F7809180008F7D03C080918000E7
:100490008F7780938000DFCF84B58F7784BDDBCFEB
:1004A00084B58F7DFBCF8091B0008F778093B000B3
:1004B000D2CF8091B0008F7DF9CF3E2BDACFCF9392
:1004C000DF9390E0FC01E057FF4F249184589F4F49
:1004D000FC0184918823D1F090E0880F991FFC01E2
:1004E000E859FF4FA591B491FC01EE58FF4FC5911B
:1004F000D49161110EC09FB7F8948C91E22FE095D2
:100500008E238C932881E223E8839FBFDF91CF91D4
:1005100008958FB7F894EC91E22BEC938FBFF6CF50
:100520002FB7F89460914C0170914D0180914E016C
:1005300090914F012FBF08958EBD0DB407FEFDCFE2
:10054000089561E0FC0182810E9413028FEF0C94F8
:100550009C028FEF8EBD0DB407FEFDCF8EB50895C2
:10056000FF920F931F93CF93DF93F82E8B010E947E
:100570009002EB010E94A9028F1571F00E94900277
:100580006C1B7D0B06171707A8F780E0DF91CF9152
:100590001F910F91FF90089581E0F8CFCF92DF92E5
:1005A000EF92FF921F93CF93DF93FC01162F690107
:1005B0007A01838122E090E0281728F4963019F020
:1005C000220F9F5FF9CF292F206A26952CBD90FD21
:1005D00003C021E0963009F420E02DBD60E0828167
:1005E0000E94130268E572E08FEF0E94B002812F33
:1005F00080640E949C02C8E1D0E0D701C6010C2EA5
:1006000004C0B695A795979587950A94D2F70E944E
:100610009C022897C83F8FEFD80779F78FEF111109
:1006200001C085E90E949C02C0E00E94A90287FFE8
:1006300004C0CF3F11F0CF5FF8CFDF91CF911F9172
:10064000FF90EF90DF90CF900895CF93DF93EC0170
:100650009A01AB0189E0220F331F441F551F8A9571
:10066000D1F768E1CE010E94CE02882349F083E0F1
:100670008883CE010E94A10280E0DF91CF9108958E
:100680008EEF8EBDECE9F2E00DB407FEFDCF819157
:100690008EBD84E0EC39F807B9F70DB407FEFDCF45
:1006A0008FEF0E949C028FEF0E949C020E94A90281
:1006B000982F9F71953019F0898386E0D9CF68E52E
:1006C00072E08FEF0E94B002811105C087E088833D
:1006D000CE010E94A102CE010E94A10281E0CDCFF5
:1006E0000F931F93CF9380914601C1E0882399F027
:1006F00000919202109193024091000150910101EA
:100700006091020170910301C8010E942503C82F66
:10071000811106C0C0E08C2FCF911F910F910895D9
:100720004091420150914301609144017091450113
:10073000411551056105710569F0C8010E94250345
:10074000882341F310924201109243011092440118
:100750001092450110924601DECFCF92DF92EF92C8
:10076000FF921F93CF93DF936B017C01142F809135
:10077000000190910101A0910201B09103018C153B
:100780009D05AE05BF0509F44FC00E947003882384
:10079000C9F0C0919202D0919302A701960189E01D
:1007A000220F331F441F551F8A95D1F761E1CE01F7
:1007B0000E94CE02882371F084E08883CE010E94DB
:1007C000A10280E0DF91CF911F91FF90EF90DF9029
:1007D000CF9008956CE271E08EEF0E94B00281111B
:1007E00005C085E08883CE010E94A1028FEF8EBDF7
:1007F000ECE9F2E00DB407FEFDCF9EB591938EBDFE
:1008000094E0EC39F907B1F70DB407FEFDCF0E9473
:10081000A902CE010E94A102C0920001D092010162
:10082000E0920201F092030181E0112359F28093DA
:100830004601C8CF4F925F926F927F929F92AF9284
:10084000BF92CF92DF92EF92FF920F931F93CF93BD
:10085000DF9321E832E030939302209392028823C1
:1008600009F4DEC040E060E070E0CB010E94AD031F
:10087000811112C0D0E08D2FDF91CF911F910F9188
:10088000FF90EF90DF90CF90BF90AF909F907F90C0
:100890006F905F904F900895C0906204D090630471
:1008A000E0906404F090650440E0C701B6010E9446
:1008B000AD03D82F8823F1F280919A048535D1F6C3
:1008C00080919B048A3AB1F69090AC02909291028A
:1008D000C091A902C09398020091B2021091B30294
:1008E0001093900200938F022091AD023091AE02DE
:1008F00030939A0220939902A090AA02B090AB0282
:10090000D701C6018A0D9B1DA11DB11D80938B02CD
:1009100090938C02A0938D02B0938E02909EA001C2
:10092000919E500D1124840F951FA11DB11D809320
:10093000870290938802A0938902B0938A0245E0CF
:10094000220F331F4A95E1F721503E4F232F3327C3
:100950002695820F931FA11DB11D80939402909341
:100960009502A0939602B09397024090AF025090E8
:10097000B002712C612C4114510441F44090BC022E
:100980005090BD026090BE027090BF02C81AD90A92
:10099000EA0AFB0AC701B601640D751D861D971D85
:1009A0002C2F30E050E040E00E94ED28309386028A
:1009B000209385026091A7027091A8026115724090
:1009C00009F058CF0115110509F454CF253F6FE008
:1009D000360708F44FCF81E04816510480E86806D6
:1009E000710408F047CFAB2809F444CF992009F4EB
:1009F00041CFC32EDD240C151D0508F43BCFCC23BD
:100A000009F438CF8C2F90E09C01215031098223CA
:100A10009323892B09F02ECF81E080939B022BCF6B
:100A2000C12CD12C760140CFCF92DF92EF92FF9272
:100A30000F931F93CF93DF938230910550F480E0A2
:100A4000DF91CF911F910F91FF90EF90DF90CF90AA
:100A5000089520918502309186022F5F3F4F28171D
:100A6000390768F3EB018C01212F3327C0908B02EB
:100A7000D0908C02E0908D02F0908E02C20ED31EB8
:100A8000E11CF11C8091000190910101A0910201F3
:100A9000B0910301C816D906EA06FB0689F4F801ED
:100AA000FF27EE0FFF1FE456FD4FD183C08381E087
:100AB0008093460180919102823050F481E0C0CF52
:100AC00040E0C701B6010E94AD038111E8CFB7CF66
:100AD00080918F0290919002C80ED91EE11CF11CEA
:100AE000C0924201D0924301E0924401F09245014C
:100AF000E5CFCF92DF92EF92FF920F931F93CF93A8
:100B0000DF9320918502309186022F5F3F4F281797
:100B1000390750F480E0DF91CF911F910F91FF9042
:100B2000EF90DF90CF9008958B01EC012D2F3327AC
:100B300060918B0270918C0280918D0290918E0257
:100B4000620F731F811D911DC0900001D0900101A3
:100B5000E0900201F09003016C157D058E059F0564
:100B600061F4DD27CC0FDD1FC456DD4F88819981EC
:100B7000F8019183808381E0CECF40E00E94AD03F5
:100B80008111EFCFC7CF4F925F926F927F928F927A
:100B90009F92AF92BF92CF92DF92EF92FF920F930C
:100BA0001F93CF93DF93EC016A017B018D818370EA
:100BB00091F480E0DF91CF911F910F91FF90EF9022
:100BC000DF90CF90BF90AF909F908F907F906F906D
:100BD0005F904F9008958A859B85AC85BD858C1567
:100BE0009D05AE05BF0528F3C114D104E104F1044D
:100BF00041F41F861E86188A198A1A8A1B8A81E088
:100C0000D9CF80909802912CB12CA12CCB01BA01A4
:100C1000615071098109910939E096958795779519
:100C200067953A95D1F7A50194010E94ED288901B5
:100C300088899989AA89BB89C816D906EA06FB065C
:100C400020F00097A105B105A9F4888599859F87B3
:100C50008E875E018EE0A80EB11C01151105F1F022
:100C6000B5018E859F850E9479050150110981117A
:100C7000F4CF9FCFBC01CD01615071098109910969
:100C800029E096958795779567952A95D1F7A501DF
:100C900094010E94ED28021B130BDBCFC88AD98A6E
:100CA000EA8AFB8AACCFCF93DF93209199023091EF
:100CB0009A028217930728F090E080E0DF91CF91AD
:100CC0000895462FEC019C0154E0369527955A95DE
:100CD000E1F760918702709188028091890290917A
:100CE0008A02620F731F811D911D0E94AD0388232C
:100CF00019F3CE018F70992725E0880F991F2A9547
:100D0000E1F784569D4FDACFCF93DF93FC01258125
:100D100027FF18C0EC0161E0868197810E9453068D
:100D20000097A1F04A855B856C857D85FC01448F29
:100D3000558F668F778F28853985338F228F8D81E8
:100D40008F778D83DF91CF910C94700380E0DF91DA
:100D5000CF91089589E395E00E94840610923E05A4
:100D60000895CF92DF92EF92FF920F931F93CF934C
:100D7000DF9300D0CDB7DEB77C01FC010685178577
:100D80000115110511F401E010E0D12CC12C809166
:100D9000850290918602C816D906F8F4801791074B
:100DA00010F401E010E00F5F1F4FBE016F5F7F4F37
:100DB000C8010E947905882381F089819A81892B55
:100DC00021F0FFEFCF1ADF0AE2CF6FEF7FEFC8010C
:100DD0000E941405D82E81110DC0D12C8D2D0F909D
:100DE0000F90DF91CF911F910F91FF90EF90DF90C7
:100DF000CF900895F70186859785009749F0B8014F
:100E00000E941405882349F3F70117870687E6CF68
:100E100085818068858311870087F6CF089590E0EB
:100E200080E008950F931F93CF93DF93D0919B029F
:100E3000D11107C0D0E08D2FDF91CF911F910F917D
:100E4000089520913E052370A9F7C62F8C0160E01C
:100E50000E945306FC01892B69F38081882351F39A
:100E6000853E41F38385982F987121F780FF03C059
:100E70008C2F8271F9F61092480510924705109256
:100E8000490510924A0510924B0510924C0510939B
:100E9000400500933F05848D958DA68DB78D809379
:100EA000430590934405A0934505B0934605828D74
:100EB000938D9093420580934105CF70C0933E057A
:100EC000BACFAF92BF92CF92DF92FF920F931F9350
:100ED000CF93DF93CDB7DEB72B970FB6F894DEBF75
:100EE0000FBECDBF382F80919B02882309F468C0C4
:100EF00020913E052370B9F4FE013196AE01445FA6
:100F00005F4F6F0180E28193E417F507E1F7A32FAC
:100F1000B92F90E027E08D91382F882321F18E3270
:100F200039F42A3011F480E04BC098E02AE0F3CF86
:100F3000E7E6F1E04491442321F031968413FACF9F
:100F4000F2CF291780F34FED480F4E3560F74FE988
:100F5000480F4A3110F430EE380FF601E90FF11D59
:100F600030839F5FD8CF89818032E9F2F62E10E07E
:100F700000E0AA24AA94BA2C8091990290919A0236
:100F80000817190790F560E0C8010E945306BC01DC
:100F9000009749F2FC019081992311F1953E29F4C3
:100FA000B7FC20C00F5F1F4FE7CF4BE050E0C601FA
:100FB0000E942429892BB1F76F2DC8010E941207C6
:100FC0002B960FB6F894DEBF0FBECDBFDF91CF9149
:100FD0001F910F91FF90DF90CF90BF90AF90089539
:100FE000B7FE05C058019111DDCFB7FC9CCF6F2D26
:100FF0006274623409F097CF61E0C5010E94530624
:10100000009709F490CF20E2FC0111922A95E9F7AC
:101010002BE0F601DC0101900D922A95E1F721E227
:1010200038E2FC01318B208B40E058E0578746873F
:10103000338B228B318F208F578B468B0E9470030E
:10104000882309F470CF62E4C501B8CF4F925F9254
:101050006F927F928F929F92AF92BF92CF92DF92C8
:10106000EF92FF920F931F93CF93DF935C018B015D
:1010700080913E0580FD13C08FEF9FEFDF91CF91F0
:101080001F910F91FF90EF90DF90CF90BF90AF90A6
:101090009F908F907F906F905F904F900895809178
:1010A000490590914A05A0914B05B0914C0540919E
:1010B00043055091440560914505709146056C01CA
:1010C0007D01C00ED11EE11CF11C4C155D056E05A5
:1010D0007F0518F48A01081B190B7801812C32E076
:1010E000932EE114F10409F486C080914905909192
:1010F0004A05A0914B05B0914C05C0909802AC01F7
:10110000BD0129E076956795579547952A95D1F7C2
:10111000DD24DA94DC0CD422EC01D170DD2009F45A
:1011200048C0209147053091480522503109AC2D27
:10113000B0E00E9415294090940250909502609072
:10114000960270909702640D751D861D971D6D0D9A
:10115000711D811D911D40E00E94AD03882309F49B
:101160008BCFC4018C1B9D0B67018E159F0508F466
:101170006C01BE0164567D4FA601C5010E94312954
:101180008091490590914A05A0914B05B0914C057D
:101190008C0D9D1DA11DB11D8093490590934A059D
:1011A000A0934B05B0934C05AC0CBD1CEC18FD088E
:1011B00098CF209709F0B5CF8091470590914805C9
:1011C000009791F4809141059091420590934805D4
:1011D0008093470580914705909148050297863F87
:1011E0009F4F08F49ECF48CF67E475E00E947905D1
:1011F0008111F0CF41CFC80141CF0F931F93CF93FF
:10120000DF931F92CDB7DEB78C0161E082E291E0FF
:101210000E946107A80170E060E089E395E00E9408
:10122000C30561E070E0CE0101960E9426080981A5
:10123000019711F00FEF1FEF0E94AA06802F0F9069
:10124000DF91CF911F910F9108951F93CF93DF935B
:10125000EC010E94FD08182FCE0101960E94FD08A6
:10126000912FDF91CF911F910895EF92FF920F93ED
:101270001F93CF93DF937B01EA010E9425098C0124
:10128000C7010E94250924E0000F111F2A95E1F7EC
:101290008C0F9D1F800F911FDF91CF911F910F9198
:1012A000FF90EF900895CF93DF93EB018F579F4FFF
:1012B0000E9425098C0F9D1FDF91CF910C94FD0892
:1012C000CF93DF9380937C02C82FD0E0BE0188E0EB
:1012D00090E00E94530980936102BE0189E090E092
:1012E0000E94530980935702BE018EE090E00E9455
:1012F000530980937002BE018AE090E00E94530976
:1013000090E09093530280935202DF91CF91089521
:101310000F931F93CF9382E090EF9093630280939B
:10132000620209E010E001501109E0F0C80188965E
:101330000E94FD08C82FB80183E190E00E94530984
:101340002C2F30E002C0220F331F8A95E2F78091E4
:10135000620290916302280F391F30936302209339
:101360006202E1CFCF911F910F9108952F923F928A
:101370004F925F926F927F928F929F92AF92BF92A5
:10138000CF92DF92EF92FF920F931F93CF93DF9351
:1013900000D0CDB7DEB78C015B014A01FC0185812D
:1013A00081FFDEC082FDC9C06401212C32E0332EF2
:1013B000F80180899189A289B38970909802AC0163
:1013C000BD0129E076956795579547952A95D1F700
:1013D00066246A94670C64227C01F1E0FF226110AC
:1013E0001FC0F80186859785E114F10409F0E5C076
:1013F000009709F4B9C0BE016F5F7F4F0E94790565
:10140000882309F4ADC089819A81883FFFEF9F0747
:1014100008F4C9C0C8010E94B106882309F4A0C01D
:10142000F8012685378522503109A72DB0E00E94AA
:101430001529209194023091950240919602509185
:101440009702620F731F841F951F9B01AC01260D2D
:10145000311D411D511D29013A01E114F10409F02A
:10146000BFC0F8014089518962897389828593855B
:10147000A485B585481759076A077B0708F4B0C0EB
:101480000E947003882309F46BC0409200015092BF
:101490000101609202017092030181E08093460194
:1014A00031016E187F08C614D70408F43601A30171
:1014B000B501C70184569D4F0E943129F8018089EA
:1014C0009189A289B389860D971DA11DB11D808BBD
:1014D000918BA28BB38BC618D708A60CB71CC1146E
:1014E000D10409F065CF4285538564857585481719
:1014F00059076A077B0738F4258182879387A48779
:10150000B58720682583F801858183FD50C0C4011B
:101510000F900F90DF91CF911F910F91FF90EF905F
:10152000DF90CF90BF90AF909F908F907F906F9003
:101530005F904F903F902F9008954285538564852A
:10154000758580899189A289B389481759076A07E7
:101550007B0709F429CFC8010E94C305811124CF5C
:1015600081E0F801848343C0808591850097D9F498
:10157000C8010E94B106882399F3F80126853785B2
:1015800022503109A72DB0E00E9415294090940205
:10159000509095026090960270909702460E571EEA
:1015A000681E791E5ECFF8019787868739CFC801FC
:1015B0000E9484068111ABCFD3CF9C012250310908
:1015C000A72DB0E00E9415294090940250909502FA
:1015D0006090960270909702460E571E681E791E04
:1015E00041E0C301B2010E94AD03811159CF8FEFD9
:1015F0009FEF8ECFCF93DF931F92CDB7DEB7698376
:1016000041E050E0BE016F5F7F4F0E94B60921E0CC
:1016100030E0019711F030E020E0C9010F90DF9138
:10162000CF9108951F93CF93DF93EC01162F62E0C3
:1016300082E291E00E946107AE0170E060E089E320
:1016400095E00E94C305612F70E041E050E089E31E
:1016500095E00E94B6090E94AA06812FDF91CF91E2
:101660001F9108950C94120B0F931F93CF93DF9348
:101670008C01D62FC72F0E94320B6C2FC801019608
:101680000E94320B8D2F9C2FDF91CF911F910F91D4
:1016900008950F931F93CF93DF938C01C9E0D0E09F
:1016A000219788F0BE0183E190E00E945309B801C0
:1016B00002C0759567958A95E2F76170CE018896AC
:1016C0000E94320BEDCFDF91CF911F910F910895C2
:1016D00061E0892B09F460E080E390E00C94320B28
:1016E00060915C0270915D0280915A0290915B0260
:1016F00068277927809158029091590268277927A5
:1017000070935B0260935A0284E0769567958A95A0
:10171000E1F761708AE290E00E94320B209158025A
:101720003091590280915C0290915D02281739072F
:10173000E1F088E290E00E94FD0840917A0298E092
:10174000499FA0011124495F5F4F20915A023091B7
:101750005B0202C0369527954A95E2F7A901482712
:10176000CA01817099270C94680B60E080E390E0D7
:101770000E94320B80E0089561E0892B09F460E05B
:1017800088E290E00C94320BCF93DF93EC0181E080
:1017900080937A0284E090E00E942509BC016E5F8C
:1017A0007F4F84E090E00E94340B4EEF5FEF64E0E7
:1017B00070E08AE090E00E9435090E94FD08809365
:1017C0005F0280935E0290917A02D0935D02C09393
:1017D0005C02992399F080915E0290915F02909350
:1017E0005B0280935A0290935902809358021092A0
:1017F0007A0280915E02DF91CF91089590E0EFCF61
:10180000CF93DF93EC0181E080937A024FEF5FEF9B
:1018100064E070E08AE090E00E9435090E94FD08D3
:1018200080935F0280935E0290917A02992351F136
:1018300020915E0230915F0230935D0220935C0242
:10184000D0935B02C0935A02D0935F02C0935E02B2
:10185000D0935902C0935802C0915E028C1759F080
:101860004FEF5FEF64E070E08AE090E00E9435099E
:101870006C2F0E94120B10927A0280915E02DF910F
:10188000CF910895282F30E030935D0220935C02C1
:101890009E01332730935B0220935A02C0935E026D
:1018A0003093590220935802D7CFCF93DF93C82F9C
:1018B0008DEC0E9460090E948809809162029091DB
:1018C00063020E94000C89E090E00E9425090E94BA
:1018D000000C80917F02909180020E94000C84E0B5
:1018E000C89FE0011124CE0102960E94FD0880935A
:1018F0005F0290917A02992309F448C080915E02B8
:1019000090915F0290935D0280935C0280915F02F0
:101910009091600290935B0280935A0290935F02D1
:1019200080935E02909359028093580260915E0208
:1019300082E190E00E94120BC350D74F20917A02AF
:1019400080917F029091800290935D0280935C026F
:10195000222381F18881998190935B0280935A02BE
:101960009093800280937F02909359028093580253
:1019700060E08DE290E00E94320B60E08EE290E049
:101980000E94320B80E0DF91CF91089520915E029A
:1019900030E030935D0220935C02282F30E03093DA
:1019A0005B0220935A0280935E0230935902209387
:1019B0005802BCCF888190E0CFCF0F931F93CF9375
:1019C000DF93EC010E94D4018C0142E050E06AE216
:1019D00071E0CE010E94E700800F911FDF91CF914F
:1019E0001F910F9108951F920F920FB60F9211241D
:1019F0002F933F934F935F936F937F938F939F9317
:101A0000AF93BF93EF93FF938CE994E00E9465013D
:101A1000FF91EF91BF91AF919F918F917F916F91C6
:101A20005F914F913F912F910F900FBE0F901F909C
:101A300018951F920F920FB60F9211242F938F9328
:101A40009F93EF93FF93E091AC04F091AD048081FC
:101A5000E091B204F091B30482FD1BC090818091AB
:101A6000B5048F5F8F732091B604821741F0E09127
:101A7000B504F0E0E456FB4F958F8093B504FF91D9
:101A8000EF919F918F912F910F900FBE0F901F900C
:101A900018958081F4CF1F920F920FB60F921124E8
:101AA0002F933F938F939F93AF93BF9380914C015C
:101AB00090914D01A0914E01B0914F0130914B0199
:101AC00023E0230F2D3758F50196A11DB11D20935A
:101AD0004B0180934C0190934D01A0934E01B09324
:101AE0004F018091470190914801A0914901B09127
:101AF0004A010196A11DB11D8093470190934801B1
:101B0000A0934901B0934A01BF91AF919F918F91EA
:101B10003F912F910F900FBE0F901F90189526E8C0
:101B2000230F0296A11DB11DD2CFECE9F4E0138280
:101B3000128288EE93E0A0E0B0E084839583A683D0
:101B4000B78388E091E09183808385EC90E095876E
:101B5000848784EC90E09787868780EC90E0918B77
:101B6000808B81EC90E0938B828B82EC90E0958B64
:101B7000848B86EC90E0978B868B118E128E138E61
:101B8000148EE9E3F5E0138212828AE191E09183F9
:101B9000808315820895789484B5826084BD84B56D
:101BA000816084BD85B5826085BD85B5816085BD58
:101BB00080916E00816080936E0010928100809110
:101BC0008100826080938100809181008160809398
:101BD0008100809180008160809380008091B100BD
:101BE00084608093B1008091B00081608093B000E8
:101BF00080917A00846080937A0080917A0082607C
:101C000080937A0080917A00816080937A0080913D
:101C10007A00806880937A001092C100E091AC0451
:101C2000F091AD0482E08083E091A804F091A904D2
:101C30001082E091AA04F091AB048FEC80831092A3
:101C4000B404E091B004F091B10486E08083E091A7
:101C5000AE04F091AF04808180618083E091AE0496
:101C6000F091AF04808188608083E091AE04F091B0
:101C7000AF04808180688083E091AE04F091AF046E
:101C800080818F7D808362E371E08CE994E00E9423
:101C9000DD0C65E071E08CE994E00E94DD0C68EDFC
:101CA00070E08CE994E00E94D40102E07AE0F72E23
:101CB000E3E5EE2E00938402F092830210928102FB
:101CC0000E949002EB0161E0809183020E945F021A
:101CD00061E0809183020E94130260E08CE00E9428
:101CE0005F0261E08AE00E945F0261E08AE00E9498
:101CF000130261E08BE00E945F0261E08DE00E94D0
:101D00005F02ECBC1AE08FEF0E949C021150D9F7E1
:101D100060E0809183020E94130220E030E0A9017C
:101D200060E081E892E00E94CE02182F8130C9F075
:101D30000E9490026C1B7D0B613D774070F3109305
:101D4000820281E08093810281E892E00E94A102F8
:101D500041E050E06DE271E08CE994E00E94E70020
:101D6000A9CF20E030E0A90167E381E892E00E947A
:101D7000CE0220E030E0A90169E281E892E00E9411
:101D8000CE02182F882361F00E9490026C1B7D0BFD
:101D9000613D774030F31093820200938102D4CFEB
:101DA00081E892E00E94A10260EC70E08CE994E08E
:101DB0000E94D40181E00E941A0481110DC00E948A
:101DC0001A04811109C041E050E06DE271E08CE934
:101DD00094E00E94E700EECF68EB70E08CE994E0BD
:101DE0000E94DD0C65EF70E08CE994E00E94DD0C50
:101DF00060E070EF89E090E00E94340B60E08DE2DB
:101E000090E00E94320B60E884E090E00E94320B88
:101E100063E08FE291E00E94610760914305709159
:101E2000440590E080E00E94340BD0E0C0E0C13077
:101E30004FEFD40750F561E088E391E00E9461071D
:101E400060E870E080E591E00E942608C80FD91F85
:101E50000E94AA0662E482E291E00E946107AE015C
:101E60000D2E000C660B770B615F7F4F89E395E0C9
:101E70000E94C30540E850E060E571E089E395E029
:101E80000E94B6090E94AA06D2CF80E091E090930A
:101E9000800280937F02912C812CD12CC12C64E094
:101EA000A62EB12C30E5E32EF12C44244A94512C7B
:101EB0005AE1652E712C89E090E00E94250924E00A
:101EC000880F991F2A95E1F720917F0230918002B7
:101ED000820F931F0E94FD08282F30E030937E026E
:101EE00020937D02882311F40C94AE280E9460098F
:101EF000A0917C028A2F877080937B02A170A093AF
:101F00007A028695817080937902E0917D02F0914A
:101F10007E0291817281292F372F3093780220938E
:101F20007702B38170937502B09376024381548136
:101F3000509374024093730240917202442319F04B
:101F400041504093720240917102442319F0415074
:101F50004093710280917002882309F48FC0A90117
:101F600016E0569547951A95E1F7437040936F0236
:101F7000977090936E0203E0369527950A95E1F7E6
:101F8000277020936D024111B4C0963009F0B6C09D
:101F900024813581309374022093730224E030E071
:101FA0004111B8C030936C0220936B02692F70E02E
:101FB000433009F4B5C0C90101960E94530990E06D
:101FC0000E942509EC0160916E0270E080916B0225
:101FD00090916C0202960E945309209175023091F3
:101FE0007602829F8001839F100D11240C0F1D1F0C
:101FF00060916E0270E080916B0290916C020E9481
:102000005309C82FD0E080917202811186C060917F
:102010006E0270E080916B0290916C0203960E94B8
:102020005309A801BE0190E00E943509909369020E
:1020300080936802909367028093660230916D02EC
:10204000432F50E0440F551F20917A02222309F4B8
:1020500076C09A0130936502209364024091790220
:10206000442361F0309363022093620290936502EF
:10207000809364023093670220936602E0916102CC
:10208000E13308F03FC2F0E0E85BFF4E0C940F290B
:10209000A810FA106B115E116411F411A7134C16FD
:1020A0006816A616AB18331AEE1AB61F14204B206A
:1020B0007F204D2128221B235123742313243625EE
:1020C0008F2048254C255025622502264026612672
:1020D0008526A0263323A826B726BC26C427D027CA
:1020E000DD27F12720283A284128582864286C2821
:1020F0009E28423009F44CCF413029F0709373028E
:10210000B09374024BCF272F770F330B30937602A7
:102110002093750230E020E045CF80916A0281CFA4
:10212000660F771FAA2311F0CB0180CF892F8695E8
:102130008695860F972F911D8770992777CF232F2C
:1021400026952695240F352F311D2770332782CFF2
:1021500060917C02669567706093600200917702DF
:10216000002E000C110BC0917A02D0E070E08FE0DD
:1021700090E00E94530990E00E94FD088823A1F09E
:1021800091E0C927C09F9001C19F300DD09F300DB5
:10219000112480917F0290918002820F931F90936F
:1021A000800280937F02AEC16091600270E080E1A6
:1021B00090E00E94530990E00E94FD088111E0CF59
:1021C0006091600270E081E190E00E94530990E02C
:1021D0000E94FD08382E6091600270E082E190E07C
:1021E0000E94530990E00E94250991E03812C9CF5E
:1021F00090E0C7CF90917C0281E0492F487093FF17
:1022000080E080937A0290917B02292F30E0220FA8
:10221000331F442389F1C9010E94FD0880935F02A6
:1022200080935E0240917A02442379F180915E02AC
:1022300090915F0290935D0280935C02809177029F
:102240009091780290935B0280935A0290935F0280
:1022500080935E02909359028093580260915E02CF
:1022600090917B02292F30E0220F331F4423E9F0A5
:10227000C9010E94120B46C1892F86958695820F4F
:10228000932F911D87709927C7CF90E090935D029F
:1022900080935C0220917702822F90E090935B0202
:1022A00080935A0220935E02D5CF892F869586951A
:1022B000820F932F911D87709927DBCF80917B022E
:1022C00090E00E9425091CC180917B0290E00E9451
:1022D00025090C94301A81E080937A0210927902D9
:1022E00080917B0280936D0220916F0284E090E0E8
:1022F000222311F090E080E090936C0280936B02B7
:1023000060916E0270E0233008F08CC101960E944B
:10231000530990E00E942509EC0160916E0270E083
:1023200080916B0290916C0202960E945309209159
:10233000750230917602829F8001839F100D1124D7
:102340000C0F1D1F60916E0270E080916B029091E6
:102350006C020E945309C82FD0E080917202811153
:102360005EC160916E0270E080916B0290916C0290
:1023700003960E945309A801BE0190E00E9435090E
:10238000BC01709369026093680270936702609366
:10239000660290916D02492F50E0440F551F8091C5
:1023A0007A029A01811108C0292F26952695240FBB
:1023B000352F311D27703327309365022093640237
:1023C00080917902882361F0309363022093620246
:1023D00070936502609364023093670220936602F3
:1023E0008091570280936D0280916D02823008F0D7
:1023F00034C188E190E00E94FD0880935F029091D3
:102400007A0220916D02992309F40FC180915E0236
:1024100090915F0290935D0280935C0240915F0215
:102420005091600250935B0240935A02840F951FB3
:10243000019630E0220F331F821B930B90935F02B3
:1024400080935E02909359028093580260915E02DD
:1024500080916402909165020E94120BC1E0D0E06D
:10246000D0935B02C0935A020E94700B80917A0253
:1024700058E0859FC0011124079602C0CC0FDD1FD4
:102480008A95E2F720915C0230915D022F5F3F4F09
:1024900080916D02281B310981E090E0C217D307BB
:1024A00011F090E080E00E94680B80917A02E8E0F1
:1024B0008E9FC0011124079641E050E002C0440FF6
:1024C000551F8A95E2F720915C0230915D022F5FE3
:1024D0003F4F80916D02281B310981E090E0421747
:1024E000530711F090E080E00E94680B8091610238
:1024F000853019F480E10E94600980915E0290E0CD
:102500000E94000C90916F0241E050E0933011F472
:1025100050E040E0949F9001959F300D112491115F
:1025200005C081E090916E02963009F080E090E065
:10253000880F991F820F931F20917002289FE0013E
:10254000299FD00D112460917C0270E08CE090E016
:102550000E945309C80FD11D60917C0270E08DE08C
:1025600090E00E94530920917A0230E02F5F3F4FA4
:10257000E82FE29FC001E39F900D11248C0F9D1F57
:10258000C0917F02D0918002C80FD91FD0938002E2
:10259000C0937F028091520280FF8DCC83E0220F96
:1025A000331F8A95E1F721503109609158027091EB
:1025B000590202C0759567952A95E2F761708CE221
:1025C00090E00E94320B61E0809158029091590294
:1025D000892B09F060E08BE290E00E94320B609161
:1025E00058027091590277278BE090E00E945309BE
:1025F000682F89E290E00E94320B8091520281FDA7
:102600000E94700B8091520282FF4CCC90E080E0DF
:102610000E94BC0B90E080E00E94680B43CC80914C
:102620006A02A9CE660F771FACCE40915E02642F7E
:1026300070E070935D0260935C0290E090935B02A7
:1026400080935A0230E0220F331F821B930B0196B6
:10265000840F80935E0290E0F5CE863009F46EC060
:10266000833031F489E090E00E9425090E94000C3B
:1026700080916D0281FF23C090916F0221E030E0D4
:10268000933011F430E020E0929FA001939F500D11
:102690001124911105C021E080916E02863009F06D
:1026A00020E080917F02909180020296840F951F16
:1026B00030E0220F331F820F931F0E94000C809185
:1026C000640290916502029620916D0220FD0E94A5
:1026D000FD08809164029091650202960E94FD08B7
:1026E000682F70E089E090E00E94340B80916402D2
:1026F000909165020E94FD0880935E0290917A029B
:1027000020917F023091800230935D0220935C0221
:10271000992391F080915E0290915F0290935B0209
:1027200080935A029093800280937F029093590283
:10273000809358028AE9DFCE90E0F0CF8091680262
:10274000909169020E94FD0880935E02D6CE80912E
:102750006402909165029093670280936602E09113
:102760006D02E83008F0CECEF0E0E754FC4E0C9459
:102770000F29C11382120C1441149614FE14611512
:10278000E01580E20E94600920917F023091800272
:102790002F5F3F4F80917A02820F932F911D90936C
:1027A000800280937F0280916602909167020E946E
:1027B000FD0880935E0290917A029923E1F02091C6
:1027C0005E0230915F0230935D0220935C02409183
:1027D00073025091740250935B0240935A02242377
:1027E00035233093590220935802682F8091660256
:1027F000909167023ECD282F30E030935D02209308
:102800005C0220917302422F50E050935B02409390
:102810005A02282330E0E5CF0E94FD0880935F0232
:1028200090917A029923D9F080915E0290915F0293
:1028300090935D0280935C0280915F0290916002B0
:1028400090935B0280935A028095909590935F02DB
:1028500080935E0290935902809358023AC520916A
:102860005E0230E030935D0220935C02282F30E05E
:1028700030935B0220935A02809580935E0290E031
:10288000E9CF0E94FD0880935F0290917A0299231C
:10289000D9F180915E0290915F0290935D028093E6
:1028A0005C0280915F029091600290935B02809342
:1028B0005A0291958195910990935F0280935E02EF
:1028C000909359028093580260915E028091660253
:1028D000909167020E94120B10925D0210925C02AE
:1028E00088E20E94600981E090E040915802509196
:1028F000590220915C0230915D022417350708F0DF
:1029000074C20E94BC0BFECD20915E0230E0309379
:102910005D0220935C02282F30E030935B0220930D
:102920005A02819580935E0290E0CACF80917A022C
:10293000882391F180E10E946009C0916802D091E2
:102940006902C350D74F90E080E00E942509C89FDC
:10295000B001C99F700DD89F700D1124709359025A
:1029600060935802770F660B762F80917A0290E081
:1029700001960E94340B609158027091590290E0C8
:1029800080E00E94340B60E088E290E00E94320B0D
:10299000C6010E94680BB6CD80E10E946009C0911B
:1029A0006802D0916902C350D74FDD2790E080E0E4
:1029B0000E94FD08F82FFC9FC001FD9F900D11247F
:1029C000909359028093580280917A0290E060E0DF
:1029D00001960E94320B609158027091590290E06A
:1029E00080E00E94340B8091580290915902882710
:1029F0000E94BC0B082E000C990BCBCF80917A0261
:102A0000882381F180E10E946009C0916802D09121
:102A10006902C350D74F90E080E00E942509C89F0B
:102A2000B001C99F700DD89F700D11247093590289
:102A300060935802770F660B762F80917A0290E0B0
:102A400001960E94340B609158027091590290E0F7
:102A500080E00E94340B60E088E290E00E94320B3C
:102A6000C40197CF80E10E946009C0916802D091B3
:102A70006902C350D74F90E080E00E94FD088C02AD
:102A8000B00111247093590260935802770F660BBE
:102A9000762F80917A0290E001960E94320B60912D
:102AA00058027091590290E080E00E94340B8091AE
:102AB000580290915902082E881B910907FC9395A2
:102AC00097CF809168029091690220917A02222327
:102AD000E9F10E94FD0890E0909356028093550220
:102AE000892B09F4D5C080917A0290E001960E946A
:102AF000250990E080E00E942509EC019093630293
:102B00008093620260915502709156020E94C5281E
:102B100070936C0260936B0290E080E00E94340B33
:102B20002091550230915602AC01429FC001439F53
:102B3000900D529F900D1124BE01681B790B80915E
:102B40007A0290E001960E94340BDCCC0E94FD08D2
:102B500090E09093560280935502892B09F498C017
:102B600080917A0290E001960E94FD0890E080E05A
:102B70000E942509C82F809362029093630260919E
:102B80005502709156020E94C52870936C026093A2
:102B90006B02CB0199276817790709F079C090E09B
:102BA00080E00E94120B909155026C2F899F601952
:102BB000112480917A0290E001960E94320BA2CCFF
:102BC000809168029091690220917A022223A1F1FA
:102BD0000E94FD0890E09093560280935502892B45
:102BE00009F456C080917A0290E001960E9425096E
:102BF00090E080E00E942509EC01909363028093AD
:102C0000620260915502709156020E94D928709319
:102C10006C0260936B0290E080E00E94340B209184
:102C2000550230915602FC01E29FC001E39F900DD6
:102C3000F29F900D112480CF0E94FD08082E000CF9
:102C4000990B9093560280935502892B09F180913C
:102C50007A0290E001960E94FD0890E080E00E94D8
:102C60002509C82F809362029093630260915502F8
:102C7000709156020E94D92870936C0260936B0287
:102C8000262F062E000C330B6217730709F487CF2B
:102C900080E00E94550C36CC1092690210926802B6
:102CA00080917702909178029093740280937302DE
:102CB00083E080936F028091570280936D02809130
:102CC0007F029091800201979093800280937F020F
:102CD00080916802909169029093670280936602E6
:102CE00081E090917A02911180E090917902892B94
:102CF000809379026091730270917402882319F0B5
:102D0000062E000C770B8DE090E00E94340B709241
:102D10006502609264028091790222E030E08823AB
:102D200011F021E030E080917F0290918002820FCB
:102D3000931F9093800280937F0280916D02809315
:102D40005702880F880F880F0E946009E091570290
:102D5000E93008F0D7CBF0E0EC54F94E80916402F2
:102D6000909165020C940F29BD160B173617A0170A
:102D700013183E18FA207D1837190E94FD08809319
:102D80005F0290917A02992399F180915E0290916D
:102D90005F0290935D0280935C0220915F0230910C
:102DA000600230935B0220935A02820F931F90932C
:102DB0005F0280935E029093590280935802609163
:102DC0005E0280916602909167020E94120B81E080
:102DD00090E0409158025091590220915C0230914C
:102DE0005D024217530708F48CCD90E080E089CD56
:102DF00090915E02292F30E030935D0220935C02B7
:102E0000282F30E030935B0220935A02890F809381
:102E10005E0290E0D0CF0E94FD0880935F02909107
:102E20007A02992399F080915E0290915F029093CB
:102E30005D0280935C0220915F02309160023093CA
:102E40005B0220935A02822B932B00CD90915E025D
:102E5000292F30E030935D0220935C02282F30E070
:102E600030935B0220935A02892B07CD0E94FD0804
:102E700080935F0280917A02882309F446C0809192
:102E80005E0290915F0290935D0280935C0288E203
:102E900090E00E94FD0820915F0230916002309323
:102EA0005B0220935A0240915E0250915F02240F10
:102EB000351F820F932F911D90935F0280935E02C6
:102EC000909359028093580260915E02809166024D
:102ED000909167020E94120B88E290E00E94FD0828
:102EE00020915C0230915D0240915802509159024C
:102EF000882321F04217530709F493C081E0421759
:102F000053070CF468C080E066C080915E0290E0D8
:102F100090935D0280935C0288E290E00E94FD083D
:102F200090915F02292F30E030935B0220935A0288
:102F300020915E02920F890F80935E0290E0C0CFD5
:102F40000E94FD0880935F0280917A02882309F431
:102F500048C080915E0290915F0290935D028093E1
:102F60005C0288E290E00E94FD0840915F0250916F
:102F7000600250935B0240935A0220915E023091AE
:102F80005F02241B350B281B310930935F0220930D
:102F90005E02309359022093580260915E02809144
:102FA0006602909167020E94120B88E290E00E94F4
:102FB000FD0820915C0230915D02409158025091D1
:102FC0005902882319F04217530759F181E0241759
:102FD00035070CF098CF90E00E94BC0B0E94700B5C
:102FE00091CA80915E0290E090935D0280935C02B2
:102FF00088E290E00E94FD0820915F02422F50E09D
:1030000050935B0240935A0290915E02921B981B70
:10301000892F90935E0290E090935902809358021A
:10302000BCCF81E0D8CF0E94FD0880935F029091D1
:103030007A02992399F080915E0290915F029093B9
:103040005D0280935C0220915F02309160023093B8
:103050005B0220935A0282239323F8CB90915E0265
:10306000292F30E030935D0220935C02282F30E05E
:1030700030935B0220935A028923FFCB0E94FD0804
:10308000982F80935F0280917A02882319F18091B2
:103090005E0290915F0290935D0280935C022091AA
:1030A0005F023091600230935B0220935A02821BD0
:1030B000930B90935F0280935E02909359028093EA
:1030C000580260915E0280916602909167020E94B0
:1030D000120B09CC80915E02282F30E030935D0204
:1030E00020935C02292F30E030935B0220935A0238
:1030F000891B80935E0290E0E0CF0E94FD088093E0
:103100005F0290917A02992399F080915E029091EA
:103110005F0290935D0280935C0220915F02309188
:10312000600230935B0220935A02821B930BC5CF3F
:1031300020915E0230E030935D0220935C0290E0CB
:1031400090935B0280935A02281B390B30935902EB
:1031500020935802B6CF80917A028111BDC081E0E0
:1031600080937A0280916D02885F80936D02209136
:103170006F0284E090E0222311F090E080E09093D1
:103180006C0280936B0260916E0270E0233008F055
:103190008AC001960E94530990E00E942509EC0123
:1031A00060916E0270E080916B0290916C020296C9
:1031B0000E9453092091750230917602829F80010E
:1031C000839F100D11240C0F1D1F60916E0270E083
:1031D00080916B0290916C020E945309C82FD0E03D
:1031E0008091720281115CC060916E0270E08091EA
:1031F0006B0290916C0203960E945309A801BE01D4
:1032000090E00E943509BC017093690260936802E6
:10321000709367026093660290916D02492F50E0AF
:10322000440F551F80917A029A01811108C0292FFD
:1032300026952695240F352F311D2770332730937F
:1032400065022093640280917902882361F03093B3
:10325000630220936202709365026093640230936C
:1032600067022093660280916402909165020E9439
:10327000FD0880935F0290917A029923B9F08091C2
:103280005E0290915F0290935D0280935C02809158
:103290005F029091600290935B0280935A02D6CABB
:1032A00080916A02ABCF660F771FAECF20915E028E
:1032B00030E030935D0220935C02282F30E03093A1
:1032C0005B0220935A0280935E023093590220934E
:1032D000580260915E028ACA809179028111B9C058
:1032E00081E0809372028CE080936A0220916F02E9
:1032F00084E090E0222311F090E080E090936C0253
:1033000080936B0260916E0270E0233008F08EC0F3
:1033100001960E94530990E00E942509EC016091FA
:103320006E0270E080916B0290916C0202960E9496
:1033300053092091750230917602829F8001839F0C
:10334000100D11240C0F1D1F60916E0270E0809112
:103350006B0290916C020E945309C82FD0E08091BB
:103360007202811160C060916E0270E080916B0208
:1033700090916C0203960E945309A801BE0190E04F
:103380000E943509BC0170936902609368027093D2
:1033900067026093660290916D02492F50E0440FDE
:1033A000551F80917A029A01811108C0292F269514
:1033B0002695240F352F311D277033273093650252
:1033C0002093640280917902882361F03093630234
:1033D00020936202709365026093640230936702E7
:1033E0002093660280916402909165020E94FD081C
:1033F00080935E0290917A029923D9F080915E02C7
:1034000090915F0290935D0280935C0280916802CC
:103410009091690290935B0280935A0290935F02AD
:1034200080935E0256C680916A02A7CF660F771F0F
:10343000AACF90E090935D0280935C022091680295
:10344000822F90E090935B0280935A0220935E0259
:1034500040C680916802909169020E94FD0890E048
:103460000E94C40B4FC810926D0210926F0286E04A
:1034700080936E0280917702909178029093760209
:1034800080937502B0926C02A0926B0266E070E0CD
:1034900085E090E00E94530990E00E942509EC012C
:1034A00060916E0270E080916B0290916C020296C6
:1034B0000E9453092091750230917602829F80010B
:1034C000839F100D11240C0F1D1F60916E0270E080
:1034D00080916B0290916C020E945309C82FD0E03A
:1034E0008091720281114FC060916E0270E08091F4
:1034F0006B0290916C0203960E945309A801BE01D1
:1035000090E00E943509AC019093690280936802B3
:10351000909367028093660280917A0290916D0287
:103520008823A1F1292F30E0220F331F3093650249
:103530002093640280917902882361F030936302C2
:1035400020936202509365024093640230936702B5
:103550002093660280916602909167020E94FD08A6
:1035600080935F0290917A029923E9F080915E0244
:1035700090915F0290935D0280935C0280915F0264
:103580009091600247CF80916A02B8CF692F70E0B6
:10359000660F771F292F26952695260F372F311D69
:1035A00027703327C3CF20915E0230E030935D0255
:1035B00020935C02282F30E030935B0220935A0264
:1035C00080935E02309359022093580260915E020C
:1035D00080916402909165020C9439118091680287
:1035E000909169020E94FD0880935E0220917A0208
:1035F00090E0222321F080915E0290915F02F8E03A
:103600002F9F90011124295F3F4F02C09595879508
:103610002A95E2F78170992790936C0280936B0250
:1036200080915702882339F180917F029091800226
:1036300001969093800280937F0280917502082EFC
:10364000000C990B90936302809362020097E9F457
:10365000E0916D02E83010F00C948212F0E0ED5C25
:10366000F44E0C940F294B1CCA1C651D271EE41E2A
:10367000111F8212231F809179028111C2C081E043
:1036800090E0909363028093620220916D02243057
:10369000C0F560917A0270E06F5F7F4FE3E0660FE4
:1036A000771FEA95E1F72695620F711D0E94C528E4
:1036B0009093630280936202809168029091690204
:1036C0000E94FD0880935E0290917A02992309F48A
:1036D0009FC080916B0290916C0290935D028093E9
:1036E0005C0280915E0290915F0290935B028093F6
:1036F0005A0290936C0280936B02909359028093CC
:10370000580280916D0280FF08C0809168029091FC
:1037100069020E94FD0880935E0280917A028823EC
:1037200009F480C080915E0290915F0290935D02E7
:1037300080935C02209162023091630220935A02CE
:1037400030935B0202C0969587952A95E2F7909395
:103750005F0280935E0290935902809358026091B9
:103760005E0280916802909169020E94120B809122
:103770006D02843018F080E10E94600980916D0232
:10378000853008F467C020916202309163022150B5
:10379000310980915C0290915D0202C096958795F7
:1037A0002A95E2F7817099270E94BC0B80917A02DA
:1037B000882309F458C080915E0290915F02909333
:1037C0005D0280935C02209162023091630220933B
:1037D0005A0230935B0202C0880F991F2A95E2F7C4
:1037E00090935F0280935E029093590280935802F7
:1037F00060915E0280916802909169020E94120BB2
:1038000027CF82E090E00E94FD088F7190E01ACFF0
:1038100020916B0230916C0230935D0220935C0228
:1038200090E063CF80915E0290E090935D02809380
:103830005C0220916202422F50E050935B02409361
:103840005A0202C0959587952A95E2F780935E0209
:10385000992781CF80916802909169020E94FD08AA
:1038600080935E02A3CF80915E0290E090935D0210
:1038700080935C0220916202422F50E050935B02E1
:1038800040935A0202C0880F991F2A95E2F780934D
:103890005E029927A9CF80916802909169020E94E7
:1038A000FD0880935E0290917A02409162025091ED
:1038B0006302992309F44FC020915E0230915F02A8
:1038C00030935D0220935C02892F90E0019673E0B3
:1038D000880F991F7A95E1F7841B950B40916B0235
:1038E00050916C0202C0569547958A95E2F7509325
:1038F0005B0240935A02240F351F30935F022093DE
:103900005E02309359022093580260915E028091CA
:103910006802909169020E94120B10917A02C09184
:103920005802D0915902CE01817099270E94BC0B98
:1039300048E0149F90011124295F3F4F02C0D595A4
:10394000C7952A95E2F7C170DD27082E000C990B68
:103950008C279D271EC8282F30E030935D022093CE
:103960005C0220916B0230E068E070E0641B750B34
:1039700002C0359527956A95E2F730935B02209354
:103980005A02820F80935E0290E0909359028093D6
:103990005802BBCF81E090E00090620202C0880F25
:1039A000991F0A94E2F7019720916B0230916C0203
:1039B0008223932390936C0280936B028091680220
:1039C000909169020E94FD0880935E0290917A02B4
:1039D0004091620250916302992309F457C02091EB
:1039E0005E0230915F0230935D0220935C02892F6A
:1039F00090E0019663E0880F991F6A95E1F7841BB8
:103A0000950B40916B0250916C0202C0440F551F00
:103A10008A95E2F750935B0240935A02240F351FB8
:103A200030935F0220935E02309359022093580234
:103A300060915E0280916802909169020E94120B6F
:103A4000C0917A0280915802909159028C01000F26
:103A5000111F58E0C59FE001112427960C2E02C0CB
:103A6000959587950A94E2F7817099270E94BC0B7F
:103A700002C015950795CA95E2F701701127082E27
:103A8000000C990B802791270C94C914282F30E043
:103A900030935D0220935C0220916B0230E068E07D
:103AA00070E0641B750B02C0220F331F6A95E2F7AA
:103AB00030935B0220935A02820F80935E0290E063
:103AC0009093590280935802B3CF809168029091ED
:103AD00069020E94FD0880935E0290917A02992308
:103AE00009F479C080915E0290915F0290935D022B
:103AF00080935C0288E290E00E94FD08409162029F
:103B00005091630220917A0230E02F5F3F4FD3E063
:103B1000220F331FDA95E1F7241B350B2F5F3F4F40
:103B200060916B0270916C02FB0102C0F695E79503
:103B30002A95E2F79F01F0935B02E0935A026091AD
:103B40005E0270915F02260F371F90E041505109CD
:103B500002C0880F991F4A95E2F7820F931F909336
:103B60005F0280935E0290935902809358026091A5
:103B70005E0280916802909169020E94120B00918E
:103B80007A02C0915802D091590210E00F5F1F4F86
:103B9000B3E0000F111FBA95E1F780916202909196
:103BA00063029801281B390B81E090E002C0880F66
:103BB000991F2A95E2F720916B0230916C028223C3
:103BC00093230E94BC0B0150110902C0D595C795E3
:103BD0000A95E2F7B8CE90E090935D0280935C0284
:103BE00088E290E00E94FD08609162027091630299
:103BF00040916B0250E020917A0230E02F5F3F4FFE
:103C0000C3E0220F331FCA95E1F7261B370B2F5F46
:103C10003F4F02C0559547952A95E2F750935B02B6
:103C200040935A0290E06150710902C0880F991FB9
:103C30006A95E2F7480F591F80915E02480F409342
:103C40005E0250E0509359024093580290CF809109
:103C50006802909169020E94FD0880935E02909133
:103C60007A02992309F479C080915E0290915F02F3
:103C700090935D0280935C0288E290E00E94FD08D0
:103C800020917A0230E02F5F3F4FA3E0220F331FD5
:103C9000AA95E1F74091620250916302241B350B13
:103CA000B9016F5F7F4F40916B0250916C0202C06F
:103CB000440F551F6A95E2F750935B0240935A02F6
:103CC00060915E0270915F02460F571F90E002C044
:103CD000880F991F2A95E2F7840F951F90935F0232
:103CE00080935E02909359028093580260915E0225
:103CF00080916802909169020E94120B20916202E9
:103D0000309163022150310981E090E002C0880FB8
:103D1000991F2A95E2F720916B0230916C02822361
:103D200093230E94BC0B20917A02809158029091BB
:103D30005902F8E02F9F90011124295F3F4FAC01F9
:103D4000440F551F8427952702C0959587952A957E
:103D5000E2F7817099270C94C91490E090935D026A
:103D600080935C0288E290E00E94FD0820917A0234
:103D700030E02F5F3F4FF3E0220F331FFA95E1F75A
:103D80004091620250916302241B350B40916B02FB
:103D900050E0B9016F5F7F4F02C0440F551F6A9515
:103DA000E2F750935B0240935A0290E002C0880F02
:103DB000991F2A95E2F7840F951F90915E02890F53
:103DC00080935E0290E08ECF20917A0248E0249F9B
:103DD00090011124295F3F4FC0915802D0915902A0
:103DE000022E02C0D595C7950A94E2F7C170DD276F
:103DF00040916202509163024150510980915C02EE
:103E000090915D0202C0880F991F4A95E2F702C0A7
:103E1000969587952A95E2F7817099270E94BC0BA9
:103E200094CD20917A0258E0259F90011124295FBA
:103E30003F4F80915C0290915D0202C096958795FC
:103E40002A95E2F786CF80917A0290E0019673E09E
:103E5000880F991F7A95E1F72091620230916302F1
:103E60002817390730F080916B0290916C020E9404
:103E7000BC0B90E080E00E94680B809168029091FA
:103E800069020E94FD0880935E0240917A024423F9
:103E900009F446C020915E0230915F0230935D02CA
:103EA00020935C0250E04F5F5F4F63E0440F551F6B
:103EB0006A95E1F781E090E002C0880F991F4A956A
:103EC000E2F701970090620202C0959587950A94E7
:103ED000E2F78095909560916B0270916C02869FDD
:103EE000A001879F500D969F500D112450936C0296
:103EF00040936B0250935B0240935A02240F351F8C
:103F000030935F0220935E0230935902209358024F
:103F100060915E0280916802909169020C9439115F
:103F2000282F30E030935D0220935C0292010090D4
:103F3000620202C0359527950A94E2F720953095E4
:103F400090916B02929F902D112490936B02292FD8
:103F500030E030935B0220935A02890F80935E0217
:103F600090E09093590280935802D2CF81E090E084
:103F70000E94250980935E02E82FE150FF0BBF01EC
:103F800081E090E00E94340B80915E028150990B99
:103F9000909363028093620280917B02813029F1C9
:103FA00078F0833049F1609177024091620250913C
:103FB000630264039001659F300D11240C94C910B5
:103FC0008BE290E00E94FD0821E030E0882311F0B0
:103FD00030E020E08091620290916302822393237B
:103FE0009093630280936202DECF8BE290E00E94A6
:103FF000FD08282F30E0EECF81E090E00E942509F7
:1040000080935E029927BC016F5F7F4F81E090E053
:104010000E94340B80915E02811103C082E090E027
:10402000DFCF81E090E0DCCF2091790280917F02A8
:10403000909180020396821B910990938002809355
:104040007F0230917A0231110EC0222309F11092C1
:10405000800210927F02609173027091740289E075
:1040600090E00E94340B2091770230917802809189
:104070007902882311F40C94C91080917A02882364
:1040800011F40C94C910022E000C330B0C94C910BF
:104090000E94000CE8CF80916602909167020E9416
:1040A000FD0880935F0290917A029923B9F0809184
:1040B0005E0290915F0290935D0280935C0220917A
:1040C0005F023091600230935B0220935A02822398
:1040D0009323909359028093580278CA90915E027C
:1040E000292F30E030935D0220935C02282F30E0CE
:1040F00030935B0220935A02892390E0EACF81E05B
:1041000080937A02109267021092660280917B027D
:1041100090E0880F991F90936502809364028091CC
:10412000640290916502209166023091670228171F
:10413000390711F40C9482120E94FD0880935F02EB
:1041400090917A02992309F471C080915E02909156
:104150005F0290935D0280935C0220915F02309138
:10416000600230935B0220935A0282279327909338
:104170005F0280935E02909359028093580260918F
:104180005E0280916602909167020E94120B8091FC
:104190006602909167020E94FD0880935F029091F1
:1041A0007A02992309F455C080915E0290915F02D2
:1041B00090935D0280935C0220915F0230916002D7
:1041C00030935B0220935A028227932790935F02D9
:1041D00080935E02909359028093580260915E0230
:1041E00080916402909165020E94120B809164029A
:1041F000909165020E94FD0880935F0290917A027F
:104200009923D1F180915E0290915F0290935D02BB
:1042100080935C0220915F023091600230935B02D8
:1042200020935A02822793270C94261490915E02C1
:10423000292F30E030935D0220935C02282F30E07C
:1042400030935B0220935A02892780935E0290E0AC
:1042500092CF90915E02292F30E030935D0220933F
:104260005C02282F30E030935B0220935A028927AA
:1042700080935E0290E0AECF90915E02292F30E0F5
:1042800030935D0220935C02282F30E030935B0274
:1042900020935A0289270C943D148091720288233E
:1042A00009F4AAC080916A0290E090936C02809316
:1042B0006B0280917102882309F4A1C081E090E033
:1042C0000E942509909363028093620280916202AA
:1042D00090916302892B09F4AFC08091570280FD51
:1042E00091C050E040E066E070E080916B029091F8
:1042F0006C020E9435090E94FD0880935F02909134
:104300007A02992309F481C080915E0290915F0244
:1043100090935D0280935C0280915F0290916002B5
:1043200090935B0280935A0290935F0280935E02A7
:104330009093590280935802C0915E028091570277
:10434000823008F076C050E040E067E070E088E03E
:1043500090E00E9435096C2F0E94120B8091570249
:1043600080FD20C086E090E00E942509EC018FE2EC
:1043700090E00E94FD0890E0880F991F019720911E
:104380007A0230E02F5F3F4F829FA001839F500D44
:10439000929F500D1124BE01641B750B86E090E0C6
:1043A0000E94340B8091570281FD20C087E090E08D
:1043B0000E942509EC018FE290E00E94FD0890E048
:1043C000880F991F019720917A0230E02F5F3F4FAD
:1043D000829FA001839F500D929F500D1124BE011A
:1043E000641B750B87E090E00E94340B80916202A1
:1043F00090916302019766CF8BE090E056CF81E009
:1044000090E060CF90E080E076CF20915E0230E0D7
:1044100030935D0220935C02282F30E030935B02E2
:1044200020935A0280935E023093590220935802DF
:1044300083CF90E080E08FCF80917102882311F4C8
:104440000C94821270E060E081E090E00C94A3157F
:1044500080917202882391F080916A0290E090939B
:104460006C0280936B028091710281110AC081E01D
:1044700090E090936302809362020FC08BE090E023
:10448000EECF81E090E00E94250990936302809333
:104490006202892B11F40C94821280916202909135
:1044A0006302892B09F4BFC050E040E067E070E090
:1044B00088E090E00E9435090E94FD0880935F0229
:1044C00090917A02C0915E02992309F497C080917D
:1044D0005E0290915F0290935D0280935C02209156
:1044E0005F023091600230935B0220935A02821B7C
:1044F000930B909359028093580280915702811137
:104500008FC050E040E066E070E080916B029091D7
:104510006C020E9435096C2F0E94120B8091570289
:10452000811120C086E090E00E942509EC018FE215
:1045300090E00E94FD0890E0880F991F019720915C
:104540007A0230E02F5F3F4F829FA001839F500D82
:10455000929F500D1124BE01641B750B86E090E004
:104560000E94340B81E090E00E94250980935E0256
:10457000282F2150330BB90181E090E00E94340BC9
:1045800087E090E00E942509EC018FE290E00E9414
:10459000FD0890E0880F991F019720917A0230E082
:1045A0002F5F3F4F829FA001839F500D929F500D20
:1045B0001124BE01641B750B87E090E00E94340B50
:1045C00080917102882309F4DAC580915E028130FE
:1045D00081F081E090E02091580230915902232B24
:1045E00011F090E080E0209154022817190609F498
:1045F00054CF10926302109262024FCF2C2F30E002
:1046000030935D0220935C0290E090935B02809374
:104610005A02281B390B30935902209358026DCF50
:1046200090E080E078CF83E090E090935302809315
:1046300052020C94731480917A02809379028091D3
:104640007F02909180020E94C40B809157028823C0
:1046500031F089E090E00E9425090E94C40B80910E
:10466000570281FF0BC080916202909163020E9409
:10467000C40B90E00E94490B0C9482128091790245
:1046800081110C94821284E090E00E9425096091CF
:10469000770270917802680F791F84E090E00C94A3
:1046A000A31580916402909165020E94FD08809399
:1046B0005E0290917A02992371F080915E0290914E
:1046C0005F0290935D0280935C02809173029091EF
:1046D00074020C940A1A90E090935D0280935C023D
:1046E000209173020C94201A10927202809192020F
:1046F0008150809392028093940280912C0699E0DD
:10470000892780932C06809157028823D9F182E073
:1047100090E00E94250990936302809362028036A4
:104720009105B1F51092B60290E080E00E94FD087C
:1047300080935E0290917A0220916202309163022E
:10474000992309F45EC080915E0290915F0290937C
:104750005D0280935C022E5A3D4FF9018081918168
:1047600090935B0280935A0290935F0280935E0263
:10477000909359028093580260915E0290E080E02D
:104780000C94DD1580917702909178029927C3CF20
:10479000853D934049F68091260690E09595879552
:1047A000079711F68EE994E00E94FD08182F8DE915
:1047B00094E00E94FD08C82FD0E040E5149FC00D92
:1047C000D11D11248DEA94E00E94FD08C80FD11D6F
:1047D00080912606282F217080FF10C08FEF90E077
:1047E000C823D92380E0211101C088E002C0D695FA
:1047F000C7958A95E2F7C093270696CF80E09FEF92
:10480000EFCF90E090935D0280935C022E5A3D4F73
:10481000F9012081822F90E090935B0280935A02ED
:1048200020935E02A5CF80915702882309F400C12E
:1048300082E090E00E9425099093630280936202D7
:1048400090E080E00E94FD0880935E0290917A02E1
:104850002091620230916302F901EE5AFD4F9923D3
:1048600009F4ECC08081918190935D0280935C0299
:1048700080915E0290915F0290935B0280935A0256
:104880009183808390935902809358022136310599
:1048900069F41092510290E080E00E94FD08982F88
:1048A000937080915002892B809350028091620214
:1048B000909163028D7F80349105D9F480919502A7
:1048C0008670B9F090E080E00E94FD0820916202BD
:1048D000309163029091510241E0942790935102EC
:1048E00027593B4F682FA901491B5109CA010E9452
:1048F000120B8091620290916302853D9340A1F476
:104900008091260690E095958795069769F490E04A
:1049100080E00E94FD08682F8091260680FDA0C0DF
:104920008EEA94E00E94120B8091620290916302E1
:10493000853D934009F058C08091260690E09595FA
:104940008795079709F050C08EE994E00E94FD0812
:10495000C82F8DE994E00E94FD08082F10E0F0E5D3
:10496000CF9F000D111D11248DEA94E00E94FD08D7
:10497000080F111D8091260680FF75C080E09FEF13
:104980000823192390E080E00E94FD08C82FD0E0A2
:1049900080912606312C80FD02C0A8E03A2E8DEAD7
:1049A00094E00E94FD0802C0CC0FDD1F3A94E2F7AC
:1049B000C81BD109CE01800F911F90936C02809388
:1049C0006B02B7010E94C528682F8DE994E00E9410
:1049D000120B80916B0290916C02B7010E94C52866
:1049E0008EE994E00E94120B809162029091630222
:1049F000853B934041F480910606813021F490E09C
:104A000080E00E94FD088091620290916302853BE4
:104A1000934011F00C94821280910606863011F0BA
:104A20000C94821290E080E00E94FD080C948212A7
:104A300080917702909178029927FECE408150E0D4
:104A400050935D0240935C02482F50E050935B020C
:104A500040935A028083509359024093580216CFD4
:104A60008DEA94E05FCF8FEF90E08ACF82E0809371
:104A7000710280917A02809354028091720288239D
:104A800011F40C9482128F5F809372020C94821244
:104A9000809157020C946011809157020C9466111A
:104AA00082E0809372028091570280936A02809123
:104AB0007102882311F40C9482128F5F809371022B
:104AC0000C94821210927A028091570290E088230F
:104AD00009F492C080E00E94FD0880935E0290E09D
:104AE00080E00E94FD08282F30E030936C02209374
:104AF0006B028F7061E08A3040F48AE290E00E949D
:104B0000FD0861E0811101C060E08AE290E00E944E
:104B1000320B60915E0290E080E00E94320B90E0E8
:104B200080E00E94FD0880935E0280916B0291E01C
:104B30008A3940F488E290E00E94FD0891E08111FA
:104B400001C090E0892F90E00E94BC0B882351F0B7
:104B500080915E02805680935E0290E090935902AD
:104B60008093580260915E0290E080E00E94320BD8
:104B700090E080E00E94FD08282F30E030936C0226
:104B800020936B028F7061E08A3040F48AE290E0FB
:104B90000E94FD0861E0811101C060E08AE290E0BE
:104BA0000E94320B60915E0290E080E00E94320B26
:104BB00090E080E00E94FD0880935E0290E080E03B
:104BC0000E94FD08807F91E0813940F488E290E006
:104BD0000E94FD0891E0811101C090E0892F90E0D2
:104BE0000E94BC0B882309F4C7CD80915E02805AD5
:104BF00080935E0290E0BCCD80E00E94FD0880932F
:104C00005E02B6CF90E080E00E94250980935E02AC
:104C100090E080E00E94FD088F7091E08A3040F4BF
:104C20008AE290E00E94FD0891E0811101C090E0CD
:104C3000892F90E00E94BC0B61E0811101C060E00F
:104C40008AE290E00E94320B60915E0270E090E098
:104C500080E00E94340B90E080E00E94FD08682F05
:104C60006F7060935F0290E080E00E94320B809151
:104C70005E0290E090935902809358020C94821245
:104C800090E080E00E94FD0880935E0220917A020D
:104C900090E0222321F080915E0290915F0248E033
:104CA000249F90011124295F3F4F02C0959587955D
:104CB0002A95E2F78170682F619581E090E00C946D
:104CC000DD1590E080E00E94250980935E0220912E
:104CD0007A029927222321F080915E0290915F024F
:104CE00058E0259F90011124295F3F4F02C0959500
:104CF00087952A95E2F78170992766277727681BA1
:104D0000790B82E090E00C94A31589E090E00E947A
:104D100025090E94000C80917F02909180020596E7
:104D20000E94000C609173027091740289E090E01F
:104D30000E94340B80917702909178020C94CF10EE
:104D40000E94880980916202909163020C94801203
:104D50000E948809C0916202D0916302CC2781E051
:104D600090E00E94FD088C0F9D2F911D83CC0E9426
:104D7000880960916202A1CF81E0809379028093DB
:104D80007A0220916F0284E090E0222311F090E0FB
:104D900080E090936C0280936B0260916E0270E0F1
:104DA000233008F0C6C001960E94530990E00E948B
:104DB0002509EC0160916E0270E080916B02909188
:104DC0006C0202960E94530920917502309176027E
:104DD000829F8001839F100D11240C0F1D1F609175
:104DE0006E0270E080916B0290916C020E945309F8
:104DF000C82FD0E080917202811198C060916E023C
:104E000070E080916B0290916C0203960E945309AE
:104E1000A801BE0190E00E943509BC0170936902AF
:104E200060936802709367026093660290916D02CE
:104E3000492F50E0440F551F80917A029A01811149
:104E400008C0292F26952695240F352F311D277050
:104E5000332730936502209364028091790288237E
:104E600061F0309363022093620270936502609355
:104E700064023093670220936602809164029091ED
:104E800065020E94FD0880935F0290917A02992347
:104E900009F452C080915E0290915F0290935D028E
:104EA00080935C0280915F029091600290935B021C
:104EB00080935A0290935F0280935E02909359020E
:104EC0008093580260915E02809166029091670221
:104ED0000E94120B809168029091690202960E94D2
:104EE000FD0880935F0290917A029923C9F1809125
:104EF0005E0290915F0290935D0280935C028091CC
:104F00005F029091600290935B0280935A029093AB
:104F10005F0280935E0290935902809358028091C1
:104F2000570260915E0290E00C94391180916A0200
:104F30006FCF660F771F72CF20915E0230E0309303
:104F40005D0220935C02282F30E030935B022093B7
:104F50005A0280935E023093590220935802B2CFD6
:104F600020915E0230E030935D0220935C02282F96
:104F700030E030935B0220935A0280935E023093BC
:104F8000590220935802CBCF80917F0290918002EA
:104F900001969093800280937F0283E00C944916DF
:104FA00080917F029091800202969093800280937C
:104FB0007F02809177020C94491680917F02909134
:104FC000800201969093800280937F0280E390E0BC
:104FD0000E94FD08882311F40C94821284E00C9442
:104FE00049168091770290917802992790937802E0
:104FF00080937702892B11F40C94481690E080E09E
:105000000E94FD0890E060917702709178020E9402
:10501000C52881E090E00E94320B90E080E00E9481
:10502000FD0890E060917702709178020E94C52897
:1050300080935E028093580290935902682F9ECB12
:1050400010927A0290E080E00E94FD08C82F81E073
:1050500090E00E94FD0890917702899FC00D112475
:105060006C2F70E0709359026093580290E080E0DA
:105070000C94A31588E290E00E94FD08682F6195CA
:105080007DCB90E080E00E94FD08482F50E08091A9
:105090007202882351F080916A0290E063E070E030
:1050A0000E9435090E94FD08C9CF8BE090E0F6CF41
:1050B00088E290E00E94FD0861E0682760935E024C
:1050C00088E290E00C94DD1580915702682F6170A2
:1050D000869590E00C94DD1590E080E00E94FD083C
:1050E00080935E0290917A029923B9F020915E023A
:1050F00030915F0230935D0220935C024091770211
:105100005091780250935B0240935A022423352336
:10511000309359022093580291CF282F30E03093DA
:105120005D0220935C0220917702422F50E0509361
:105130005B0240935A02282330E0EACF8091770245
:1051400081110C94821290E080E00E94FD08682F8B
:105150008CE994E00E9487010C94821265EE70E065
:105160008CE994E00E94DD0CC0E0D0E02097F1F3E0
:105170000E9451018823D1F30E940000F7CF809153
:10518000620290916302019774C9AA1BBB1B51E193
:1051900007C0AA1FBB1FA617B70710F0A61BB70BA7
:1051A000881F991F5A95A9F780959095BC01CD014C
:1051B000089597FB072E16F4009407D077FD09D0C9
:1051C0000E94C52807FC05D03EF4909581959F4F1D
:1051D0000895709561957F4F0895A1E21A2EAA1B3C
:1051E000BB1BFD010DC0AA1FBB1FEE1FFF1FA21797
:1051F000B307E407F50720F0A21BB30BE40BF50B94
:10520000661F771F881F991F1A9469F7609570951C
:10521000809590959B01AC01BD01CF010895EE0FE3
:10522000FF1F0590F491E02D0994A29FB001B39F58
:10523000C001A39F700D811D1124911DB29F700D9F
:10524000811D1124911D0895FB01DC0104C08D9185
:105250000190801921F441505040C8F7881B990BE8
:105260000895FB01DC0102C001900D9241505040B5
:08527000D8F70895F894FFCF70
:10527800FFFFFFFF000000008701E7001401F301B2
:1052880045012301370100000000FA0AE7000F0773
:105298000E0772616D2E62696E000D0A002E0064A1
:1052A80069736B2E696D670062696F732E62696E30
:0252B8000000F4
:00000001FF
