:100000000C94E2000C940A010C940A010C940A016D
:100010000C940A010C940A010C940A010C940A0134
:100020000C940A010C940A010C940A010C940A0124
:100030000C940A010C940A010C940A010C940A0114
:100040000C9432150C940A010C9400150C94DA14DB
:100050000C940A010C940A010C940A010C940A01F4
:100060000C940A010C940A01695F6D6F645F7369F7
:100070007A653A2000786C61745F6F70636F6465B5
:100080005F69643A20004572726F72207265616424
:10009000696E672052414D21004572726F72207265
:1000A000656164696E672052414D21007C3C3E5E73
:1000B0002B3D3F2F5B5D3B2C2A225C00000000089B
:1000C000000201000003040700000000000000001F
:1000D0002E20446F6E652100496E697420534420C0
:1000E0006361726400695F64617461302C20312C3B
:1000F00020323A20004F70636F64653A2000496EE9
:10010000737472756374696F6E20706F696E746555
:10011000723A20005374617274696E6720763836C3
:100120002E2E2E00436F7079726967687420284301
:1001300029203230323120407261737069647569F0
:100140006E6F2C20756E6465722047504C2D76338F
:10015000006176722D763836202D20496E74656CDC
:10016000203830383620656D756C61746F7220727E
:10017000756E6E696E67206F6E2041726475696E70
:100180006F20554E4F0000000000250028002B0076
:1001900000000000240027002A00040404040404D2
:1001A0000404020202020202030303030303010226
:1001B00004081020408001020408102001020408F5
:1001C00010207C1511241FBECFEFD8E0DEBFCDBFBD
:1001D00011E0A0E0B1E0E6E5F5E602C005900D9281
:1001E000A235B107D9F724E0A2E5B1E001C01D9224
:1001F000A33AB207E1F710E0C2EED0E004C02197C5
:10020000FE010E943D31C13ED107C9F70E94D315BE
:100210000C94A9320C940000CF93DF93FC018281EF
:100220009381909387048093860484819581A6812D
:10023000B7818093880490938904A0938A04B09333
:100240008B0480859185A285B38580938C049093DF
:100250008D04A0938E04B0938F04DF011C96CF0110
:100260004996C0E9D4E02D912993A817B907D9F789
:10027000818D928D90939E0480939D0484E894E0F8
:10028000DF91CF91089590E0FC01E255FE4F24915B
:1002900086569E4FFC018491882399F090E0880F48
:1002A000991FFC01E057FE4FA591B491FC01EA575C
:1002B000FE4F859194918FB7F894EC91E22BEC93DB
:1002C0008FBF0895880F991FFC0180819181089547
:1002D000AF92BF92CF92DF92EF92FF920F931F9354
:1002E000CF93DF936C017B018B01040F151FEB0192
:1002F0005E01AE18BF08C017D10759F06991D60149
:10030000ED91FC910190F081E02DC6010995892BBA
:1003100079F7C501DF91CF911F910F91FF90EF9079
:10032000DF90CF90BF90AF900895FC01538D448D26
:10033000252F30E0842F90E0821B930B541710F090
:10034000CF96089501970895FC01918D828D98179D
:1003500061F0A28DAE0FBF2FB11D5D968C91928D75
:100360009F5F9F73928F90E008958FEF9FEF0895A6
:10037000FC01918D828D981731F0828DE80FF11D6F
:10038000858D90E008958FEF9FEF0895FC01918D8A
:10039000228D892F90E0805C9F4F821B91098F7383
:1003A000992708958CE993E00E94C60121E0892BEA
:1003B00009F420E0822F089580E090E0892B29F055
:1003C0000E94D20181110C9400000895FC01A48DBB
:1003D000A80FB92FB11DA35ABF4F2C91848D90E067
:1003E00001968F739927848FA689B7892C93A0894A
:1003F000B1898C91837080648C93938D848D9813D4
:1004000006C00288F389E02D80818F7D8083089566
:10041000EF92FF920F931F93CF93DF93EC0181E054
:10042000888F9B8D8C8D98131AC0E889F9898081FB
:1004300085FF15C09FB7F894EE89FF896083E8892E
:10044000F98980818370806480839FBF81E090E020
:10045000DF91CF911F910F91FF90EF900895F62EAD
:100460000B8D10E00F5F1F4F0F731127E02E8C8D47
:100470008E110CC00FB607FCFACFE889F98980818C
:1004800085FFF5CFCE010E94E601F1CFEB8DEC0F99
:10049000FD2FF11DE35AFF4FF0829FB7F8940B8FA9
:1004A000EA89FB8980818062CFCF0F931F93CF931E
:1004B000DF938C01D0E0C0E0F801EC0FFD1F6491E8
:1004C000662341F08CE993E00E940802892B11F029
:1004D0002196F2CFCE01DF91CF911F910F91089518
:1004E000CF93DF93EC01888D8823B9F0AA89BB896B
:1004F000E889F9898C9185FD03C0808186FD0DC056
:100500000FB607FCF7CF8C9185FFF2CF808185FF76
:10051000EDCFCE010E94E601E9CFDF91CF910895A2
:1005200090E0FC01E454FF4F2491FC01E255FE4FA2
:100530003491FC01E656FE4FE491EE23C9F02223EC
:1005400039F0233001F1A8F4213019F1223029F1DA
:10055000F0E0EE0FFF1FEA57FE4FA591B4918FB761
:10056000F894EC91611126C030953E233C938FBFE7
:1005700008952730A9F02830C9F0243049F7809138
:1005800080008F7D03C0809180008F7780938000F2
:10059000DFCF84B58F7784BDDBCF84B58F7DFBCF74
:1005A0008091B0008F778093B000D2CF8091B0005F
:1005B0008F7DF9CF3E2BDACF2FB7F89460915E0193
:1005C00070915F0180916001909161012FBF08954A
:1005D0008FB7F894809153018FBF089561E0FC01BB
:1005E00084810E94900280915201811110925201E7
:1005F00008958EBD00000DB407FEFDCF8EB50895A1
:100600008FEF0C94F9020F931F93CF93DF93EC01BC
:100610000E94DC028B010E9400038F3F69F00E9460
:10062000DC02601B710B6C177D07A8F380E0DF9183
:10063000CF911F910F91089581E0F9CF8CBD9DBDA1
:100640000895CF93DF93EC0180915201811109C08D
:1006500081E0809352018091390490913A040E9484
:100660001E0360E08C81DF91CF910C9490028F92F9
:100670009F92AF92BF92FF920F931F93CF93DF93FE
:10068000EC01F62E49015A018E81882389F08F8171
:1006900098859C012F5F3F4F38872F83823092408F
:1006A00018F40E940003F3CFCE010E94EE021E82D6
:1006B000CE010E9421038CE291E00E9403038F2D62
:1006C00080640E94F90208E110E0D501C401002E07
:1006D00004C0B695A795979587950A94D2F70E947E
:1006E000F90208501109083F8FEF180771F785E9E3
:1006F000FF2021F028E087E8F2128FEF0E94F90234
:1007000010E00E9400038A8787FF04C01F3F11F09A
:100710001F5FF7CFDF91CF911F910F91FF90BF9097
:10072000AF909F908F900895AF92BF92CF92DF923B
:10073000EF92FF920F931F93CF93DF93EC01690128
:10074000C801820F931F8130924050F58E8188231B
:1007500079F088819981AA81BB8184179507A607C2
:10076000B70731F48F819885C816D90608F042C0C2
:10077000488359836A837B838B85833039F089E092
:10078000440F551F661F771F8A95D1F79A01AB0159
:1007900061E1CE010E943703882389F083E08D83D5
:1007A000CE010E94EE0280E0DF91CF911F910F9168
:1007B000FF90EF90DF90CF90BF90AF9008950E9490
:1007C000DC025B010E9400038A878F3F69F40E946C
:1007D000DC026A197B096D327140A0F38FE08D83D2
:1007E000CE010E94EE02DCCF8E3F89F418861F8274
:1007F00081E08E838F8198858C159D0550F40E9431
:1008000000038F819885019698878F83F3CF8DE0C1
:10081000E6CF6701E00EF11E0E940003F60181930E
:100820006F01EE15FF05C1F78F819885080F191F1D
:1008300018870F838985882319F001151240A0F0CD
:100840008E81882389F08F8198859C012F5F3F4F8F
:1008500038872F838230924018F40E940003F3CF30
:10086000CE010E94EE021E8281E09ECFCF92DF92E7
:10087000EF92FF920F93CF93DF93EC01690182E136
:10088000411551056105710599F08B85833039F06B
:1008900089E0440F551F661F771F8A95D1F79A018B
:1008A000AB0168E1CE010E943703882319F084E090
:1008B0008D832DC08EEF0E94F90276018EEFD81A3B
:1008C000F70181917F010E94F902EC14FD04C1F748
:1008D0008FEF0E94F9028FEF0E94F9020E9400033D
:1008E0008A878F71853071F4011116C0CE010E9484
:1008F000EE0281E0DF91CF910F91FF90EF90DF90BA
:10090000CF90089581E18D83CE010E94EE02CE0149
:100910000E94EE0280E0EECF88E592E00E940303A1
:10092000811102C085E1C4CF20E030E0A9016DE073
:10093000CE010E943703882311F084E1B9CF0E94D1
:1009400000038111FACFD2CF0F93409155015091FE
:10095000560160915701709158014115510561058B
:10096000710599F0082F2AE931E080919A0390915E
:100970009B030E943604882349F01092550110927F
:100980005601109257011092580181E00F9108957D
:100990000F93CF93C82F80915401811105C0C1E0FE
:1009A0008C2FCF910F91089540910001509101013A
:1009B00060910201709103010C2F2AE931E08091CE
:1009C0009A0390919B030E943604811102C0C0E0FB
:1009D000E7CFCC2321F381E00E94A4048823B9F35C
:1009E00010925401DDCF8F929F92AF92BF92EF92FF
:1009F000FF920F931F93CF934B015C01C42F809103
:100A0000000190910101A0910201B09103018815AC
:100A10009905AA05BB0551F181E00E94C804811126
:100A20000BC080E0CF911F910F91FF90EF90BF908E
:100A3000AF909F908F9008958AE9E82E81E0F82E7C
:100A400000E012E030E020E0B501A40180919A03BB
:100A500090919B030E949403882319F380920001D4
:100A600090920101A0920201B092030140915401C1
:100A70004C2B4093540181E0D5CF8F929F92AF923F
:100A8000BF92CF92DF92EF92FF92CF932BE334E0AD
:100A900030939B0320939A03882309F46DC040E0B0
:100AA00060E070E0CB010E94F30481110BC080E094
:100AB000CF91FF90EF90DF90CF90BF90AF909F903D
:100AC0008F900895809158038F7789F78091640300
:100AD00090916503A0916603B091670384369105F8
:100AE000A105B10520F3C0906003D0906103E090B0
:100AF0006203F0906303C114D104E104F104B9F27C
:100B000040E0C701B6010E94F304882381F280917E
:100B1000A5019091A6018115924049F6A091AA01E4
:100B2000AA2329F26091A8017091A90161157105AC
:100B300009F4BDCF2091A701222309F4B8CFA093D7
:100B4000590420934B0490E080E030E0E1E0F0E0D5
:100B5000C82FAF01082E02C0440F551F0A94E2F7B8
:100B60002417350769F041E0480F01968930910557
:100B700079F7409354049BCFC12CD12C7601C0CF80
:100B8000809354042091B0013091B10150E040E0D5
:100B90002115310541F42091BE013091BF014091F2
:100BA000C0015091C10120934C0430934D044093F7
:100BB0004E0450934F0446015701860E971EA11C08
:100BC000B11C80925A0490925B04A0925C04B09293
:100BD0005D04E091AB01F091AC01F0936004E0930F
:100BE0005F04B0E00E944331DC01CB01880D991D08
:100BF000AA1DBB1D8093610490936204A0936304BB
:100C0000B093640425E0EE0FFF1F2A95E1F7E15051
:100C1000FE4FEF2FFF27E6958E0F9F1FA11DB11DE1
:100C20008093550490935604A0935704B0935804AE
:100C30008090AD019090AE01B12CA12C8114910453
:100C400041F48090BA019090BB01A090BC01B0909B
:100C5000BD01C81AD90AEA0AFB0AC80CD91CEA1C49
:100C6000FB1C04C0F694E794D794C794CA95D2F7B6
:100C7000C0925004D0925104E0925204F092530476
:100C800085EFC8168FE0D806E104F10428F48CE063
:100C900080935E0481E00CCF80E125EFC2162FEF38
:100CA000D206E104F104A0F38091C6019091C7013E
:100CB000A091C801B091C90180936104909362042E
:100CC000A0936304B093640480E2E2CF4F925F92FA
:100CD0006F927F928F929F92AF92BF92CF92DF924C
:100CE000EF92FF920F931F93CF93DF93EC0142306B
:100CF00051056105710590F480E0DF91CF911F915E
:100D00000F91FF90EF90DF90CF90BF90AF909F90AA
:100D10008F907F906F905F904F90089589859A850E
:100D2000AB85BC850196A11DB11D84179507A6074B
:100D3000B70710F3CB88DC88ED88FE888F89803177
:100D400009F042C0BB27A72F962F852F48015901D4
:100D50002A013B01C80ED91EEA1EFB1E809100012C
:100D600090910101A0910201B0910301C816D9062A
:100D7000EA06FB0699F58F898031C1F5B301A2011E
:100D8000552766277727440F551F46565E4FFA01B1
:100D900091828082809154018160809354018A897C
:100DA000823080F08D819E81AF81B8858C0D9D1D34
:100DB000AE1DBF1D8093550190935601A09357011E
:100DC000B093580181E099CFDB01CA01E7E0B69505
:100DD000A79597958795EA95D1F7B8CF40E0C701D9
:100DE000B6010E94F3048111C6CF86CFB301A201E0
:100DF0004F77552766277727440F551F440F551FF8
:100E000046565E4FFA0180829182A282B382C2CF9F
:100E10008F929F92AF92BF92CF92DF92EF92FF920A
:100E20000F931F93CF93DF93FC0181859285A38558
:100E3000B4850196A11DB11D84179507A607B707B4
:100E400070F480E0DF91CF911F910F91FF90EF90B0
:100E5000DF90CF90BF90AF909F908F900895838840
:100E60009488A588B6888789803189F5BB27A72F04
:100E7000962F852FE9016A017B018F01BC01CD010D
:100E8000680D791D8A1D9B1D8090000190900101C5
:100E9000A0900201B090030186169706A806B90635
:100EA00001F5F8018789803111F5DD24EE24FF2456
:100EB000F601EE0FFF1FE656FE4F80819181B0E0F4
:100EC000A0E088839983AA83BB8381E0BBCFDB0149
:100ED000CA01C7E0B695A79597958795CA95D1F7AA
:100EE000C9CF40E00E94F3048111DBCFAACFE89480
:100EF000C7F8DD24EE24FF24F601EE0FFF1FEE0FEE
:100F0000FF1FE656FE4F80819181A281B381BF70A1
:100F1000D8CF4F925F926F927F92AF92BF92CF9253
:100F2000DF92EF92FF920F931F93CF93DF9300D046
:100F300000D0CDB7DEB78C0149835A836B837C83A5
:100F40005901C12CD12C7601412C82E0582E612C04
:100F5000712C49815A816B817C819E012F5F3F4FAB
:100F6000C8010E940807882339F1F8018585A3018B
:100F7000920104C0220F331F441F551F8A95D2F7D8
:100F8000DA01C901C80ED91EEA1EFB1E49815A8129
:100F90006B817C818789803111F188EF9FEFAFEF02
:100FA000BFE0481759076A077B0798F2F501C0822E
:100FB000D182E282F38281E00F900F900F900F9028
:100FC000DF91CF911F910F91FF90EF90DF90CF9025
:100FD000BF90AF907F906F905F904F90089588EF93
:100FE0009FEFA0E0B0E0DDCFCF93DF93FC01258140
:100FF000222321F080E0DF91CF910895EC018091D0
:101000005E04803159F582E08583178A108E118E37
:10101000128E80915F0490916004B0E0A0E025E022
:10102000880F991FAA1FBB1F2A95D1F7838B948B1A
:10103000A58BB68B87E494E09C8F8B8F81E08C83AB
:101040001E821F82188619861A861B861C861D869C
:101050001E861F86188A198A1A8ACDCF803251F6C9
:1010600083E0858340916104509162046091630440
:1010700070916404478B508F618F728F9F012D5E3A
:101080003F4F87E494E00E9489078111D3CFB2CF0C
:101090008F929F92AF92BF92CF92DF92EF92FF9288
:1010A0000F931F93CF93DF93EC018D8181110EC0BD
:1010B00080E0DF91CF911F910F91FF90EF90DF9033
:1010C000CF90BF90AF909F908F9008950B891C890F
:1010D0002D893E89041715072607370748F34A016B
:1010E0005B01823031F48A869B86AC86BD8681E0C6
:1010F000E0CF81149104A104B10449F41E821F823F
:10110000188619861A861B861C861D86F0CF0A85CE
:101110001B852C853D85EB8DFC8D858590E00996A2
:10112000B901A8014150510961097109082E04C093
:1011300076956795579547950A94D2F7750164019E
:10114000E1E0CE1AD108E108F10804C0F694E79472
:10115000D794C7948A95D2F7C416D506E606F70643
:1011600020F0012B022B032B11F58F89988DA98D6F
:10117000BA8D8E839F83A887B9878E010A5F1F4F20
:10118000C114D104E104F10409F4ADCF4E815F81B3
:101190006885798598018B8D9C8D0E94080791E068
:1011A000C91AD108E108F1088111EACF81CFC41A28
:1011B000D50AE60AF70AE1CF20919D0430919E04FA
:1011C0002115310541F0AB01BC01C9010E9448085D
:1011D00091E0811101C090E0892F08953F924F92D4
:1011E0005F926F927F928F929F92AF92BF92CF92B7
:1011F000DF92EF92FF920F931F93CF93DF93CDB7C0
:10120000DEB72C970FB6F894DEBF0FBECDBF5C01E2
:10121000DC015B968D909C905C9716964D905D904E
:101220006D907C901997411451046104710409F484
:1012300068C0BFEF4B1A5B0A6B0A7B0A312CF401C2
:1012400081859285A385B4859C01AD012F5F3F4FB9
:101250004F4F5F4F29873A874B875C877301620145
:101260001D821E821F821886F40181859285A385C6
:10127000B4852D813E814F815885281739074A074B
:101280005B0708F056C089859A85AB85BC858C15AF
:101290009D05AE05BF0550F482E0C82ED12CE12C8F
:1012A000F12C92E0492E512C612C712C9E012F5F64
:1012B0003F4FB701A601C4010E9408078823C9F166
:1012C00089819A81AB81BC81892B8A2B8B2B09F177
:1012D000260137019FEF491A590A690A790A2D81B7
:1012E0003E814F8158852F5F3F4F4F4F5F4F2D837A
:1012F0003E834F8358873FEFC31AD30AE30AF30AAA
:10130000B3CFF401408051806280738033243394E2
:1013100096CFC414D504E604F70409F70FEF1FEFC6
:101320002FEF3FE0B701A601C4010E9466068111BC
:1013300019C080E02C960FB6F894DEBF0FBECDBF6B
:10134000DF91CF911F910F91FF90EF90DF90CF90A1
:10135000BF90AF909F908F907F906F905F904F90D5
:101360003F900895D50116964D915D916D917C91B8
:101370001997411551056105710539F097018601ED
:10138000C4010E9466068823A1F2D5011696CD926B
:10139000DD92ED92FC921997332051F0D701C601EE
:1013A0000196A11DB11DF40180839183A283B383B3
:1013B000F5018789908DA18DB28D892B8A2B8B2B7E
:1013C00039F48481C78AD08EE18EF28E806884835E
:1013D000F50184818062848381E0ACCF2F923F92BB
:1013E0004F925F926F927F928F929F92AF92BF9235
:1013F000CF92DF92EF92FF920F931F93CF93DF93E1
:10140000EC015B012A018D81811115C08FEF9FEFE7
:10141000DF91CF911F910F91FF90EF90DF90CF90D0
:10142000BF90AF909F908F907F906F905F904F9004
:101430003F902F9008958C8180FFE8CF0B891C8905
:101440002D893E894A855B856C857D85C201B0E02A
:10145000A0E068017901C41AD50AE60AF70AC8169D
:10146000D906EA06FB0618F42801441A550A420177
:101470001E0126E0220E311C8114910409F4B3C030
:101480004A855B856C857D856A0181E0D8228B8DDC
:101490009C8D8A019B01E9E0369527951795079564
:1014A000EA95D1F7ED81E230E1F5FC01628D738DB3
:1014B000848D958D600F711F821F931F612C22E018
:1014C000722E6C187D088614970408F434012C8160
:1014D00026FD04C06114F2E07F0671F40091000162
:1014E00010910101209102013091030106171707A5
:1014F0002807390709F053C040E00E94F30488230D
:1015000009F484CFC60186569E4FD5019C01260D55
:10151000371DFC012E173F0709F460C041914D9320
:10152000F9CFFC0174807A947022C114D10471F453
:1015300071100CC0452B462B472B39F58F89988DA0
:10154000A98DBA8D8E839F83A887B987EB8DFC8D7B
:101550006E817F8188859985625071098109910921
:10156000258504C0660F771F881F991F2A95D2F71B
:101570000685178520893189600F711F821F931F8F
:10158000670D711D811D911D99CF4E815F81688509
:10159000798591010E9408078111D8CF37CF750155
:1015A00083019601AB01BC0180919A0390919B034A
:1015B0000E949403882309F429CFA60CB71C8A85BE
:1015C0009B85AC85BD85860D971DA11DB11D8A87A4
:1015D0009B87AC87BD87861897084ECF281B390B91
:1015E000A20EB31EECCFC20113CF1F93CF93DF9394
:1015F000FC0125812223D1F1162FEC01848187FF84
:101600002AC0668577858089918941E00E94F3042C
:10161000882361F1EA8980E2E89FF0011124E6560F
:10162000FE4F309719F18D81823040F48B899C896F
:10163000AD89BE89848F958FA68FB78F8F89988D3E
:10164000938F828F8F89988DA98DBA8DB58BA48B3E
:101650008C818F778C83111103C08C818F7E8C835A
:10166000812FDF91CF911F910C94C80480E0DF910E
:10167000CF911F910895FF920F931F93CF93DF9304
:10168000EC018D81813041F090E080E0DF91CF91DD
:101690001F910F91FF9008958C8181FFF5CF82FDFE
:1016A0001BC000919A0310919B03C8010E94210363
:1016B0000E940003F82EC8010E94EE028FEFF8127C
:1016C000E3CF8C8185FF1BC060E0CE010E94F50A4C
:1016D0008C818F7D8C83D8CF4B895C896D897E8985
:1016E0008A859B85AC85BD8584179507A607B707B6
:1016F000C1F2CE010E9448088111D3CFC5CF4091DD
:101700005501509156016091570170915801452B38
:10171000462B472B21F080E00E94A404B5CF8061C6
:101720008C832A853B85317080E092E0821B930B8D
:10173000ADCFCF93DF93EC0161E00E94F50A8823DF
:1017400011F01D8281E0DF91CF9108952F923F9299
:101750004F925F926F927F928F929F92AF92BF92C1
:10176000CF92DF92EF92FF920F931F93CF93DF936D
:1017700000D000D01F92CDB7DEB77C015B01342EC4
:101780005D83DC0115968C911597813009F0CEC0F0
:1017900014962C9021FECAC022FCB4C0C32CDD805C
:1017A00022947FE027222094B22DB1702B2ED701F6
:1017B0001A964D915D916D917C911D97C114D10444
:1017C00009F428C15B968D919C915C97FC01748013
:1017D0007A948A019B0169E03695279517950795BC
:1017E0006A95D1F770228A011170711020C001151D
:1017F0001105E9F416964D915D916D917C911997C3
:10180000411551056105710509F099C057968D91F3
:101810009D910D90BC91A02D0097A105B10509F0F7
:10182000B0C0C7010E94EE08882309F47FC080E0A1
:1018300092E0801B910B46018C159D0508F44C012C
:10184000D7015B964D915C915C9716968D919D9119
:101850000D90BC91A02D0297A109B109FA0125852F
:1018600004C0880F991FAA1FBB1F2A95D2F746856F
:10187000578560897189840F951FA61FB71F9C012A
:10188000AD01270D311D411D511D29013A01811462
:1018900032E0930609F07BC0809100019091010134
:1018A000A0910201B091030184159505A605B70525
:1018B00059F48FEF9FEFDC018093000190930101B9
:1018C000A0930201B0930301022D9501B301A2017F
:1018D00080919A0390919B030E943604882331F1F2
:1018E0009EEFB91AC818D908F70182859385A48597
:1018F000B585880D991DA11DB11D82879387A48789
:10190000B58755CFF70143895489658976898285E2
:101910009385A485B585481759076A077B0709F49D
:101920003DCFC7010E944808811138CF81E090E087
:10193000D70113969C938E93129780E007C09E0167
:101940002F5F3F4F0E940807811102C090E079C0CD
:1019500089819A81AB81BC81F701238D348DF90196
:10196000278948EF5FEF60E070E0203121F048EF19
:101970005FEF6FEF7FE084179507A607B70708F0C2
:1019800050CFF70186839783A087B18750CF011589
:10199000110599F5D7011A964D915D916D917C9144
:1019A0001D9753968D919D910D90BC91A02D481738
:1019B00059076A077B0708F181E00E94C804882361
:1019C00009F4B4CF409200015092010160920201EB
:1019D0007092030180915401816080935401C80189
:1019E00086569E4FD5019C01280D391DFC012E17EE
:1019F0003F0759F04D914193FACF41E0C301B20145
:101A00000E94F3048111EBCF91CF281B390BA20E5A
:101A1000B31E68CFF70183899489A589B689841795
:101A20009507A607B70738F48481438B548B658BE1
:101A3000768B80688483F701848183FD1AC0832DAF
:101A40009D810F900F900F900F900F90DF91CF918D
:101A50001F910F91FF90EF90DF90CF90BF90AF90CC
:101A60009F908F907F906F905F904F903F902F90BE
:101A7000089561E0C7010E94F50A882309F456CF52
:101A8000DECFCF93DF931F92CDB7DEB7698341E0FE
:101A900050E0BE016F5F7F4F0E94A60B0F90DF9159
:101AA000CF910895FC01DB0112968D919C911397C3
:101AB0009383828380E291E09183808314968C915A
:101AC0001497848315968C911597858316964D915E
:101AD0005D916D917C9119974683578360877187DB
:101AE0001A964D915D916D917C911D974287538718
:101AF000648775871E964D915D916D917C9151978C
:101B000046875787608B718B52968C915297828B48
:101B100053964D915D916D917C915697438B548B6B
:101B2000658B768B57964D915D916D917C915A970F
:101B3000478B508F618F728F5B968D919C91948FA4
:101B4000838F08950895FC01818D928D009719F07F
:101B500061E00C94F50A0895DC015996ED91FC9131
:101B60003097B9F083899489A589B68942855385D0
:101B700064857585841B950BA60BB70B811520E832
:101B80009207A105B10538F08FEF9FE7A0E0B0E024
:101B9000089590E080E00895DC0159968D919C9124
:101BA000009739F0DC01ED91FC910480F581E02D86
:101BB000099490E080E00895CF93DF93EC01E98DE4
:101BC000FA8D309749F481E090E09B838A8390E01E
:101BD00080E0DF91CF91089513821282898D9A8DD2
:101BE0000E94A60BE98DFA8D22813381232B59F7B0
:101BF000F0CFCF93DF931F92CDB7DEB76983DC01BF
:101C0000ED91FC910280F381E02D41E050E0BE01B6
:101C10006F5F7F4F09950F90DF91CF910895CF931C
:101C2000DF931F92CDB7DEB741E050E0BE016F5F9A
:101C30007F4F0E94EE09019731F4898190E00F9067
:101C4000DF91CF9108958FEF9FEFF9CFFC01818D48
:101C5000928D009711F00C940F0E8FEF9FEF089567
:101C60000F931F93CF93DF93EC01898D9A8D10E032
:101C700000E0009799F00E940F0E8C010F3F1007B3
:101C800069F0898D9A8DFC0142855385648575853F
:101C900041505109610971090E944808C801DF914A
:101CA000CF911F910F910895EF92FF920F931F9381
:101CB000CF93DF937B01EA010E9462018C01C7018F
:101CC0000E94620124E0000F111F2A95E1F78C0F9A
:101CD0009D1F800F911FDF91CF911F910F91FF905A
:101CE000EF90089580919D0490919E04009761F07B
:101CF0000E94990B80919D0490919E040E94F9315D
:101D000010929E0410929D040895CF92DF92EF925C
:101D1000FF921F93CF93DF93EC0180E2689FF00165
:101D20001124E656FE4F9385917161F0842F8274E1
:101D300049F080E0DF91CF911F91FF90EF90DF900D
:101D4000CF900895142F6A8B80910001909101012A
:101D5000A0910201B09103018E879F87A88BB98B58
:101D6000C488D588F12CE12C7601DD24CC24CF8ADF
:101D7000D88EE98EFA8E828D938DB0E0A0E0AC0112
:101D8000BD014C295D296E297F294F8B588F698FA2
:101D90007A8F83858871B1F4848D958DA68DB78DEA
:101DA0008B8B9C8BAD8BBE8B81E08D831F701C83D6
:101DB0001E821F82188619861A861B861C861D861F
:101DC00081E0B8CF803109F0B4CF9E012D5E3F4F46
:101DD0008B8D9C8D0E948907882309F4AACF84E00B
:101DE000E4CFFB0101900020E9F73197AF01461BDA
:101DF000570BDC01ED91FC910280F381E02D0994F9
:101E0000CF93DF930E945502EC016AE371E08CE905
:101E100093E00E94F10E8C0F9D1FDF91CF910895EA
:101E20000F931F93CF93DF93CDB7DEB7A1970FB674
:101E3000F894DEBF0FBECDBFAB01BC0119A2FE01FD
:101E4000B196DB01CA018F709927AA27BB2794E0BE
:101E500076956795579547959A95D1F78A3024F5E9
:101E6000805D8293411551056105710551F710E0C0
:101E700000E0309731F0BF018CE993E00E94F10E51
:101E80008C016AE371E08CE993E00E94F10E800F0F
:101E9000911FA1960FB6F894DEBF0FBECDBFDF91A4
:101EA000CF911F910F910895895CDBCF3F924F92A4
:101EB0005F926F927F928F929F92AF92BF92CF92DA
:101EC000DF92EF92FF920F931F93CF93DF93CDB7E3
:101ED000DEB72B970FB6F894DEBF0FBECDBF7C01E7
:101EE000FE013196CE010C966F0130E23193E81776
:101EF000F907E1F7DA0130E087E09D91B92E9923E7
:101F000009F43CC09E32F1F48A30C9F480E02B968B
:101F10000FB6F894DEBF0FBECDBFDF91CF911F91FA
:101F20000F91FF90EF90DF90CF90BF90AF909F9078
:101F30008F907F906F905F904F903F90089538E022
:101F40008AE0DBCFECEAF0E04491442321F03196C3
:101F50009413FACFDBCF8317C8F24FED490F4E35FC
:101F6000A8F64FE9490F4A3118F440EEB42EB90EE5
:101F7000F601E30FF11DB0823F5FBFCF8981803250
:101F800029F2322E8B01DB015B968D919C915C973F
:101F9000F701948F838F16961D921D921D921C92AD
:101FA0001997FB011286138614861586F80182851F
:101FB0009385A485B5854389548965897689841775
:101FC0009507A607B70708F04DC025E0B695A79579
:101FD000979587952A95D1F7F82FFF70AF2ED801E6
:101FE00015968C91823008F491CFC8010E940F0E93
:101FF00097FD8CCFF80182859385A485B5854F9692
:10200000A11DB11D82879387A487B587F0E2AF9E9B
:10201000B001112466567E4F6115710509F476CF23
:10202000DB018C91882341F0853E09F062C0BB2022
:1020300029F0BB24B394BACFB1100EC0F701A28A25
:102040008091000190910101A0910201B0910301E2
:1020500086879787A08BB18BDB018C918111E9CFAB
:10206000BB24B394832D8271823109F04FCFBB2002
:1020700009F44DC0F701668577858089918941E033
:102080000E94F304882309F441CFD70152968C9122
:10209000B0E28B9FC001112486569E4F009709F431
:1020A00035CFFC013A9626E1DF011D922A95E9F72A
:1020B0002BE0F601DC0101900D922A95E1F721E277
:1020C00038E2FC01318B208B40E058E0578746878F
:1020D000338B228B318F208F578B468B81E00E9470
:1020E000C804882309F412CF432DD70152966C916E
:1020F0000AC04BE050E0C6010E948232892B09F0F1
:1021000055CF432D6A2DC7010E94850E00CFF801DF
:102110008581823009F4FACEC8010E94EE08882336
:1021200009F4F4CED8015B96ED91FC915C9716967C
:102130008D909D90AD90BC901997B2E08B1A91084C
:10214000A108B108858504C0880C991CAA1CBB1C79
:102150008A95D2F786859785A089B189880E991EC0
:10216000AA1EBB1E848124013501480E511C611C2E
:10217000711C84149504A604B70409F1E1E04E1A19
:1021800051086108710881E00E94C804882309F49D
:10219000BDCEEAE9F1E011928AE993E08E179F073C
:1021A000D1F74092000150920101609202017092B9
:1021B000030180915401816080935401DACFD801EA
:1021C0005B96ED91FC91258580E092E0A0E0B0E087
:1021D00004C0880F991FAA1FBB1F2A95D2F7F801C8
:1021E0004389548965897689840F951FA61FB71F77
:1021F000838B948BA58BB68BD70152961C928AE960
:1022000091E04FCFEF92FF920F931F93CF93DF9305
:10221000EC017B018A011B821A8288EE93E0A0E028
:10222000B0E08C839D83AE83BF838CE291E0998381
:1022300088838DE190E00E945D319A8F898F0097AD
:1022400079F02DE1F701DC0101900D922A95E1F77B
:102250004CE050E0B801CE010C960E949A32188EE4
:10226000DF91CF911F910F91FF90EF9008952F92E2
:102270003F924F925F926F927F928F929F92AF9216
:10228000BF92CF92DF92EF92FF920F931F93CF9363
:10229000DF93CDB7DEB7C756D1090FB6F894DEBFCE
:1022A0000FBECDBF6C015B01A6964FAFA69719A2DA
:1022B00018A280E291E09F8F8E8F1BA21C821B824E
:1022C0009A8389831E824E018EE1880E911CC4017F
:1022D0000E94F40775018E010F5F1F4F2401180142
:1022E0006FE270E0C7010E948F32009709F45DC071
:1022F000F70120812F3271F4FFEFEF1AFF0A902FC0
:10230000812F8201492E582E942D852D2801092FC9
:10231000182FE6CF8E198D3008F08CE0682E712CC6
:10232000A301B701CE01885A9F4F0E949A32E8E577
:10233000F0E0EC0FFD1FE60DF71D1082C8010E94B2
:10234000990BF8018581882301F11EAE1DAE80E254
:1023500091E09CAF8BAF21961FAE2197A896EEAD72
:10236000FFADA897AE0EBF1EF501808181112AC076
:10237000BE01655C7F4FC1010E94520D4DE351E0EB
:10238000B101C6010E9402113BC021E0AE01485AD2
:102390005F4FB201C8010E94560F8823B1F2E60CCC
:1023A000F71CC2010E94990BAFCFC7018A199B0984
:1023B000A8969FAF8EAFA897B201CE01CB960E9490
:1023C000520DCCCF19A218A280E291E09F8F8E8F80
:1023D0001BA221968FAD219781112DC0F60113828A
:1023E000128288EE93E0A0E0B0E084839583A68318
:1023F000B7838CE291E091838083128E118E1486D4
:10240000C601C959DF4F0FB6F894DEBF0FBECDBF6E
:10241000DF91CF911F910F91FF90EF90DF90CF90C0
:10242000BF90AF909F908F907F906F905F904F90F4
:102430003F902F900895A6962FADA697A501BE01B7
:10244000655C7F4FC4010E94560F882339F2CE018C
:10245000CB960E94990BA6968FADA6978670863074
:1024600039F449A95AA96BA97CA9C4010E9448085A
:10247000B401C1010E94520DA50182CF0F931F9399
:10248000CF93DF93CDB7DEB76B970FB6F894DEBF6F
:102490000FBECDBF8C0141E06FE371E0CE0101962C
:1024A0000E943711CE0101960E940C01E0919D041B
:1024B000F0919E04309719F08581811105C086E85E
:1024C00090E00E94000FFFCFB80190E080E00E94F2
:1024D000DC0884E894E00E94260E182F0E94720EF9
:1024E000812F6B960FB6F894DEBF0FBECDBFDF9184
:1024F000CF911F910F910895CF93C62F90E08F57E2
:102500009E400E943E126C2F70E07F50860F972FE6
:10251000911DCF910C943E120F931F93CF93DF9395
:1025200082E090EF90937A018093790109E010E0C6
:1025300001501109B8F0F801C0A5D0E0602F83E187
:102540000E947C1202C0CC0FDD1F8A95E2F78091B9
:10255000790190917A01C80FD91FD0937A01C09365
:102560007901E6CFDF91CF911F910F910895CF931D
:10257000C82F80939301682F88E00E947C1280937B
:1025800078016C2F89E00E947C1280936E016C2F81
:102590008EE00E947C12809387016C2F8AE00E945B
:1025A0007C1290E090936A018093690185E790E046
:1025B0000E9455026091780170E090E080E00E94F6
:1025C000100F88E690E00E9455026091870170E04C
:1025D00090E080E0CF910C94100FFF920F931F9327
:1025E000CF93DF93CDB7DEB76B970FB6F894DEBF0E
:1025F0000FBECDBF8C01F62E47E16FE371E0CE0137
:1026000001960E943711CE0101960E940C01E091C3
:102610009D04F0919E04309719F08581811105C0C9
:1026200089E990E00E94000FFFCFB80190E080E0C0
:102630000E94DC086F2D84E894E00E94F90D0E944E
:10264000720E8F2D6B960FB6F894DEBF0FBECDBF06
:10265000DF91CF911F910F91FF900895FC0160834E
:102660000C94ED120F931F93CF93DF938C01D62F11
:10267000C72FFC01EE0FFF1F60837183C8010E940A
:102680002E136C2FC80101960E942E138D2F9C2FA4
:10269000DF91CF911F910F9108950F931F93CF93C7
:1026A000DF938C01C9E0D0E0219780F06C2F83E1AB
:1026B0000E947C12B80102C0759567958A95E2F771
:1026C0006170CE0188960E942E13EECFDF91CF91DC
:1026D0001F910F91089561E0892B09F460E080E378
:1026E00090E00C942E1360917301709174018091AD
:1026F0007101909172016827792780916F01909103
:10270000700168277927709372016093710184E0EA
:10271000769567958A95E1F761708AE290E00E946C
:102720002E1320916F01309170018091730190916F
:10273000740128173907B9F02091910188E0289F8A
:1027400090011124295F3F4F809171019091720196
:1027500002C0969587952A95E2F728B18227817065
:1027600099270C946B1360E080E390E00E942E1395
:1027700080E0089561E0892B09F460E088E290E050
:102780000C942E13CF93DF93EC0181E080939101A1
:1027900060910800709109006E5F7F4F84E090E0C7
:1027A0000E9432134EEF5FEF64E070E08AE090E049
:1027B0000E94540E0E943E12809376018093750110
:1027C00090919101D0937401C0937301992399F072
:1027D00080917501909176019093720180937101BF
:1027E0009093700180936F01109291018091750117
:1027F000DF91CF91089590E0EFCFCF93DF93EC017D
:1028000081E0809391014FEF5FEF64E070E08AE038
:1028100090E00E94540E0E943E12809376018093B5
:10282000750190919101992351F120917501309199
:1028300076013093740120937301D0937201C09399
:102840007101D0937601C0937501D0937001C0934C
:102850006F01C09175018C1759F04FEF5FEF64E085
:1028600070E08AE090E00E94540E6C2F0E94ED12FE
:102870001092910180917501DF91CF910895282FD9
:1028800030E030937401209373019E01332730931D
:10289000720120937101C0937501309370012093F0
:1028A0006F01D7CFCF93DF93C82F8DEC0E94B71263
:1028B0000E948C128091790190917A010E94FD13FF
:1028C00080911200909113000E94FD138091980155
:1028D000909199010E94FD1384E0C89FE0011124AA
:1028E000CE0102960E943E12809376019091910152
:1028F000992309F448C080917501909176019093D5
:102900007401809373018091760190917701909387
:102910007201809371019093760180937501909379
:10292000700180936F016091750182E190E00E94D7
:10293000ED12C25CDD4E2091910180919801909141
:1029400099019093740180937301222381F188810E
:102950009981909372018093710190939901809372
:1029600098019093700180936F0160E08DE290E098
:102970000E942E1360E08EE290E00E942E1380E011
:10298000DF91CF9108952091750130E0309374016B
:1029900020937301282F30E030937201209371014E
:1029A000809375013093700120936F01BCCF8881B3
:1029B00090E0CFCF1F920F920FB60F9211242F935A
:1029C0003F934F935F936F937F938F939F93AF93B7
:1029D000BF93EF93FF938CE993E00E94E601FF9190
:1029E000EF91BF91AF919F918F917F916F915F9187
:1029F0004F913F912F910F900FBE0F901F90189500
:102A00001F920F920FB60F9211242F938F939F93C3
:102A1000EF93FF93E091AC03F091AD038081E091DF
:102A2000B203F091B30382FD1BC090818091B50386
:102A30008F5F8F732091B603821741F0E091B50349
:102A4000F0E0E456FC4F958F8093B503FF91EF9132
:102A50009F918F912F910F900FBE0F901F901895FF
:102A60008081F4CF1F920F920FB60F9211242F93F3
:102A70003F938F939F93AF93BF9380915E0190910B
:102A80005F01A0916001B091610130915D0123E08F
:102A9000230F2D3758F50196A11DB11D20935D011F
:102AA00080935E0190935F01A0936001B0936101F8
:102AB0008091590190915A01A0915B01B0915C0104
:102AC0000196A11DB11D8093590190935A01A093C5
:102AD0005B01B0935C01BF91AF919F918F913F914A
:102AE0002F910F900FBE0F901F90189526E8230F7F
:102AF0000296A11DB11DD2CFECE9F3E01382128240
:102B000088EE93E0A0E0B0E084839583A683B7834A
:102B10002EE031E03183208325EC30E035872487B7
:102B200024EC30E03787268720EC30E0318B208B97
:102B300021EC30E0338B228B22EC30E0358B248B80
:102B400026EC30E0378B268B118E128E138E148E6E
:102B5000E9E3F4E020E520831182EBE3F4E0158261
:102B600016821186138642E050E060E070E04487F0
:102B700055876687778713A215A614A620E231E051
:102B800033A722A717A6E4E8F4E013821282848315
:102B90009583A683B7838CE291E091838083128E24
:102BA000118E14860895CF93DF93CDB7DEB7C45A44
:102BB000D1090FB6F894DEBF0FBECDBF789484B5AF
:102BC000826084BD84B5816084BD85B5826085BD29
:102BD00085B5816085BD80916E00816080936E00B7
:102BE00010928100809181008260809381008091A9
:102BF000810081608093810080918000816080935A
:102C000080008091B10084608093B1008091B00019
:102C100081608093B00080917A00846080937A0014
:102C200080917A00826080937A0080917A0081603E
:102C300080937A0080917A00806880937A00109265
:102C4000C100E091AC03F091AD0382E08083E0919C
:102C5000A803F091A9031082E091AA03F091AB03BD
:102C60008FEC80831092B403E091B003F091B10334
:102C700086E08083E091AE03F091AF0380818061B4
:102C80008083E091AE03F091AF0380818860808300
:102C9000E091AE03F091AF03808180688083E09182
:102CA000AE03F091AF0380818F7D808381E591E059
:102CB0000E94000F84E291E00E94000F88ED90E0F6
:102CC0000E9455029AE0E92E24EAC22E21E0D22E7B
:102CD00038EBA32E31E0B32E42E5942E50E5852E3D
:102CE00063E0362E76E0272EE2E0FE2E80916A0425
:102CF000882321F085E694E00E94990B1092460407
:102D0000109244041092410410924004E0923F0457
:102D10000E94DC028B0180913F040E94430161E02C
:102D200080913F040E9490027FB6F89480916201E6
:102D3000811122C0F6018491F5019491E82FF0E011
:102D4000EE0FFF1FE057FE4FA591B4918C91982391
:102D500021F461E08AE00E9490028AE00E9443012F
:102D60008CB580618CBD8CB580648CBD8DE00E947B
:102D700043018BE00E944301809162018F5F809349
:102D800062017FBE9092390410923A048091390416
:102D900090913A040E941E03BAE07B2E8FEF0E94AE
:102DA000F9027A947110FACF8BE394E00E94210328
:102DB00020E030E0A90160E08BE394E00E9437035B
:102DC000782E80934504F1E08F1759F00E94DC02C1
:102DD000601B710B613D774058F381E080934004A4
:102DE00042C02AEA31E040E050E068E08BE394E042
:102DF0000E94370382FF2AC07092460480914604E5
:102E0000412C512C612CF0E47F2E823019F0412CA2
:102E1000512C320120E030E0A90167E38BE394E01C
:102E20000E943703A301920169E28BE394E00E94C0
:102E3000370380934504882321F10E94DC02601B44
:102E4000710B613D774030F388E0C8CFA4E07A2E63
:102E50000E940003809345047A947110F9CF8A3A56
:102E600069F0F09240048BE394E00E94EE0267E484
:102E700071E08CE993E00E94F10E38CFF0924604A5
:102E8000BDCF809146048230D1F420E030E0A9012A
:102E90006AE38BE394E00E943703882319F02092C1
:102EA0004004E1CF0E940003807C803C11F430920A
:102EB00046040E9400030E9400030E9400038BE36B
:102EC00094E00E94EE028092390410923A0481E06C
:102ED0000E943D05882309F48DC185E694E00E9497
:102EE000F407882321F280ED90E00E94000F84E136
:102EF00091E00E94000F80E090EF90931300809388
:102F000012001DB81092040080E091E090939901A6
:102F10008093980180E091EF9093970180939601C0
:102F2000AE014D5F5F4FC456DF4F59834883CC5984
:102F3000D04060E5C62ED12C22242A94312CE9E61B
:102F40004E2EE4E05E2E712C612C912C812C809110
:102F50009601909197010E943E1290E09093950106
:102F6000809394018EEF90E00E945502609196014B
:102F70007091970190E080E00E94100F85EF90E043
:102F80000E9455026091940170919501072E000CEA
:102F9000880B990B0E94100FE0919401F09195011C
:102FA00080810E94B71290919301892F877080933E
:102FB0009201917090939101869581708093900118
:102FC000809196019091970101960E943E1290E0A7
:102FD00090938F0180938E0180919601909197013B
:102FE00002960E943E1290E090938D0180938C0196
:102FF000809196019091970103960E943E1290E075
:1030000090938B0180938A0185EE90E00E94000FDF
:1030100060918E0170918F0190E080E00E94100F0E
:1030200060918C0170918D0190E080E00E94100F02
:1030300060918A0170918B0190E080E00E94100FF6
:1030400080918901882319F08150809389018091B2
:103050008801882319F0815080938801809187012D
:10306000882309F48CC020918E0130918F01C90111
:1030700046E0969587954A95E1F7982F937090933F
:103080008601622F67706093850153E0369527951E
:103090005A95E1F72770209384019111B2C06630F0
:1030A00009F0B6C0E0919401F09195012481358139
:1030B00030938B0120938A0184E0911180E080930A
:1030C000820110928301933009F4B2C08F5F0E9495
:1030D0007C1290E00E9462018C01809182016091DB
:1030E00085018E5F0E947C1220918C0130918D01B0
:1030F000829F7001839FF00C1124E00EF11E6091FD
:103100008501809182010E947C12082F10E080913D
:10311000890181118AC080918201609185018D5F52
:103120000E947C12A701B80190E00E94540E909377
:10313000800180937F0190937E0180937D01309187
:103140008401432F50E0440F551F20919101222309
:1031500009F481C09A0130937C0120937B01409156
:103160009001442361F030937A0120937901909388
:103170007C0180937B0130937E0120937D01E0915F
:103180007801E13308F034C2F0E0E753F74E0C94D5
:103190003D3134197D19EE19E119E7196A1A681CD5
:1031A000E41E001F401F1F218F223D23D22721280C
:1031B00058288C285A292B2A102B462B692B032C94
:1031C000ED2C9C28FF2C032D072D192D992DCD2D8D
:1031D000EA2D0C2E272E282B2F2E3B2E402E3C2F57
:1031E000482F552F662F8E2FA22FA52FB92FC22F14
:1031F000CA2FFA2F80E00E943D05882309F437CEBC
:103200006CCE923009F44ECF20918C01913029F090
:1032100020918C0130918D014BCF022E000C330B8D
:1032200030938D0120938C0149CF809181017ACF19
:10323000262F30E0220F331F90919101992311F036
:10324000C90175CF862F86958695820F932F911D84
:10325000877099276CCF232F26952695240F352F1D
:10326000311D2770332777CF609193016695677082
:1032700060937701E0908E010E2C000CFF08009106
:10328000910110E08FE00E947C12E82FF0E0808135
:103290008823A1F091E009270E9D90010F9D300D2C
:1032A0001E9D300D11248091980190919901820FFB
:1032B000931F90939901809398019AC1609177012F
:1032C00080E10E947C12E82FF0E080818111E2CF42
:1032D0006091770181E10E947C12E82FF0E0B080DC
:1032E0006091770182E10E947C1290E00E9462016D
:1032F00091E0B812D0CF90E0CECF9091930181E0D1
:10330000492F487093FF80E0809391019091920142
:10331000292F30E0220F331F442389F1C9010E9475
:103320003E12809376018093750140919101442370
:1033300079F1809175019091760190937401809359
:10334000730180918E0190918F019093720180930F
:103350007101909376018093750190937001809331
:103360006F016091750190919201292F30E0220F39
:10337000331F4423E9F0C9010E94ED1239C1892F9E
:1033800086958695820F932F911D87709927C7CFB9
:1033900090E0909374018093730120918E01822FAD
:1033A00090E0909372018093710120937501D5CFC5
:1033B000892F86958695820F932F911D8770992767
:1033C000DBCF8091920190E00E9462010FC1809159
:1033D000920190E00E9462010C948C2281E0809323
:1033E00091011092900180919201809384019091BB
:1033F000860184E0911180E0809382011092830124
:1034000060918501933008F0CCC18F5F0E947C12DF
:1034100090E00E9462018C0180918201609185019F
:103420008E5F0E947C1220918C0130918D01829FD1
:103430007001839FF00C1124E00EF11E6091850154
:10344000809182010E947C12082F10E080918901F6
:103450008111A4C180918201609185018D5F0E94DC
:103460007C12A701B80190E00E94540EBC01709339
:10347000800160937F0170937E0160937D01909144
:103480008401492F50E0440F551F809191019A010A
:10349000811108C0292F26952695240F352F311D1F
:1034A0002770332730937C0120937B01809190011A
:1034B000882361F030937A012093790170937C0125
:1034C00060937B0130937E0120937D0180916E019A
:1034D0008093840180918401823008F07EC188E16C
:1034E00090E00E943E12809376019091910120918C
:1034F0008401992309F459C1809175019091760155
:1035000090937401809373014091760150917701FB
:103510005093720140937101840F951F019630E022
:10352000220F331F821B930B9093760180937501BA
:103530009093700180936F016091750180917B0180
:1035400090917C010E94ED1201E010E01093720155
:10355000009371010E9473138091910158E0859F3F
:10356000C0011124079602C0000F111F8A95E2F7CF
:1035700020917301309174012F5F3F4F809184013E
:10358000281B310981E090E00217130711F090E049
:1035900080E00E946B1380919101E8E08E9FC00152
:1035A0001124079641E050E002C0440F551F8A9550
:1035B000E2F720917301309174012F5F3F4F8091AA
:1035C0008401281B310981E090E04217530711F074
:1035D00090E080E00E946B1380917801853019F4AF
:1035E00080E10E94B7128091750190E00E94FD1366
:1035F0009091860141E050E0933011F450E040E0BA
:10360000949F9001959F300D1124911105C081E088
:1036100090918501963009F080E090E0880F991F25
:10362000820F931F20918701289F8001299F100DF1
:103630001124609193018CE00E947C12080F111DEF
:10364000609193018DE00E947C122091910130E005
:103650002F5F3F4F482F429FC001439F900D112481
:10366000800F911F0091980110919901080F191F67
:1036700010939901009398018091690180FF3CC0EB
:10368000C90123E0880F991F2A95E1F701976091FE
:103690006F017091700102C0759567958A95E2F788
:1036A00061708CE290E00E942E1361E080916F01C6
:1036B00090917001892B09F060E08BE290E00E940C
:1036C0002E1360916F018BE00E947C12682F89E2BB
:1036D00090E00E942E138091690181FD0E94731376
:1036E0008091690182FF08C090E080E00E94BA13D7
:1036F00090E080E00E946B138091650190916601DB
:103700000196909366018093650160E27EE40E94D9
:103710001531892B19F481E0809364018091630154
:10372000882319F081E00E9452148DB180936301C7
:1037300080916401882309F40ACC80918901811168
:1037400006CC80918801811102CC8EB1882309F4C6
:10375000FECB8DB18111FBCB8AE00E9452141092F6
:1037600064018CE993E00E94C601181619064CF416
:103770008CE993E00E94A401CC55DF4F8883C45AA2
:10378000D040CC55DF4F6881C45AD04086EA94E0DF
:103790000E94ED1287E00E945214D9CB80918101E2
:1037A00060CE70E0660F771F62CE40917501642F86
:1037B00070E0709374016093730190E090937201D4
:1037C0008093710130E0220F331F821B930B01960F
:1037D000840F8093750190E0ABCE863009F46FC002
:1037E000833031F480911200909113000E94FD13F8
:1037F0008091840181FF23C09091860121E030E017
:10380000933011F430E020E0929FA001939F500D7F
:103810001124911105C021E080918501863009F0C5
:1038200020E080919801909199010296840F951F54
:1038300030E0220F331F820F931F0E94FD138091EF
:10384000840180FF07C080917B0190917C010296EA
:103850000E943E1280917B0190917C0102960E9411
:103860003E12682F70E089E090E00E943213809150
:103870007B0190917C010E943E1280937501909192
:103880009101209198013091990130937401209316
:103890007301992391F08091750190917601909335
:1038A0007201809371019093990180939801909394
:1038B000700180936F018AE994CE90E0F0CF8091FF
:1038C0007F01909180010E943E12809375018BCE02
:1038D00080917B0190917C0190937E0180937D018A
:1038E000E0918401E83008F083CEF0E0E658F34E32
:1038F0000C943D31821CF81ACD1C021D571DB91DB8
:103900001A1E891E80E20E94B71220919801309100
:1039100099012F5F3F4F80919101820F932F911D4D
:10392000909399018093980180917D0190917E01FF
:103930000E943E1280937501909191019923E1F0CC
:1039400020917501309176013093740120937301B9
:1039500040918A0150918B01509372014093710103
:10396000242335233093700120936F01682F8091B9
:103970007D0190917E0100CD282F30E030937401BD
:103980002093730120918A01422F50E050937201DD
:1039900040937101282330E0E5CF0E943E128093CE
:1039A0007601909191019923D9F0809175019091C0
:1039B00076019093740180937301809176019091C8
:1039C0007701909372018093710180959095909307
:1039D0007601809375019093700180936F01E1C42B
:1039E0002091750130E03093740120937301282FEA
:1039F00030E03093720120937101809580937501BE
:103A000090E0E9CF0E943E1280937601909191015F
:103A10009923D9F180917501909176019093740169
:103A20008093730180917601909177019093720158
:103A3000809371019195819591099093760180937E
:103A400075019093700180936F0160917501809171
:103A50007D0190917E010E94ED12109274011092EE
:103A6000730188E20E94B71281E090E040916F01FB
:103A70005091700120917301309174012417350722
:103A800008F04DC20E94BA13B3CD2091750130E009
:103A90003093740120937301282F30E0309372012A
:103AA0002093710181958093750190E0CACF809138
:103AB0009101882391F180E10E94B71280917F01EA
:103AC00090918001825C9D4E209100003091010018
:103AD000829FB001839F700D929F700D112470938F
:103AE000700160936F01770F660B762F80919101C3
:103AF00090E001960E94321360916F017091700105
:103B000090E080E00E94321360E088E290E00E9442
:103B10002E13C4010E946B136BCD80E10E94B7127B
:103B200080917F0190918001825C9D4E9091000078
:103B3000899FC00111249093700180936F0180913F
:103B4000910190E060E001960E942E1360916F0158
:103B50007091700190E080E00E94321380916F01BB
:103B60009091700188270E94BA13082E000C990BBF
:103B7000D1CF80919101882381F180E10E94B71219
:103B800080917F0190918001825C9D4E2091000088
:103B900030910100829FB001839F700D929F700D44
:103BA00011247093700160936F01770F660B762F6D
:103BB0008091910190E001960E94321360916F0113
:103BC0007091700190E080E00E94321360E088E222
:103BD00090E00E942E13C3019DCF80E10E94B71296
:103BE00080917F0190918001825C9D4E60910000E8
:103BF0006802B00111247093700160936F01770F18
:103C0000660B762F8091910190E001960E942E1311
:103C100060916F017091700190E080E00E9432131A
:103C200080916F0190917001082E881B910907FC0B
:103C3000939599CF80917F0190918001209191017E
:103C40002223A9F10E943E12682F70E070936D014B
:103C500060936C016115710509F4B2C00091000018
:103C60001091010010937A0100937901C8010E941C
:103C70001531709383016093820190E080E00E948F
:103C8000321320916C0130916D01AC01429FC00153
:103C9000439F900D529F900D1124B801681B790B22
:103CA0008091910190E001960E943213A1CC0E9474
:103CB0003E12682F70E070936D0160936C01611586
:103CC000710509F47DC010910000909101001093DE
:103CD000790190937A01812F0E94153170938301AD
:103CE00060938201CB0199276817790709F068C0B2
:103CF00090E080E00E942E1390916C01612F899FCB
:103D0000601911248091910190E001960E942E1378
:103D10006FCC80917F0190918001209191012223AD
:103D200061F10E943E12682F70E070936D01609304
:103D30006C016115710509F443C0009100001091F8
:103D4000010010937A0100937901C8010E94293182
:103D5000709383016093820190E080E00E943213AF
:103D600020916C0130916D01FC01E29FC001E39F45
:103D7000900DF29F900D112490CF0E943E12682F5B
:103D8000880F770B70936D0160936C01611571055D
:103D9000B9F0109100009091010010937901909377
:103DA0007A01812F0E9429317093830160938201EF
:103DB000262F062E000C330B6217730709F498CFD9
:103DC00080E00E94521414CC1092800110927F0166
:103DD00080918E0190918F0190938B0180938A0145
:103DE00083E08093860180916E01809384018091AD
:103DF000980190919901019790939901809398016E
:103E000080917F019091800190937E0180937D014C
:103E100081E090919101911180E090919001892B26
:103E20008093900160918A0170918B01882319F031
:103E3000062E000C770B8DE090E00E9432138AE191
:103E400090E090937C0180937B018091900122E02F
:103E500030E0882311F021E030E0809198019091CA
:103E60009901820F931F90939901809398018091FB
:103E7000840180936E01880F880F880F0E94B7120B
:103E8000E0916E01E93008F0B3CBF0E0E25BF04E78
:103E900080917B0190917C010C943D31571FA51FAF
:103EA000D01F29208720B2200729F1209E210E94BF
:103EB0003E128093760190919101992399F180911E
:103EC0007501909176019093740180937301209114
:103ED0007601309177013093720120937101820F46
:103EE000931F909376018093750190937001809356
:103EF0006F016091750180917D0190917E010E941A
:103F0000ED1281E090E040916F015091700120919D
:103F10007301309174014217530708F4B3CD90E058
:103F200080E0B0CD90917501292F30E0309374017D
:103F300020937301282F30E0309372012093710198
:103F4000890F8093750190E0D0CF0E943E1280933C
:103F5000760190919101992399F08091750190914A
:103F600076019093740180937301209176013091D2
:103F700077013093720120937101822B932B27CD0F
:103F800090917501292F30E03093740120937301D3
:103F9000282F30E03093720120937101892B2ECDB0
:103FA0000E943E1280937601909191019923E1F154
:103FB0002091750130917601309374012093730143
:103FC00088B14091760150917701509372014093EE
:103FD0007101240F351F820F932F911D909376014D
:103FE000809375019093700180936F0160917501CA
:103FF00080917D0190917E010E94ED1288B1209107
:1040000073013091740140916F01509170018823C8
:1040100021F04217530709F478C081E04217530793
:104020000CF457C080E055C090917501292F30E005
:10403000309374012093730128B1482F50E05093BE
:10404000720140937101920F890F8093750190E086
:10405000C9CF0E943E1280937601909191019923DD
:10406000F1F18091750190917601909374018093A4
:10407000730148B12091760130917701309372013C
:1040800020937101821B930B841B910990937601FD
:10409000809375019093700180936F016091750119
:1040A00080917D0190917E010E94ED1288B1209156
:1040B00073013091740140916F0150917001882318
:1040C00019F04217530709F181E0241735070CF066
:1040D000A9CF90E00E94BA130E94731389CA9091ED
:1040E0007501292F30E0309374012093730128B1BA
:1040F000482F50E05093720140937101921B981B1E
:10410000892F9093750190E0C5CF81E0E2CF0E94A6
:104110003E128093760190919101992399F08091BC
:1041200075019091760190937401809373012091B1
:1041300076013091770130937201209371018223CF
:10414000932345CC90917501292F30E03093740171
:1041500020937301282F30E0309372012093710176
:1041600089234CCC0E943E12982F80937601809137
:104170009101882319F180917501909176019093B6
:10418000740180937301209176013091770130930F
:10419000720120937101821B930B9093760180939F
:1041A00075019093700180936F016091750180910A
:1041B0007D0190917E010E94ED1256CC8091750197
:1041C000282F30E03093740120937301292F30E0C1
:1041D0003093720120937101891B8093750190E0E7
:1041E000E0CF0E943E128093760190919101992335
:1041F00099F080917501909176019093740180936C
:1042000073012091760130917701309372012093F0
:104210007101821B930BC5CF2091750130E0309363
:1042200074012093730190E0909372018093710167
:10423000281B390B3093700120936F01B6CF80910A
:1042400091018111B1C081E080939101809184013D
:10425000885F809384019091860184E0911180E0D1
:10426000809382011092830160918501933008F060
:1042700081C08F5F0E947C1290E00E9462018C01DD
:1042800080918201609185018E5F0E947C12209155
:104290008C0130918D01829F7001839FF00C11245D
:1042A000E00EF11E60918501809182010E947C12D6
:1042B000082F10E080918901811159C080918201FD
:1042C000609185018D5F0E947C12A701B80190E08A
:1042D0000E94540EBC017093800160937F01709323
:1042E0007E0160937D0190918401492F50E0440F3D
:1042F000551F809191019A01811108C0292F26959F
:104300002695240F352F311D2770332730937C01DC
:1043100020937B0180919001882361F030937A0192
:104320002093790170937C0160937B0130937E012F
:1043300020937D0180917B0190917C010E943E122F
:1043400080937601909191019923C1F0809175013C
:10435000909176019093740180937301809176011E
:1043600090917701909372018093710130CB80918D
:104370008101ABCF70E0660F771FADCF2091750143
:1043800030E03093740120937301282F30E0309394
:104390007201209371018093750130937001209315
:1043A0006F0160917501E3CA809190018111ADC0E8
:1043B00081E0809389018CE0809381019091860156
:1043C00084E0911180E080938201109283016091DA
:1043D0008501933008F085C08F5F0E947C1290E0C9
:1043E0000E9462018C0180918201609185018E5F43
:1043F0000E947C1220918C0130918D01829F70016E
:10440000839FF00C1124E00EF11E609185018091D4
:1044100082010E947C12082F10E080918901811195
:104420005DC080918201609185018D5F0E947C1248
:10443000A701B80190E00E94540EBC017093800166
:1044400060937F0170937E0160937D019091840160
:10445000492F50E0440F551F809191019A0181111D
:1044600008C0292F26952695240F352F311D27703A
:10447000332730937C0120937B0180919001882326
:1044800061F030937A012093790170937C016093FD
:104490007B0130937E0120937D0180917B0190917F
:1044A0007C010E943E1280937501909191019923A5
:1044B000E1F0809175019091760190937401809361
:1044C000730180917F01909180019093720180939C
:1044D0007101909376018093750108C680918101E6
:1044E000A7CF70E0660F771FA9CF90E0909374017B
:1044F0008093730120917F01822F90E0909372014D
:104500008093710120937501F1C580917F01909195
:1045100080010E943E1290E00E94C21369C810926E
:1045200084011092860186E08093850180918E013E
:1045300090918F0190938D0180938C0184E090E0A5
:10454000909383018093820166E085E00E947C1253
:1045500090E00E9462018C0180918201609185014E
:104560008E5F0E947C1220918C0130918D01829F80
:104570007001839FF00C1124E00EF11E6091850103
:10458000809182010E947C12082F10E080918901A5
:10459000811155C080918201609185018D5F0E94DB
:1045A0007C12A701B80190E00E94540EAC019093D8
:1045B000800180937F0190937E0180937D01909193
:1045C0008401692F70E0660F771F809191019B0134
:1045D000811108C0292F26952695260F372F311DCA
:1045E0002770332730937C0120937B0180919001C9
:1045F000882361F030937A012093790150937C01F4
:1046000040937B0130937E0120937D0180917D0159
:1046100090917E010E943E128093760190919101CB
:10462000992381F0809175019091760190937401A6
:1046300080937301809176019091770146CF8091AC
:104640008101AFCF2091750130E030937401209348
:104650007301282F30E03093720120937101809311
:1046600075013093700120936F0160917501809105
:104670007B0190917C010C94BC1980917F019091F9
:1046800080010E943E12809375016091910190E03B
:10469000662321F0809175019091760170E06F5F43
:1046A0007F4FE3E0660F771FEA95E1F79B0121500A
:1046B000310902C0959587952A95E2F7817099276F
:1046C000909383018093820180916E01882339F158
:1046D000809198019091990101969093990180930E
:1046E000980180918C01082E000C990B90937A010F
:1046F000809379010097E9F4E0918401E83010F0AB
:104700000C94F81AF0E0E957FC4D0C943D319324D9
:104710001225AF25562600272D27F81A3F2780910E
:1047200090018111B8C081E090E090937A0180936C
:10473000790120918401243070F52695620F711D56
:104740000E94153190937A018093790180917F01C5
:10475000909180010E943E12809375019091910189
:10476000992309F49DC080918201909183019093D7
:1047700074018093730180917501909176019093FB
:1047800072018093710190938301809382019093D1
:10479000700180936F018091840180FF08C0809137
:1047A0007F01909180010E943E128093750180915B
:1047B0009101882309F47EC0809175019091760162
:1047C00090937401809373012091790130917A0163
:1047D000209371013093720102C0969587952A95B6
:1047E000E2F7909376018093750190937001809326
:1047F0006F016091750180917F01909180010E940D
:10480000ED1280918401843018F080E10E94B7128B
:1048100080918401853008F465C020917901309140
:104820007A0121503109809173019091740102C085
:10483000969587952A95E2F7817099270E94BA1379
:1048400080919101882309F456C08091750190915F
:1048500076019093740180937301209179013091D6
:104860007A01209371013093720102C0880F991F61
:104870002A95E2F7909376018093750190937001E9
:1048800080936F016091750180917F01909180010B
:104890000E94ED1231CF809102008F7190E026CFFF
:1048A0002091820130918301309374012093730130
:1048B00090E065CF8091750190E0909374018093B2
:1048C000730120917901422F50E05093720140937F
:1048D000710102C0959587952A95E2F7809375013D
:1048E000992783CF80917F01909180010E943E1291
:1048F00080937501A5CF8091750190E0909374012C
:104900008093730120917901422F50E050937201FE
:104910004093710102C0880F991F2A95E2F7809396
:1049200075019927ABCF80917F01909180010E9402
:104930003E128093750190919101409179015091BF
:104940007A01992309F44FC02091750130917601C5
:104950003093740120937301892F90E0019673E0E6
:10496000880F991F7A95E1F7841B950B409182017E
:104970005091830102C0569547958A95E2F750936E
:10498000720140937101240F351F309376012093FB
:1049900075013093700120936F01609175018091D2
:1049A0007F01909180010E94ED12F09091010091A1
:1049B0006F0110917001C801817099270E94BA138C
:1049C000F8E0FF9E90011124295F3F4F02C015952A
:1049D00007952A95E2F701701127082E000C990B14
:1049E0008027912797C8282F30E0309374012093B7
:1049F00073012091820130E068E070E0641B750B68
:104A000002C0359527956A95E2F73093720120939D
:104A10007101820F8093750190E0909370018093F3
:104A20006F01BBCF81E090E00090790102C0880F58
:104A3000991F0A94E2F70197209182013091830136
:104A400082239323909383018093820180917F013D
:104A5000909180010E943E12809375019091910186
:104A60004091790150917A01992309F459C020911C
:104A70007501309176013093740120937301892F71
:104A800090E0019663E0880F991F6A95E1F7841B17
:104A9000950B409182015091830102C0440F551F34
:104AA0008A95E2F75093720140937101240F351FEC
:104AB00030937601209375013093700120936F013C
:104AC0006091750180917F01909180010E94ED12AB
:104AD0000091910180916F01909170017C01EE0C29
:104AE000FF1C28E0029F80011124095F1F4F002E48
:104AF00002C0959587950A94E2F7817099270E94E4
:104B0000BA1302C0F594E7940A95E2F731E0E32284
:104B1000FF24082E000C990B8E259F250C948A1DCE
:104B2000282F30E03093740120937301209182018B
:104B300030E068E070E0641B750B02C0220F331F89
:104B40006A95E2F73093720120937101820F80938E
:104B5000750190E09093700180936F01B1CF8091C7
:104B60007F01909180010E943E1280937501909187
:104B700091016091790170917A01992309F46BC0D8
:104B80002091750130917601309374012093730167
:104B900048B150E0FB01319702C0440F551FEA9520
:104BA000E2F7892F90E0019613E0880F991F1A957C
:104BB000E1F7861B970B019660918201709183014A
:104BC00002C0769567958A95E2F7709372016093BB
:104BD0007101240F351F260F371F30937601209364
:104BE00075013093700120936F0160917501809180
:104BF0007F01909180010E94ED12E090910100915F
:104C00006F0110917001F12C4FEFE41AF40AB3E038
:104C1000EE0CFF1CBA95E1F78091790190917A0131
:104C20009701281B390B81E090E002C0880F991F83
:104C30002A95E2F720918201309183018223932308
:104C40000E94BA1351E0E51AF10802C015950795C4
:104C5000EA94E2F7C0CE282F30E03093740120931D
:104C6000730128B130E0AB014150510902C0220F5D
:104C7000331F4A95E2F74091820150E0E9E0F0E00D
:104C8000E61BF70B02C055954795EA95E2F750935E
:104C9000720140937101420F531F840F809375017D
:104CA00090E09093700180936F019FCF80917F017E
:104CB000909180010E943E12809375019091910124
:104CC0004091790150917A01992309F46DC02091A6
:104CD0007501309176013093740120937301892F0F
:104CE00090E00196A3E0880F991FAA95E1F7841B35
:104CF000950B48B150E0082E02C0440F551F0A948E
:104D0000E2F7BC016F5F7F4F809182019091830138
:104D100002C0880F991F6A95E2F790937201809301
:104D20007101840F951F280F391F3093760120934E
:104D300075013093700120936F016091750180912E
:104D40007F01909180010E94ED12209179013091B4
:104D50007A012150310981E090E002C0880F991F4B
:104D60002A95E2F7209182013091830182239323D7
:104D70000E94BA132091910180916F01909170016E
:104D8000E8E02E9F90011124295F3F4FAC01440FB2
:104D9000551F8427952702C0959587952A95E2F798
:104DA000817099270C948A1D282F30E0309374016C
:104DB0002093730168B170E0E8E0F0E0E41BF50BCC
:104DC00002C0660F771FEA95E2F72091820130E07A
:104DD000E9E0F0E0E41BF50B02C0220F331FEA9577
:104DE000E2F73093720120937101260F371F820F73
:104DF0008093750190E09093700180936F019DCF37
:104E000020919101F8E02F9F90011124295F3F4FDD
:104E100000916F0110917001022E02C01595079547
:104E20000A94E2F7017011274091790150917A01BB
:104E300041505109809173019091740102C0880F13
:104E4000991F4A95E2F702C0969587952A95E2F751
:104E5000817099270E94BA13C0CD2091910148E03A
:104E6000249F90011124295F3F4F809173019091FD
:104E7000740102C0969587952A95E2F791CF8091AB
:104E8000910190E00196E3E0880F991FEA95E1F720
:104E90002091790130917A012817390730F08091FB
:104EA0008201909183010E94BA1390E080E00E94F9
:104EB0006B1380917F01909180010E943E1280933C
:104EC000750140919101442309F446C02091750178
:104ED00030917601309374012093730150E04F5F5D
:104EE0005F4F73E0440F551F7A95E1F781E090E042
:104EF00002C0880F991F4A95E2F701970090790147
:104F000002C0959587950A94E2F7809590956091F7
:104F1000820170918301869FA001879F500D969F0B
:104F2000500D1124509383014093820150937201DC
:104F300040937101240F351F309376012093750142
:104F40003093700120936F016091750180917F0112
:104F5000909180010C94BC19282F30E0309374019B
:104F60002093730191010090790102C03595279536
:104F70000A94E2F72095309590918201929F902DAE
:104F8000112490938201292F30E0309372012093F5
:104F90007101890F8093750190E090937001809367
:104FA0006F01D2CF60910200609375016150770B61
:104FB00081E090E00E943213209175012150330B63
:104FC00030937A0120937901809192018130F1F040
:104FD00078F08330F9F060918E0140917901509121
:104FE0007A0164039001659F300D11240C945319CC
:104FF00081E090E04BB1442311F090E080E0822307
:10500000932390937A0180937901E5CF9BB1892F07
:1050100090E0F5CF609102007091030060937501FC
:1050200077276F5F7F4F81E090E00E94321380917D
:105030007501811103C082E090E0E3CF81E090E050
:10504000E0CF209190018091980190919901039671
:10505000821B91099093990180939801309191015D
:1050600031110EC0222309F110929901109298017A
:1050700060918A0170918B0189E090E00E94321367
:1050800020918E0130918F0180919001882311F43D
:105090000C94531980919101882311F40C945319A5
:1050A000022E000C330B0C9453190E94FD13E8CF11
:1050B00080917D0190917E010E943E128093760145
:1050C000909191019923B9F08091750190917601A9
:1050D0009093740180937301209176013091770150
:1050E0003093720120937101822393239093700176
:1050F00080936F01BACA90917501292F30E03093E7
:10510000740120937301282F30E0309372012093B3
:105110007101892390E0EACF81E0809391011092A0
:105120007E0110927D018091920190E0880F991F7D
:1051300090937C0180937B0180917B0190917C0115
:1051400020917D0130917E012817390711F40C94CC
:10515000F81A0E943E128093760190919101992352
:1051600009F471C08091750190917601909374015A
:105170008093730120917601309177013093720111
:105180002093710182279327909376018093750174
:105190009093700180936F016091750180917D0102
:1051A00090917E010E94ED1280917D0190917E018F
:1051B0000E943E128093760190919101992309F407
:1051C00055C0809175019091760190937401809300
:1051D0007301209176013091770130937201209311
:1051E00071018227932790937601809375019093A4
:1051F000700180936F016091750180917B019091A6
:105200007C010E94ED1280917B0190917C010E94B3
:105210003E1280937601909191019923D1F1809172
:1052200075019091760190937401809373012091A0
:1052300076013091770130937201209371018227BA
:1052400093270C94E71C90917501292F30E030933F
:10525000740120937301282F30E030937201209362
:10526000710189278093750190E092CF909175012B
:10527000292F30E03093740120937301282F30E000
:10528000309372012093710189278093750190E01A
:10529000AECF90917501292F30E0309374012093A7
:1052A0007301282F30E03093720120937101892718
:1052B0000C94FE1C80918901882309F4A0C0809180
:1052C000810190E090938301809382018091880115
:1052D000882309F497C08091020090910300909375
:1052E0007A01809379018091790190917A01892BDB
:1052F00009F4A5C080916E0180FD87C050E040E0B8
:1053000066E070E080918201909183010E94540ECA
:105310000E943E128093760190919101992309F4A5
:1053200077C080917501909176019093740180937C
:10533000730180917601909177019093720180932F
:105340007101909376018093750190937001809321
:105350006F011091750180916E01823008F06CC070
:1053600050E040E067E070E088E090E00E94540E7A
:10537000612F0E94ED1280916E0180FD1BC08FB1E4
:1053800090E0880F991F01972091910130E02F5FE5
:105390003F4F829FA001839F500D929F500D11247B
:1053A00060910C0070910D00641B750B86E090E01D
:1053B0000E94321380916E0181FD1BC08FB190E07D
:1053C000880F991F01972091910130E02F5F3F4F87
:1053D000829FA001839F500D929F500D11246091D8
:1053E0000E0070910F00641B750B87E090E00E9427
:1053F00032138091790190917A01019770CF8BE0FF
:1054000090E060CF81E090E06ACF90E080E080CFD4
:105410002091750130E03093740120937301282F9F
:1054200030E03093720120937101809375013093C5
:10543000700120936F018DCF90E080E099CF809133
:105440008801882311F40C94F81A70E060E081E080
:1054500090E00C94541E80918901882391F08091F2
:10546000810190E090938301809382018091880173
:1054700081110AC081E090E090937A0180937901D4
:105480000FC08BE090E0EECF80910200909103007E
:1054900090937A0180937901892B11F40C94F81A76
:1054A0008091790190917A01892B09F4B1C050E083
:1054B00040E067E070E088E090E00E94540E0E94B7
:1054C0003E1280937601909191011091750199237C
:1054D00009F489C0809175019091760190937401CF
:1054E000809373012091760130917701309372019E
:1054F00020937101821B930B9093700180936F0135
:1055000080916E01811181C050E040E066E070E062
:1055100080918201909183010E94540E612F0E941C
:10552000ED1280916E0181111BC08FB190E0880F48
:10553000991F01972091910130E02F5F3F4F829F8B
:10554000A001839F500D929F500D112460910C007B
:1055500070910D00641B750B86E090E00E94321381
:1055600060910200609375016150770B81E090E0DB
:105570000E9432138FB190E0880F991F01972091FC
:10558000910130E02F5F3F4F829FA001839F500D1C
:10559000929F500D112460910E0070910F00641BBA
:1055A000750B87E090E00E94321380918801882378
:1055B00009F435C680917501813081F081E090E079
:1055C00020916F0130917001232B11F090E080E069
:1055D00020916B012817190609F462CF10927A0105
:1055E000109279015DCF212F30E030937401209328
:1055F000730190E09093720180937101281B390B25
:105600003093700120936F017BCF90E080E086CFD4
:1056100083E090E090936A01809369010C94341DBB
:1056200080919101809390018091980190919901CE
:105630000E94C21380916E01882331F08091120084
:10564000909113000E94C21380916E0181FF0BC0E4
:105650008091790190917A010E94C21390E00E949A
:105660004D130C94F81A8091900181110C94F81A42
:1056700060918E0170918F018091080090910900D6
:10568000680F791F84E090E00C94541E80917B0198
:1056900090917C010E943E1280937501909191013E
:1056A000992371F080917501909176019093740126
:1056B0008093730180918A0190918B010C946522F3
:1056C00090E0909374018093730120918A010C946F
:1056D0007C22109289018091A90181508093A901B7
:1056E0008093AB018091430599E08927809343051E
:1056F00080916E018823C1F1809104009091050092
:1057000090937A01809379018036910599F51092F2
:10571000CD018091000080937501E0917901F091B5
:105720007A0190919101E759FE4F992309F45CC0E9
:10573000809175019091760190937401809373012B
:105740008081918190937201809371019093760191
:10575000809375019093700180936F016091750142
:1057600090E080E00C94861E80918E0190918F01D4
:105770009927C6CF853D934061F680913D0590E025
:1057800095958795079729F68EE994E00E943E1239
:10579000182F8DE994E00E943E1290E0FC0120E574
:1057A000129FE00DF11D11248F018DEA94E00E94FB
:1057B0003E12080F111D80913D05282F217080FF9A
:1057C00010C08FEF90E00823192380E0211101C061
:1057D00088E002C0169507958A95E2F700933E058A
:1057E00098CF80E09FEFEFCF90E09093740180938B
:1057F00073012081822F90E0909372018093710158
:1058000020937501A7CF80916E01882309F4AEC063
:10581000209104003091050030937A0120937901A2
:10582000809100008093750190919101F901E759F1
:10583000FE4F992309F4A0C0808191819093740157
:10584000809373018091750190917601909372011C
:1058500080937101918380839093700180936F0195
:105860002136310509F09AC010926801909100002C
:10587000937080916701892B8093670180917901F2
:1058800090917A01853D934091F420913D05822FBE
:1058900090E095958795069751F4609100008EEA07
:1058A00094E020FF02C08DEA94E00E94ED12809106
:1058B000790190917A01853D934011F00C94F81A8A
:1058C00080913D0590E095958795079711F00C9490
:1058D000F81A8EE994E00E943E12182F8DE994E0A8
:1058E0000E943E12E82EF12CF0E51F9FE00CF11C07
:1058F00011248DEA94E00E943E12E80EF11C809182
:105900003D05282F217080FF65C080E09FEFE822D1
:10591000F9220091000010E0B12C211102C0A8E092
:10592000BA2E8DEA94E00E943E1202C0000F111FB1
:10593000BA94E2F7081B1109C8018E0D9F1D9093C0
:10594000830180938201B6010E941531682F8DE991
:1059500094E00E94ED128091820190918301B60142
:105960000E9415318EE994E00C94BC1920918E01AF
:1059700030918F01332750CF408150E05093740114
:1059800040937301482F50E050937201409371018E
:1059900080835093700140936F0162CFC9018D7F66
:1059A0008034910509F06ACF8091AC01867009F4CA
:1059B00065CF609100009091680181E098279093F5
:1059C0006801A201491B5109CA01820F931F0E945D
:1059D000ED1254CF8FEF90E09ACF82E08093880150
:1059E0008091910180936B0180918901882311F44A
:1059F0000C94F81A8F5F809389010C94F81A8091A7
:105A00006E010C94E31980916E010C94E91982E007
:105A10008093890180916E0180938101809188013A
:105A2000882311F40C94F81A8F5F809388010C94EA
:105A3000F81A1092910190916E018091000080936C
:105A400075019923E9F180910000282F30E030930F
:105A50008301209382018F7061E08A3020F48AB143
:105A6000811101C060E08AE290E00E942E136091F3
:105A7000750190E080E00E942E13809100008093D9
:105A80007501809182018A3908F04FC081E098B198
:105A9000911101C080E090E00E94BA13882351F078
:105AA0008091750180568093750190E0909370010C
:105AB00080936F016091750190E080E00E942E1349
:105AC00080910000282F30E03093830120938201E1
:105AD0008F7061E08A3020F48AB1811101C060E0EA
