:100000000C94BD000C94E5000C94E5000C94E50004
:100010000C94E5000C94E5000C94E5000C94E500CC
:100020000C94E5000C94E5000C94E5000C94E500BC
:100030000C94E5000C94E5000C94E5000C94E500AC
:100040000C943A0B0C94E5000C94080B0C94E20A07
:100050000C94E5000C94E5000C94E5000C94E5008C
:100060000C94E5000C94E50000000000240027003B
:100070002A0000000000250028002B0004040404CE
:100080000404040402020202020203030303030342
:10009000010204081020408001020408102001021F
:1000A00004081020000000080002010000030407FB
:1000B00000000000000000002E20446F6E6521004B
:1000C0002E20446F6E652120496E69742066696C2C
:1000D0006573797374656D00496E697420534420AB
:1000E00063617264004D616368696E652068616C6C
:1000F00074656421005374617274696E6720763888
:10010000362E2E2E00436F7079726967687420282E
:100110004329203230323120407261737069647536
:10012000696E6F2C20756E6465722047504C2D7679
:1001300033006176722D763836202D20496E746535
:100140006C203830383620656D756C61746F7220A4
:1001500072756E6E696E67206F6E2041726475698C
:100160006E6F20554E4F007C3C3E5E2B3D3F2F5B1B
:100170005D3B2C2A225C0000840B11241FBECFEFB4
:10018000D8E0DEBFCDBF11E0A0E0B1E0ECE6FDE1DC
:1001900002C005900D92A234B107D9F725E0A2E480
:1001A000B1E001C01D92A033B207E1F710E0CDEB42
:1001B000D0E004C02197FE010E94980ECC3BD107ED
:1001C000C9F70E94BA0B0C94B40E0C940000AF92C5
:1001D000BF92CF92DF92EF92FF920F931F93CF9334
:1001E000DF936C017B018B01040F151FEB015E0196
:1001F000AE18BF08C017D10759F06991D601ED912B
:10020000FC910190F081E02DC6010995892B79F7C9
:10021000C501DF91CF911F910F91FF90EF90DF907B
:10022000CF90BF90AF900895FC01538D448D252F42
:1002300030E0842F90E0821B930B541710F0CF9680
:10024000089501970895FC01918D828D981761F0B2
:10025000A28DAE0FBF2FB11D5D968C91928D9F5FC9
:100260009F73928F90E008958FEF9FEF0895FC01A8
:10027000918D828D981731F0828DE80FF11D858D5B
:1002800090E008958FEF9FEF0895FC01918D228DEE
:10029000892F90E0805C9F4F821B91098F73992773
:1002A00008958FE794E00E94450121E0892B09F42D
:1002B00020E0822F089580E090E0892B29F00E94B1
:1002C000510181110C9400000895FC01A48DA80F28
:1002D000B92FB11DA35ABF4F2C91848D90E0019688
:1002E0008F739927848FA689B7892C93A089B189A8
:1002F0008C91837080648C93938D848D981306C049
:100300000288F389E02D80818F7D80830895EF92AC
:10031000FF920F931F93CF93DF93EC0181E0888FBF
:100320009B8D8C8D98131AC0E889F989808185FF8F
:1003300015C09FB7F894EE89FF896083E889F98931
:1003400080818370806480839FBF81E090E0DF9133
:10035000CF911F910F91FF90EF900895F62E0B8D86
:1003600010E00F5F1F4F0F731127E02E8C8D8E1141
:100370000CC00FB607FCFACFE889F989808185FFA8
:10038000F5CFCE010E946501F1CFEB8DEC0FFD2F73
:10039000F11DE35AFF4FF0829FB7F8940B8FEA8963
:1003A000FB8980818062CFCFEF92FF920F931F93E2
:1003B000CF93DF938C017B01D0E0C0E0F701EC0F1D
:1003C000FD1F6491662339F0C8010E948701892BC3
:1003D00011F02196F3CFCE01DF91CF911F910F91B4
:1003E000FF90EF900895CF93DF93EC01888D8823E1
:1003F000B9F0AA89BB89E889F9898C9185FD03C088
:10040000808186FD0DC00FB607FCF7CF8C9185FF6C
:10041000F2CF808185FFEDCFCE010E946501E9CF4B
:10042000DF91CF91089590E0FC01EC55FF4F2491AE
:10043000FC01E057FF4F3491FC01E458FF4FE49179
:10044000EE23C9F0222339F0233001F1A8F4213042
:1004500019F1223029F1F0E0EE0FFF1FEE58FF4FA7
:10046000A591B4918FB7F894EC91611126C03095A5
:100470003E233C938FBF08952730A9F02830C9F060
:10048000243049F7809180008F7D03C080918000E7
:100490008F7780938000DFCF84B58F7784BDDBCFEB
:1004A00084B58F7DFBCF8091B0008F778093B000B3
:1004B000D2CF8091B0008F7DF9CF3E2BDACFCF9392
:1004C000DF9390E0FC01E057FF4F249184589F4F49
:1004D000FC0184918823D1F090E0880F991FFC01E2
:1004E000E859FF4FA591B491FC01EE58FF4FC5911B
:1004F000D49161110EC09FB7F8948C91E22FE095D2
:100500008E238C932881E223E8839FBFDF91CF91D4
:1005100008958FB7F894EC91E22BEC938FBFF6CF50
:100520002FB7F89460914C0170914D0180914E016C
:1005300090914F012FBF08958EBD0DB407FEFDCFE2
:10054000089561E0FC0182810E9413028FEF0C94F8
:100550009C028FEF8EBD0DB407FEFDCF8EB50895C2
:10056000FF920F931F93CF93DF93F82E8B010E947E
:100570009002EB010E94A9028F1571F00E94900277
:100580006C1B7D0B06171707A8F780E0DF91CF9152
:100590001F910F91FF90089581E0F8CFCF92DF92E5
:1005A000EF92FF921F93CF93DF93FC01162F690107
:1005B0007A01838122E090E0281728F4963019F020
:1005C000220F9F5FF9CF292F206A26952CBD90FD21
:1005D00003C021E0963009F420E02DBD60E0828167
:1005E0000E94130268E572E08FEF0E94B002812F33
:1005F00080640E949C02C8E1D0E0D701C6010C2EA5
:1006000004C0B695A795979587950A94D2F70E944E
:100610009C022897C83F8FEFD80779F78FEF111109
:1006200001C085E90E949C02C0E00E94A90287FFE8
:1006300004C0CF3F11F0CF5FF8CFDF91CF911F9172
:10064000FF90EF90DF90CF900895CF93DF93EC0170
:100650009A01AB0189E0220F331F441F551F8A9571
:10066000D1F768E1CE010E94CE02882349F083E0F1
:100670008883CE010E94A10280E0DF91CF9108958E
:100680008EEF8EBDEFE7F2E00DB407FEFDCF819156
:100690008EBD84E0EF37F807B9F70DB407FEFDCF44
:1006A0008FEF0E949C028FEF0E949C020E94A90281
:1006B000982F9F71953019F0898386E0D9CF68E52E
:1006C00072E08FEF0E94B002811105C087E088833D
:1006D000CE010E94A102CE010E94A10281E0CDCFF5
:1006E0000F931F93CF9380914601C1E0882399F027
:1006F0000091750210917602409100015091010124
:100700006091020170910301C8010E942503C82F66
:10071000811106C0C0E08C2FCF911F910F910895D9
:100720004091420150914301609144017091450113
:10073000411551056105710569F0C8010E94250345
:10074000882341F310924201109243011092440118
:100750001092450110924601DECFCF92DF92EF92C8
:10076000FF921F93CF93DF936B017C01142F809135
:10077000000190910101A0910201B09103018C153B
:100780009D05AE05BF0509F44FC00E947003882384
:10079000C9F0C0917502D0917602A701960189E057
:1007A000220F331F441F551F8A95D1F761E1CE01F7
:1007B0000E94CE02882371F084E08883CE010E94DB
:1007C000A10280E0DF91CF911F91FF90EF90DF9029
:1007D000CF9008956CE271E08EEF0E94B00281111B
:1007E00005C085E08883CE010E94A1028FEF8EBDF7
:1007F000EFE7F2E00DB407FEFDCF9EB591938EBDFD
:1008000094E0EF37F907B1F70DB407FEFDCF0E9472
:10081000A902CE010E94A102C0920001D092010162
:10082000E0920201F092030181E0112359F28093DA
:100830004601C8CF4F925F926F927F929F92AF9284
:10084000BF92CF92DF92EF92FF920F931F93CF93BD
:10085000DF9324E632E030937602209375028823FA
:1008600009F4DEC040E060E070E0CB010E94AD031F
:10087000811112C0D0E08D2FDF91CF911F910F9188
:10088000FF90EF90DF90CF90BF90AF909F907F90C0
:100890006F905F904F900895C0904504D0904604AB
:1008A000E0904704F090480440E0C701B6010E9480
:1008B000AD03D82F8823F1F280917D048535D1F6E0
:1008C00080917E048A3AB1F690908F0290927402E1
:1008D000C0918C02C0937E02009195021091960205
:1008E0001093730200937202209190023091910252
:1008F0003093780220937702A0908D02B0908E0200
:10090000D701C6018A0D9B1DA11DB11D80936E02EA
:1009100090936F02A0937002B0937102909EA00119
:10092000919E500D1124840F951FA11DB11D809320
:100930006A0290936B02A0936C02B0936D0245E043
:10094000220F331F4A95E1F721503E4F232F3327C3
:100950002695820F931FA11DB11D80937A0290935B
:100960007B02A0937C02B0937D0240909202509053
:100970009302712C612C4114510441F440909F0268
:100980005090A0026090A1027090A202C81AD90AE9
:10099000EA0AFB0AC701B601640D751D861D971D85
:1009A0002C2F30E050E040E00E94670E3093690247
:1009B0002093680260918A0270918B0261157240E7
:1009C00009F058CF0115110509F454CF253F6FE008
:1009D000360708F44FCF81E04816510480E86806D6
:1009E000710408F047CFAB2809F444CF992009F4EB
:1009F00041CFC32EDD240C151D0508F43BCFCC23BD
:100A000009F438CF8C2F90E09C01215031098223CA
:100A10009323892B09F02ECF81E0809379022BCF8D
:100A2000C12CD12C760140CFCF92DF92EF92FF9272
:100A30000F931F93CF93DF938230910550F480E0A2
:100A4000DF91CF911F910F91FF90EF90DF90CF90AA
:100A5000089520916802309169022F5F3F4F281757
:100A6000390768F3EB018C01212F3327C0906E0208
:100A7000D0906F02E0907002F0907102C20ED31E0F
:100A8000E11CF11C8091000190910101A0910201F3
:100A9000B0910301C816D906EA06FB0689F4F801ED
:100AA000FF27EE0FFF1FE158FD4FD183C08381E088
:100AB0008093460180917402823050F481E0C0CF6F
:100AC00040E0C701B6010E94AD038111E8CFB7CF66
:100AD0008091720290917302C80ED91EE11CF11C24
:100AE000C0924201D0924301E0924401F09245014C
:100AF000E5CFCF92DF92EF92FF920F931F93CF93A8
:100B0000DF9320916802309169022F5F3F4F2817D1
:100B1000390750F480E0DF91CF911F910F91FF9042
:100B2000EF90DF90CF9008958B01EC012D2F3327AC
:100B300060916E0270916F028091700290917102CB
:100B4000620F731F811D911DC0900001D0900101A3
:100B5000E0900201F09003016C157D058E059F0564
:100B600061F4DD27CC0FDD1FC158DD4F88819981ED
:100B7000F8019183808381E0CECF40E00E94AD03F5
:100B80008111EFCFC7CF4F925F926F927F928F927A
:100B90009F92AF92BF92CF92DF92EF92FF920F930C
:100BA0001F93CF93DF93EC016A017B018D818370EA
:100BB00091F480E0DF91CF911F910F91FF90EF9022
:100BC000DF90CF90BF90AF909F908F907F906F906D
:100BD0005F904F9008958A859B85AC85BD858C1567
:100BE0009D05AE05BF0528F3C114D104E104F1044D
:100BF00041F41F861E86188A198A1A8A1B8A81E088
:100C0000D9CF80907E02912CB12CA12CCB01BA01BE
:100C1000615071098109910939E096958795779519
:100C200067953A95D1F7A50194010E94670E890155
:100C300088899989AA89BB89C816D906EA06FB065C
:100C400020F00097A105B105A9F4888599859F87B3
:100C50008E875E018EE0A80EB11C01151105F1F022
:100C6000B5018E859F850E9479050150110981117A
:100C7000F4CF9FCFBC01CD01615071098109910969
:100C800029E096958795779567952A95D1F7A501DF
:100C900094010E94670E021B130BDBCFC88AD98A0E
:100CA000EA8AFB8AACCFCF93DF9320917702309111
:100CB00078028217930728F090E080E0DF91CF91CF
:100CC0000895462FEC019C0154E0369527955A95DE
:100CD000E1F760916A0270916B0280916C029091D1
:100CE0006D02620F731F811D911D0E94AD03882349
:100CF00019F3CE018F70992725E0880F991F2A9547
:100D0000E1F781589D4FDACFCF93DF93FC01258126
:100D100027FF18C0EC0161E0868197810E9453068D
:100D20000097A1F04A855B856C857D85FC01448F29
:100D3000558F668F778F28853985338F228F8D81E8
:100D40008F778D83DF91CF910C94700380E0DF91DA
:100D5000CF9108958CE195E00E94840610922105C0
:100D60000895CF92DF92EF92FF920F931F93CF934C
:100D7000DF9300D0CDB7DEB77C01FC010685178577
:100D80000115110511F401E010E0D12CC12C809166
:100D9000680290916902C816D906F8F48017910785
:100DA00010F401E010E00F5F1F4FBE016F5F7F4F37
:100DB000C8010E947905882381F089819A81892B55
:100DC00021F0FFEFCF1ADF0AE2CF6FEF7FEFC8010C
:100DD0000E941405D82E81110DC0D12C8D2D0F909D
:100DE0000F90DF91CF911F910F91FF90EF90DF90C7
:100DF000CF900895F70186859785009749F0B8014F
:100E00000E941405882349F3F70117870687E6CF68
:100E100085818068858311870087F6CF089590E0EB
:100E200080E008954F925F926F927F928F929F928F
:100E3000AF92BF92CF92DF92EF92FF920F931F93E8
:100E4000CF93DF935C018B018091210580FD13C05E
:100E50008FEF9FEFDF91CF911F910F91FF90EF9058
:100E6000DF90CF90BF90AF909F908F907F906F90CA
:100E70005F904F90089580912C0590912D05A09141
:100E80002E05B0912F0540912605509127056091C0
:100E90002805709129056C017D01C00ED11EE11C51
:100EA000F11C4C155D056E057F0518F48A01081BC1
:100EB000190B7801812C32E0932EE114F10409F42E
:100EC00086C080912C0590912D05A0912E05B091A2
:100ED0002F05C0907E02AC01BD0129E07695679593
:100EE000579547952A95D1F7DD24DA94DC0CD42266
:100EF000EC01D170DD2009F448C020912A05309121
:100F00002B0522503109AC2DB0E00E94890E409093
:100F10007A0250907B0260907C0270907D02640D9A
:100F2000751D861D971D6D0D711D811D911D40E064
:100F30000E94AD03882309F48BCFC4018C1B9D0B49
:100F400067018E159F0508F46C01BE0161587D4F45
:100F5000A601C5010E94AB0E80912C0590912D0534
:100F6000A0912E05B0912F058C0D9D1DA11DB11DC9
:100F700080932C0590932D05A0932E05B0932F05FB
:100F8000AC0CBD1CEC18FD0898CF209709F0B5CF2C
:100F900080912A0590912B05009791F4809124056A
:100FA0009091250590932B0580932A0580912A0521
:100FB00090912B050297863F9F4F08F49ECF48CF14
:100FC0006AE275E00E9479058111F0CF41CFC80136
:100FD00041CFCF93DF931F92CDB7DEB761E070E0D2
:100FE000CE0101960E941207019731F4898190E0A9
:100FF0000F90DF91CF9108958FEF9FEFF9CF2F9250
:101000003F924F925F926F927F928F929F92AF9298
:10101000BF92CF92DF92EF92FF920F931F93CF93E5
:10102000DF9300D0CDB7DEB78C015B014A01FC0134
:10103000858181FFDEC082FDC9C06401212C32E0C0
:10104000332EF80180899189A289B38970907E023C
:10105000AC01BD0129E076956795579547952A958E
:10106000D1F766246A94670C64227C01F1E0FF22C8
:1010700061101FC0F80186859785E114F10409F01D
:10108000E5C0009709F4B9C0BE016F5F7F4F0E94B1
:101090007905882309F4ADC089819A81883FFFEFE3
:1010A0009F0708F4C9C0C8010E94B106882309F44B
:1010B000A0C0F8012685378522503109A72DB0E060
:1010C0000E94890E20917A0230917B0240917C022D
:1010D00050917D02620F731F841F951F9B01AC010D
:1010E000260D311D411D511D29013A01E114F10464
:1010F00009F0BFC0F80140895189628973898285EE
:101100009385A485B585481759076A077B0708F4B6
:10111000B0C00E947003882309F46BC040920001A4
:1011200050920101609202017092030181E080936C
:10113000460131016E187F08C614D70408F4360141
:10114000A301B501C70181589D4F0E94AB0EF80164
:1011500080899189A289B389860D971DA11DB11D32
:10116000808B918BA28BB38BC618D708A60CB71CAB
:10117000C114D10409F065CF428553856485758516
:10118000481759076A077B0738F4258182879387B8
:10119000A487B58720682583F801858183FD50C029
:1011A000C4010F900F90DF91CF911F910F91FF908D
:1011B000EF90DF90CF90BF90AF909F908F907F90F7
:1011C0006F905F904F903F902F9008954285538588
:1011D0006485758580899189A289B38948175907E3
:1011E0006A077B0709F429CFC8010E94C305811152
:1011F00024CF81E0F801848343C0808591850097E6
:10120000D9F4C8010E94B106882399F3F801268514
:10121000378522503109A72DB0E00E94890E4090F9
:101220007A0250907B0260907C0270907D02460EA4
:10123000571E681E791E5ECFF8019787868739CFC3
:10124000C8010E9484068111ABCFD3CF9C012250EC
:101250003109A72DB0E00E94890E40907A0250908B
:101260007B0260907C0270907D02460E571E681EC5
:10127000791E41E0C301B2010E94AD03811159CF33
:101280008FEF9FEF8ECFCF93DF931F92CDB7DEB757
:10129000698341E050E0BE016F5F7F4F0E94FF070E
:1012A00021E030E0019711F030E020E0C9010F901B
:1012B000DF91CF9108950F931F93CF93DF93D09138
:1012C0007902D11107C0D0E08D2FDF91CF911F910E
:1012D0000F910895209121052370A9F7C62F8C0145
:1012E00060E00E945306FC01892B69F3808188230A
:1012F00051F3853E41F38385982F987121F780FF44
:1013000003C08C2F8271F9F610922B0510922A05DA
:1013100010922C0510922D0510922E0510922F057B
:101320001093230500932205848D958DA68DB78D8E
:101330008093260590932705A0932805B09329054F
:10134000828D938D9093250580932405CF70C09353
:101350002105BACFAF92BF92CF92DF92FF920F9347
:101360001F93CF93DF93CDB7DEB72B970FB6F894CB
:10137000DEBF0FBECDBF382F80917902882309F4DC
:1013800068C0209121052370B9F4FE013196AE01A9
:10139000445F5F4F6F0180E28193E417F507E1F747
:1013A000A32FB92F90E027E08D91382F882321F1CA
:1013B0008E3239F42A3011F480E04BC098E02AE0F4
:1013C000F3CFE7E6F1E04491442321F03196841312
:1013D000FACFF2CF291780F34FED480F4E3560F763
:1013E0004FE9480F4A3110F430EE380FF601E90F9B
:1013F000F11D30839F5FD8CF89818032E9F2F62ECC
:1014000010E000E0AA24AA94BA2C8091770290916F
:1014100078020817190790F560E0C8010E9453068A
:10142000BC01009749F2FC019081992311F1953E8E
:1014300029F4B7FC20C00F5F1F4FE7CF4BE050E00F
:10144000C6010E949E0E892BB1F76F2DC8010E9424
:101450005B092B960FB6F894DEBF0FBECDBFDF91B0
:10146000CF911F910F91FF90DF90CF90BF90AF90E1
:101470000895B7FE05C058019111DDCFB7FC9CCF90
:101480006F2D6274623409F097CF61E0C5010E944C
:101490005306009709F490CF20E2FC0111922A959F
:1014A000E9F72BE0F601DC0101900D922A95E1F7B6
:1014B00021E238E2FC01318B208B40E058E0578775
:1014C0004687338B228B318F208F578B468B0E9420
:1014D0007003882309F470CF62E4C501B8CF1F936D
:1014E000CF93DF93EC01162F62E082E291E00E943D
:1014F000AA09AE0170E060E0615F7F4F8CE195E08A
:101500000E94C305612F8CE195E00E944309DF91A1
:10151000CF911F910C94AA06CF93DF93EC0161E069
:1015200082E291E00E94AA09AE0170E060E0615F92
:101530007F4F8CE195E00E94C3050E94E907EC0112
:101540000E94AA06CE01DF91CF9108950F931F93B9
:10155000CF93DF938C01EB0161E08AE291E00E947E
:10156000AA090F571F4FA80170E060E08CE195E0D9
:101570000E94C3050E94E9078C0F9D1FAC0170E01B
:1015800060E08CE195E00E94C3050E94E907DF91CD
:10159000CF911F910F9108950F931F93CF93DF93D6
:1015A000EC010E94D4018C0142E050E063E371E061
:1015B000CE010E94E700800F911FDF91CF911F9114
:1015C0000F9108951F920F920FB60F9211242F932F
:1015D0003F934F935F936F937F938F939F93AF93BB
:1015E000BF93EF93FF938FE794E00E946501FF9113
:1015F000EF91BF91AF919F918F917F916F915F918B
:101600004F913F912F910F900FBE0F901F90189503
:101610001F920F920FB60F9211242F938F939F93C7
:10162000EF93FF93E0918F04F09190048081E0911B
:101630009504F091960482FD1BC0908180919804DE
:101640008F5F8F7320919904821741F0E091980485
:10165000F0E0E158FB4F958F80939804FF91EF9154
:101660009F918F912F910F900FBE0F901F90189503
:101670008081F4CF1F920F920FB60F9211242F93F7
:101680003F938F939F93AF93BF9380914C01909121
:101690004D01A0914E01B0914F0130914B0123E0DB
:1016A000230F2D3758F50196A11DB11D20934B0135
:1016B00080934C0190934D01A0934E01B0934F0144
:1016C0008091470190914801A0914901B0914A0150
:1016D0000196A11DB11D8093470190934801A093ED
:1016E0004901B0934A01BF91AF919F918F913F9172
:1016F0002F910F900FBE0F901F90189526E8230F83
:101700000296A11DB11DD2CFEFE7F4E01382128241
:1017100088EE93E0A0E0B0E084839583A683B7834E
:1017200088E091E09183808385EC90E095878487C1
:1017300084EC90E09787868780EC90E0918B808B9B
:1017400081EC90E0938B828B82EC90E0958B848B84
:1017500086EC90E0978B868B118E128E138E148EF2
:10176000ECE1F5E0138212828AE191E091838083BB
:1017700015820895789484B5826084BD84B58160B3
:1017800084BD85B5826085BD85B5816085BD80914C
:101790006E00816080936E001092810080918100C4
:1017A00082608093810080918100816080938100BC
:1017B000809180008160809380008091B10084607E
:1017C0008093B1008091B00081608093B0008091DF
:1017D0007A00846080937A0080917A00826080939E
:1017E0007A0080917A00816080937A0080917A00FB
:1017F000806880937A001092C100E0918F04F0918C
:10180000900482E08083E0918B04F0918C0410823C
:10181000E0918D04F0918E048FEC808310929704F8
:10182000E0919304F091940486E08083E091910428
:10183000F0919204808180618083E0919104F09125
:101840009204808188608083E0919104F0919204F9
:10185000808180688083E0919104F091920480817E
:101860008F7D808362E371E08FE794E00E94CC0A71
:1018700065E071E08FE794E00E94CC0A68ED70E0CB
:101880008FE794E00E94D40102E0FAE0FF2EA3E586
:10189000EA2E00936702F0926602109264020E94A0
:1018A0009002EB0161E0809166020E945F0261E0BC
:1018B000809166020E94130260E08CE00E945F0249
:1018C00061E08AE00E945F0261E08AE00E94130208
:1018D00061E08BE00E945F0261E08DE00E945F02A8
:1018E000ECBC1AE08FEF0E949C021150D9F760E027
:1018F000809166020E94130220E030E0A90160E0BE
:1019000084E692E00E94CE02182F8130C9F00E9436
:1019100090026C1B7D0B613D774070F31093650264
:1019200081E08093640284E692E00E94A10241E09B
:1019300050E066E371E08FE794E00E94E700A9CFF2
:1019400020E030E0A90167E384E692E00E94CE0245
:1019500020E030E0A90169E284E692E00E94CE0234
:10196000182F882361F00E9490026C1B7D0B613D53
:10197000774030F31093650200936402D4CF84E67D
:1019800092E00E94A10260EC70E08FE794E00E9478
:10199000D40181E00E941A0481110DC00E941A0432
:1019A000811109C041E050E066E371E08FE794E007
:1019B0000E94E700EECF68EB70E08FE794E00E94B2
:1019C000CC0A65EF70E08FE794E00E94CC0A60E0FB
:1019D00070EF89E090E00E946F0A70E060E08DE2B5
:1019E00090E00E946F0A60E870E084E090E00E945E
:1019F0006F0A63E088E391E00E94AA0960912605DE
:101A00007091270590E080E00E946F0AD0E0C0E06E
:101A1000C1308FEFD80750F561E08AE291E00E9473
:101A2000AA0960E870E080E591E00E941207C80F03
:101A3000D91F0E94AA0662E482E291E00E94AA09EC
:101A4000AE010D2E000C660B770B615F7F4F8CE1B2
:101A500095E00E94C30540E850E060E571E08CE14C
:101A600095E00E94FF070E94AA06D2CF80E091E095
:101A7000909363028093620289E090E00E948C0A56
:101A8000E4E0880F991FEA95E1F7C0916202D091D6
:101A90006302C80FD91F61E082E291E00E94AA09A7
:101AA000AE0170E060E08CE195E00E94C3050E9409
:101AB000E9078C010E94AA06E801DD27D0936102A4
:101AC000C0936002209709F4F1C000935F02BE0149
:101AD00088E090E00E94A60A80935102BE0189E04E
:101AE00090E00E94A60ABE018EE090E00E94A60A45
:101AF00080935602BE018AE090E00E94A60A80917F
:101B00005F02982F917090935E028695817080930A
:101B10005D02E0916002F091610261814281862F55
:101B2000942F90935C0280935B022381409359022F
:101B300020935A0220915802222319F02150209319
:101B4000580220915702222319F021502093570266
:101B500020915602222309F455C09C0156E0369587
:101B600027955A95E1F7237067706093550273E0EB
:101B7000969587957A95E1F787708093540284E073
:101B800090E0222359F0213039F4042E000C550B3B
:101B900050935A024093590290E080E09093530290
:101BA00080935202233071F120915802211156C0C6
:101BB00070E003960E94A60A90E00E948C0A609151
:101BC000550270E0809152029091530201960E945A
:101BD000A60A90E00E948C0A6091550270E0809104
:101BE00052029091530202960E94A60A60915502F9
:101BF00070E080915202909153020E94A60A90E0F8
:101C00000E948C0A80915102811136CF60915F024F
:101C1000669567706093500200915B02002E000C85
:101C2000110BC0915E02D0E070E08FE090E00E9466
:101C3000A60A90E00E948C0A882391F091E0C927BF
:101C4000C09F9001C19F300DD09F300D1124809115
:101C5000620290916302820F931F0ACF80E0ACCFA3
:101C60006091500270E080E190E00E94A60A90E04E
:101C70000E948C0A8111E2CF6091500270E081E1F4
:101C800090E00E94A60A90E00E948C0AF82E6091D3
:101C9000500270E082E190E00E94A60A90E00E946B
:101CA0008C0A91E0F812CBCF90E0C9CF65EE70E0DE
:101CB0008FE794E00E94CC0AC0E0D0E02097F1F3D7
:101CC0000E9451018823D1F30E940000F7CFA1E2C6
:101CD0001A2EAA1BBB1BFD010DC0AA1FBB1FEE1FA6
:101CE000FF1FA217B307E407F50720F0A21BB30BF1
:101CF000E40BF50B661F771F881F991F1A9469F76D
:101D000060957095809590959B01AC01BD01CF01C8
:101D10000895A29FB001B39FC001A39F700D811DC4
:101D20001124911DB29F700D811D1124911D0895E4
:101D3000EE0FFF1F0590F491E02D0994FB01DC01EB
:101D400004C08D910190801921F441505040C8F792
:101D5000881B990B0895FB01DC0102C001900D92D4
:0C1D600041505040D8F70895F894FFCF90
:101D6C00FFFFFFFF000000008701E7001401F301F3
:101D7C00450123013701000000004309E7000F076C
:101D8C000E0772616D2E62696E0062696F732E624E
:101D9C00696E000D0A002E006469736B2E696D6705
:021DAC00000035
:00000001FF
